{
	"data": {
		"bytecode": {
			"linkReferences": {},
			"object": "6080604052348015600e575f5ffd5b50612af48061001c5f395ff3fe6080604052600436106100fd575f3560e01c8063a16a3d6011610092578063de274f0211610062578063de274f0214610cc1578063e086e5ec14610cd4578063e156855914610ce8578063f80682cd14610d07578063fd9269c514610d28575f5ffd5b8063a16a3d6014610c58578063c85ac3ef14610c7b578063ccd3e22914610c8e578063d826f88f14610cad575f5ffd5b806389476069116100cd5780638947606914610bc4578063966dae0e14610be35780639ac7b53e14610c1a5780639e1955e714610c39575f5ffd5b80630f1c860a14610b555780634012c2fa14610b6a5780634a09351714610b9257806368fbd65f14610bb1575f5ffd5b36610b51576040513481527f7fe3da9f8234611da2fd9f4a5069b8e72d6a5919254646d5a3f2caf93a2fb81a9060200160405180910390a15f5460ff161561014157005b5f805460ff1916600117905560045415610b4657600454600103610257575f8054819061010090046001600160a01b0316816103e861018242610e1061223e565b60405161ffff9092166024830152604482015260640160408051601f198184030181529181526020820180516001600160e01b0316638c59091760e01b179052516101cd9190612251565b5f6040518083038185875af1925050503d805f8114610207576040519150601f19603f3d011682016040523d82523d5f602084013e61020c565b606091505b5091509150816102505761021f81610d51565b60029061022c90826122f7565b505f6002805461023b9061227b565b6003805460ff19169390911192909217909155505b5050610b46565b600454600203610314575f8054819061010090046001600160a01b031660016107d061028542610e1061223e565b60405160ff909316602484015261ffff909116604483015260648201526084015b60408051601f198184030181529181526020820180516001600160e01b031663a41fe49f60e01b179052516102db9190612251565b5f604051808303815f865af19150503d805f8114610207576040519150601f19603f3d011682016040523d82523d5f602084013e61020c565b600454600303610397575f8054819061010090046001600160a01b031660016107d061034242610e1061223e565b60405160ff909316602484015261ffff9091166044830152606482015260840160408051601f198184030181529181526020820180516001600160e01b03166321c912e760e21b179052516102db9190612251565b60045460040361066b577fa690a5bf8a18de6103855c85a2b9e5c39dc10fe3258cc271b5d7dcd1dd4019296040516104109060208082526027908201527f417474656d7074696e6720746f207265656e74657220636c61696d46656520666040820152663ab731ba34b7b760c91b606082015260800190565b60405180910390a15f8054604051600160248201526107d06044820152426064820152829161010090046001600160a01b03169060840160408051601f198184030181529181526020820180516001600160e01b03166309860ca560e31b1790525161047c9190612251565b5f604051808303815f865af19150503d805f81146104b5576040519150601f19603f3d011682016040523d82523d5f602084013e6104ba565b606091505b509150915081610250576104cd81610d51565b6002906104da90826122f7565b506105a2600280546104eb9061227b565b80601f01602080910402602001604051908101604052809291908181526020018280546105179061227b565b80156105625780601f1061053957610100808354040283529160200191610562565b820191905f5260205f20905b81548152906001019060200180831161054557829003601f168201915b50505050506040518060400160405280601d81526020017f5472616e73616374696f6e2072657665727465642073696c656e746c79000000815250610db6565b806105b95750600280546105b59061227b565b1590505b156106015760408051808201909152601f81527f5265656e7472616e637947756172643a207265656e7472616e742063616c6c0060208201526002906105ff90826122f7565b505b6003805460ff191660011790556040517f12fe6995c75deb50c8265a62fcfa2ac52a5bca60b8963eda43587e562641350f90610642906002906020016123b2565b60408051601f198184030181529082905261065c91612460565b60405180910390a15050610b46565b600454600503610952576040805160018082528183019092525f91602080830190803683370190505090506001815f815181106106aa576106aa612495565b6001600160a01b0392909216602092830291909101909101526040805160018082528183019092525f91816020016020820280368337019050509050612710815f815181106106fb576106fb612495565b6020026020010181815250507fa690a5bf8a18de6103855c85a2b9e5c39dc10fe3258cc271b5d7dcd1dd4019296040516107789060208082526029908201527f417474656d7074696e67207265656e7472616e63792061747461636b206f6e2060408201526863726561746542545360b81b606082015260800190565b60405180910390a16001545f9081906001600160a01b0316662386f26fc1000085856107d06107a942610e1061223e565b6040516024016107bc949392919061251c565b60408051601f198184030181529181526020820180516001600160e01b0316636a026bcf60e01b179052516107f19190612251565b5f6040518083038185875af1925050503d805f811461082b576040519150601f19603f3d011682016040523d82523d5f602084013e610830565b606091505b5091509150816108ce5761084381610d51565b60029061085090826122f7565b505f6002805461085f9061227b565b6003805460ff19169390911192909217909155506040517f12fe6995c75deb50c8265a62fcfa2ac52a5bca60b8963eda43587e562641350f906108a7906002906020016123b2565b60408051601f19818403018152908290526108c191612460565b60405180910390a1610949565b7f12fe6995c75deb50c8265a62fcfa2ac52a5bca60b8963eda43587e562641350f604051610940906020808252602a908201527f5265656e7472616e63792061747461636b2073756363656564656420776974686040820152696f7574206572726f722160b01b606082015260800190565b60405180910390a15b50505050610b46565b60045460060361097f575f8054819061010090046001600160a01b0316816103e861018242610e1061223e565b6004546007036109f7575f8054819061010090046001600160a01b0316816103e86109ac42610e1061223e565b60405161ffff9092166024830152604482015260640160408051601f198184030181529181526020820180516001600160e01b03166311e45f1160e01b179052516101cd9190612251565b600454600803610a4a575f8054819061010090046001600160a01b03166103e86107d0610a2642610e1061223e565b60405161ffff938416602482015292909116604483015260648201526084016102a6565b600454600903610b46575f8054819061010090046001600160a01b03166103e8610a7642610e1061223e565b60405161ffff9092166024830152604482015260640160408051601f198184030181529181526020820180516001600160e01b031663d1fe624560e01b17905251610ac19190612251565b5f604051808303815f865af19150503d805f8114610afa576040519150601f19603f3d011682016040523d82523d5f602084013e610aff565b606091505b509150915081610b4357610b1281610d51565b600290610b1f90826122f7565b505f60028054610b2e9061227b565b6003805460ff19169390911192909217909155505b50505b5f805460ff19168155005b5f5ffd5b610b68610b6336600461265a565b610e85565b005b348015610b75575f5ffd5b50610b7f60045481565b6040519081526020015b60405180910390f35b348015610b9d575f5ffd5b50610b68610bac36600461268a565b611065565b610b68610bbf3660046126b2565b61121d565b348015610bcf575f5ffd5b50610b68610bde3660046126ec565b611455565b348015610bee575f5ffd5b50600154610c02906001600160a01b031681565b6040516001600160a01b039091168152602001610b89565b348015610c25575f5ffd5b50610b68610c3436600461270c565b611538565b348015610c44575f5ffd5b50610b68610c5336600461268a565b61174e565b348015610c63575f5ffd5b505f54610c029061010090046001600160a01b031681565b610b68610c8936600461268a565b6118ef565b348015610c99575f5ffd5b50610b68610ca836600461270c565b611a9c565b348015610cb8575f5ffd5b50610b68611c86565b610b68610ccf36600461268a565b611cb4565b348015610cdf575f5ffd5b50610b68611e52565b348015610cf3575f5ffd5b50610b68610d02366004612755565b611e7b565b348015610d12575f5ffd5b50610d1b612097565b604051610b899190612460565b348015610d33575f5ffd5b50600354610d419060ff1681565b6040519015158152602001610b89565b6060604482511015610d9657505060408051808201909152601d81527f5472616e73616374696f6e2072657665727465642073696c656e746c79000000602082015290565b60048201915081806020019051810190610db0919061278b565b92915050565b815181515f91849184911015610dd0575f92505050610db0565b5f5b81518351610de0919061283e565b8111610e7a5760015f5b8351811015610e5357838181518110610e0557610e05612495565b01602001516001600160f81b03191685610e1f838661223e565b81518110610e2f57610e2f612495565b01602001516001600160f81b03191614610e4b575f9150610e53565b600101610dea565b508015610e67576001945050505050610db0565b5080610e7281612851565b915050610dd2565b505f95945050505050565b5f8054610100600160a81b0319166101006001600160a01b0386160217815560016004556003805460ff191690556040805160208101909152908152600290610ece90826122f7565b505f516020612a9f5f395f51905f52604051610f08906020808252600a9082015269636f6e7472696275746560b01b604082015260600190565b60405180910390a167016345785d8a0000471015610f4f5760405130905f9067016345785d8a00009082818181858883f19350505050158015610f4d573d5f5f3e3d5ffd5b505b5f80546040516024810185905260448101849052829161010090046001600160a01b031690349060640160408051601f198184030181529181526020820180516001600160e01b0316638c59091760e01b17905251610fae9190612251565b5f6040518083038185875af1925050503d805f8114610fe8576040519150601f19603f3d011682016040523d82523d5f602084013e610fed565b606091505b5091509150816110135761100081612123565b60029061100d90826122f7565b5061105e565b60035460ff16158061103157506002805461102d9061227b565b1590505b1561105e576040518060600160405280603b8152602001612a64603b913960029061105c90826122f7565b505b5050505050565b5f8054610100600160a81b0319166101006001600160a01b0385160217905560096004556040805160608101909152603b808252612a6460208301396002906110ae90826122f7565b506003805460ff199081169091555f805490911681556040516103e860248201526044810183905281906001600160a01b0385169060640160408051601f198184030181529181526020820180516001600160e01b031663d1fe624560e01b1790525161111b9190612251565b5f604051808303815f865af19150503d805f8114611154576040519150601f19603f3d011682016040523d82523d5f602084013e611159565b606091505b5091509150816111c35761116c81612123565b60029061117990826122f7565b505f600280546111889061227b565b6003805460ff19169390911192909217909155506040515f516020612a445f395f51905f52906111ba90600290612869565b60405180910390a15b5f516020612a9f5f395f51905f5260405161120f906020808252601c908201527f6d6f636b5769746864726177576974684e6f6e5265656e7472616e7400000000604082015260600190565b60405180910390a150505050565b600180546001600160a01b0319166001600160a01b03851617905560056004556040805160608101909152603b808252612a64602083013960029061126290826122f7565b506003805460ff199081169091555f80549091168155604080516001808252818301909252906020808301908036833701905050905082815f815181106112ab576112ab612495565b6001600160a01b0392909216602092830291909101909101526040805160018082528183019092525f91816020016020820280368337019050509050612710815f815181106112fc576112fc612495565b6020026020010181815250505f5f866001600160a01b03163485856107d08960405160240161132e94939291906128ef565b60408051601f198184030181529181526020820180516001600160e01b0316636a026bcf60e01b179052516113639190612251565b5f6040518083038185875af1925050503d805f811461139d576040519150601f19603f3d011682016040523d82523d5f602084013e6113a2565b606091505b50915091508161140c576113b581612123565b6002906113c290826122f7565b505f600280546113d19061227b565b6003805460ff19169390911192909217909155506040515f516020612a445f395f51905f529061140390600290612869565b60405180910390a15b5f516020612a9f5f395f51905f526040516114449060208082526009908201526863726561746542545360b81b604082015260600190565b60405180910390a150505050505050565b6040516370a0823160e01b815230600482015281906001600160a01b0382169063a9059cbb90339083906370a0823190602401602060405180830381865afa1580156114a3573d5f5f3e3d5ffd5b505050506040513d601f19601f820116820180604052508101906114c791906129e5565b6040516001600160e01b031960e085901b1681526001600160a01b03909216600483015260248201526044016020604051808303815f875af115801561150f573d5f5f3e3d5ffd5b505050506040513d601f19601f8201168201806040525081019061153391906129fc565b505050565b5f8054610100600160a81b0319166101006001600160a01b03881602178155600260048190556003805460ff1916905560408051602081019091529182529061158190826122f7565b505f516020612a9f5f395f51905f526040516115b990602080825260089082015267776974686472617760c01b604082015260600190565b60405180910390a160405163095ea7b360e01b81526001600160a01b0386811660048301526024820185905285169063095ea7b3906044016020604051808303815f875af115801561160d573d5f5f3e3d5ffd5b505050506040513d601f19601f8201168201806040525081019061163191906129fc565b505f8054604051602481018690526044810185905260648101849052829161010090046001600160a01b03169060840160408051601f198184030181529181526020820180516001600160e01b031663a41fe49f60e01b179052516116969190612251565b5f604051808303815f865af19150503d805f81146116cf576040519150601f19603f3d011682016040523d82523d5f602084013e6116d4565b606091505b5091509150816116fa576116e781612123565b6002906116f490826122f7565b50611745565b60035460ff1615806117185750600280546117149061227b565b1590505b15611745576040518060600160405280603b8152602001612a64603b913960029061174390826122f7565b505b50505050505050565b5f8054610100600160a81b0319166101006001600160a01b0385160217905560086004556040805160608101909152603b808252612a64602083013960029061179790826122f7565b506003805460ff199081169091555f805490911681556040516103e860248201526107d060448201526064810183905281906001600160a01b0385169060840160408051601f198184030181529181526020820180516001600160e01b031663a41fe49f60e01b1790525161180c9190612251565b5f604051808303815f865af19150503d805f8114611845576040519150601f19603f3d011682016040523d82523d5f602084013e61184a565b606091505b5091509150816118b45761185d81612123565b60029061186a90826122f7565b505f600280546118799061227b565b6003805460ff19169390911192909217909155506040515f516020612a445f395f51905f52906118ab90600290612869565b60405180910390a15b5f516020612a9f5f395f51905f5260405161120f906020808252600c908201526b6d6f636b576974686472617760a01b604082015260600190565b5f8054610100600160a81b0319166101006001600160a01b0385160217905560076004556040805160608101909152603b808252612a64602083013960029061193890826122f7565b506003805460ff199081169091555f805490911681556040516103e860248201526044810183905281906001600160a01b03851690349060640160408051601f198184030181529181526020820180516001600160e01b03166311e45f1160e01b179052516119a79190612251565b5f6040518083038185875af1925050503d805f81146119e1576040519150601f19603f3d011682016040523d82523d5f602084013e6119e6565b606091505b509150915081611a50576119f981612123565b600290611a0690826122f7565b505f60028054611a159061227b565b6003805460ff19169390911192909217909155506040515f516020612a445f395f51905f5290611a4790600290612869565b60405180910390a15b5f516020612a9f5f395f51905f5260405161120f906020808252601e908201527f6d6f636b436f6e74726962757465576974684e6f6e5265656e7472616e740000604082015260600190565b5f80546001600160a01b03871661010002610100600160a81b031990911617905560036004556040515f516020612a9f5f395f51905f5290611afd906020808252600b908201526a0eed2e8d0c8e4c2ee8aa8960ab1b604082015260600190565b60405180910390a160405163095ea7b360e01b81526001600160a01b0386811660048301526024820185905285169063095ea7b3906044016020604051808303815f875af1158015611b51573d5f5f3e3d5ffd5b505050506040513d601f19601f82011682018060405250810190611b7591906129fc565b505f8054604051602481018690526044810185905260648101849052829161010090046001600160a01b03169060840160408051601f198184030181529181526020820180516001600160e01b03166321c912e760e21b17905251611bda9190612251565b5f604051808303815f865af19150503d805f8114611c13576040519150601f19603f3d011682016040523d82523d5f602084013e611c18565b606091505b5091509150818015611c2d575060035460ff16155b15611c6b57604051806060016040528060288152602001612a1c60289139600290611c5890826122f7565b506003805460ff19166001179055611745565b8161174557611c7981612123565b60029061174390826122f7565b5f60048190556003805460ff191690556040805160208101909152908152600290611cb190826122f7565b50565b5f8054610100600160a81b0319166101006001600160a01b0385160217905560066004556040805160608101909152603b808252612a646020830139600290611cfd90826122f7565b506003805460ff199081169091555f805490911681556040516103e860248201526044810183905281906001600160a01b03851690349060640160408051601f198184030181529181526020820180516001600160e01b0316638c59091760e01b17905251611d6c9190612251565b5f6040518083038185875af1925050503d805f8114611da6576040519150601f19603f3d011682016040523d82523d5f602084013e611dab565b606091505b509150915081611e1557611dbe81612123565b600290611dcb90826122f7565b505f60028054611dda9061227b565b6003805460ff19169390911192909217909155506040515f516020612a445f395f51905f5290611e0c90600290612869565b60405180910390a15b5f516020612a9f5f395f51905f5260405161120f906020808252600e908201526d6d6f636b436f6e7472696275746560901b604082015260600190565b60405133904780156108fc02915f818181858888f19350505050158015611cb1573d5f5f3e3d5ffd5b5f8054610100600160a81b0319166101006001600160a01b03871602179055600480556003805460ff1916905560408051808201909152601f81527f5265656e7472616e637947756172643a207265656e7472616e742063616c6c006020820152600290611ee990826122f7565b505f516020612a9f5f395f51905f52604051611f2190602080825260089082015267636c61696d46656560c01b604082015260600190565b60405180910390a15f805460ff1916808255604051602481018690526044810185905260648101849052829161010090046001600160a01b03169060840160408051601f198184030181529181526020820180516001600160e01b03166309860ca560e31b17905251611f949190612251565b5f604051808303815f865af19150503d805f8114611fcd576040519150601f19603f3d011682016040523d82523d5f602084013e611fd2565b606091505b50915091508161206757611fe581612123565b600290611ff290826122f7565b50612003600280546104eb9061227b565b8061201a5750600280546120169061227b565b1590505b156120625760408051808201909152601f81527f5265656e7472616e637947756172643a207265656e7472616e742063616c6c00602082015260029061206090826122f7565b505b61105c565b60035460ff1661105c576040518060600160405280603b8152602001612a64603b913960029061174590826122f7565b600280546120a49061227b565b80601f01602080910402602001604051908101604052809291908181526020018280546120d09061227b565b801561211b5780601f106120f25761010080835404028352916020019161211b565b820191905f5260205f20905b8154815290600101906020018083116120fe57829003601f168201915b505050505081565b606060448251101561216857505060408051808201909152601d81527f5472616e73616374696f6e2072657665727465642073696c656e746c79000000602082015290565b5f60048351612177919061283e565b67ffffffffffffffff81111561218f5761218f612267565b6040519080825280601f01601f1916602001820160405280156121b9576020820181803683370190505b50905060045b8351811015612223578381815181106121da576121da612495565b01602001516001600160f81b031916826121f560048461283e565b8151811061220557612205612495565b60200101906001600160f81b03191690815f1a9053506001016121bf565b5092915050565b634e487b7160e01b5f52601160045260245ffd5b80820180821115610db057610db061222a565b5f82518060208501845e5f920191825250919050565b634e487b7160e01b5f52604160045260245ffd5b600181811c9082168061228f57607f821691505b6020821081036122ad57634e487b7160e01b5f52602260045260245ffd5b50919050565b601f82111561153357805f5260205f20601f840160051c810160208510156122d85750805b601f840160051c820191505b8181101561105e575f81556001016122e4565b815167ffffffffffffffff81111561231157612311612267565b6123258161231f845461227b565b846122b3565b6020601f821160018114612357575f83156123405750848201515b5f19600385901b1c1916600184901b17845561105e565b5f84815260208120601f198516915b828110156123865787850151825560209485019460019092019101612366565b50848210156123a357868401515f19600387901b60f8161c191681555b50505050600190811b01905550565b7f5265656e7472616e63792061747461636b206661696c6564207769746820657281526403937b91d160dd1b60208201525f5f83546123f08161227b565b600182168015612407576001811461242257612455565b60ff1983166025870152602582151583028701019350612455565b865f5260205f205f5b8381101561244a5781548882016025015260019091019060200161242b565b505060258287010193505b509195945050505050565b602081525f82518060208401528060208501604085015e5f604082850101526040601f19601f83011684010191505092915050565b634e487b7160e01b5f52603260045260245ffd5b5f8151808452602084019350602083015f5b828110156124e25781516001600160a01b03168652602095860195909101906001016124bb565b5093949350505050565b5f8151808452602084019350602083015f5b828110156124e25781518652602095860195909101906001016124fe565b61012081526011610120820152705265656e7472616e63795465737442545360781b61014082015261016060208201525f61256d61016083016005815264525442545360d81b602082015260400190565b828103604084015261257f81886124a9565b9050828103606084015261259381876124ec565b8381036080850152601a81527f697066733a2f2f7265656e7472616e63792d746573742d757269000000000000602082015290506040810161ffff861660a0850152905082810360c0840152600d81526c5245454e5452414e435931323360981b60208201526040810183810360e085015260138152725265656e7472616e637920546573742042545360681b60208201529050604081015b9150508261010083015295945050505050565b80356001600160a01b0381168114612655575f5ffd5b919050565b5f5f5f6060848603121561266c575f5ffd5b6126758461263f565b95602085013595506040909401359392505050565b5f5f6040838503121561269b575f5ffd5b6126a48361263f565b946020939093013593505050565b5f5f5f606084860312156126c4575f5ffd5b6126cd8461263f565b92506126db6020850161263f565b929592945050506040919091013590565b5f602082840312156126fc575f5ffd5b6127058261263f565b9392505050565b5f5f5f5f5f60a08688031215612720575f5ffd5b6127298661263f565b94506127376020870161263f565b94979496505050506040830135926060810135926080909101359150565b5f5f5f5f60808587031215612768575f5ffd5b6127718561263f565b966020860135965060408601359560600135945092505050565b5f6020828403121561279b575f5ffd5b815167ffffffffffffffff8111156127b1575f5ffd5b8201601f810184136127c1575f5ffd5b805167ffffffffffffffff8111156127db576127db612267565b604051601f8201601f19908116603f0116810167ffffffffffffffff8111828210171561280a5761280a612267565b604052818152828201602001861015612821575f5ffd5b8160208401602083015e5f91810160200191909152949350505050565b81810381811115610db057610db061222a565b5f600182016128625761286261222a565b5060010190565b602081525f5f835461287a8161227b565b806020860152600182165f811461289857600181146128b457612455565b60ff1983166040870152604082151560051b8701019350612455565b865f5260205f205f5b838110156128dc578154888201604001526001909101906020016128bd565b8701604001945050509195945050505050565b61012081526007610120820152665465737442545360c81b61014082015261016060208201525f612935610160830160048152635442545360e01b602082015260400190565b828103604084015261294781886124a9565b9050828103606084015261295b81876124ec565b8381036080850152600f81526e697066733a2f2f746573742d75726960881b602082015290506040810161ffff861660a0850152905082810360c084015260078152665445535431323360c81b60208201526040810183810360e085015260148152732a32b9ba10212a29902232b9b1b934b83a34b7b760611b602082015290506040810161262c565b5f602082840312156129f5575f5ffd5b5051919050565b5f60208284031215612a0c575f5ffd5b81518015158114612705575f5ffdfe46756e6374696f6e2069732070726f74656374656420616761696e7374207265656e7472616e6379f0a559ac9413a8f2c63b7e229e8dc956a8015195bc1d2e668f13731f9d4c70a146756e6374696f6e20636f6d706c6574656420776974686f75742074726967676572696e67207265656e7472616e63792070726f74656374696f6e40f5440819afa307c5415fd21baf5ec1962d9125e88c03ace5e3d6b955749190a264697066735822122071e27bda309c4ac3d58a96233f3b687464778652765df4c870fb438db037c75364736f6c634300081e0033",
			"opcodes": "PUSH1 0x80 PUSH1 0x40 MSTORE CALLVALUE DUP1 ISZERO PUSH1 0xE JUMPI PUSH0 PUSH0 REVERT JUMPDEST POP PUSH2 0x2AF4 DUP1 PUSH2 0x1C PUSH0 CODECOPY PUSH0 RETURN INVALID PUSH1 0x80 PUSH1 0x40 MSTORE PUSH1 0x4 CALLDATASIZE LT PUSH2 0xFD JUMPI PUSH0 CALLDATALOAD PUSH1 0xE0 SHR DUP1 PUSH4 0xA16A3D60 GT PUSH2 0x92 JUMPI DUP1 PUSH4 0xDE274F02 GT PUSH2 0x62 JUMPI DUP1 PUSH4 0xDE274F02 EQ PUSH2 0xCC1 JUMPI DUP1 PUSH4 0xE086E5EC EQ PUSH2 0xCD4 JUMPI DUP1 PUSH4 0xE1568559 EQ PUSH2 0xCE8 JUMPI DUP1 PUSH4 0xF80682CD EQ PUSH2 0xD07 JUMPI DUP1 PUSH4 0xFD9269C5 EQ PUSH2 0xD28 JUMPI PUSH0 PUSH0 REVERT JUMPDEST DUP1 PUSH4 0xA16A3D60 EQ PUSH2 0xC58 JUMPI DUP1 PUSH4 0xC85AC3EF EQ PUSH2 0xC7B JUMPI DUP1 PUSH4 0xCCD3E229 EQ PUSH2 0xC8E JUMPI DUP1 PUSH4 0xD826F88F EQ PUSH2 0xCAD JUMPI PUSH0 PUSH0 REVERT JUMPDEST DUP1 PUSH4 0x89476069 GT PUSH2 0xCD JUMPI DUP1 PUSH4 0x89476069 EQ PUSH2 0xBC4 JUMPI DUP1 PUSH4 0x966DAE0E EQ PUSH2 0xBE3 JUMPI DUP1 PUSH4 0x9AC7B53E EQ PUSH2 0xC1A JUMPI DUP1 PUSH4 0x9E1955E7 EQ PUSH2 0xC39 JUMPI PUSH0 PUSH0 REVERT JUMPDEST DUP1 PUSH4 0xF1C860A EQ PUSH2 0xB55 JUMPI DUP1 PUSH4 0x4012C2FA EQ PUSH2 0xB6A JUMPI DUP1 PUSH4 0x4A093517 EQ PUSH2 0xB92 JUMPI DUP1 PUSH4 0x68FBD65F EQ PUSH2 0xBB1 JUMPI PUSH0 PUSH0 REVERT JUMPDEST CALLDATASIZE PUSH2 0xB51 JUMPI PUSH1 0x40 MLOAD CALLVALUE DUP2 MSTORE PUSH32 0x7FE3DA9F8234611DA2FD9F4A5069B8E72D6A5919254646D5A3F2CAF93A2FB81A SWAP1 PUSH1 0x20 ADD PUSH1 0x40 MLOAD DUP1 SWAP2 SUB SWAP1 LOG1 PUSH0 SLOAD PUSH1 0xFF AND ISZERO PUSH2 0x141 JUMPI STOP JUMPDEST PUSH0 DUP1 SLOAD PUSH1 0xFF NOT AND PUSH1 0x1 OR SWAP1 SSTORE PUSH1 0x4 SLOAD ISZERO PUSH2 0xB46 JUMPI PUSH1 0x4 SLOAD PUSH1 0x1 SUB PUSH2 0x257 JUMPI PUSH0 DUP1 SLOAD DUP2 SWAP1 PUSH2 0x100 SWAP1 DIV PUSH1 0x1 PUSH1 0x1 PUSH1 0xA0 SHL SUB AND DUP2 PUSH2 0x3E8 PUSH2 0x182 TIMESTAMP PUSH2 0xE10 PUSH2 0x223E JUMP JUMPDEST PUSH1 0x40 MLOAD PUSH2 0xFFFF SWAP1 SWAP3 AND PUSH1 0x24 DUP4 ADD MSTORE PUSH1 0x44 DUP3 ADD MSTORE PUSH1 0x64 ADD PUSH1 0x40 DUP1 MLOAD PUSH1 0x1F NOT DUP2 DUP5 SUB ADD DUP2 MSTORE SWAP2 DUP2 MSTORE PUSH1 0x20 DUP3 ADD DUP1 MLOAD PUSH1 0x1 PUSH1 0x1 PUSH1 0xE0 SHL SUB AND PUSH4 0x8C590917 PUSH1 0xE0 SHL OR SWAP1 MSTORE MLOAD PUSH2 0x1CD SWAP2 SWAP1 PUSH2 0x2251 JUMP JUMPDEST PUSH0 PUSH1 0x40 MLOAD DUP1 DUP4 SUB DUP2 DUP6 DUP8 GAS CALL SWAP3 POP POP POP RETURNDATASIZE DUP1 PUSH0 DUP2 EQ PUSH2 0x207 JUMPI PUSH1 0x40 MLOAD SWAP2 POP PUSH1 0x1F NOT PUSH1 0x3F RETURNDATASIZE ADD AND DUP3 ADD PUSH1 0x40 MSTORE RETURNDATASIZE DUP3 MSTORE RETURNDATASIZE PUSH0 PUSH1 0x20 DUP5 ADD RETURNDATACOPY PUSH2 0x20C JUMP JUMPDEST PUSH1 0x60 SWAP2 POP JUMPDEST POP SWAP2 POP SWAP2 POP DUP2 PUSH2 0x250 JUMPI PUSH2 0x21F DUP2 PUSH2 0xD51 JUMP JUMPDEST PUSH1 0x2 SWAP1 PUSH2 0x22C SWAP1 DUP3 PUSH2 0x22F7 JUMP JUMPDEST POP PUSH0 PUSH1 0x2 DUP1 SLOAD PUSH2 0x23B SWAP1 PUSH2 0x227B JUMP JUMPDEST PUSH1 0x3 DUP1 SLOAD PUSH1 0xFF NOT AND SWAP4 SWAP1 SWAP2 GT SWAP3 SWAP1 SWAP3 OR SWAP1 SWAP2 SSTORE POP JUMPDEST POP POP PUSH2 0xB46 JUMP JUMPDEST PUSH1 0x4 SLOAD PUSH1 0x2 SUB PUSH2 0x314 JUMPI PUSH0 DUP1 SLOAD DUP2 SWAP1 PUSH2 0x100 SWAP1 DIV PUSH1 0x1 PUSH1 0x1 PUSH1 0xA0 SHL SUB AND PUSH1 0x1 PUSH2 0x7D0 PUSH2 0x285 TIMESTAMP PUSH2 0xE10 PUSH2 0x223E JUMP JUMPDEST PUSH1 0x40 MLOAD PUSH1 0xFF SWAP1 SWAP4 AND PUSH1 0x24 DUP5 ADD MSTORE PUSH2 0xFFFF SWAP1 SWAP2 AND PUSH1 0x44 DUP4 ADD MSTORE PUSH1 0x64 DUP3 ADD MSTORE PUSH1 0x84 ADD JUMPDEST PUSH1 0x40 DUP1 MLOAD PUSH1 0x1F NOT DUP2 DUP5 SUB ADD DUP2 MSTORE SWAP2 DUP2 MSTORE PUSH1 0x20 DUP3 ADD DUP1 MLOAD PUSH1 0x1 PUSH1 0x1 PUSH1 0xE0 SHL SUB AND PUSH4 0xA41FE49F PUSH1 0xE0 SHL OR SWAP1 MSTORE MLOAD PUSH2 0x2DB SWAP2 SWAP1 PUSH2 0x2251 JUMP JUMPDEST PUSH0 PUSH1 0x40 MLOAD DUP1 DUP4 SUB DUP2 PUSH0 DUP7 GAS CALL SWAP2 POP POP RETURNDATASIZE DUP1 PUSH0 DUP2 EQ PUSH2 0x207 JUMPI PUSH1 0x40 MLOAD SWAP2 POP PUSH1 0x1F NOT PUSH1 0x3F RETURNDATASIZE ADD AND DUP3 ADD PUSH1 0x40 MSTORE RETURNDATASIZE DUP3 MSTORE RETURNDATASIZE PUSH0 PUSH1 0x20 DUP5 ADD RETURNDATACOPY PUSH2 0x20C JUMP JUMPDEST PUSH1 0x4 SLOAD PUSH1 0x3 SUB PUSH2 0x397 JUMPI PUSH0 DUP1 SLOAD DUP2 SWAP1 PUSH2 0x100 SWAP1 DIV PUSH1 0x1 PUSH1 0x1 PUSH1 0xA0 SHL SUB AND PUSH1 0x1 PUSH2 0x7D0 PUSH2 0x342 TIMESTAMP PUSH2 0xE10 PUSH2 0x223E JUMP JUMPDEST PUSH1 0x40 MLOAD PUSH1 0xFF SWAP1 SWAP4 AND PUSH1 0x24 DUP5 ADD MSTORE PUSH2 0xFFFF SWAP1 SWAP2 AND PUSH1 0x44 DUP4 ADD MSTORE PUSH1 0x64 DUP3 ADD MSTORE PUSH1 0x84 ADD PUSH1 0x40 DUP1 MLOAD PUSH1 0x1F NOT DUP2 DUP5 SUB ADD DUP2 MSTORE SWAP2 DUP2 MSTORE PUSH1 0x20 DUP3 ADD DUP1 MLOAD PUSH1 0x1 PUSH1 0x1 PUSH1 0xE0 SHL SUB AND PUSH4 0x21C912E7 PUSH1 0xE2 SHL OR SWAP1 MSTORE MLOAD PUSH2 0x2DB SWAP2 SWAP1 PUSH2 0x2251 JUMP JUMPDEST PUSH1 0x4 SLOAD PUSH1 0x4 SUB PUSH2 0x66B JUMPI PUSH32 0xA690A5BF8A18DE6103855C85A2B9E5C39DC10FE3258CC271B5D7DCD1DD401929 PUSH1 0x40 MLOAD PUSH2 0x410 SWAP1 PUSH1 0x20 DUP1 DUP3 MSTORE PUSH1 0x27 SWAP1 DUP3 ADD MSTORE PUSH32 0x417474656D7074696E6720746F207265656E74657220636C61696D4665652066 PUSH1 0x40 DUP3 ADD MSTORE PUSH7 0x3AB731BA34B7B7 PUSH1 0xC9 SHL PUSH1 0x60 DUP3 ADD MSTORE PUSH1 0x80 ADD SWAP1 JUMP JUMPDEST PUSH1 0x40 MLOAD DUP1 SWAP2 SUB SWAP1 LOG1 PUSH0 DUP1 SLOAD PUSH1 0x40 MLOAD PUSH1 0x1 PUSH1 0x24 DUP3 ADD MSTORE PUSH2 0x7D0 PUSH1 0x44 DUP3 ADD MSTORE TIMESTAMP PUSH1 0x64 DUP3 ADD MSTORE DUP3 SWAP2 PUSH2 0x100 SWAP1 DIV PUSH1 0x1 PUSH1 0x1 PUSH1 0xA0 SHL SUB AND SWAP1 PUSH1 0x84 ADD PUSH1 0x40 DUP1 MLOAD PUSH1 0x1F NOT DUP2 DUP5 SUB ADD DUP2 MSTORE SWAP2 DUP2 MSTORE PUSH1 0x20 DUP3 ADD DUP1 MLOAD PUSH1 0x1 PUSH1 0x1 PUSH1 0xE0 SHL SUB AND PUSH4 0x9860CA5 PUSH1 0xE3 SHL OR SWAP1 MSTORE MLOAD PUSH2 0x47C SWAP2 SWAP1 PUSH2 0x2251 JUMP JUMPDEST PUSH0 PUSH1 0x40 MLOAD DUP1 DUP4 SUB DUP2 PUSH0 DUP7 GAS CALL SWAP2 POP POP RETURNDATASIZE DUP1 PUSH0 DUP2 EQ PUSH2 0x4B5 JUMPI PUSH1 0x40 MLOAD SWAP2 POP PUSH1 0x1F NOT PUSH1 0x3F RETURNDATASIZE ADD AND DUP3 ADD PUSH1 0x40 MSTORE RETURNDATASIZE DUP3 MSTORE RETURNDATASIZE PUSH0 PUSH1 0x20 DUP5 ADD RETURNDATACOPY PUSH2 0x4BA JUMP JUMPDEST PUSH1 0x60 SWAP2 POP JUMPDEST POP SWAP2 POP SWAP2 POP DUP2 PUSH2 0x250 JUMPI PUSH2 0x4CD DUP2 PUSH2 0xD51 JUMP JUMPDEST PUSH1 0x2 SWAP1 PUSH2 0x4DA SWAP1 DUP3 PUSH2 0x22F7 JUMP JUMPDEST POP PUSH2 0x5A2 PUSH1 0x2 DUP1 SLOAD PUSH2 0x4EB SWAP1 PUSH2 0x227B JUMP JUMPDEST DUP1 PUSH1 0x1F ADD PUSH1 0x20 DUP1 SWAP2 DIV MUL PUSH1 0x20 ADD PUSH1 0x40 MLOAD SWAP1 DUP2 ADD PUSH1 0x40 MSTORE DUP1 SWAP3 SWAP2 SWAP1 DUP2 DUP2 MSTORE PUSH1 0x20 ADD DUP3 DUP1 SLOAD PUSH2 0x517 SWAP1 PUSH2 0x227B JUMP JUMPDEST DUP1 ISZERO PUSH2 0x562 JUMPI DUP1 PUSH1 0x1F LT PUSH2 0x539 JUMPI PUSH2 0x100 DUP1 DUP4 SLOAD DIV MUL DUP4 MSTORE SWAP2 PUSH1 0x20 ADD SWAP2 PUSH2 0x562 JUMP JUMPDEST DUP3 ADD SWAP2 SWAP1 PUSH0 MSTORE PUSH1 0x20 PUSH0 KECCAK256 SWAP1 JUMPDEST DUP2 SLOAD DUP2 MSTORE SWAP1 PUSH1 0x1 ADD SWAP1 PUSH1 0x20 ADD DUP1 DUP4 GT PUSH2 0x545 JUMPI DUP3 SWAP1 SUB PUSH1 0x1F AND DUP3 ADD SWAP2 JUMPDEST POP POP POP POP POP PUSH1 0x40 MLOAD DUP1 PUSH1 0x40 ADD PUSH1 0x40 MSTORE DUP1 PUSH1 0x1D DUP2 MSTORE PUSH1 0x20 ADD PUSH32 0x5472616E73616374696F6E2072657665727465642073696C656E746C79000000 DUP2 MSTORE POP PUSH2 0xDB6 JUMP JUMPDEST DUP1 PUSH2 0x5B9 JUMPI POP PUSH1 0x2 DUP1 SLOAD PUSH2 0x5B5 SWAP1 PUSH2 0x227B JUMP JUMPDEST ISZERO SWAP1 POP JUMPDEST ISZERO PUSH2 0x601 JUMPI PUSH1 0x40 DUP1 MLOAD DUP1 DUP3 ADD SWAP1 SWAP2 MSTORE PUSH1 0x1F DUP2 MSTORE PUSH32 0x5265656E7472616E637947756172643A207265656E7472616E742063616C6C00 PUSH1 0x20 DUP3 ADD MSTORE PUSH1 0x2 SWAP1 PUSH2 0x5FF SWAP1 DUP3 PUSH2 0x22F7 JUMP JUMPDEST POP JUMPDEST PUSH1 0x3 DUP1 SLOAD PUSH1 0xFF NOT AND PUSH1 0x1 OR SWAP1 SSTORE PUSH1 0x40 MLOAD PUSH32 0x12FE6995C75DEB50C8265A62FCFA2AC52A5BCA60B8963EDA43587E562641350F SWAP1 PUSH2 0x642 SWAP1 PUSH1 0x2 SWAP1 PUSH1 0x20 ADD PUSH2 0x23B2 JUMP JUMPDEST PUSH1 0x40 DUP1 MLOAD PUSH1 0x1F NOT DUP2 DUP5 SUB ADD DUP2 MSTORE SWAP1 DUP3 SWAP1 MSTORE PUSH2 0x65C SWAP2 PUSH2 0x2460 JUMP JUMPDEST PUSH1 0x40 MLOAD DUP1 SWAP2 SUB SWAP1 LOG1 POP POP PUSH2 0xB46 JUMP JUMPDEST PUSH1 0x4 SLOAD PUSH1 0x5 SUB PUSH2 0x952 JUMPI PUSH1 0x40 DUP1 MLOAD PUSH1 0x1 DUP1 DUP3 MSTORE DUP2 DUP4 ADD SWAP1 SWAP3 MSTORE PUSH0 SWAP2 PUSH1 0x20 DUP1 DUP4 ADD SWAP1 DUP1 CALLDATASIZE DUP4 CALLDATACOPY ADD SWAP1 POP POP SWAP1 POP PUSH1 0x1 DUP2 PUSH0 DUP2 MLOAD DUP2 LT PUSH2 0x6AA JUMPI PUSH2 0x6AA PUSH2 0x2495 JUMP JUMPDEST PUSH1 0x1 PUSH1 0x1 PUSH1 0xA0 SHL SUB SWAP3 SWAP1 SWAP3 AND PUSH1 0x20 SWAP3 DUP4 MUL SWAP2 SWAP1 SWAP2 ADD SWAP1 SWAP2 ADD MSTORE PUSH1 0x40 DUP1 MLOAD PUSH1 0x1 DUP1 DUP3 MSTORE DUP2 DUP4 ADD SWAP1 SWAP3 MSTORE PUSH0 SWAP2 DUP2 PUSH1 0x20 ADD PUSH1 0x20 DUP3 MUL DUP1 CALLDATASIZE DUP4 CALLDATACOPY ADD SWAP1 POP POP SWAP1 POP PUSH2 0x2710 DUP2 PUSH0 DUP2 MLOAD DUP2 LT PUSH2 0x6FB JUMPI PUSH2 0x6FB PUSH2 0x2495 JUMP JUMPDEST PUSH1 0x20 MUL PUSH1 0x20 ADD ADD DUP2 DUP2 MSTORE POP POP PUSH32 0xA690A5BF8A18DE6103855C85A2B9E5C39DC10FE3258CC271B5D7DCD1DD401929 PUSH1 0x40 MLOAD PUSH2 0x778 SWAP1 PUSH1 0x20 DUP1 DUP3 MSTORE PUSH1 0x29 SWAP1 DUP3 ADD MSTORE PUSH32 0x417474656D7074696E67207265656E7472616E63792061747461636B206F6E20 PUSH1 0x40 DUP3 ADD MSTORE PUSH9 0x637265617465425453 PUSH1 0xB8 SHL PUSH1 0x60 DUP3 ADD MSTORE PUSH1 0x80 ADD SWAP1 JUMP JUMPDEST PUSH1 0x40 MLOAD DUP1 SWAP2 SUB SWAP1 LOG1 PUSH1 0x1 SLOAD PUSH0 SWAP1 DUP2 SWAP1 PUSH1 0x1 PUSH1 0x1 PUSH1 0xA0 SHL SUB AND PUSH7 0x2386F26FC10000 DUP6 DUP6 PUSH2 0x7D0 PUSH2 0x7A9 TIMESTAMP PUSH2 0xE10 PUSH2 0x223E JUMP JUMPDEST PUSH1 0x40 MLOAD PUSH1 0x24 ADD PUSH2 0x7BC SWAP5 SWAP4 SWAP3 SWAP2 SWAP1 PUSH2 0x251C JUMP JUMPDEST PUSH1 0x40 DUP1 MLOAD PUSH1 0x1F NOT DUP2 DUP5 SUB ADD DUP2 MSTORE SWAP2 DUP2 MSTORE PUSH1 0x20 DUP3 ADD DUP1 MLOAD PUSH1 0x1 PUSH1 0x1 PUSH1 0xE0 SHL SUB AND PUSH4 0x6A026BCF PUSH1 0xE0 SHL OR SWAP1 MSTORE MLOAD PUSH2 0x7F1 SWAP2 SWAP1 PUSH2 0x2251 JUMP JUMPDEST PUSH0 PUSH1 0x40 MLOAD DUP1 DUP4 SUB DUP2 DUP6 DUP8 GAS CALL SWAP3 POP POP POP RETURNDATASIZE DUP1 PUSH0 DUP2 EQ PUSH2 0x82B JUMPI PUSH1 0x40 MLOAD SWAP2 POP PUSH1 0x1F NOT PUSH1 0x3F RETURNDATASIZE ADD AND DUP3 ADD PUSH1 0x40 MSTORE RETURNDATASIZE DUP3 MSTORE RETURNDATASIZE PUSH0 PUSH1 0x20 DUP5 ADD RETURNDATACOPY PUSH2 0x830 JUMP JUMPDEST PUSH1 0x60 SWAP2 POP JUMPDEST POP SWAP2 POP SWAP2 POP DUP2 PUSH2 0x8CE JUMPI PUSH2 0x843 DUP2 PUSH2 0xD51 JUMP JUMPDEST PUSH1 0x2 SWAP1 PUSH2 0x850 SWAP1 DUP3 PUSH2 0x22F7 JUMP JUMPDEST POP PUSH0 PUSH1 0x2 DUP1 SLOAD PUSH2 0x85F SWAP1 PUSH2 0x227B JUMP JUMPDEST PUSH1 0x3 DUP1 SLOAD PUSH1 0xFF NOT AND SWAP4 SWAP1 SWAP2 GT SWAP3 SWAP1 SWAP3 OR SWAP1 SWAP2 SSTORE POP PUSH1 0x40 MLOAD PUSH32 0x12FE6995C75DEB50C8265A62FCFA2AC52A5BCA60B8963EDA43587E562641350F SWAP1 PUSH2 0x8A7 SWAP1 PUSH1 0x2 SWAP1 PUSH1 0x20 ADD PUSH2 0x23B2 JUMP JUMPDEST PUSH1 0x40 DUP1 MLOAD PUSH1 0x1F NOT DUP2 DUP5 SUB ADD DUP2 MSTORE SWAP1 DUP3 SWAP1 MSTORE PUSH2 0x8C1 SWAP2 PUSH2 0x2460 JUMP JUMPDEST PUSH1 0x40 MLOAD DUP1 SWAP2 SUB SWAP1 LOG1 PUSH2 0x949 JUMP JUMPDEST PUSH32 0x12FE6995C75DEB50C8265A62FCFA2AC52A5BCA60B8963EDA43587E562641350F PUSH1 0x40 MLOAD PUSH2 0x940 SWAP1 PUSH1 0x20 DUP1 DUP3 MSTORE PUSH1 0x2A SWAP1 DUP3 ADD MSTORE PUSH32 0x5265656E7472616E63792061747461636B207375636365656465642077697468 PUSH1 0x40 DUP3 ADD MSTORE PUSH10 0x6F7574206572726F7221 PUSH1 0xB0 SHL PUSH1 0x60 DUP3 ADD MSTORE PUSH1 0x80 ADD SWAP1 JUMP JUMPDEST PUSH1 0x40 MLOAD DUP1 SWAP2 SUB SWAP1 LOG1 JUMPDEST POP POP POP POP PUSH2 0xB46 JUMP JUMPDEST PUSH1 0x4 SLOAD PUSH1 0x6 SUB PUSH2 0x97F JUMPI PUSH0 DUP1 SLOAD DUP2 SWAP1 PUSH2 0x100 SWAP1 DIV PUSH1 0x1 PUSH1 0x1 PUSH1 0xA0 SHL SUB AND DUP2 PUSH2 0x3E8 PUSH2 0x182 TIMESTAMP PUSH2 0xE10 PUSH2 0x223E JUMP JUMPDEST PUSH1 0x4 SLOAD PUSH1 0x7 SUB PUSH2 0x9F7 JUMPI PUSH0 DUP1 SLOAD DUP2 SWAP1 PUSH2 0x100 SWAP1 DIV PUSH1 0x1 PUSH1 0x1 PUSH1 0xA0 SHL SUB AND DUP2 PUSH2 0x3E8 PUSH2 0x9AC TIMESTAMP PUSH2 0xE10 PUSH2 0x223E JUMP JUMPDEST PUSH1 0x40 MLOAD PUSH2 0xFFFF SWAP1 SWAP3 AND PUSH1 0x24 DUP4 ADD MSTORE PUSH1 0x44 DUP3 ADD MSTORE PUSH1 0x64 ADD PUSH1 0x40 DUP1 MLOAD PUSH1 0x1F NOT DUP2 DUP5 SUB ADD DUP2 MSTORE SWAP2 DUP2 MSTORE PUSH1 0x20 DUP3 ADD DUP1 MLOAD PUSH1 0x1 PUSH1 0x1 PUSH1 0xE0 SHL SUB AND PUSH4 0x11E45F11 PUSH1 0xE0 SHL OR SWAP1 MSTORE MLOAD PUSH2 0x1CD SWAP2 SWAP1 PUSH2 0x2251 JUMP JUMPDEST PUSH1 0x4 SLOAD PUSH1 0x8 SUB PUSH2 0xA4A JUMPI PUSH0 DUP1 SLOAD DUP2 SWAP1 PUSH2 0x100 SWAP1 DIV PUSH1 0x1 PUSH1 0x1 PUSH1 0xA0 SHL SUB AND PUSH2 0x3E8 PUSH2 0x7D0 PUSH2 0xA26 TIMESTAMP PUSH2 0xE10 PUSH2 0x223E JUMP JUMPDEST PUSH1 0x40 MLOAD PUSH2 0xFFFF SWAP4 DUP5 AND PUSH1 0x24 DUP3 ADD MSTORE SWAP3 SWAP1 SWAP2 AND PUSH1 0x44 DUP4 ADD MSTORE PUSH1 0x64 DUP3 ADD MSTORE PUSH1 0x84 ADD PUSH2 0x2A6 JUMP JUMPDEST PUSH1 0x4 SLOAD PUSH1 0x9 SUB PUSH2 0xB46 JUMPI PUSH0 DUP1 SLOAD DUP2 SWAP1 PUSH2 0x100 SWAP1 DIV PUSH1 0x1 PUSH1 0x1 PUSH1 0xA0 SHL SUB AND PUSH2 0x3E8 PUSH2 0xA76 TIMESTAMP PUSH2 0xE10 PUSH2 0x223E JUMP JUMPDEST PUSH1 0x40 MLOAD PUSH2 0xFFFF SWAP1 SWAP3 AND PUSH1 0x24 DUP4 ADD MSTORE PUSH1 0x44 DUP3 ADD MSTORE PUSH1 0x64 ADD PUSH1 0x40 DUP1 MLOAD PUSH1 0x1F NOT DUP2 DUP5 SUB ADD DUP2 MSTORE SWAP2 DUP2 MSTORE PUSH1 0x20 DUP3 ADD DUP1 MLOAD PUSH1 0x1 PUSH1 0x1 PUSH1 0xE0 SHL SUB AND PUSH4 0xD1FE6245 PUSH1 0xE0 SHL OR SWAP1 MSTORE MLOAD PUSH2 0xAC1 SWAP2 SWAP1 PUSH2 0x2251 JUMP JUMPDEST PUSH0 PUSH1 0x40 MLOAD DUP1 DUP4 SUB DUP2 PUSH0 DUP7 GAS CALL SWAP2 POP POP RETURNDATASIZE DUP1 PUSH0 DUP2 EQ PUSH2 0xAFA JUMPI PUSH1 0x40 MLOAD SWAP2 POP PUSH1 0x1F NOT PUSH1 0x3F RETURNDATASIZE ADD AND DUP3 ADD PUSH1 0x40 MSTORE RETURNDATASIZE DUP3 MSTORE RETURNDATASIZE PUSH0 PUSH1 0x20 DUP5 ADD RETURNDATACOPY PUSH2 0xAFF JUMP JUMPDEST PUSH1 0x60 SWAP2 POP JUMPDEST POP SWAP2 POP SWAP2 POP DUP2 PUSH2 0xB43 JUMPI PUSH2 0xB12 DUP2 PUSH2 0xD51 JUMP JUMPDEST PUSH1 0x2 SWAP1 PUSH2 0xB1F SWAP1 DUP3 PUSH2 0x22F7 JUMP JUMPDEST POP PUSH0 PUSH1 0x2 DUP1 SLOAD PUSH2 0xB2E SWAP1 PUSH2 0x227B JUMP JUMPDEST PUSH1 0x3 DUP1 SLOAD PUSH1 0xFF NOT AND SWAP4 SWAP1 SWAP2 GT SWAP3 SWAP1 SWAP3 OR SWAP1 SWAP2 SSTORE POP JUMPDEST POP POP JUMPDEST PUSH0 DUP1 SLOAD PUSH1 0xFF NOT AND DUP2 SSTORE STOP JUMPDEST PUSH0 PUSH0 REVERT JUMPDEST PUSH2 0xB68 PUSH2 0xB63 CALLDATASIZE PUSH1 0x4 PUSH2 0x265A JUMP JUMPDEST PUSH2 0xE85 JUMP JUMPDEST STOP JUMPDEST CALLVALUE DUP1 ISZERO PUSH2 0xB75 JUMPI PUSH0 PUSH0 REVERT JUMPDEST POP PUSH2 0xB7F PUSH1 0x4 SLOAD DUP2 JUMP JUMPDEST PUSH1 0x40 MLOAD SWAP1 DUP2 MSTORE PUSH1 0x20 ADD JUMPDEST PUSH1 0x40 MLOAD DUP1 SWAP2 SUB SWAP1 RETURN JUMPDEST CALLVALUE DUP1 ISZERO PUSH2 0xB9D JUMPI PUSH0 PUSH0 REVERT JUMPDEST POP PUSH2 0xB68 PUSH2 0xBAC CALLDATASIZE PUSH1 0x4 PUSH2 0x268A JUMP JUMPDEST PUSH2 0x1065 JUMP JUMPDEST PUSH2 0xB68 PUSH2 0xBBF CALLDATASIZE PUSH1 0x4 PUSH2 0x26B2 JUMP JUMPDEST PUSH2 0x121D JUMP JUMPDEST CALLVALUE DUP1 ISZERO PUSH2 0xBCF JUMPI PUSH0 PUSH0 REVERT JUMPDEST POP PUSH2 0xB68 PUSH2 0xBDE CALLDATASIZE PUSH1 0x4 PUSH2 0x26EC JUMP JUMPDEST PUSH2 0x1455 JUMP JUMPDEST CALLVALUE DUP1 ISZERO PUSH2 0xBEE JUMPI PUSH0 PUSH0 REVERT JUMPDEST POP PUSH1 0x1 SLOAD PUSH2 0xC02 SWAP1 PUSH1 0x1 PUSH1 0x1 PUSH1 0xA0 SHL SUB AND DUP2 JUMP JUMPDEST PUSH1 0x40 MLOAD PUSH1 0x1 PUSH1 0x1 PUSH1 0xA0 SHL SUB SWAP1 SWAP2 AND DUP2 MSTORE PUSH1 0x20 ADD PUSH2 0xB89 JUMP JUMPDEST CALLVALUE DUP1 ISZERO PUSH2 0xC25 JUMPI PUSH0 PUSH0 REVERT JUMPDEST POP PUSH2 0xB68 PUSH2 0xC34 CALLDATASIZE PUSH1 0x4 PUSH2 0x270C JUMP JUMPDEST PUSH2 0x1538 JUMP JUMPDEST CALLVALUE DUP1 ISZERO PUSH2 0xC44 JUMPI PUSH0 PUSH0 REVERT JUMPDEST POP PUSH2 0xB68 PUSH2 0xC53 CALLDATASIZE PUSH1 0x4 PUSH2 0x268A JUMP JUMPDEST PUSH2 0x174E JUMP JUMPDEST CALLVALUE DUP1 ISZERO PUSH2 0xC63 JUMPI PUSH0 PUSH0 REVERT JUMPDEST POP PUSH0 SLOAD PUSH2 0xC02 SWAP1 PUSH2 0x100 SWAP1 DIV PUSH1 0x1 PUSH1 0x1 PUSH1 0xA0 SHL SUB AND DUP2 JUMP JUMPDEST PUSH2 0xB68 PUSH2 0xC89 CALLDATASIZE PUSH1 0x4 PUSH2 0x268A JUMP JUMPDEST PUSH2 0x18EF JUMP JUMPDEST CALLVALUE DUP1 ISZERO PUSH2 0xC99 JUMPI PUSH0 PUSH0 REVERT JUMPDEST POP PUSH2 0xB68 PUSH2 0xCA8 CALLDATASIZE PUSH1 0x4 PUSH2 0x270C JUMP JUMPDEST PUSH2 0x1A9C JUMP JUMPDEST CALLVALUE DUP1 ISZERO PUSH2 0xCB8 JUMPI PUSH0 PUSH0 REVERT JUMPDEST POP PUSH2 0xB68 PUSH2 0x1C86 JUMP JUMPDEST PUSH2 0xB68 PUSH2 0xCCF CALLDATASIZE PUSH1 0x4 PUSH2 0x268A JUMP JUMPDEST PUSH2 0x1CB4 JUMP JUMPDEST CALLVALUE DUP1 ISZERO PUSH2 0xCDF JUMPI PUSH0 PUSH0 REVERT JUMPDEST POP PUSH2 0xB68 PUSH2 0x1E52 JUMP JUMPDEST CALLVALUE DUP1 ISZERO PUSH2 0xCF3 JUMPI PUSH0 PUSH0 REVERT JUMPDEST POP PUSH2 0xB68 PUSH2 0xD02 CALLDATASIZE PUSH1 0x4 PUSH2 0x2755 JUMP JUMPDEST PUSH2 0x1E7B JUMP JUMPDEST CALLVALUE DUP1 ISZERO PUSH2 0xD12 JUMPI PUSH0 PUSH0 REVERT JUMPDEST POP PUSH2 0xD1B PUSH2 0x2097 JUMP JUMPDEST PUSH1 0x40 MLOAD PUSH2 0xB89 SWAP2 SWAP1 PUSH2 0x2460 JUMP JUMPDEST CALLVALUE DUP1 ISZERO PUSH2 0xD33 JUMPI PUSH0 PUSH0 REVERT JUMPDEST POP PUSH1 0x3 SLOAD PUSH2 0xD41 SWAP1 PUSH1 0xFF AND DUP2 JUMP JUMPDEST PUSH1 0x40 MLOAD SWAP1 ISZERO ISZERO DUP2 MSTORE PUSH1 0x20 ADD PUSH2 0xB89 JUMP JUMPDEST PUSH1 0x60 PUSH1 0x44 DUP3 MLOAD LT ISZERO PUSH2 0xD96 JUMPI POP POP PUSH1 0x40 DUP1 MLOAD DUP1 DUP3 ADD SWAP1 SWAP2 MSTORE PUSH1 0x1D DUP2 MSTORE PUSH32 0x5472616E73616374696F6E2072657665727465642073696C656E746C79000000 PUSH1 0x20 DUP3 ADD MSTORE SWAP1 JUMP JUMPDEST PUSH1 0x4 DUP3 ADD SWAP2 POP DUP2 DUP1 PUSH1 0x20 ADD SWAP1 MLOAD DUP2 ADD SWAP1 PUSH2 0xDB0 SWAP2 SWAP1 PUSH2 0x278B JUMP JUMPDEST SWAP3 SWAP2 POP POP JUMP JUMPDEST DUP2 MLOAD DUP2 MLOAD PUSH0 SWAP2 DUP5 SWAP2 DUP5 SWAP2 LT ISZERO PUSH2 0xDD0 JUMPI PUSH0 SWAP3 POP POP POP PUSH2 0xDB0 JUMP JUMPDEST PUSH0 JUMPDEST DUP2 MLOAD DUP4 MLOAD PUSH2 0xDE0 SWAP2 SWAP1 PUSH2 0x283E JUMP JUMPDEST DUP2 GT PUSH2 0xE7A JUMPI PUSH1 0x1 PUSH0 JUMPDEST DUP4 MLOAD DUP2 LT ISZERO PUSH2 0xE53 JUMPI DUP4 DUP2 DUP2 MLOAD DUP2 LT PUSH2 0xE05 JUMPI PUSH2 0xE05 PUSH2 0x2495 JUMP JUMPDEST ADD PUSH1 0x20 ADD MLOAD PUSH1 0x1 PUSH1 0x1 PUSH1 0xF8 SHL SUB NOT AND DUP6 PUSH2 0xE1F DUP4 DUP7 PUSH2 0x223E JUMP JUMPDEST DUP2 MLOAD DUP2 LT PUSH2 0xE2F JUMPI PUSH2 0xE2F PUSH2 0x2495 JUMP JUMPDEST ADD PUSH1 0x20 ADD MLOAD PUSH1 0x1 PUSH1 0x1 PUSH1 0xF8 SHL SUB NOT AND EQ PUSH2 0xE4B JUMPI PUSH0 SWAP2 POP PUSH2 0xE53 JUMP JUMPDEST PUSH1 0x1 ADD PUSH2 0xDEA JUMP JUMPDEST POP DUP1 ISZERO PUSH2 0xE67 JUMPI PUSH1 0x1 SWAP5 POP POP POP POP POP PUSH2 0xDB0 JUMP JUMPDEST POP DUP1 PUSH2 0xE72 DUP2 PUSH2 0x2851 JUMP JUMPDEST SWAP2 POP POP PUSH2 0xDD2 JUMP JUMPDEST POP PUSH0 SWAP6 SWAP5 POP POP POP POP POP JUMP JUMPDEST PUSH0 DUP1 SLOAD PUSH2 0x100 PUSH1 0x1 PUSH1 0xA8 SHL SUB NOT AND PUSH2 0x100 PUSH1 0x1 PUSH1 0x1 PUSH1 0xA0 SHL SUB DUP7 AND MUL OR DUP2 SSTORE PUSH1 0x1 PUSH1 0x4 SSTORE PUSH1 0x3 DUP1 SLOAD PUSH1 0xFF NOT AND SWAP1 SSTORE PUSH1 0x40 DUP1 MLOAD PUSH1 0x20 DUP2 ADD SWAP1 SWAP2 MSTORE SWAP1 DUP2 MSTORE PUSH1 0x2 SWAP1 PUSH2 0xECE SWAP1 DUP3 PUSH2 0x22F7 JUMP JUMPDEST POP PUSH0 MLOAD PUSH1 0x20 PUSH2 0x2A9F PUSH0 CODECOPY PUSH0 MLOAD SWAP1 PUSH0 MSTORE PUSH1 0x40 MLOAD PUSH2 0xF08 SWAP1 PUSH1 0x20 DUP1 DUP3 MSTORE PUSH1 0xA SWAP1 DUP3 ADD MSTORE PUSH10 0x636F6E74726962757465 PUSH1 0xB0 SHL PUSH1 0x40 DUP3 ADD MSTORE PUSH1 0x60 ADD SWAP1 JUMP JUMPDEST PUSH1 0x40 MLOAD DUP1 SWAP2 SUB SWAP1 LOG1 PUSH8 0x16345785D8A0000 SELFBALANCE LT ISZERO PUSH2 0xF4F JUMPI PUSH1 0x40 MLOAD ADDRESS SWAP1 PUSH0 SWAP1 PUSH8 0x16345785D8A0000 SWAP1 DUP3 DUP2 DUP2 DUP2 DUP6 DUP9 DUP4 CALL SWAP4 POP POP POP POP ISZERO DUP1 ISZERO PUSH2 0xF4D JUMPI RETURNDATASIZE PUSH0 PUSH0 RETURNDATACOPY RETURNDATASIZE PUSH0 REVERT JUMPDEST POP JUMPDEST PUSH0 DUP1 SLOAD PUSH1 0x40 MLOAD PUSH1 0x24 DUP2 ADD DUP6 SWAP1 MSTORE PUSH1 0x44 DUP2 ADD DUP5 SWAP1 MSTORE DUP3 SWAP2 PUSH2 0x100 SWAP1 DIV PUSH1 0x1 PUSH1 0x1 PUSH1 0xA0 SHL SUB AND SWAP1 CALLVALUE SWAP1 PUSH1 0x64 ADD PUSH1 0x40 DUP1 MLOAD PUSH1 0x1F NOT DUP2 DUP5 SUB ADD DUP2 MSTORE SWAP2 DUP2 MSTORE PUSH1 0x20 DUP3 ADD DUP1 MLOAD PUSH1 0x1 PUSH1 0x1 PUSH1 0xE0 SHL SUB AND PUSH4 0x8C590917 PUSH1 0xE0 SHL OR SWAP1 MSTORE MLOAD PUSH2 0xFAE SWAP2 SWAP1 PUSH2 0x2251 JUMP JUMPDEST PUSH0 PUSH1 0x40 MLOAD DUP1 DUP4 SUB DUP2 DUP6 DUP8 GAS CALL SWAP3 POP POP POP RETURNDATASIZE DUP1 PUSH0 DUP2 EQ PUSH2 0xFE8 JUMPI PUSH1 0x40 MLOAD SWAP2 POP PUSH1 0x1F NOT PUSH1 0x3F RETURNDATASIZE ADD AND DUP3 ADD PUSH1 0x40 MSTORE RETURNDATASIZE DUP3 MSTORE RETURNDATASIZE PUSH0 PUSH1 0x20 DUP5 ADD RETURNDATACOPY PUSH2 0xFED JUMP JUMPDEST PUSH1 0x60 SWAP2 POP JUMPDEST POP SWAP2 POP SWAP2 POP DUP2 PUSH2 0x1013 JUMPI PUSH2 0x1000 DUP2 PUSH2 0x2123 JUMP JUMPDEST PUSH1 0x2 SWAP1 PUSH2 0x100D SWAP1 DUP3 PUSH2 0x22F7 JUMP JUMPDEST POP PUSH2 0x105E JUMP JUMPDEST PUSH1 0x3 SLOAD PUSH1 0xFF AND ISZERO DUP1 PUSH2 0x1031 JUMPI POP PUSH1 0x2 DUP1 SLOAD PUSH2 0x102D SWAP1 PUSH2 0x227B JUMP JUMPDEST ISZERO SWAP1 POP JUMPDEST ISZERO PUSH2 0x105E JUMPI PUSH1 0x40 MLOAD DUP1 PUSH1 0x60 ADD PUSH1 0x40 MSTORE DUP1 PUSH1 0x3B DUP2 MSTORE PUSH1 0x20 ADD PUSH2 0x2A64 PUSH1 0x3B SWAP2 CODECOPY PUSH1 0x2 SWAP1 PUSH2 0x105C SWAP1 DUP3 PUSH2 0x22F7 JUMP JUMPDEST POP JUMPDEST POP POP POP POP POP JUMP JUMPDEST PUSH0 DUP1 SLOAD PUSH2 0x100 PUSH1 0x1 PUSH1 0xA8 SHL SUB NOT AND PUSH2 0x100 PUSH1 0x1 PUSH1 0x1 PUSH1 0xA0 SHL SUB DUP6 AND MUL OR SWAP1 SSTORE PUSH1 0x9 PUSH1 0x4 SSTORE PUSH1 0x40 DUP1 MLOAD PUSH1 0x60 DUP2 ADD SWAP1 SWAP2 MSTORE PUSH1 0x3B DUP1 DUP3 MSTORE PUSH2 0x2A64 PUSH1 0x20 DUP4 ADD CODECOPY PUSH1 0x2 SWAP1 PUSH2 0x10AE SWAP1 DUP3 PUSH2 0x22F7 JUMP JUMPDEST POP PUSH1 0x3 DUP1 SLOAD PUSH1 0xFF NOT SWAP1 DUP2 AND SWAP1 SWAP2 SSTORE PUSH0 DUP1 SLOAD SWAP1 SWAP2 AND DUP2 SSTORE PUSH1 0x40 MLOAD PUSH2 0x3E8 PUSH1 0x24 DUP3 ADD MSTORE PUSH1 0x44 DUP2 ADD DUP4 SWAP1 MSTORE DUP2 SWAP1 PUSH1 0x1 PUSH1 0x1 PUSH1 0xA0 SHL SUB DUP6 AND SWAP1 PUSH1 0x64 ADD PUSH1 0x40 DUP1 MLOAD PUSH1 0x1F NOT DUP2 DUP5 SUB ADD DUP2 MSTORE SWAP2 DUP2 MSTORE PUSH1 0x20 DUP3 ADD DUP1 MLOAD PUSH1 0x1 PUSH1 0x1 PUSH1 0xE0 SHL SUB AND PUSH4 0xD1FE6245 PUSH1 0xE0 SHL OR SWAP1 MSTORE MLOAD PUSH2 0x111B SWAP2 SWAP1 PUSH2 0x2251 JUMP JUMPDEST PUSH0 PUSH1 0x40 MLOAD DUP1 DUP4 SUB DUP2 PUSH0 DUP7 GAS CALL SWAP2 POP POP RETURNDATASIZE DUP1 PUSH0 DUP2 EQ PUSH2 0x1154 JUMPI PUSH1 0x40 MLOAD SWAP2 POP PUSH1 0x1F NOT PUSH1 0x3F RETURNDATASIZE ADD AND DUP3 ADD PUSH1 0x40 MSTORE RETURNDATASIZE DUP3 MSTORE RETURNDATASIZE PUSH0 PUSH1 0x20 DUP5 ADD RETURNDATACOPY PUSH2 0x1159 JUMP JUMPDEST PUSH1 0x60 SWAP2 POP JUMPDEST POP SWAP2 POP SWAP2 POP DUP2 PUSH2 0x11C3 JUMPI PUSH2 0x116C DUP2 PUSH2 0x2123 JUMP JUMPDEST PUSH1 0x2 SWAP1 PUSH2 0x1179 SWAP1 DUP3 PUSH2 0x22F7 JUMP JUMPDEST POP PUSH0 PUSH1 0x2 DUP1 SLOAD PUSH2 0x1188 SWAP1 PUSH2 0x227B JUMP JUMPDEST PUSH1 0x3 DUP1 SLOAD PUSH1 0xFF NOT AND SWAP4 SWAP1 SWAP2 GT SWAP3 SWAP1 SWAP3 OR SWAP1 SWAP2 SSTORE POP PUSH1 0x40 MLOAD PUSH0 MLOAD PUSH1 0x20 PUSH2 0x2A44 PUSH0 CODECOPY PUSH0 MLOAD SWAP1 PUSH0 MSTORE SWAP1 PUSH2 0x11BA SWAP1 PUSH1 0x2 SWAP1 PUSH2 0x2869 JUMP JUMPDEST PUSH1 0x40 MLOAD DUP1 SWAP2 SUB SWAP1 LOG1 JUMPDEST PUSH0 MLOAD PUSH1 0x20 PUSH2 0x2A9F PUSH0 CODECOPY PUSH0 MLOAD SWAP1 PUSH0 MSTORE PUSH1 0x40 MLOAD PUSH2 0x120F SWAP1 PUSH1 0x20 DUP1 DUP3 MSTORE PUSH1 0x1C SWAP1 DUP3 ADD MSTORE PUSH32 0x6D6F636B5769746864726177576974684E6F6E5265656E7472616E7400000000 PUSH1 0x40 DUP3 ADD MSTORE PUSH1 0x60 ADD SWAP1 JUMP JUMPDEST PUSH1 0x40 MLOAD DUP1 SWAP2 SUB SWAP1 LOG1 POP POP POP POP JUMP JUMPDEST PUSH1 0x1 DUP1 SLOAD PUSH1 0x1 PUSH1 0x1 PUSH1 0xA0 SHL SUB NOT AND PUSH1 0x1 PUSH1 0x1 PUSH1 0xA0 SHL SUB DUP6 AND OR SWAP1 SSTORE PUSH1 0x5 PUSH1 0x4 SSTORE PUSH1 0x40 DUP1 MLOAD PUSH1 0x60 DUP2 ADD SWAP1 SWAP2 MSTORE PUSH1 0x3B DUP1 DUP3 MSTORE PUSH2 0x2A64 PUSH1 0x20 DUP4 ADD CODECOPY PUSH1 0x2 SWAP1 PUSH2 0x1262 SWAP1 DUP3 PUSH2 0x22F7 JUMP JUMPDEST POP PUSH1 0x3 DUP1 SLOAD PUSH1 0xFF NOT SWAP1 DUP2 AND SWAP1 SWAP2 SSTORE PUSH0 DUP1 SLOAD SWAP1 SWAP2 AND DUP2 SSTORE PUSH1 0x40 DUP1 MLOAD PUSH1 0x1 DUP1 DUP3 MSTORE DUP2 DUP4 ADD SWAP1 SWAP3 MSTORE SWAP1 PUSH1 0x20 DUP1 DUP4 ADD SWAP1 DUP1 CALLDATASIZE DUP4 CALLDATACOPY ADD SWAP1 POP POP SWAP1 POP DUP3 DUP2 PUSH0 DUP2 MLOAD DUP2 LT PUSH2 0x12AB JUMPI PUSH2 0x12AB PUSH2 0x2495 JUMP JUMPDEST PUSH1 0x1 PUSH1 0x1 PUSH1 0xA0 SHL SUB SWAP3 SWAP1 SWAP3 AND PUSH1 0x20 SWAP3 DUP4 MUL SWAP2 SWAP1 SWAP2 ADD SWAP1 SWAP2 ADD MSTORE PUSH1 0x40 DUP1 MLOAD PUSH1 0x1 DUP1 DUP3 MSTORE DUP2 DUP4 ADD SWAP1 SWAP3 MSTORE PUSH0 SWAP2 DUP2 PUSH1 0x20 ADD PUSH1 0x20 DUP3 MUL DUP1 CALLDATASIZE DUP4 CALLDATACOPY ADD SWAP1 POP POP SWAP1 POP PUSH2 0x2710 DUP2 PUSH0 DUP2 MLOAD DUP2 LT PUSH2 0x12FC JUMPI PUSH2 0x12FC PUSH2 0x2495 JUMP JUMPDEST PUSH1 0x20 MUL PUSH1 0x20 ADD ADD DUP2 DUP2 MSTORE POP POP PUSH0 PUSH0 DUP7 PUSH1 0x1 PUSH1 0x1 PUSH1 0xA0 SHL SUB AND CALLVALUE DUP6 DUP6 PUSH2 0x7D0 DUP10 PUSH1 0x40 MLOAD PUSH1 0x24 ADD PUSH2 0x132E SWAP5 SWAP4 SWAP3 SWAP2 SWAP1 PUSH2 0x28EF JUMP JUMPDEST PUSH1 0x40 DUP1 MLOAD PUSH1 0x1F NOT DUP2 DUP5 SUB ADD DUP2 MSTORE SWAP2 DUP2 MSTORE PUSH1 0x20 DUP3 ADD DUP1 MLOAD PUSH1 0x1 PUSH1 0x1 PUSH1 0xE0 SHL SUB AND PUSH4 0x6A026BCF PUSH1 0xE0 SHL OR SWAP1 MSTORE MLOAD PUSH2 0x1363 SWAP2 SWAP1 PUSH2 0x2251 JUMP JUMPDEST PUSH0 PUSH1 0x40 MLOAD DUP1 DUP4 SUB DUP2 DUP6 DUP8 GAS CALL SWAP3 POP POP POP RETURNDATASIZE DUP1 PUSH0 DUP2 EQ PUSH2 0x139D JUMPI PUSH1 0x40 MLOAD SWAP2 POP PUSH1 0x1F NOT PUSH1 0x3F RETURNDATASIZE ADD AND DUP3 ADD PUSH1 0x40 MSTORE RETURNDATASIZE DUP3 MSTORE RETURNDATASIZE PUSH0 PUSH1 0x20 DUP5 ADD RETURNDATACOPY PUSH2 0x13A2 JUMP JUMPDEST PUSH1 0x60 SWAP2 POP JUMPDEST POP SWAP2 POP SWAP2 POP DUP2 PUSH2 0x140C JUMPI PUSH2 0x13B5 DUP2 PUSH2 0x2123 JUMP JUMPDEST PUSH1 0x2 SWAP1 PUSH2 0x13C2 SWAP1 DUP3 PUSH2 0x22F7 JUMP JUMPDEST POP PUSH0 PUSH1 0x2 DUP1 SLOAD PUSH2 0x13D1 SWAP1 PUSH2 0x227B JUMP JUMPDEST PUSH1 0x3 DUP1 SLOAD PUSH1 0xFF NOT AND SWAP4 SWAP1 SWAP2 GT SWAP3 SWAP1 SWAP3 OR SWAP1 SWAP2 SSTORE POP PUSH1 0x40 MLOAD PUSH0 MLOAD PUSH1 0x20 PUSH2 0x2A44 PUSH0 CODECOPY PUSH0 MLOAD SWAP1 PUSH0 MSTORE SWAP1 PUSH2 0x1403 SWAP1 PUSH1 0x2 SWAP1 PUSH2 0x2869 JUMP JUMPDEST PUSH1 0x40 MLOAD DUP1 SWAP2 SUB SWAP1 LOG1 JUMPDEST PUSH0 MLOAD PUSH1 0x20 PUSH2 0x2A9F PUSH0 CODECOPY PUSH0 MLOAD SWAP1 PUSH0 MSTORE PUSH1 0x40 MLOAD PUSH2 0x1444 SWAP1 PUSH1 0x20 DUP1 DUP3 MSTORE PUSH1 0x9 SWAP1 DUP3 ADD MSTORE PUSH9 0x637265617465425453 PUSH1 0xB8 SHL PUSH1 0x40 DUP3 ADD MSTORE PUSH1 0x60 ADD SWAP1 JUMP JUMPDEST PUSH1 0x40 MLOAD DUP1 SWAP2 SUB SWAP1 LOG1 POP POP POP POP POP POP POP JUMP JUMPDEST PUSH1 0x40 MLOAD PUSH4 0x70A08231 PUSH1 0xE0 SHL DUP2 MSTORE ADDRESS PUSH1 0x4 DUP3 ADD MSTORE DUP2 SWAP1 PUSH1 0x1 PUSH1 0x1 PUSH1 0xA0 SHL SUB DUP3 AND SWAP1 PUSH4 0xA9059CBB SWAP1 CALLER SWAP1 DUP4 SWAP1 PUSH4 0x70A08231 SWAP1 PUSH1 0x24 ADD PUSH1 0x20 PUSH1 0x40 MLOAD DUP1 DUP4 SUB DUP2 DUP7 GAS STATICCALL ISZERO DUP1 ISZERO PUSH2 0x14A3 JUMPI RETURNDATASIZE PUSH0 PUSH0 RETURNDATACOPY RETURNDATASIZE PUSH0 REVERT JUMPDEST POP POP POP POP PUSH1 0x40 MLOAD RETURNDATASIZE PUSH1 0x1F NOT PUSH1 0x1F DUP3 ADD AND DUP3 ADD DUP1 PUSH1 0x40 MSTORE POP DUP2 ADD SWAP1 PUSH2 0x14C7 SWAP2 SWAP1 PUSH2 0x29E5 JUMP JUMPDEST PUSH1 0x40 MLOAD PUSH1 0x1 PUSH1 0x1 PUSH1 0xE0 SHL SUB NOT PUSH1 0xE0 DUP6 SWAP1 SHL AND DUP2 MSTORE PUSH1 0x1 PUSH1 0x1 PUSH1 0xA0 SHL SUB SWAP1 SWAP3 AND PUSH1 0x4 DUP4 ADD MSTORE PUSH1 0x24 DUP3 ADD MSTORE PUSH1 0x44 ADD PUSH1 0x20 PUSH1 0x40 MLOAD DUP1 DUP4 SUB DUP2 PUSH0 DUP8 GAS CALL ISZERO DUP1 ISZERO PUSH2 0x150F JUMPI RETURNDATASIZE PUSH0 PUSH0 RETURNDATACOPY RETURNDATASIZE PUSH0 REVERT JUMPDEST POP POP POP POP PUSH1 0x40 MLOAD RETURNDATASIZE PUSH1 0x1F NOT PUSH1 0x1F DUP3 ADD AND DUP3 ADD DUP1 PUSH1 0x40 MSTORE POP DUP2 ADD SWAP1 PUSH2 0x1533 SWAP2 SWAP1 PUSH2 0x29FC JUMP JUMPDEST POP POP POP JUMP JUMPDEST PUSH0 DUP1 SLOAD PUSH2 0x100 PUSH1 0x1 PUSH1 0xA8 SHL SUB NOT AND PUSH2 0x100 PUSH1 0x1 PUSH1 0x1 PUSH1 0xA0 SHL SUB DUP9 AND MUL OR DUP2 SSTORE PUSH1 0x2 PUSH1 0x4 DUP2 SWAP1 SSTORE PUSH1 0x3 DUP1 SLOAD PUSH1 0xFF NOT AND SWAP1 SSTORE PUSH1 0x40 DUP1 MLOAD PUSH1 0x20 DUP2 ADD SWAP1 SWAP2 MSTORE SWAP2 DUP3 MSTORE SWAP1 PUSH2 0x1581 SWAP1 DUP3 PUSH2 0x22F7 JUMP JUMPDEST POP PUSH0 MLOAD PUSH1 0x20 PUSH2 0x2A9F PUSH0 CODECOPY PUSH0 MLOAD SWAP1 PUSH0 MSTORE PUSH1 0x40 MLOAD PUSH2 0x15B9 SWAP1 PUSH1 0x20 DUP1 DUP3 MSTORE PUSH1 0x8 SWAP1 DUP3 ADD MSTORE PUSH8 0x7769746864726177 PUSH1 0xC0 SHL PUSH1 0x40 DUP3 ADD MSTORE PUSH1 0x60 ADD SWAP1 JUMP JUMPDEST PUSH1 0x40 MLOAD DUP1 SWAP2 SUB SWAP1 LOG1 PUSH1 0x40 MLOAD PUSH4 0x95EA7B3 PUSH1 0xE0 SHL DUP2 MSTORE PUSH1 0x1 PUSH1 0x1 PUSH1 0xA0 SHL SUB DUP7 DUP2 AND PUSH1 0x4 DUP4 ADD MSTORE PUSH1 0x24 DUP3 ADD DUP6 SWAP1 MSTORE DUP6 AND SWAP1 PUSH4 0x95EA7B3 SWAP1 PUSH1 0x44 ADD PUSH1 0x20 PUSH1 0x40 MLOAD DUP1 DUP4 SUB DUP2 PUSH0 DUP8 GAS CALL ISZERO DUP1 ISZERO PUSH2 0x160D JUMPI RETURNDATASIZE PUSH0 PUSH0 RETURNDATACOPY RETURNDATASIZE PUSH0 REVERT JUMPDEST POP POP POP POP PUSH1 0x40 MLOAD RETURNDATASIZE PUSH1 0x1F NOT PUSH1 0x1F DUP3 ADD AND DUP3 ADD DUP1 PUSH1 0x40 MSTORE POP DUP2 ADD SWAP1 PUSH2 0x1631 SWAP2 SWAP1 PUSH2 0x29FC JUMP JUMPDEST POP PUSH0 DUP1 SLOAD PUSH1 0x40 MLOAD PUSH1 0x24 DUP2 ADD DUP7 SWAP1 MSTORE PUSH1 0x44 DUP2 ADD DUP6 SWAP1 MSTORE PUSH1 0x64 DUP2 ADD DUP5 SWAP1 MSTORE DUP3 SWAP2 PUSH2 0x100 SWAP1 DIV PUSH1 0x1 PUSH1 0x1 PUSH1 0xA0 SHL SUB AND SWAP1 PUSH1 0x84 ADD PUSH1 0x40 DUP1 MLOAD PUSH1 0x1F NOT DUP2 DUP5 SUB ADD DUP2 MSTORE SWAP2 DUP2 MSTORE PUSH1 0x20 DUP3 ADD DUP1 MLOAD PUSH1 0x1 PUSH1 0x1 PUSH1 0xE0 SHL SUB AND PUSH4 0xA41FE49F PUSH1 0xE0 SHL OR SWAP1 MSTORE MLOAD PUSH2 0x1696 SWAP2 SWAP1 PUSH2 0x2251 JUMP JUMPDEST PUSH0 PUSH1 0x40 MLOAD DUP1 DUP4 SUB DUP2 PUSH0 DUP7 GAS CALL SWAP2 POP POP RETURNDATASIZE DUP1 PUSH0 DUP2 EQ PUSH2 0x16CF JUMPI PUSH1 0x40 MLOAD SWAP2 POP PUSH1 0x1F NOT PUSH1 0x3F RETURNDATASIZE ADD AND DUP3 ADD PUSH1 0x40 MSTORE RETURNDATASIZE DUP3 MSTORE RETURNDATASIZE PUSH0 PUSH1 0x20 DUP5 ADD RETURNDATACOPY PUSH2 0x16D4 JUMP JUMPDEST PUSH1 0x60 SWAP2 POP JUMPDEST POP SWAP2 POP SWAP2 POP DUP2 PUSH2 0x16FA JUMPI PUSH2 0x16E7 DUP2 PUSH2 0x2123 JUMP JUMPDEST PUSH1 0x2 SWAP1 PUSH2 0x16F4 SWAP1 DUP3 PUSH2 0x22F7 JUMP JUMPDEST POP PUSH2 0x1745 JUMP JUMPDEST PUSH1 0x3 SLOAD PUSH1 0xFF AND ISZERO DUP1 PUSH2 0x1718 JUMPI POP PUSH1 0x2 DUP1 SLOAD PUSH2 0x1714 SWAP1 PUSH2 0x227B JUMP JUMPDEST ISZERO SWAP1 POP JUMPDEST ISZERO PUSH2 0x1745 JUMPI PUSH1 0x40 MLOAD DUP1 PUSH1 0x60 ADD PUSH1 0x40 MSTORE DUP1 PUSH1 0x3B DUP2 MSTORE PUSH1 0x20 ADD PUSH2 0x2A64 PUSH1 0x3B SWAP2 CODECOPY PUSH1 0x2 SWAP1 PUSH2 0x1743 SWAP1 DUP3 PUSH2 0x22F7 JUMP JUMPDEST POP JUMPDEST POP POP POP POP POP POP POP JUMP JUMPDEST PUSH0 DUP1 SLOAD PUSH2 0x100 PUSH1 0x1 PUSH1 0xA8 SHL SUB NOT AND PUSH2 0x100 PUSH1 0x1 PUSH1 0x1 PUSH1 0xA0 SHL SUB DUP6 AND MUL OR SWAP1 SSTORE PUSH1 0x8 PUSH1 0x4 SSTORE PUSH1 0x40 DUP1 MLOAD PUSH1 0x60 DUP2 ADD SWAP1 SWAP2 MSTORE PUSH1 0x3B DUP1 DUP3 MSTORE PUSH2 0x2A64 PUSH1 0x20 DUP4 ADD CODECOPY PUSH1 0x2 SWAP1 PUSH2 0x1797 SWAP1 DUP3 PUSH2 0x22F7 JUMP JUMPDEST POP PUSH1 0x3 DUP1 SLOAD PUSH1 0xFF NOT SWAP1 DUP2 AND SWAP1 SWAP2 SSTORE PUSH0 DUP1 SLOAD SWAP1 SWAP2 AND DUP2 SSTORE PUSH1 0x40 MLOAD PUSH2 0x3E8 PUSH1 0x24 DUP3 ADD MSTORE PUSH2 0x7D0 PUSH1 0x44 DUP3 ADD MSTORE PUSH1 0x64 DUP2 ADD DUP4 SWAP1 MSTORE DUP2 SWAP1 PUSH1 0x1 PUSH1 0x1 PUSH1 0xA0 SHL SUB DUP6 AND SWAP1 PUSH1 0x84 ADD PUSH1 0x40 DUP1 MLOAD PUSH1 0x1F NOT DUP2 DUP5 SUB ADD DUP2 MSTORE SWAP2 DUP2 MSTORE PUSH1 0x20 DUP3 ADD DUP1 MLOAD PUSH1 0x1 PUSH1 0x1 PUSH1 0xE0 SHL SUB AND PUSH4 0xA41FE49F PUSH1 0xE0 SHL OR SWAP1 MSTORE MLOAD PUSH2 0x180C SWAP2 SWAP1 PUSH2 0x2251 JUMP JUMPDEST PUSH0 PUSH1 0x40 MLOAD DUP1 DUP4 SUB DUP2 PUSH0 DUP7 GAS CALL SWAP2 POP POP RETURNDATASIZE DUP1 PUSH0 DUP2 EQ PUSH2 0x1845 JUMPI PUSH1 0x40 MLOAD SWAP2 POP PUSH1 0x1F NOT PUSH1 0x3F RETURNDATASIZE ADD AND DUP3 ADD PUSH1 0x40 MSTORE RETURNDATASIZE DUP3 MSTORE RETURNDATASIZE PUSH0 PUSH1 0x20 DUP5 ADD RETURNDATACOPY PUSH2 0x184A JUMP JUMPDEST PUSH1 0x60 SWAP2 POP JUMPDEST POP SWAP2 POP SWAP2 POP DUP2 PUSH2 0x18B4 JUMPI PUSH2 0x185D DUP2 PUSH2 0x2123 JUMP JUMPDEST PUSH1 0x2 SWAP1 PUSH2 0x186A SWAP1 DUP3 PUSH2 0x22F7 JUMP JUMPDEST POP PUSH0 PUSH1 0x2 DUP1 SLOAD PUSH2 0x1879 SWAP1 PUSH2 0x227B JUMP JUMPDEST PUSH1 0x3 DUP1 SLOAD PUSH1 0xFF NOT AND SWAP4 SWAP1 SWAP2 GT SWAP3 SWAP1 SWAP3 OR SWAP1 SWAP2 SSTORE POP PUSH1 0x40 MLOAD PUSH0 MLOAD PUSH1 0x20 PUSH2 0x2A44 PUSH0 CODECOPY PUSH0 MLOAD SWAP1 PUSH0 MSTORE SWAP1 PUSH2 0x18AB SWAP1 PUSH1 0x2 SWAP1 PUSH2 0x2869 JUMP JUMPDEST PUSH1 0x40 MLOAD DUP1 SWAP2 SUB SWAP1 LOG1 JUMPDEST PUSH0 MLOAD PUSH1 0x20 PUSH2 0x2A9F PUSH0 CODECOPY PUSH0 MLOAD SWAP1 PUSH0 MSTORE PUSH1 0x40 MLOAD PUSH2 0x120F SWAP1 PUSH1 0x20 DUP1 DUP3 MSTORE PUSH1 0xC SWAP1 DUP3 ADD MSTORE PUSH12 0x6D6F636B5769746864726177 PUSH1 0xA0 SHL PUSH1 0x40 DUP3 ADD MSTORE PUSH1 0x60 ADD SWAP1 JUMP JUMPDEST PUSH0 DUP1 SLOAD PUSH2 0x100 PUSH1 0x1 PUSH1 0xA8 SHL SUB NOT AND PUSH2 0x100 PUSH1 0x1 PUSH1 0x1 PUSH1 0xA0 SHL SUB DUP6 AND MUL OR SWAP1 SSTORE PUSH1 0x7 PUSH1 0x4 SSTORE PUSH1 0x40 DUP1 MLOAD PUSH1 0x60 DUP2 ADD SWAP1 SWAP2 MSTORE PUSH1 0x3B DUP1 DUP3 MSTORE PUSH2 0x2A64 PUSH1 0x20 DUP4 ADD CODECOPY PUSH1 0x2 SWAP1 PUSH2 0x1938 SWAP1 DUP3 PUSH2 0x22F7 JUMP JUMPDEST POP PUSH1 0x3 DUP1 SLOAD PUSH1 0xFF NOT SWAP1 DUP2 AND SWAP1 SWAP2 SSTORE PUSH0 DUP1 SLOAD SWAP1 SWAP2 AND DUP2 SSTORE PUSH1 0x40 MLOAD PUSH2 0x3E8 PUSH1 0x24 DUP3 ADD MSTORE PUSH1 0x44 DUP2 ADD DUP4 SWAP1 MSTORE DUP2 SWAP1 PUSH1 0x1 PUSH1 0x1 PUSH1 0xA0 SHL SUB DUP6 AND SWAP1 CALLVALUE SWAP1 PUSH1 0x64 ADD PUSH1 0x40 DUP1 MLOAD PUSH1 0x1F NOT DUP2 DUP5 SUB ADD DUP2 MSTORE SWAP2 DUP2 MSTORE PUSH1 0x20 DUP3 ADD DUP1 MLOAD PUSH1 0x1 PUSH1 0x1 PUSH1 0xE0 SHL SUB AND PUSH4 0x11E45F11 PUSH1 0xE0 SHL OR SWAP1 MSTORE MLOAD PUSH2 0x19A7 SWAP2 SWAP1 PUSH2 0x2251 JUMP JUMPDEST PUSH0 PUSH1 0x40 MLOAD DUP1 DUP4 SUB DUP2 DUP6 DUP8 GAS CALL SWAP3 POP POP POP RETURNDATASIZE DUP1 PUSH0 DUP2 EQ PUSH2 0x19E1 JUMPI PUSH1 0x40 MLOAD SWAP2 POP PUSH1 0x1F NOT PUSH1 0x3F RETURNDATASIZE ADD AND DUP3 ADD PUSH1 0x40 MSTORE RETURNDATASIZE DUP3 MSTORE RETURNDATASIZE PUSH0 PUSH1 0x20 DUP5 ADD RETURNDATACOPY PUSH2 0x19E6 JUMP JUMPDEST PUSH1 0x60 SWAP2 POP JUMPDEST POP SWAP2 POP SWAP2 POP DUP2 PUSH2 0x1A50 JUMPI PUSH2 0x19F9 DUP2 PUSH2 0x2123 JUMP JUMPDEST PUSH1 0x2 SWAP1 PUSH2 0x1A06 SWAP1 DUP3 PUSH2 0x22F7 JUMP JUMPDEST POP PUSH0 PUSH1 0x2 DUP1 SLOAD PUSH2 0x1A15 SWAP1 PUSH2 0x227B JUMP JUMPDEST PUSH1 0x3 DUP1 SLOAD PUSH1 0xFF NOT AND SWAP4 SWAP1 SWAP2 GT SWAP3 SWAP1 SWAP3 OR SWAP1 SWAP2 SSTORE POP PUSH1 0x40 MLOAD PUSH0 MLOAD PUSH1 0x20 PUSH2 0x2A44 PUSH0 CODECOPY PUSH0 MLOAD SWAP1 PUSH0 MSTORE SWAP1 PUSH2 0x1A47 SWAP1 PUSH1 0x2 SWAP1 PUSH2 0x2869 JUMP JUMPDEST PUSH1 0x40 MLOAD DUP1 SWAP2 SUB SWAP1 LOG1 JUMPDEST PUSH0 MLOAD PUSH1 0x20 PUSH2 0x2A9F PUSH0 CODECOPY PUSH0 MLOAD SWAP1 PUSH0 MSTORE PUSH1 0x40 MLOAD PUSH2 0x120F SWAP1 PUSH1 0x20 DUP1 DUP3 MSTORE PUSH1 0x1E SWAP1 DUP3 ADD MSTORE PUSH32 0x6D6F636B436F6E74726962757465576974684E6F6E5265656E7472616E740000 PUSH1 0x40 DUP3 ADD MSTORE PUSH1 0x60 ADD SWAP1 JUMP JUMPDEST PUSH0 DUP1 SLOAD PUSH1 0x1 PUSH1 0x1 PUSH1 0xA0 SHL SUB DUP8 AND PUSH2 0x100 MUL PUSH2 0x100 PUSH1 0x1 PUSH1 0xA8 SHL SUB NOT SWAP1 SWAP2 AND OR SWAP1 SSTORE PUSH1 0x3 PUSH1 0x4 SSTORE PUSH1 0x40 MLOAD PUSH0 MLOAD PUSH1 0x20 PUSH2 0x2A9F PUSH0 CODECOPY PUSH0 MLOAD SWAP1 PUSH0 MSTORE SWAP1 PUSH2 0x1AFD SWAP1 PUSH1 0x20 DUP1 DUP3 MSTORE PUSH1 0xB SWAP1 DUP3 ADD MSTORE PUSH11 0xEED2E8D0C8E4C2EE8AA89 PUSH1 0xAB SHL PUSH1 0x40 DUP3 ADD MSTORE PUSH1 0x60 ADD SWAP1 JUMP JUMPDEST PUSH1 0x40 MLOAD DUP1 SWAP2 SUB SWAP1 LOG1 PUSH1 0x40 MLOAD PUSH4 0x95EA7B3 PUSH1 0xE0 SHL DUP2 MSTORE PUSH1 0x1 PUSH1 0x1 PUSH1 0xA0 SHL SUB DUP7 DUP2 AND PUSH1 0x4 DUP4 ADD MSTORE PUSH1 0x24 DUP3 ADD DUP6 SWAP1 MSTORE DUP6 AND SWAP1 PUSH4 0x95EA7B3 SWAP1 PUSH1 0x44 ADD PUSH1 0x20 PUSH1 0x40 MLOAD DUP1 DUP4 SUB DUP2 PUSH0 DUP8 GAS CALL ISZERO DUP1 ISZERO PUSH2 0x1B51 JUMPI RETURNDATASIZE PUSH0 PUSH0 RETURNDATACOPY RETURNDATASIZE PUSH0 REVERT JUMPDEST POP POP POP POP PUSH1 0x40 MLOAD RETURNDATASIZE PUSH1 0x1F NOT PUSH1 0x1F DUP3 ADD AND DUP3 ADD DUP1 PUSH1 0x40 MSTORE POP DUP2 ADD SWAP1 PUSH2 0x1B75 SWAP2 SWAP1 PUSH2 0x29FC JUMP JUMPDEST POP PUSH0 DUP1 SLOAD PUSH1 0x40 MLOAD PUSH1 0x24 DUP2 ADD DUP7 SWAP1 MSTORE PUSH1 0x44 DUP2 ADD DUP6 SWAP1 MSTORE PUSH1 0x64 DUP2 ADD DUP5 SWAP1 MSTORE DUP3 SWAP2 PUSH2 0x100 SWAP1 DIV PUSH1 0x1 PUSH1 0x1 PUSH1 0xA0 SHL SUB AND SWAP1 PUSH1 0x84 ADD PUSH1 0x40 DUP1 MLOAD PUSH1 0x1F NOT DUP2 DUP5 SUB ADD DUP2 MSTORE SWAP2 DUP2 MSTORE PUSH1 0x20 DUP3 ADD DUP1 MLOAD PUSH1 0x1 PUSH1 0x1 PUSH1 0xE0 SHL SUB AND PUSH4 0x21C912E7 PUSH1 0xE2 SHL OR SWAP1 MSTORE MLOAD PUSH2 0x1BDA SWAP2 SWAP1 PUSH2 0x2251 JUMP JUMPDEST PUSH0 PUSH1 0x40 MLOAD DUP1 DUP4 SUB DUP2 PUSH0 DUP7 GAS CALL SWAP2 POP POP RETURNDATASIZE DUP1 PUSH0 DUP2 EQ PUSH2 0x1C13 JUMPI PUSH1 0x40 MLOAD SWAP2 POP PUSH1 0x1F NOT PUSH1 0x3F RETURNDATASIZE ADD AND DUP3 ADD PUSH1 0x40 MSTORE RETURNDATASIZE DUP3 MSTORE RETURNDATASIZE PUSH0 PUSH1 0x20 DUP5 ADD RETURNDATACOPY PUSH2 0x1C18 JUMP JUMPDEST PUSH1 0x60 SWAP2 POP JUMPDEST POP SWAP2 POP SWAP2 POP DUP2 DUP1 ISZERO PUSH2 0x1C2D JUMPI POP PUSH1 0x3 SLOAD PUSH1 0xFF AND ISZERO JUMPDEST ISZERO PUSH2 0x1C6B JUMPI PUSH1 0x40 MLOAD DUP1 PUSH1 0x60 ADD PUSH1 0x40 MSTORE DUP1 PUSH1 0x28 DUP2 MSTORE PUSH1 0x20 ADD PUSH2 0x2A1C PUSH1 0x28 SWAP2 CODECOPY PUSH1 0x2 SWAP1 PUSH2 0x1C58 SWAP1 DUP3 PUSH2 0x22F7 JUMP JUMPDEST POP PUSH1 0x3 DUP1 SLOAD PUSH1 0xFF NOT AND PUSH1 0x1 OR SWAP1 SSTORE PUSH2 0x1745 JUMP JUMPDEST DUP2 PUSH2 0x1745 JUMPI PUSH2 0x1C79 DUP2 PUSH2 0x2123 JUMP JUMPDEST PUSH1 0x2 SWAP1 PUSH2 0x1743 SWAP1 DUP3 PUSH2 0x22F7 JUMP JUMPDEST PUSH0 PUSH1 0x4 DUP2 SWAP1 SSTORE PUSH1 0x3 DUP1 SLOAD PUSH1 0xFF NOT AND SWAP1 SSTORE PUSH1 0x40 DUP1 MLOAD PUSH1 0x20 DUP2 ADD SWAP1 SWAP2 MSTORE SWAP1 DUP2 MSTORE PUSH1 0x2 SWAP1 PUSH2 0x1CB1 SWAP1 DUP3 PUSH2 0x22F7 JUMP JUMPDEST POP JUMP JUMPDEST PUSH0 DUP1 SLOAD PUSH2 0x100 PUSH1 0x1 PUSH1 0xA8 SHL SUB NOT AND PUSH2 0x100 PUSH1 0x1 PUSH1 0x1 PUSH1 0xA0 SHL SUB DUP6 AND MUL OR SWAP1 SSTORE PUSH1 0x6 PUSH1 0x4 SSTORE PUSH1 0x40 DUP1 MLOAD PUSH1 0x60 DUP2 ADD SWAP1 SWAP2 MSTORE PUSH1 0x3B DUP1 DUP3 MSTORE PUSH2 0x2A64 PUSH1 0x20 DUP4 ADD CODECOPY PUSH1 0x2 SWAP1 PUSH2 0x1CFD SWAP1 DUP3 PUSH2 0x22F7 JUMP JUMPDEST POP PUSH1 0x3 DUP1 SLOAD PUSH1 0xFF NOT SWAP1 DUP2 AND SWAP1 SWAP2 SSTORE PUSH0 DUP1 SLOAD SWAP1 SWAP2 AND DUP2 SSTORE PUSH1 0x40 MLOAD PUSH2 0x3E8 PUSH1 0x24 DUP3 ADD MSTORE PUSH1 0x44 DUP2 ADD DUP4 SWAP1 MSTORE DUP2 SWAP1 PUSH1 0x1 PUSH1 0x1 PUSH1 0xA0 SHL SUB DUP6 AND SWAP1 CALLVALUE SWAP1 PUSH1 0x64 ADD PUSH1 0x40 DUP1 MLOAD PUSH1 0x1F NOT DUP2 DUP5 SUB ADD DUP2 MSTORE SWAP2 DUP2 MSTORE PUSH1 0x20 DUP3 ADD DUP1 MLOAD PUSH1 0x1 PUSH1 0x1 PUSH1 0xE0 SHL SUB AND PUSH4 0x8C590917 PUSH1 0xE0 SHL OR SWAP1 MSTORE MLOAD PUSH2 0x1D6C SWAP2 SWAP1 PUSH2 0x2251 JUMP JUMPDEST PUSH0 PUSH1 0x40 MLOAD DUP1 DUP4 SUB DUP2 DUP6 DUP8 GAS CALL SWAP3 POP POP POP RETURNDATASIZE DUP1 PUSH0 DUP2 EQ PUSH2 0x1DA6 JUMPI PUSH1 0x40 MLOAD SWAP2 POP PUSH1 0x1F NOT PUSH1 0x3F RETURNDATASIZE ADD AND DUP3 ADD PUSH1 0x40 MSTORE RETURNDATASIZE DUP3 MSTORE RETURNDATASIZE PUSH0 PUSH1 0x20 DUP5 ADD RETURNDATACOPY PUSH2 0x1DAB JUMP JUMPDEST PUSH1 0x60 SWAP2 POP JUMPDEST POP SWAP2 POP SWAP2 POP DUP2 PUSH2 0x1E15 JUMPI PUSH2 0x1DBE DUP2 PUSH2 0x2123 JUMP JUMPDEST PUSH1 0x2 SWAP1 PUSH2 0x1DCB SWAP1 DUP3 PUSH2 0x22F7 JUMP JUMPDEST POP PUSH0 PUSH1 0x2 DUP1 SLOAD PUSH2 0x1DDA SWAP1 PUSH2 0x227B JUMP JUMPDEST PUSH1 0x3 DUP1 SLOAD PUSH1 0xFF NOT AND SWAP4 SWAP1 SWAP2 GT SWAP3 SWAP1 SWAP3 OR SWAP1 SWAP2 SSTORE POP PUSH1 0x40 MLOAD PUSH0 MLOAD PUSH1 0x20 PUSH2 0x2A44 PUSH0 CODECOPY PUSH0 MLOAD SWAP1 PUSH0 MSTORE SWAP1 PUSH2 0x1E0C SWAP1 PUSH1 0x2 SWAP1 PUSH2 0x2869 JUMP JUMPDEST PUSH1 0x40 MLOAD DUP1 SWAP2 SUB SWAP1 LOG1 JUMPDEST PUSH0 MLOAD PUSH1 0x20 PUSH2 0x2A9F PUSH0 CODECOPY PUSH0 MLOAD SWAP1 PUSH0 MSTORE PUSH1 0x40 MLOAD PUSH2 0x120F SWAP1 PUSH1 0x20 DUP1 DUP3 MSTORE PUSH1 0xE SWAP1 DUP3 ADD MSTORE PUSH14 0x6D6F636B436F6E74726962757465 PUSH1 0x90 SHL PUSH1 0x40 DUP3 ADD MSTORE PUSH1 0x60 ADD SWAP1 JUMP JUMPDEST PUSH1 0x40 MLOAD CALLER SWAP1 SELFBALANCE DUP1 ISZERO PUSH2 0x8FC MUL SWAP2 PUSH0 DUP2 DUP2 DUP2 DUP6 DUP9 DUP9 CALL SWAP4 POP POP POP POP ISZERO DUP1 ISZERO PUSH2 0x1CB1 JUMPI RETURNDATASIZE PUSH0 PUSH0 RETURNDATACOPY RETURNDATASIZE PUSH0 REVERT JUMPDEST PUSH0 DUP1 SLOAD PUSH2 0x100 PUSH1 0x1 PUSH1 0xA8 SHL SUB NOT AND PUSH2 0x100 PUSH1 0x1 PUSH1 0x1 PUSH1 0xA0 SHL SUB DUP8 AND MUL OR SWAP1 SSTORE PUSH1 0x4 DUP1 SSTORE PUSH1 0x3 DUP1 SLOAD PUSH1 0xFF NOT AND SWAP1 SSTORE PUSH1 0x40 DUP1 MLOAD DUP1 DUP3 ADD SWAP1 SWAP2 MSTORE PUSH1 0x1F DUP2 MSTORE PUSH32 0x5265656E7472616E637947756172643A207265656E7472616E742063616C6C00 PUSH1 0x20 DUP3 ADD MSTORE PUSH1 0x2 SWAP1 PUSH2 0x1EE9 SWAP1 DUP3 PUSH2 0x22F7 JUMP JUMPDEST POP PUSH0 MLOAD PUSH1 0x20 PUSH2 0x2A9F PUSH0 CODECOPY PUSH0 MLOAD SWAP1 PUSH0 MSTORE PUSH1 0x40 MLOAD PUSH2 0x1F21 SWAP1 PUSH1 0x20 DUP1 DUP3 MSTORE PUSH1 0x8 SWAP1 DUP3 ADD MSTORE PUSH8 0x636C61696D466565 PUSH1 0xC0 SHL PUSH1 0x40 DUP3 ADD MSTORE PUSH1 0x60 ADD SWAP1 JUMP JUMPDEST PUSH1 0x40 MLOAD DUP1 SWAP2 SUB SWAP1 LOG1 PUSH0 DUP1 SLOAD PUSH1 0xFF NOT AND DUP1 DUP3 SSTORE PUSH1 0x40 MLOAD PUSH1 0x24 DUP2 ADD DUP7 SWAP1 MSTORE PUSH1 0x44 DUP2 ADD DUP6 SWAP1 MSTORE PUSH1 0x64 DUP2 ADD DUP5 SWAP1 MSTORE DUP3 SWAP2 PUSH2 0x100 SWAP1 DIV PUSH1 0x1 PUSH1 0x1 PUSH1 0xA0 SHL SUB AND SWAP1 PUSH1 0x84 ADD PUSH1 0x40 DUP1 MLOAD PUSH1 0x1F NOT DUP2 DUP5 SUB ADD DUP2 MSTORE SWAP2 DUP2 MSTORE PUSH1 0x20 DUP3 ADD DUP1 MLOAD PUSH1 0x1 PUSH1 0x1 PUSH1 0xE0 SHL SUB AND PUSH4 0x9860CA5 PUSH1 0xE3 SHL OR SWAP1 MSTORE MLOAD PUSH2 0x1F94 SWAP2 SWAP1 PUSH2 0x2251 JUMP JUMPDEST PUSH0 PUSH1 0x40 MLOAD DUP1 DUP4 SUB DUP2 PUSH0 DUP7 GAS CALL SWAP2 POP POP RETURNDATASIZE DUP1 PUSH0 DUP2 EQ PUSH2 0x1FCD JUMPI PUSH1 0x40 MLOAD SWAP2 POP PUSH1 0x1F NOT PUSH1 0x3F RETURNDATASIZE ADD AND DUP3 ADD PUSH1 0x40 MSTORE RETURNDATASIZE DUP3 MSTORE RETURNDATASIZE PUSH0 PUSH1 0x20 DUP5 ADD RETURNDATACOPY PUSH2 0x1FD2 JUMP JUMPDEST PUSH1 0x60 SWAP2 POP JUMPDEST POP SWAP2 POP SWAP2 POP DUP2 PUSH2 0x2067 JUMPI PUSH2 0x1FE5 DUP2 PUSH2 0x2123 JUMP JUMPDEST PUSH1 0x2 SWAP1 PUSH2 0x1FF2 SWAP1 DUP3 PUSH2 0x22F7 JUMP JUMPDEST POP PUSH2 0x2003 PUSH1 0x2 DUP1 SLOAD PUSH2 0x4EB SWAP1 PUSH2 0x227B JUMP JUMPDEST DUP1 PUSH2 0x201A JUMPI POP PUSH1 0x2 DUP1 SLOAD PUSH2 0x2016 SWAP1 PUSH2 0x227B JUMP JUMPDEST ISZERO SWAP1 POP JUMPDEST ISZERO PUSH2 0x2062 JUMPI PUSH1 0x40 DUP1 MLOAD DUP1 DUP3 ADD SWAP1 SWAP2 MSTORE PUSH1 0x1F DUP2 MSTORE PUSH32 0x5265656E7472616E637947756172643A207265656E7472616E742063616C6C00 PUSH1 0x20 DUP3 ADD MSTORE PUSH1 0x2 SWAP1 PUSH2 0x2060 SWAP1 DUP3 PUSH2 0x22F7 JUMP JUMPDEST POP JUMPDEST PUSH2 0x105C JUMP JUMPDEST PUSH1 0x3 SLOAD PUSH1 0xFF AND PUSH2 0x105C JUMPI PUSH1 0x40 MLOAD DUP1 PUSH1 0x60 ADD PUSH1 0x40 MSTORE DUP1 PUSH1 0x3B DUP2 MSTORE PUSH1 0x20 ADD PUSH2 0x2A64 PUSH1 0x3B SWAP2 CODECOPY PUSH1 0x2 SWAP1 PUSH2 0x1745 SWAP1 DUP3 PUSH2 0x22F7 JUMP JUMPDEST PUSH1 0x2 DUP1 SLOAD PUSH2 0x20A4 SWAP1 PUSH2 0x227B JUMP JUMPDEST DUP1 PUSH1 0x1F ADD PUSH1 0x20 DUP1 SWAP2 DIV MUL PUSH1 0x20 ADD PUSH1 0x40 MLOAD SWAP1 DUP2 ADD PUSH1 0x40 MSTORE DUP1 SWAP3 SWAP2 SWAP1 DUP2 DUP2 MSTORE PUSH1 0x20 ADD DUP3 DUP1 SLOAD PUSH2 0x20D0 SWAP1 PUSH2 0x227B JUMP JUMPDEST DUP1 ISZERO PUSH2 0x211B JUMPI DUP1 PUSH1 0x1F LT PUSH2 0x20F2 JUMPI PUSH2 0x100 DUP1 DUP4 SLOAD DIV MUL DUP4 MSTORE SWAP2 PUSH1 0x20 ADD SWAP2 PUSH2 0x211B JUMP JUMPDEST DUP3 ADD SWAP2 SWAP1 PUSH0 MSTORE PUSH1 0x20 PUSH0 KECCAK256 SWAP1 JUMPDEST DUP2 SLOAD DUP2 MSTORE SWAP1 PUSH1 0x1 ADD SWAP1 PUSH1 0x20 ADD DUP1 DUP4 GT PUSH2 0x20FE JUMPI DUP3 SWAP1 SUB PUSH1 0x1F AND DUP3 ADD SWAP2 JUMPDEST POP POP POP POP POP DUP2 JUMP JUMPDEST PUSH1 0x60 PUSH1 0x44 DUP3 MLOAD LT ISZERO PUSH2 0x2168 JUMPI POP POP PUSH1 0x40 DUP1 MLOAD DUP1 DUP3 ADD SWAP1 SWAP2 MSTORE PUSH1 0x1D DUP2 MSTORE PUSH32 0x5472616E73616374696F6E2072657665727465642073696C656E746C79000000 PUSH1 0x20 DUP3 ADD MSTORE SWAP1 JUMP JUMPDEST PUSH0 PUSH1 0x4 DUP4 MLOAD PUSH2 0x2177 SWAP2 SWAP1 PUSH2 0x283E JUMP JUMPDEST PUSH8 0xFFFFFFFFFFFFFFFF DUP2 GT ISZERO PUSH2 0x218F JUMPI PUSH2 0x218F PUSH2 0x2267 JUMP JUMPDEST PUSH1 0x40 MLOAD SWAP1 DUP1 DUP3 MSTORE DUP1 PUSH1 0x1F ADD PUSH1 0x1F NOT AND PUSH1 0x20 ADD DUP3 ADD PUSH1 0x40 MSTORE DUP1 ISZERO PUSH2 0x21B9 JUMPI PUSH1 0x20 DUP3 ADD DUP2 DUP1 CALLDATASIZE DUP4 CALLDATACOPY ADD SWAP1 POP JUMPDEST POP SWAP1 POP PUSH1 0x4 JUMPDEST DUP4 MLOAD DUP2 LT ISZERO PUSH2 0x2223 JUMPI DUP4 DUP2 DUP2 MLOAD DUP2 LT PUSH2 0x21DA JUMPI PUSH2 0x21DA PUSH2 0x2495 JUMP JUMPDEST ADD PUSH1 0x20 ADD MLOAD PUSH1 0x1 PUSH1 0x1 PUSH1 0xF8 SHL SUB NOT AND DUP3 PUSH2 0x21F5 PUSH1 0x4 DUP5 PUSH2 0x283E JUMP JUMPDEST DUP2 MLOAD DUP2 LT PUSH2 0x2205 JUMPI PUSH2 0x2205 PUSH2 0x2495 JUMP JUMPDEST PUSH1 0x20 ADD ADD SWAP1 PUSH1 0x1 PUSH1 0x1 PUSH1 0xF8 SHL SUB NOT AND SWAP1 DUP2 PUSH0 BYTE SWAP1 MSTORE8 POP PUSH1 0x1 ADD PUSH2 0x21BF JUMP JUMPDEST POP SWAP3 SWAP2 POP POP JUMP JUMPDEST PUSH4 0x4E487B71 PUSH1 0xE0 SHL PUSH0 MSTORE PUSH1 0x11 PUSH1 0x4 MSTORE PUSH1 0x24 PUSH0 REVERT JUMPDEST DUP1 DUP3 ADD DUP1 DUP3 GT ISZERO PUSH2 0xDB0 JUMPI PUSH2 0xDB0 PUSH2 0x222A JUMP JUMPDEST PUSH0 DUP3 MLOAD DUP1 PUSH1 0x20 DUP6 ADD DUP5 MCOPY PUSH0 SWAP3 ADD SWAP2 DUP3 MSTORE POP SWAP2 SWAP1 POP JUMP JUMPDEST PUSH4 0x4E487B71 PUSH1 0xE0 SHL PUSH0 MSTORE PUSH1 0x41 PUSH1 0x4 MSTORE PUSH1 0x24 PUSH0 REVERT JUMPDEST PUSH1 0x1 DUP2 DUP2 SHR SWAP1 DUP3 AND DUP1 PUSH2 0x228F JUMPI PUSH1 0x7F DUP3 AND SWAP2 POP JUMPDEST PUSH1 0x20 DUP3 LT DUP2 SUB PUSH2 0x22AD JUMPI PUSH4 0x4E487B71 PUSH1 0xE0 SHL PUSH0 MSTORE PUSH1 0x22 PUSH1 0x4 MSTORE PUSH1 0x24 PUSH0 REVERT JUMPDEST POP SWAP2 SWAP1 POP JUMP JUMPDEST PUSH1 0x1F DUP3 GT ISZERO PUSH2 0x1533 JUMPI DUP1 PUSH0 MSTORE PUSH1 0x20 PUSH0 KECCAK256 PUSH1 0x1F DUP5 ADD PUSH1 0x5 SHR DUP2 ADD PUSH1 0x20 DUP6 LT ISZERO PUSH2 0x22D8 JUMPI POP DUP1 JUMPDEST PUSH1 0x1F DUP5 ADD PUSH1 0x5 SHR DUP3 ADD SWAP2 POP JUMPDEST DUP2 DUP2 LT ISZERO PUSH2 0x105E JUMPI PUSH0 DUP2 SSTORE PUSH1 0x1 ADD PUSH2 0x22E4 JUMP JUMPDEST DUP2 MLOAD PUSH8 0xFFFFFFFFFFFFFFFF DUP2 GT ISZERO PUSH2 0x2311 JUMPI PUSH2 0x2311 PUSH2 0x2267 JUMP JUMPDEST PUSH2 0x2325 DUP2 PUSH2 0x231F DUP5 SLOAD PUSH2 0x227B JUMP JUMPDEST DUP5 PUSH2 0x22B3 JUMP JUMPDEST PUSH1 0x20 PUSH1 0x1F DUP3 GT PUSH1 0x1 DUP2 EQ PUSH2 0x2357 JUMPI PUSH0 DUP4 ISZERO PUSH2 0x2340 JUMPI POP DUP5 DUP3 ADD MLOAD JUMPDEST PUSH0 NOT PUSH1 0x3 DUP6 SWAP1 SHL SHR NOT AND PUSH1 0x1 DUP5 SWAP1 SHL OR DUP5 SSTORE PUSH2 0x105E JUMP JUMPDEST PUSH0 DUP5 DUP2 MSTORE PUSH1 0x20 DUP2 KECCAK256 PUSH1 0x1F NOT DUP6 AND SWAP2 JUMPDEST DUP3 DUP2 LT ISZERO PUSH2 0x2386 JUMPI DUP8 DUP6 ADD MLOAD DUP3 SSTORE PUSH1 0x20 SWAP5 DUP6 ADD SWAP5 PUSH1 0x1 SWAP1 SWAP3 ADD SWAP2 ADD PUSH2 0x2366 JUMP JUMPDEST POP DUP5 DUP3 LT ISZERO PUSH2 0x23A3 JUMPI DUP7 DUP5 ADD MLOAD PUSH0 NOT PUSH1 0x3 DUP8 SWAP1 SHL PUSH1 0xF8 AND SHR NOT AND DUP2 SSTORE JUMPDEST POP POP POP POP PUSH1 0x1 SWAP1 DUP2 SHL ADD SWAP1 SSTORE POP JUMP JUMPDEST PUSH32 0x5265656E7472616E63792061747461636B206661696C65642077697468206572 DUP2 MSTORE PUSH5 0x3937B91D1 PUSH1 0xDD SHL PUSH1 0x20 DUP3 ADD MSTORE PUSH0 PUSH0 DUP4 SLOAD PUSH2 0x23F0 DUP2 PUSH2 0x227B JUMP JUMPDEST PUSH1 0x1 DUP3 AND DUP1 ISZERO PUSH2 0x2407 JUMPI PUSH1 0x1 DUP2 EQ PUSH2 0x2422 JUMPI PUSH2 0x2455 JUMP JUMPDEST PUSH1 0xFF NOT DUP4 AND PUSH1 0x25 DUP8 ADD MSTORE PUSH1 0x25 DUP3 ISZERO ISZERO DUP4 MUL DUP8 ADD ADD SWAP4 POP PUSH2 0x2455 JUMP JUMPDEST DUP7 PUSH0 MSTORE PUSH1 0x20 PUSH0 KECCAK256 PUSH0 JUMPDEST DUP4 DUP2 LT ISZERO PUSH2 0x244A JUMPI DUP2 SLOAD DUP9 DUP3 ADD PUSH1 0x25 ADD MSTORE PUSH1 0x1 SWAP1 SWAP2 ADD SWAP1 PUSH1 0x20 ADD PUSH2 0x242B JUMP JUMPDEST POP POP PUSH1 0x25 DUP3 DUP8 ADD ADD SWAP4 POP JUMPDEST POP SWAP2 SWAP6 SWAP5 POP POP POP POP POP JUMP JUMPDEST PUSH1 0x20 DUP2 MSTORE PUSH0 DUP3 MLOAD DUP1 PUSH1 0x20 DUP5 ADD MSTORE DUP1 PUSH1 0x20 DUP6 ADD PUSH1 0x40 DUP6 ADD MCOPY PUSH0 PUSH1 0x40 DUP3 DUP6 ADD ADD MSTORE PUSH1 0x40 PUSH1 0x1F NOT PUSH1 0x1F DUP4 ADD AND DUP5 ADD ADD SWAP2 POP POP SWAP3 SWAP2 POP POP JUMP JUMPDEST PUSH4 0x4E487B71 PUSH1 0xE0 SHL PUSH0 MSTORE PUSH1 0x32 PUSH1 0x4 MSTORE PUSH1 0x24 PUSH0 REVERT JUMPDEST PUSH0 DUP2 MLOAD DUP1 DUP5 MSTORE PUSH1 0x20 DUP5 ADD SWAP4 POP PUSH1 0x20 DUP4 ADD PUSH0 JUMPDEST DUP3 DUP2 LT ISZERO PUSH2 0x24E2 JUMPI DUP2 MLOAD PUSH1 0x1 PUSH1 0x1 PUSH1 0xA0 SHL SUB AND DUP7 MSTORE PUSH1 0x20 SWAP6 DUP7 ADD SWAP6 SWAP1 SWAP2 ADD SWAP1 PUSH1 0x1 ADD PUSH2 0x24BB JUMP JUMPDEST POP SWAP4 SWAP5 SWAP4 POP POP POP POP JUMP JUMPDEST PUSH0 DUP2 MLOAD DUP1 DUP5 MSTORE PUSH1 0x20 DUP5 ADD SWAP4 POP PUSH1 0x20 DUP4 ADD PUSH0 JUMPDEST DUP3 DUP2 LT ISZERO PUSH2 0x24E2 JUMPI DUP2 MLOAD DUP7 MSTORE PUSH1 0x20 SWAP6 DUP7 ADD SWAP6 SWAP1 SWAP2 ADD SWAP1 PUSH1 0x1 ADD PUSH2 0x24FE JUMP JUMPDEST PUSH2 0x120 DUP2 MSTORE PUSH1 0x11 PUSH2 0x120 DUP3 ADD MSTORE PUSH17 0x5265656E7472616E637954657374425453 PUSH1 0x78 SHL PUSH2 0x140 DUP3 ADD MSTORE PUSH2 0x160 PUSH1 0x20 DUP3 ADD MSTORE PUSH0 PUSH2 0x256D PUSH2 0x160 DUP4 ADD PUSH1 0x5 DUP2 MSTORE PUSH5 0x5254425453 PUSH1 0xD8 SHL PUSH1 0x20 DUP3 ADD MSTORE PUSH1 0x40 ADD SWAP1 JUMP JUMPDEST DUP3 DUP2 SUB PUSH1 0x40 DUP5 ADD MSTORE PUSH2 0x257F DUP2 DUP9 PUSH2 0x24A9 JUMP JUMPDEST SWAP1 POP DUP3 DUP2 SUB PUSH1 0x60 DUP5 ADD MSTORE PUSH2 0x2593 DUP2 DUP8 PUSH2 0x24EC JUMP JUMPDEST DUP4 DUP2 SUB PUSH1 0x80 DUP6 ADD MSTORE PUSH1 0x1A DUP2 MSTORE PUSH32 0x697066733A2F2F7265656E7472616E63792D746573742D757269000000000000 PUSH1 0x20 DUP3 ADD MSTORE SWAP1 POP PUSH1 0x40 DUP2 ADD PUSH2 0xFFFF DUP7 AND PUSH1 0xA0 DUP6 ADD MSTORE SWAP1 POP DUP3 DUP2 SUB PUSH1 0xC0 DUP5 ADD MSTORE PUSH1 0xD DUP2 MSTORE PUSH13 0x5245454E5452414E4359313233 PUSH1 0x98 SHL PUSH1 0x20 DUP3 ADD MSTORE PUSH1 0x40 DUP2 ADD DUP4 DUP2 SUB PUSH1 0xE0 DUP6 ADD MSTORE PUSH1 0x13 DUP2 MSTORE PUSH19 0x5265656E7472616E6379205465737420425453 PUSH1 0x68 SHL PUSH1 0x20 DUP3 ADD MSTORE SWAP1 POP PUSH1 0x40 DUP2 ADD JUMPDEST SWAP2 POP POP DUP3 PUSH2 0x100 DUP4 ADD MSTORE SWAP6 SWAP5 POP POP POP POP POP JUMP JUMPDEST DUP1 CALLDATALOAD PUSH1 0x1 PUSH1 0x1 PUSH1 0xA0 SHL SUB DUP2 AND DUP2 EQ PUSH2 0x2655 JUMPI PUSH0 PUSH0 REVERT JUMPDEST SWAP2 SWAP1 POP JUMP JUMPDEST PUSH0 PUSH0 PUSH0 PUSH1 0x60 DUP5 DUP7 SUB SLT ISZERO PUSH2 0x266C JUMPI PUSH0 PUSH0 REVERT JUMPDEST PUSH2 0x2675 DUP5 PUSH2 0x263F JUMP JUMPDEST SWAP6 PUSH1 0x20 DUP6 ADD CALLDATALOAD SWAP6 POP PUSH1 0x40 SWAP1 SWAP5 ADD CALLDATALOAD SWAP4 SWAP3 POP POP POP JUMP JUMPDEST PUSH0 PUSH0 PUSH1 0x40 DUP4 DUP6 SUB SLT ISZERO PUSH2 0x269B JUMPI PUSH0 PUSH0 REVERT JUMPDEST PUSH2 0x26A4 DUP4 PUSH2 0x263F JUMP JUMPDEST SWAP5 PUSH1 0x20 SWAP4 SWAP1 SWAP4 ADD CALLDATALOAD SWAP4 POP POP POP JUMP JUMPDEST PUSH0 PUSH0 PUSH0 PUSH1 0x60 DUP5 DUP7 SUB SLT ISZERO PUSH2 0x26C4 JUMPI PUSH0 PUSH0 REVERT JUMPDEST PUSH2 0x26CD DUP5 PUSH2 0x263F JUMP JUMPDEST SWAP3 POP PUSH2 0x26DB PUSH1 0x20 DUP6 ADD PUSH2 0x263F JUMP JUMPDEST SWAP3 SWAP6 SWAP3 SWAP5 POP POP POP PUSH1 0x40 SWAP2 SWAP1 SWAP2 ADD CALLDATALOAD SWAP1 JUMP JUMPDEST PUSH0 PUSH1 0x20 DUP3 DUP5 SUB SLT ISZERO PUSH2 0x26FC JUMPI PUSH0 PUSH0 REVERT JUMPDEST PUSH2 0x2705 DUP3 PUSH2 0x263F JUMP JUMPDEST SWAP4 SWAP3 POP POP POP JUMP JUMPDEST PUSH0 PUSH0 PUSH0 PUSH0 PUSH0 PUSH1 0xA0 DUP7 DUP9 SUB SLT ISZERO PUSH2 0x2720 JUMPI PUSH0 PUSH0 REVERT JUMPDEST PUSH2 0x2729 DUP7 PUSH2 0x263F JUMP JUMPDEST SWAP5 POP PUSH2 0x2737 PUSH1 0x20 DUP8 ADD PUSH2 0x263F JUMP JUMPDEST SWAP5 SWAP8 SWAP5 SWAP7 POP POP POP POP PUSH1 0x40 DUP4 ADD CALLDATALOAD SWAP3 PUSH1 0x60 DUP2 ADD CALLDATALOAD SWAP3 PUSH1 0x80 SWAP1 SWAP2 ADD CALLDATALOAD SWAP2 POP JUMP JUMPDEST PUSH0 PUSH0 PUSH0 PUSH0 PUSH1 0x80 DUP6 DUP8 SUB SLT ISZERO PUSH2 0x2768 JUMPI PUSH0 PUSH0 REVERT JUMPDEST PUSH2 0x2771 DUP6 PUSH2 0x263F JUMP JUMPDEST SWAP7 PUSH1 0x20 DUP7 ADD CALLDATALOAD SWAP7 POP PUSH1 0x40 DUP7 ADD CALLDATALOAD SWAP6 PUSH1 0x60 ADD CALLDATALOAD SWAP5 POP SWAP3 POP POP POP JUMP JUMPDEST PUSH0 PUSH1 0x20 DUP3 DUP5 SUB SLT ISZERO PUSH2 0x279B JUMPI PUSH0 PUSH0 REVERT JUMPDEST DUP2 MLOAD PUSH8 0xFFFFFFFFFFFFFFFF DUP2 GT ISZERO PUSH2 0x27B1 JUMPI PUSH0 PUSH0 REVERT JUMPDEST DUP3 ADD PUSH1 0x1F DUP2 ADD DUP5 SGT PUSH2 0x27C1 JUMPI PUSH0 PUSH0 REVERT JUMPDEST DUP1 MLOAD PUSH8 0xFFFFFFFFFFFFFFFF DUP2 GT ISZERO PUSH2 0x27DB JUMPI PUSH2 0x27DB PUSH2 0x2267 JUMP JUMPDEST PUSH1 0x40 MLOAD PUSH1 0x1F DUP3 ADD PUSH1 0x1F NOT SWAP1 DUP2 AND PUSH1 0x3F ADD AND DUP2 ADD PUSH8 0xFFFFFFFFFFFFFFFF DUP2 GT DUP3 DUP3 LT OR ISZERO PUSH2 0x280A JUMPI PUSH2 0x280A PUSH2 0x2267 JUMP JUMPDEST PUSH1 0x40 MSTORE DUP2 DUP2 MSTORE DUP3 DUP3 ADD PUSH1 0x20 ADD DUP7 LT ISZERO PUSH2 0x2821 JUMPI PUSH0 PUSH0 REVERT JUMPDEST DUP2 PUSH1 0x20 DUP5 ADD PUSH1 0x20 DUP4 ADD MCOPY PUSH0 SWAP2 DUP2 ADD PUSH1 0x20 ADD SWAP2 SWAP1 SWAP2 MSTORE SWAP5 SWAP4 POP POP POP POP JUMP JUMPDEST DUP2 DUP2 SUB DUP2 DUP2 GT ISZERO PUSH2 0xDB0 JUMPI PUSH2 0xDB0 PUSH2 0x222A JUMP JUMPDEST PUSH0 PUSH1 0x1 DUP3 ADD PUSH2 0x2862 JUMPI PUSH2 0x2862 PUSH2 0x222A JUMP JUMPDEST POP PUSH1 0x1 ADD SWAP1 JUMP JUMPDEST PUSH1 0x20 DUP2 MSTORE PUSH0 PUSH0 DUP4 SLOAD PUSH2 0x287A DUP2 PUSH2 0x227B JUMP JUMPDEST DUP1 PUSH1 0x20 DUP7 ADD MSTORE PUSH1 0x1 DUP3 AND PUSH0 DUP2 EQ PUSH2 0x2898 JUMPI PUSH1 0x1 DUP2 EQ PUSH2 0x28B4 JUMPI PUSH2 0x2455 JUMP JUMPDEST PUSH1 0xFF NOT DUP4 AND PUSH1 0x40 DUP8 ADD MSTORE PUSH1 0x40 DUP3 ISZERO ISZERO PUSH1 0x5 SHL DUP8 ADD ADD SWAP4 POP PUSH2 0x2455 JUMP JUMPDEST DUP7 PUSH0 MSTORE PUSH1 0x20 PUSH0 KECCAK256 PUSH0 JUMPDEST DUP4 DUP2 LT ISZERO PUSH2 0x28DC JUMPI DUP2 SLOAD DUP9 DUP3 ADD PUSH1 0x40 ADD MSTORE PUSH1 0x1 SWAP1 SWAP2 ADD SWAP1 PUSH1 0x20 ADD PUSH2 0x28BD JUMP JUMPDEST DUP8 ADD PUSH1 0x40 ADD SWAP5 POP POP POP SWAP2 SWAP6 SWAP5 POP POP POP POP POP JUMP JUMPDEST PUSH2 0x120 DUP2 MSTORE PUSH1 0x7 PUSH2 0x120 DUP3 ADD MSTORE PUSH7 0x54657374425453 PUSH1 0xC8 SHL PUSH2 0x140 DUP3 ADD MSTORE PUSH2 0x160 PUSH1 0x20 DUP3 ADD MSTORE PUSH0 PUSH2 0x2935 PUSH2 0x160 DUP4 ADD PUSH1 0x4 DUP2 MSTORE PUSH4 0x54425453 PUSH1 0xE0 SHL PUSH1 0x20 DUP3 ADD MSTORE PUSH1 0x40 ADD SWAP1 JUMP JUMPDEST DUP3 DUP2 SUB PUSH1 0x40 DUP5 ADD MSTORE PUSH2 0x2947 DUP2 DUP9 PUSH2 0x24A9 JUMP JUMPDEST SWAP1 POP DUP3 DUP2 SUB PUSH1 0x60 DUP5 ADD MSTORE PUSH2 0x295B DUP2 DUP8 PUSH2 0x24EC JUMP JUMPDEST DUP4 DUP2 SUB PUSH1 0x80 DUP6 ADD MSTORE PUSH1 0xF DUP2 MSTORE PUSH15 0x697066733A2F2F746573742D757269 PUSH1 0x88 SHL PUSH1 0x20 DUP3 ADD MSTORE SWAP1 POP PUSH1 0x40 DUP2 ADD PUSH2 0xFFFF DUP7 AND PUSH1 0xA0 DUP6 ADD MSTORE SWAP1 POP DUP3 DUP2 SUB PUSH1 0xC0 DUP5 ADD MSTORE PUSH1 0x7 DUP2 MSTORE PUSH7 0x54455354313233 PUSH1 0xC8 SHL PUSH1 0x20 DUP3 ADD MSTORE PUSH1 0x40 DUP2 ADD DUP4 DUP2 SUB PUSH1 0xE0 DUP6 ADD MSTORE PUSH1 0x14 DUP2 MSTORE PUSH20 0x2A32B9BA10212A29902232B9B1B934B83A34B7B7 PUSH1 0x61 SHL PUSH1 0x20 DUP3 ADD MSTORE SWAP1 POP PUSH1 0x40 DUP2 ADD PUSH2 0x262C JUMP JUMPDEST PUSH0 PUSH1 0x20 DUP3 DUP5 SUB SLT ISZERO PUSH2 0x29F5 JUMPI PUSH0 PUSH0 REVERT JUMPDEST POP MLOAD SWAP2 SWAP1 POP JUMP JUMPDEST PUSH0 PUSH1 0x20 DUP3 DUP5 SUB SLT ISZERO PUSH2 0x2A0C JUMPI PUSH0 PUSH0 REVERT JUMPDEST DUP2 MLOAD DUP1 ISZERO ISZERO DUP2 EQ PUSH2 0x2705 JUMPI PUSH0 PUSH0 REVERT INVALID CHAINID PUSH22 0x6E6374696F6E2069732070726F746563746564206167 PUSH2 0x696E PUSH20 0x74207265656E7472616E6379F0A559AC9413A8F2 0xC6 EXTCODESIZE PUSH31 0x229E8DC956A8015195BC1D2E668F13731F9D4C70A146756E6374696F6E2063 PUSH16 0x6D706C6574656420776974686F757420 PUSH21 0x726967676572696E67207265656E7472616E637920 PUSH17 0x726F74656374696F6E40F5440819AFA307 0xC5 COINBASE PUSH0 0xD2 SHL 0xAF MCOPY 0xC1 SWAP7 0x2D SWAP2 0x25 0xE8 DUP13 SUB 0xAC JUMPF 0xE3D6 0xB9 SSTORE PUSH21 0x9190A264697066735822122071E27BDA309C4AC3D5 DUP11 SWAP7 0x23 EXTCODEHASH EXTCODESIZE PUSH9 0x7464778652765DF4C8 PUSH17 0xFB438DB037C75364736F6C634300081E00 CALLER "
		},
		"gasEstimates": {
			"creation": {
				"codeDepositCost": "2199200",
				"executionCost": "2344",
				"totalCost": "2201544"
			},
			"external": {
				"attackClaimFee(address,uint256,uint256,uint256)": "infinite",
				"attackContribute(address,uint256,uint256)": "infinite",
				"attackCreateBTS(address,address,uint256)": "infinite",
				"attackMockContribute(address,uint256)": "infinite",
				"attackMockContributeWithNonReentrant(address,uint256)": "infinite",
				"attackMockWithdraw(address,uint256)": "infinite",
				"attackMockWithdrawWithNonReentrant(address,uint256)": "infinite",
				"attackMode()": "2329",
				"attackWithdraw(address,address,uint256,uint256,uint256)": "infinite",
				"attackWithdrawETH(address,address,uint256,uint256,uint256)": "infinite",
				"btsAddress()": "2369",
				"factoryAddress()": "2381",
				"lastErrorMessage()": "infinite",
				"reentrancyDetected()": "2419",
				"reset()": "infinite",
				"withdrawETH()": "infinite",
				"withdrawToken(address)": "infinite"
			},
			"internal": {
				"_containsString(string memory,string memory)": "infinite",
				"_extractErrorMessage(bytes memory)": "infinite",
				"_getRevertMsg(bytes memory)": "infinite"
			}
		},
		"methodIdentifiers": {
			"attackClaimFee(address,uint256,uint256,uint256)": "e1568559",
			"attackContribute(address,uint256,uint256)": "0f1c860a",
			"attackCreateBTS(address,address,uint256)": "68fbd65f",
			"attackMockContribute(address,uint256)": "de274f02",
			"attackMockContributeWithNonReentrant(address,uint256)": "c85ac3ef",
			"attackMockWithdraw(address,uint256)": "9e1955e7",
			"attackMockWithdrawWithNonReentrant(address,uint256)": "4a093517",
			"attackMode()": "4012c2fa",
			"attackWithdraw(address,address,uint256,uint256,uint256)": "9ac7b53e",
			"attackWithdrawETH(address,address,uint256,uint256,uint256)": "ccd3e229",
			"btsAddress()": "a16a3d60",
			"factoryAddress()": "966dae0e",
			"lastErrorMessage()": "f80682cd",
			"reentrancyDetected()": "fd9269c5",
			"reset()": "d826f88f",
			"withdrawETH()": "e086e5ec",
			"withdrawToken(address)": "89476069"
		}
	},
	"abi": [
		{
			"anonymous": false,
			"inputs": [
				{
					"indexed": false,
					"internalType": "string",
					"name": "functionName",
					"type": "string"
				}
			],
			"name": "AttackAttempted",
			"type": "event"
		},
		{
			"anonymous": false,
			"inputs": [
				{
					"indexed": false,
					"internalType": "string",
					"name": "errorMessage",
					"type": "string"
				}
			],
			"name": "ErrorCaught",
			"type": "event"
		},
		{
			"anonymous": false,
			"inputs": [
				{
					"indexed": false,
					"internalType": "uint256",
					"name": "amount",
					"type": "uint256"
				}
			],
			"name": "ReceivedETH",
			"type": "event"
		},
		{
			"anonymous": false,
			"inputs": [
				{
					"indexed": false,
					"internalType": "string",
					"name": "message",
					"type": "string"
				}
			],
			"name": "ReentrancyAttempt",
			"type": "event"
		},
		{
			"anonymous": false,
			"inputs": [
				{
					"indexed": false,
					"internalType": "string",
					"name": "result",
					"type": "string"
				}
			],
			"name": "ReentrancyResult",
			"type": "event"
		},
		{
			"inputs": [
				{
					"internalType": "address",
					"name": "_btsAddress",
					"type": "address"
				},
				{
					"internalType": "uint256",
					"name": "_amount",
					"type": "uint256"
				},
				{
					"internalType": "uint256",
					"name": "_buffer",
					"type": "uint256"
				},
				{
					"internalType": "uint256",
					"name": "_deadline",
					"type": "uint256"
				}
			],
			"name": "attackClaimFee",
			"outputs": [],
			"stateMutability": "nonpayable",
			"type": "function"
		},
		{
			"inputs": [
				{
					"internalType": "address",
					"name": "_btsAddress",
					"type": "address"
				},
				{
					"internalType": "uint256",
					"name": "_buffer",
					"type": "uint256"
				},
				{
					"internalType": "uint256",
					"name": "_deadline",
					"type": "uint256"
				}
			],
			"name": "attackContribute",
			"outputs": [],
			"stateMutability": "payable",
			"type": "function"
		},
		{
			"inputs": [
				{
					"internalType": "address",
					"name": "_factoryAddress",
					"type": "address"
				},
				{
					"internalType": "address",
					"name": "_alvaTokenAddress",
					"type": "address"
				},
				{
					"internalType": "uint256",
					"name": "_deadline",
					"type": "uint256"
				}
			],
			"name": "attackCreateBTS",
			"outputs": [],
			"stateMutability": "payable",
			"type": "function"
		},
		{
			"inputs": [
				{
					"internalType": "address",
					"name": "_mockBTS",
					"type": "address"
				},
				{
					"internalType": "uint256",
					"name": "_deadline",
					"type": "uint256"
				}
			],
			"name": "attackMockContribute",
			"outputs": [],
			"stateMutability": "payable",
			"type": "function"
		},
		{
			"inputs": [
				{
					"internalType": "address",
					"name": "_mockBTS",
					"type": "address"
				},
				{
					"internalType": "uint256",
					"name": "_deadline",
					"type": "uint256"
				}
			],
			"name": "attackMockContributeWithNonReentrant",
			"outputs": [],
			"stateMutability": "payable",
			"type": "function"
		},
		{
			"inputs": [
				{
					"internalType": "address",
					"name": "_mockBTS",
					"type": "address"
				},
				{
					"internalType": "uint256",
					"name": "_deadline",
					"type": "uint256"
				}
			],
			"name": "attackMockWithdraw",
			"outputs": [],
			"stateMutability": "nonpayable",
			"type": "function"
		},
		{
			"inputs": [
				{
					"internalType": "address",
					"name": "_mockBTS",
					"type": "address"
				},
				{
					"internalType": "uint256",
					"name": "_deadline",
					"type": "uint256"
				}
			],
			"name": "attackMockWithdrawWithNonReentrant",
			"outputs": [],
			"stateMutability": "nonpayable",
			"type": "function"
		},
		{
			"inputs": [],
			"name": "attackMode",
			"outputs": [
				{
					"internalType": "uint256",
					"name": "",
					"type": "uint256"
				}
			],
			"stateMutability": "view",
			"type": "function"
		},
		{
			"inputs": [
				{
					"internalType": "address",
					"name": "_btsAddress",
					"type": "address"
				},
				{
					"internalType": "address",
					"name": "_btsPairAddress",
					"type": "address"
				},
				{
					"internalType": "uint256",
					"name": "_liquidity",
					"type": "uint256"
				},
				{
					"internalType": "uint256",
					"name": "_buffer",
					"type": "uint256"
				},
				{
					"internalType": "uint256",
					"name": "_deadline",
					"type": "uint256"
				}
			],
			"name": "attackWithdraw",
			"outputs": [],
			"stateMutability": "nonpayable",
			"type": "function"
		},
		{
			"inputs": [
				{
					"internalType": "address",
					"name": "_btsAddress",
					"type": "address"
				},
				{
					"internalType": "address",
					"name": "_btsPairAddress",
					"type": "address"
				},
				{
					"internalType": "uint256",
					"name": "_liquidity",
					"type": "uint256"
				},
				{
					"internalType": "uint256",
					"name": "_buffer",
					"type": "uint256"
				},
				{
					"internalType": "uint256",
					"name": "_deadline",
					"type": "uint256"
				}
			],
			"name": "attackWithdrawETH",
			"outputs": [],
			"stateMutability": "nonpayable",
			"type": "function"
		},
		{
			"inputs": [],
			"name": "btsAddress",
			"outputs": [
				{
					"internalType": "address",
					"name": "",
					"type": "address"
				}
			],
			"stateMutability": "view",
			"type": "function"
		},
		{
			"inputs": [],
			"name": "factoryAddress",
			"outputs": [
				{
					"internalType": "address",
					"name": "",
					"type": "address"
				}
			],
			"stateMutability": "view",
			"type": "function"
		},
		{
			"inputs": [],
			"name": "lastErrorMessage",
			"outputs": [
				{
					"internalType": "string",
					"name": "",
					"type": "string"
				}
			],
			"stateMutability": "view",
			"type": "function"
		},
		{
			"inputs": [],
			"name": "reentrancyDetected",
			"outputs": [
				{
					"internalType": "bool",
					"name": "",
					"type": "bool"
				}
			],
			"stateMutability": "view",
			"type": "function"
		},
		{
			"inputs": [],
			"name": "reset",
			"outputs": [],
			"stateMutability": "nonpayable",
			"type": "function"
		},
		{
			"inputs": [],
			"name": "withdrawETH",
			"outputs": [],
			"stateMutability": "nonpayable",
			"type": "function"
		},
		{
			"inputs": [
				{
					"internalType": "address",
					"name": "tokenAddress",
					"type": "address"
				}
			],
			"name": "withdrawToken",
			"outputs": [],
			"stateMutability": "nonpayable",
			"type": "function"
		},
		{
			"stateMutability": "payable",
			"type": "receive"
		}
	]
}