{
	"contracts/AlvaraDao.sol": {
		"AlvaraDao": {
			"abi": [
				{
					"inputs": [],
					"stateMutability": "nonpayable",
					"type": "constructor"
				},
				{
					"inputs": [
						{
							"internalType": "address",
							"name": "target",
							"type": "address"
						}
					],
					"name": "AddressEmptyCode",
					"type": "error"
				},
				{
					"inputs": [
						{
							"internalType": "address",
							"name": "implementation",
							"type": "address"
						}
					],
					"name": "ERC1967InvalidImplementation",
					"type": "error"
				},
				{
					"inputs": [],
					"name": "ERC1967NonPayable",
					"type": "error"
				},
				{
					"inputs": [],
					"name": "FailedCall",
					"type": "error"
				},
				{
					"inputs": [],
					"name": "InvalidInitialization",
					"type": "error"
				},
				{
					"inputs": [],
					"name": "NotInitializing",
					"type": "error"
				},
				{
					"inputs": [
						{
							"internalType": "address",
							"name": "owner",
							"type": "address"
						}
					],
					"name": "OwnableInvalidOwner",
					"type": "error"
				},
				{
					"inputs": [
						{
							"internalType": "address",
							"name": "account",
							"type": "address"
						}
					],
					"name": "OwnableUnauthorizedAccount",
					"type": "error"
				},
				{
					"inputs": [],
					"name": "UUPSUnauthorizedCallContext",
					"type": "error"
				},
				{
					"inputs": [
						{
							"internalType": "bytes32",
							"name": "slot",
							"type": "bytes32"
						}
					],
					"name": "UUPSUnsupportedProxiableUUID",
					"type": "error"
				},
				{
					"anonymous": false,
					"inputs": [
						{
							"indexed": false,
							"internalType": "address",
							"name": "_user",
							"type": "address"
						},
						{
							"indexed": false,
							"internalType": "bool",
							"name": "_status",
							"type": "bool"
						}
					],
					"name": "BlackListUser",
					"type": "event"
				},
				{
					"anonymous": false,
					"inputs": [
						{
							"indexed": false,
							"internalType": "uint64",
							"name": "version",
							"type": "uint64"
						}
					],
					"name": "Initialized",
					"type": "event"
				},
				{
					"anonymous": false,
					"inputs": [
						{
							"indexed": true,
							"internalType": "address",
							"name": "previousOwner",
							"type": "address"
						},
						{
							"indexed": true,
							"internalType": "address",
							"name": "newOwner",
							"type": "address"
						}
					],
					"name": "OwnershipTransferred",
					"type": "event"
				},
				{
					"anonymous": false,
					"inputs": [
						{
							"indexed": true,
							"internalType": "address",
							"name": "staker",
							"type": "address"
						},
						{
							"indexed": false,
							"internalType": "uint256",
							"name": "xALVAReceived",
							"type": "uint256"
						}
					],
					"name": "Stake",
					"type": "event"
				},
				{
					"anonymous": false,
					"inputs": [
						{
							"indexed": true,
							"internalType": "address",
							"name": "unstaker",
							"type": "address"
						},
						{
							"indexed": false,
							"internalType": "uint256",
							"name": "alvaReceived",
							"type": "uint256"
						}
					],
					"name": "Unstake",
					"type": "event"
				},
				{
					"anonymous": false,
					"inputs": [
						{
							"indexed": false,
							"internalType": "uint256",
							"name": "lockedPeriod",
							"type": "uint256"
						},
						{
							"indexed": false,
							"internalType": "uint256",
							"name": "_lockedPeriod",
							"type": "uint256"
						}
					],
					"name": "UpdateLockPeriod",
					"type": "event"
				},
				{
					"anonymous": false,
					"inputs": [
						{
							"indexed": true,
							"internalType": "address",
							"name": "implementation",
							"type": "address"
						}
					],
					"name": "Upgraded",
					"type": "event"
				},
				{
					"inputs": [],
					"name": "ALVA",
					"outputs": [
						{
							"internalType": "contract IERC20",
							"name": "",
							"type": "address"
						}
					],
					"stateMutability": "view",
					"type": "function"
				},
				{
					"inputs": [],
					"name": "UPGRADE_INTERFACE_VERSION",
					"outputs": [
						{
							"internalType": "string",
							"name": "",
							"type": "string"
						}
					],
					"stateMutability": "view",
					"type": "function"
				},
				{
					"inputs": [
						{
							"internalType": "address",
							"name": "",
							"type": "address"
						}
					],
					"name": "blackListAddress",
					"outputs": [
						{
							"internalType": "bool",
							"name": "",
							"type": "bool"
						}
					],
					"stateMutability": "view",
					"type": "function"
				},
				{
					"inputs": [
						{
							"internalType": "address",
							"name": "_user",
							"type": "address"
						},
						{
							"internalType": "bool",
							"name": "_status",
							"type": "bool"
						}
					],
					"name": "blackListUser",
					"outputs": [],
					"stateMutability": "nonpayable",
					"type": "function"
				},
				{
					"inputs": [
						{
							"internalType": "uint256",
							"name": "_amount",
							"type": "uint256"
						}
					],
					"name": "enter",
					"outputs": [],
					"stateMutability": "nonpayable",
					"type": "function"
				},
				{
					"inputs": [
						{
							"internalType": "address",
							"name": "_alva",
							"type": "address"
						},
						{
							"internalType": "address",
							"name": "_xalva",
							"type": "address"
						},
						{
							"internalType": "uint256",
							"name": "_lockedPeriod",
							"type": "uint256"
						}
					],
					"name": "initialize",
					"outputs": [],
					"stateMutability": "nonpayable",
					"type": "function"
				},
				{
					"inputs": [
						{
							"internalType": "uint256",
							"name": "_share",
							"type": "uint256"
						}
					],
					"name": "leave",
					"outputs": [],
					"stateMutability": "nonpayable",
					"type": "function"
				},
				{
					"inputs": [],
					"name": "lockedPeriod",
					"outputs": [
						{
							"internalType": "uint256",
							"name": "",
							"type": "uint256"
						}
					],
					"stateMutability": "view",
					"type": "function"
				},
				{
					"inputs": [],
					"name": "owner",
					"outputs": [
						{
							"internalType": "address",
							"name": "",
							"type": "address"
						}
					],
					"stateMutability": "view",
					"type": "function"
				},
				{
					"inputs": [],
					"name": "proxiableUUID",
					"outputs": [
						{
							"internalType": "bytes32",
							"name": "",
							"type": "bytes32"
						}
					],
					"stateMutability": "view",
					"type": "function"
				},
				{
					"inputs": [],
					"name": "renounceOwnership",
					"outputs": [],
					"stateMutability": "nonpayable",
					"type": "function"
				},
				{
					"inputs": [
						{
							"internalType": "address",
							"name": "newOwner",
							"type": "address"
						}
					],
					"name": "transferOwnership",
					"outputs": [],
					"stateMutability": "nonpayable",
					"type": "function"
				},
				{
					"inputs": [
						{
							"internalType": "uint256",
							"name": "_lockedPeriod",
							"type": "uint256"
						}
					],
					"name": "updateLockPeriod",
					"outputs": [],
					"stateMutability": "nonpayable",
					"type": "function"
				},
				{
					"inputs": [
						{
							"internalType": "address",
							"name": "newImplementation",
							"type": "address"
						},
						{
							"internalType": "bytes",
							"name": "data",
							"type": "bytes"
						}
					],
					"name": "upgradeToAndCall",
					"outputs": [],
					"stateMutability": "payable",
					"type": "function"
				},
				{
					"inputs": [
						{
							"internalType": "address",
							"name": "",
							"type": "address"
						}
					],
					"name": "userLockPeriod",
					"outputs": [
						{
							"internalType": "uint256",
							"name": "",
							"type": "uint256"
						}
					],
					"stateMutability": "view",
					"type": "function"
				},
				{
					"inputs": [],
					"name": "xALVA",
					"outputs": [
						{
							"internalType": "contract IERC20",
							"name": "",
							"type": "address"
						}
					],
					"stateMutability": "view",
					"type": "function"
				}
			],
			"devdoc": {
				"errors": {
					"AddressEmptyCode(address)": [
						{
							"details": "There's no code at `target` (it is not a contract)."
						}
					],
					"ERC1967InvalidImplementation(address)": [
						{
							"details": "The `implementation` of the proxy is invalid."
						}
					],
					"ERC1967NonPayable()": [
						{
							"details": "An upgrade function sees `msg.value > 0` that may be lost."
						}
					],
					"FailedCall()": [
						{
							"details": "A call to an address target failed. The target may have reverted."
						}
					],
					"InvalidInitialization()": [
						{
							"details": "The contract is already initialized."
						}
					],
					"NotInitializing()": [
						{
							"details": "The contract is not initializing."
						}
					],
					"OwnableInvalidOwner(address)": [
						{
							"details": "The owner is not a valid owner account. (eg. `address(0)`)"
						}
					],
					"OwnableUnauthorizedAccount(address)": [
						{
							"details": "The caller account is not authorized to perform an operation."
						}
					],
					"UUPSUnauthorizedCallContext()": [
						{
							"details": "The call is from an unauthorized context."
						}
					],
					"UUPSUnsupportedProxiableUUID(bytes32)": [
						{
							"details": "The storage `slot` is unsupported as a UUID."
						}
					]
				},
				"events": {
					"Initialized(uint64)": {
						"details": "Triggered when the contract has been initialized or reinitialized."
					},
					"Upgraded(address)": {
						"details": "Emitted when the implementation is upgraded."
					}
				},
				"kind": "dev",
				"methods": {
					"blackListUser(address,bool)": {
						"details": "Used only by admin or owner, used to blacklist any user in any emergency case",
						"params": {
							"_status": "status of user",
							"_user": "address of blacklistef user"
						}
					},
					"constructor": {
						"custom:oz-upgrades-unsafe-allow": "constructor"
					},
					"owner()": {
						"details": "Returns the address of the current owner."
					},
					"proxiableUUID()": {
						"details": "Implementation of the ERC-1822 {proxiableUUID} function. This returns the storage slot used by the implementation. It is used to validate the implementation's compatibility when performing an upgrade. IMPORTANT: A proxy pointing at a proxiable contract should not be considered proxiable itself, because this risks bricking a proxy that upgrades to it, by delegating to itself until out of gas. Thus it is critical that this function revert if invoked through a proxy. This is guaranteed by the `notDelegated` modifier."
					},
					"renounceOwnership()": {
						"details": "Leaves the contract without owner. It will not be possible to call `onlyOwner` functions. Can only be called by the current owner. NOTE: Renouncing ownership will leave the contract without an owner, thereby disabling any functionality that is only available to the owner."
					},
					"transferOwnership(address)": {
						"details": "Transfers ownership of the contract to a new account (`newOwner`). Can only be called by the current owner."
					},
					"upgradeToAndCall(address,bytes)": {
						"custom:oz-upgrades-unsafe-allow-reachable": "delegatecall",
						"details": "Upgrade the implementation of the proxy to `newImplementation`, and subsequently execute the function call encoded in `data`. Calls {_authorizeUpgrade}. Emits an {Upgraded} event."
					}
				},
				"version": 1
			},
			"evm": {
				"assembly": "    /* \"contracts/AlvaraDao.sol\":323:3522  contract AlvaraDao is Initializable, OwnableUpgradeable, UUPSUpgradeable {... */\n  mstore(0x40, 0xa0)\n    /* \"@openzeppelin/contracts-upgradeable/proxy/utils/UUPSUpgradeable.sol\":1171:1175  this */\n  address\n    /* \"@openzeppelin/contracts-upgradeable/proxy/utils/UUPSUpgradeable.sol\":1128:1176  address private immutable __self = address(this) */\n  0x80\n  mstore\n    /* \"contracts/AlvaraDao.sol\":902:955  constructor() {... */\n  callvalue\n  dup1\n  iszero\n  tag_1\n  jumpi\n  revert(0x00, 0x00)\ntag_1:\n  pop\n    /* \"contracts/AlvaraDao.sol\":926:948  _disableInitializers() */\n  tag_4\n    /* \"contracts/AlvaraDao.sol\":926:946  _disableInitializers */\n  tag_5\n    /* \"contracts/AlvaraDao.sol\":926:948  _disableInitializers() */\n  jump\t// in\ntag_4:\n    /* \"contracts/AlvaraDao.sol\":323:3522  contract AlvaraDao is Initializable, OwnableUpgradeable, UUPSUpgradeable {... */\n  jump(tag_18)\n    /* \"@openzeppelin/contracts-upgradeable/proxy/utils/Initializable.sol\":7709:8131  function _disableInitializers() internal virtual {... */\ntag_5:\n    /* \"@openzeppelin/contracts-upgradeable/proxy/utils/Initializable.sol\":3147:3213  0xf0c57e16840df040f15088dc2f81fe391c3923bec73e23a9662efc9c229c6a00 */\n  0xf0c57e16840df040f15088dc2f81fe391c3923bec73e23a9662efc9c229c6a00\n    /* \"@openzeppelin/contracts-upgradeable/proxy/utils/Initializable.sol\":7898:7913  $._initializing */\n  dup1\n  sload\n  0x010000000000000000\n  swap1\n  div\n  0xff\n  and\n    /* \"@openzeppelin/contracts-upgradeable/proxy/utils/Initializable.sol\":7894:7970  if ($._initializing) {... */\n  iszero\n  tag_10\n  jumpi\n    /* \"@openzeppelin/contracts-upgradeable/proxy/utils/Initializable.sol\":7936:7959  InvalidInitialization() */\n  mload(0x40)\n  shl(0xe0, 0xf92ee8a9)\n  dup2\n  mstore\n  0x04\n  add\n  mload(0x40)\n  dup1\n  swap2\n  sub\n  swap1\n  revert\n    /* \"@openzeppelin/contracts-upgradeable/proxy/utils/Initializable.sol\":7894:7970  if ($._initializing) {... */\ntag_10:\n    /* \"@openzeppelin/contracts-upgradeable/proxy/utils/Initializable.sol\":7983:7997  $._initialized */\n  dup1\n  sload\n  sub(shl(0x40, 0x01), 0x01)\n  swap1\n  dup2\n  and\n    /* \"@openzeppelin/contracts-upgradeable/proxy/utils/Initializable.sol\":7983:8017  $._initialized != type(uint64).max */\n  eq\n    /* \"@openzeppelin/contracts-upgradeable/proxy/utils/Initializable.sol\":7979:8125  if ($._initialized != type(uint64).max) {... */\n  tag_11\n  jumpi\n    /* \"@openzeppelin/contracts-upgradeable/proxy/utils/Initializable.sol\":8033:8066  $._initialized = type(uint64).max */\n  dup1\n  sload\n  not(sub(shl(0x40, 0x01), 0x01))\n  and\n  sub(shl(0x40, 0x01), 0x01)\n  swap1\n  dup2\n  or\n  dup3\n  sstore\n    /* \"@openzeppelin/contracts-upgradeable/proxy/utils/Initializable.sol\":8085:8114  Initialized(type(uint64).max) */\n  mload(0x40)\n    /* \"#utility.yul\":158:208   */\n  swap1\n  dup2\n  mstore\n    /* \"@openzeppelin/contracts-upgradeable/proxy/utils/Initializable.sol\":8085:8114  Initialized(type(uint64).max) */\n  0xc7f505b2f371ae2175ee4913f4499e1f2633a7b5936321eed1cdaeb6115181d2\n  swap1\n    /* \"#utility.yul\":146:148   */\n  0x20\n    /* \"#utility.yul\":131:149   */\n  add\n    /* \"@openzeppelin/contracts-upgradeable/proxy/utils/Initializable.sol\":8085:8114  Initialized(type(uint64).max) */\n  mload(0x40)\n  dup1\n  swap2\n  sub\n  swap1\n  log1\n    /* \"@openzeppelin/contracts-upgradeable/proxy/utils/Initializable.sol\":7979:8125  if ($._initialized != type(uint64).max) {... */\ntag_11:\n    /* \"@openzeppelin/contracts-upgradeable/proxy/utils/Initializable.sol\":7758:8131  {... */\n  pop\n    /* \"@openzeppelin/contracts-upgradeable/proxy/utils/Initializable.sol\":7709:8131  function _disableInitializers() internal virtual {... */\n  jump\t// out\n    /* \"#utility.yul\":14:214   */\ntag_18:\n    /* \"contracts/AlvaraDao.sol\":323:3522  contract AlvaraDao is Initializable, OwnableUpgradeable, UUPSUpgradeable {... */\n  mload(0x80)\n  codecopy(0x00, dataOffset(sub_0), dataSize(sub_0))\n  0x00\n  assignImmutable(\"0x4ce4dab4689da140a0c12de1a6af6b8f679594aeb723205f513e052d27f5b26f\")\n  return(0x00, dataSize(sub_0))\nstop\n\nsub_0: assembly {\n        /* \"contracts/AlvaraDao.sol\":323:3522  contract AlvaraDao is Initializable, OwnableUpgradeable, UUPSUpgradeable {... */\n      mstore(0x40, 0x80)\n      jumpi(tag_1, lt(calldatasize, 0x04))\n      shr(0xe0, calldataload(0x00))\n      dup1\n      0x715018a6\n      gt\n      tag_18\n      jumpi\n      dup1\n      0xad3cb1cc\n      gt\n      tag_19\n      jumpi\n      dup1\n      0xad3cb1cc\n      eq\n      tag_14\n      jumpi\n      dup1\n      0xb3d6e119\n      eq\n      tag_15\n      jumpi\n      dup1\n      0xe0cef1b0\n      eq\n      tag_16\n      jumpi\n      dup1\n      0xf2fde38b\n      eq\n      tag_17\n      jumpi\n      revert(0x00, 0x00)\n    tag_19:\n      dup1\n      0x715018a6\n      eq\n      tag_10\n      jumpi\n      dup1\n      0x8da5cb5b\n      eq\n      tag_11\n      jumpi\n      dup1\n      0x91db7b0d\n      eq\n      tag_12\n      jumpi\n      dup1\n      0xa59f3e0c\n      eq\n      tag_13\n      jumpi\n      revert(0x00, 0x00)\n    tag_18:\n      dup1\n      0x4f1ef286\n      gt\n      tag_20\n      jumpi\n      dup1\n      0x4f1ef286\n      eq\n      tag_6\n      jumpi\n      dup1\n      0x52d1902d\n      eq\n      tag_7\n      jumpi\n      dup1\n      0x67dfd4c9\n      eq\n      tag_8\n      jumpi\n      dup1\n      0x6ac10901\n      eq\n      tag_9\n      jumpi\n      revert(0x00, 0x00)\n    tag_20:\n      dup1\n      0x0c8e32d2\n      eq\n      tag_2\n      jumpi\n      dup1\n      0x1794bb3c\n      eq\n      tag_3\n      jumpi\n      dup1\n      0x323bf9f0\n      eq\n      tag_4\n      jumpi\n      dup1\n      0x3b0e0133\n      eq\n      tag_5\n      jumpi\n    tag_1:\n      revert(0x00, 0x00)\n        /* \"contracts/AlvaraDao.sol\":452:501  mapping(address => uint256) public userLockPeriod */\n    tag_2:\n      callvalue\n      dup1\n      iszero\n      tag_21\n      jumpi\n      revert(0x00, 0x00)\n    tag_21:\n      pop\n      tag_22\n      tag_23\n      calldatasize\n      0x04\n      tag_24\n      jump\t// in\n    tag_23:\n      mstore(0x20, 0x02)\n      0x00\n      swap1\n      dup2\n      mstore\n      0x40\n      swap1\n      keccak256\n      sload\n      dup2\n      jump\n    tag_22:\n      mload(0x40)\n        /* \"#utility.yul\":529:554   */\n      swap1\n      dup2\n      mstore\n        /* \"#utility.yul\":517:519   */\n      0x20\n        /* \"#utility.yul\":502:520   */\n      add\n        /* \"contracts/AlvaraDao.sol\":452:501  mapping(address => uint256) public userLockPeriod */\n    tag_26:\n      mload(0x40)\n      dup1\n      swap2\n      sub\n      swap1\n      return\n        /* \"contracts/AlvaraDao.sol\":961:1389  function initialize(... */\n    tag_3:\n      callvalue\n      dup1\n      iszero\n      tag_28\n      jumpi\n      revert(0x00, 0x00)\n    tag_28:\n      pop\n      tag_29\n      tag_30\n      calldatasize\n      0x04\n      tag_31\n      jump\t// in\n    tag_30:\n      tag_32\n      jump\t// in\n    tag_29:\n      stop\n        /* \"contracts/AlvaraDao.sol\":402:420  IERC20 public ALVA */\n    tag_4:\n      callvalue\n      dup1\n      iszero\n      tag_33\n      jumpi\n      revert(0x00, 0x00)\n    tag_33:\n      pop\n      sload(0x00)\n      tag_34\n      swap1\n      sub(shl(0xa0, 0x01), 0x01)\n      and\n      dup2\n      jump\n    tag_34:\n      mload(0x40)\n      sub(shl(0xa0, 0x01), 0x01)\n        /* \"#utility.yul\":1123:1155   */\n      swap1\n      swap2\n      and\n        /* \"#utility.yul\":1105:1156   */\n      dup2\n      mstore\n        /* \"#utility.yul\":1093:1095   */\n      0x20\n        /* \"#utility.yul\":1078:1096   */\n      add\n        /* \"contracts/AlvaraDao.sol\":402:420  IERC20 public ALVA */\n      tag_26\n        /* \"#utility.yul\":944:1162   */\n      jump\n        /* \"contracts/AlvaraDao.sol\":507:555  mapping(address => bool) public blackListAddress */\n    tag_5:\n      callvalue\n      dup1\n      iszero\n      tag_38\n      jumpi\n      revert(0x00, 0x00)\n    tag_38:\n      pop\n      tag_39\n      tag_40\n      calldatasize\n      0x04\n      tag_24\n      jump\t// in\n    tag_40:\n      mstore(0x20, 0x03)\n      0x00\n      swap1\n      dup2\n      mstore\n      0x40\n      swap1\n      keccak256\n      sload\n      0xff\n      and\n      dup2\n      jump\n    tag_39:\n      mload(0x40)\n        /* \"#utility.yul\":1332:1346   */\n      swap1\n      iszero\n        /* \"#utility.yul\":1325:1347   */\n      iszero\n        /* \"#utility.yul\":1307:1348   */\n      dup2\n      mstore\n        /* \"#utility.yul\":1295:1297   */\n      0x20\n        /* \"#utility.yul\":1280:1298   */\n      add\n        /* \"contracts/AlvaraDao.sol\":507:555  mapping(address => bool) public blackListAddress */\n      tag_26\n        /* \"#utility.yul\":1167:1354   */\n      jump\n        /* \"@openzeppelin/contracts-upgradeable/proxy/utils/UUPSUpgradeable.sol\":4161:4375  function upgradeToAndCall(address newImplementation, bytes memory data) public payable virtual onlyProxy {... */\n    tag_6:\n      tag_29\n      tag_45\n      calldatasize\n      0x04\n      tag_46\n      jump\t// in\n    tag_45:\n      tag_47\n      jump\t// in\n        /* \"@openzeppelin/contracts-upgradeable/proxy/utils/UUPSUpgradeable.sol\":3708:3842  function proxiableUUID() external view virtual notDelegated returns (bytes32) {... */\n    tag_7:\n      callvalue\n      dup1\n      iszero\n      tag_48\n      jumpi\n      revert(0x00, 0x00)\n    tag_48:\n      pop\n      tag_22\n      tag_50\n      jump\t// in\n        /* \"contracts/AlvaraDao.sol\":2201:2747  function leave(uint256 _share) public {... */\n    tag_8:\n      callvalue\n      dup1\n      iszero\n      tag_53\n      jumpi\n      revert(0x00, 0x00)\n    tag_53:\n      pop\n      tag_29\n      tag_55\n      calldatasize\n      0x04\n      tag_56\n      jump\t// in\n    tag_55:\n      tag_57\n      jump\t// in\n        /* \"contracts/AlvaraDao.sol\":426:445  IERC20 public xALVA */\n    tag_9:\n      callvalue\n      dup1\n      iszero\n      tag_58\n      jumpi\n      revert(0x00, 0x00)\n    tag_58:\n      pop\n      sload(0x01)\n      tag_34\n      swap1\n      sub(shl(0xa0, 0x01), 0x01)\n      and\n      dup2\n      jump\n        /* \"@openzeppelin/contracts-upgradeable/access/OwnableUpgradeable.sol\":3155:3256  function renounceOwnership() public virtual onlyOwner {... */\n    tag_10:\n      callvalue\n      dup1\n      iszero\n      tag_62\n      jumpi\n      revert(0x00, 0x00)\n    tag_62:\n      pop\n      tag_29\n      tag_64\n      jump\t// in\n        /* \"@openzeppelin/contracts-upgradeable/access/OwnableUpgradeable.sol\":2441:2585  function owner() public view virtual returns (address) {... */\n    tag_11:\n      callvalue\n      dup1\n      iszero\n      tag_65\n      jumpi\n      revert(0x00, 0x00)\n    tag_65:\n      pop\n        /* \"@openzeppelin/contracts-upgradeable/access/OwnableUpgradeable.sol\":1313:1335  OwnableStorageLocation */\n      0x9016d09d72d40fdae2fd8ceac6b6234c7706214fd39c1cd1e609a0528c199300\n        /* \"@openzeppelin/contracts-upgradeable/access/OwnableUpgradeable.sol\":2570:2578  $._owner */\n      sload\n      sub(shl(0xa0, 0x01), 0x01)\n      and\n        /* \"@openzeppelin/contracts-upgradeable/access/OwnableUpgradeable.sol\":2441:2585  function owner() public view virtual returns (address) {... */\n      jump(tag_34)\n        /* \"contracts/AlvaraDao.sol\":3228:3402  function updateLockPeriod(uint256 _lockedPeriod) external onlyOwner {... */\n    tag_12:\n      callvalue\n      dup1\n      iszero\n      tag_70\n      jumpi\n      revert(0x00, 0x00)\n    tag_70:\n      pop\n      tag_29\n      tag_72\n      calldatasize\n      0x04\n      tag_56\n      jump\t// in\n    tag_72:\n      tag_73\n      jump\t// in\n        /* \"contracts/AlvaraDao.sol\":1455:2146  function enter(uint256 _amount) public {... */\n    tag_13:\n      callvalue\n      dup1\n      iszero\n      tag_74\n      jumpi\n      revert(0x00, 0x00)\n    tag_74:\n      pop\n      tag_29\n      tag_76\n      calldatasize\n      0x04\n      tag_56\n      jump\t// in\n    tag_76:\n      tag_77\n      jump\t// in\n        /* \"@openzeppelin/contracts-upgradeable/proxy/utils/UUPSUpgradeable.sol\":1819:1877  string public constant UPGRADE_INTERFACE_VERSION = \"5.0.0\" */\n    tag_14:\n      callvalue\n      dup1\n      iszero\n      tag_78\n      jumpi\n      revert(0x00, 0x00)\n    tag_78:\n      pop\n      tag_79\n      mload(0x40)\n      dup1\n      0x40\n      add\n      0x40\n      mstore\n      dup1\n      0x05\n      dup2\n      mstore\n      0x20\n      add\n      shl(0xdc, 0x0352e302e3)\n      dup2\n      mstore\n      pop\n      dup2\n      jump\n    tag_79:\n      mload(0x40)\n      tag_26\n      swap2\n      swap1\n      tag_82\n      jump\t// in\n        /* \"contracts/AlvaraDao.sol\":562:589  uint256 public lockedPeriod */\n    tag_15:\n      callvalue\n      dup1\n      iszero\n      tag_83\n      jumpi\n      revert(0x00, 0x00)\n    tag_83:\n      pop\n      tag_22\n      sload(0x04)\n      dup2\n      jump\n        /* \"contracts/AlvaraDao.sol\":2951:3196  function blackListUser(address _user, bool _status) external onlyOwner {... */\n    tag_16:\n      callvalue\n      dup1\n      iszero\n      tag_87\n      jumpi\n      revert(0x00, 0x00)\n    tag_87:\n      pop\n      tag_29\n      tag_89\n      calldatasize\n      0x04\n      tag_90\n      jump\t// in\n    tag_89:\n      tag_91\n      jump\t// in\n        /* \"@openzeppelin/contracts-upgradeable/access/OwnableUpgradeable.sol\":3405:3620  function transferOwnership(address newOwner) public virtual onlyOwner {... */\n    tag_17:\n      callvalue\n      dup1\n      iszero\n      tag_92\n      jumpi\n      revert(0x00, 0x00)\n    tag_92:\n      pop\n      tag_29\n      tag_94\n      calldatasize\n      0x04\n      tag_24\n      jump\t// in\n    tag_94:\n      tag_95\n      jump\t// in\n        /* \"contracts/AlvaraDao.sol\":961:1389  function initialize(... */\n    tag_32:\n        /* \"@openzeppelin/contracts-upgradeable/proxy/utils/Initializable.sol\":4158:4188  InitializableStorage storage $ */\n      0x00\n        /* \"@openzeppelin/contracts-upgradeable/proxy/utils/Initializable.sol\":4191:4217  _getInitializableStorage() */\n      tag_97\n        /* \"@openzeppelin/contracts-upgradeable/proxy/utils/Initializable.sol\":4191:4215  _getInitializableStorage */\n      tag_98\n        /* \"@openzeppelin/contracts-upgradeable/proxy/utils/Initializable.sol\":4191:4217  _getInitializableStorage() */\n      jump\t// in\n    tag_97:\n        /* \"@openzeppelin/contracts-upgradeable/proxy/utils/Initializable.sol\":4302:4317  $._initializing */\n      dup1\n      sload\n        /* \"@openzeppelin/contracts-upgradeable/proxy/utils/Initializable.sol\":4158:4217  InitializableStorage storage $ = _getInitializableStorage() */\n      swap1\n      swap2\n      pop\n        /* \"@openzeppelin/contracts-upgradeable/proxy/utils/Initializable.sol\":4302:4317  $._initializing */\n      0xff\n      shl(0x40, 0x01)\n      dup3\n      div\n      and\n        /* \"@openzeppelin/contracts-upgradeable/proxy/utils/Initializable.sol\":4301:4317  !$._initializing */\n      iszero\n      swap1\n        /* \"@openzeppelin/contracts-upgradeable/proxy/utils/Initializable.sol\":4348:4362  $._initialized */\n      0xffffffffffffffff\n      and\n        /* \"@openzeppelin/contracts-upgradeable/proxy/utils/Initializable.sol\":4279:4298  bool isTopLevelCall */\n      0x00\n        /* \"@openzeppelin/contracts-upgradeable/proxy/utils/Initializable.sol\":4724:4740  initialized == 0 */\n      dup2\n      iszero\n        /* \"@openzeppelin/contracts-upgradeable/proxy/utils/Initializable.sol\":4724:4758  initialized == 0 && isTopLevelCall */\n      dup1\n      iszero\n      tag_99\n      jumpi\n      pop\n        /* \"@openzeppelin/contracts-upgradeable/proxy/utils/Initializable.sol\":4744:4758  isTopLevelCall */\n      dup3\n        /* \"@openzeppelin/contracts-upgradeable/proxy/utils/Initializable.sol\":4724:4758  initialized == 0 && isTopLevelCall */\n    tag_99:\n        /* \"@openzeppelin/contracts-upgradeable/proxy/utils/Initializable.sol\":4704:4758  bool initialSetup = initialized == 0 && isTopLevelCall */\n      swap1\n      pop\n        /* \"@openzeppelin/contracts-upgradeable/proxy/utils/Initializable.sol\":4768:4785  bool construction */\n      0x00\n        /* \"@openzeppelin/contracts-upgradeable/proxy/utils/Initializable.sol\":4788:4799  initialized */\n      dup3\n        /* \"@openzeppelin/contracts-upgradeable/proxy/utils/Initializable.sol\":4788:4804  initialized == 1 */\n      0xffffffffffffffff\n      and\n        /* \"@openzeppelin/contracts-upgradeable/proxy/utils/Initializable.sol\":4803:4804  1 */\n      0x01\n        /* \"@openzeppelin/contracts-upgradeable/proxy/utils/Initializable.sol\":4788:4804  initialized == 1 */\n      eq\n        /* \"@openzeppelin/contracts-upgradeable/proxy/utils/Initializable.sol\":4788:4838  initialized == 1 && address(this).code.length == 0 */\n      dup1\n      iszero\n      tag_100\n      jumpi\n      pop\n        /* \"@openzeppelin/contracts-upgradeable/proxy/utils/Initializable.sol\":4816:4820  this */\n      address\n        /* \"@openzeppelin/contracts-upgradeable/proxy/utils/Initializable.sol\":4808:4833  address(this).code.length */\n      extcodesize\n        /* \"@openzeppelin/contracts-upgradeable/proxy/utils/Initializable.sol\":4808:4838  address(this).code.length == 0 */\n      iszero\n        /* \"@openzeppelin/contracts-upgradeable/proxy/utils/Initializable.sol\":4788:4838  initialized == 1 && address(this).code.length == 0 */\n    tag_100:\n        /* \"@openzeppelin/contracts-upgradeable/proxy/utils/Initializable.sol\":4768:4838  bool construction = initialized == 1 && address(this).code.length == 0 */\n      swap1\n      pop\n        /* \"@openzeppelin/contracts-upgradeable/proxy/utils/Initializable.sol\":4854:4866  initialSetup */\n      dup2\n        /* \"@openzeppelin/contracts-upgradeable/proxy/utils/Initializable.sol\":4853:4866  !initialSetup */\n      iszero\n        /* \"@openzeppelin/contracts-upgradeable/proxy/utils/Initializable.sol\":4853:4883  !initialSetup && !construction */\n      dup1\n      iszero\n      tag_101\n      jumpi\n      pop\n        /* \"@openzeppelin/contracts-upgradeable/proxy/utils/Initializable.sol\":4871:4883  construction */\n      dup1\n        /* \"@openzeppelin/contracts-upgradeable/proxy/utils/Initializable.sol\":4870:4883  !construction */\n      iszero\n        /* \"@openzeppelin/contracts-upgradeable/proxy/utils/Initializable.sol\":4853:4883  !initialSetup && !construction */\n    tag_101:\n        /* \"@openzeppelin/contracts-upgradeable/proxy/utils/Initializable.sol\":4849:4940  if (!initialSetup && !construction) {... */\n      iszero\n      tag_102\n      jumpi\n        /* \"@openzeppelin/contracts-upgradeable/proxy/utils/Initializable.sol\":4906:4929  InvalidInitialization() */\n      mload(0x40)\n      shl(0xe0, 0xf92ee8a9)\n      dup2\n      mstore\n      0x04\n      add\n      mload(0x40)\n      dup1\n      swap2\n      sub\n      swap1\n      revert\n        /* \"@openzeppelin/contracts-upgradeable/proxy/utils/Initializable.sol\":4849:4940  if (!initialSetup && !construction) {... */\n    tag_102:\n        /* \"@openzeppelin/contracts-upgradeable/proxy/utils/Initializable.sol\":4949:4967  $._initialized = 1 */\n      dup5\n      sload\n      not(0xffffffffffffffff)\n      and\n        /* \"@openzeppelin/contracts-upgradeable/proxy/utils/Initializable.sol\":4966:4967  1 */\n      0x01\n        /* \"@openzeppelin/contracts-upgradeable/proxy/utils/Initializable.sol\":4949:4967  $._initialized = 1 */\n      or\n      dup6\n      sstore\n        /* \"@openzeppelin/contracts-upgradeable/proxy/utils/Initializable.sol\":4977:5044  if (isTopLevelCall) {... */\n      dup4\n      iszero\n      tag_103\n      jumpi\n        /* \"@openzeppelin/contracts-upgradeable/proxy/utils/Initializable.sol\":5011:5033  $._initializing = true */\n      dup5\n      sload\n      not(shl(0x40, 0xff))\n      and\n      shl(0x40, 0x01)\n      or\n      dup6\n      sstore\n        /* \"@openzeppelin/contracts-upgradeable/proxy/utils/Initializable.sol\":4977:5044  if (isTopLevelCall) {... */\n    tag_103:\n        /* \"contracts/AlvaraDao.sol\":1094:1120  __Ownable_init(msg.sender) */\n      tag_105\n        /* \"contracts/AlvaraDao.sol\":1109:1119  msg.sender */\n      caller\n        /* \"contracts/AlvaraDao.sol\":1094:1108  __Ownable_init */\n      tag_106\n        /* \"contracts/AlvaraDao.sol\":1094:1120  __Ownable_init(msg.sender) */\n      jump\t// in\n    tag_105:\n        /* \"contracts/AlvaraDao.sol\":1130:1154  __UUPSUpgradeable_init() */\n      tag_107\n        /* \"contracts/AlvaraDao.sol\":1130:1152  __UUPSUpgradeable_init */\n      tag_108\n        /* \"contracts/AlvaraDao.sol\":1130:1154  __UUPSUpgradeable_init() */\n      jump\t// in\n    tag_107:\n      sub(shl(0xa0, 0x01), 0x01)\n        /* \"contracts/AlvaraDao.sol\":1173:1192  _alva != address(0) */\n      dup9\n      and\n        /* \"contracts/AlvaraDao.sol\":1165:1217  require(_alva != address(0), \"Invalid alva address\") */\n      tag_109\n      jumpi\n      mload(0x40)\n      shl(0xe5, 0x461bcd)\n      dup2\n      mstore\n        /* \"#utility.yul\":4203:4205   */\n      0x20\n        /* \"contracts/AlvaraDao.sol\":1165:1217  require(_alva != address(0), \"Invalid alva address\") */\n      0x04\n      dup3\n      add\n        /* \"#utility.yul\":4185:4206   */\n      mstore\n        /* \"#utility.yul\":4242:4244   */\n      0x14\n        /* \"#utility.yul\":4222:4240   */\n      0x24\n      dup3\n      add\n        /* \"#utility.yul\":4215:4245   */\n      mstore\n      shl(0x60, 0x496e76616c696420616c76612061646472657373)\n        /* \"#utility.yul\":4261:4279   */\n      0x44\n      dup3\n      add\n        /* \"#utility.yul\":4254:4304   */\n      mstore\n        /* \"#utility.yul\":4321:4339   */\n      0x64\n      add\n        /* \"contracts/AlvaraDao.sol\":1165:1217  require(_alva != address(0), \"Invalid alva address\") */\n    tag_110:\n      mload(0x40)\n      dup1\n      swap2\n      sub\n      swap1\n      revert\n    tag_109:\n      sub(shl(0xa0, 0x01), 0x01)\n        /* \"contracts/AlvaraDao.sol\":1235:1255  _xalva != address(0) */\n      dup8\n      and\n        /* \"contracts/AlvaraDao.sol\":1227:1281  require(_xalva != address(0), \"Invalid xALVA address\") */\n      tag_112\n      jumpi\n      mload(0x40)\n      shl(0xe5, 0x461bcd)\n      dup2\n      mstore\n        /* \"#utility.yul\":4552:4554   */\n      0x20\n        /* \"contracts/AlvaraDao.sol\":1227:1281  require(_xalva != address(0), \"Invalid xALVA address\") */\n      0x04\n      dup3\n      add\n        /* \"#utility.yul\":4534:4555   */\n      mstore\n        /* \"#utility.yul\":4591:4593   */\n      0x15\n        /* \"#utility.yul\":4571:4589   */\n      0x24\n      dup3\n      add\n        /* \"#utility.yul\":4564:4594   */\n      mstore\n      shl(0x58, 0x496e76616c69642078414c56412061646472657373)\n        /* \"#utility.yul\":4610:4628   */\n      0x44\n      dup3\n      add\n        /* \"#utility.yul\":4603:4654   */\n      mstore\n        /* \"#utility.yul\":4671:4689   */\n      0x64\n      add\n        /* \"contracts/AlvaraDao.sol\":1227:1281  require(_xalva != address(0), \"Invalid xALVA address\") */\n      tag_110\n        /* \"#utility.yul\":4350:4695   */\n      jump\n        /* \"contracts/AlvaraDao.sol\":1227:1281  require(_xalva != address(0), \"Invalid xALVA address\") */\n    tag_112:\n        /* \"contracts/AlvaraDao.sol\":1292:1296  ALVA */\n      0x00\n        /* \"contracts/AlvaraDao.sol\":1292:1312  ALVA = IERC20(_alva) */\n      dup1\n      sload\n      sub(shl(0xa0, 0x01), 0x01)\n      dup1\n      dup12\n      and\n      not(sub(shl(0xa0, 0x01), 0x01))\n      swap3\n      dup4\n      and\n      or\n      swap1\n      swap3\n      sstore\n      0x01\n        /* \"contracts/AlvaraDao.sol\":1322:1344  xALVA = IERC20(_xalva) */\n      dup1\n      sload\n      swap3\n      dup11\n      and\n      swap3\n      swap1\n      swap2\n      and\n      swap2\n      swap1\n      swap2\n      or\n      swap1\n      sstore\n        /* \"contracts/AlvaraDao.sol\":1354:1366  lockedPeriod */\n      0x04\n        /* \"contracts/AlvaraDao.sol\":1354:1382  lockedPeriod = _lockedPeriod */\n      dup7\n      swap1\n      sstore\n        /* \"@openzeppelin/contracts-upgradeable/proxy/utils/Initializable.sol\":5064:5165  if (isTopLevelCall) {... */\n      dup4\n      iszero\n      tag_115\n      jumpi\n        /* \"@openzeppelin/contracts-upgradeable/proxy/utils/Initializable.sol\":5098:5121  $._initializing = false */\n      dup5\n      sload\n      not(shl(0x40, 0xff))\n      and\n      dup6\n      sstore\n        /* \"@openzeppelin/contracts-upgradeable/proxy/utils/Initializable.sol\":5140:5154  Initialized(1) */\n      mload(0x40)\n      0x01\n        /* \"#utility.yul\":4853:4903   */\n      dup2\n      mstore\n        /* \"@openzeppelin/contracts-upgradeable/proxy/utils/Initializable.sol\":5140:5154  Initialized(1) */\n      0xc7f505b2f371ae2175ee4913f4499e1f2633a7b5936321eed1cdaeb6115181d2\n      swap1\n        /* \"#utility.yul\":4841:4843   */\n      0x20\n        /* \"#utility.yul\":4826:4844   */\n      add\n        /* \"@openzeppelin/contracts-upgradeable/proxy/utils/Initializable.sol\":5140:5154  Initialized(1) */\n      mload(0x40)\n      dup1\n      swap2\n      sub\n      swap1\n      log1\n        /* \"@openzeppelin/contracts-upgradeable/proxy/utils/Initializable.sol\":5064:5165  if (isTopLevelCall) {... */\n    tag_115:\n        /* \"@openzeppelin/contracts-upgradeable/proxy/utils/Initializable.sol\":4092:5171  {... */\n      pop\n      pop\n      pop\n      pop\n      pop\n        /* \"contracts/AlvaraDao.sol\":961:1389  function initialize(... */\n      pop\n      pop\n      pop\n      jump\t// out\n        /* \"@openzeppelin/contracts-upgradeable/proxy/utils/UUPSUpgradeable.sol\":4161:4375  function upgradeToAndCall(address newImplementation, bytes memory data) public payable virtual onlyProxy {... */\n    tag_47:\n        /* \"@openzeppelin/contracts-upgradeable/proxy/utils/UUPSUpgradeable.sol\":2655:2668  _checkProxy() */\n      tag_119\n        /* \"@openzeppelin/contracts-upgradeable/proxy/utils/UUPSUpgradeable.sol\":2655:2666  _checkProxy */\n      tag_120\n        /* \"@openzeppelin/contracts-upgradeable/proxy/utils/UUPSUpgradeable.sol\":2655:2668  _checkProxy() */\n      jump\t// in\n    tag_119:\n        /* \"@openzeppelin/contracts-upgradeable/proxy/utils/UUPSUpgradeable.sol\":4276:4312  _authorizeUpgrade(newImplementation) */\n      tag_122\n        /* \"@openzeppelin/contracts-upgradeable/proxy/utils/UUPSUpgradeable.sol\":4294:4311  newImplementation */\n      dup3\n        /* \"@openzeppelin/contracts-upgradeable/proxy/utils/UUPSUpgradeable.sol\":4276:4293  _authorizeUpgrade */\n      tag_123\n        /* \"@openzeppelin/contracts-upgradeable/proxy/utils/UUPSUpgradeable.sol\":4276:4312  _authorizeUpgrade(newImplementation) */\n      jump\t// in\n    tag_122:\n        /* \"@openzeppelin/contracts-upgradeable/proxy/utils/UUPSUpgradeable.sol\":4322:4368  _upgradeToAndCallUUPS(newImplementation, data) */\n      tag_124\n        /* \"@openzeppelin/contracts-upgradeable/proxy/utils/UUPSUpgradeable.sol\":4344:4361  newImplementation */\n      dup3\n        /* \"@openzeppelin/contracts-upgradeable/proxy/utils/UUPSUpgradeable.sol\":4363:4367  data */\n      dup3\n        /* \"@openzeppelin/contracts-upgradeable/proxy/utils/UUPSUpgradeable.sol\":4322:4343  _upgradeToAndCallUUPS */\n      tag_125\n        /* \"@openzeppelin/contracts-upgradeable/proxy/utils/UUPSUpgradeable.sol\":4322:4368  _upgradeToAndCallUUPS(newImplementation, data) */\n      jump\t// in\n    tag_124:\n        /* \"@openzeppelin/contracts-upgradeable/proxy/utils/UUPSUpgradeable.sol\":4161:4375  function upgradeToAndCall(address newImplementation, bytes memory data) public payable virtual onlyProxy {... */\n      pop\n      pop\n      jump\t// out\n        /* \"@openzeppelin/contracts-upgradeable/proxy/utils/UUPSUpgradeable.sol\":3708:3842  function proxiableUUID() external view virtual notDelegated returns (bytes32) {... */\n    tag_50:\n        /* \"@openzeppelin/contracts-upgradeable/proxy/utils/UUPSUpgradeable.sol\":3777:3784  bytes32 */\n      0x00\n        /* \"@openzeppelin/contracts-upgradeable/proxy/utils/UUPSUpgradeable.sol\":2926:2946  _checkNotDelegated() */\n      tag_127\n        /* \"@openzeppelin/contracts-upgradeable/proxy/utils/UUPSUpgradeable.sol\":2926:2944  _checkNotDelegated */\n      tag_128\n        /* \"@openzeppelin/contracts-upgradeable/proxy/utils/UUPSUpgradeable.sol\":2926:2946  _checkNotDelegated() */\n      jump\t// in\n    tag_127:\n      pop\n      mload(0x00)\n      codecopy(0x00, data_75b20eef8615de99c108b05f0dbda081c91897128caa336d75dffb97c4132b4d, 0x20)\n      mload(0x00)\n      swap1\n      0x00\n      mstore\n        /* \"@openzeppelin/contracts-upgradeable/proxy/utils/UUPSUpgradeable.sol\":3708:3842  function proxiableUUID() external view virtual notDelegated returns (bytes32) {... */\n      swap1\n      jump\t// out\n        /* \"contracts/AlvaraDao.sol\":2201:2747  function leave(uint256 _share) public {... */\n    tag_57:\n        /* \"contracts/AlvaraDao.sol\":2274:2284  msg.sender */\n      caller\n        /* \"contracts/AlvaraDao.sol\":2257:2285  blackListAddress[msg.sender] */\n      0x00\n      swap1\n      dup2\n      mstore\n        /* \"contracts/AlvaraDao.sol\":2257:2273  blackListAddress */\n      0x03\n        /* \"contracts/AlvaraDao.sol\":2257:2285  blackListAddress[msg.sender] */\n      0x20\n      mstore\n      0x40\n      swap1\n      keccak256\n      sload\n      0xff\n      and\n        /* \"contracts/AlvaraDao.sol\":2257:2293  blackListAddress[msg.sender] != true */\n      iszero\n      iszero\n        /* \"contracts/AlvaraDao.sol\":2257:2285  blackListAddress[msg.sender] */\n      0x01\n        /* \"contracts/AlvaraDao.sol\":2257:2293  blackListAddress[msg.sender] != true */\n      sub\n        /* \"contracts/AlvaraDao.sol\":2249:2314  require(blackListAddress[msg.sender] != true, \"BlackListed User\") */\n      tag_131\n      jumpi\n      mload(0x40)\n      shl(0xe5, 0x461bcd)\n      dup2\n      mstore\n        /* \"#utility.yul\":5116:5118   */\n      0x20\n        /* \"contracts/AlvaraDao.sol\":2249:2314  require(blackListAddress[msg.sender] != true, \"BlackListed User\") */\n      0x04\n      dup3\n      add\n        /* \"#utility.yul\":5098:5119   */\n      mstore\n        /* \"#utility.yul\":5155:5157   */\n      0x10\n        /* \"#utility.yul\":5135:5153   */\n      0x24\n      dup3\n      add\n        /* \"#utility.yul\":5128:5158   */\n      mstore\n      shl(0x81, 0x213630b1b5a634b9ba32b2102ab9b2b9)\n        /* \"#utility.yul\":5174:5192   */\n      0x44\n      dup3\n      add\n        /* \"#utility.yul\":5167:5213   */\n      mstore\n        /* \"#utility.yul\":5230:5248   */\n      0x64\n      add\n        /* \"contracts/AlvaraDao.sol\":2249:2314  require(blackListAddress[msg.sender] != true, \"BlackListed User\") */\n      tag_110\n        /* \"#utility.yul\":4914:5254   */\n      jump\n        /* \"contracts/AlvaraDao.sol\":2249:2314  require(blackListAddress[msg.sender] != true, \"BlackListed User\") */\n    tag_131:\n        /* \"contracts/AlvaraDao.sol\":2394:2406  lockedPeriod */\n      sload(0x04)\n        /* \"contracts/AlvaraDao.sol\":2380:2390  msg.sender */\n      caller\n        /* \"contracts/AlvaraDao.sol\":2365:2391  userLockPeriod[msg.sender] */\n      0x00\n      swap1\n      dup2\n      mstore\n        /* \"contracts/AlvaraDao.sol\":2365:2379  userLockPeriod */\n      0x02\n        /* \"contracts/AlvaraDao.sol\":2365:2391  userLockPeriod[msg.sender] */\n      0x20\n      mstore\n      0x40\n      swap1\n      keccak256\n      sload\n        /* \"contracts/AlvaraDao.sol\":2365:2406  userLockPeriod[msg.sender] + lockedPeriod */\n      tag_134\n      swap2\n        /* \"contracts/AlvaraDao.sol\":2394:2406  lockedPeriod */\n      swap1\n        /* \"contracts/AlvaraDao.sol\":2365:2406  userLockPeriod[msg.sender] + lockedPeriod */\n      tag_135\n      jump\t// in\n    tag_134:\n        /* \"contracts/AlvaraDao.sol\":2345:2360  block.timestamp */\n      timestamp\n        /* \"contracts/AlvaraDao.sol\":2345:2407  block.timestamp >= (userLockPeriod[msg.sender] + lockedPeriod) */\n      lt\n      iszero\n        /* \"contracts/AlvaraDao.sol\":2324:2448  require(... */\n      tag_136\n      jumpi\n      mload(0x40)\n      shl(0xe5, 0x461bcd)\n      dup2\n      mstore\n        /* \"#utility.yul\":5723:5725   */\n      0x20\n        /* \"contracts/AlvaraDao.sol\":2324:2448  require(... */\n      0x04\n      dup3\n      add\n        /* \"#utility.yul\":5705:5726   */\n      mstore\n        /* \"#utility.yul\":5762:5764   */\n      0x0f\n        /* \"#utility.yul\":5742:5760   */\n      0x24\n      dup3\n      add\n        /* \"#utility.yul\":5735:5765   */\n      mstore\n      shl(0x88, 0x43616e206e6f7420756e5374616b65)\n        /* \"#utility.yul\":5781:5799   */\n      0x44\n      dup3\n      add\n        /* \"#utility.yul\":5774:5819   */\n      mstore\n        /* \"#utility.yul\":5836:5854   */\n      0x64\n      add\n        /* \"contracts/AlvaraDao.sol\":2324:2448  require(... */\n      tag_110\n        /* \"#utility.yul\":5521:5860   */\n      jump\n        /* \"contracts/AlvaraDao.sol\":2324:2448  require(... */\n    tag_136:\n        /* \"contracts/AlvaraDao.sol\":2480:2485  xALVA */\n      sload(0x01)\n        /* \"contracts/AlvaraDao.sol\":2480:2499  xALVA.totalSupply() */\n      0x40\n      dup1\n      mload\n      shl(0xe0, 0x18160ddd)\n      dup2\n      mstore\n      swap1\n      mload\n        /* \"contracts/AlvaraDao.sol\":2458:2477  uint256 totalShares */\n      0x00\n      swap3\n      sub(shl(0xa0, 0x01), 0x01)\n        /* \"contracts/AlvaraDao.sol\":2480:2485  xALVA */\n      and\n      swap2\n        /* \"contracts/AlvaraDao.sol\":2480:2497  xALVA.totalSupply */\n      0x18160ddd\n      swap2\n        /* \"contracts/AlvaraDao.sol\":2480:2499  xALVA.totalSupply() */\n      0x04\n      dup1\n      dup4\n      add\n      swap3\n      0x20\n      swap3\n      swap2\n      swap1\n      dup3\n      swap1\n      sub\n      add\n      dup2\n        /* \"contracts/AlvaraDao.sol\":2480:2485  xALVA */\n      dup7\n        /* \"contracts/AlvaraDao.sol\":2480:2499  xALVA.totalSupply() */\n      gas\n      staticcall\n      iszero\n      dup1\n      iszero\n      tag_140\n      jumpi\n      returndatacopy(0x00, 0x00, returndatasize)\n      revert(0x00, returndatasize)\n    tag_140:\n      pop\n      pop\n      pop\n      pop\n      mload(0x40)\n      returndatasize\n      not(0x1f)\n      0x1f\n      dup3\n      add\n      and\n      dup3\n      add\n      dup1\n      0x40\n      mstore\n      pop\n      dup2\n      add\n      swap1\n      tag_141\n      swap2\n      swap1\n      tag_142\n      jump\t// in\n    tag_141:\n        /* \"contracts/AlvaraDao.sol\":2509:2527  uint256 _userShare */\n      0x00\n        /* \"contracts/AlvaraDao.sol\":2540:2544  ALVA */\n      dup1\n      sload\n        /* \"contracts/AlvaraDao.sol\":2540:2569  ALVA.balanceOf(address(this)) */\n      mload(0x40)\n      shl(0xe0, 0x70a08231)\n      dup2\n      mstore\n        /* \"contracts/AlvaraDao.sol\":2563:2567  this */\n      address\n        /* \"contracts/AlvaraDao.sol\":2540:2569  ALVA.balanceOf(address(this)) */\n      0x04\n      dup3\n      add\n        /* \"#utility.yul\":1105:1156   */\n      mstore\n        /* \"contracts/AlvaraDao.sol\":2458:2499  uint256 totalShares = xALVA.totalSupply() */\n      swap3\n      swap4\n      pop\n        /* \"contracts/AlvaraDao.sol\":2509:2527  uint256 _userShare */\n      swap1\n      swap2\n        /* \"contracts/AlvaraDao.sol\":2458:2499  uint256 totalShares = xALVA.totalSupply() */\n      dup4\n      swap2\n      sub(shl(0xa0, 0x01), 0x01)\n        /* \"contracts/AlvaraDao.sol\":2540:2544  ALVA */\n      and\n      swap1\n        /* \"contracts/AlvaraDao.sol\":2540:2554  ALVA.balanceOf */\n      0x70a08231\n      swap1\n        /* \"#utility.yul\":1078:1096   */\n      0x24\n      add\n        /* \"contracts/AlvaraDao.sol\":2540:2569  ALVA.balanceOf(address(this)) */\n      0x20\n      mload(0x40)\n      dup1\n      dup4\n      sub\n      dup2\n      dup7\n      gas\n      staticcall\n      iszero\n      dup1\n      iszero\n      tag_145\n      jumpi\n      returndatacopy(0x00, 0x00, returndatasize)\n      revert(0x00, returndatasize)\n    tag_145:\n      pop\n      pop\n      pop\n      pop\n      mload(0x40)\n      returndatasize\n      not(0x1f)\n      0x1f\n      dup3\n      add\n      and\n      dup3\n      add\n      dup1\n      0x40\n      mstore\n      pop\n      dup2\n      add\n      swap1\n      tag_146\n      swap2\n      swap1\n      tag_142\n      jump\t// in\n    tag_146:\n        /* \"contracts/AlvaraDao.sol\":2531:2569  _share * ALVA.balanceOf(address(this)) */\n      tag_147\n      swap1\n        /* \"contracts/AlvaraDao.sol\":2531:2537  _share */\n      dup6\n        /* \"contracts/AlvaraDao.sol\":2531:2569  _share * ALVA.balanceOf(address(this)) */\n      tag_148\n      jump\t// in\n    tag_147:\n        /* \"contracts/AlvaraDao.sol\":2530:2596  (_share * ALVA.balanceOf(address(this))) /... */\n      tag_149\n      swap2\n      swap1\n      tag_150\n      jump\t// in\n    tag_149:\n        /* \"contracts/AlvaraDao.sol\":2606:2611  xALVA */\n      sload(0x01)\n        /* \"contracts/AlvaraDao.sol\":2509:2596  uint256 _userShare = (_share * ALVA.balanceOf(address(this))) /... */\n      swap1\n      swap2\n      pop\n      sub(shl(0xa0, 0x01), 0x01)\n        /* \"contracts/AlvaraDao.sol\":2606:2611  xALVA */\n      and\n        /* \"contracts/AlvaraDao.sol\":2606:2620  xALVA.burnFrom */\n      0x79cc6790\n        /* \"@openzeppelin/contracts-upgradeable/utils/ContextUpgradeable.sol\":966:976  msg.sender */\n      caller\n        /* \"contracts/AlvaraDao.sol\":2606:2642  xALVA.burnFrom(_msgSender(), _share) */\n      mload(0x40)\n      not(sub(shl(0xe0, 0x01), 0x01))\n      0xe0\n      dup5\n      swap1\n      shl\n      and\n      dup2\n      mstore\n      sub(shl(0xa0, 0x01), 0x01)\n        /* \"#utility.yul\":6641:6673   */\n      swap1\n      swap2\n      and\n        /* \"contracts/AlvaraDao.sol\":2606:2642  xALVA.burnFrom(_msgSender(), _share) */\n      0x04\n      dup3\n      add\n        /* \"#utility.yul\":6623:6674   */\n      mstore\n        /* \"#utility.yul\":6690:6708   */\n      0x24\n      dup2\n      add\n        /* \"#utility.yul\":6683:6717   */\n      dup7\n      swap1\n      mstore\n        /* \"#utility.yul\":6596:6614   */\n      0x44\n      add\n        /* \"contracts/AlvaraDao.sol\":2606:2642  xALVA.burnFrom(_msgSender(), _share) */\n      0x00\n      mload(0x40)\n      dup1\n      dup4\n      sub\n      dup2\n      0x00\n      dup8\n      dup1\n      extcodesize\n      iszero\n      dup1\n      iszero\n      tag_155\n      jumpi\n      revert(0x00, 0x00)\n    tag_155:\n      pop\n      gas\n      call\n      iszero\n      dup1\n      iszero\n      tag_157\n      jumpi\n      returndatacopy(0x00, 0x00, returndatasize)\n      revert(0x00, returndatasize)\n    tag_157:\n      pop\n      pop\n        /* \"contracts/AlvaraDao.sol\":2652:2656  ALVA */\n      and(sub(shl(0xa0, 0x01), 0x01), sload(0x00))\n      swap2\n      pop\n        /* \"contracts/AlvaraDao.sol\":2652:2665  ALVA.transfer */\n      0xa9059cbb\n      swap1\n      pop\n        /* \"@openzeppelin/contracts-upgradeable/utils/ContextUpgradeable.sol\":966:976  msg.sender */\n      caller\n        /* \"contracts/AlvaraDao.sol\":2652:2691  ALVA.transfer(_msgSender(), _userShare) */\n      mload(0x40)\n      not(sub(shl(0xe0, 0x01), 0x01))\n      0xe0\n      dup5\n      swap1\n      shl\n      and\n      dup2\n      mstore\n      sub(shl(0xa0, 0x01), 0x01)\n        /* \"#utility.yul\":6641:6673   */\n      swap1\n      swap2\n      and\n        /* \"contracts/AlvaraDao.sol\":2652:2691  ALVA.transfer(_msgSender(), _userShare) */\n      0x04\n      dup3\n      add\n        /* \"#utility.yul\":6623:6674   */\n      mstore\n        /* \"#utility.yul\":6690:6708   */\n      0x24\n      dup2\n      add\n        /* \"#utility.yul\":6683:6717   */\n      dup5\n      swap1\n      mstore\n        /* \"#utility.yul\":6596:6614   */\n      0x44\n      add\n        /* \"contracts/AlvaraDao.sol\":2652:2691  ALVA.transfer(_msgSender(), _userShare) */\n      0x20\n      mload(0x40)\n      dup1\n      dup4\n      sub\n      dup2\n      0x00\n      dup8\n      gas\n      call\n      iszero\n      dup1\n      iszero\n      tag_161\n      jumpi\n      returndatacopy(0x00, 0x00, returndatasize)\n      revert(0x00, returndatasize)\n    tag_161:\n      pop\n      pop\n      pop\n      pop\n      mload(0x40)\n      returndatasize\n      not(0x1f)\n      0x1f\n      dup3\n      add\n      and\n      dup3\n      add\n      dup1\n      0x40\n      mstore\n      pop\n      dup2\n      add\n      swap1\n      tag_162\n      swap2\n      swap1\n      tag_163\n      jump\t// in\n    tag_162:\n      pop\n        /* \"contracts/AlvaraDao.sol\":2707:2740  Unstake(_msgSender(), _userShare) */\n      mload(0x40)\n        /* \"#utility.yul\":529:554   */\n      dup2\n      dup2\n      mstore\n        /* \"@openzeppelin/contracts-upgradeable/utils/ContextUpgradeable.sol\":966:976  msg.sender */\n      caller\n      swap1\n        /* \"contracts/AlvaraDao.sol\":2707:2740  Unstake(_msgSender(), _userShare) */\n      0x85082129d87b2fe11527cb1b3b7a520aeb5aa6913f88a3d8757fe40d1db02fdd\n      swap1\n        /* \"#utility.yul\":517:519   */\n      0x20\n        /* \"#utility.yul\":502:520   */\n      add\n        /* \"contracts/AlvaraDao.sol\":2707:2740  Unstake(_msgSender(), _userShare) */\n      mload(0x40)\n      dup1\n      swap2\n      sub\n      swap1\n      log2\n        /* \"contracts/AlvaraDao.sol\":2239:2747  {... */\n      pop\n      pop\n        /* \"contracts/AlvaraDao.sol\":2201:2747  function leave(uint256 _share) public {... */\n      pop\n      jump\t// out\n        /* \"@openzeppelin/contracts-upgradeable/access/OwnableUpgradeable.sol\":3155:3256  function renounceOwnership() public virtual onlyOwner {... */\n    tag_64:\n        /* \"@openzeppelin/contracts-upgradeable/access/OwnableUpgradeable.sol\":2334:2347  _checkOwner() */\n      tag_167\n        /* \"@openzeppelin/contracts-upgradeable/access/OwnableUpgradeable.sol\":2334:2345  _checkOwner */\n      tag_168\n        /* \"@openzeppelin/contracts-upgradeable/access/OwnableUpgradeable.sol\":2334:2347  _checkOwner() */\n      jump\t// in\n    tag_167:\n        /* \"@openzeppelin/contracts-upgradeable/access/OwnableUpgradeable.sol\":3219:3249  _transferOwnership(address(0)) */\n      tag_170\n        /* \"@openzeppelin/contracts-upgradeable/access/OwnableUpgradeable.sol\":3246:3247  0 */\n      0x00\n        /* \"@openzeppelin/contracts-upgradeable/access/OwnableUpgradeable.sol\":3219:3237  _transferOwnership */\n      tag_171\n        /* \"@openzeppelin/contracts-upgradeable/access/OwnableUpgradeable.sol\":3219:3249  _transferOwnership(address(0)) */\n      jump\t// in\n    tag_170:\n        /* \"@openzeppelin/contracts-upgradeable/access/OwnableUpgradeable.sol\":3155:3256  function renounceOwnership() public virtual onlyOwner {... */\n      jump\t// out\n        /* \"contracts/AlvaraDao.sol\":3228:3402  function updateLockPeriod(uint256 _lockedPeriod) external onlyOwner {... */\n    tag_73:\n        /* \"@openzeppelin/contracts-upgradeable/access/OwnableUpgradeable.sol\":2334:2347  _checkOwner() */\n      tag_176\n        /* \"@openzeppelin/contracts-upgradeable/access/OwnableUpgradeable.sol\":2334:2345  _checkOwner */\n      tag_168\n        /* \"@openzeppelin/contracts-upgradeable/access/OwnableUpgradeable.sol\":2334:2347  _checkOwner() */\n      jump\t// in\n    tag_176:\n        /* \"contracts/AlvaraDao.sol\":3328:3340  lockedPeriod */\n      sload(0x04)\n        /* \"contracts/AlvaraDao.sol\":3311:3356  UpdateLockPeriod(lockedPeriod, _lockedPeriod) */\n      0x40\n      dup1\n      mload\n        /* \"#utility.yul\":7152:7177   */\n      swap2\n      dup3\n      mstore\n        /* \"#utility.yul\":7208:7210   */\n      0x20\n        /* \"#utility.yul\":7193:7211   */\n      dup3\n      add\n        /* \"#utility.yul\":7186:7220   */\n      dup4\n      swap1\n      mstore\n        /* \"contracts/AlvaraDao.sol\":3311:3356  UpdateLockPeriod(lockedPeriod, _lockedPeriod) */\n      0xf814eafa160e3546fc1ea6b8939a578ef5f64d31e04888bcd82e8cd9f9ec2909\n      swap2\n        /* \"#utility.yul\":7125:7143   */\n      add\n        /* \"contracts/AlvaraDao.sol\":3311:3356  UpdateLockPeriod(lockedPeriod, _lockedPeriod) */\n      mload(0x40)\n      dup1\n      swap2\n      sub\n      swap1\n      log1\n        /* \"contracts/AlvaraDao.sol\":3367:3379  lockedPeriod */\n      0x04\n        /* \"contracts/AlvaraDao.sol\":3367:3395  lockedPeriod = _lockedPeriod */\n      sstore\n        /* \"contracts/AlvaraDao.sol\":3228:3402  function updateLockPeriod(uint256 _lockedPeriod) external onlyOwner {... */\n      jump\t// out\n        /* \"contracts/AlvaraDao.sol\":1455:2146  function enter(uint256 _amount) public {... */\n    tag_77:\n        /* \"contracts/AlvaraDao.sol\":1529:1539  msg.sender */\n      caller\n        /* \"contracts/AlvaraDao.sol\":1512:1540  blackListAddress[msg.sender] */\n      0x00\n      swap1\n      dup2\n      mstore\n        /* \"contracts/AlvaraDao.sol\":1512:1528  blackListAddress */\n      0x03\n        /* \"contracts/AlvaraDao.sol\":1512:1540  blackListAddress[msg.sender] */\n      0x20\n      mstore\n      0x40\n      swap1\n      keccak256\n      sload\n      0xff\n      and\n        /* \"contracts/AlvaraDao.sol\":1512:1548  blackListAddress[msg.sender] != true */\n      iszero\n      iszero\n        /* \"contracts/AlvaraDao.sol\":1512:1540  blackListAddress[msg.sender] */\n      0x01\n        /* \"contracts/AlvaraDao.sol\":1512:1548  blackListAddress[msg.sender] != true */\n      sub\n        /* \"contracts/AlvaraDao.sol\":1504:1569  require(blackListAddress[msg.sender] != true, \"BlackListed User\") */\n      tag_181\n      jumpi\n      mload(0x40)\n      shl(0xe5, 0x461bcd)\n      dup2\n      mstore\n        /* \"#utility.yul\":5116:5118   */\n      0x20\n        /* \"contracts/AlvaraDao.sol\":1504:1569  require(blackListAddress[msg.sender] != true, \"BlackListed User\") */\n      0x04\n      dup3\n      add\n        /* \"#utility.yul\":5098:5119   */\n      mstore\n        /* \"#utility.yul\":5155:5157   */\n      0x10\n        /* \"#utility.yul\":5135:5153   */\n      0x24\n      dup3\n      add\n        /* \"#utility.yul\":5128:5158   */\n      mstore\n      shl(0x81, 0x213630b1b5a634b9ba32b2102ab9b2b9)\n        /* \"#utility.yul\":5174:5192   */\n      0x44\n      dup3\n      add\n        /* \"#utility.yul\":5167:5213   */\n      mstore\n        /* \"#utility.yul\":5230:5248   */\n      0x64\n      add\n        /* \"contracts/AlvaraDao.sol\":1504:1569  require(blackListAddress[msg.sender] != true, \"BlackListed User\") */\n      tag_110\n        /* \"#utility.yul\":4914:5254   */\n      jump\n        /* \"contracts/AlvaraDao.sol\":1504:1569  require(blackListAddress[msg.sender] != true, \"BlackListed User\") */\n    tag_181:\n        /* \"contracts/AlvaraDao.sol\":1579:1596  uint256 totalAlva */\n      0x00\n        /* \"contracts/AlvaraDao.sol\":1599:1603  ALVA */\n      dup1\n      sload\n        /* \"contracts/AlvaraDao.sol\":1599:1628  ALVA.balanceOf(address(this)) */\n      mload(0x40)\n      shl(0xe0, 0x70a08231)\n      dup2\n      mstore\n        /* \"contracts/AlvaraDao.sol\":1622:1626  this */\n      address\n        /* \"contracts/AlvaraDao.sol\":1599:1628  ALVA.balanceOf(address(this)) */\n      0x04\n      dup3\n      add\n        /* \"#utility.yul\":1105:1156   */\n      mstore\n      sub(shl(0xa0, 0x01), 0x01)\n        /* \"contracts/AlvaraDao.sol\":1599:1603  ALVA */\n      swap1\n      swap2\n      and\n      swap1\n        /* \"contracts/AlvaraDao.sol\":1599:1613  ALVA.balanceOf */\n      0x70a08231\n      swap1\n        /* \"#utility.yul\":1078:1096   */\n      0x24\n      add\n        /* \"contracts/AlvaraDao.sol\":1599:1628  ALVA.balanceOf(address(this)) */\n      0x20\n      mload(0x40)\n      dup1\n      dup4\n      sub\n      dup2\n      dup7\n      gas\n      staticcall\n      iszero\n      dup1\n      iszero\n      tag_185\n      jumpi\n      returndatacopy(0x00, 0x00, returndatasize)\n      revert(0x00, returndatasize)\n    tag_185:\n      pop\n      pop\n      pop\n      pop\n      mload(0x40)\n      returndatasize\n      not(0x1f)\n      0x1f\n      dup3\n      add\n      and\n      dup3\n      add\n      dup1\n      0x40\n      mstore\n      pop\n      dup2\n      add\n      swap1\n      tag_186\n      swap2\n      swap1\n      tag_142\n      jump\t// in\n    tag_186:\n        /* \"contracts/AlvaraDao.sol\":1579:1628  uint256 totalAlva = ALVA.balanceOf(address(this)) */\n      swap1\n      pop\n        /* \"contracts/AlvaraDao.sol\":1638:1657  uint256 totalShares */\n      0x00\n        /* \"contracts/AlvaraDao.sol\":1660:1665  xALVA */\n      0x01\n      0x00\n      swap1\n      sload\n      swap1\n      0x0100\n      exp\n      swap1\n      div\n      sub(shl(0xa0, 0x01), 0x01)\n      and\n      sub(shl(0xa0, 0x01), 0x01)\n        /* \"contracts/AlvaraDao.sol\":1660:1677  xALVA.totalSupply */\n      and\n      0x18160ddd\n        /* \"contracts/AlvaraDao.sol\":1660:1679  xALVA.totalSupply() */\n      mload(0x40)\n      dup2\n      0xffffffff\n      and\n      0xe0\n      shl\n      dup2\n      mstore\n      0x04\n      add\n      0x20\n      mload(0x40)\n      dup1\n      dup4\n      sub\n      dup2\n      dup7\n      gas\n      staticcall\n      iszero\n      dup1\n      iszero\n      tag_188\n      jumpi\n      returndatacopy(0x00, 0x00, returndatasize)\n      revert(0x00, returndatasize)\n    tag_188:\n      pop\n      pop\n      pop\n      pop\n      mload(0x40)\n      returndatasize\n      not(0x1f)\n      0x1f\n      dup3\n      add\n      and\n      dup3\n      add\n      dup1\n      0x40\n      mstore\n      pop\n      dup2\n      add\n      swap1\n      tag_189\n      swap2\n      swap1\n      tag_142\n      jump\t// in\n    tag_189:\n        /* \"contracts/AlvaraDao.sol\":1638:1679  uint256 totalShares = xALVA.totalSupply() */\n      swap1\n      pop\n        /* \"contracts/AlvaraDao.sol\":1693:1709  totalShares == 0 */\n      dup1\n      iszero\n      dup1\n        /* \"contracts/AlvaraDao.sol\":1693:1727  totalShares == 0 || totalAlva == 0 */\n      tag_190\n      jumpi\n      pop\n        /* \"contracts/AlvaraDao.sol\":1713:1727  totalAlva == 0 */\n      dup2\n      iszero\n        /* \"contracts/AlvaraDao.sol\":1693:1727  totalShares == 0 || totalAlva == 0 */\n    tag_190:\n        /* \"contracts/AlvaraDao.sol\":1689:2021  if (totalShares == 0 || totalAlva == 0) {... */\n      iszero\n      tag_191\n      jumpi\n        /* \"contracts/AlvaraDao.sol\":1743:1748  xALVA */\n      and(sub(shl(0xa0, 0x01), 0x01), sload(0x01))\n        /* \"contracts/AlvaraDao.sol\":1743:1753  xALVA.mint */\n      0x40c10f19\n        /* \"@openzeppelin/contracts-upgradeable/utils/ContextUpgradeable.sol\":966:976  msg.sender */\n      caller\n        /* \"contracts/AlvaraDao.sol\":1743:1776  xALVA.mint(_msgSender(), _amount) */\n      mload(0x40)\n      not(sub(shl(0xe0, 0x01), 0x01))\n      0xe0\n      dup5\n      swap1\n      shl\n      and\n      dup2\n      mstore\n      sub(shl(0xa0, 0x01), 0x01)\n        /* \"#utility.yul\":6641:6673   */\n      swap1\n      swap2\n      and\n        /* \"contracts/AlvaraDao.sol\":1743:1776  xALVA.mint(_msgSender(), _amount) */\n      0x04\n      dup3\n      add\n        /* \"#utility.yul\":6623:6674   */\n      mstore\n        /* \"#utility.yul\":6690:6708   */\n      0x24\n      dup2\n      add\n        /* \"#utility.yul\":6683:6717   */\n      dup7\n      swap1\n      mstore\n        /* \"#utility.yul\":6596:6614   */\n      0x44\n      add\n        /* \"contracts/AlvaraDao.sol\":1743:1776  xALVA.mint(_msgSender(), _amount) */\n      0x00\n      mload(0x40)\n      dup1\n      dup4\n      sub\n      dup2\n      0x00\n      dup8\n      dup1\n      extcodesize\n      iszero\n      dup1\n      iszero\n      tag_194\n      jumpi\n      revert(0x00, 0x00)\n    tag_194:\n      pop\n      gas\n      call\n      iszero\n      dup1\n      iszero\n      tag_196\n      jumpi\n      returndatacopy(0x00, 0x00, returndatasize)\n      revert(0x00, returndatasize)\n    tag_196:\n      pop\n      pop\n      pop\n      pop\n        /* \"contracts/AlvaraDao.sol\":1801:1813  _msgSender() */\n      tag_197\n        /* \"@openzeppelin/contracts-upgradeable/utils/ContextUpgradeable.sol\":966:976  msg.sender */\n      caller\n      swap1\n        /* \"@openzeppelin/contracts-upgradeable/utils/ContextUpgradeable.sol\":887:983  function _msgSender() internal view virtual returns (address) {... */\n      jump\n        /* \"contracts/AlvaraDao.sol\":1801:1813  _msgSender() */\n    tag_197:\n      sub(shl(0xa0, 0x01), 0x01)\n        /* \"contracts/AlvaraDao.sol\":1795:1823  Stake(_msgSender(), _amount) */\n      and\n      0xebedb8b3c678666e7f36970bc8f57abf6d8fa2e828c0da91ea5b75bf68ed101a\n        /* \"contracts/AlvaraDao.sol\":1815:1822  _amount */\n      dup5\n        /* \"contracts/AlvaraDao.sol\":1795:1823  Stake(_msgSender(), _amount) */\n      mload(0x40)\n      tag_198\n      swap2\n        /* \"#utility.yul\":529:554   */\n      dup2\n      mstore\n        /* \"#utility.yul\":517:519   */\n      0x20\n        /* \"#utility.yul\":502:520   */\n      add\n      swap1\n        /* \"#utility.yul\":383:560   */\n      jump\n        /* \"contracts/AlvaraDao.sol\":1795:1823  Stake(_msgSender(), _amount) */\n    tag_198:\n      mload(0x40)\n      dup1\n      swap2\n      sub\n      swap1\n      log2\n        /* \"contracts/AlvaraDao.sol\":1689:2021  if (totalShares == 0 || totalAlva == 0) {... */\n      jump(tag_199)\n    tag_191:\n        /* \"contracts/AlvaraDao.sol\":1854:1872  uint256 _userShare */\n      0x00\n        /* \"contracts/AlvaraDao.sol\":1901:1910  totalAlva */\n      dup3\n        /* \"contracts/AlvaraDao.sol\":1876:1897  _amount * totalShares */\n      tag_200\n        /* \"contracts/AlvaraDao.sol\":1886:1897  totalShares */\n      dup4\n        /* \"contracts/AlvaraDao.sol\":1876:1883  _amount */\n      dup7\n        /* \"contracts/AlvaraDao.sol\":1876:1897  _amount * totalShares */\n      tag_148\n      jump\t// in\n    tag_200:\n        /* \"contracts/AlvaraDao.sol\":1875:1910  (_amount * totalShares) / totalAlva */\n      tag_201\n      swap2\n      swap1\n      tag_150\n      jump\t// in\n    tag_201:\n        /* \"contracts/AlvaraDao.sol\":1924:1929  xALVA */\n      sload(0x01)\n        /* \"contracts/AlvaraDao.sol\":1854:1910  uint256 _userShare = (_amount * totalShares) / totalAlva */\n      swap1\n      swap2\n      pop\n      sub(shl(0xa0, 0x01), 0x01)\n        /* \"contracts/AlvaraDao.sol\":1924:1929  xALVA */\n      and\n        /* \"contracts/AlvaraDao.sol\":1924:1934  xALVA.mint */\n      0x40c10f19\n        /* \"@openzeppelin/contracts-upgradeable/utils/ContextUpgradeable.sol\":966:976  msg.sender */\n      caller\n        /* \"contracts/AlvaraDao.sol\":1924:1960  xALVA.mint(_msgSender(), _userShare) */\n      mload(0x40)\n      not(sub(shl(0xe0, 0x01), 0x01))\n      0xe0\n      dup5\n      swap1\n      shl\n      and\n      dup2\n      mstore\n      sub(shl(0xa0, 0x01), 0x01)\n        /* \"#utility.yul\":6641:6673   */\n      swap1\n      swap2\n      and\n        /* \"contracts/AlvaraDao.sol\":1924:1960  xALVA.mint(_msgSender(), _userShare) */\n      0x04\n      dup3\n      add\n        /* \"#utility.yul\":6623:6674   */\n      mstore\n        /* \"#utility.yul\":6690:6708   */\n      0x24\n      dup2\n      add\n        /* \"#utility.yul\":6683:6717   */\n      dup5\n      swap1\n      mstore\n        /* \"#utility.yul\":6596:6614   */\n      0x44\n      add\n        /* \"contracts/AlvaraDao.sol\":1924:1960  xALVA.mint(_msgSender(), _userShare) */\n      0x00\n      mload(0x40)\n      dup1\n      dup4\n      sub\n      dup2\n      0x00\n      dup8\n      dup1\n      extcodesize\n      iszero\n      dup1\n      iszero\n      tag_204\n      jumpi\n      revert(0x00, 0x00)\n    tag_204:\n      pop\n      gas\n      call\n      iszero\n      dup1\n      iszero\n      tag_206\n      jumpi\n      returndatacopy(0x00, 0x00, returndatasize)\n      revert(0x00, returndatasize)\n    tag_206:\n      pop\n      pop\n      pop\n      pop\n        /* \"contracts/AlvaraDao.sol\":1985:1997  _msgSender() */\n      tag_207\n        /* \"@openzeppelin/contracts-upgradeable/utils/ContextUpgradeable.sol\":966:976  msg.sender */\n      caller\n      swap1\n        /* \"@openzeppelin/contracts-upgradeable/utils/ContextUpgradeable.sol\":887:983  function _msgSender() internal view virtual returns (address) {... */\n      jump\n        /* \"contracts/AlvaraDao.sol\":1985:1997  _msgSender() */\n    tag_207:\n      sub(shl(0xa0, 0x01), 0x01)\n        /* \"contracts/AlvaraDao.sol\":1979:2010  Stake(_msgSender(), _userShare) */\n      and\n      0xebedb8b3c678666e7f36970bc8f57abf6d8fa2e828c0da91ea5b75bf68ed101a\n        /* \"contracts/AlvaraDao.sol\":1999:2009  _userShare */\n      dup3\n        /* \"contracts/AlvaraDao.sol\":1979:2010  Stake(_msgSender(), _userShare) */\n      mload(0x40)\n      tag_208\n      swap2\n        /* \"#utility.yul\":529:554   */\n      dup2\n      mstore\n        /* \"#utility.yul\":517:519   */\n      0x20\n        /* \"#utility.yul\":502:520   */\n      add\n      swap1\n        /* \"#utility.yul\":383:560   */\n      jump\n        /* \"contracts/AlvaraDao.sol\":1979:2010  Stake(_msgSender(), _userShare) */\n    tag_208:\n      mload(0x40)\n      dup1\n      swap2\n      sub\n      swap1\n      log2\n        /* \"contracts/AlvaraDao.sol\":1840:2021  {... */\n      pop\n        /* \"contracts/AlvaraDao.sol\":1689:2021  if (totalShares == 0 || totalAlva == 0) {... */\n    tag_199:\n        /* \"contracts/AlvaraDao.sol\":2045:2055  msg.sender */\n      caller\n        /* \"contracts/AlvaraDao.sol\":2030:2056  userLockPeriod[msg.sender] */\n      0x00\n      swap1\n      dup2\n      mstore\n        /* \"contracts/AlvaraDao.sol\":2030:2044  userLockPeriod */\n      0x02\n        /* \"contracts/AlvaraDao.sol\":2030:2056  userLockPeriod[msg.sender] */\n      0x20\n      mstore\n      0x40\n      dup2\n      keccak256\n        /* \"contracts/AlvaraDao.sol\":2059:2074  block.timestamp */\n      timestamp\n        /* \"contracts/AlvaraDao.sol\":2030:2074  userLockPeriod[msg.sender] = block.timestamp */\n      swap1\n      sstore\n        /* \"contracts/AlvaraDao.sol\":2084:2088  ALVA */\n      sload\n      sub(shl(0xa0, 0x01), 0x01)\n      and\n        /* \"contracts/AlvaraDao.sol\":2084:2101  ALVA.transferFrom */\n      0x23b872dd\n        /* \"contracts/AlvaraDao.sol\":2102:2114  _msgSender() */\n      tag_209\n        /* \"@openzeppelin/contracts-upgradeable/utils/ContextUpgradeable.sol\":966:976  msg.sender */\n      caller\n      swap1\n        /* \"@openzeppelin/contracts-upgradeable/utils/ContextUpgradeable.sol\":887:983  function _msgSender() internal view virtual returns (address) {... */\n      jump\n        /* \"contracts/AlvaraDao.sol\":2102:2114  _msgSender() */\n    tag_209:\n        /* \"contracts/AlvaraDao.sol\":2084:2139  ALVA.transferFrom(_msgSender(), address(this), _amount) */\n      mload(0x40)\n      not(sub(shl(0xe0, 0x01), 0x01))\n      0xe0\n      dup5\n      swap1\n      shl\n      and\n      dup2\n      mstore\n      sub(shl(0xa0, 0x01), 0x01)\n        /* \"#utility.yul\":7451:7483   */\n      swap1\n      swap2\n      and\n        /* \"contracts/AlvaraDao.sol\":2084:2139  ALVA.transferFrom(_msgSender(), address(this), _amount) */\n      0x04\n      dup3\n      add\n        /* \"#utility.yul\":7433:7484   */\n      mstore\n        /* \"contracts/AlvaraDao.sol\":2124:2128  this */\n      address\n        /* \"#utility.yul\":7500:7518   */\n      0x24\n      dup3\n      add\n        /* \"#utility.yul\":7493:7553   */\n      mstore\n        /* \"#utility.yul\":7569:7587   */\n      0x44\n      dup2\n      add\n        /* \"#utility.yul\":7562:7596   */\n      dup7\n      swap1\n      mstore\n        /* \"#utility.yul\":7406:7424   */\n      0x64\n      add\n        /* \"contracts/AlvaraDao.sol\":2084:2139  ALVA.transferFrom(_msgSender(), address(this), _amount) */\n      0x20\n      mload(0x40)\n      dup1\n      dup4\n      sub\n      dup2\n      0x00\n      dup8\n      gas\n      call\n      iszero\n      dup1\n      iszero\n      tag_213\n      jumpi\n      returndatacopy(0x00, 0x00, returndatasize)\n      revert(0x00, returndatasize)\n    tag_213:\n      pop\n      pop\n      pop\n      pop\n      mload(0x40)\n      returndatasize\n      not(0x1f)\n      0x1f\n      dup3\n      add\n      and\n      dup3\n      add\n      dup1\n      0x40\n      mstore\n      pop\n      dup2\n      add\n      swap1\n      tag_214\n      swap2\n      swap1\n      tag_163\n      jump\t// in\n    tag_214:\n      pop\n        /* \"contracts/AlvaraDao.sol\":1494:2146  {... */\n      pop\n      pop\n        /* \"contracts/AlvaraDao.sol\":1455:2146  function enter(uint256 _amount) public {... */\n      pop\n      jump\t// out\n        /* \"contracts/AlvaraDao.sol\":2951:3196  function blackListUser(address _user, bool _status) external onlyOwner {... */\n    tag_91:\n        /* \"@openzeppelin/contracts-upgradeable/access/OwnableUpgradeable.sol\":2334:2347  _checkOwner() */\n      tag_216\n        /* \"@openzeppelin/contracts-upgradeable/access/OwnableUpgradeable.sol\":2334:2345  _checkOwner */\n      tag_168\n        /* \"@openzeppelin/contracts-upgradeable/access/OwnableUpgradeable.sol\":2334:2347  _checkOwner() */\n      jump\t// in\n    tag_216:\n      sub(shl(0xa0, 0x01), 0x01)\n        /* \"contracts/AlvaraDao.sol\":3040:3063  blackListAddress[_user] */\n      dup3\n      and\n      0x00\n      swap1\n      dup2\n      mstore\n        /* \"contracts/AlvaraDao.sol\":3040:3056  blackListAddress */\n      0x03\n        /* \"contracts/AlvaraDao.sol\":3040:3063  blackListAddress[_user] */\n      0x20\n      mstore\n      0x40\n      swap1\n      keccak256\n      sload\n        /* \"contracts/AlvaraDao.sol\":3040:3074  blackListAddress[_user] != _status */\n      dup2\n      iszero\n      iszero\n        /* \"contracts/AlvaraDao.sol\":3040:3063  blackListAddress[_user] */\n      0xff\n      swap1\n      swap2\n      and\n        /* \"contracts/AlvaraDao.sol\":3040:3074  blackListAddress[_user] != _status */\n      iszero\n      iszero\n      sub\n        /* \"contracts/AlvaraDao.sol\":3032:3101  require(blackListAddress[_user] != _status, \"Already in same status\") */\n      tag_218\n      jumpi\n      mload(0x40)\n      shl(0xe5, 0x461bcd)\n      dup2\n      mstore\n        /* \"#utility.yul\":7809:7811   */\n      0x20\n        /* \"contracts/AlvaraDao.sol\":3032:3101  require(blackListAddress[_user] != _status, \"Already in same status\") */\n      0x04\n      dup3\n      add\n        /* \"#utility.yul\":7791:7812   */\n      mstore\n        /* \"#utility.yul\":7848:7850   */\n      0x16\n        /* \"#utility.yul\":7828:7846   */\n      0x24\n      dup3\n      add\n        /* \"#utility.yul\":7821:7851   */\n      mstore\n      shl(0x50, 0x416c726561647920696e2073616d6520737461747573)\n        /* \"#utility.yul\":7867:7885   */\n      0x44\n      dup3\n      add\n        /* \"#utility.yul\":7860:7912   */\n      mstore\n        /* \"#utility.yul\":7929:7947   */\n      0x64\n      add\n        /* \"contracts/AlvaraDao.sol\":3032:3101  require(blackListAddress[_user] != _status, \"Already in same status\") */\n      tag_110\n        /* \"#utility.yul\":7607:7953   */\n      jump\n        /* \"contracts/AlvaraDao.sol\":3032:3101  require(blackListAddress[_user] != _status, \"Already in same status\") */\n    tag_218:\n      sub(shl(0xa0, 0x01), 0x01)\n        /* \"contracts/AlvaraDao.sol\":3111:3134  blackListAddress[_user] */\n      dup3\n      and\n      0x00\n      dup2\n      dup2\n      mstore\n        /* \"contracts/AlvaraDao.sol\":3111:3127  blackListAddress */\n      0x03\n        /* \"contracts/AlvaraDao.sol\":3111:3134  blackListAddress[_user] */\n      0x20\n      swap1\n      dup2\n      mstore\n      0x40\n      swap2\n      dup3\n      swap1\n      keccak256\n        /* \"contracts/AlvaraDao.sol\":3111:3144  blackListAddress[_user] = _status */\n      dup1\n      sload\n      not(0xff)\n      and\n      dup6\n      iszero\n      iszero\n      swap1\n      dup2\n      or\n      swap1\n      swap2\n      sstore\n        /* \"contracts/AlvaraDao.sol\":3160:3189  BlackListUser(_user, _status) */\n      dup3\n      mload\n        /* \"#utility.yul\":8126:8177   */\n      swap4\n      dup5\n      mstore\n        /* \"#utility.yul\":8193:8211   */\n      swap1\n      dup4\n      add\n        /* \"#utility.yul\":8186:8236   */\n      mstore\n        /* \"contracts/AlvaraDao.sol\":3160:3189  BlackListUser(_user, _status) */\n      0x2f2ea19e5340217456e8ecb94895965ba2afa084e4a94f9fc7c315b1478243b7\n      swap2\n        /* \"#utility.yul\":8099:8117   */\n      add\n        /* \"contracts/AlvaraDao.sol\":3160:3189  BlackListUser(_user, _status) */\n      mload(0x40)\n      dup1\n      swap2\n      sub\n      swap1\n      log1\n        /* \"contracts/AlvaraDao.sol\":2951:3196  function blackListUser(address _user, bool _status) external onlyOwner {... */\n      pop\n      pop\n      jump\t// out\n        /* \"@openzeppelin/contracts-upgradeable/access/OwnableUpgradeable.sol\":3405:3620  function transferOwnership(address newOwner) public virtual onlyOwner {... */\n    tag_95:\n        /* \"@openzeppelin/contracts-upgradeable/access/OwnableUpgradeable.sol\":2334:2347  _checkOwner() */\n      tag_224\n        /* \"@openzeppelin/contracts-upgradeable/access/OwnableUpgradeable.sol\":2334:2345  _checkOwner */\n      tag_168\n        /* \"@openzeppelin/contracts-upgradeable/access/OwnableUpgradeable.sol\":2334:2347  _checkOwner() */\n      jump\t// in\n    tag_224:\n      sub(shl(0xa0, 0x01), 0x01)\n        /* \"@openzeppelin/contracts-upgradeable/access/OwnableUpgradeable.sol\":3489:3511  newOwner == address(0) */\n      dup2\n      and\n        /* \"@openzeppelin/contracts-upgradeable/access/OwnableUpgradeable.sol\":3485:3576  if (newOwner == address(0)) {... */\n      tag_226\n      jumpi\n        /* \"@openzeppelin/contracts-upgradeable/access/OwnableUpgradeable.sol\":3534:3565  OwnableInvalidOwner(address(0)) */\n      mload(0x40)\n      shl(0xe0, 0x1e4fbdf7)\n      dup2\n      mstore\n        /* \"@openzeppelin/contracts-upgradeable/access/OwnableUpgradeable.sol\":3562:3563  0 */\n      0x00\n        /* \"@openzeppelin/contracts-upgradeable/access/OwnableUpgradeable.sol\":3534:3565  OwnableInvalidOwner(address(0)) */\n      0x04\n      dup3\n      add\n        /* \"#utility.yul\":1105:1156   */\n      mstore\n        /* \"#utility.yul\":1078:1096   */\n      0x24\n      add\n        /* \"@openzeppelin/contracts-upgradeable/access/OwnableUpgradeable.sol\":3534:3565  OwnableInvalidOwner(address(0)) */\n      tag_110\n        /* \"#utility.yul\":944:1162   */\n      jump\n        /* \"@openzeppelin/contracts-upgradeable/access/OwnableUpgradeable.sol\":3485:3576  if (newOwner == address(0)) {... */\n    tag_226:\n        /* \"@openzeppelin/contracts-upgradeable/access/OwnableUpgradeable.sol\":3585:3613  _transferOwnership(newOwner) */\n      tag_228\n        /* \"@openzeppelin/contracts-upgradeable/access/OwnableUpgradeable.sol\":3604:3612  newOwner */\n      dup2\n        /* \"@openzeppelin/contracts-upgradeable/access/OwnableUpgradeable.sol\":3585:3603  _transferOwnership */\n      tag_171\n        /* \"@openzeppelin/contracts-upgradeable/access/OwnableUpgradeable.sol\":3585:3613  _transferOwnership(newOwner) */\n      jump\t// in\n    tag_228:\n        /* \"@openzeppelin/contracts-upgradeable/access/OwnableUpgradeable.sol\":3405:3620  function transferOwnership(address newOwner) public virtual onlyOwner {... */\n      pop\n      jump\t// out\n        /* \"@openzeppelin/contracts-upgradeable/proxy/utils/Initializable.sol\":9071:9276  function _getInitializableStorage() private pure returns (InitializableStorage storage $) {... */\n    tag_98:\n        /* \"@openzeppelin/contracts-upgradeable/proxy/utils/Initializable.sol\":9129:9159  InitializableStorage storage $ */\n      0x00\n      dup1\n        /* \"@openzeppelin/contracts-upgradeable/proxy/utils/Initializable.sol\":3147:3213  0xf0c57e16840df040f15088dc2f81fe391c3923bec73e23a9662efc9c229c6a00 */\n      0xf0c57e16840df040f15088dc2f81fe391c3923bec73e23a9662efc9c229c6a00\n        /* \"@openzeppelin/contracts-upgradeable/proxy/utils/Initializable.sol\":9186:9213  _initializableStorageSlot() */\n    tag_230:\n        /* \"@openzeppelin/contracts-upgradeable/proxy/utils/Initializable.sol\":9171:9213  bytes32 slot = _initializableStorageSlot() */\n      swap3\n        /* \"@openzeppelin/contracts-upgradeable/proxy/utils/Initializable.sol\":9071:9276  function _getInitializableStorage() private pure returns (InitializableStorage storage $) {... */\n      swap2\n      pop\n      pop\n      jump\t// out\n        /* \"@openzeppelin/contracts-upgradeable/access/OwnableUpgradeable.sol\":1847:1974  function __Ownable_init(address initialOwner) internal onlyInitializing {... */\n    tag_106:\n        /* \"@openzeppelin/contracts-upgradeable/proxy/utils/Initializable.sol\":6929:6949  _checkInitializing() */\n      tag_233\n        /* \"@openzeppelin/contracts-upgradeable/proxy/utils/Initializable.sol\":6929:6947  _checkInitializing */\n      tag_234\n        /* \"@openzeppelin/contracts-upgradeable/proxy/utils/Initializable.sol\":6929:6949  _checkInitializing() */\n      jump\t// in\n    tag_233:\n        /* \"@openzeppelin/contracts-upgradeable/access/OwnableUpgradeable.sol\":1929:1967  __Ownable_init_unchained(initialOwner) */\n      tag_228\n        /* \"@openzeppelin/contracts-upgradeable/access/OwnableUpgradeable.sol\":1954:1966  initialOwner */\n      dup2\n        /* \"@openzeppelin/contracts-upgradeable/access/OwnableUpgradeable.sol\":1929:1953  __Ownable_init_unchained */\n      tag_237\n        /* \"@openzeppelin/contracts-upgradeable/access/OwnableUpgradeable.sol\":1929:1967  __Ownable_init_unchained(initialOwner) */\n      jump\t// in\n        /* \"@openzeppelin/contracts-upgradeable/proxy/utils/UUPSUpgradeable.sol\":2970:3037  function __UUPSUpgradeable_init() internal onlyInitializing {... */\n    tag_108:\n        /* \"@openzeppelin/contracts-upgradeable/proxy/utils/Initializable.sol\":6929:6949  _checkInitializing() */\n      tag_170\n        /* \"@openzeppelin/contracts-upgradeable/proxy/utils/Initializable.sol\":6929:6947  _checkInitializing */\n      tag_234\n        /* \"@openzeppelin/contracts-upgradeable/proxy/utils/Initializable.sol\":6929:6949  _checkInitializing() */\n      jump\t// in\n        /* \"@openzeppelin/contracts-upgradeable/proxy/utils/UUPSUpgradeable.sol\":4578:4890  function _checkProxy() internal view virtual {... */\n    tag_120:\n        /* \"@openzeppelin/contracts-upgradeable/proxy/utils/UUPSUpgradeable.sol\":4658:4662  this */\n      address\n      sub(shl(0xa0, 0x01), 0x01)\n        /* \"@openzeppelin/contracts-upgradeable/proxy/utils/UUPSUpgradeable.sol\":4667:4673  __self */\n      immutable(\"0x4ce4dab4689da140a0c12de1a6af6b8f679594aeb723205f513e052d27f5b26f\")\n        /* \"@openzeppelin/contracts-upgradeable/proxy/utils/UUPSUpgradeable.sol\":4650:4673  address(this) == __self */\n      and\n      eq\n      dup1\n        /* \"@openzeppelin/contracts-upgradeable/proxy/utils/UUPSUpgradeable.sol\":4650:4770  address(this) == __self || // Must be called through delegatecall... */\n      tag_242\n      jumpi\n      pop\n        /* \"@openzeppelin/contracts-upgradeable/proxy/utils/UUPSUpgradeable.sol\":4764:4770  __self */\n      immutable(\"0x4ce4dab4689da140a0c12de1a6af6b8f679594aeb723205f513e052d27f5b26f\")\n      sub(shl(0xa0, 0x01), 0x01)\n        /* \"@openzeppelin/contracts-upgradeable/proxy/utils/UUPSUpgradeable.sol\":4728:4770  ERC1967Utils.getImplementation() != __self */\n      and\n        /* \"@openzeppelin/contracts-upgradeable/proxy/utils/UUPSUpgradeable.sol\":4728:4760  ERC1967Utils.getImplementation() */\n      tag_243\n      mload(0x00)\n      codecopy(0x00, data_75b20eef8615de99c108b05f0dbda081c91897128caa336d75dffb97c4132b4d, 0x20)\n      mload(0x00)\n      swap1\n      0x00\n      mstore\n        /* \"@openzeppelin/contracts/proxy/ERC1967/ERC1967Utils.sol\":1519:1572  StorageSlot.getAddressSlot(IMPLEMENTATION_SLOT).value */\n      sload\n      sub(shl(0xa0, 0x01), 0x01)\n      and\n      swap1\n        /* \"@openzeppelin/contracts/proxy/ERC1967/ERC1967Utils.sol\":1441:1579  function getImplementation() internal view returns (address) {... */\n      jump\n        /* \"@openzeppelin/contracts-upgradeable/proxy/utils/UUPSUpgradeable.sol\":4728:4760  ERC1967Utils.getImplementation() */\n    tag_243:\n      sub(shl(0xa0, 0x01), 0x01)\n        /* \"@openzeppelin/contracts-upgradeable/proxy/utils/UUPSUpgradeable.sol\":4728:4770  ERC1967Utils.getImplementation() != __self */\n      and\n      eq\n      iszero\n        /* \"@openzeppelin/contracts-upgradeable/proxy/utils/UUPSUpgradeable.sol\":4650:4770  address(this) == __self || // Must be called through delegatecall... */\n    tag_242:\n        /* \"@openzeppelin/contracts-upgradeable/proxy/utils/UUPSUpgradeable.sol\":4633:4884  if (... */\n      iszero\n      tag_170\n      jumpi\n        /* \"@openzeppelin/contracts-upgradeable/proxy/utils/UUPSUpgradeable.sol\":4844:4873  UUPSUnauthorizedCallContext() */\n      mload(0x40)\n      shl(0xe1, 0x703e46dd)\n      dup2\n      mstore\n      0x04\n      add\n      mload(0x40)\n      dup1\n      swap2\n      sub\n      swap1\n      revert\n        /* \"contracts/AlvaraDao.sol\":3408:3520  function _authorizeUpgrade(address newImplementation)... */\n    tag_123:\n        /* \"@openzeppelin/contracts-upgradeable/access/OwnableUpgradeable.sol\":2334:2347  _checkOwner() */\n      tag_228\n        /* \"@openzeppelin/contracts-upgradeable/access/OwnableUpgradeable.sol\":2334:2345  _checkOwner */\n      tag_168\n        /* \"@openzeppelin/contracts-upgradeable/access/OwnableUpgradeable.sol\":2334:2347  _checkOwner() */\n      jump\t// in\n        /* \"@openzeppelin/contracts-upgradeable/proxy/utils/UUPSUpgradeable.sol\":6032:6570  function _upgradeToAndCallUUPS(address newImplementation, bytes memory data) private {... */\n    tag_125:\n        /* \"@openzeppelin/contracts-upgradeable/proxy/utils/UUPSUpgradeable.sol\":6149:6166  newImplementation */\n      dup2\n      sub(shl(0xa0, 0x01), 0x01)\n        /* \"@openzeppelin/contracts-upgradeable/proxy/utils/UUPSUpgradeable.sol\":6131:6181  IERC1822Proxiable(newImplementation).proxiableUUID */\n      and\n      0x52d1902d\n        /* \"@openzeppelin/contracts-upgradeable/proxy/utils/UUPSUpgradeable.sol\":6131:6183  IERC1822Proxiable(newImplementation).proxiableUUID() */\n      mload(0x40)\n      dup2\n      0xffffffff\n      and\n      0xe0\n      shl\n      dup2\n      mstore\n      0x04\n      add\n      0x20\n      mload(0x40)\n      dup1\n      dup4\n      sub\n      dup2\n      dup7\n      gas\n      staticcall\n      swap3\n      pop\n      pop\n      pop\n      dup1\n      iszero\n      tag_250\n      jumpi\n      pop\n      0x40\n      dup1\n      mload\n      0x1f\n      returndatasize\n      swap1\n      dup2\n      add\n      not(0x1f)\n      and\n      dup3\n      add\n      swap1\n      swap3\n      mstore\n      tag_251\n      swap2\n      dup2\n      add\n      swap1\n      tag_142\n      jump\t// in\n    tag_251:\n      0x01\n    tag_250:\n        /* \"@openzeppelin/contracts-upgradeable/proxy/utils/UUPSUpgradeable.sol\":6127:6564  try IERC1822Proxiable(newImplementation).proxiableUUID() returns (bytes32 slot) {... */\n      tag_253\n      jumpi\n        /* \"@openzeppelin/contracts-upgradeable/proxy/utils/UUPSUpgradeable.sol\":6493:6553  ERC1967Utils.ERC1967InvalidImplementation(newImplementation) */\n      mload(0x40)\n      shl(0xe0, 0x4c9c8ce3)\n      dup2\n      mstore\n      sub(shl(0xa0, 0x01), 0x01)\n        /* \"#utility.yul\":1123:1155   */\n      dup4\n      and\n        /* \"@openzeppelin/contracts-upgradeable/proxy/utils/UUPSUpgradeable.sol\":6493:6553  ERC1967Utils.ERC1967InvalidImplementation(newImplementation) */\n      0x04\n      dup3\n      add\n        /* \"#utility.yul\":1105:1156   */\n      mstore\n        /* \"#utility.yul\":1078:1096   */\n      0x24\n      add\n        /* \"@openzeppelin/contracts-upgradeable/proxy/utils/UUPSUpgradeable.sol\":6493:6553  ERC1967Utils.ERC1967InvalidImplementation(newImplementation) */\n      tag_110\n        /* \"#utility.yul\":944:1162   */\n      jump\n        /* \"@openzeppelin/contracts-upgradeable/proxy/utils/UUPSUpgradeable.sol\":6127:6564  try IERC1822Proxiable(newImplementation).proxiableUUID() returns (bytes32 slot) {... */\n    tag_253:\n      mload(0x00)\n      codecopy(0x00, data_75b20eef8615de99c108b05f0dbda081c91897128caa336d75dffb97c4132b4d, 0x20)\n      mload(0x00)\n      swap1\n      0x00\n      mstore\n        /* \"@openzeppelin/contracts-upgradeable/proxy/utils/UUPSUpgradeable.sol\":6225:6265  slot != ERC1967Utils.IMPLEMENTATION_SLOT */\n      dup2\n      eq\n        /* \"@openzeppelin/contracts-upgradeable/proxy/utils/UUPSUpgradeable.sol\":6221:6341  if (slot != ERC1967Utils.IMPLEMENTATION_SLOT) {... */\n      tag_259\n      jumpi\n        /* \"@openzeppelin/contracts-upgradeable/proxy/utils/UUPSUpgradeable.sol\":6292:6326  UUPSUnsupportedProxiableUUID(slot) */\n      mload(0x40)\n      shl(0xe2, 0x2a875269)\n      dup2\n      mstore\n      0x04\n      dup2\n      add\n        /* \"#utility.yul\":529:554   */\n      dup3\n      swap1\n      mstore\n        /* \"#utility.yul\":502:520   */\n      0x24\n      add\n        /* \"@openzeppelin/contracts-upgradeable/proxy/utils/UUPSUpgradeable.sol\":6292:6326  UUPSUnsupportedProxiableUUID(slot) */\n      tag_110\n        /* \"#utility.yul\":383:560   */\n      jump\n        /* \"@openzeppelin/contracts-upgradeable/proxy/utils/UUPSUpgradeable.sol\":6221:6341  if (slot != ERC1967Utils.IMPLEMENTATION_SLOT) {... */\n    tag_259:\n        /* \"@openzeppelin/contracts-upgradeable/proxy/utils/UUPSUpgradeable.sol\":6354:6408  ERC1967Utils.upgradeToAndCall(newImplementation, data) */\n      tag_261\n        /* \"@openzeppelin/contracts-upgradeable/proxy/utils/UUPSUpgradeable.sol\":6384:6401  newImplementation */\n      dup4\n        /* \"@openzeppelin/contracts-upgradeable/proxy/utils/UUPSUpgradeable.sol\":6403:6407  data */\n      dup4\n        /* \"@openzeppelin/contracts-upgradeable/proxy/utils/UUPSUpgradeable.sol\":6354:6383  ERC1967Utils.upgradeToAndCall */\n      tag_262\n        /* \"@openzeppelin/contracts-upgradeable/proxy/utils/UUPSUpgradeable.sol\":6354:6408  ERC1967Utils.upgradeToAndCall(newImplementation, data) */\n      jump\t// in\n    tag_261:\n        /* \"@openzeppelin/contracts-upgradeable/proxy/utils/UUPSUpgradeable.sol\":6184:6419  returns (bytes32 slot) {... */\n      pop\n        /* \"@openzeppelin/contracts-upgradeable/proxy/utils/UUPSUpgradeable.sol\":6032:6570  function _upgradeToAndCallUUPS(address newImplementation, bytes memory data) private {... */\n      pop\n      pop\n      jump\t// out\n        /* \"@openzeppelin/contracts-upgradeable/proxy/utils/UUPSUpgradeable.sol\":5007:5220  function _checkNotDelegated() internal view virtual {... */\n    tag_128:\n        /* \"@openzeppelin/contracts-upgradeable/proxy/utils/UUPSUpgradeable.sol\":5081:5085  this */\n      address\n      sub(shl(0xa0, 0x01), 0x01)\n        /* \"@openzeppelin/contracts-upgradeable/proxy/utils/UUPSUpgradeable.sol\":5090:5096  __self */\n      immutable(\"0x4ce4dab4689da140a0c12de1a6af6b8f679594aeb723205f513e052d27f5b26f\")\n        /* \"@openzeppelin/contracts-upgradeable/proxy/utils/UUPSUpgradeable.sol\":5073:5096  address(this) != __self */\n      and\n      eq\n        /* \"@openzeppelin/contracts-upgradeable/proxy/utils/UUPSUpgradeable.sol\":5069:5214  if (address(this) != __self) {... */\n      tag_170\n      jumpi\n        /* \"@openzeppelin/contracts-upgradeable/proxy/utils/UUPSUpgradeable.sol\":5174:5203  UUPSUnauthorizedCallContext() */\n      mload(0x40)\n      shl(0xe1, 0x703e46dd)\n      dup2\n      mstore\n      0x04\n      add\n      mload(0x40)\n      dup1\n      swap2\n      sub\n      swap1\n      revert\n        /* \"@openzeppelin/contracts-upgradeable/access/OwnableUpgradeable.sol\":2658:2820  function _checkOwner() internal view virtual {... */\n    tag_168:\n        /* \"@openzeppelin/contracts-upgradeable/utils/ContextUpgradeable.sol\":966:976  msg.sender */\n      caller\n        /* \"@openzeppelin/contracts-upgradeable/access/OwnableUpgradeable.sol\":2717:2724  owner() */\n      tag_268\n        /* \"@openzeppelin/contracts-upgradeable/access/OwnableUpgradeable.sol\":1313:1335  OwnableStorageLocation */\n      0x9016d09d72d40fdae2fd8ceac6b6234c7706214fd39c1cd1e609a0528c199300\n        /* \"@openzeppelin/contracts-upgradeable/access/OwnableUpgradeable.sol\":2570:2578  $._owner */\n      sload\n      sub(shl(0xa0, 0x01), 0x01)\n      and\n      swap1\n        /* \"@openzeppelin/contracts-upgradeable/access/OwnableUpgradeable.sol\":2441:2585  function owner() public view virtual returns (address) {... */\n      jump\n        /* \"@openzeppelin/contracts-upgradeable/access/OwnableUpgradeable.sol\":2717:2724  owner() */\n    tag_268:\n      sub(shl(0xa0, 0x01), 0x01)\n        /* \"@openzeppelin/contracts-upgradeable/access/OwnableUpgradeable.sol\":2717:2740  owner() != _msgSender() */\n      and\n      eq\n        /* \"@openzeppelin/contracts-upgradeable/access/OwnableUpgradeable.sol\":2713:2814  if (owner() != _msgSender()) {... */\n      tag_170\n      jumpi\n        /* \"@openzeppelin/contracts-upgradeable/access/OwnableUpgradeable.sol\":2763:2803  OwnableUnauthorizedAccount(_msgSender()) */\n      mload(0x40)\n      shl(0xe0, 0x118cdaa7)\n      dup2\n      mstore\n        /* \"@openzeppelin/contracts-upgradeable/utils/ContextUpgradeable.sol\":966:976  msg.sender */\n      caller\n        /* \"@openzeppelin/contracts-upgradeable/access/OwnableUpgradeable.sol\":2763:2803  OwnableUnauthorizedAccount(_msgSender()) */\n      0x04\n      dup3\n      add\n        /* \"#utility.yul\":1105:1156   */\n      mstore\n        /* \"#utility.yul\":1078:1096   */\n      0x24\n      add\n        /* \"@openzeppelin/contracts-upgradeable/access/OwnableUpgradeable.sol\":2763:2803  OwnableUnauthorizedAccount(_msgSender()) */\n      tag_110\n        /* \"#utility.yul\":944:1162   */\n      jump\n        /* \"@openzeppelin/contracts-upgradeable/access/OwnableUpgradeable.sol\":3774:4022  function _transferOwnership(address newOwner) internal virtual {... */\n    tag_171:\n        /* \"@openzeppelin/contracts-upgradeable/access/OwnableUpgradeable.sol\":1313:1335  OwnableStorageLocation */\n      0x9016d09d72d40fdae2fd8ceac6b6234c7706214fd39c1cd1e609a0528c199300\n        /* \"@openzeppelin/contracts-upgradeable/access/OwnableUpgradeable.sol\":3923:3931  $._owner */\n      dup1\n      sload\n      not(sub(shl(0xa0, 0x01), 0x01))\n        /* \"@openzeppelin/contracts-upgradeable/access/OwnableUpgradeable.sol\":3941:3960  $._owner = newOwner */\n      dup2\n      and\n      sub(shl(0xa0, 0x01), 0x01)\n      dup5\n      dup2\n      and\n      swap2\n      dup3\n      or\n      dup5\n      sstore\n        /* \"@openzeppelin/contracts-upgradeable/access/OwnableUpgradeable.sol\":3975:4015  OwnershipTransferred(oldOwner, newOwner) */\n      mload(0x40)\n        /* \"@openzeppelin/contracts-upgradeable/access/OwnableUpgradeable.sol\":3923:3931  $._owner */\n      swap3\n      and\n      swap2\n      dup3\n      swap1\n        /* \"@openzeppelin/contracts-upgradeable/access/OwnableUpgradeable.sol\":3975:4015  OwnershipTransferred(oldOwner, newOwner) */\n      0x8be0079c531659141344cd1fd0a4f28419497f9722a3daafe3b4186f6b6457e0\n      swap1\n        /* \"@openzeppelin/contracts-upgradeable/access/OwnableUpgradeable.sol\":3847:3871  OwnableStorage storage $ */\n      0x00\n      swap1\n        /* \"@openzeppelin/contracts-upgradeable/access/OwnableUpgradeable.sol\":3975:4015  OwnershipTransferred(oldOwner, newOwner) */\n      log3\n        /* \"@openzeppelin/contracts-upgradeable/access/OwnableUpgradeable.sol\":3837:4022  {... */\n      pop\n      pop\n        /* \"@openzeppelin/contracts-upgradeable/access/OwnableUpgradeable.sol\":3774:4022  function _transferOwnership(address newOwner) internal virtual {... */\n      pop\n      jump\t// out\n        /* \"@openzeppelin/contracts-upgradeable/proxy/utils/Initializable.sol\":7082:7223  function _checkInitializing() internal view virtual {... */\n    tag_234:\n        /* \"@openzeppelin/contracts-upgradeable/proxy/utils/Initializable.sol\":7149:7166  _isInitializing() */\n      tag_277\n        /* \"@openzeppelin/contracts-upgradeable/proxy/utils/Initializable.sol\":7149:7164  _isInitializing */\n      tag_278\n        /* \"@openzeppelin/contracts-upgradeable/proxy/utils/Initializable.sol\":7149:7166  _isInitializing() */\n      jump\t// in\n    tag_277:\n        /* \"@openzeppelin/contracts-upgradeable/proxy/utils/Initializable.sol\":7144:7217  if (!_isInitializing()) {... */\n      tag_170\n      jumpi\n        /* \"@openzeppelin/contracts-upgradeable/proxy/utils/Initializable.sol\":7189:7206  NotInitializing() */\n      mload(0x40)\n      shl(0xe3, 0x1afcd79f)\n      dup2\n      mstore\n      0x04\n      add\n      mload(0x40)\n      dup1\n      swap2\n      sub\n      swap1\n      revert\n        /* \"@openzeppelin/contracts-upgradeable/access/OwnableUpgradeable.sol\":1980:2215  function __Ownable_init_unchained(address initialOwner) internal onlyInitializing {... */\n    tag_237:\n        /* \"@openzeppelin/contracts-upgradeable/proxy/utils/Initializable.sol\":6929:6949  _checkInitializing() */\n      tag_224\n        /* \"@openzeppelin/contracts-upgradeable/proxy/utils/Initializable.sol\":6929:6947  _checkInitializing */\n      tag_234\n        /* \"@openzeppelin/contracts-upgradeable/proxy/utils/Initializable.sol\":6929:6949  _checkInitializing() */\n      jump\t// in\n        /* \"@openzeppelin/contracts/proxy/ERC1967/ERC1967Utils.sol\":2264:2608  function upgradeToAndCall(address newImplementation, bytes memory data) internal {... */\n    tag_262:\n        /* \"@openzeppelin/contracts/proxy/ERC1967/ERC1967Utils.sol\":2355:2392  _setImplementation(newImplementation) */\n      tag_290\n        /* \"@openzeppelin/contracts/proxy/ERC1967/ERC1967Utils.sol\":2374:2391  newImplementation */\n      dup3\n        /* \"@openzeppelin/contracts/proxy/ERC1967/ERC1967Utils.sol\":2355:2373  _setImplementation */\n      tag_291\n        /* \"@openzeppelin/contracts/proxy/ERC1967/ERC1967Utils.sol\":2355:2392  _setImplementation(newImplementation) */\n      jump\t// in\n    tag_290:\n        /* \"@openzeppelin/contracts/proxy/ERC1967/ERC1967Utils.sol\":2407:2443  IERC1967.Upgraded(newImplementation) */\n      mload(0x40)\n      sub(shl(0xa0, 0x01), 0x01)\n      dup4\n      and\n      swap1\n      0xbc7cd75a20ee27fd9adebab32041f755214dbc6bffa90cc0225b39da2e5c2d3b\n      swap1\n      0x00\n      swap1\n      log2\n        /* \"@openzeppelin/contracts/proxy/ERC1967/ERC1967Utils.sol\":2458:2469  data.length */\n      dup1\n      mload\n        /* \"@openzeppelin/contracts/proxy/ERC1967/ERC1967Utils.sol\":2458:2473  data.length > 0 */\n      iszero\n        /* \"@openzeppelin/contracts/proxy/ERC1967/ERC1967Utils.sol\":2454:2602  if (data.length > 0) {... */\n      tag_292\n      jumpi\n        /* \"@openzeppelin/contracts/proxy/ERC1967/ERC1967Utils.sol\":2489:2542  Address.functionDelegateCall(newImplementation, data) */\n      tag_261\n        /* \"@openzeppelin/contracts/proxy/ERC1967/ERC1967Utils.sol\":2518:2535  newImplementation */\n      dup3\n        /* \"@openzeppelin/contracts/proxy/ERC1967/ERC1967Utils.sol\":2537:2541  data */\n      dup3\n        /* \"@openzeppelin/contracts/proxy/ERC1967/ERC1967Utils.sol\":2489:2517  Address.functionDelegateCall */\n      tag_294\n        /* \"@openzeppelin/contracts/proxy/ERC1967/ERC1967Utils.sol\":2489:2542  Address.functionDelegateCall(newImplementation, data) */\n      jump\t// in\n        /* \"@openzeppelin/contracts/proxy/ERC1967/ERC1967Utils.sol\":2454:2602  if (data.length > 0) {... */\n    tag_292:\n        /* \"@openzeppelin/contracts/proxy/ERC1967/ERC1967Utils.sol\":2573:2591  _checkNonPayable() */\n      tag_124\n        /* \"@openzeppelin/contracts/proxy/ERC1967/ERC1967Utils.sol\":2573:2589  _checkNonPayable */\n      tag_297\n        /* \"@openzeppelin/contracts/proxy/ERC1967/ERC1967Utils.sol\":2573:2591  _checkNonPayable() */\n      jump\t// in\n        /* \"@openzeppelin/contracts-upgradeable/proxy/utils/Initializable.sol\":8485:8605  function _isInitializing() internal view returns (bool) {... */\n    tag_278:\n        /* \"@openzeppelin/contracts-upgradeable/proxy/utils/Initializable.sol\":8535:8539  bool */\n      0x00\n        /* \"@openzeppelin/contracts-upgradeable/proxy/utils/Initializable.sol\":8558:8584  _getInitializableStorage() */\n      tag_299\n        /* \"@openzeppelin/contracts-upgradeable/proxy/utils/Initializable.sol\":8558:8582  _getInitializableStorage */\n      tag_98\n        /* \"@openzeppelin/contracts-upgradeable/proxy/utils/Initializable.sol\":8558:8584  _getInitializableStorage() */\n      jump\t// in\n    tag_299:\n        /* \"@openzeppelin/contracts-upgradeable/proxy/utils/Initializable.sol\":8558:8598  _getInitializableStorage()._initializing */\n      sload\n      shl(0x40, 0x01)\n      swap1\n      div\n      0xff\n      and\n      swap2\n      swap1\n      pop\n        /* \"@openzeppelin/contracts-upgradeable/proxy/utils/Initializable.sol\":8485:8605  function _isInitializing() internal view returns (bool) {... */\n      jump\t// out\n        /* \"@openzeppelin/contracts/proxy/ERC1967/ERC1967Utils.sol\":1671:1952  function _setImplementation(address newImplementation) private {... */\n    tag_291:\n        /* \"@openzeppelin/contracts/proxy/ERC1967/ERC1967Utils.sol\":1748:1765  newImplementation */\n      dup1\n      sub(shl(0xa0, 0x01), 0x01)\n        /* \"@openzeppelin/contracts/proxy/ERC1967/ERC1967Utils.sol\":1748:1777  newImplementation.code.length */\n      and\n      extcodesize\n        /* \"@openzeppelin/contracts/proxy/ERC1967/ERC1967Utils.sol\":1781:1782  0 */\n      0x00\n        /* \"@openzeppelin/contracts/proxy/ERC1967/ERC1967Utils.sol\":1748:1782  newImplementation.code.length == 0 */\n      sub\n        /* \"@openzeppelin/contracts/proxy/ERC1967/ERC1967Utils.sol\":1744:1863  if (newImplementation.code.length == 0) {... */\n      tag_302\n      jumpi\n        /* \"@openzeppelin/contracts/proxy/ERC1967/ERC1967Utils.sol\":1805:1852  ERC1967InvalidImplementation(newImplementation) */\n      mload(0x40)\n      shl(0xe0, 0x4c9c8ce3)\n      dup2\n      mstore\n      sub(shl(0xa0, 0x01), 0x01)\n        /* \"#utility.yul\":1123:1155   */\n      dup3\n      and\n        /* \"@openzeppelin/contracts/proxy/ERC1967/ERC1967Utils.sol\":1805:1852  ERC1967InvalidImplementation(newImplementation) */\n      0x04\n      dup3\n      add\n        /* \"#utility.yul\":1105:1156   */\n      mstore\n        /* \"#utility.yul\":1078:1096   */\n      0x24\n      add\n        /* \"@openzeppelin/contracts/proxy/ERC1967/ERC1967Utils.sol\":1805:1852  ERC1967InvalidImplementation(newImplementation) */\n      tag_110\n        /* \"#utility.yul\":944:1162   */\n      jump\n        /* \"@openzeppelin/contracts/proxy/ERC1967/ERC1967Utils.sol\":1744:1863  if (newImplementation.code.length == 0) {... */\n    tag_302:\n      mload(0x00)\n      codecopy(0x00, data_75b20eef8615de99c108b05f0dbda081c91897128caa336d75dffb97c4132b4d, 0x20)\n      mload(0x00)\n      swap1\n      0x00\n      mstore\n        /* \"@openzeppelin/contracts/proxy/ERC1967/ERC1967Utils.sol\":1872:1945  StorageSlot.getAddressSlot(IMPLEMENTATION_SLOT).value = newImplementation */\n      dup1\n      sload\n      not(sub(shl(0xa0, 0x01), 0x01))\n      and\n      sub(shl(0xa0, 0x01), 0x01)\n      swap3\n      swap1\n      swap3\n      and\n      swap2\n      swap1\n      swap2\n      or\n      swap1\n      sstore\n        /* \"@openzeppelin/contracts/proxy/ERC1967/ERC1967Utils.sol\":1671:1952  function _setImplementation(address newImplementation) private {... */\n      jump\t// out\n        /* \"@openzeppelin/contracts/utils/Address.sol\":3916:4169  function functionDelegateCall(address target, bytes memory data) internal returns (bytes memory) {... */\n    tag_294:\n        /* \"@openzeppelin/contracts/utils/Address.sol\":3999:4011  bytes memory */\n      0x60\n        /* \"@openzeppelin/contracts/utils/Address.sol\":4024:4036  bool success */\n      0x00\n        /* \"@openzeppelin/contracts/utils/Address.sol\":4038:4061  bytes memory returndata */\n      0x00\n        /* \"@openzeppelin/contracts/utils/Address.sol\":4065:4071  target */\n      dup5\n      sub(shl(0xa0, 0x01), 0x01)\n        /* \"@openzeppelin/contracts/utils/Address.sol\":4065:4084  target.delegatecall */\n      and\n        /* \"@openzeppelin/contracts/utils/Address.sol\":4085:4089  data */\n      dup5\n        /* \"@openzeppelin/contracts/utils/Address.sol\":4065:4090  target.delegatecall(data) */\n      mload(0x40)\n      tag_306\n      swap2\n      swap1\n      tag_307\n      jump\t// in\n    tag_306:\n      0x00\n      mload(0x40)\n      dup1\n      dup4\n      sub\n      dup2\n      dup6\n      gas\n      delegatecall\n      swap2\n      pop\n      pop\n      returndatasize\n      dup1\n      0x00\n      dup2\n      eq\n      tag_310\n      jumpi\n      mload(0x40)\n      swap2\n      pop\n      and(add(returndatasize, 0x3f), not(0x1f))\n      dup3\n      add\n      0x40\n      mstore\n      returndatasize\n      dup3\n      mstore\n      returndatasize\n      0x00\n      0x20\n      dup5\n      add\n      returndatacopy\n      jump(tag_309)\n    tag_310:\n      0x60\n      swap2\n      pop\n    tag_309:\n      pop\n        /* \"@openzeppelin/contracts/utils/Address.sol\":4023:4090  (bool success, bytes memory returndata) = target.delegatecall(data) */\n      swap2\n      pop\n      swap2\n      pop\n        /* \"@openzeppelin/contracts/utils/Address.sol\":4107:4162  verifyCallResultFromTarget(target, success, returndata) */\n      tag_311\n        /* \"@openzeppelin/contracts/utils/Address.sol\":4134:4140  target */\n      dup6\n        /* \"@openzeppelin/contracts/utils/Address.sol\":4142:4149  success */\n      dup4\n        /* \"@openzeppelin/contracts/utils/Address.sol\":4151:4161  returndata */\n      dup4\n        /* \"@openzeppelin/contracts/utils/Address.sol\":4107:4133  verifyCallResultFromTarget */\n      tag_312\n        /* \"@openzeppelin/contracts/utils/Address.sol\":4107:4162  verifyCallResultFromTarget(target, success, returndata) */\n      jump\t// in\n    tag_311:\n        /* \"@openzeppelin/contracts/utils/Address.sol\":4100:4162  return verifyCallResultFromTarget(target, success, returndata) */\n      swap6\n        /* \"@openzeppelin/contracts/utils/Address.sol\":3916:4169  function functionDelegateCall(address target, bytes memory data) internal returns (bytes memory) {... */\n      swap5\n      pop\n      pop\n      pop\n      pop\n      pop\n      jump\t// out\n        /* \"@openzeppelin/contracts/proxy/ERC1967/ERC1967Utils.sol\":6113:6235  function _checkNonPayable() private {... */\n    tag_297:\n        /* \"@openzeppelin/contracts/proxy/ERC1967/ERC1967Utils.sol\":6163:6172  msg.value */\n      callvalue\n        /* \"@openzeppelin/contracts/proxy/ERC1967/ERC1967Utils.sol\":6163:6176  msg.value > 0 */\n      iszero\n        /* \"@openzeppelin/contracts/proxy/ERC1967/ERC1967Utils.sol\":6159:6229  if (msg.value > 0) {... */\n      tag_170\n      jumpi\n        /* \"@openzeppelin/contracts/proxy/ERC1967/ERC1967Utils.sol\":6199:6218  ERC1967NonPayable() */\n      mload(0x40)\n      shl(0xe0, 0xb398979f)\n      dup2\n      mstore\n      0x04\n      add\n      mload(0x40)\n      dup1\n      swap2\n      sub\n      swap1\n      revert\n        /* \"@openzeppelin/contracts/utils/Address.sol\":4437:5019  function verifyCallResultFromTarget(... */\n    tag_312:\n        /* \"@openzeppelin/contracts/utils/Address.sol\":4581:4593  bytes memory */\n      0x60\n        /* \"@openzeppelin/contracts/utils/Address.sol\":4610:4617  success */\n      dup3\n        /* \"@openzeppelin/contracts/utils/Address.sol\":4605:5013  if (!success) {... */\n      tag_316\n      jumpi\n        /* \"@openzeppelin/contracts/utils/Address.sol\":4633:4652  _revert(returndata) */\n      tag_317\n        /* \"@openzeppelin/contracts/utils/Address.sol\":4641:4651  returndata */\n      dup3\n        /* \"@openzeppelin/contracts/utils/Address.sol\":4633:4640  _revert */\n      tag_318\n        /* \"@openzeppelin/contracts/utils/Address.sol\":4633:4652  _revert(returndata) */\n      jump\t// in\n    tag_317:\n        /* \"@openzeppelin/contracts/utils/Address.sol\":4605:5013  if (!success) {... */\n      jump(tag_319)\n    tag_316:\n        /* \"@openzeppelin/contracts/utils/Address.sol\":4857:4874  returndata.length */\n      dup2\n      mload\n        /* \"@openzeppelin/contracts/utils/Address.sol\":4857:4879  returndata.length == 0 */\n      iszero\n        /* \"@openzeppelin/contracts/utils/Address.sol\":4857:4906  returndata.length == 0 && target.code.length == 0 */\n      dup1\n      iszero\n      tag_320\n      jumpi\n      pop\n      sub(shl(0xa0, 0x01), 0x01)\n        /* \"@openzeppelin/contracts/utils/Address.sol\":4883:4901  target.code.length */\n      dup5\n      and\n      extcodesize\n        /* \"@openzeppelin/contracts/utils/Address.sol\":4883:4906  target.code.length == 0 */\n      iszero\n        /* \"@openzeppelin/contracts/utils/Address.sol\":4857:4906  returndata.length == 0 && target.code.length == 0 */\n    tag_320:\n        /* \"@openzeppelin/contracts/utils/Address.sol\":4853:4972  if (returndata.length == 0 && target.code.length == 0) {... */\n      iszero\n      tag_321\n      jumpi\n        /* \"@openzeppelin/contracts/utils/Address.sol\":4933:4957  AddressEmptyCode(target) */\n      mload(0x40)\n      shl(0xe0, 0x9996b315)\n      dup2\n      mstore\n      sub(shl(0xa0, 0x01), 0x01)\n        /* \"#utility.yul\":1123:1155   */\n      dup6\n      and\n        /* \"@openzeppelin/contracts/utils/Address.sol\":4933:4957  AddressEmptyCode(target) */\n      0x04\n      dup3\n      add\n        /* \"#utility.yul\":1105:1156   */\n      mstore\n        /* \"#utility.yul\":1078:1096   */\n      0x24\n      add\n        /* \"@openzeppelin/contracts/utils/Address.sol\":4933:4957  AddressEmptyCode(target) */\n      tag_110\n        /* \"#utility.yul\":944:1162   */\n      jump\n        /* \"@openzeppelin/contracts/utils/Address.sol\":4853:4972  if (returndata.length == 0 && target.code.length == 0) {... */\n    tag_321:\n      pop\n        /* \"@openzeppelin/contracts/utils/Address.sol\":4992:5002  returndata */\n      dup1\n        /* \"@openzeppelin/contracts/utils/Address.sol\":4605:5013  if (!success) {... */\n    tag_319:\n        /* \"@openzeppelin/contracts/utils/Address.sol\":4437:5019  function verifyCallResultFromTarget(... */\n      swap4\n      swap3\n      pop\n      pop\n      pop\n      jump\t// out\n        /* \"@openzeppelin/contracts/utils/Address.sol\":5559:6046  function _revert(bytes memory returndata) private pure {... */\n    tag_318:\n        /* \"@openzeppelin/contracts/utils/Address.sol\":5690:5707  returndata.length */\n      dup1\n      mload\n        /* \"@openzeppelin/contracts/utils/Address.sol\":5690:5711  returndata.length > 0 */\n      iszero\n        /* \"@openzeppelin/contracts/utils/Address.sol\":5686:6040  if (returndata.length > 0) {... */\n      tag_324\n      jumpi\n        /* \"@openzeppelin/contracts/utils/Address.sol\":5887:5897  returndata */\n      dup1\n        /* \"@openzeppelin/contracts/utils/Address.sol\":5881:5898  mload(returndata) */\n      mload\n        /* \"@openzeppelin/contracts/utils/Address.sol\":5943:5958  returndata_size */\n      dup1\n        /* \"@openzeppelin/contracts/utils/Address.sol\":5930:5940  returndata */\n      dup3\n        /* \"@openzeppelin/contracts/utils/Address.sol\":5926:5928  32 */\n      0x20\n        /* \"@openzeppelin/contracts/utils/Address.sol\":5922:5941  add(32, returndata) */\n      add\n        /* \"@openzeppelin/contracts/utils/Address.sol\":5915:5959  revert(add(32, returndata), returndata_size) */\n      revert\n        /* \"@openzeppelin/contracts/utils/Address.sol\":5686:6040  if (returndata.length > 0) {... */\n    tag_324:\n        /* \"@openzeppelin/contracts/utils/Address.sol\":6010:6029  Errors.FailedCall() */\n      mload(0x40)\n      shl(0xe0, 0xd6bda275)\n      dup2\n      mstore\n      0x04\n      add\n      mload(0x40)\n      dup1\n      swap2\n      sub\n      swap1\n      revert\n        /* \"#utility.yul\":14:187   */\n    tag_326:\n        /* \"#utility.yul\":82:102   */\n      dup1\n      calldataload\n      sub(shl(0xa0, 0x01), 0x01)\n        /* \"#utility.yul\":131:162   */\n      dup2\n      and\n        /* \"#utility.yul\":121:163   */\n      dup2\n      eq\n        /* \"#utility.yul\":111:181   */\n      tag_332\n      jumpi\n        /* \"#utility.yul\":177:178   */\n      0x00\n        /* \"#utility.yul\":174:175   */\n      0x00\n        /* \"#utility.yul\":167:179   */\n      revert\n        /* \"#utility.yul\":111:181   */\n    tag_332:\n        /* \"#utility.yul\":14:187   */\n      swap2\n      swap1\n      pop\n      jump\t// out\n        /* \"#utility.yul\":192:378   */\n    tag_24:\n        /* \"#utility.yul\":251:257   */\n      0x00\n        /* \"#utility.yul\":304:306   */\n      0x20\n        /* \"#utility.yul\":292:301   */\n      dup3\n        /* \"#utility.yul\":283:290   */\n      dup5\n        /* \"#utility.yul\":279:302   */\n      sub\n        /* \"#utility.yul\":275:307   */\n      slt\n        /* \"#utility.yul\":272:324   */\n      iszero\n      tag_334\n      jumpi\n        /* \"#utility.yul\":320:321   */\n      0x00\n        /* \"#utility.yul\":317:318   */\n      0x00\n        /* \"#utility.yul\":310:322   */\n      revert\n        /* \"#utility.yul\":272:324   */\n    tag_334:\n        /* \"#utility.yul\":343:372   */\n      tag_319\n        /* \"#utility.yul\":362:371   */\n      dup3\n        /* \"#utility.yul\":343:372   */\n      tag_326\n      jump\t// in\n        /* \"#utility.yul\":565:939   */\n    tag_31:\n        /* \"#utility.yul\":642:648   */\n      0x00\n        /* \"#utility.yul\":650:656   */\n      0x00\n        /* \"#utility.yul\":658:664   */\n      0x00\n        /* \"#utility.yul\":711:713   */\n      0x60\n        /* \"#utility.yul\":699:708   */\n      dup5\n        /* \"#utility.yul\":690:697   */\n      dup7\n        /* \"#utility.yul\":686:709   */\n      sub\n        /* \"#utility.yul\":682:714   */\n      slt\n        /* \"#utility.yul\":679:731   */\n      iszero\n      tag_338\n      jumpi\n        /* \"#utility.yul\":727:728   */\n      0x00\n        /* \"#utility.yul\":724:725   */\n      0x00\n        /* \"#utility.yul\":717:729   */\n      revert\n        /* \"#utility.yul\":679:731   */\n    tag_338:\n        /* \"#utility.yul\":750:779   */\n      tag_339\n        /* \"#utility.yul\":769:778   */\n      dup5\n        /* \"#utility.yul\":750:779   */\n      tag_326\n      jump\t// in\n    tag_339:\n        /* \"#utility.yul\":740:779   */\n      swap3\n      pop\n        /* \"#utility.yul\":798:836   */\n      tag_340\n        /* \"#utility.yul\":832:834   */\n      0x20\n        /* \"#utility.yul\":821:830   */\n      dup6\n        /* \"#utility.yul\":817:835   */\n      add\n        /* \"#utility.yul\":798:836   */\n      tag_326\n      jump\t// in\n    tag_340:\n        /* \"#utility.yul\":565:939   */\n      swap3\n      swap6\n        /* \"#utility.yul\":788:836   */\n      swap3\n      swap5\n      pop\n      pop\n      pop\n        /* \"#utility.yul\":905:907   */\n      0x40\n        /* \"#utility.yul\":890:908   */\n      swap2\n      swap1\n      swap2\n      add\n        /* \"#utility.yul\":877:909   */\n      calldataload\n      swap1\n        /* \"#utility.yul\":565:939   */\n      jump\t// out\n        /* \"#utility.yul\":1359:1486   */\n    tag_327:\n        /* \"#utility.yul\":1420:1430   */\n      0x4e487b71\n        /* \"#utility.yul\":1415:1418   */\n      0xe0\n        /* \"#utility.yul\":1411:1431   */\n      shl\n        /* \"#utility.yul\":1408:1409   */\n      0x00\n        /* \"#utility.yul\":1401:1432   */\n      mstore\n        /* \"#utility.yul\":1451:1455   */\n      0x41\n        /* \"#utility.yul\":1448:1449   */\n      0x04\n        /* \"#utility.yul\":1441:1456   */\n      mstore\n        /* \"#utility.yul\":1475:1479   */\n      0x24\n        /* \"#utility.yul\":1472:1473   */\n      0x00\n        /* \"#utility.yul\":1465:1480   */\n      revert\n        /* \"#utility.yul\":1491:2509   */\n    tag_46:\n        /* \"#utility.yul\":1568:1574   */\n      0x00\n        /* \"#utility.yul\":1576:1582   */\n      0x00\n        /* \"#utility.yul\":1629:1631   */\n      0x40\n        /* \"#utility.yul\":1617:1626   */\n      dup4\n        /* \"#utility.yul\":1608:1615   */\n      dup6\n        /* \"#utility.yul\":1604:1627   */\n      sub\n        /* \"#utility.yul\":1600:1632   */\n      slt\n        /* \"#utility.yul\":1597:1649   */\n      iszero\n      tag_345\n      jumpi\n        /* \"#utility.yul\":1645:1646   */\n      0x00\n        /* \"#utility.yul\":1642:1643   */\n      0x00\n        /* \"#utility.yul\":1635:1647   */\n      revert\n        /* \"#utility.yul\":1597:1649   */\n    tag_345:\n        /* \"#utility.yul\":1668:1697   */\n      tag_346\n        /* \"#utility.yul\":1687:1696   */\n      dup4\n        /* \"#utility.yul\":1668:1697   */\n      tag_326\n      jump\t// in\n    tag_346:\n        /* \"#utility.yul\":1658:1697   */\n      swap2\n      pop\n        /* \"#utility.yul\":1748:1750   */\n      0x20\n        /* \"#utility.yul\":1737:1746   */\n      dup4\n        /* \"#utility.yul\":1733:1751   */\n      add\n        /* \"#utility.yul\":1720:1752   */\n      calldataload\n        /* \"#utility.yul\":1775:1793   */\n      0xffffffffffffffff\n        /* \"#utility.yul\":1767:1773   */\n      dup2\n        /* \"#utility.yul\":1764:1794   */\n      gt\n        /* \"#utility.yul\":1761:1811   */\n      iszero\n      tag_347\n      jumpi\n        /* \"#utility.yul\":1807:1808   */\n      0x00\n        /* \"#utility.yul\":1804:1805   */\n      0x00\n        /* \"#utility.yul\":1797:1809   */\n      revert\n        /* \"#utility.yul\":1761:1811   */\n    tag_347:\n        /* \"#utility.yul\":1830:1852   */\n      dup4\n      add\n        /* \"#utility.yul\":1883:1887   */\n      0x1f\n        /* \"#utility.yul\":1875:1888   */\n      dup2\n      add\n        /* \"#utility.yul\":1871:1898   */\n      dup6\n      sgt\n        /* \"#utility.yul\":1861:1916   */\n      tag_348\n      jumpi\n        /* \"#utility.yul\":1912:1913   */\n      0x00\n        /* \"#utility.yul\":1909:1910   */\n      0x00\n        /* \"#utility.yul\":1902:1914   */\n      revert\n        /* \"#utility.yul\":1861:1916   */\n    tag_348:\n        /* \"#utility.yul\":1952:1954   */\n      dup1\n        /* \"#utility.yul\":1939:1955   */\n      calldataload\n        /* \"#utility.yul\":1978:1996   */\n      0xffffffffffffffff\n        /* \"#utility.yul\":1970:1976   */\n      dup2\n        /* \"#utility.yul\":1967:1997   */\n      gt\n        /* \"#utility.yul\":1964:2020   */\n      iszero\n      tag_350\n      jumpi\n        /* \"#utility.yul\":2000:2018   */\n      tag_350\n      tag_327\n      jump\t// in\n    tag_350:\n        /* \"#utility.yul\":2049:2051   */\n      0x40\n        /* \"#utility.yul\":2043:2052   */\n      mload\n        /* \"#utility.yul\":2141:2143   */\n      0x1f\n        /* \"#utility.yul\":2103:2120   */\n      dup3\n      add\n      not(0x1f)\n        /* \"#utility.yul\":2099:2130   */\n      swap1\n      dup2\n      and\n        /* \"#utility.yul\":2132:2134   */\n      0x3f\n        /* \"#utility.yul\":2095:2135   */\n      add\n        /* \"#utility.yul\":2091:2145   */\n      and\n        /* \"#utility.yul\":2079:2146   */\n      dup2\n      add\n        /* \"#utility.yul\":2176:2194   */\n      0xffffffffffffffff\n        /* \"#utility.yul\":2161:2195   */\n      dup2\n      gt\n        /* \"#utility.yul\":2197:2219   */\n      dup3\n      dup3\n      lt\n        /* \"#utility.yul\":2158:2220   */\n      or\n        /* \"#utility.yul\":2155:2243   */\n      iszero\n      tag_352\n      jumpi\n        /* \"#utility.yul\":2223:2241   */\n      tag_352\n      tag_327\n      jump\t// in\n    tag_352:\n        /* \"#utility.yul\":2259:2261   */\n      0x40\n        /* \"#utility.yul\":2252:2274   */\n      mstore\n        /* \"#utility.yul\":2283:2305   */\n      dup2\n      dup2\n      mstore\n        /* \"#utility.yul\":2324:2339   */\n      dup3\n      dup3\n      add\n        /* \"#utility.yul\":2341:2343   */\n      0x20\n        /* \"#utility.yul\":2320:2344   */\n      add\n        /* \"#utility.yul\":2317:2354   */\n      dup8\n      lt\n        /* \"#utility.yul\":2314:2371   */\n      iszero\n      tag_353\n      jumpi\n        /* \"#utility.yul\":2367:2368   */\n      0x00\n        /* \"#utility.yul\":2364:2365   */\n      0x00\n        /* \"#utility.yul\":2357:2369   */\n      revert\n        /* \"#utility.yul\":2314:2371   */\n    tag_353:\n        /* \"#utility.yul\":2423:2429   */\n      dup2\n        /* \"#utility.yul\":2418:2420   */\n      0x20\n        /* \"#utility.yul\":2414:2416   */\n      dup5\n        /* \"#utility.yul\":2410:2421   */\n      add\n        /* \"#utility.yul\":2405:2407   */\n      0x20\n        /* \"#utility.yul\":2397:2403   */\n      dup4\n        /* \"#utility.yul\":2393:2408   */\n      add\n        /* \"#utility.yul\":2380:2430   */\n      calldatacopy\n        /* \"#utility.yul\":2476:2477   */\n      0x00\n        /* \"#utility.yul\":2471:2473   */\n      0x20\n        /* \"#utility.yul\":2462:2468   */\n      dup4\n        /* \"#utility.yul\":2454:2460   */\n      dup4\n        /* \"#utility.yul\":2450:2469   */\n      add\n        /* \"#utility.yul\":2446:2474   */\n      add\n        /* \"#utility.yul\":2439:2478   */\n      mstore\n        /* \"#utility.yul\":2497:2503   */\n      dup1\n        /* \"#utility.yul\":2487:2503   */\n      swap4\n      pop\n      pop\n      pop\n      pop\n        /* \"#utility.yul\":1491:2509   */\n      swap3\n      pop\n      swap3\n      swap1\n      pop\n      jump\t// out\n        /* \"#utility.yul\":2696:2922   */\n    tag_56:\n        /* \"#utility.yul\":2755:2761   */\n      0x00\n        /* \"#utility.yul\":2808:2810   */\n      0x20\n        /* \"#utility.yul\":2796:2805   */\n      dup3\n        /* \"#utility.yul\":2787:2794   */\n      dup5\n        /* \"#utility.yul\":2783:2806   */\n      sub\n        /* \"#utility.yul\":2779:2811   */\n      slt\n        /* \"#utility.yul\":2776:2828   */\n      iszero\n      tag_356\n      jumpi\n        /* \"#utility.yul\":2824:2825   */\n      0x00\n        /* \"#utility.yul\":2821:2822   */\n      0x00\n        /* \"#utility.yul\":2814:2826   */\n      revert\n        /* \"#utility.yul\":2776:2828   */\n    tag_356:\n      pop\n        /* \"#utility.yul\":2869:2892   */\n      calldataload\n      swap2\n        /* \"#utility.yul\":2696:2922   */\n      swap1\n      pop\n      jump\t// out\n        /* \"#utility.yul\":3135:3553   */\n    tag_82:\n        /* \"#utility.yul\":3284:3286   */\n      0x20\n        /* \"#utility.yul\":3273:3282   */\n      dup2\n        /* \"#utility.yul\":3266:3287   */\n      mstore\n        /* \"#utility.yul\":3247:3251   */\n      0x00\n        /* \"#utility.yul\":3316:3322   */\n      dup3\n        /* \"#utility.yul\":3310:3323   */\n      mload\n        /* \"#utility.yul\":3359:3365   */\n      dup1\n        /* \"#utility.yul\":3354:3356   */\n      0x20\n        /* \"#utility.yul\":3343:3352   */\n      dup5\n        /* \"#utility.yul\":3339:3357   */\n      add\n        /* \"#utility.yul\":3332:3366   */\n      mstore\n        /* \"#utility.yul\":3418:3424   */\n      dup1\n        /* \"#utility.yul\":3413:3415   */\n      0x20\n        /* \"#utility.yul\":3405:3411   */\n      dup6\n        /* \"#utility.yul\":3401:3416   */\n      add\n        /* \"#utility.yul\":3396:3398   */\n      0x40\n        /* \"#utility.yul\":3385:3394   */\n      dup6\n        /* \"#utility.yul\":3381:3399   */\n      add\n        /* \"#utility.yul\":3375:3425   */\n      mcopy\n        /* \"#utility.yul\":3474:3475   */\n      0x00\n        /* \"#utility.yul\":3469:3471   */\n      0x40\n        /* \"#utility.yul\":3460:3466   */\n      dup3\n        /* \"#utility.yul\":3449:3458   */\n      dup6\n        /* \"#utility.yul\":3445:3467   */\n      add\n        /* \"#utility.yul\":3441:3472   */\n      add\n        /* \"#utility.yul\":3434:3476   */\n      mstore\n        /* \"#utility.yul\":3544:3546   */\n      0x40\n        /* \"#utility.yul\":3537:3539   */\n      0x1f\n        /* \"#utility.yul\":3533:3540   */\n      not\n        /* \"#utility.yul\":3528:3530   */\n      0x1f\n        /* \"#utility.yul\":3520:3526   */\n      dup4\n        /* \"#utility.yul\":3516:3531   */\n      add\n        /* \"#utility.yul\":3512:3541   */\n      and\n        /* \"#utility.yul\":3501:3510   */\n      dup5\n        /* \"#utility.yul\":3497:3542   */\n      add\n        /* \"#utility.yul\":3493:3547   */\n      add\n        /* \"#utility.yul\":3485:3547   */\n      swap2\n      pop\n      pop\n        /* \"#utility.yul\":3135:3553   */\n      swap3\n      swap2\n      pop\n      pop\n      jump\t// out\n        /* \"#utility.yul\":3558:3676   */\n    tag_328:\n        /* \"#utility.yul\":3644:3649   */\n      dup1\n        /* \"#utility.yul\":3637:3650   */\n      iszero\n        /* \"#utility.yul\":3630:3651   */\n      iszero\n        /* \"#utility.yul\":3623:3628   */\n      dup2\n        /* \"#utility.yul\":3620:3652   */\n      eq\n        /* \"#utility.yul\":3610:3670   */\n      tag_228\n      jumpi\n        /* \"#utility.yul\":3666:3667   */\n      0x00\n        /* \"#utility.yul\":3663:3664   */\n      0x00\n        /* \"#utility.yul\":3656:3668   */\n      revert\n        /* \"#utility.yul\":3681:3996   */\n    tag_90:\n        /* \"#utility.yul\":3746:3752   */\n      0x00\n        /* \"#utility.yul\":3754:3760   */\n      0x00\n        /* \"#utility.yul\":3807:3809   */\n      0x40\n        /* \"#utility.yul\":3795:3804   */\n      dup4\n        /* \"#utility.yul\":3786:3793   */\n      dup6\n        /* \"#utility.yul\":3782:3805   */\n      sub\n        /* \"#utility.yul\":3778:3810   */\n      slt\n        /* \"#utility.yul\":3775:3827   */\n      iszero\n      tag_362\n      jumpi\n        /* \"#utility.yul\":3823:3824   */\n      0x00\n        /* \"#utility.yul\":3820:3821   */\n      0x00\n        /* \"#utility.yul\":3813:3825   */\n      revert\n        /* \"#utility.yul\":3775:3827   */\n    tag_362:\n        /* \"#utility.yul\":3846:3875   */\n      tag_363\n        /* \"#utility.yul\":3865:3874   */\n      dup4\n        /* \"#utility.yul\":3846:3875   */\n      tag_326\n      jump\t// in\n    tag_363:\n        /* \"#utility.yul\":3836:3875   */\n      swap2\n      pop\n        /* \"#utility.yul\":3925:3927   */\n      0x20\n        /* \"#utility.yul\":3914:3923   */\n      dup4\n        /* \"#utility.yul\":3910:3928   */\n      add\n        /* \"#utility.yul\":3897:3929   */\n      calldataload\n        /* \"#utility.yul\":3938:3966   */\n      tag_364\n        /* \"#utility.yul\":3960:3965   */\n      dup2\n        /* \"#utility.yul\":3938:3966   */\n      tag_328\n      jump\t// in\n    tag_364:\n        /* \"#utility.yul\":3985:3990   */\n      dup1\n        /* \"#utility.yul\":3975:3990   */\n      swap2\n      pop\n      pop\n        /* \"#utility.yul\":3681:3996   */\n      swap3\n      pop\n      swap3\n      swap1\n      pop\n      jump\t// out\n        /* \"#utility.yul\":5259:5386   */\n    tag_329:\n        /* \"#utility.yul\":5320:5330   */\n      0x4e487b71\n        /* \"#utility.yul\":5315:5318   */\n      0xe0\n        /* \"#utility.yul\":5311:5331   */\n      shl\n        /* \"#utility.yul\":5308:5309   */\n      0x00\n        /* \"#utility.yul\":5301:5332   */\n      mstore\n        /* \"#utility.yul\":5351:5355   */\n      0x11\n        /* \"#utility.yul\":5348:5349   */\n      0x04\n        /* \"#utility.yul\":5341:5356   */\n      mstore\n        /* \"#utility.yul\":5375:5379   */\n      0x24\n        /* \"#utility.yul\":5372:5373   */\n      0x00\n        /* \"#utility.yul\":5365:5380   */\n      revert\n        /* \"#utility.yul\":5391:5516   */\n    tag_135:\n        /* \"#utility.yul\":5456:5465   */\n      dup1\n      dup3\n      add\n        /* \"#utility.yul\":5477:5487   */\n      dup1\n      dup3\n      gt\n        /* \"#utility.yul\":5474:5510   */\n      iszero\n      tag_230\n      jumpi\n        /* \"#utility.yul\":5490:5508   */\n      tag_230\n      tag_329\n      jump\t// in\n        /* \"#utility.yul\":5865:6049   */\n    tag_142:\n        /* \"#utility.yul\":5935:5941   */\n      0x00\n        /* \"#utility.yul\":5988:5990   */\n      0x20\n        /* \"#utility.yul\":5976:5985   */\n      dup3\n        /* \"#utility.yul\":5967:5974   */\n      dup5\n        /* \"#utility.yul\":5963:5986   */\n      sub\n        /* \"#utility.yul\":5959:5991   */\n      slt\n        /* \"#utility.yul\":5956:6008   */\n      iszero\n      tag_375\n      jumpi\n        /* \"#utility.yul\":6004:6005   */\n      0x00\n        /* \"#utility.yul\":6001:6002   */\n      0x00\n        /* \"#utility.yul\":5994:6006   */\n      revert\n        /* \"#utility.yul\":5956:6008   */\n    tag_375:\n      pop\n        /* \"#utility.yul\":6027:6043   */\n      mload\n      swap2\n        /* \"#utility.yul\":5865:6049   */\n      swap1\n      pop\n      jump\t// out\n        /* \"#utility.yul\":6054:6222   */\n    tag_148:\n        /* \"#utility.yul\":6127:6136   */\n      dup1\n      dup3\n      mul\n        /* \"#utility.yul\":6158:6167   */\n      dup2\n      iszero\n        /* \"#utility.yul\":6175:6190   */\n      dup3\n      dup3\n      div\n        /* \"#utility.yul\":6169:6191   */\n      dup5\n      eq\n        /* \"#utility.yul\":6155:6192   */\n      or\n        /* \"#utility.yul\":6145:6216   */\n      tag_230\n      jumpi\n        /* \"#utility.yul\":6196:6214   */\n      tag_230\n      tag_329\n      jump\t// in\n        /* \"#utility.yul\":6227:6444   */\n    tag_150:\n        /* \"#utility.yul\":6267:6268   */\n      0x00\n        /* \"#utility.yul\":6293:6294   */\n      dup3\n        /* \"#utility.yul\":6283:6415   */\n      tag_380\n      jumpi\n        /* \"#utility.yul\":6337:6347   */\n      0x4e487b71\n        /* \"#utility.yul\":6332:6335   */\n      0xe0\n        /* \"#utility.yul\":6328:6348   */\n      shl\n        /* \"#utility.yul\":6325:6326   */\n      0x00\n        /* \"#utility.yul\":6318:6349   */\n      mstore\n        /* \"#utility.yul\":6372:6376   */\n      0x12\n        /* \"#utility.yul\":6369:6370   */\n      0x04\n        /* \"#utility.yul\":6362:6377   */\n      mstore\n        /* \"#utility.yul\":6400:6404   */\n      0x24\n        /* \"#utility.yul\":6397:6398   */\n      0x00\n        /* \"#utility.yul\":6390:6405   */\n      revert\n        /* \"#utility.yul\":6283:6415   */\n    tag_380:\n      pop\n        /* \"#utility.yul\":6429:6438   */\n      div\n      swap1\n        /* \"#utility.yul\":6227:6444   */\n      jump\t// out\n        /* \"#utility.yul\":6728:6973   */\n    tag_163:\n        /* \"#utility.yul\":6795:6801   */\n      0x00\n        /* \"#utility.yul\":6848:6850   */\n      0x20\n        /* \"#utility.yul\":6836:6845   */\n      dup3\n        /* \"#utility.yul\":6827:6834   */\n      dup5\n        /* \"#utility.yul\":6823:6846   */\n      sub\n        /* \"#utility.yul\":6819:6851   */\n      slt\n        /* \"#utility.yul\":6816:6868   */\n      iszero\n      tag_383\n      jumpi\n        /* \"#utility.yul\":6864:6865   */\n      0x00\n        /* \"#utility.yul\":6861:6862   */\n      0x00\n        /* \"#utility.yul\":6854:6866   */\n      revert\n        /* \"#utility.yul\":6816:6868   */\n    tag_383:\n        /* \"#utility.yul\":6896:6905   */\n      dup2\n        /* \"#utility.yul\":6890:6906   */\n      mload\n        /* \"#utility.yul\":6915:6943   */\n      tag_319\n        /* \"#utility.yul\":6937:6942   */\n      dup2\n        /* \"#utility.yul\":6915:6943   */\n      tag_328\n      jump\t// in\n        /* \"#utility.yul\":8436:8737   */\n    tag_307:\n        /* \"#utility.yul\":8565:8568   */\n      0x00\n        /* \"#utility.yul\":8603:8609   */\n      dup3\n        /* \"#utility.yul\":8597:8610   */\n      mload\n        /* \"#utility.yul\":8649:8655   */\n      dup1\n        /* \"#utility.yul\":8642:8646   */\n      0x20\n        /* \"#utility.yul\":8634:8640   */\n      dup6\n        /* \"#utility.yul\":8630:8647   */\n      add\n        /* \"#utility.yul\":8625:8628   */\n      dup5\n        /* \"#utility.yul\":8619:8656   */\n      mcopy\n        /* \"#utility.yul\":8711:8712   */\n      0x00\n        /* \"#utility.yul\":8675:8691   */\n      swap3\n      add\n        /* \"#utility.yul\":8700:8713   */\n      swap2\n      dup3\n      mstore\n      pop\n        /* \"#utility.yul\":8675:8691   */\n      swap2\n        /* \"#utility.yul\":8436:8737   */\n      swap1\n      pop\n      jump\t// out\n    stop\n    data_75b20eef8615de99c108b05f0dbda081c91897128caa336d75dffb97c4132b4d 360894a13ba1a3210667c828492db98dca3e2076cc3735a920a3ca505d382bbc\n\n    auxdata: 0xa264697066735822122000100df29c2b58faac25d54a04d29c37e8cf6c53916265e89da6bbc81ee526ff64736f6c634300081e0033\n}\n",
				"bytecode": {
					"linkReferences": {},
					"object": "60a060405230608052348015610013575f5ffd5b5061001c610021565b6100d3565b7ff0c57e16840df040f15088dc2f81fe391c3923bec73e23a9662efc9c229c6a00805468010000000000000000900460ff16156100715760405163f92ee8a960e01b815260040160405180910390fd5b80546001600160401b03908116146100d05780546001600160401b0319166001600160401b0390811782556040519081527fc7f505b2f371ae2175ee4913f4499e1f2633a7b5936321eed1cdaeb6115181d29060200160405180910390a15b50565b6080516114b26100f95f395f8181610d5601528181610d7f0152610ec301526114b25ff3fe6080604052600436106100ef575f3560e01c8063715018a611610087578063ad3cb1cc11610057578063ad3cb1cc146102b9578063b3d6e119146102f6578063e0cef1b01461030b578063f2fde38b1461032a575f5ffd5b8063715018a61461022b5780638da5cb5b1461023f57806391db7b0d1461027b578063a59f3e0c1461029a575f5ffd5b80634f1ef286116100c25780634f1ef286146101c657806352d1902d146101d957806367dfd4c9146101ed5780636ac109011461020c575f5ffd5b80630c8e32d2146100f35780631794bb3c14610131578063323bf9f0146101525780633b0e013314610188575b5f5ffd5b3480156100fe575f5ffd5b5061011e61010d3660046111fe565b60026020525f908152604090205481565b6040519081526020015b60405180910390f35b34801561013c575f5ffd5b5061015061014b366004611217565b610349565b005b34801561015d575f5ffd5b505f54610170906001600160a01b031681565b6040516001600160a01b039091168152602001610128565b348015610193575f5ffd5b506101b66101a23660046111fe565b60036020525f908152604090205460ff1681565b6040519015158152602001610128565b6101506101d4366004611265565b610520565b3480156101e4575f5ffd5b5061011e61053f565b3480156101f8575f5ffd5b50610150610207366004611329565b61055a565b348015610217575f5ffd5b50600154610170906001600160a01b031681565b348015610236575f5ffd5b50610150610827565b34801561024a575f5ffd5b507f9016d09d72d40fdae2fd8ceac6b6234c7706214fd39c1cd1e609a0528c199300546001600160a01b0316610170565b348015610286575f5ffd5b50610150610295366004611329565b61083a565b3480156102a5575f5ffd5b506101506102b4366004611329565b610883565b3480156102c4575f5ffd5b506102e9604051806040016040528060058152602001640352e302e360dc1b81525081565b6040516101289190611340565b348015610301575f5ffd5b5061011e60045481565b348015610316575f5ffd5b50610150610325366004611382565b610bf9565b348015610335575f5ffd5b506101506103443660046111fe565b610ccb565b5f610352610d08565b805490915060ff600160401b820416159067ffffffffffffffff165f811580156103795750825b90505f8267ffffffffffffffff1660011480156103955750303b155b9050811580156103a3575080155b156103c15760405163f92ee8a960e01b815260040160405180910390fd5b845467ffffffffffffffff1916600117855583156103eb57845460ff60401b1916600160401b1785555b6103f433610d32565b6103fc610d43565b6001600160a01b03881661044e5760405162461bcd60e51b8152602060048201526014602482015273496e76616c696420616c7661206164647265737360601b60448201526064015b60405180910390fd5b6001600160a01b03871661049c5760405162461bcd60e51b8152602060048201526015602482015274496e76616c69642078414c5641206164647265737360581b6044820152606401610445565b5f80546001600160a01b03808b166001600160a01b03199283161790925560018054928a16929091169190911790556004869055831561051657845460ff60401b19168555604051600181527fc7f505b2f371ae2175ee4913f4499e1f2633a7b5936321eed1cdaeb6115181d29060200160405180910390a15b5050505050505050565b610528610d4b565b61053182610def565b61053b8282610df7565b5050565b5f610548610eb8565b505f51602061145d5f395f51905f5290565b335f9081526003602052604090205460ff1615156001036105b05760405162461bcd60e51b815260206004820152601060248201526f213630b1b5a634b9ba32b2102ab9b2b960811b6044820152606401610445565b600454335f908152600260205260409020546105cc91906113cb565b42101561060d5760405162461bcd60e51b815260206004820152600f60248201526e43616e206e6f7420756e5374616b6560881b6044820152606401610445565b600154604080516318160ddd60e01b815290515f926001600160a01b0316916318160ddd9160048083019260209291908290030181865afa158015610654573d5f5f3e3d5ffd5b505050506040513d601f19601f8201168201806040525081019061067891906113de565b5f80546040516370a0823160e01b8152306004820152929350909183916001600160a01b0316906370a0823190602401602060405180830381865afa1580156106c3573d5f5f3e3d5ffd5b505050506040513d601f19601f820116820180604052508101906106e791906113de565b6106f190856113f5565b6106fb919061140c565b6001549091506001600160a01b03166379cc6790336040516001600160e01b031960e084901b1681526001600160a01b039091166004820152602481018690526044015f604051808303815f87803b158015610755575f5ffd5b505af1158015610767573d5f5f3e3d5ffd5b50505f546001600160a01b0316915063a9059cbb9050336040516001600160e01b031960e084901b1681526001600160a01b039091166004820152602481018490526044016020604051808303815f875af11580156107c8573d5f5f3e3d5ffd5b505050506040513d601f19601f820116820180604052508101906107ec919061142b565b5060405181815233907f85082129d87b2fe11527cb1b3b7a520aeb5aa6913f88a3d8757fe40d1db02fdd9060200160405180910390a2505050565b61082f610f01565b6108385f610f5c565b565b610842610f01565b60045460408051918252602082018390527ff814eafa160e3546fc1ea6b8939a578ef5f64d31e04888bcd82e8cd9f9ec2909910160405180910390a1600455565b335f9081526003602052604090205460ff1615156001036108d95760405162461bcd60e51b815260206004820152601060248201526f213630b1b5a634b9ba32b2102ab9b2b960811b6044820152606401610445565b5f80546040516370a0823160e01b81523060048201526001600160a01b03909116906370a0823190602401602060405180830381865afa15801561091f573d5f5f3e3d5ffd5b505050506040513d601f19601f8201168201806040525081019061094391906113de565b90505f60015f9054906101000a90046001600160a01b03166001600160a01b03166318160ddd6040518163ffffffff1660e01b8152600401602060405180830381865afa158015610996573d5f5f3e3d5ffd5b505050506040513d601f19601f820116820180604052508101906109ba91906113de565b90508015806109c7575081155b15610a87576001546001600160a01b03166340c10f19336040516001600160e01b031960e084901b1681526001600160a01b039091166004820152602481018690526044015f604051808303815f87803b158015610a23575f5ffd5b505af1158015610a35573d5f5f3e3d5ffd5b50505050610a403390565b6001600160a01b03167febedb8b3c678666e7f36970bc8f57abf6d8fa2e828c0da91ea5b75bf68ed101a84604051610a7a91815260200190565b60405180910390a2610b58565b5f82610a9383866113f5565b610a9d919061140c565b6001549091506001600160a01b03166340c10f19336040516001600160e01b031960e084901b1681526001600160a01b039091166004820152602481018490526044015f604051808303815f87803b158015610af7575f5ffd5b505af1158015610b09573d5f5f3e3d5ffd5b50505050610b143390565b6001600160a01b03167febedb8b3c678666e7f36970bc8f57abf6d8fa2e828c0da91ea5b75bf68ed101a82604051610b4e91815260200190565b60405180910390a2505b335f908152600260205260408120429055546001600160a01b03166323b872dd610b7f3390565b6040516001600160e01b031960e084901b1681526001600160a01b039091166004820152306024820152604481018690526064016020604051808303815f875af1158015610bcf573d5f5f3e3d5ffd5b505050506040513d601f19601f82011682018060405250810190610bf3919061142b565b50505050565b610c01610f01565b6001600160a01b0382165f9081526003602052604090205481151560ff909116151503610c695760405162461bcd60e51b8152602060048201526016602482015275416c726561647920696e2073616d652073746174757360501b6044820152606401610445565b6001600160a01b0382165f81815260036020908152604091829020805460ff19168515159081179091558251938452908301527f2f2ea19e5340217456e8ecb94895965ba2afa084e4a94f9fc7c315b1478243b7910160405180910390a15050565b610cd3610f01565b6001600160a01b038116610cfc57604051631e4fbdf760e01b81525f6004820152602401610445565b610d0581610f5c565b50565b5f807ff0c57e16840df040f15088dc2f81fe391c3923bec73e23a9662efc9c229c6a005b92915050565b610d3a610fcc565b610d0581610ff1565b610838610fcc565b306001600160a01b037f0000000000000000000000000000000000000000000000000000000000000000161480610dd157507f00000000000000000000000000000000000000000000000000000000000000006001600160a01b0316610dc55f51602061145d5f395f51905f52546001600160a01b031690565b6001600160a01b031614155b156108385760405163703e46dd60e11b815260040160405180910390fd5b610d05610f01565b816001600160a01b03166352d1902d6040518163ffffffff1660e01b8152600401602060405180830381865afa925050508015610e51575060408051601f3d908101601f19168201909252610e4e918101906113de565b60015b610e7957604051634c9c8ce360e01b81526001600160a01b0383166004820152602401610445565b5f51602061145d5f395f51905f528114610ea957604051632a87526960e21b815260048101829052602401610445565b610eb38383610ff9565b505050565b306001600160a01b037f000000000000000000000000000000000000000000000000000000000000000016146108385760405163703e46dd60e11b815260040160405180910390fd5b33610f337f9016d09d72d40fdae2fd8ceac6b6234c7706214fd39c1cd1e609a0528c199300546001600160a01b031690565b6001600160a01b0316146108385760405163118cdaa760e01b8152336004820152602401610445565b7f9016d09d72d40fdae2fd8ceac6b6234c7706214fd39c1cd1e609a0528c19930080546001600160a01b031981166001600160a01b03848116918217845560405192169182907f8be0079c531659141344cd1fd0a4f28419497f9722a3daafe3b4186f6b6457e0905f90a3505050565b610fd461104e565b61083857604051631afcd79f60e31b815260040160405180910390fd5b610cd3610fcc565b61100282611067565b6040516001600160a01b038316907fbc7cd75a20ee27fd9adebab32041f755214dbc6bffa90cc0225b39da2e5c2d3b905f90a280511561104657610eb382826110ca565b61053b61113c565b5f611057610d08565b54600160401b900460ff16919050565b806001600160a01b03163b5f0361109c57604051634c9c8ce360e01b81526001600160a01b0382166004820152602401610445565b5f51602061145d5f395f51905f5280546001600160a01b0319166001600160a01b0392909216919091179055565b60605f5f846001600160a01b0316846040516110e69190611446565b5f60405180830381855af49150503d805f811461111e576040519150601f19603f3d011682016040523d82523d5f602084013e611123565b606091505b509150915061113385838361115b565b95945050505050565b34156108385760405163b398979f60e01b815260040160405180910390fd5b6060826111705761116b826111ba565b6111b3565b815115801561118757506001600160a01b0384163b155b156111b057604051639996b31560e01b81526001600160a01b0385166004820152602401610445565b50805b9392505050565b8051156111ca5780518082602001fd5b60405163d6bda27560e01b815260040160405180910390fd5b80356001600160a01b03811681146111f9575f5ffd5b919050565b5f6020828403121561120e575f5ffd5b6111b3826111e3565b5f5f5f60608486031215611229575f5ffd5b611232846111e3565b9250611240602085016111e3565b929592945050506040919091013590565b634e487b7160e01b5f52604160045260245ffd5b5f5f60408385031215611276575f5ffd5b61127f836111e3565b9150602083013567ffffffffffffffff81111561129a575f5ffd5b8301601f810185136112aa575f5ffd5b803567ffffffffffffffff8111156112c4576112c4611251565b604051601f8201601f19908116603f0116810167ffffffffffffffff811182821017156112f3576112f3611251565b60405281815282820160200187101561130a575f5ffd5b816020840160208301375f602083830101528093505050509250929050565b5f60208284031215611339575f5ffd5b5035919050565b602081525f82518060208401528060208501604085015e5f604082850101526040601f19601f83011684010191505092915050565b8015158114610d05575f5ffd5b5f5f60408385031215611393575f5ffd5b61139c836111e3565b915060208301356113ac81611375565b809150509250929050565b634e487b7160e01b5f52601160045260245ffd5b80820180821115610d2c57610d2c6113b7565b5f602082840312156113ee575f5ffd5b5051919050565b8082028115828204841417610d2c57610d2c6113b7565b5f8261142657634e487b7160e01b5f52601260045260245ffd5b500490565b5f6020828403121561143b575f5ffd5b81516111b381611375565b5f82518060208501845e5f92019182525091905056fe360894a13ba1a3210667c828492db98dca3e2076cc3735a920a3ca505d382bbca264697066735822122000100df29c2b58faac25d54a04d29c37e8cf6c53916265e89da6bbc81ee526ff64736f6c634300081e0033",
					"opcodes": "PUSH1 0xA0 PUSH1 0x40 MSTORE ADDRESS PUSH1 0x80 MSTORE CALLVALUE DUP1 ISZERO PUSH2 0x13 JUMPI PUSH0 PUSH0 REVERT JUMPDEST POP PUSH2 0x1C PUSH2 0x21 JUMP JUMPDEST PUSH2 0xD3 JUMP JUMPDEST PUSH32 0xF0C57E16840DF040F15088DC2F81FE391C3923BEC73E23A9662EFC9C229C6A00 DUP1 SLOAD PUSH9 0x10000000000000000 SWAP1 DIV PUSH1 0xFF AND ISZERO PUSH2 0x71 JUMPI PUSH1 0x40 MLOAD PUSH4 0xF92EE8A9 PUSH1 0xE0 SHL DUP2 MSTORE PUSH1 0x4 ADD PUSH1 0x40 MLOAD DUP1 SWAP2 SUB SWAP1 REVERT JUMPDEST DUP1 SLOAD PUSH1 0x1 PUSH1 0x1 PUSH1 0x40 SHL SUB SWAP1 DUP2 AND EQ PUSH2 0xD0 JUMPI DUP1 SLOAD PUSH1 0x1 PUSH1 0x1 PUSH1 0x40 SHL SUB NOT AND PUSH1 0x1 PUSH1 0x1 PUSH1 0x40 SHL SUB SWAP1 DUP2 OR DUP3 SSTORE PUSH1 0x40 MLOAD SWAP1 DUP2 MSTORE PUSH32 0xC7F505B2F371AE2175EE4913F4499E1F2633A7B5936321EED1CDAEB6115181D2 SWAP1 PUSH1 0x20 ADD PUSH1 0x40 MLOAD DUP1 SWAP2 SUB SWAP1 LOG1 JUMPDEST POP JUMP JUMPDEST PUSH1 0x80 MLOAD PUSH2 0x14B2 PUSH2 0xF9 PUSH0 CODECOPY PUSH0 DUP2 DUP2 PUSH2 0xD56 ADD MSTORE DUP2 DUP2 PUSH2 0xD7F ADD MSTORE PUSH2 0xEC3 ADD MSTORE PUSH2 0x14B2 PUSH0 RETURN INVALID PUSH1 0x80 PUSH1 0x40 MSTORE PUSH1 0x4 CALLDATASIZE LT PUSH2 0xEF JUMPI PUSH0 CALLDATALOAD PUSH1 0xE0 SHR DUP1 PUSH4 0x715018A6 GT PUSH2 0x87 JUMPI DUP1 PUSH4 0xAD3CB1CC GT PUSH2 0x57 JUMPI DUP1 PUSH4 0xAD3CB1CC EQ PUSH2 0x2B9 JUMPI DUP1 PUSH4 0xB3D6E119 EQ PUSH2 0x2F6 JUMPI DUP1 PUSH4 0xE0CEF1B0 EQ PUSH2 0x30B JUMPI DUP1 PUSH4 0xF2FDE38B EQ PUSH2 0x32A JUMPI PUSH0 PUSH0 REVERT JUMPDEST DUP1 PUSH4 0x715018A6 EQ PUSH2 0x22B JUMPI DUP1 PUSH4 0x8DA5CB5B EQ PUSH2 0x23F JUMPI DUP1 PUSH4 0x91DB7B0D EQ PUSH2 0x27B JUMPI DUP1 PUSH4 0xA59F3E0C EQ PUSH2 0x29A JUMPI PUSH0 PUSH0 REVERT JUMPDEST DUP1 PUSH4 0x4F1EF286 GT PUSH2 0xC2 JUMPI DUP1 PUSH4 0x4F1EF286 EQ PUSH2 0x1C6 JUMPI DUP1 PUSH4 0x52D1902D EQ PUSH2 0x1D9 JUMPI DUP1 PUSH4 0x67DFD4C9 EQ PUSH2 0x1ED JUMPI DUP1 PUSH4 0x6AC10901 EQ PUSH2 0x20C JUMPI PUSH0 PUSH0 REVERT JUMPDEST DUP1 PUSH4 0xC8E32D2 EQ PUSH2 0xF3 JUMPI DUP1 PUSH4 0x1794BB3C EQ PUSH2 0x131 JUMPI DUP1 PUSH4 0x323BF9F0 EQ PUSH2 0x152 JUMPI DUP1 PUSH4 0x3B0E0133 EQ PUSH2 0x188 JUMPI JUMPDEST PUSH0 PUSH0 REVERT JUMPDEST CALLVALUE DUP1 ISZERO PUSH2 0xFE JUMPI PUSH0 PUSH0 REVERT JUMPDEST POP PUSH2 0x11E PUSH2 0x10D CALLDATASIZE PUSH1 0x4 PUSH2 0x11FE JUMP JUMPDEST PUSH1 0x2 PUSH1 0x20 MSTORE PUSH0 SWAP1 DUP2 MSTORE PUSH1 0x40 SWAP1 KECCAK256 SLOAD DUP2 JUMP JUMPDEST PUSH1 0x40 MLOAD SWAP1 DUP2 MSTORE PUSH1 0x20 ADD JUMPDEST PUSH1 0x40 MLOAD DUP1 SWAP2 SUB SWAP1 RETURN JUMPDEST CALLVALUE DUP1 ISZERO PUSH2 0x13C JUMPI PUSH0 PUSH0 REVERT JUMPDEST POP PUSH2 0x150 PUSH2 0x14B CALLDATASIZE PUSH1 0x4 PUSH2 0x1217 JUMP JUMPDEST PUSH2 0x349 JUMP JUMPDEST STOP JUMPDEST CALLVALUE DUP1 ISZERO PUSH2 0x15D JUMPI PUSH0 PUSH0 REVERT JUMPDEST POP PUSH0 SLOAD PUSH2 0x170 SWAP1 PUSH1 0x1 PUSH1 0x1 PUSH1 0xA0 SHL SUB AND DUP2 JUMP JUMPDEST PUSH1 0x40 MLOAD PUSH1 0x1 PUSH1 0x1 PUSH1 0xA0 SHL SUB SWAP1 SWAP2 AND DUP2 MSTORE PUSH1 0x20 ADD PUSH2 0x128 JUMP JUMPDEST CALLVALUE DUP1 ISZERO PUSH2 0x193 JUMPI PUSH0 PUSH0 REVERT JUMPDEST POP PUSH2 0x1B6 PUSH2 0x1A2 CALLDATASIZE PUSH1 0x4 PUSH2 0x11FE JUMP JUMPDEST PUSH1 0x3 PUSH1 0x20 MSTORE PUSH0 SWAP1 DUP2 MSTORE PUSH1 0x40 SWAP1 KECCAK256 SLOAD PUSH1 0xFF AND DUP2 JUMP JUMPDEST PUSH1 0x40 MLOAD SWAP1 ISZERO ISZERO DUP2 MSTORE PUSH1 0x20 ADD PUSH2 0x128 JUMP JUMPDEST PUSH2 0x150 PUSH2 0x1D4 CALLDATASIZE PUSH1 0x4 PUSH2 0x1265 JUMP JUMPDEST PUSH2 0x520 JUMP JUMPDEST CALLVALUE DUP1 ISZERO PUSH2 0x1E4 JUMPI PUSH0 PUSH0 REVERT JUMPDEST POP PUSH2 0x11E PUSH2 0x53F JUMP JUMPDEST CALLVALUE DUP1 ISZERO PUSH2 0x1F8 JUMPI PUSH0 PUSH0 REVERT JUMPDEST POP PUSH2 0x150 PUSH2 0x207 CALLDATASIZE PUSH1 0x4 PUSH2 0x1329 JUMP JUMPDEST PUSH2 0x55A JUMP JUMPDEST CALLVALUE DUP1 ISZERO PUSH2 0x217 JUMPI PUSH0 PUSH0 REVERT JUMPDEST POP PUSH1 0x1 SLOAD PUSH2 0x170 SWAP1 PUSH1 0x1 PUSH1 0x1 PUSH1 0xA0 SHL SUB AND DUP2 JUMP JUMPDEST CALLVALUE DUP1 ISZERO PUSH2 0x236 JUMPI PUSH0 PUSH0 REVERT JUMPDEST POP PUSH2 0x150 PUSH2 0x827 JUMP JUMPDEST CALLVALUE DUP1 ISZERO PUSH2 0x24A JUMPI PUSH0 PUSH0 REVERT JUMPDEST POP PUSH32 0x9016D09D72D40FDAE2FD8CEAC6B6234C7706214FD39C1CD1E609A0528C199300 SLOAD PUSH1 0x1 PUSH1 0x1 PUSH1 0xA0 SHL SUB AND PUSH2 0x170 JUMP JUMPDEST CALLVALUE DUP1 ISZERO PUSH2 0x286 JUMPI PUSH0 PUSH0 REVERT JUMPDEST POP PUSH2 0x150 PUSH2 0x295 CALLDATASIZE PUSH1 0x4 PUSH2 0x1329 JUMP JUMPDEST PUSH2 0x83A JUMP JUMPDEST CALLVALUE DUP1 ISZERO PUSH2 0x2A5 JUMPI PUSH0 PUSH0 REVERT JUMPDEST POP PUSH2 0x150 PUSH2 0x2B4 CALLDATASIZE PUSH1 0x4 PUSH2 0x1329 JUMP JUMPDEST PUSH2 0x883 JUMP JUMPDEST CALLVALUE DUP1 ISZERO PUSH2 0x2C4 JUMPI PUSH0 PUSH0 REVERT JUMPDEST POP PUSH2 0x2E9 PUSH1 0x40 MLOAD DUP1 PUSH1 0x40 ADD PUSH1 0x40 MSTORE DUP1 PUSH1 0x5 DUP2 MSTORE PUSH1 0x20 ADD PUSH5 0x352E302E3 PUSH1 0xDC SHL DUP2 MSTORE POP DUP2 JUMP JUMPDEST PUSH1 0x40 MLOAD PUSH2 0x128 SWAP2 SWAP1 PUSH2 0x1340 JUMP JUMPDEST CALLVALUE DUP1 ISZERO PUSH2 0x301 JUMPI PUSH0 PUSH0 REVERT JUMPDEST POP PUSH2 0x11E PUSH1 0x4 SLOAD DUP2 JUMP JUMPDEST CALLVALUE DUP1 ISZERO PUSH2 0x316 JUMPI PUSH0 PUSH0 REVERT JUMPDEST POP PUSH2 0x150 PUSH2 0x325 CALLDATASIZE PUSH1 0x4 PUSH2 0x1382 JUMP JUMPDEST PUSH2 0xBF9 JUMP JUMPDEST CALLVALUE DUP1 ISZERO PUSH2 0x335 JUMPI PUSH0 PUSH0 REVERT JUMPDEST POP PUSH2 0x150 PUSH2 0x344 CALLDATASIZE PUSH1 0x4 PUSH2 0x11FE JUMP JUMPDEST PUSH2 0xCCB JUMP JUMPDEST PUSH0 PUSH2 0x352 PUSH2 0xD08 JUMP JUMPDEST DUP1 SLOAD SWAP1 SWAP2 POP PUSH1 0xFF PUSH1 0x1 PUSH1 0x40 SHL DUP3 DIV AND ISZERO SWAP1 PUSH8 0xFFFFFFFFFFFFFFFF AND PUSH0 DUP2 ISZERO DUP1 ISZERO PUSH2 0x379 JUMPI POP DUP3 JUMPDEST SWAP1 POP PUSH0 DUP3 PUSH8 0xFFFFFFFFFFFFFFFF AND PUSH1 0x1 EQ DUP1 ISZERO PUSH2 0x395 JUMPI POP ADDRESS EXTCODESIZE ISZERO JUMPDEST SWAP1 POP DUP2 ISZERO DUP1 ISZERO PUSH2 0x3A3 JUMPI POP DUP1 ISZERO JUMPDEST ISZERO PUSH2 0x3C1 JUMPI PUSH1 0x40 MLOAD PUSH4 0xF92EE8A9 PUSH1 0xE0 SHL DUP2 MSTORE PUSH1 0x4 ADD PUSH1 0x40 MLOAD DUP1 SWAP2 SUB SWAP1 REVERT JUMPDEST DUP5 SLOAD PUSH8 0xFFFFFFFFFFFFFFFF NOT AND PUSH1 0x1 OR DUP6 SSTORE DUP4 ISZERO PUSH2 0x3EB JUMPI DUP5 SLOAD PUSH1 0xFF PUSH1 0x40 SHL NOT AND PUSH1 0x1 PUSH1 0x40 SHL OR DUP6 SSTORE JUMPDEST PUSH2 0x3F4 CALLER PUSH2 0xD32 JUMP JUMPDEST PUSH2 0x3FC PUSH2 0xD43 JUMP JUMPDEST PUSH1 0x1 PUSH1 0x1 PUSH1 0xA0 SHL SUB DUP9 AND PUSH2 0x44E JUMPI PUSH1 0x40 MLOAD PUSH3 0x461BCD PUSH1 0xE5 SHL DUP2 MSTORE PUSH1 0x20 PUSH1 0x4 DUP3 ADD MSTORE PUSH1 0x14 PUSH1 0x24 DUP3 ADD MSTORE PUSH20 0x496E76616C696420616C76612061646472657373 PUSH1 0x60 SHL PUSH1 0x44 DUP3 ADD MSTORE PUSH1 0x64 ADD JUMPDEST PUSH1 0x40 MLOAD DUP1 SWAP2 SUB SWAP1 REVERT JUMPDEST PUSH1 0x1 PUSH1 0x1 PUSH1 0xA0 SHL SUB DUP8 AND PUSH2 0x49C JUMPI PUSH1 0x40 MLOAD PUSH3 0x461BCD PUSH1 0xE5 SHL DUP2 MSTORE PUSH1 0x20 PUSH1 0x4 DUP3 ADD MSTORE PUSH1 0x15 PUSH1 0x24 DUP3 ADD MSTORE PUSH21 0x496E76616C69642078414C56412061646472657373 PUSH1 0x58 SHL PUSH1 0x44 DUP3 ADD MSTORE PUSH1 0x64 ADD PUSH2 0x445 JUMP JUMPDEST PUSH0 DUP1 SLOAD PUSH1 0x1 PUSH1 0x1 PUSH1 0xA0 SHL SUB DUP1 DUP12 AND PUSH1 0x1 PUSH1 0x1 PUSH1 0xA0 SHL SUB NOT SWAP3 DUP4 AND OR SWAP1 SWAP3 SSTORE PUSH1 0x1 DUP1 SLOAD SWAP3 DUP11 AND SWAP3 SWAP1 SWAP2 AND SWAP2 SWAP1 SWAP2 OR SWAP1 SSTORE PUSH1 0x4 DUP7 SWAP1 SSTORE DUP4 ISZERO PUSH2 0x516 JUMPI DUP5 SLOAD PUSH1 0xFF PUSH1 0x40 SHL NOT AND DUP6 SSTORE PUSH1 0x40 MLOAD PUSH1 0x1 DUP2 MSTORE PUSH32 0xC7F505B2F371AE2175EE4913F4499E1F2633A7B5936321EED1CDAEB6115181D2 SWAP1 PUSH1 0x20 ADD PUSH1 0x40 MLOAD DUP1 SWAP2 SUB SWAP1 LOG1 JUMPDEST POP POP POP POP POP POP POP POP JUMP JUMPDEST PUSH2 0x528 PUSH2 0xD4B JUMP JUMPDEST PUSH2 0x531 DUP3 PUSH2 0xDEF JUMP JUMPDEST PUSH2 0x53B DUP3 DUP3 PUSH2 0xDF7 JUMP JUMPDEST POP POP JUMP JUMPDEST PUSH0 PUSH2 0x548 PUSH2 0xEB8 JUMP JUMPDEST POP PUSH0 MLOAD PUSH1 0x20 PUSH2 0x145D PUSH0 CODECOPY PUSH0 MLOAD SWAP1 PUSH0 MSTORE SWAP1 JUMP JUMPDEST CALLER PUSH0 SWAP1 DUP2 MSTORE PUSH1 0x3 PUSH1 0x20 MSTORE PUSH1 0x40 SWAP1 KECCAK256 SLOAD PUSH1 0xFF AND ISZERO ISZERO PUSH1 0x1 SUB PUSH2 0x5B0 JUMPI PUSH1 0x40 MLOAD PUSH3 0x461BCD PUSH1 0xE5 SHL DUP2 MSTORE PUSH1 0x20 PUSH1 0x4 DUP3 ADD MSTORE PUSH1 0x10 PUSH1 0x24 DUP3 ADD MSTORE PUSH16 0x213630B1B5A634B9BA32B2102AB9B2B9 PUSH1 0x81 SHL PUSH1 0x44 DUP3 ADD MSTORE PUSH1 0x64 ADD PUSH2 0x445 JUMP JUMPDEST PUSH1 0x4 SLOAD CALLER PUSH0 SWAP1 DUP2 MSTORE PUSH1 0x2 PUSH1 0x20 MSTORE PUSH1 0x40 SWAP1 KECCAK256 SLOAD PUSH2 0x5CC SWAP2 SWAP1 PUSH2 0x13CB JUMP JUMPDEST TIMESTAMP LT ISZERO PUSH2 0x60D JUMPI PUSH1 0x40 MLOAD PUSH3 0x461BCD PUSH1 0xE5 SHL DUP2 MSTORE PUSH1 0x20 PUSH1 0x4 DUP3 ADD MSTORE PUSH1 0xF PUSH1 0x24 DUP3 ADD MSTORE PUSH15 0x43616E206E6F7420756E5374616B65 PUSH1 0x88 SHL PUSH1 0x44 DUP3 ADD MSTORE PUSH1 0x64 ADD PUSH2 0x445 JUMP JUMPDEST PUSH1 0x1 SLOAD PUSH1 0x40 DUP1 MLOAD PUSH4 0x18160DDD PUSH1 0xE0 SHL DUP2 MSTORE SWAP1 MLOAD PUSH0 SWAP3 PUSH1 0x1 PUSH1 0x1 PUSH1 0xA0 SHL SUB AND SWAP2 PUSH4 0x18160DDD SWAP2 PUSH1 0x4 DUP1 DUP4 ADD SWAP3 PUSH1 0x20 SWAP3 SWAP2 SWAP1 DUP3 SWAP1 SUB ADD DUP2 DUP7 GAS STATICCALL ISZERO DUP1 ISZERO PUSH2 0x654 JUMPI RETURNDATASIZE PUSH0 PUSH0 RETURNDATACOPY RETURNDATASIZE PUSH0 REVERT JUMPDEST POP POP POP POP PUSH1 0x40 MLOAD RETURNDATASIZE PUSH1 0x1F NOT PUSH1 0x1F DUP3 ADD AND DUP3 ADD DUP1 PUSH1 0x40 MSTORE POP DUP2 ADD SWAP1 PUSH2 0x678 SWAP2 SWAP1 PUSH2 0x13DE JUMP JUMPDEST PUSH0 DUP1 SLOAD PUSH1 0x40 MLOAD PUSH4 0x70A08231 PUSH1 0xE0 SHL DUP2 MSTORE ADDRESS PUSH1 0x4 DUP3 ADD MSTORE SWAP3 SWAP4 POP SWAP1 SWAP2 DUP4 SWAP2 PUSH1 0x1 PUSH1 0x1 PUSH1 0xA0 SHL SUB AND SWAP1 PUSH4 0x70A08231 SWAP1 PUSH1 0x24 ADD PUSH1 0x20 PUSH1 0x40 MLOAD DUP1 DUP4 SUB DUP2 DUP7 GAS STATICCALL ISZERO DUP1 ISZERO PUSH2 0x6C3 JUMPI RETURNDATASIZE PUSH0 PUSH0 RETURNDATACOPY RETURNDATASIZE PUSH0 REVERT JUMPDEST POP POP POP POP PUSH1 0x40 MLOAD RETURNDATASIZE PUSH1 0x1F NOT PUSH1 0x1F DUP3 ADD AND DUP3 ADD DUP1 PUSH1 0x40 MSTORE POP DUP2 ADD SWAP1 PUSH2 0x6E7 SWAP2 SWAP1 PUSH2 0x13DE JUMP JUMPDEST PUSH2 0x6F1 SWAP1 DUP6 PUSH2 0x13F5 JUMP JUMPDEST PUSH2 0x6FB SWAP2 SWAP1 PUSH2 0x140C JUMP JUMPDEST PUSH1 0x1 SLOAD SWAP1 SWAP2 POP PUSH1 0x1 PUSH1 0x1 PUSH1 0xA0 SHL SUB AND PUSH4 0x79CC6790 CALLER PUSH1 0x40 MLOAD PUSH1 0x1 PUSH1 0x1 PUSH1 0xE0 SHL SUB NOT PUSH1 0xE0 DUP5 SWAP1 SHL AND DUP2 MSTORE PUSH1 0x1 PUSH1 0x1 PUSH1 0xA0 SHL SUB SWAP1 SWAP2 AND PUSH1 0x4 DUP3 ADD MSTORE PUSH1 0x24 DUP2 ADD DUP7 SWAP1 MSTORE PUSH1 0x44 ADD PUSH0 PUSH1 0x40 MLOAD DUP1 DUP4 SUB DUP2 PUSH0 DUP8 DUP1 EXTCODESIZE ISZERO DUP1 ISZERO PUSH2 0x755 JUMPI PUSH0 PUSH0 REVERT JUMPDEST POP GAS CALL ISZERO DUP1 ISZERO PUSH2 0x767 JUMPI RETURNDATASIZE PUSH0 PUSH0 RETURNDATACOPY RETURNDATASIZE PUSH0 REVERT JUMPDEST POP POP PUSH0 SLOAD PUSH1 0x1 PUSH1 0x1 PUSH1 0xA0 SHL SUB AND SWAP2 POP PUSH4 0xA9059CBB SWAP1 POP CALLER PUSH1 0x40 MLOAD PUSH1 0x1 PUSH1 0x1 PUSH1 0xE0 SHL SUB NOT PUSH1 0xE0 DUP5 SWAP1 SHL AND DUP2 MSTORE PUSH1 0x1 PUSH1 0x1 PUSH1 0xA0 SHL SUB SWAP1 SWAP2 AND PUSH1 0x4 DUP3 ADD MSTORE PUSH1 0x24 DUP2 ADD DUP5 SWAP1 MSTORE PUSH1 0x44 ADD PUSH1 0x20 PUSH1 0x40 MLOAD DUP1 DUP4 SUB DUP2 PUSH0 DUP8 GAS CALL ISZERO DUP1 ISZERO PUSH2 0x7C8 JUMPI RETURNDATASIZE PUSH0 PUSH0 RETURNDATACOPY RETURNDATASIZE PUSH0 REVERT JUMPDEST POP POP POP POP PUSH1 0x40 MLOAD RETURNDATASIZE PUSH1 0x1F NOT PUSH1 0x1F DUP3 ADD AND DUP3 ADD DUP1 PUSH1 0x40 MSTORE POP DUP2 ADD SWAP1 PUSH2 0x7EC SWAP2 SWAP1 PUSH2 0x142B JUMP JUMPDEST POP PUSH1 0x40 MLOAD DUP2 DUP2 MSTORE CALLER SWAP1 PUSH32 0x85082129D87B2FE11527CB1B3B7A520AEB5AA6913F88A3D8757FE40D1DB02FDD SWAP1 PUSH1 0x20 ADD PUSH1 0x40 MLOAD DUP1 SWAP2 SUB SWAP1 LOG2 POP POP POP JUMP JUMPDEST PUSH2 0x82F PUSH2 0xF01 JUMP JUMPDEST PUSH2 0x838 PUSH0 PUSH2 0xF5C JUMP JUMPDEST JUMP JUMPDEST PUSH2 0x842 PUSH2 0xF01 JUMP JUMPDEST PUSH1 0x4 SLOAD PUSH1 0x40 DUP1 MLOAD SWAP2 DUP3 MSTORE PUSH1 0x20 DUP3 ADD DUP4 SWAP1 MSTORE PUSH32 0xF814EAFA160E3546FC1EA6B8939A578EF5F64D31E04888BCD82E8CD9F9EC2909 SWAP2 ADD PUSH1 0x40 MLOAD DUP1 SWAP2 SUB SWAP1 LOG1 PUSH1 0x4 SSTORE JUMP JUMPDEST CALLER PUSH0 SWAP1 DUP2 MSTORE PUSH1 0x3 PUSH1 0x20 MSTORE PUSH1 0x40 SWAP1 KECCAK256 SLOAD PUSH1 0xFF AND ISZERO ISZERO PUSH1 0x1 SUB PUSH2 0x8D9 JUMPI PUSH1 0x40 MLOAD PUSH3 0x461BCD PUSH1 0xE5 SHL DUP2 MSTORE PUSH1 0x20 PUSH1 0x4 DUP3 ADD MSTORE PUSH1 0x10 PUSH1 0x24 DUP3 ADD MSTORE PUSH16 0x213630B1B5A634B9BA32B2102AB9B2B9 PUSH1 0x81 SHL PUSH1 0x44 DUP3 ADD MSTORE PUSH1 0x64 ADD PUSH2 0x445 JUMP JUMPDEST PUSH0 DUP1 SLOAD PUSH1 0x40 MLOAD PUSH4 0x70A08231 PUSH1 0xE0 SHL DUP2 MSTORE ADDRESS PUSH1 0x4 DUP3 ADD MSTORE PUSH1 0x1 PUSH1 0x1 PUSH1 0xA0 SHL SUB SWAP1 SWAP2 AND SWAP1 PUSH4 0x70A08231 SWAP1 PUSH1 0x24 ADD PUSH1 0x20 PUSH1 0x40 MLOAD DUP1 DUP4 SUB DUP2 DUP7 GAS STATICCALL ISZERO DUP1 ISZERO PUSH2 0x91F JUMPI RETURNDATASIZE PUSH0 PUSH0 RETURNDATACOPY RETURNDATASIZE PUSH0 REVERT JUMPDEST POP POP POP POP PUSH1 0x40 MLOAD RETURNDATASIZE PUSH1 0x1F NOT PUSH1 0x1F DUP3 ADD AND DUP3 ADD DUP1 PUSH1 0x40 MSTORE POP DUP2 ADD SWAP1 PUSH2 0x943 SWAP2 SWAP1 PUSH2 0x13DE JUMP JUMPDEST SWAP1 POP PUSH0 PUSH1 0x1 PUSH0 SWAP1 SLOAD SWAP1 PUSH2 0x100 EXP SWAP1 DIV PUSH1 0x1 PUSH1 0x1 PUSH1 0xA0 SHL SUB AND PUSH1 0x1 PUSH1 0x1 PUSH1 0xA0 SHL SUB AND PUSH4 0x18160DDD PUSH1 0x40 MLOAD DUP2 PUSH4 0xFFFFFFFF AND PUSH1 0xE0 SHL DUP2 MSTORE PUSH1 0x4 ADD PUSH1 0x20 PUSH1 0x40 MLOAD DUP1 DUP4 SUB DUP2 DUP7 GAS STATICCALL ISZERO DUP1 ISZERO PUSH2 0x996 JUMPI RETURNDATASIZE PUSH0 PUSH0 RETURNDATACOPY RETURNDATASIZE PUSH0 REVERT JUMPDEST POP POP POP POP PUSH1 0x40 MLOAD RETURNDATASIZE PUSH1 0x1F NOT PUSH1 0x1F DUP3 ADD AND DUP3 ADD DUP1 PUSH1 0x40 MSTORE POP DUP2 ADD SWAP1 PUSH2 0x9BA SWAP2 SWAP1 PUSH2 0x13DE JUMP JUMPDEST SWAP1 POP DUP1 ISZERO DUP1 PUSH2 0x9C7 JUMPI POP DUP2 ISZERO JUMPDEST ISZERO PUSH2 0xA87 JUMPI PUSH1 0x1 SLOAD PUSH1 0x1 PUSH1 0x1 PUSH1 0xA0 SHL SUB AND PUSH4 0x40C10F19 CALLER PUSH1 0x40 MLOAD PUSH1 0x1 PUSH1 0x1 PUSH1 0xE0 SHL SUB NOT PUSH1 0xE0 DUP5 SWAP1 SHL AND DUP2 MSTORE PUSH1 0x1 PUSH1 0x1 PUSH1 0xA0 SHL SUB SWAP1 SWAP2 AND PUSH1 0x4 DUP3 ADD MSTORE PUSH1 0x24 DUP2 ADD DUP7 SWAP1 MSTORE PUSH1 0x44 ADD PUSH0 PUSH1 0x40 MLOAD DUP1 DUP4 SUB DUP2 PUSH0 DUP8 DUP1 EXTCODESIZE ISZERO DUP1 ISZERO PUSH2 0xA23 JUMPI PUSH0 PUSH0 REVERT JUMPDEST POP GAS CALL ISZERO DUP1 ISZERO PUSH2 0xA35 JUMPI RETURNDATASIZE PUSH0 PUSH0 RETURNDATACOPY RETURNDATASIZE PUSH0 REVERT JUMPDEST POP POP POP POP PUSH2 0xA40 CALLER SWAP1 JUMP JUMPDEST PUSH1 0x1 PUSH1 0x1 PUSH1 0xA0 SHL SUB AND PUSH32 0xEBEDB8B3C678666E7F36970BC8F57ABF6D8FA2E828C0DA91EA5B75BF68ED101A DUP5 PUSH1 0x40 MLOAD PUSH2 0xA7A SWAP2 DUP2 MSTORE PUSH1 0x20 ADD SWAP1 JUMP JUMPDEST PUSH1 0x40 MLOAD DUP1 SWAP2 SUB SWAP1 LOG2 PUSH2 0xB58 JUMP JUMPDEST PUSH0 DUP3 PUSH2 0xA93 DUP4 DUP7 PUSH2 0x13F5 JUMP JUMPDEST PUSH2 0xA9D SWAP2 SWAP1 PUSH2 0x140C JUMP JUMPDEST PUSH1 0x1 SLOAD SWAP1 SWAP2 POP PUSH1 0x1 PUSH1 0x1 PUSH1 0xA0 SHL SUB AND PUSH4 0x40C10F19 CALLER PUSH1 0x40 MLOAD PUSH1 0x1 PUSH1 0x1 PUSH1 0xE0 SHL SUB NOT PUSH1 0xE0 DUP5 SWAP1 SHL AND DUP2 MSTORE PUSH1 0x1 PUSH1 0x1 PUSH1 0xA0 SHL SUB SWAP1 SWAP2 AND PUSH1 0x4 DUP3 ADD MSTORE PUSH1 0x24 DUP2 ADD DUP5 SWAP1 MSTORE PUSH1 0x44 ADD PUSH0 PUSH1 0x40 MLOAD DUP1 DUP4 SUB DUP2 PUSH0 DUP8 DUP1 EXTCODESIZE ISZERO DUP1 ISZERO PUSH2 0xAF7 JUMPI PUSH0 PUSH0 REVERT JUMPDEST POP GAS CALL ISZERO DUP1 ISZERO PUSH2 0xB09 JUMPI RETURNDATASIZE PUSH0 PUSH0 RETURNDATACOPY RETURNDATASIZE PUSH0 REVERT JUMPDEST POP POP POP POP PUSH2 0xB14 CALLER SWAP1 JUMP JUMPDEST PUSH1 0x1 PUSH1 0x1 PUSH1 0xA0 SHL SUB AND PUSH32 0xEBEDB8B3C678666E7F36970BC8F57ABF6D8FA2E828C0DA91EA5B75BF68ED101A DUP3 PUSH1 0x40 MLOAD PUSH2 0xB4E SWAP2 DUP2 MSTORE PUSH1 0x20 ADD SWAP1 JUMP JUMPDEST PUSH1 0x40 MLOAD DUP1 SWAP2 SUB SWAP1 LOG2 POP JUMPDEST CALLER PUSH0 SWAP1 DUP2 MSTORE PUSH1 0x2 PUSH1 0x20 MSTORE PUSH1 0x40 DUP2 KECCAK256 TIMESTAMP SWAP1 SSTORE SLOAD PUSH1 0x1 PUSH1 0x1 PUSH1 0xA0 SHL SUB AND PUSH4 0x23B872DD PUSH2 0xB7F CALLER SWAP1 JUMP JUMPDEST PUSH1 0x40 MLOAD PUSH1 0x1 PUSH1 0x1 PUSH1 0xE0 SHL SUB NOT PUSH1 0xE0 DUP5 SWAP1 SHL AND DUP2 MSTORE PUSH1 0x1 PUSH1 0x1 PUSH1 0xA0 SHL SUB SWAP1 SWAP2 AND PUSH1 0x4 DUP3 ADD MSTORE ADDRESS PUSH1 0x24 DUP3 ADD MSTORE PUSH1 0x44 DUP2 ADD DUP7 SWAP1 MSTORE PUSH1 0x64 ADD PUSH1 0x20 PUSH1 0x40 MLOAD DUP1 DUP4 SUB DUP2 PUSH0 DUP8 GAS CALL ISZERO DUP1 ISZERO PUSH2 0xBCF JUMPI RETURNDATASIZE PUSH0 PUSH0 RETURNDATACOPY RETURNDATASIZE PUSH0 REVERT JUMPDEST POP POP POP POP PUSH1 0x40 MLOAD RETURNDATASIZE PUSH1 0x1F NOT PUSH1 0x1F DUP3 ADD AND DUP3 ADD DUP1 PUSH1 0x40 MSTORE POP DUP2 ADD SWAP1 PUSH2 0xBF3 SWAP2 SWAP1 PUSH2 0x142B JUMP JUMPDEST POP POP POP POP JUMP JUMPDEST PUSH2 0xC01 PUSH2 0xF01 JUMP JUMPDEST PUSH1 0x1 PUSH1 0x1 PUSH1 0xA0 SHL SUB DUP3 AND PUSH0 SWAP1 DUP2 MSTORE PUSH1 0x3 PUSH1 0x20 MSTORE PUSH1 0x40 SWAP1 KECCAK256 SLOAD DUP2 ISZERO ISZERO PUSH1 0xFF SWAP1 SWAP2 AND ISZERO ISZERO SUB PUSH2 0xC69 JUMPI PUSH1 0x40 MLOAD PUSH3 0x461BCD PUSH1 0xE5 SHL DUP2 MSTORE PUSH1 0x20 PUSH1 0x4 DUP3 ADD MSTORE PUSH1 0x16 PUSH1 0x24 DUP3 ADD MSTORE PUSH22 0x416C726561647920696E2073616D6520737461747573 PUSH1 0x50 SHL PUSH1 0x44 DUP3 ADD MSTORE PUSH1 0x64 ADD PUSH2 0x445 JUMP JUMPDEST PUSH1 0x1 PUSH1 0x1 PUSH1 0xA0 SHL SUB DUP3 AND PUSH0 DUP2 DUP2 MSTORE PUSH1 0x3 PUSH1 0x20 SWAP1 DUP2 MSTORE PUSH1 0x40 SWAP2 DUP3 SWAP1 KECCAK256 DUP1 SLOAD PUSH1 0xFF NOT AND DUP6 ISZERO ISZERO SWAP1 DUP2 OR SWAP1 SWAP2 SSTORE DUP3 MLOAD SWAP4 DUP5 MSTORE SWAP1 DUP4 ADD MSTORE PUSH32 0x2F2EA19E5340217456E8ECB94895965BA2AFA084E4A94F9FC7C315B1478243B7 SWAP2 ADD PUSH1 0x40 MLOAD DUP1 SWAP2 SUB SWAP1 LOG1 POP POP JUMP JUMPDEST PUSH2 0xCD3 PUSH2 0xF01 JUMP JUMPDEST PUSH1 0x1 PUSH1 0x1 PUSH1 0xA0 SHL SUB DUP2 AND PUSH2 0xCFC JUMPI PUSH1 0x40 MLOAD PUSH4 0x1E4FBDF7 PUSH1 0xE0 SHL DUP2 MSTORE PUSH0 PUSH1 0x4 DUP3 ADD MSTORE PUSH1 0x24 ADD PUSH2 0x445 JUMP JUMPDEST PUSH2 0xD05 DUP2 PUSH2 0xF5C JUMP JUMPDEST POP JUMP JUMPDEST PUSH0 DUP1 PUSH32 0xF0C57E16840DF040F15088DC2F81FE391C3923BEC73E23A9662EFC9C229C6A00 JUMPDEST SWAP3 SWAP2 POP POP JUMP JUMPDEST PUSH2 0xD3A PUSH2 0xFCC JUMP JUMPDEST PUSH2 0xD05 DUP2 PUSH2 0xFF1 JUMP JUMPDEST PUSH2 0x838 PUSH2 0xFCC JUMP JUMPDEST ADDRESS PUSH1 0x1 PUSH1 0x1 PUSH1 0xA0 SHL SUB PUSH32 0x0 AND EQ DUP1 PUSH2 0xDD1 JUMPI POP PUSH32 0x0 PUSH1 0x1 PUSH1 0x1 PUSH1 0xA0 SHL SUB AND PUSH2 0xDC5 PUSH0 MLOAD PUSH1 0x20 PUSH2 0x145D PUSH0 CODECOPY PUSH0 MLOAD SWAP1 PUSH0 MSTORE SLOAD PUSH1 0x1 PUSH1 0x1 PUSH1 0xA0 SHL SUB AND SWAP1 JUMP JUMPDEST PUSH1 0x1 PUSH1 0x1 PUSH1 0xA0 SHL SUB AND EQ ISZERO JUMPDEST ISZERO PUSH2 0x838 JUMPI PUSH1 0x40 MLOAD PUSH4 0x703E46DD PUSH1 0xE1 SHL DUP2 MSTORE PUSH1 0x4 ADD PUSH1 0x40 MLOAD DUP1 SWAP2 SUB SWAP1 REVERT JUMPDEST PUSH2 0xD05 PUSH2 0xF01 JUMP JUMPDEST DUP2 PUSH1 0x1 PUSH1 0x1 PUSH1 0xA0 SHL SUB AND PUSH4 0x52D1902D PUSH1 0x40 MLOAD DUP2 PUSH4 0xFFFFFFFF AND PUSH1 0xE0 SHL DUP2 MSTORE PUSH1 0x4 ADD PUSH1 0x20 PUSH1 0x40 MLOAD DUP1 DUP4 SUB DUP2 DUP7 GAS STATICCALL SWAP3 POP POP POP DUP1 ISZERO PUSH2 0xE51 JUMPI POP PUSH1 0x40 DUP1 MLOAD PUSH1 0x1F RETURNDATASIZE SWAP1 DUP2 ADD PUSH1 0x1F NOT AND DUP3 ADD SWAP1 SWAP3 MSTORE PUSH2 0xE4E SWAP2 DUP2 ADD SWAP1 PUSH2 0x13DE JUMP JUMPDEST PUSH1 0x1 JUMPDEST PUSH2 0xE79 JUMPI PUSH1 0x40 MLOAD PUSH4 0x4C9C8CE3 PUSH1 0xE0 SHL DUP2 MSTORE PUSH1 0x1 PUSH1 0x1 PUSH1 0xA0 SHL SUB DUP4 AND PUSH1 0x4 DUP3 ADD MSTORE PUSH1 0x24 ADD PUSH2 0x445 JUMP JUMPDEST PUSH0 MLOAD PUSH1 0x20 PUSH2 0x145D PUSH0 CODECOPY PUSH0 MLOAD SWAP1 PUSH0 MSTORE DUP2 EQ PUSH2 0xEA9 JUMPI PUSH1 0x40 MLOAD PUSH4 0x2A875269 PUSH1 0xE2 SHL DUP2 MSTORE PUSH1 0x4 DUP2 ADD DUP3 SWAP1 MSTORE PUSH1 0x24 ADD PUSH2 0x445 JUMP JUMPDEST PUSH2 0xEB3 DUP4 DUP4 PUSH2 0xFF9 JUMP JUMPDEST POP POP POP JUMP JUMPDEST ADDRESS PUSH1 0x1 PUSH1 0x1 PUSH1 0xA0 SHL SUB PUSH32 0x0 AND EQ PUSH2 0x838 JUMPI PUSH1 0x40 MLOAD PUSH4 0x703E46DD PUSH1 0xE1 SHL DUP2 MSTORE PUSH1 0x4 ADD PUSH1 0x40 MLOAD DUP1 SWAP2 SUB SWAP1 REVERT JUMPDEST CALLER PUSH2 0xF33 PUSH32 0x9016D09D72D40FDAE2FD8CEAC6B6234C7706214FD39C1CD1E609A0528C199300 SLOAD PUSH1 0x1 PUSH1 0x1 PUSH1 0xA0 SHL SUB AND SWAP1 JUMP JUMPDEST PUSH1 0x1 PUSH1 0x1 PUSH1 0xA0 SHL SUB AND EQ PUSH2 0x838 JUMPI PUSH1 0x40 MLOAD PUSH4 0x118CDAA7 PUSH1 0xE0 SHL DUP2 MSTORE CALLER PUSH1 0x4 DUP3 ADD MSTORE PUSH1 0x24 ADD PUSH2 0x445 JUMP JUMPDEST PUSH32 0x9016D09D72D40FDAE2FD8CEAC6B6234C7706214FD39C1CD1E609A0528C199300 DUP1 SLOAD PUSH1 0x1 PUSH1 0x1 PUSH1 0xA0 SHL SUB NOT DUP2 AND PUSH1 0x1 PUSH1 0x1 PUSH1 0xA0 SHL SUB DUP5 DUP2 AND SWAP2 DUP3 OR DUP5 SSTORE PUSH1 0x40 MLOAD SWAP3 AND SWAP2 DUP3 SWAP1 PUSH32 0x8BE0079C531659141344CD1FD0A4F28419497F9722A3DAAFE3B4186F6B6457E0 SWAP1 PUSH0 SWAP1 LOG3 POP POP POP JUMP JUMPDEST PUSH2 0xFD4 PUSH2 0x104E JUMP JUMPDEST PUSH2 0x838 JUMPI PUSH1 0x40 MLOAD PUSH4 0x1AFCD79F PUSH1 0xE3 SHL DUP2 MSTORE PUSH1 0x4 ADD PUSH1 0x40 MLOAD DUP1 SWAP2 SUB SWAP1 REVERT JUMPDEST PUSH2 0xCD3 PUSH2 0xFCC JUMP JUMPDEST PUSH2 0x1002 DUP3 PUSH2 0x1067 JUMP JUMPDEST PUSH1 0x40 MLOAD PUSH1 0x1 PUSH1 0x1 PUSH1 0xA0 SHL SUB DUP4 AND SWAP1 PUSH32 0xBC7CD75A20EE27FD9ADEBAB32041F755214DBC6BFFA90CC0225B39DA2E5C2D3B SWAP1 PUSH0 SWAP1 LOG2 DUP1 MLOAD ISZERO PUSH2 0x1046 JUMPI PUSH2 0xEB3 DUP3 DUP3 PUSH2 0x10CA JUMP JUMPDEST PUSH2 0x53B PUSH2 0x113C JUMP JUMPDEST PUSH0 PUSH2 0x1057 PUSH2 0xD08 JUMP JUMPDEST SLOAD PUSH1 0x1 PUSH1 0x40 SHL SWAP1 DIV PUSH1 0xFF AND SWAP2 SWAP1 POP JUMP JUMPDEST DUP1 PUSH1 0x1 PUSH1 0x1 PUSH1 0xA0 SHL SUB AND EXTCODESIZE PUSH0 SUB PUSH2 0x109C JUMPI PUSH1 0x40 MLOAD PUSH4 0x4C9C8CE3 PUSH1 0xE0 SHL DUP2 MSTORE PUSH1 0x1 PUSH1 0x1 PUSH1 0xA0 SHL SUB DUP3 AND PUSH1 0x4 DUP3 ADD MSTORE PUSH1 0x24 ADD PUSH2 0x445 JUMP JUMPDEST PUSH0 MLOAD PUSH1 0x20 PUSH2 0x145D PUSH0 CODECOPY PUSH0 MLOAD SWAP1 PUSH0 MSTORE DUP1 SLOAD PUSH1 0x1 PUSH1 0x1 PUSH1 0xA0 SHL SUB NOT AND PUSH1 0x1 PUSH1 0x1 PUSH1 0xA0 SHL SUB SWAP3 SWAP1 SWAP3 AND SWAP2 SWAP1 SWAP2 OR SWAP1 SSTORE JUMP JUMPDEST PUSH1 0x60 PUSH0 PUSH0 DUP5 PUSH1 0x1 PUSH1 0x1 PUSH1 0xA0 SHL SUB AND DUP5 PUSH1 0x40 MLOAD PUSH2 0x10E6 SWAP2 SWAP1 PUSH2 0x1446 JUMP JUMPDEST PUSH0 PUSH1 0x40 MLOAD DUP1 DUP4 SUB DUP2 DUP6 GAS DELEGATECALL SWAP2 POP POP RETURNDATASIZE DUP1 PUSH0 DUP2 EQ PUSH2 0x111E JUMPI PUSH1 0x40 MLOAD SWAP2 POP PUSH1 0x1F NOT PUSH1 0x3F RETURNDATASIZE ADD AND DUP3 ADD PUSH1 0x40 MSTORE RETURNDATASIZE DUP3 MSTORE RETURNDATASIZE PUSH0 PUSH1 0x20 DUP5 ADD RETURNDATACOPY PUSH2 0x1123 JUMP JUMPDEST PUSH1 0x60 SWAP2 POP JUMPDEST POP SWAP2 POP SWAP2 POP PUSH2 0x1133 DUP6 DUP4 DUP4 PUSH2 0x115B JUMP JUMPDEST SWAP6 SWAP5 POP POP POP POP POP JUMP JUMPDEST CALLVALUE ISZERO PUSH2 0x838 JUMPI PUSH1 0x40 MLOAD PUSH4 0xB398979F PUSH1 0xE0 SHL DUP2 MSTORE PUSH1 0x4 ADD PUSH1 0x40 MLOAD DUP1 SWAP2 SUB SWAP1 REVERT JUMPDEST PUSH1 0x60 DUP3 PUSH2 0x1170 JUMPI PUSH2 0x116B DUP3 PUSH2 0x11BA JUMP JUMPDEST PUSH2 0x11B3 JUMP JUMPDEST DUP2 MLOAD ISZERO DUP1 ISZERO PUSH2 0x1187 JUMPI POP PUSH1 0x1 PUSH1 0x1 PUSH1 0xA0 SHL SUB DUP5 AND EXTCODESIZE ISZERO JUMPDEST ISZERO PUSH2 0x11B0 JUMPI PUSH1 0x40 MLOAD PUSH4 0x9996B315 PUSH1 0xE0 SHL DUP2 MSTORE PUSH1 0x1 PUSH1 0x1 PUSH1 0xA0 SHL SUB DUP6 AND PUSH1 0x4 DUP3 ADD MSTORE PUSH1 0x24 ADD PUSH2 0x445 JUMP JUMPDEST POP DUP1 JUMPDEST SWAP4 SWAP3 POP POP POP JUMP JUMPDEST DUP1 MLOAD ISZERO PUSH2 0x11CA JUMPI DUP1 MLOAD DUP1 DUP3 PUSH1 0x20 ADD REVERT JUMPDEST PUSH1 0x40 MLOAD PUSH4 0xD6BDA275 PUSH1 0xE0 SHL DUP2 MSTORE PUSH1 0x4 ADD PUSH1 0x40 MLOAD DUP1 SWAP2 SUB SWAP1 REVERT JUMPDEST DUP1 CALLDATALOAD PUSH1 0x1 PUSH1 0x1 PUSH1 0xA0 SHL SUB DUP2 AND DUP2 EQ PUSH2 0x11F9 JUMPI PUSH0 PUSH0 REVERT JUMPDEST SWAP2 SWAP1 POP JUMP JUMPDEST PUSH0 PUSH1 0x20 DUP3 DUP5 SUB SLT ISZERO PUSH2 0x120E JUMPI PUSH0 PUSH0 REVERT JUMPDEST PUSH2 0x11B3 DUP3 PUSH2 0x11E3 JUMP JUMPDEST PUSH0 PUSH0 PUSH0 PUSH1 0x60 DUP5 DUP7 SUB SLT ISZERO PUSH2 0x1229 JUMPI PUSH0 PUSH0 REVERT JUMPDEST PUSH2 0x1232 DUP5 PUSH2 0x11E3 JUMP JUMPDEST SWAP3 POP PUSH2 0x1240 PUSH1 0x20 DUP6 ADD PUSH2 0x11E3 JUMP JUMPDEST SWAP3 SWAP6 SWAP3 SWAP5 POP POP POP PUSH1 0x40 SWAP2 SWAP1 SWAP2 ADD CALLDATALOAD SWAP1 JUMP JUMPDEST PUSH4 0x4E487B71 PUSH1 0xE0 SHL PUSH0 MSTORE PUSH1 0x41 PUSH1 0x4 MSTORE PUSH1 0x24 PUSH0 REVERT JUMPDEST PUSH0 PUSH0 PUSH1 0x40 DUP4 DUP6 SUB SLT ISZERO PUSH2 0x1276 JUMPI PUSH0 PUSH0 REVERT JUMPDEST PUSH2 0x127F DUP4 PUSH2 0x11E3 JUMP JUMPDEST SWAP2 POP PUSH1 0x20 DUP4 ADD CALLDATALOAD PUSH8 0xFFFFFFFFFFFFFFFF DUP2 GT ISZERO PUSH2 0x129A JUMPI PUSH0 PUSH0 REVERT JUMPDEST DUP4 ADD PUSH1 0x1F DUP2 ADD DUP6 SGT PUSH2 0x12AA JUMPI PUSH0 PUSH0 REVERT JUMPDEST DUP1 CALLDATALOAD PUSH8 0xFFFFFFFFFFFFFFFF DUP2 GT ISZERO PUSH2 0x12C4 JUMPI PUSH2 0x12C4 PUSH2 0x1251 JUMP JUMPDEST PUSH1 0x40 MLOAD PUSH1 0x1F DUP3 ADD PUSH1 0x1F NOT SWAP1 DUP2 AND PUSH1 0x3F ADD AND DUP2 ADD PUSH8 0xFFFFFFFFFFFFFFFF DUP2 GT DUP3 DUP3 LT OR ISZERO PUSH2 0x12F3 JUMPI PUSH2 0x12F3 PUSH2 0x1251 JUMP JUMPDEST PUSH1 0x40 MSTORE DUP2 DUP2 MSTORE DUP3 DUP3 ADD PUSH1 0x20 ADD DUP8 LT ISZERO PUSH2 0x130A JUMPI PUSH0 PUSH0 REVERT JUMPDEST DUP2 PUSH1 0x20 DUP5 ADD PUSH1 0x20 DUP4 ADD CALLDATACOPY PUSH0 PUSH1 0x20 DUP4 DUP4 ADD ADD MSTORE DUP1 SWAP4 POP POP POP POP SWAP3 POP SWAP3 SWAP1 POP JUMP JUMPDEST PUSH0 PUSH1 0x20 DUP3 DUP5 SUB SLT ISZERO PUSH2 0x1339 JUMPI PUSH0 PUSH0 REVERT JUMPDEST POP CALLDATALOAD SWAP2 SWAP1 POP JUMP JUMPDEST PUSH1 0x20 DUP2 MSTORE PUSH0 DUP3 MLOAD DUP1 PUSH1 0x20 DUP5 ADD MSTORE DUP1 PUSH1 0x20 DUP6 ADD PUSH1 0x40 DUP6 ADD MCOPY PUSH0 PUSH1 0x40 DUP3 DUP6 ADD ADD MSTORE PUSH1 0x40 PUSH1 0x1F NOT PUSH1 0x1F DUP4 ADD AND DUP5 ADD ADD SWAP2 POP POP SWAP3 SWAP2 POP POP JUMP JUMPDEST DUP1 ISZERO ISZERO DUP2 EQ PUSH2 0xD05 JUMPI PUSH0 PUSH0 REVERT JUMPDEST PUSH0 PUSH0 PUSH1 0x40 DUP4 DUP6 SUB SLT ISZERO PUSH2 0x1393 JUMPI PUSH0 PUSH0 REVERT JUMPDEST PUSH2 0x139C DUP4 PUSH2 0x11E3 JUMP JUMPDEST SWAP2 POP PUSH1 0x20 DUP4 ADD CALLDATALOAD PUSH2 0x13AC DUP2 PUSH2 0x1375 JUMP JUMPDEST DUP1 SWAP2 POP POP SWAP3 POP SWAP3 SWAP1 POP JUMP JUMPDEST PUSH4 0x4E487B71 PUSH1 0xE0 SHL PUSH0 MSTORE PUSH1 0x11 PUSH1 0x4 MSTORE PUSH1 0x24 PUSH0 REVERT JUMPDEST DUP1 DUP3 ADD DUP1 DUP3 GT ISZERO PUSH2 0xD2C JUMPI PUSH2 0xD2C PUSH2 0x13B7 JUMP JUMPDEST PUSH0 PUSH1 0x20 DUP3 DUP5 SUB SLT ISZERO PUSH2 0x13EE JUMPI PUSH0 PUSH0 REVERT JUMPDEST POP MLOAD SWAP2 SWAP1 POP JUMP JUMPDEST DUP1 DUP3 MUL DUP2 ISZERO DUP3 DUP3 DIV DUP5 EQ OR PUSH2 0xD2C JUMPI PUSH2 0xD2C PUSH2 0x13B7 JUMP JUMPDEST PUSH0 DUP3 PUSH2 0x1426 JUMPI PUSH4 0x4E487B71 PUSH1 0xE0 SHL PUSH0 MSTORE PUSH1 0x12 PUSH1 0x4 MSTORE PUSH1 0x24 PUSH0 REVERT JUMPDEST POP DIV SWAP1 JUMP JUMPDEST PUSH0 PUSH1 0x20 DUP3 DUP5 SUB SLT ISZERO PUSH2 0x143B JUMPI PUSH0 PUSH0 REVERT JUMPDEST DUP2 MLOAD PUSH2 0x11B3 DUP2 PUSH2 0x1375 JUMP JUMPDEST PUSH0 DUP3 MLOAD DUP1 PUSH1 0x20 DUP6 ADD DUP5 MCOPY PUSH0 SWAP3 ADD SWAP2 DUP3 MSTORE POP SWAP2 SWAP1 POP JUMP INVALID CALLDATASIZE ADDMOD SWAP5 LOG1 EXTCODESIZE LOG1 LOG3 0x21 MOD PUSH8 0xC828492DB98DCA3E KECCAK256 PUSH23 0xCC3735A920A3CA505D382BBCA264697066735822122000 LT 0xD CALLCODE SWAP13 0x2B PC STATICCALL 0xAC 0x25 0xD5 BLOBBASEFEE DIV 0xD2 SWAP13 CALLDATACOPY 0xE8 0xCF PUSH13 0x53916265E89DA6BBC81EE526FF PUSH5 0x736F6C6343 STOP ADDMOD 0x1E STOP CALLER "
				},
				"gasEstimates": {
					"creation": {
						"codeDepositCost": "1059600",
						"executionCost": "infinite",
						"totalCost": "infinite"
					},
					"external": {
						"ALVA()": "2403",
						"UPGRADE_INTERFACE_VERSION()": "infinite",
						"blackListAddress(address)": "2618",
						"blackListUser(address,bool)": "30550",
						"enter(uint256)": "infinite",
						"initialize(address,address,uint256)": "infinite",
						"leave(uint256)": "infinite",
						"lockedPeriod()": "2327",
						"owner()": "2375",
						"proxiableUUID()": "infinite",
						"renounceOwnership()": "infinite",
						"transferOwnership(address)": "28453",
						"updateLockPeriod(uint256)": "28023",
						"upgradeToAndCall(address,bytes)": "infinite",
						"userLockPeriod(address)": "2529",
						"xALVA()": "2425"
					},
					"internal": {
						"_authorizeUpgrade(address)": "infinite"
					}
				},
				"methodIdentifiers": {
					"ALVA()": "323bf9f0",
					"UPGRADE_INTERFACE_VERSION()": "ad3cb1cc",
					"blackListAddress(address)": "3b0e0133",
					"blackListUser(address,bool)": "e0cef1b0",
					"enter(uint256)": "a59f3e0c",
					"initialize(address,address,uint256)": "1794bb3c",
					"leave(uint256)": "67dfd4c9",
					"lockedPeriod()": "b3d6e119",
					"owner()": "8da5cb5b",
					"proxiableUUID()": "52d1902d",
					"renounceOwnership()": "715018a6",
					"transferOwnership(address)": "f2fde38b",
					"updateLockPeriod(uint256)": "91db7b0d",
					"upgradeToAndCall(address,bytes)": "4f1ef286",
					"userLockPeriod(address)": "0c8e32d2",
					"xALVA()": "6ac10901"
				}
			},
			"storageLayout": {
				"storage": [
					{
						"astId": 1446,
						"contract": "contracts/AlvaraDao.sol:AlvaraDao",
						"label": "ALVA",
						"offset": 0,
						"slot": "0",
						"type": "t_contract(IERC20)1856"
					},
					{
						"astId": 1449,
						"contract": "contracts/AlvaraDao.sol:AlvaraDao",
						"label": "xALVA",
						"offset": 0,
						"slot": "1",
						"type": "t_contract(IERC20)1856"
					},
					{
						"astId": 1453,
						"contract": "contracts/AlvaraDao.sol:AlvaraDao",
						"label": "userLockPeriod",
						"offset": 0,
						"slot": "2",
						"type": "t_mapping(t_address,t_uint256)"
					},
					{
						"astId": 1457,
						"contract": "contracts/AlvaraDao.sol:AlvaraDao",
						"label": "blackListAddress",
						"offset": 0,
						"slot": "3",
						"type": "t_mapping(t_address,t_bool)"
					},
					{
						"astId": 1459,
						"contract": "contracts/AlvaraDao.sol:AlvaraDao",
						"label": "lockedPeriod",
						"offset": 0,
						"slot": "4",
						"type": "t_uint256"
					}
				],
				"types": {
					"t_address": {
						"encoding": "inplace",
						"label": "address",
						"numberOfBytes": "20"
					},
					"t_bool": {
						"encoding": "inplace",
						"label": "bool",
						"numberOfBytes": "1"
					},
					"t_contract(IERC20)1856": {
						"encoding": "inplace",
						"label": "contract IERC20",
						"numberOfBytes": "20"
					},
					"t_mapping(t_address,t_bool)": {
						"encoding": "mapping",
						"key": "t_address",
						"label": "mapping(address => bool)",
						"numberOfBytes": "32",
						"value": "t_bool"
					},
					"t_mapping(t_address,t_uint256)": {
						"encoding": "mapping",
						"key": "t_address",
						"label": "mapping(address => uint256)",
						"numberOfBytes": "32",
						"value": "t_uint256"
					},
					"t_uint256": {
						"encoding": "inplace",
						"label": "uint256",
						"numberOfBytes": "32"
					}
				}
			},
			"userdoc": {
				"kind": "user",
				"methods": {},
				"version": 1
			}
		}
	}
}