{
	"data": {
		"bytecode": {
			"linkReferences": {},
			"object": "6001805461ffff60a01b1916905560a06040525f608090815260029061002590826100d9565b506004805460ff1916905534801561003b575f5ffd5b50610193565b634e487b7160e01b5f52604160045260245ffd5b600181811c9082168061006957607f821691505b60208210810361008757634e487b7160e01b5f52602260045260245ffd5b50919050565b601f8211156100d457805f5260205f20601f840160051c810160208510156100b25750805b601f840160051c820191505b818110156100d1575f81556001016100be565b50505b505050565b81516001600160401b038111156100f2576100f2610041565b610106816101008454610055565b8461008d565b6020601f821160018114610138575f83156101215750848201515b5f19600385901b1c1916600184901b1784556100d1565b5f84815260208120601f198516915b828110156101675787850151825560209485019460019092019101610147565b508482101561018457868401515f19600387901b60f8161c191681555b50505050600190811b01905550565b6111ac806101a05f395ff3fe60806040526004361061009d575f3560e01c80638833dc27116100625780638833dc271461039b578063a16a3d60146103bb578063ad0b523f146103f1578063bb1e753814610417578063e793e07214610436578063f03fc41414610471575f5ffd5b80632ef320bb146102f45780633c0bbcd914610307578063506f58eb1461033c57806361b5b6361461035b5780637d6478171461037c575f5ffd5b366102f0576040513481527f09475ba516de519e2eafe6b5be778bfa89bfa42d812a7d86cc2e8802bd366bdf9060200160405180910390a1600154600160a01b900460ff16156101b9575f546001600160a01b0316156101b957600160045460ff16600381111561011057610110610d68565b03610203575f546001600160a01b0316638c590917610130600234610d7c565b6003546040516001600160e01b031960e085901b1681526064600482015260248101919091526044015f604051808303818588803b158015610170575f5ffd5b505af193505050508015610182575060015b6101ee5761018e610d9b565b806308c379a0036101bb57506101a2610df5565b806101ad57506101bd565b60026101b98282610efd565b005b505b60408051808201909152600d81526c3ab735b737bbb71032b93937b960991b60208201526002906101b99082610efd565b6001805460ff60a81b1916600160a81b179055005b600260045460ff16600381111561021c5761021c610d68565b03610281575f54600354604051630441a3e760e41b81526001600482015260248101919091526001600160a01b039091169063441a3e70906044015f604051808303815f87803b15801561026e575f5ffd5b505af192505050801561018257506101ee565b600360045460ff16600381111561029a5761029a610d68565b036101b9575f546003546040516321c912e760e21b81526001600482015260646024820181905260448201929092526001600160a01b03909216916387244b9c91015f604051808303815f87803b15801561026e575b5f5ffd5b6101b9610302366004610fb8565b6104ad565b348015610312575f5ffd5b5060015461032790600160a01b900460ff1681565b60405190151581526020015b60405180910390f35b348015610347575f5ffd5b506101b9610356366004610fb8565b610705565b348015610366575f5ffd5b5061036f610a8f565b6040516103339190610fd8565b348015610387575f5ffd5b506101b961039636600461100d565b610b1b565b3480156103a6575f5ffd5b5060015461032790600160a81b900460ff1681565b3480156103c6575f5ffd5b505f546103d9906001600160a01b031681565b6040516001600160a01b039091168152602001610333565b3480156103fc575f5ffd5b5060045461040a9060ff1681565b6040516103339190611024565b348015610422575f5ffd5b506001546103d9906001600160a01b031681565b348015610441575f5ffd5b506101b9610450366004611061565b5f80546001600160a01b0319166001600160a01b0392909216919091179055565b34801561047c575f5ffd5b506101b961048b366004611061565b600180546001600160a01b0319166001600160a01b0392909216919091179055565b5f546001600160a01b03166104dd5760405162461bcd60e51b81526004016104d490611083565b60405180910390fd5b7ff29de9d8a0e89b3d2e5f9a87b5975f5e98b8e06ffa4e53a4cea1c46f7278b662604051610529906020808252600a9082015269636f6e7472696275746560b01b604082015260600190565b60405180910390a160048054600160ff199091168117909155805461ffff60a01b1916600160a01b17905560408051602081019091525f815260029061056f9082610efd565b5060038190555f54604051638c59091760e01b815260048101849052602481018390526001600160a01b0390911690638c5909179034906044015f604051808303818588803b1580156105c0575f5ffd5b505af1935050505080156105d2575060015b610649576105de610d9b565b806308c379a00361061057506105f2610df5565b806105fd5750610612565b60026106098282610efd565b50506106a3565b505b60408051808201909152600d81526c3ab735b737bbb71032b93937b960991b60208201526002906106439082610efd565b506106a3565b600154600160a81b900460ff16156106a35760405162461bcd60e51b815260206004820152601b60248201527f5265656e7472616e63792061747461636b20737563636565646564000000000060448201526064016104d4565b6001805460ff60a01b1916908190556004805460ff191690556040517f58ea8c4ed1e02be04916e1dc4fc18db829152b0f4752498e14fbb4b79ea7e72f916106f991600160a81b90910460ff16906002906110b0565b60405180910390a15050565b5f546001600160a01b031661072c5760405162461bcd60e51b81526004016104d490611083565b6001546001600160a01b031661077f5760405162461bcd60e51b8152602060048201526018602482015277109514c814185a5c881859191c995cdcc81b9bdd081cd95d60421b60448201526064016104d4565b7ff29de9d8a0e89b3d2e5f9a87b5975f5e98b8e06ffa4e53a4cea1c46f7278b6626040516107cc906020808252600b908201526a0eed2e8d0c8e4c2ee8aa8960ab1b604082015260600190565b60405180910390a16004805460ff1916600317905560018054600160a01b61ffff60a01b1990911617905560408051602081019091525f81526002906108129082610efd565b5060038190556001546040516370a0823160e01b81523060048201525f916001600160a01b0316906370a0823190602401602060405180830381865afa15801561085e573d5f5f3e3d5ffd5b505050506040513d601f19601f820116820180604052508101906108829190611140565b6001545f5460405163095ea7b360e01b81526001600160a01b03918216600482015260248101849052929350169063095ea7b3906044016020604051808303815f875af11580156108d5573d5f5f3e3d5ffd5b505050506040513d601f19601f820116820180604052508101906108f99190611157565b505f546040516321c912e760e21b81526004810183905260248101859052604481018490526001600160a01b03909116906387244b9c906064015f604051808303815f87803b15801561094a575f5ffd5b505af192505050801561095b575060015b6109d257610967610d9b565b806308c379a003610999575061097b610df5565b80610986575061099b565b60026109928282610efd565b5050610a2c565b505b60408051808201909152600d81526c3ab735b737bbb71032b93937b960991b60208201526002906109cc9082610efd565b50610a2c565b600154600160a81b900460ff1615610a2c5760405162461bcd60e51b815260206004820152601b60248201527f5265656e7472616e63792061747461636b20737563636565646564000000000060448201526064016104d4565b6001805460ff60a01b1916908190556004805460ff191690556040517f58ea8c4ed1e02be04916e1dc4fc18db829152b0f4752498e14fbb4b79ea7e72f91610a8291600160a81b90910460ff16906002906110b0565b60405180910390a1505050565b60028054610a9c90610e79565b80601f0160208091040260200160405190810160405280929190818152602001828054610ac890610e79565b8015610b135780601f10610aea57610100808354040283529160200191610b13565b820191905f5260205f20905b815481529060010190602001808311610af657829003601f168201915b505050505081565b5f546001600160a01b0316610b425760405162461bcd60e51b81526004016104d490611083565b6001546001600160a01b0316610b955760405162461bcd60e51b8152602060048201526018602482015277109514c814185a5c881859191c995cdcc81b9bdd081cd95d60421b60448201526064016104d4565b7ff29de9d8a0e89b3d2e5f9a87b5975f5e98b8e06ffa4e53a4cea1c46f7278b662604051610bdf90602080825260089082015267776974686472617760c01b604082015260600190565b60405180910390a160048054600260ff1990911681179091556001805461ffff60a01b1916600160a01b17905560408051602081019091525f8152610c249082610efd565b5060038190556001546040516370a0823160e01b81523060048201525f916001600160a01b0316906370a0823190602401602060405180830381865afa158015610c70573d5f5f3e3d5ffd5b505050506040513d601f19601f82011682018060405250810190610c949190611140565b6001545f5460405163095ea7b360e01b81526001600160a01b03918216600482015260248101849052929350169063095ea7b3906044016020604051808303815f875af1158015610ce7573d5f5f3e3d5ffd5b505050506040513d601f19601f82011682018060405250810190610d0b9190611157565b505f54604051630441a3e760e41b815260048101839052602481018490526001600160a01b039091169063441a3e70906044015f604051808303815f87803b158015610d55575f5ffd5b505af19250505080156105d25750610649565b634e487b7160e01b5f52602160045260245ffd5b5f82610d9657634e487b7160e01b5f52601260045260245ffd5b500490565b5f60033d1115610db15760045f5f3e505f5160e01c5b90565b634e487b7160e01b5f52604160045260245ffd5b601f8201601f1916810167ffffffffffffffff81118282101715610dee57610dee610db4565b6040525050565b5f60443d1015610e025790565b6040513d600319016004823e80513d602482011167ffffffffffffffff82111715610e2c57505090565b808201805167ffffffffffffffff811115610e48575050505090565b3d8401600319018282016020011115610e62575050505090565b610e7160208285010185610dc8565b509392505050565b600181811c90821680610e8d57607f821691505b602082108103610eab57634e487b7160e01b5f52602260045260245ffd5b50919050565b601f821115610ef857805f5260205f20601f840160051c81016020851015610ed65750805b601f840160051c820191505b81811015610ef5575f8155600101610ee2565b50505b505050565b815167ffffffffffffffff811115610f1757610f17610db4565b610f2b81610f258454610e79565b84610eb1565b6020601f821160018114610f5d575f8315610f465750848201515b5f19600385901b1c1916600184901b178455610ef5565b5f84815260208120601f198516915b82811015610f8c5787850151825560209485019460019092019101610f6c565b5084821015610fa957868401515f19600387901b60f8161c191681555b50505050600190811b01905550565b5f5f60408385031215610fc9575f5ffd5b50508035926020909101359150565b602081525f82518060208401528060208501604085015e5f604082850101526040601f19601f83011684010191505092915050565b5f6020828403121561101d575f5ffd5b5035919050565b602081016004831061104457634e487b7160e01b5f52602160045260245ffd5b91905290565b6001600160a01b038116811461105e575f5ffd5b50565b5f60208284031215611071575f5ffd5b813561107c8161104a565b9392505050565b602080825260139082015272109514c81859191c995cdcc81b9bdd081cd95d606a1b604082015260600190565b8215158152604060208201525f5f83546110c981610e79565b806040860152600182165f81146110e7576001811461110357611134565b60ff1983166060870152606082151560051b8701019350611134565b865f5260205f205f5b8381101561112b5781548882016060015260019091019060200161110c565b87016060019450505b50919695505050505050565b5f60208284031215611150575f5ffd5b5051919050565b5f60208284031215611167575f5ffd5b8151801515811461107c575f5ffdfea2646970667358221220a6ec18b4b426283a2e278ffcc86f0da9a33601c1342b639e2ba2a4afd83c2f6b64736f6c634300081e0033",
			"opcodes": "PUSH1 0x1 DUP1 SLOAD PUSH2 0xFFFF PUSH1 0xA0 SHL NOT AND SWAP1 SSTORE PUSH1 0xA0 PUSH1 0x40 MSTORE PUSH0 PUSH1 0x80 SWAP1 DUP2 MSTORE PUSH1 0x2 SWAP1 PUSH2 0x25 SWAP1 DUP3 PUSH2 0xD9 JUMP JUMPDEST POP PUSH1 0x4 DUP1 SLOAD PUSH1 0xFF NOT AND SWAP1 SSTORE CALLVALUE DUP1 ISZERO PUSH2 0x3B JUMPI PUSH0 PUSH0 REVERT JUMPDEST POP PUSH2 0x193 JUMP JUMPDEST PUSH4 0x4E487B71 PUSH1 0xE0 SHL PUSH0 MSTORE PUSH1 0x41 PUSH1 0x4 MSTORE PUSH1 0x24 PUSH0 REVERT JUMPDEST PUSH1 0x1 DUP2 DUP2 SHR SWAP1 DUP3 AND DUP1 PUSH2 0x69 JUMPI PUSH1 0x7F DUP3 AND SWAP2 POP JUMPDEST PUSH1 0x20 DUP3 LT DUP2 SUB PUSH2 0x87 JUMPI PUSH4 0x4E487B71 PUSH1 0xE0 SHL PUSH0 MSTORE PUSH1 0x22 PUSH1 0x4 MSTORE PUSH1 0x24 PUSH0 REVERT JUMPDEST POP SWAP2 SWAP1 POP JUMP JUMPDEST PUSH1 0x1F DUP3 GT ISZERO PUSH2 0xD4 JUMPI DUP1 PUSH0 MSTORE PUSH1 0x20 PUSH0 KECCAK256 PUSH1 0x1F DUP5 ADD PUSH1 0x5 SHR DUP2 ADD PUSH1 0x20 DUP6 LT ISZERO PUSH2 0xB2 JUMPI POP DUP1 JUMPDEST PUSH1 0x1F DUP5 ADD PUSH1 0x5 SHR DUP3 ADD SWAP2 POP JUMPDEST DUP2 DUP2 LT ISZERO PUSH2 0xD1 JUMPI PUSH0 DUP2 SSTORE PUSH1 0x1 ADD PUSH2 0xBE JUMP JUMPDEST POP POP JUMPDEST POP POP POP JUMP JUMPDEST DUP2 MLOAD PUSH1 0x1 PUSH1 0x1 PUSH1 0x40 SHL SUB DUP2 GT ISZERO PUSH2 0xF2 JUMPI PUSH2 0xF2 PUSH2 0x41 JUMP JUMPDEST PUSH2 0x106 DUP2 PUSH2 0x100 DUP5 SLOAD PUSH2 0x55 JUMP JUMPDEST DUP5 PUSH2 0x8D JUMP JUMPDEST PUSH1 0x20 PUSH1 0x1F DUP3 GT PUSH1 0x1 DUP2 EQ PUSH2 0x138 JUMPI PUSH0 DUP4 ISZERO PUSH2 0x121 JUMPI POP DUP5 DUP3 ADD MLOAD JUMPDEST PUSH0 NOT PUSH1 0x3 DUP6 SWAP1 SHL SHR NOT AND PUSH1 0x1 DUP5 SWAP1 SHL OR DUP5 SSTORE PUSH2 0xD1 JUMP JUMPDEST PUSH0 DUP5 DUP2 MSTORE PUSH1 0x20 DUP2 KECCAK256 PUSH1 0x1F NOT DUP6 AND SWAP2 JUMPDEST DUP3 DUP2 LT ISZERO PUSH2 0x167 JUMPI DUP8 DUP6 ADD MLOAD DUP3 SSTORE PUSH1 0x20 SWAP5 DUP6 ADD SWAP5 PUSH1 0x1 SWAP1 SWAP3 ADD SWAP2 ADD PUSH2 0x147 JUMP JUMPDEST POP DUP5 DUP3 LT ISZERO PUSH2 0x184 JUMPI DUP7 DUP5 ADD MLOAD PUSH0 NOT PUSH1 0x3 DUP8 SWAP1 SHL PUSH1 0xF8 AND SHR NOT AND DUP2 SSTORE JUMPDEST POP POP POP POP PUSH1 0x1 SWAP1 DUP2 SHL ADD SWAP1 SSTORE POP JUMP JUMPDEST PUSH2 0x11AC DUP1 PUSH2 0x1A0 PUSH0 CODECOPY PUSH0 RETURN INVALID PUSH1 0x80 PUSH1 0x40 MSTORE PUSH1 0x4 CALLDATASIZE LT PUSH2 0x9D JUMPI PUSH0 CALLDATALOAD PUSH1 0xE0 SHR DUP1 PUSH4 0x8833DC27 GT PUSH2 0x62 JUMPI DUP1 PUSH4 0x8833DC27 EQ PUSH2 0x39B JUMPI DUP1 PUSH4 0xA16A3D60 EQ PUSH2 0x3BB JUMPI DUP1 PUSH4 0xAD0B523F EQ PUSH2 0x3F1 JUMPI DUP1 PUSH4 0xBB1E7538 EQ PUSH2 0x417 JUMPI DUP1 PUSH4 0xE793E072 EQ PUSH2 0x436 JUMPI DUP1 PUSH4 0xF03FC414 EQ PUSH2 0x471 JUMPI PUSH0 PUSH0 REVERT JUMPDEST DUP1 PUSH4 0x2EF320BB EQ PUSH2 0x2F4 JUMPI DUP1 PUSH4 0x3C0BBCD9 EQ PUSH2 0x307 JUMPI DUP1 PUSH4 0x506F58EB EQ PUSH2 0x33C JUMPI DUP1 PUSH4 0x61B5B636 EQ PUSH2 0x35B JUMPI DUP1 PUSH4 0x7D647817 EQ PUSH2 0x37C JUMPI PUSH0 PUSH0 REVERT JUMPDEST CALLDATASIZE PUSH2 0x2F0 JUMPI PUSH1 0x40 MLOAD CALLVALUE DUP2 MSTORE PUSH32 0x9475BA516DE519E2EAFE6B5BE778BFA89BFA42D812A7D86CC2E8802BD366BDF SWAP1 PUSH1 0x20 ADD PUSH1 0x40 MLOAD DUP1 SWAP2 SUB SWAP1 LOG1 PUSH1 0x1 SLOAD PUSH1 0x1 PUSH1 0xA0 SHL SWAP1 DIV PUSH1 0xFF AND ISZERO PUSH2 0x1B9 JUMPI PUSH0 SLOAD PUSH1 0x1 PUSH1 0x1 PUSH1 0xA0 SHL SUB AND ISZERO PUSH2 0x1B9 JUMPI PUSH1 0x1 PUSH1 0x4 SLOAD PUSH1 0xFF AND PUSH1 0x3 DUP2 GT ISZERO PUSH2 0x110 JUMPI PUSH2 0x110 PUSH2 0xD68 JUMP JUMPDEST SUB PUSH2 0x203 JUMPI PUSH0 SLOAD PUSH1 0x1 PUSH1 0x1 PUSH1 0xA0 SHL SUB AND PUSH4 0x8C590917 PUSH2 0x130 PUSH1 0x2 CALLVALUE PUSH2 0xD7C JUMP JUMPDEST PUSH1 0x3 SLOAD PUSH1 0x40 MLOAD PUSH1 0x1 PUSH1 0x1 PUSH1 0xE0 SHL SUB NOT PUSH1 0xE0 DUP6 SWAP1 SHL AND DUP2 MSTORE PUSH1 0x64 PUSH1 0x4 DUP3 ADD MSTORE PUSH1 0x24 DUP2 ADD SWAP2 SWAP1 SWAP2 MSTORE PUSH1 0x44 ADD PUSH0 PUSH1 0x40 MLOAD DUP1 DUP4 SUB DUP2 DUP6 DUP9 DUP1 EXTCODESIZE ISZERO DUP1 ISZERO PUSH2 0x170 JUMPI PUSH0 PUSH0 REVERT JUMPDEST POP GAS CALL SWAP4 POP POP POP POP DUP1 ISZERO PUSH2 0x182 JUMPI POP PUSH1 0x1 JUMPDEST PUSH2 0x1EE JUMPI PUSH2 0x18E PUSH2 0xD9B JUMP JUMPDEST DUP1 PUSH4 0x8C379A0 SUB PUSH2 0x1BB JUMPI POP PUSH2 0x1A2 PUSH2 0xDF5 JUMP JUMPDEST DUP1 PUSH2 0x1AD JUMPI POP PUSH2 0x1BD JUMP JUMPDEST PUSH1 0x2 PUSH2 0x1B9 DUP3 DUP3 PUSH2 0xEFD JUMP JUMPDEST STOP JUMPDEST POP JUMPDEST PUSH1 0x40 DUP1 MLOAD DUP1 DUP3 ADD SWAP1 SWAP2 MSTORE PUSH1 0xD DUP2 MSTORE PUSH13 0x3AB735B737BBB71032B93937B9 PUSH1 0x99 SHL PUSH1 0x20 DUP3 ADD MSTORE PUSH1 0x2 SWAP1 PUSH2 0x1B9 SWAP1 DUP3 PUSH2 0xEFD JUMP JUMPDEST PUSH1 0x1 DUP1 SLOAD PUSH1 0xFF PUSH1 0xA8 SHL NOT AND PUSH1 0x1 PUSH1 0xA8 SHL OR SWAP1 SSTORE STOP JUMPDEST PUSH1 0x2 PUSH1 0x4 SLOAD PUSH1 0xFF AND PUSH1 0x3 DUP2 GT ISZERO PUSH2 0x21C JUMPI PUSH2 0x21C PUSH2 0xD68 JUMP JUMPDEST SUB PUSH2 0x281 JUMPI PUSH0 SLOAD PUSH1 0x3 SLOAD PUSH1 0x40 MLOAD PUSH4 0x441A3E7 PUSH1 0xE4 SHL DUP2 MSTORE PUSH1 0x1 PUSH1 0x4 DUP3 ADD MSTORE PUSH1 0x24 DUP2 ADD SWAP2 SWAP1 SWAP2 MSTORE PUSH1 0x1 PUSH1 0x1 PUSH1 0xA0 SHL SUB SWAP1 SWAP2 AND SWAP1 PUSH4 0x441A3E70 SWAP1 PUSH1 0x44 ADD PUSH0 PUSH1 0x40 MLOAD DUP1 DUP4 SUB DUP2 PUSH0 DUP8 DUP1 EXTCODESIZE ISZERO DUP1 ISZERO PUSH2 0x26E JUMPI PUSH0 PUSH0 REVERT JUMPDEST POP GAS CALL SWAP3 POP POP POP DUP1 ISZERO PUSH2 0x182 JUMPI POP PUSH2 0x1EE JUMP JUMPDEST PUSH1 0x3 PUSH1 0x4 SLOAD PUSH1 0xFF AND PUSH1 0x3 DUP2 GT ISZERO PUSH2 0x29A JUMPI PUSH2 0x29A PUSH2 0xD68 JUMP JUMPDEST SUB PUSH2 0x1B9 JUMPI PUSH0 SLOAD PUSH1 0x3 SLOAD PUSH1 0x40 MLOAD PUSH4 0x21C912E7 PUSH1 0xE2 SHL DUP2 MSTORE PUSH1 0x1 PUSH1 0x4 DUP3 ADD MSTORE PUSH1 0x64 PUSH1 0x24 DUP3 ADD DUP2 SWAP1 MSTORE PUSH1 0x44 DUP3 ADD SWAP3 SWAP1 SWAP3 MSTORE PUSH1 0x1 PUSH1 0x1 PUSH1 0xA0 SHL SUB SWAP1 SWAP3 AND SWAP2 PUSH4 0x87244B9C SWAP2 ADD PUSH0 PUSH1 0x40 MLOAD DUP1 DUP4 SUB DUP2 PUSH0 DUP8 DUP1 EXTCODESIZE ISZERO DUP1 ISZERO PUSH2 0x26E JUMPI JUMPDEST PUSH0 PUSH0 REVERT JUMPDEST PUSH2 0x1B9 PUSH2 0x302 CALLDATASIZE PUSH1 0x4 PUSH2 0xFB8 JUMP JUMPDEST PUSH2 0x4AD JUMP JUMPDEST CALLVALUE DUP1 ISZERO PUSH2 0x312 JUMPI PUSH0 PUSH0 REVERT JUMPDEST POP PUSH1 0x1 SLOAD PUSH2 0x327 SWAP1 PUSH1 0x1 PUSH1 0xA0 SHL SWAP1 DIV PUSH1 0xFF AND DUP2 JUMP JUMPDEST PUSH1 0x40 MLOAD SWAP1 ISZERO ISZERO DUP2 MSTORE PUSH1 0x20 ADD JUMPDEST PUSH1 0x40 MLOAD DUP1 SWAP2 SUB SWAP1 RETURN JUMPDEST CALLVALUE DUP1 ISZERO PUSH2 0x347 JUMPI PUSH0 PUSH0 REVERT JUMPDEST POP PUSH2 0x1B9 PUSH2 0x356 CALLDATASIZE PUSH1 0x4 PUSH2 0xFB8 JUMP JUMPDEST PUSH2 0x705 JUMP JUMPDEST CALLVALUE DUP1 ISZERO PUSH2 0x366 JUMPI PUSH0 PUSH0 REVERT JUMPDEST POP PUSH2 0x36F PUSH2 0xA8F JUMP JUMPDEST PUSH1 0x40 MLOAD PUSH2 0x333 SWAP2 SWAP1 PUSH2 0xFD8 JUMP JUMPDEST CALLVALUE DUP1 ISZERO PUSH2 0x387 JUMPI PUSH0 PUSH0 REVERT JUMPDEST POP PUSH2 0x1B9 PUSH2 0x396 CALLDATASIZE PUSH1 0x4 PUSH2 0x100D JUMP JUMPDEST PUSH2 0xB1B JUMP JUMPDEST CALLVALUE DUP1 ISZERO PUSH2 0x3A6 JUMPI PUSH0 PUSH0 REVERT JUMPDEST POP PUSH1 0x1 SLOAD PUSH2 0x327 SWAP1 PUSH1 0x1 PUSH1 0xA8 SHL SWAP1 DIV PUSH1 0xFF AND DUP2 JUMP JUMPDEST CALLVALUE DUP1 ISZERO PUSH2 0x3C6 JUMPI PUSH0 PUSH0 REVERT JUMPDEST POP PUSH0 SLOAD PUSH2 0x3D9 SWAP1 PUSH1 0x1 PUSH1 0x1 PUSH1 0xA0 SHL SUB AND DUP2 JUMP JUMPDEST PUSH1 0x40 MLOAD PUSH1 0x1 PUSH1 0x1 PUSH1 0xA0 SHL SUB SWAP1 SWAP2 AND DUP2 MSTORE PUSH1 0x20 ADD PUSH2 0x333 JUMP JUMPDEST CALLVALUE DUP1 ISZERO PUSH2 0x3FC JUMPI PUSH0 PUSH0 REVERT JUMPDEST POP PUSH1 0x4 SLOAD PUSH2 0x40A SWAP1 PUSH1 0xFF AND DUP2 JUMP JUMPDEST PUSH1 0x40 MLOAD PUSH2 0x333 SWAP2 SWAP1 PUSH2 0x1024 JUMP JUMPDEST CALLVALUE DUP1 ISZERO PUSH2 0x422 JUMPI PUSH0 PUSH0 REVERT JUMPDEST POP PUSH1 0x1 SLOAD PUSH2 0x3D9 SWAP1 PUSH1 0x1 PUSH1 0x1 PUSH1 0xA0 SHL SUB AND DUP2 JUMP JUMPDEST CALLVALUE DUP1 ISZERO PUSH2 0x441 JUMPI PUSH0 PUSH0 REVERT JUMPDEST POP PUSH2 0x1B9 PUSH2 0x450 CALLDATASIZE PUSH1 0x4 PUSH2 0x1061 JUMP JUMPDEST PUSH0 DUP1 SLOAD PUSH1 0x1 PUSH1 0x1 PUSH1 0xA0 SHL SUB NOT AND PUSH1 0x1 PUSH1 0x1 PUSH1 0xA0 SHL SUB SWAP3 SWAP1 SWAP3 AND SWAP2 SWAP1 SWAP2 OR SWAP1 SSTORE JUMP JUMPDEST CALLVALUE DUP1 ISZERO PUSH2 0x47C JUMPI PUSH0 PUSH0 REVERT JUMPDEST POP PUSH2 0x1B9 PUSH2 0x48B CALLDATASIZE PUSH1 0x4 PUSH2 0x1061 JUMP JUMPDEST PUSH1 0x1 DUP1 SLOAD PUSH1 0x1 PUSH1 0x1 PUSH1 0xA0 SHL SUB NOT AND PUSH1 0x1 PUSH1 0x1 PUSH1 0xA0 SHL SUB SWAP3 SWAP1 SWAP3 AND SWAP2 SWAP1 SWAP2 OR SWAP1 SSTORE JUMP JUMPDEST PUSH0 SLOAD PUSH1 0x1 PUSH1 0x1 PUSH1 0xA0 SHL SUB AND PUSH2 0x4DD JUMPI PUSH1 0x40 MLOAD PUSH3 0x461BCD PUSH1 0xE5 SHL DUP2 MSTORE PUSH1 0x4 ADD PUSH2 0x4D4 SWAP1 PUSH2 0x1083 JUMP JUMPDEST PUSH1 0x40 MLOAD DUP1 SWAP2 SUB SWAP1 REVERT JUMPDEST PUSH32 0xF29DE9D8A0E89B3D2E5F9A87B5975F5E98B8E06FFA4E53A4CEA1C46F7278B662 PUSH1 0x40 MLOAD PUSH2 0x529 SWAP1 PUSH1 0x20 DUP1 DUP3 MSTORE PUSH1 0xA SWAP1 DUP3 ADD MSTORE PUSH10 0x636F6E74726962757465 PUSH1 0xB0 SHL PUSH1 0x40 DUP3 ADD MSTORE PUSH1 0x60 ADD SWAP1 JUMP JUMPDEST PUSH1 0x40 MLOAD DUP1 SWAP2 SUB SWAP1 LOG1 PUSH1 0x4 DUP1 SLOAD PUSH1 0x1 PUSH1 0xFF NOT SWAP1 SWAP2 AND DUP2 OR SWAP1 SWAP2 SSTORE DUP1 SLOAD PUSH2 0xFFFF PUSH1 0xA0 SHL NOT AND PUSH1 0x1 PUSH1 0xA0 SHL OR SWAP1 SSTORE PUSH1 0x40 DUP1 MLOAD PUSH1 0x20 DUP2 ADD SWAP1 SWAP2 MSTORE PUSH0 DUP2 MSTORE PUSH1 0x2 SWAP1 PUSH2 0x56F SWAP1 DUP3 PUSH2 0xEFD JUMP JUMPDEST POP PUSH1 0x3 DUP2 SWAP1 SSTORE PUSH0 SLOAD PUSH1 0x40 MLOAD PUSH4 0x8C590917 PUSH1 0xE0 SHL DUP2 MSTORE PUSH1 0x4 DUP2 ADD DUP5 SWAP1 MSTORE PUSH1 0x24 DUP2 ADD DUP4 SWAP1 MSTORE PUSH1 0x1 PUSH1 0x1 PUSH1 0xA0 SHL SUB SWAP1 SWAP2 AND SWAP1 PUSH4 0x8C590917 SWAP1 CALLVALUE SWAP1 PUSH1 0x44 ADD PUSH0 PUSH1 0x40 MLOAD DUP1 DUP4 SUB DUP2 DUP6 DUP9 DUP1 EXTCODESIZE ISZERO DUP1 ISZERO PUSH2 0x5C0 JUMPI PUSH0 PUSH0 REVERT JUMPDEST POP GAS CALL SWAP4 POP POP POP POP DUP1 ISZERO PUSH2 0x5D2 JUMPI POP PUSH1 0x1 JUMPDEST PUSH2 0x649 JUMPI PUSH2 0x5DE PUSH2 0xD9B JUMP JUMPDEST DUP1 PUSH4 0x8C379A0 SUB PUSH2 0x610 JUMPI POP PUSH2 0x5F2 PUSH2 0xDF5 JUMP JUMPDEST DUP1 PUSH2 0x5FD JUMPI POP PUSH2 0x612 JUMP JUMPDEST PUSH1 0x2 PUSH2 0x609 DUP3 DUP3 PUSH2 0xEFD JUMP JUMPDEST POP POP PUSH2 0x6A3 JUMP JUMPDEST POP JUMPDEST PUSH1 0x40 DUP1 MLOAD DUP1 DUP3 ADD SWAP1 SWAP2 MSTORE PUSH1 0xD DUP2 MSTORE PUSH13 0x3AB735B737BBB71032B93937B9 PUSH1 0x99 SHL PUSH1 0x20 DUP3 ADD MSTORE PUSH1 0x2 SWAP1 PUSH2 0x643 SWAP1 DUP3 PUSH2 0xEFD JUMP JUMPDEST POP PUSH2 0x6A3 JUMP JUMPDEST PUSH1 0x1 SLOAD PUSH1 0x1 PUSH1 0xA8 SHL SWAP1 DIV PUSH1 0xFF AND ISZERO PUSH2 0x6A3 JUMPI PUSH1 0x40 MLOAD PUSH3 0x461BCD PUSH1 0xE5 SHL DUP2 MSTORE PUSH1 0x20 PUSH1 0x4 DUP3 ADD MSTORE PUSH1 0x1B PUSH1 0x24 DUP3 ADD MSTORE PUSH32 0x5265656E7472616E63792061747461636B207375636365656465640000000000 PUSH1 0x44 DUP3 ADD MSTORE PUSH1 0x64 ADD PUSH2 0x4D4 JUMP JUMPDEST PUSH1 0x1 DUP1 SLOAD PUSH1 0xFF PUSH1 0xA0 SHL NOT AND SWAP1 DUP2 SWAP1 SSTORE PUSH1 0x4 DUP1 SLOAD PUSH1 0xFF NOT AND SWAP1 SSTORE PUSH1 0x40 MLOAD PUSH32 0x58EA8C4ED1E02BE04916E1DC4FC18DB829152B0F4752498E14FBB4B79EA7E72F SWAP2 PUSH2 0x6F9 SWAP2 PUSH1 0x1 PUSH1 0xA8 SHL SWAP1 SWAP2 DIV PUSH1 0xFF AND SWAP1 PUSH1 0x2 SWAP1 PUSH2 0x10B0 JUMP JUMPDEST PUSH1 0x40 MLOAD DUP1 SWAP2 SUB SWAP1 LOG1 POP POP JUMP JUMPDEST PUSH0 SLOAD PUSH1 0x1 PUSH1 0x1 PUSH1 0xA0 SHL SUB AND PUSH2 0x72C JUMPI PUSH1 0x40 MLOAD PUSH3 0x461BCD PUSH1 0xE5 SHL DUP2 MSTORE PUSH1 0x4 ADD PUSH2 0x4D4 SWAP1 PUSH2 0x1083 JUMP JUMPDEST PUSH1 0x1 SLOAD PUSH1 0x1 PUSH1 0x1 PUSH1 0xA0 SHL SUB AND PUSH2 0x77F JUMPI PUSH1 0x40 MLOAD PUSH3 0x461BCD PUSH1 0xE5 SHL DUP2 MSTORE PUSH1 0x20 PUSH1 0x4 DUP3 ADD MSTORE PUSH1 0x18 PUSH1 0x24 DUP3 ADD MSTORE PUSH24 0x109514C814185A5C881859191C995CDCC81B9BDD081CD95D PUSH1 0x42 SHL PUSH1 0x44 DUP3 ADD MSTORE PUSH1 0x64 ADD PUSH2 0x4D4 JUMP JUMPDEST PUSH32 0xF29DE9D8A0E89B3D2E5F9A87B5975F5E98B8E06FFA4E53A4CEA1C46F7278B662 PUSH1 0x40 MLOAD PUSH2 0x7CC SWAP1 PUSH1 0x20 DUP1 DUP3 MSTORE PUSH1 0xB SWAP1 DUP3 ADD MSTORE PUSH11 0xEED2E8D0C8E4C2EE8AA89 PUSH1 0xAB SHL PUSH1 0x40 DUP3 ADD MSTORE PUSH1 0x60 ADD SWAP1 JUMP JUMPDEST PUSH1 0x40 MLOAD DUP1 SWAP2 SUB SWAP1 LOG1 PUSH1 0x4 DUP1 SLOAD PUSH1 0xFF NOT AND PUSH1 0x3 OR SWAP1 SSTORE PUSH1 0x1 DUP1 SLOAD PUSH1 0x1 PUSH1 0xA0 SHL PUSH2 0xFFFF PUSH1 0xA0 SHL NOT SWAP1 SWAP2 AND OR SWAP1 SSTORE PUSH1 0x40 DUP1 MLOAD PUSH1 0x20 DUP2 ADD SWAP1 SWAP2 MSTORE PUSH0 DUP2 MSTORE PUSH1 0x2 SWAP1 PUSH2 0x812 SWAP1 DUP3 PUSH2 0xEFD JUMP JUMPDEST POP PUSH1 0x3 DUP2 SWAP1 SSTORE PUSH1 0x1 SLOAD PUSH1 0x40 MLOAD PUSH4 0x70A08231 PUSH1 0xE0 SHL DUP2 MSTORE ADDRESS PUSH1 0x4 DUP3 ADD MSTORE PUSH0 SWAP2 PUSH1 0x1 PUSH1 0x1 PUSH1 0xA0 SHL SUB AND SWAP1 PUSH4 0x70A08231 SWAP1 PUSH1 0x24 ADD PUSH1 0x20 PUSH1 0x40 MLOAD DUP1 DUP4 SUB DUP2 DUP7 GAS STATICCALL ISZERO DUP1 ISZERO PUSH2 0x85E JUMPI RETURNDATASIZE PUSH0 PUSH0 RETURNDATACOPY RETURNDATASIZE PUSH0 REVERT JUMPDEST POP POP POP POP PUSH1 0x40 MLOAD RETURNDATASIZE PUSH1 0x1F NOT PUSH1 0x1F DUP3 ADD AND DUP3 ADD DUP1 PUSH1 0x40 MSTORE POP DUP2 ADD SWAP1 PUSH2 0x882 SWAP2 SWAP1 PUSH2 0x1140 JUMP JUMPDEST PUSH1 0x1 SLOAD PUSH0 SLOAD PUSH1 0x40 MLOAD PUSH4 0x95EA7B3 PUSH1 0xE0 SHL DUP2 MSTORE PUSH1 0x1 PUSH1 0x1 PUSH1 0xA0 SHL SUB SWAP2 DUP3 AND PUSH1 0x4 DUP3 ADD MSTORE PUSH1 0x24 DUP2 ADD DUP5 SWAP1 MSTORE SWAP3 SWAP4 POP AND SWAP1 PUSH4 0x95EA7B3 SWAP1 PUSH1 0x44 ADD PUSH1 0x20 PUSH1 0x40 MLOAD DUP1 DUP4 SUB DUP2 PUSH0 DUP8 GAS CALL ISZERO DUP1 ISZERO PUSH2 0x8D5 JUMPI RETURNDATASIZE PUSH0 PUSH0 RETURNDATACOPY RETURNDATASIZE PUSH0 REVERT JUMPDEST POP POP POP POP PUSH1 0x40 MLOAD RETURNDATASIZE PUSH1 0x1F NOT PUSH1 0x1F DUP3 ADD AND DUP3 ADD DUP1 PUSH1 0x40 MSTORE POP DUP2 ADD SWAP1 PUSH2 0x8F9 SWAP2 SWAP1 PUSH2 0x1157 JUMP JUMPDEST POP PUSH0 SLOAD PUSH1 0x40 MLOAD PUSH4 0x21C912E7 PUSH1 0xE2 SHL DUP2 MSTORE PUSH1 0x4 DUP2 ADD DUP4 SWAP1 MSTORE PUSH1 0x24 DUP2 ADD DUP6 SWAP1 MSTORE PUSH1 0x44 DUP2 ADD DUP5 SWAP1 MSTORE PUSH1 0x1 PUSH1 0x1 PUSH1 0xA0 SHL SUB SWAP1 SWAP2 AND SWAP1 PUSH4 0x87244B9C SWAP1 PUSH1 0x64 ADD PUSH0 PUSH1 0x40 MLOAD DUP1 DUP4 SUB DUP2 PUSH0 DUP8 DUP1 EXTCODESIZE ISZERO DUP1 ISZERO PUSH2 0x94A JUMPI PUSH0 PUSH0 REVERT JUMPDEST POP GAS CALL SWAP3 POP POP POP DUP1 ISZERO PUSH2 0x95B JUMPI POP PUSH1 0x1 JUMPDEST PUSH2 0x9D2 JUMPI PUSH2 0x967 PUSH2 0xD9B JUMP JUMPDEST DUP1 PUSH4 0x8C379A0 SUB PUSH2 0x999 JUMPI POP PUSH2 0x97B PUSH2 0xDF5 JUMP JUMPDEST DUP1 PUSH2 0x986 JUMPI POP PUSH2 0x99B JUMP JUMPDEST PUSH1 0x2 PUSH2 0x992 DUP3 DUP3 PUSH2 0xEFD JUMP JUMPDEST POP POP PUSH2 0xA2C JUMP JUMPDEST POP JUMPDEST PUSH1 0x40 DUP1 MLOAD DUP1 DUP3 ADD SWAP1 SWAP2 MSTORE PUSH1 0xD DUP2 MSTORE PUSH13 0x3AB735B737BBB71032B93937B9 PUSH1 0x99 SHL PUSH1 0x20 DUP3 ADD MSTORE PUSH1 0x2 SWAP1 PUSH2 0x9CC SWAP1 DUP3 PUSH2 0xEFD JUMP JUMPDEST POP PUSH2 0xA2C JUMP JUMPDEST PUSH1 0x1 SLOAD PUSH1 0x1 PUSH1 0xA8 SHL SWAP1 DIV PUSH1 0xFF AND ISZERO PUSH2 0xA2C JUMPI PUSH1 0x40 MLOAD PUSH3 0x461BCD PUSH1 0xE5 SHL DUP2 MSTORE PUSH1 0x20 PUSH1 0x4 DUP3 ADD MSTORE PUSH1 0x1B PUSH1 0x24 DUP3 ADD MSTORE PUSH32 0x5265656E7472616E63792061747461636B207375636365656465640000000000 PUSH1 0x44 DUP3 ADD MSTORE PUSH1 0x64 ADD PUSH2 0x4D4 JUMP JUMPDEST PUSH1 0x1 DUP1 SLOAD PUSH1 0xFF PUSH1 0xA0 SHL NOT AND SWAP1 DUP2 SWAP1 SSTORE PUSH1 0x4 DUP1 SLOAD PUSH1 0xFF NOT AND SWAP1 SSTORE PUSH1 0x40 MLOAD PUSH32 0x58EA8C4ED1E02BE04916E1DC4FC18DB829152B0F4752498E14FBB4B79EA7E72F SWAP2 PUSH2 0xA82 SWAP2 PUSH1 0x1 PUSH1 0xA8 SHL SWAP1 SWAP2 DIV PUSH1 0xFF AND SWAP1 PUSH1 0x2 SWAP1 PUSH2 0x10B0 JUMP JUMPDEST PUSH1 0x40 MLOAD DUP1 SWAP2 SUB SWAP1 LOG1 POP POP POP JUMP JUMPDEST PUSH1 0x2 DUP1 SLOAD PUSH2 0xA9C SWAP1 PUSH2 0xE79 JUMP JUMPDEST DUP1 PUSH1 0x1F ADD PUSH1 0x20 DUP1 SWAP2 DIV MUL PUSH1 0x20 ADD PUSH1 0x40 MLOAD SWAP1 DUP2 ADD PUSH1 0x40 MSTORE DUP1 SWAP3 SWAP2 SWAP1 DUP2 DUP2 MSTORE PUSH1 0x20 ADD DUP3 DUP1 SLOAD PUSH2 0xAC8 SWAP1 PUSH2 0xE79 JUMP JUMPDEST DUP1 ISZERO PUSH2 0xB13 JUMPI DUP1 PUSH1 0x1F LT PUSH2 0xAEA JUMPI PUSH2 0x100 DUP1 DUP4 SLOAD DIV MUL DUP4 MSTORE SWAP2 PUSH1 0x20 ADD SWAP2 PUSH2 0xB13 JUMP JUMPDEST DUP3 ADD SWAP2 SWAP1 PUSH0 MSTORE PUSH1 0x20 PUSH0 KECCAK256 SWAP1 JUMPDEST DUP2 SLOAD DUP2 MSTORE SWAP1 PUSH1 0x1 ADD SWAP1 PUSH1 0x20 ADD DUP1 DUP4 GT PUSH2 0xAF6 JUMPI DUP3 SWAP1 SUB PUSH1 0x1F AND DUP3 ADD SWAP2 JUMPDEST POP POP POP POP POP DUP2 JUMP JUMPDEST PUSH0 SLOAD PUSH1 0x1 PUSH1 0x1 PUSH1 0xA0 SHL SUB AND PUSH2 0xB42 JUMPI PUSH1 0x40 MLOAD PUSH3 0x461BCD PUSH1 0xE5 SHL DUP2 MSTORE PUSH1 0x4 ADD PUSH2 0x4D4 SWAP1 PUSH2 0x1083 JUMP JUMPDEST PUSH1 0x1 SLOAD PUSH1 0x1 PUSH1 0x1 PUSH1 0xA0 SHL SUB AND PUSH2 0xB95 JUMPI PUSH1 0x40 MLOAD PUSH3 0x461BCD PUSH1 0xE5 SHL DUP2 MSTORE PUSH1 0x20 PUSH1 0x4 DUP3 ADD MSTORE PUSH1 0x18 PUSH1 0x24 DUP3 ADD MSTORE PUSH24 0x109514C814185A5C881859191C995CDCC81B9BDD081CD95D PUSH1 0x42 SHL PUSH1 0x44 DUP3 ADD MSTORE PUSH1 0x64 ADD PUSH2 0x4D4 JUMP JUMPDEST PUSH32 0xF29DE9D8A0E89B3D2E5F9A87B5975F5E98B8E06FFA4E53A4CEA1C46F7278B662 PUSH1 0x40 MLOAD PUSH2 0xBDF SWAP1 PUSH1 0x20 DUP1 DUP3 MSTORE PUSH1 0x8 SWAP1 DUP3 ADD MSTORE PUSH8 0x7769746864726177 PUSH1 0xC0 SHL PUSH1 0x40 DUP3 ADD MSTORE PUSH1 0x60 ADD SWAP1 JUMP JUMPDEST PUSH1 0x40 MLOAD DUP1 SWAP2 SUB SWAP1 LOG1 PUSH1 0x4 DUP1 SLOAD PUSH1 0x2 PUSH1 0xFF NOT SWAP1 SWAP2 AND DUP2 OR SWAP1 SWAP2 SSTORE PUSH1 0x1 DUP1 SLOAD PUSH2 0xFFFF PUSH1 0xA0 SHL NOT AND PUSH1 0x1 PUSH1 0xA0 SHL OR SWAP1 SSTORE PUSH1 0x40 DUP1 MLOAD PUSH1 0x20 DUP2 ADD SWAP1 SWAP2 MSTORE PUSH0 DUP2 MSTORE PUSH2 0xC24 SWAP1 DUP3 PUSH2 0xEFD JUMP JUMPDEST POP PUSH1 0x3 DUP2 SWAP1 SSTORE PUSH1 0x1 SLOAD PUSH1 0x40 MLOAD PUSH4 0x70A08231 PUSH1 0xE0 SHL DUP2 MSTORE ADDRESS PUSH1 0x4 DUP3 ADD MSTORE PUSH0 SWAP2 PUSH1 0x1 PUSH1 0x1 PUSH1 0xA0 SHL SUB AND SWAP1 PUSH4 0x70A08231 SWAP1 PUSH1 0x24 ADD PUSH1 0x20 PUSH1 0x40 MLOAD DUP1 DUP4 SUB DUP2 DUP7 GAS STATICCALL ISZERO DUP1 ISZERO PUSH2 0xC70 JUMPI RETURNDATASIZE PUSH0 PUSH0 RETURNDATACOPY RETURNDATASIZE PUSH0 REVERT JUMPDEST POP POP POP POP PUSH1 0x40 MLOAD RETURNDATASIZE PUSH1 0x1F NOT PUSH1 0x1F DUP3 ADD AND DUP3 ADD DUP1 PUSH1 0x40 MSTORE POP DUP2 ADD SWAP1 PUSH2 0xC94 SWAP2 SWAP1 PUSH2 0x1140 JUMP JUMPDEST PUSH1 0x1 SLOAD PUSH0 SLOAD PUSH1 0x40 MLOAD PUSH4 0x95EA7B3 PUSH1 0xE0 SHL DUP2 MSTORE PUSH1 0x1 PUSH1 0x1 PUSH1 0xA0 SHL SUB SWAP2 DUP3 AND PUSH1 0x4 DUP3 ADD MSTORE PUSH1 0x24 DUP2 ADD DUP5 SWAP1 MSTORE SWAP3 SWAP4 POP AND SWAP1 PUSH4 0x95EA7B3 SWAP1 PUSH1 0x44 ADD PUSH1 0x20 PUSH1 0x40 MLOAD DUP1 DUP4 SUB DUP2 PUSH0 DUP8 GAS CALL ISZERO DUP1 ISZERO PUSH2 0xCE7 JUMPI RETURNDATASIZE PUSH0 PUSH0 RETURNDATACOPY RETURNDATASIZE PUSH0 REVERT JUMPDEST POP POP POP POP PUSH1 0x40 MLOAD RETURNDATASIZE PUSH1 0x1F NOT PUSH1 0x1F DUP3 ADD AND DUP3 ADD DUP1 PUSH1 0x40 MSTORE POP DUP2 ADD SWAP1 PUSH2 0xD0B SWAP2 SWAP1 PUSH2 0x1157 JUMP JUMPDEST POP PUSH0 SLOAD PUSH1 0x40 MLOAD PUSH4 0x441A3E7 PUSH1 0xE4 SHL DUP2 MSTORE PUSH1 0x4 DUP2 ADD DUP4 SWAP1 MSTORE PUSH1 0x24 DUP2 ADD DUP5 SWAP1 MSTORE PUSH1 0x1 PUSH1 0x1 PUSH1 0xA0 SHL SUB SWAP1 SWAP2 AND SWAP1 PUSH4 0x441A3E70 SWAP1 PUSH1 0x44 ADD PUSH0 PUSH1 0x40 MLOAD DUP1 DUP4 SUB DUP2 PUSH0 DUP8 DUP1 EXTCODESIZE ISZERO DUP1 ISZERO PUSH2 0xD55 JUMPI PUSH0 PUSH0 REVERT JUMPDEST POP GAS CALL SWAP3 POP POP POP DUP1 ISZERO PUSH2 0x5D2 JUMPI POP PUSH2 0x649 JUMP JUMPDEST PUSH4 0x4E487B71 PUSH1 0xE0 SHL PUSH0 MSTORE PUSH1 0x21 PUSH1 0x4 MSTORE PUSH1 0x24 PUSH0 REVERT JUMPDEST PUSH0 DUP3 PUSH2 0xD96 JUMPI PUSH4 0x4E487B71 PUSH1 0xE0 SHL PUSH0 MSTORE PUSH1 0x12 PUSH1 0x4 MSTORE PUSH1 0x24 PUSH0 REVERT JUMPDEST POP DIV SWAP1 JUMP JUMPDEST PUSH0 PUSH1 0x3 RETURNDATASIZE GT ISZERO PUSH2 0xDB1 JUMPI PUSH1 0x4 PUSH0 PUSH0 RETURNDATACOPY POP PUSH0 MLOAD PUSH1 0xE0 SHR JUMPDEST SWAP1 JUMP JUMPDEST PUSH4 0x4E487B71 PUSH1 0xE0 SHL PUSH0 MSTORE PUSH1 0x41 PUSH1 0x4 MSTORE PUSH1 0x24 PUSH0 REVERT JUMPDEST PUSH1 0x1F DUP3 ADD PUSH1 0x1F NOT AND DUP2 ADD PUSH8 0xFFFFFFFFFFFFFFFF DUP2 GT DUP3 DUP3 LT OR ISZERO PUSH2 0xDEE JUMPI PUSH2 0xDEE PUSH2 0xDB4 JUMP JUMPDEST PUSH1 0x40 MSTORE POP POP JUMP JUMPDEST PUSH0 PUSH1 0x44 RETURNDATASIZE LT ISZERO PUSH2 0xE02 JUMPI SWAP1 JUMP JUMPDEST PUSH1 0x40 MLOAD RETURNDATASIZE PUSH1 0x3 NOT ADD PUSH1 0x4 DUP3 RETURNDATACOPY DUP1 MLOAD RETURNDATASIZE PUSH1 0x24 DUP3 ADD GT PUSH8 0xFFFFFFFFFFFFFFFF DUP3 GT OR ISZERO PUSH2 0xE2C JUMPI POP POP SWAP1 JUMP JUMPDEST DUP1 DUP3 ADD DUP1 MLOAD PUSH8 0xFFFFFFFFFFFFFFFF DUP2 GT ISZERO PUSH2 0xE48 JUMPI POP POP POP POP SWAP1 JUMP JUMPDEST RETURNDATASIZE DUP5 ADD PUSH1 0x3 NOT ADD DUP3 DUP3 ADD PUSH1 0x20 ADD GT ISZERO PUSH2 0xE62 JUMPI POP POP POP POP SWAP1 JUMP JUMPDEST PUSH2 0xE71 PUSH1 0x20 DUP3 DUP6 ADD ADD DUP6 PUSH2 0xDC8 JUMP JUMPDEST POP SWAP4 SWAP3 POP POP POP JUMP JUMPDEST PUSH1 0x1 DUP2 DUP2 SHR SWAP1 DUP3 AND DUP1 PUSH2 0xE8D JUMPI PUSH1 0x7F DUP3 AND SWAP2 POP JUMPDEST PUSH1 0x20 DUP3 LT DUP2 SUB PUSH2 0xEAB JUMPI PUSH4 0x4E487B71 PUSH1 0xE0 SHL PUSH0 MSTORE PUSH1 0x22 PUSH1 0x4 MSTORE PUSH1 0x24 PUSH0 REVERT JUMPDEST POP SWAP2 SWAP1 POP JUMP JUMPDEST PUSH1 0x1F DUP3 GT ISZERO PUSH2 0xEF8 JUMPI DUP1 PUSH0 MSTORE PUSH1 0x20 PUSH0 KECCAK256 PUSH1 0x1F DUP5 ADD PUSH1 0x5 SHR DUP2 ADD PUSH1 0x20 DUP6 LT ISZERO PUSH2 0xED6 JUMPI POP DUP1 JUMPDEST PUSH1 0x1F DUP5 ADD PUSH1 0x5 SHR DUP3 ADD SWAP2 POP JUMPDEST DUP2 DUP2 LT ISZERO PUSH2 0xEF5 JUMPI PUSH0 DUP2 SSTORE PUSH1 0x1 ADD PUSH2 0xEE2 JUMP JUMPDEST POP POP JUMPDEST POP POP POP JUMP JUMPDEST DUP2 MLOAD PUSH8 0xFFFFFFFFFFFFFFFF DUP2 GT ISZERO PUSH2 0xF17 JUMPI PUSH2 0xF17 PUSH2 0xDB4 JUMP JUMPDEST PUSH2 0xF2B DUP2 PUSH2 0xF25 DUP5 SLOAD PUSH2 0xE79 JUMP JUMPDEST DUP5 PUSH2 0xEB1 JUMP JUMPDEST PUSH1 0x20 PUSH1 0x1F DUP3 GT PUSH1 0x1 DUP2 EQ PUSH2 0xF5D JUMPI PUSH0 DUP4 ISZERO PUSH2 0xF46 JUMPI POP DUP5 DUP3 ADD MLOAD JUMPDEST PUSH0 NOT PUSH1 0x3 DUP6 SWAP1 SHL SHR NOT AND PUSH1 0x1 DUP5 SWAP1 SHL OR DUP5 SSTORE PUSH2 0xEF5 JUMP JUMPDEST PUSH0 DUP5 DUP2 MSTORE PUSH1 0x20 DUP2 KECCAK256 PUSH1 0x1F NOT DUP6 AND SWAP2 JUMPDEST DUP3 DUP2 LT ISZERO PUSH2 0xF8C JUMPI DUP8 DUP6 ADD MLOAD DUP3 SSTORE PUSH1 0x20 SWAP5 DUP6 ADD SWAP5 PUSH1 0x1 SWAP1 SWAP3 ADD SWAP2 ADD PUSH2 0xF6C JUMP JUMPDEST POP DUP5 DUP3 LT ISZERO PUSH2 0xFA9 JUMPI DUP7 DUP5 ADD MLOAD PUSH0 NOT PUSH1 0x3 DUP8 SWAP1 SHL PUSH1 0xF8 AND SHR NOT AND DUP2 SSTORE JUMPDEST POP POP POP POP PUSH1 0x1 SWAP1 DUP2 SHL ADD SWAP1 SSTORE POP JUMP JUMPDEST PUSH0 PUSH0 PUSH1 0x40 DUP4 DUP6 SUB SLT ISZERO PUSH2 0xFC9 JUMPI PUSH0 PUSH0 REVERT JUMPDEST POP POP DUP1 CALLDATALOAD SWAP3 PUSH1 0x20 SWAP1 SWAP2 ADD CALLDATALOAD SWAP2 POP JUMP JUMPDEST PUSH1 0x20 DUP2 MSTORE PUSH0 DUP3 MLOAD DUP1 PUSH1 0x20 DUP5 ADD MSTORE DUP1 PUSH1 0x20 DUP6 ADD PUSH1 0x40 DUP6 ADD MCOPY PUSH0 PUSH1 0x40 DUP3 DUP6 ADD ADD MSTORE PUSH1 0x40 PUSH1 0x1F NOT PUSH1 0x1F DUP4 ADD AND DUP5 ADD ADD SWAP2 POP POP SWAP3 SWAP2 POP POP JUMP JUMPDEST PUSH0 PUSH1 0x20 DUP3 DUP5 SUB SLT ISZERO PUSH2 0x101D JUMPI PUSH0 PUSH0 REVERT JUMPDEST POP CALLDATALOAD SWAP2 SWAP1 POP JUMP JUMPDEST PUSH1 0x20 DUP2 ADD PUSH1 0x4 DUP4 LT PUSH2 0x1044 JUMPI PUSH4 0x4E487B71 PUSH1 0xE0 SHL PUSH0 MSTORE PUSH1 0x21 PUSH1 0x4 MSTORE PUSH1 0x24 PUSH0 REVERT JUMPDEST SWAP2 SWAP1 MSTORE SWAP1 JUMP JUMPDEST PUSH1 0x1 PUSH1 0x1 PUSH1 0xA0 SHL SUB DUP2 AND DUP2 EQ PUSH2 0x105E JUMPI PUSH0 PUSH0 REVERT JUMPDEST POP JUMP JUMPDEST PUSH0 PUSH1 0x20 DUP3 DUP5 SUB SLT ISZERO PUSH2 0x1071 JUMPI PUSH0 PUSH0 REVERT JUMPDEST DUP2 CALLDATALOAD PUSH2 0x107C DUP2 PUSH2 0x104A JUMP JUMPDEST SWAP4 SWAP3 POP POP POP JUMP JUMPDEST PUSH1 0x20 DUP1 DUP3 MSTORE PUSH1 0x13 SWAP1 DUP3 ADD MSTORE PUSH19 0x109514C81859191C995CDCC81B9BDD081CD95D PUSH1 0x6A SHL PUSH1 0x40 DUP3 ADD MSTORE PUSH1 0x60 ADD SWAP1 JUMP JUMPDEST DUP3 ISZERO ISZERO DUP2 MSTORE PUSH1 0x40 PUSH1 0x20 DUP3 ADD MSTORE PUSH0 PUSH0 DUP4 SLOAD PUSH2 0x10C9 DUP2 PUSH2 0xE79 JUMP JUMPDEST DUP1 PUSH1 0x40 DUP7 ADD MSTORE PUSH1 0x1 DUP3 AND PUSH0 DUP2 EQ PUSH2 0x10E7 JUMPI PUSH1 0x1 DUP2 EQ PUSH2 0x1103 JUMPI PUSH2 0x1134 JUMP JUMPDEST PUSH1 0xFF NOT DUP4 AND PUSH1 0x60 DUP8 ADD MSTORE PUSH1 0x60 DUP3 ISZERO ISZERO PUSH1 0x5 SHL DUP8 ADD ADD SWAP4 POP PUSH2 0x1134 JUMP JUMPDEST DUP7 PUSH0 MSTORE PUSH1 0x20 PUSH0 KECCAK256 PUSH0 JUMPDEST DUP4 DUP2 LT ISZERO PUSH2 0x112B JUMPI DUP2 SLOAD DUP9 DUP3 ADD PUSH1 0x60 ADD MSTORE PUSH1 0x1 SWAP1 SWAP2 ADD SWAP1 PUSH1 0x20 ADD PUSH2 0x110C JUMP JUMPDEST DUP8 ADD PUSH1 0x60 ADD SWAP5 POP POP JUMPDEST POP SWAP2 SWAP7 SWAP6 POP POP POP POP POP POP JUMP JUMPDEST PUSH0 PUSH1 0x20 DUP3 DUP5 SUB SLT ISZERO PUSH2 0x1150 JUMPI PUSH0 PUSH0 REVERT JUMPDEST POP MLOAD SWAP2 SWAP1 POP JUMP JUMPDEST PUSH0 PUSH1 0x20 DUP3 DUP5 SUB SLT ISZERO PUSH2 0x1167 JUMPI PUSH0 PUSH0 REVERT JUMPDEST DUP2 MLOAD DUP1 ISZERO ISZERO DUP2 EQ PUSH2 0x107C JUMPI PUSH0 PUSH0 REVERT INVALID LOG2 PUSH5 0x6970667358 0x22 SLT KECCAK256 0xA6 EOFCREATE 0x18 0xB4 0xB4 0x26 0x28 GASPRICE 0x2E 0x27 DUP16 0xFC 0xC8 PUSH16 0xDA9A33601C1342B639E2BA2A4AFD83C 0x2F PUSH12 0x64736F6C634300081E003300 "
		},
		"gasEstimates": {
			"creation": {
				"codeDepositCost": "904800",
				"executionCost": "infinite",
				"totalCost": "infinite"
			},
			"external": {
				"attackContribute(uint256,uint256)": "infinite",
				"attackSucceeded()": "2315",
				"attackType()": "2394",
				"attackWithdraw(uint256)": "infinite",
				"attackWithdrawETH(uint256,uint256)": "infinite",
				"attacking()": "2338",
				"btsAddress()": "2357",
				"btsPairAddress()": "2402",
				"revertReason()": "infinite",
				"setBTSAddress(address)": "24638",
				"setBTSPairAddress(address)": "24661"
			}
		},
		"methodIdentifiers": {
			"attackContribute(uint256,uint256)": "2ef320bb",
			"attackSucceeded()": "8833dc27",
			"attackType()": "ad0b523f",
			"attackWithdraw(uint256)": "7d647817",
			"attackWithdrawETH(uint256,uint256)": "506f58eb",
			"attacking()": "3c0bbcd9",
			"btsAddress()": "a16a3d60",
			"btsPairAddress()": "bb1e7538",
			"revertReason()": "61b5b636",
			"setBTSAddress(address)": "e793e072",
			"setBTSPairAddress(address)": "f03fc414"
		}
	},
	"abi": [
		{
			"anonymous": false,
			"inputs": [
				{
					"indexed": false,
					"internalType": "bool",
					"name": "success",
					"type": "bool"
				},
				{
					"indexed": false,
					"internalType": "string",
					"name": "revertReason",
					"type": "string"
				}
			],
			"name": "AttackCompleted",
			"type": "event"
		},
		{
			"anonymous": false,
			"inputs": [
				{
					"indexed": false,
					"internalType": "string",
					"name": "attackType",
					"type": "string"
				}
			],
			"name": "AttackInitiated",
			"type": "event"
		},
		{
			"anonymous": false,
			"inputs": [
				{
					"indexed": false,
					"internalType": "uint256",
					"name": "amount",
					"type": "uint256"
				}
			],
			"name": "ReceiveTriggered",
			"type": "event"
		},
		{
			"inputs": [
				{
					"internalType": "uint256",
					"name": "_buffer",
					"type": "uint256"
				},
				{
					"internalType": "uint256",
					"name": "_deadline",
					"type": "uint256"
				}
			],
			"name": "attackContribute",
			"outputs": [],
			"stateMutability": "payable",
			"type": "function"
		},
		{
			"inputs": [],
			"name": "attackSucceeded",
			"outputs": [
				{
					"internalType": "bool",
					"name": "",
					"type": "bool"
				}
			],
			"stateMutability": "view",
			"type": "function"
		},
		{
			"inputs": [],
			"name": "attackType",
			"outputs": [
				{
					"internalType": "enum ReentrancyAttacker.AttackType",
					"name": "",
					"type": "uint8"
				}
			],
			"stateMutability": "view",
			"type": "function"
		},
		{
			"inputs": [
				{
					"internalType": "uint256",
					"name": "_deadline",
					"type": "uint256"
				}
			],
			"name": "attackWithdraw",
			"outputs": [],
			"stateMutability": "nonpayable",
			"type": "function"
		},
		{
			"inputs": [
				{
					"internalType": "uint256",
					"name": "_buffer",
					"type": "uint256"
				},
				{
					"internalType": "uint256",
					"name": "_deadline",
					"type": "uint256"
				}
			],
			"name": "attackWithdrawETH",
			"outputs": [],
			"stateMutability": "nonpayable",
			"type": "function"
		},
		{
			"inputs": [],
			"name": "attacking",
			"outputs": [
				{
					"internalType": "bool",
					"name": "",
					"type": "bool"
				}
			],
			"stateMutability": "view",
			"type": "function"
		},
		{
			"inputs": [],
			"name": "btsAddress",
			"outputs": [
				{
					"internalType": "address payable",
					"name": "",
					"type": "address"
				}
			],
			"stateMutability": "view",
			"type": "function"
		},
		{
			"inputs": [],
			"name": "btsPairAddress",
			"outputs": [
				{
					"internalType": "address",
					"name": "",
					"type": "address"
				}
			],
			"stateMutability": "view",
			"type": "function"
		},
		{
			"inputs": [],
			"name": "revertReason",
			"outputs": [
				{
					"internalType": "string",
					"name": "",
					"type": "string"
				}
			],
			"stateMutability": "view",
			"type": "function"
		},
		{
			"inputs": [
				{
					"internalType": "address payable",
					"name": "_btsAddress",
					"type": "address"
				}
			],
			"name": "setBTSAddress",
			"outputs": [],
			"stateMutability": "nonpayable",
			"type": "function"
		},
		{
			"inputs": [
				{
					"internalType": "address",
					"name": "_btsPairAddress",
					"type": "address"
				}
			],
			"name": "setBTSPairAddress",
			"outputs": [],
			"stateMutability": "nonpayable",
			"type": "function"
		},
		{
			"stateMutability": "payable",
			"type": "receive"
		}
	]
}