{
	"contracts/Mock/CustomToken.sol": {
		"CustomToken": {
			"abi": [
				{
					"inputs": [
						{
							"internalType": "address",
							"name": "spender",
							"type": "address"
						},
						{
							"internalType": "uint256",
							"name": "allowance",
							"type": "uint256"
						},
						{
							"internalType": "uint256",
							"name": "needed",
							"type": "uint256"
						}
					],
					"name": "ERC20InsufficientAllowance",
					"type": "error"
				},
				{
					"inputs": [
						{
							"internalType": "address",
							"name": "sender",
							"type": "address"
						},
						{
							"internalType": "uint256",
							"name": "balance",
							"type": "uint256"
						},
						{
							"internalType": "uint256",
							"name": "needed",
							"type": "uint256"
						}
					],
					"name": "ERC20InsufficientBalance",
					"type": "error"
				},
				{
					"inputs": [
						{
							"internalType": "address",
							"name": "approver",
							"type": "address"
						}
					],
					"name": "ERC20InvalidApprover",
					"type": "error"
				},
				{
					"inputs": [
						{
							"internalType": "address",
							"name": "receiver",
							"type": "address"
						}
					],
					"name": "ERC20InvalidReceiver",
					"type": "error"
				},
				{
					"inputs": [
						{
							"internalType": "address",
							"name": "sender",
							"type": "address"
						}
					],
					"name": "ERC20InvalidSender",
					"type": "error"
				},
				{
					"inputs": [
						{
							"internalType": "address",
							"name": "spender",
							"type": "address"
						}
					],
					"name": "ERC20InvalidSpender",
					"type": "error"
				},
				{
					"inputs": [],
					"name": "InvalidInitialization",
					"type": "error"
				},
				{
					"inputs": [],
					"name": "NotInitializing",
					"type": "error"
				},
				{
					"inputs": [
						{
							"internalType": "address",
							"name": "owner",
							"type": "address"
						}
					],
					"name": "OwnableInvalidOwner",
					"type": "error"
				},
				{
					"inputs": [
						{
							"internalType": "address",
							"name": "account",
							"type": "address"
						}
					],
					"name": "OwnableUnauthorizedAccount",
					"type": "error"
				},
				{
					"anonymous": false,
					"inputs": [
						{
							"indexed": true,
							"internalType": "address",
							"name": "owner",
							"type": "address"
						},
						{
							"indexed": true,
							"internalType": "address",
							"name": "spender",
							"type": "address"
						},
						{
							"indexed": false,
							"internalType": "uint256",
							"name": "value",
							"type": "uint256"
						}
					],
					"name": "Approval",
					"type": "event"
				},
				{
					"anonymous": false,
					"inputs": [
						{
							"indexed": false,
							"internalType": "uint64",
							"name": "version",
							"type": "uint64"
						}
					],
					"name": "Initialized",
					"type": "event"
				},
				{
					"anonymous": false,
					"inputs": [
						{
							"indexed": true,
							"internalType": "address",
							"name": "previousOwner",
							"type": "address"
						},
						{
							"indexed": true,
							"internalType": "address",
							"name": "newOwner",
							"type": "address"
						}
					],
					"name": "OwnershipTransferred",
					"type": "event"
				},
				{
					"anonymous": false,
					"inputs": [
						{
							"indexed": true,
							"internalType": "address",
							"name": "from",
							"type": "address"
						},
						{
							"indexed": true,
							"internalType": "address",
							"name": "to",
							"type": "address"
						},
						{
							"indexed": false,
							"internalType": "uint256",
							"name": "value",
							"type": "uint256"
						}
					],
					"name": "Transfer",
					"type": "event"
				},
				{
					"inputs": [
						{
							"internalType": "address",
							"name": "owner",
							"type": "address"
						},
						{
							"internalType": "address",
							"name": "spender",
							"type": "address"
						}
					],
					"name": "allowance",
					"outputs": [
						{
							"internalType": "uint256",
							"name": "",
							"type": "uint256"
						}
					],
					"stateMutability": "view",
					"type": "function"
				},
				{
					"inputs": [
						{
							"internalType": "address",
							"name": "spender",
							"type": "address"
						},
						{
							"internalType": "uint256",
							"name": "value",
							"type": "uint256"
						}
					],
					"name": "approve",
					"outputs": [
						{
							"internalType": "bool",
							"name": "",
							"type": "bool"
						}
					],
					"stateMutability": "nonpayable",
					"type": "function"
				},
				{
					"inputs": [
						{
							"internalType": "address",
							"name": "account",
							"type": "address"
						}
					],
					"name": "balanceOf",
					"outputs": [
						{
							"internalType": "uint256",
							"name": "",
							"type": "uint256"
						}
					],
					"stateMutability": "view",
					"type": "function"
				},
				{
					"inputs": [],
					"name": "decimals",
					"outputs": [
						{
							"internalType": "uint8",
							"name": "",
							"type": "uint8"
						}
					],
					"stateMutability": "view",
					"type": "function"
				},
				{
					"inputs": [
						{
							"internalType": "string",
							"name": "name",
							"type": "string"
						},
						{
							"internalType": "string",
							"name": "symbol",
							"type": "string"
						}
					],
					"name": "initialize",
					"outputs": [],
					"stateMutability": "nonpayable",
					"type": "function"
				},
				{
					"inputs": [],
					"name": "mint",
					"outputs": [],
					"stateMutability": "nonpayable",
					"type": "function"
				},
				{
					"inputs": [],
					"name": "name",
					"outputs": [
						{
							"internalType": "string",
							"name": "",
							"type": "string"
						}
					],
					"stateMutability": "view",
					"type": "function"
				},
				{
					"inputs": [],
					"name": "owner",
					"outputs": [
						{
							"internalType": "address",
							"name": "",
							"type": "address"
						}
					],
					"stateMutability": "view",
					"type": "function"
				},
				{
					"inputs": [],
					"name": "renounceOwnership",
					"outputs": [],
					"stateMutability": "nonpayable",
					"type": "function"
				},
				{
					"inputs": [],
					"name": "symbol",
					"outputs": [
						{
							"internalType": "string",
							"name": "",
							"type": "string"
						}
					],
					"stateMutability": "view",
					"type": "function"
				},
				{
					"inputs": [],
					"name": "totalSupply",
					"outputs": [
						{
							"internalType": "uint256",
							"name": "",
							"type": "uint256"
						}
					],
					"stateMutability": "view",
					"type": "function"
				},
				{
					"inputs": [
						{
							"internalType": "address",
							"name": "to",
							"type": "address"
						},
						{
							"internalType": "uint256",
							"name": "value",
							"type": "uint256"
						}
					],
					"name": "transfer",
					"outputs": [
						{
							"internalType": "bool",
							"name": "",
							"type": "bool"
						}
					],
					"stateMutability": "nonpayable",
					"type": "function"
				},
				{
					"inputs": [
						{
							"internalType": "address",
							"name": "from",
							"type": "address"
						},
						{
							"internalType": "address",
							"name": "to",
							"type": "address"
						},
						{
							"internalType": "uint256",
							"name": "value",
							"type": "uint256"
						}
					],
					"name": "transferFrom",
					"outputs": [
						{
							"internalType": "bool",
							"name": "",
							"type": "bool"
						}
					],
					"stateMutability": "nonpayable",
					"type": "function"
				},
				{
					"inputs": [
						{
							"internalType": "address",
							"name": "newOwner",
							"type": "address"
						}
					],
					"name": "transferOwnership",
					"outputs": [],
					"stateMutability": "nonpayable",
					"type": "function"
				}
			],
			"devdoc": {
				"errors": {
					"ERC20InsufficientAllowance(address,uint256,uint256)": [
						{
							"details": "Indicates a failure with the `spender`’s `allowance`. Used in transfers.",
							"params": {
								"allowance": "Amount of tokens a `spender` is allowed to operate with.",
								"needed": "Minimum amount required to perform a transfer.",
								"spender": "Address that may be allowed to operate on tokens without being their owner."
							}
						}
					],
					"ERC20InsufficientBalance(address,uint256,uint256)": [
						{
							"details": "Indicates an error related to the current `balance` of a `sender`. Used in transfers.",
							"params": {
								"balance": "Current balance for the interacting account.",
								"needed": "Minimum amount required to perform a transfer.",
								"sender": "Address whose tokens are being transferred."
							}
						}
					],
					"ERC20InvalidApprover(address)": [
						{
							"details": "Indicates a failure with the `approver` of a token to be approved. Used in approvals.",
							"params": {
								"approver": "Address initiating an approval operation."
							}
						}
					],
					"ERC20InvalidReceiver(address)": [
						{
							"details": "Indicates a failure with the token `receiver`. Used in transfers.",
							"params": {
								"receiver": "Address to which tokens are being transferred."
							}
						}
					],
					"ERC20InvalidSender(address)": [
						{
							"details": "Indicates a failure with the token `sender`. Used in transfers.",
							"params": {
								"sender": "Address whose tokens are being transferred."
							}
						}
					],
					"ERC20InvalidSpender(address)": [
						{
							"details": "Indicates a failure with the `spender` to be approved. Used in approvals.",
							"params": {
								"spender": "Address that may be allowed to operate on tokens without being their owner."
							}
						}
					],
					"InvalidInitialization()": [
						{
							"details": "The contract is already initialized."
						}
					],
					"NotInitializing()": [
						{
							"details": "The contract is not initializing."
						}
					],
					"OwnableInvalidOwner(address)": [
						{
							"details": "The owner is not a valid owner account. (eg. `address(0)`)"
						}
					],
					"OwnableUnauthorizedAccount(address)": [
						{
							"details": "The caller account is not authorized to perform an operation."
						}
					]
				},
				"events": {
					"Approval(address,address,uint256)": {
						"details": "Emitted when the allowance of a `spender` for an `owner` is set by a call to {approve}. `value` is the new allowance."
					},
					"Initialized(uint64)": {
						"details": "Triggered when the contract has been initialized or reinitialized."
					},
					"Transfer(address,address,uint256)": {
						"details": "Emitted when `value` tokens are moved from one account (`from`) to another (`to`). Note that `value` may be zero."
					}
				},
				"kind": "dev",
				"methods": {
					"allowance(address,address)": {
						"details": "See {IERC20-allowance}."
					},
					"approve(address,uint256)": {
						"details": "See {IERC20-approve}. NOTE: If `value` is the maximum `uint256`, the allowance is not updated on `transferFrom`. This is semantically equivalent to an infinite approval. Requirements: - `spender` cannot be the zero address."
					},
					"balanceOf(address)": {
						"details": "See {IERC20-balanceOf}."
					},
					"decimals()": {
						"details": "Returns the number of decimals used to get its user representation. For example, if `decimals` equals `2`, a balance of `505` tokens should be displayed to a user as `5.05` (`505 / 10 ** 2`). Tokens usually opt for a value of 18, imitating the relationship between Ether and Wei. This is the default value returned by this function, unless it's overridden. NOTE: This information is only used for _display_ purposes: it in no way affects any of the arithmetic of the contract, including {IERC20-balanceOf} and {IERC20-transfer}."
					},
					"name()": {
						"details": "Returns the name of the token."
					},
					"owner()": {
						"details": "Returns the address of the current owner."
					},
					"renounceOwnership()": {
						"details": "Leaves the contract without owner. It will not be possible to call `onlyOwner` functions. Can only be called by the current owner. NOTE: Renouncing ownership will leave the contract without an owner, thereby disabling any functionality that is only available to the owner."
					},
					"symbol()": {
						"details": "Returns the symbol of the token, usually a shorter version of the name."
					},
					"totalSupply()": {
						"details": "See {IERC20-totalSupply}."
					},
					"transfer(address,uint256)": {
						"details": "See {IERC20-transfer}. Requirements: - `to` cannot be the zero address. - the caller must have a balance of at least `value`."
					},
					"transferFrom(address,address,uint256)": {
						"details": "See {IERC20-transferFrom}. Skips emitting an {Approval} event indicating an allowance update. This is not required by the ERC. See {xref-ERC20-_approve-address-address-uint256-bool-}[_approve]. NOTE: Does not update the allowance if the current allowance is the maximum `uint256`. Requirements: - `from` and `to` cannot be the zero address. - `from` must have a balance of at least `value`. - the caller must have allowance for ``from``'s tokens of at least `value`."
					},
					"transferOwnership(address)": {
						"details": "Transfers ownership of the contract to a new account (`newOwner`). Can only be called by the current owner."
					}
				},
				"version": 1
			},
			"evm": {
				"assembly": "    /* \"contracts/Mock/CustomToken.sol\":263:675  contract CustomToken is ERC20Upgradeable, OwnableUpgradeable {... */\n  mstore(0x40, 0x80)\n  callvalue\n  dup1\n  iszero\n  tag_1\n  jumpi\n  revert(0x00, 0x00)\ntag_1:\n  pop\n  dataSize(sub_0)\n  dup1\n  dataOffset(sub_0)\n  0x00\n  codecopy\n  0x00\n  return\nstop\n\nsub_0: assembly {\n        /* \"contracts/Mock/CustomToken.sol\":263:675  contract CustomToken is ERC20Upgradeable, OwnableUpgradeable {... */\n      mstore(0x40, 0x80)\n      callvalue\n      dup1\n      iszero\n      tag_1\n      jumpi\n      revert(0x00, 0x00)\n    tag_1:\n      pop\n      jumpi(tag_2, lt(calldatasize, 0x04))\n      shr(0xe0, calldataload(0x00))\n      dup1\n      0x70a08231\n      gt\n      tag_17\n      jumpi\n      dup1\n      0x95d89b41\n      gt\n      tag_18\n      jumpi\n      dup1\n      0x95d89b41\n      eq\n      tag_13\n      jumpi\n      dup1\n      0xa9059cbb\n      eq\n      tag_14\n      jumpi\n      dup1\n      0xdd62ed3e\n      eq\n      tag_15\n      jumpi\n      dup1\n      0xf2fde38b\n      eq\n      tag_16\n      jumpi\n      revert(0x00, 0x00)\n    tag_18:\n      dup1\n      0x70a08231\n      eq\n      tag_10\n      jumpi\n      dup1\n      0x715018a6\n      eq\n      tag_11\n      jumpi\n      dup1\n      0x8da5cb5b\n      eq\n      tag_12\n      jumpi\n      revert(0x00, 0x00)\n    tag_17:\n      dup1\n      0x18160ddd\n      gt\n      tag_19\n      jumpi\n      dup1\n      0x18160ddd\n      eq\n      tag_6\n      jumpi\n      dup1\n      0x23b872dd\n      eq\n      tag_7\n      jumpi\n      dup1\n      0x313ce567\n      eq\n      tag_8\n      jumpi\n      dup1\n      0x4cd88b76\n      eq\n      tag_9\n      jumpi\n      revert(0x00, 0x00)\n    tag_19:\n      dup1\n      0x06fdde03\n      eq\n      tag_3\n      jumpi\n      dup1\n      0x095ea7b3\n      eq\n      tag_4\n      jumpi\n      dup1\n      0x1249c58b\n      eq\n      tag_5\n      jumpi\n    tag_2:\n      revert(0x00, 0x00)\n        /* \"@openzeppelin/contracts-upgradeable/token/ERC20/ERC20Upgradeable.sol\":2697:2841  function name() public view virtual returns (string memory) {... */\n    tag_3:\n      tag_20\n      tag_21\n      jump\t// in\n    tag_20:\n      mload(0x40)\n      tag_22\n      swap2\n      swap1\n      tag_23\n      jump\t// in\n    tag_22:\n      mload(0x40)\n      dup1\n      swap2\n      sub\n      swap1\n      return\n        /* \"@openzeppelin/contracts-upgradeable/token/ERC20/ERC20Upgradeable.sol\":5191:5377  function approve(address spender, uint256 value) public virtual returns (bool) {... */\n    tag_4:\n      tag_24\n      tag_25\n      calldatasize\n      0x04\n      tag_26\n      jump\t// in\n    tag_25:\n      tag_27\n      jump\t// in\n    tag_24:\n      mload(0x40)\n        /* \"#utility.yul\":1085:1099   */\n      swap1\n      iszero\n        /* \"#utility.yul\":1078:1100   */\n      iszero\n        /* \"#utility.yul\":1060:1101   */\n      dup2\n      mstore\n        /* \"#utility.yul\":1048:1050   */\n      0x20\n        /* \"#utility.yul\":1033:1051   */\n      add\n        /* \"@openzeppelin/contracts-upgradeable/token/ERC20/ERC20Upgradeable.sol\":5191:5377  function approve(address spender, uint256 value) public virtual returns (bool) {... */\n      tag_22\n        /* \"#utility.yul\":920:1107   */\n      jump\n        /* \"contracts/Mock/CustomToken.sol\":573:673  function mint() public onlyOwner {... */\n    tag_5:\n      tag_30\n      tag_31\n      jump\t// in\n    tag_30:\n      stop\n        /* \"@openzeppelin/contracts-upgradeable/token/ERC20/ERC20Upgradeable.sol\":3877:4029  function totalSupply() public view virtual returns (uint256) {... */\n    tag_6:\n        /* \"@openzeppelin/contracts-upgradeable/token/ERC20/ERC20Upgradeable.sol\":4008:4022  $._totalSupply */\n      sload(0x52c63247e1f47db19d5ce0460030c497f067ca4cebf71ba98eeadabe20bace02)\n        /* \"@openzeppelin/contracts-upgradeable/token/ERC20/ERC20Upgradeable.sol\":3877:4029  function totalSupply() public view virtual returns (uint256) {... */\n    tag_32:\n      mload(0x40)\n        /* \"#utility.yul\":1258:1283   */\n      swap1\n      dup2\n      mstore\n        /* \"#utility.yul\":1246:1248   */\n      0x20\n        /* \"#utility.yul\":1231:1249   */\n      add\n        /* \"@openzeppelin/contracts-upgradeable/token/ERC20/ERC20Upgradeable.sol\":3877:4029  function totalSupply() public view virtual returns (uint256) {... */\n      tag_22\n        /* \"#utility.yul\":1112:1289   */\n      jump\n        /* \"@openzeppelin/contracts-upgradeable/token/ERC20/ERC20Upgradeable.sol\":5969:6213  function transferFrom(address from, address to, uint256 value) public virtual returns (bool) {... */\n    tag_7:\n      tag_24\n      tag_37\n      calldatasize\n      0x04\n      tag_38\n      jump\t// in\n    tag_37:\n      tag_39\n      jump\t// in\n        /* \"@openzeppelin/contracts-upgradeable/token/ERC20/ERC20Upgradeable.sol\":3735:3817  function decimals() public view virtual returns (uint8) {... */\n    tag_8:\n      mload(0x40)\n        /* \"@openzeppelin/contracts-upgradeable/token/ERC20/ERC20Upgradeable.sol\":3808:3810  18 */\n      0x12\n        /* \"#utility.yul\":1815:1851   */\n      dup2\n      mstore\n        /* \"#utility.yul\":1803:1805   */\n      0x20\n        /* \"#utility.yul\":1788:1806   */\n      add\n        /* \"@openzeppelin/contracts-upgradeable/token/ERC20/ERC20Upgradeable.sol\":3735:3817  function decimals() public view virtual returns (uint8) {... */\n      tag_22\n        /* \"#utility.yul\":1673:1857   */\n      jump\n        /* \"contracts/Mock/CustomToken.sol\":330:567  function initialize(string memory name, string memory symbol)... */\n    tag_9:\n      tag_30\n      tag_46\n      calldatasize\n      0x04\n      tag_47\n      jump\t// in\n    tag_46:\n      tag_48\n      jump\t// in\n        /* \"@openzeppelin/contracts-upgradeable/token/ERC20/ERC20Upgradeable.sol\":4087:4258  function balanceOf(address account) public view virtual returns (uint256) {... */\n    tag_10:\n      tag_32\n      tag_50\n      calldatasize\n      0x04\n      tag_51\n      jump\t// in\n    tag_50:\n      sub(shl(0xa0, 0x01), 0x01)\n        /* \"@openzeppelin/contracts-upgradeable/token/ERC20/ERC20Upgradeable.sol\":4231:4251  $._balances[account] */\n      and\n        /* \"@openzeppelin/contracts-upgradeable/token/ERC20/ERC20Upgradeable.sol\":4152:4159  uint256 */\n      0x00\n        /* \"@openzeppelin/contracts-upgradeable/token/ERC20/ERC20Upgradeable.sol\":4231:4251  $._balances[account] */\n      swap1\n      dup2\n      mstore\n      mload(0x00)\n      codecopy(0x00, data_3874827173e8df9f34323b12b251d1d3c53926ce129e30a0d69f1d47c277041b, 0x20)\n      mload(0x00)\n      swap1\n      0x00\n      mstore\n      0x20\n      mstore\n      0x40\n      swap1\n      keccak256\n      sload\n      swap1\n        /* \"@openzeppelin/contracts-upgradeable/token/ERC20/ERC20Upgradeable.sol\":4087:4258  function balanceOf(address account) public view virtual returns (uint256) {... */\n      jump\n        /* \"@openzeppelin/contracts-upgradeable/access/OwnableUpgradeable.sol\":3155:3256  function renounceOwnership() public virtual onlyOwner {... */\n    tag_11:\n      tag_30\n      tag_55\n      jump\t// in\n        /* \"@openzeppelin/contracts-upgradeable/access/OwnableUpgradeable.sol\":2441:2585  function owner() public view virtual returns (address) {... */\n    tag_12:\n      tag_56\n      tag_57\n      jump\t// in\n    tag_56:\n      mload(0x40)\n      sub(shl(0xa0, 0x01), 0x01)\n        /* \"#utility.yul\":3623:3655   */\n      swap1\n      swap2\n      and\n        /* \"#utility.yul\":3605:3656   */\n      dup2\n      mstore\n        /* \"#utility.yul\":3593:3595   */\n      0x20\n        /* \"#utility.yul\":3578:3596   */\n      add\n        /* \"@openzeppelin/contracts-upgradeable/access/OwnableUpgradeable.sol\":2441:2585  function owner() public view virtual returns (address) {... */\n      tag_22\n        /* \"#utility.yul\":3459:3662   */\n      jump\n        /* \"@openzeppelin/contracts-upgradeable/token/ERC20/ERC20Upgradeable.sol\":2954:3102  function symbol() public view virtual returns (string memory) {... */\n    tag_13:\n      tag_20\n      tag_61\n      jump\t// in\n        /* \"@openzeppelin/contracts-upgradeable/token/ERC20/ERC20Upgradeable.sol\":4453:4631  function transfer(address to, uint256 value) public virtual returns (bool) {... */\n    tag_14:\n      tag_24\n      tag_64\n      calldatasize\n      0x04\n      tag_26\n      jump\t// in\n    tag_64:\n      tag_65\n      jump\t// in\n        /* \"@openzeppelin/contracts-upgradeable/token/ERC20/ERC20Upgradeable.sol\":4689:4884  function allowance(address owner, address spender) public view virtual returns (uint256) {... */\n    tag_15:\n      tag_32\n      tag_68\n      calldatasize\n      0x04\n      tag_69\n      jump\t// in\n    tag_68:\n      tag_70\n      jump\t// in\n        /* \"@openzeppelin/contracts-upgradeable/access/OwnableUpgradeable.sol\":3405:3620  function transferOwnership(address newOwner) public virtual onlyOwner {... */\n    tag_16:\n      tag_30\n      tag_73\n      calldatasize\n      0x04\n      tag_51\n      jump\t// in\n    tag_73:\n      tag_74\n      jump\t// in\n        /* \"@openzeppelin/contracts-upgradeable/token/ERC20/ERC20Upgradeable.sol\":2697:2841  function name() public view virtual returns (string memory) {... */\n    tag_21:\n        /* \"@openzeppelin/contracts-upgradeable/token/ERC20/ERC20Upgradeable.sol\":2827:2834  $._name */\n      0x52c63247e1f47db19d5ce0460030c497f067ca4cebf71ba98eeadabe20bace03\n        /* \"@openzeppelin/contracts-upgradeable/token/ERC20/ERC20Upgradeable.sol\":2820:2834  return $._name */\n      dup1\n      sload\n        /* \"@openzeppelin/contracts-upgradeable/token/ERC20/ERC20Upgradeable.sol\":2742:2755  string memory */\n      0x60\n      swap2\n      mload(0x00)\n      codecopy(0x00, data_3874827173e8df9f34323b12b251d1d3c53926ce129e30a0d69f1d47c277041b, 0x20)\n      mload(0x00)\n      swap1\n      0x00\n      mstore\n        /* \"@openzeppelin/contracts-upgradeable/token/ERC20/ERC20Upgradeable.sol\":2064:2084  ERC20StorageLocation */\n      swap2\n        /* \"@openzeppelin/contracts-upgradeable/token/ERC20/ERC20Upgradeable.sol\":2820:2834  return $._name */\n      tag_78\n      swap1\n      tag_79\n      jump\t// in\n    tag_78:\n      dup1\n      0x1f\n      add\n      0x20\n      dup1\n      swap2\n      div\n      mul\n      0x20\n      add\n      mload(0x40)\n      swap1\n      dup2\n      add\n      0x40\n      mstore\n      dup1\n      swap3\n      swap2\n      swap1\n      dup2\n      dup2\n      mstore\n      0x20\n      add\n      dup3\n      dup1\n      sload\n      tag_80\n      swap1\n      tag_79\n      jump\t// in\n    tag_80:\n      dup1\n      iszero\n      tag_81\n      jumpi\n      dup1\n      0x1f\n      lt\n      tag_82\n      jumpi\n      0x0100\n      dup1\n      dup4\n      sload\n      div\n      mul\n      dup4\n      mstore\n      swap2\n      0x20\n      add\n      swap2\n      jump(tag_81)\n    tag_82:\n      dup3\n      add\n      swap2\n      swap1\n      0x00\n      mstore\n      keccak256(0x00, 0x20)\n      swap1\n    tag_83:\n      dup2\n      sload\n      dup2\n      mstore\n      swap1\n      0x01\n      add\n      swap1\n      0x20\n      add\n      dup1\n      dup4\n      gt\n      tag_83\n      jumpi\n      dup3\n      swap1\n      sub\n      0x1f\n      and\n      dup3\n      add\n      swap2\n    tag_81:\n      pop\n      pop\n      pop\n      pop\n      pop\n      swap2\n      pop\n      pop\n        /* \"@openzeppelin/contracts-upgradeable/token/ERC20/ERC20Upgradeable.sol\":2697:2841  function name() public view virtual returns (string memory) {... */\n      swap1\n      jump\t// out\n        /* \"@openzeppelin/contracts-upgradeable/token/ERC20/ERC20Upgradeable.sol\":5191:5377  function approve(address spender, uint256 value) public virtual returns (bool) {... */\n    tag_27:\n        /* \"@openzeppelin/contracts-upgradeable/token/ERC20/ERC20Upgradeable.sol\":5264:5268  bool */\n      0x00\n        /* \"@openzeppelin/contracts-upgradeable/utils/ContextUpgradeable.sol\":966:976  msg.sender */\n      caller\n        /* \"@openzeppelin/contracts-upgradeable/token/ERC20/ERC20Upgradeable.sol\":5318:5349  _approve(owner, spender, value) */\n      tag_87\n        /* \"@openzeppelin/contracts-upgradeable/utils/ContextUpgradeable.sol\":966:976  msg.sender */\n      dup2\n        /* \"@openzeppelin/contracts-upgradeable/token/ERC20/ERC20Upgradeable.sol\":5334:5341  spender */\n      dup6\n        /* \"@openzeppelin/contracts-upgradeable/token/ERC20/ERC20Upgradeable.sol\":5343:5348  value */\n      dup6\n        /* \"@openzeppelin/contracts-upgradeable/token/ERC20/ERC20Upgradeable.sol\":5318:5326  _approve */\n      tag_88\n        /* \"@openzeppelin/contracts-upgradeable/token/ERC20/ERC20Upgradeable.sol\":5318:5349  _approve(owner, spender, value) */\n      jump\t// in\n    tag_87:\n        /* \"@openzeppelin/contracts-upgradeable/token/ERC20/ERC20Upgradeable.sol\":5366:5370  true */\n      0x01\n        /* \"@openzeppelin/contracts-upgradeable/token/ERC20/ERC20Upgradeable.sol\":5359:5370  return true */\n      swap2\n      pop\n      pop\n        /* \"@openzeppelin/contracts-upgradeable/token/ERC20/ERC20Upgradeable.sol\":5191:5377  function approve(address spender, uint256 value) public virtual returns (bool) {... */\n    tag_84:\n      swap3\n      swap2\n      pop\n      pop\n      jump\t// out\n        /* \"contracts/Mock/CustomToken.sol\":573:673  function mint() public onlyOwner {... */\n    tag_31:\n        /* \"@openzeppelin/contracts-upgradeable/access/OwnableUpgradeable.sol\":2334:2347  _checkOwner() */\n      tag_90\n        /* \"@openzeppelin/contracts-upgradeable/access/OwnableUpgradeable.sol\":2334:2345  _checkOwner */\n      tag_91\n        /* \"@openzeppelin/contracts-upgradeable/access/OwnableUpgradeable.sol\":2334:2347  _checkOwner() */\n      jump\t// in\n    tag_90:\n        /* \"contracts/Mock/CustomToken.sol\":616:666  super._mint(owner(), 200_000_000 * 10**decimals()) */\n      tag_93\n        /* \"contracts/Mock/CustomToken.sol\":628:635  owner() */\n      tag_94\n        /* \"contracts/Mock/CustomToken.sol\":628:633  owner */\n      tag_57\n        /* \"contracts/Mock/CustomToken.sol\":628:635  owner() */\n      jump\t// in\n    tag_94:\n        /* \"@openzeppelin/contracts-upgradeable/token/ERC20/ERC20Upgradeable.sol\":3808:3810  18 */\n      0x12\n        /* \"contracts/Mock/CustomToken.sol\":655:665  decimals() */\n    tag_95:\n        /* \"contracts/Mock/CustomToken.sol\":651:665  10**decimals() */\n      tag_96\n      swap1\n        /* \"contracts/Mock/CustomToken.sol\":651:653  10 */\n      0x0a\n        /* \"contracts/Mock/CustomToken.sol\":651:665  10**decimals() */\n      tag_97\n      jump\t// in\n    tag_96:\n        /* \"contracts/Mock/CustomToken.sol\":637:665  200_000_000 * 10**decimals() */\n      tag_98\n      swap1\n        /* \"contracts/Mock/CustomToken.sol\":637:648  200_000_000 */\n      0x0bebc200\n        /* \"contracts/Mock/CustomToken.sol\":637:665  200_000_000 * 10**decimals() */\n      tag_99\n      jump\t// in\n    tag_98:\n        /* \"contracts/Mock/CustomToken.sol\":616:627  super._mint */\n      tag_100\n        /* \"contracts/Mock/CustomToken.sol\":616:666  super._mint(owner(), 200_000_000 * 10**decimals()) */\n      jump\t// in\n    tag_93:\n        /* \"contracts/Mock/CustomToken.sol\":573:673  function mint() public onlyOwner {... */\n      jump\t// out\n        /* \"@openzeppelin/contracts-upgradeable/token/ERC20/ERC20Upgradeable.sol\":5969:6213  function transferFrom(address from, address to, uint256 value) public virtual returns (bool) {... */\n    tag_39:\n        /* \"@openzeppelin/contracts-upgradeable/token/ERC20/ERC20Upgradeable.sol\":6056:6060  bool */\n      0x00\n        /* \"@openzeppelin/contracts-upgradeable/utils/ContextUpgradeable.sol\":966:976  msg.sender */\n      caller\n        /* \"@openzeppelin/contracts-upgradeable/token/ERC20/ERC20Upgradeable.sol\":6112:6149  _spendAllowance(from, spender, value) */\n      tag_105\n        /* \"@openzeppelin/contracts-upgradeable/token/ERC20/ERC20Upgradeable.sol\":6128:6132  from */\n      dup6\n        /* \"@openzeppelin/contracts-upgradeable/utils/ContextUpgradeable.sol\":966:976  msg.sender */\n      dup3\n        /* \"@openzeppelin/contracts-upgradeable/token/ERC20/ERC20Upgradeable.sol\":6143:6148  value */\n      dup6\n        /* \"@openzeppelin/contracts-upgradeable/token/ERC20/ERC20Upgradeable.sol\":6112:6127  _spendAllowance */\n      tag_106\n        /* \"@openzeppelin/contracts-upgradeable/token/ERC20/ERC20Upgradeable.sol\":6112:6149  _spendAllowance(from, spender, value) */\n      jump\t// in\n    tag_105:\n        /* \"@openzeppelin/contracts-upgradeable/token/ERC20/ERC20Upgradeable.sol\":6159:6185  _transfer(from, to, value) */\n      tag_107\n        /* \"@openzeppelin/contracts-upgradeable/token/ERC20/ERC20Upgradeable.sol\":6169:6173  from */\n      dup6\n        /* \"@openzeppelin/contracts-upgradeable/token/ERC20/ERC20Upgradeable.sol\":6175:6177  to */\n      dup6\n        /* \"@openzeppelin/contracts-upgradeable/token/ERC20/ERC20Upgradeable.sol\":6179:6184  value */\n      dup6\n        /* \"@openzeppelin/contracts-upgradeable/token/ERC20/ERC20Upgradeable.sol\":6159:6168  _transfer */\n      tag_108\n        /* \"@openzeppelin/contracts-upgradeable/token/ERC20/ERC20Upgradeable.sol\":6159:6185  _transfer(from, to, value) */\n      jump\t// in\n    tag_107:\n      pop\n        /* \"@openzeppelin/contracts-upgradeable/token/ERC20/ERC20Upgradeable.sol\":6202:6206  true */\n      0x01\n      swap5\n        /* \"@openzeppelin/contracts-upgradeable/token/ERC20/ERC20Upgradeable.sol\":5969:6213  function transferFrom(address from, address to, uint256 value) public virtual returns (bool) {... */\n      swap4\n      pop\n      pop\n      pop\n      pop\n      jump\t// out\n        /* \"contracts/Mock/CustomToken.sol\":330:567  function initialize(string memory name, string memory symbol)... */\n    tag_48:\n        /* \"@openzeppelin/contracts-upgradeable/proxy/utils/Initializable.sol\":4158:4188  InitializableStorage storage $ */\n      0x00\n        /* \"@openzeppelin/contracts-upgradeable/proxy/utils/Initializable.sol\":4191:4217  _getInitializableStorage() */\n      tag_111\n        /* \"@openzeppelin/contracts-upgradeable/proxy/utils/Initializable.sol\":4191:4215  _getInitializableStorage */\n      tag_112\n        /* \"@openzeppelin/contracts-upgradeable/proxy/utils/Initializable.sol\":4191:4217  _getInitializableStorage() */\n      jump\t// in\n    tag_111:\n        /* \"@openzeppelin/contracts-upgradeable/proxy/utils/Initializable.sol\":4302:4317  $._initializing */\n      dup1\n      sload\n        /* \"@openzeppelin/contracts-upgradeable/proxy/utils/Initializable.sol\":4158:4217  InitializableStorage storage $ = _getInitializableStorage() */\n      swap1\n      swap2\n      pop\n        /* \"@openzeppelin/contracts-upgradeable/proxy/utils/Initializable.sol\":4302:4317  $._initializing */\n      0xff\n      shl(0x40, 0x01)\n      dup3\n      div\n      and\n        /* \"@openzeppelin/contracts-upgradeable/proxy/utils/Initializable.sol\":4301:4317  !$._initializing */\n      iszero\n      swap1\n        /* \"@openzeppelin/contracts-upgradeable/proxy/utils/Initializable.sol\":4348:4362  $._initialized */\n      0xffffffffffffffff\n      and\n        /* \"@openzeppelin/contracts-upgradeable/proxy/utils/Initializable.sol\":4279:4298  bool isTopLevelCall */\n      0x00\n        /* \"@openzeppelin/contracts-upgradeable/proxy/utils/Initializable.sol\":4724:4740  initialized == 0 */\n      dup2\n      iszero\n        /* \"@openzeppelin/contracts-upgradeable/proxy/utils/Initializable.sol\":4724:4758  initialized == 0 && isTopLevelCall */\n      dup1\n      iszero\n      tag_113\n      jumpi\n      pop\n        /* \"@openzeppelin/contracts-upgradeable/proxy/utils/Initializable.sol\":4744:4758  isTopLevelCall */\n      dup3\n        /* \"@openzeppelin/contracts-upgradeable/proxy/utils/Initializable.sol\":4724:4758  initialized == 0 && isTopLevelCall */\n    tag_113:\n        /* \"@openzeppelin/contracts-upgradeable/proxy/utils/Initializable.sol\":4704:4758  bool initialSetup = initialized == 0 && isTopLevelCall */\n      swap1\n      pop\n        /* \"@openzeppelin/contracts-upgradeable/proxy/utils/Initializable.sol\":4768:4785  bool construction */\n      0x00\n        /* \"@openzeppelin/contracts-upgradeable/proxy/utils/Initializable.sol\":4788:4799  initialized */\n      dup3\n        /* \"@openzeppelin/contracts-upgradeable/proxy/utils/Initializable.sol\":4788:4804  initialized == 1 */\n      0xffffffffffffffff\n      and\n        /* \"@openzeppelin/contracts-upgradeable/proxy/utils/Initializable.sol\":4803:4804  1 */\n      0x01\n        /* \"@openzeppelin/contracts-upgradeable/proxy/utils/Initializable.sol\":4788:4804  initialized == 1 */\n      eq\n        /* \"@openzeppelin/contracts-upgradeable/proxy/utils/Initializable.sol\":4788:4838  initialized == 1 && address(this).code.length == 0 */\n      dup1\n      iszero\n      tag_114\n      jumpi\n      pop\n        /* \"@openzeppelin/contracts-upgradeable/proxy/utils/Initializable.sol\":4816:4820  this */\n      address\n        /* \"@openzeppelin/contracts-upgradeable/proxy/utils/Initializable.sol\":4808:4833  address(this).code.length */\n      extcodesize\n        /* \"@openzeppelin/contracts-upgradeable/proxy/utils/Initializable.sol\":4808:4838  address(this).code.length == 0 */\n      iszero\n        /* \"@openzeppelin/contracts-upgradeable/proxy/utils/Initializable.sol\":4788:4838  initialized == 1 && address(this).code.length == 0 */\n    tag_114:\n        /* \"@openzeppelin/contracts-upgradeable/proxy/utils/Initializable.sol\":4768:4838  bool construction = initialized == 1 && address(this).code.length == 0 */\n      swap1\n      pop\n        /* \"@openzeppelin/contracts-upgradeable/proxy/utils/Initializable.sol\":4854:4866  initialSetup */\n      dup2\n        /* \"@openzeppelin/contracts-upgradeable/proxy/utils/Initializable.sol\":4853:4866  !initialSetup */\n      iszero\n        /* \"@openzeppelin/contracts-upgradeable/proxy/utils/Initializable.sol\":4853:4883  !initialSetup && !construction */\n      dup1\n      iszero\n      tag_115\n      jumpi\n      pop\n        /* \"@openzeppelin/contracts-upgradeable/proxy/utils/Initializable.sol\":4871:4883  construction */\n      dup1\n        /* \"@openzeppelin/contracts-upgradeable/proxy/utils/Initializable.sol\":4870:4883  !construction */\n      iszero\n        /* \"@openzeppelin/contracts-upgradeable/proxy/utils/Initializable.sol\":4853:4883  !initialSetup && !construction */\n    tag_115:\n        /* \"@openzeppelin/contracts-upgradeable/proxy/utils/Initializable.sol\":4849:4940  if (!initialSetup && !construction) {... */\n      iszero\n      tag_116\n      jumpi\n        /* \"@openzeppelin/contracts-upgradeable/proxy/utils/Initializable.sol\":4906:4929  InvalidInitialization() */\n      mload(0x40)\n      shl(0xe0, 0xf92ee8a9)\n      dup2\n      mstore\n      0x04\n      add\n      mload(0x40)\n      dup1\n      swap2\n      sub\n      swap1\n      revert\n        /* \"@openzeppelin/contracts-upgradeable/proxy/utils/Initializable.sol\":4849:4940  if (!initialSetup && !construction) {... */\n    tag_116:\n        /* \"@openzeppelin/contracts-upgradeable/proxy/utils/Initializable.sol\":4949:4967  $._initialized = 1 */\n      dup5\n      sload\n      not(0xffffffffffffffff)\n      and\n        /* \"@openzeppelin/contracts-upgradeable/proxy/utils/Initializable.sol\":4966:4967  1 */\n      0x01\n        /* \"@openzeppelin/contracts-upgradeable/proxy/utils/Initializable.sol\":4949:4967  $._initialized = 1 */\n      or\n      dup6\n      sstore\n        /* \"@openzeppelin/contracts-upgradeable/proxy/utils/Initializable.sol\":4977:5044  if (isTopLevelCall) {... */\n      dup4\n      iszero\n      tag_117\n      jumpi\n        /* \"@openzeppelin/contracts-upgradeable/proxy/utils/Initializable.sol\":5011:5033  $._initializing = true */\n      dup5\n      sload\n      not(shl(0x40, 0xff))\n      and\n      shl(0x40, 0x01)\n      or\n      dup6\n      sstore\n        /* \"@openzeppelin/contracts-upgradeable/proxy/utils/Initializable.sol\":4977:5044  if (isTopLevelCall) {... */\n    tag_117:\n        /* \"contracts/Mock/CustomToken.sol\":441:467  __Ownable_init(msg.sender) */\n      tag_119\n        /* \"contracts/Mock/CustomToken.sol\":456:466  msg.sender */\n      caller\n        /* \"contracts/Mock/CustomToken.sol\":441:455  __Ownable_init */\n      tag_120\n        /* \"contracts/Mock/CustomToken.sol\":441:467  __Ownable_init(msg.sender) */\n      jump\t// in\n    tag_119:\n        /* \"contracts/Mock/CustomToken.sol\":477:503  __ERC20_init(name, symbol) */\n      tag_121\n        /* \"contracts/Mock/CustomToken.sol\":490:494  name */\n      dup8\n        /* \"contracts/Mock/CustomToken.sol\":496:502  symbol */\n      dup8\n        /* \"contracts/Mock/CustomToken.sol\":477:489  __ERC20_init */\n      tag_122\n        /* \"contracts/Mock/CustomToken.sol\":477:503  __ERC20_init(name, symbol) */\n      jump\t// in\n    tag_121:\n        /* \"contracts/Mock/CustomToken.sol\":513:560  _mint(msg.sender, 200_000_000 * 10**decimals()) */\n      tag_123\n        /* \"contracts/Mock/CustomToken.sol\":519:529  msg.sender */\n      caller\n        /* \"@openzeppelin/contracts-upgradeable/token/ERC20/ERC20Upgradeable.sol\":3808:3810  18 */\n      0x12\n        /* \"contracts/Mock/CustomToken.sol\":549:559  decimals() */\n      tag_95\n        /* \"@openzeppelin/contracts-upgradeable/token/ERC20/ERC20Upgradeable.sol\":3735:3817  function decimals() public view virtual returns (uint8) {... */\n      jump\n        /* \"contracts/Mock/CustomToken.sol\":513:560  _mint(msg.sender, 200_000_000 * 10**decimals()) */\n    tag_123:\n        /* \"@openzeppelin/contracts-upgradeable/proxy/utils/Initializable.sol\":5068:5082  isTopLevelCall */\n      dup4\n        /* \"@openzeppelin/contracts-upgradeable/proxy/utils/Initializable.sol\":5064:5165  if (isTopLevelCall) {... */\n      iszero\n      tag_127\n      jumpi\n        /* \"@openzeppelin/contracts-upgradeable/proxy/utils/Initializable.sol\":5098:5121  $._initializing = false */\n      dup5\n      sload\n      not(shl(0x40, 0xff))\n      and\n      dup6\n      sstore\n        /* \"@openzeppelin/contracts-upgradeable/proxy/utils/Initializable.sol\":5140:5154  Initialized(1) */\n      mload(0x40)\n      0x01\n        /* \"#utility.yul\":6207:6257   */\n      dup2\n      mstore\n        /* \"@openzeppelin/contracts-upgradeable/proxy/utils/Initializable.sol\":5140:5154  Initialized(1) */\n      0xc7f505b2f371ae2175ee4913f4499e1f2633a7b5936321eed1cdaeb6115181d2\n      swap1\n        /* \"#utility.yul\":6195:6197   */\n      0x20\n        /* \"#utility.yul\":6180:6198   */\n      add\n        /* \"@openzeppelin/contracts-upgradeable/proxy/utils/Initializable.sol\":5140:5154  Initialized(1) */\n      mload(0x40)\n      dup1\n      swap2\n      sub\n      swap1\n      log1\n        /* \"@openzeppelin/contracts-upgradeable/proxy/utils/Initializable.sol\":5064:5165  if (isTopLevelCall) {... */\n    tag_127:\n        /* \"@openzeppelin/contracts-upgradeable/proxy/utils/Initializable.sol\":4092:5171  {... */\n      pop\n      pop\n      pop\n      pop\n      pop\n        /* \"contracts/Mock/CustomToken.sol\":330:567  function initialize(string memory name, string memory symbol)... */\n      pop\n      pop\n      jump\t// out\n        /* \"@openzeppelin/contracts-upgradeable/access/OwnableUpgradeable.sol\":3155:3256  function renounceOwnership() public virtual onlyOwner {... */\n    tag_55:\n        /* \"@openzeppelin/contracts-upgradeable/access/OwnableUpgradeable.sol\":2334:2347  _checkOwner() */\n      tag_133\n        /* \"@openzeppelin/contracts-upgradeable/access/OwnableUpgradeable.sol\":2334:2345  _checkOwner */\n      tag_91\n        /* \"@openzeppelin/contracts-upgradeable/access/OwnableUpgradeable.sol\":2334:2347  _checkOwner() */\n      jump\t// in\n    tag_133:\n        /* \"@openzeppelin/contracts-upgradeable/access/OwnableUpgradeable.sol\":3219:3249  _transferOwnership(address(0)) */\n      tag_93\n        /* \"@openzeppelin/contracts-upgradeable/access/OwnableUpgradeable.sol\":3246:3247  0 */\n      0x00\n        /* \"@openzeppelin/contracts-upgradeable/access/OwnableUpgradeable.sol\":3219:3237  _transferOwnership */\n      tag_136\n        /* \"@openzeppelin/contracts-upgradeable/access/OwnableUpgradeable.sol\":3219:3249  _transferOwnership(address(0)) */\n      jump\t// in\n        /* \"@openzeppelin/contracts-upgradeable/access/OwnableUpgradeable.sol\":2441:2585  function owner() public view virtual returns (address) {... */\n    tag_57:\n        /* \"@openzeppelin/contracts-upgradeable/access/OwnableUpgradeable.sol\":1313:1335  OwnableStorageLocation */\n      0x9016d09d72d40fdae2fd8ceac6b6234c7706214fd39c1cd1e609a0528c199300\n        /* \"@openzeppelin/contracts-upgradeable/access/OwnableUpgradeable.sol\":2570:2578  $._owner */\n      sload\n      sub(shl(0xa0, 0x01), 0x01)\n      and\n      swap1\n        /* \"@openzeppelin/contracts-upgradeable/access/OwnableUpgradeable.sol\":2441:2585  function owner() public view virtual returns (address) {... */\n      jump\t// out\n        /* \"@openzeppelin/contracts-upgradeable/token/ERC20/ERC20Upgradeable.sol\":2954:3102  function symbol() public view virtual returns (string memory) {... */\n    tag_61:\n        /* \"@openzeppelin/contracts-upgradeable/token/ERC20/ERC20Upgradeable.sol\":3086:3095  $._symbol */\n      0x52c63247e1f47db19d5ce0460030c497f067ca4cebf71ba98eeadabe20bace04\n        /* \"@openzeppelin/contracts-upgradeable/token/ERC20/ERC20Upgradeable.sol\":3079:3095  return $._symbol */\n      dup1\n      sload\n        /* \"@openzeppelin/contracts-upgradeable/token/ERC20/ERC20Upgradeable.sol\":3001:3014  string memory */\n      0x60\n      swap2\n      mload(0x00)\n      codecopy(0x00, data_3874827173e8df9f34323b12b251d1d3c53926ce129e30a0d69f1d47c277041b, 0x20)\n      mload(0x00)\n      swap1\n      0x00\n      mstore\n        /* \"@openzeppelin/contracts-upgradeable/token/ERC20/ERC20Upgradeable.sol\":2064:2084  ERC20StorageLocation */\n      swap2\n        /* \"@openzeppelin/contracts-upgradeable/token/ERC20/ERC20Upgradeable.sol\":3079:3095  return $._symbol */\n      tag_78\n      swap1\n      tag_79\n      jump\t// in\n        /* \"@openzeppelin/contracts-upgradeable/token/ERC20/ERC20Upgradeable.sol\":4453:4631  function transfer(address to, uint256 value) public virtual returns (bool) {... */\n    tag_65:\n        /* \"@openzeppelin/contracts-upgradeable/token/ERC20/ERC20Upgradeable.sol\":4522:4526  bool */\n      0x00\n        /* \"@openzeppelin/contracts-upgradeable/utils/ContextUpgradeable.sol\":966:976  msg.sender */\n      caller\n        /* \"@openzeppelin/contracts-upgradeable/token/ERC20/ERC20Upgradeable.sol\":4576:4603  _transfer(owner, to, value) */\n      tag_87\n        /* \"@openzeppelin/contracts-upgradeable/utils/ContextUpgradeable.sol\":966:976  msg.sender */\n      dup2\n        /* \"@openzeppelin/contracts-upgradeable/token/ERC20/ERC20Upgradeable.sol\":4593:4595  to */\n      dup6\n        /* \"@openzeppelin/contracts-upgradeable/token/ERC20/ERC20Upgradeable.sol\":4597:4602  value */\n      dup6\n        /* \"@openzeppelin/contracts-upgradeable/token/ERC20/ERC20Upgradeable.sol\":4576:4585  _transfer */\n      tag_108\n        /* \"@openzeppelin/contracts-upgradeable/token/ERC20/ERC20Upgradeable.sol\":4576:4603  _transfer(owner, to, value) */\n      jump\t// in\n        /* \"@openzeppelin/contracts-upgradeable/token/ERC20/ERC20Upgradeable.sol\":4689:4884  function allowance(address owner, address spender) public view virtual returns (uint256) {... */\n    tag_70:\n      sub(shl(0xa0, 0x01), 0x01)\n        /* \"@openzeppelin/contracts-upgradeable/token/ERC20/ERC20Upgradeable.sol\":4848:4868  $._allowances[owner] */\n      swap2\n      dup3\n      and\n        /* \"@openzeppelin/contracts-upgradeable/token/ERC20/ERC20Upgradeable.sol\":4769:4776  uint256 */\n      0x00\n        /* \"@openzeppelin/contracts-upgradeable/token/ERC20/ERC20Upgradeable.sol\":4848:4868  $._allowances[owner] */\n      swap1\n      dup2\n      mstore\n        /* \"@openzeppelin/contracts-upgradeable/token/ERC20/ERC20Upgradeable.sol\":4848:4861  $._allowances */\n      0x52c63247e1f47db19d5ce0460030c497f067ca4cebf71ba98eeadabe20bace01\n        /* \"@openzeppelin/contracts-upgradeable/token/ERC20/ERC20Upgradeable.sol\":4848:4868  $._allowances[owner] */\n      0x20\n      swap1\n      dup2\n      mstore\n      0x40\n      dup1\n      dup4\n      keccak256\n        /* \"@openzeppelin/contracts-upgradeable/token/ERC20/ERC20Upgradeable.sol\":4848:4877  $._allowances[owner][spender] */\n      swap4\n      swap1\n      swap5\n      and\n      dup3\n      mstore\n      swap2\n      swap1\n      swap2\n      mstore\n      keccak256\n      sload\n      swap1\n        /* \"@openzeppelin/contracts-upgradeable/token/ERC20/ERC20Upgradeable.sol\":4689:4884  function allowance(address owner, address spender) public view virtual returns (uint256) {... */\n      jump\t// out\n        /* \"@openzeppelin/contracts-upgradeable/access/OwnableUpgradeable.sol\":3405:3620  function transferOwnership(address newOwner) public virtual onlyOwner {... */\n    tag_74:\n        /* \"@openzeppelin/contracts-upgradeable/access/OwnableUpgradeable.sol\":2334:2347  _checkOwner() */\n      tag_153\n        /* \"@openzeppelin/contracts-upgradeable/access/OwnableUpgradeable.sol\":2334:2345  _checkOwner */\n      tag_91\n        /* \"@openzeppelin/contracts-upgradeable/access/OwnableUpgradeable.sol\":2334:2347  _checkOwner() */\n      jump\t// in\n    tag_153:\n      sub(shl(0xa0, 0x01), 0x01)\n        /* \"@openzeppelin/contracts-upgradeable/access/OwnableUpgradeable.sol\":3489:3511  newOwner == address(0) */\n      dup2\n      and\n        /* \"@openzeppelin/contracts-upgradeable/access/OwnableUpgradeable.sol\":3485:3576  if (newOwner == address(0)) {... */\n      tag_155\n      jumpi\n        /* \"@openzeppelin/contracts-upgradeable/access/OwnableUpgradeable.sol\":3534:3565  OwnableInvalidOwner(address(0)) */\n      mload(0x40)\n      shl(0xe0, 0x1e4fbdf7)\n      dup2\n      mstore\n        /* \"@openzeppelin/contracts-upgradeable/access/OwnableUpgradeable.sol\":3562:3563  0 */\n      0x00\n        /* \"@openzeppelin/contracts-upgradeable/access/OwnableUpgradeable.sol\":3534:3565  OwnableInvalidOwner(address(0)) */\n      0x04\n      dup3\n      add\n        /* \"#utility.yul\":3605:3656   */\n      mstore\n        /* \"#utility.yul\":3578:3596   */\n      0x24\n      add\n        /* \"@openzeppelin/contracts-upgradeable/access/OwnableUpgradeable.sol\":3534:3565  OwnableInvalidOwner(address(0)) */\n    tag_156:\n      mload(0x40)\n      dup1\n      swap2\n      sub\n      swap1\n      revert\n        /* \"@openzeppelin/contracts-upgradeable/access/OwnableUpgradeable.sol\":3485:3576  if (newOwner == address(0)) {... */\n    tag_155:\n        /* \"@openzeppelin/contracts-upgradeable/access/OwnableUpgradeable.sol\":3585:3613  _transferOwnership(newOwner) */\n      tag_157\n        /* \"@openzeppelin/contracts-upgradeable/access/OwnableUpgradeable.sol\":3604:3612  newOwner */\n      dup2\n        /* \"@openzeppelin/contracts-upgradeable/access/OwnableUpgradeable.sol\":3585:3603  _transferOwnership */\n      tag_136\n        /* \"@openzeppelin/contracts-upgradeable/access/OwnableUpgradeable.sol\":3585:3613  _transferOwnership(newOwner) */\n      jump\t// in\n    tag_157:\n        /* \"@openzeppelin/contracts-upgradeable/access/OwnableUpgradeable.sol\":3405:3620  function transferOwnership(address newOwner) public virtual onlyOwner {... */\n      pop\n      jump\t// out\n        /* \"@openzeppelin/contracts-upgradeable/token/ERC20/ERC20Upgradeable.sol\":9982:10110  function _approve(address owner, address spender, uint256 value) internal {... */\n    tag_88:\n        /* \"@openzeppelin/contracts-upgradeable/token/ERC20/ERC20Upgradeable.sol\":10066:10103  _approve(owner, spender, value, true) */\n      tag_161\n        /* \"@openzeppelin/contracts-upgradeable/token/ERC20/ERC20Upgradeable.sol\":10075:10080  owner */\n      dup4\n        /* \"@openzeppelin/contracts-upgradeable/token/ERC20/ERC20Upgradeable.sol\":10082:10089  spender */\n      dup4\n        /* \"@openzeppelin/contracts-upgradeable/token/ERC20/ERC20Upgradeable.sol\":10091:10096  value */\n      dup4\n        /* \"@openzeppelin/contracts-upgradeable/token/ERC20/ERC20Upgradeable.sol\":10098:10102  true */\n      0x01\n        /* \"@openzeppelin/contracts-upgradeable/token/ERC20/ERC20Upgradeable.sol\":10066:10074  _approve */\n      tag_162\n        /* \"@openzeppelin/contracts-upgradeable/token/ERC20/ERC20Upgradeable.sol\":10066:10103  _approve(owner, spender, value, true) */\n      jump\t// in\n    tag_161:\n        /* \"@openzeppelin/contracts-upgradeable/token/ERC20/ERC20Upgradeable.sol\":9982:10110  function _approve(address owner, address spender, uint256 value) internal {... */\n      pop\n      pop\n      pop\n      jump\t// out\n        /* \"@openzeppelin/contracts-upgradeable/access/OwnableUpgradeable.sol\":2658:2820  function _checkOwner() internal view virtual {... */\n    tag_91:\n        /* \"@openzeppelin/contracts-upgradeable/utils/ContextUpgradeable.sol\":966:976  msg.sender */\n      caller\n        /* \"@openzeppelin/contracts-upgradeable/access/OwnableUpgradeable.sol\":2717:2724  owner() */\n      tag_165\n        /* \"@openzeppelin/contracts-upgradeable/access/OwnableUpgradeable.sol\":2717:2722  owner */\n      tag_57\n        /* \"@openzeppelin/contracts-upgradeable/access/OwnableUpgradeable.sol\":2717:2724  owner() */\n      jump\t// in\n    tag_165:\n      sub(shl(0xa0, 0x01), 0x01)\n        /* \"@openzeppelin/contracts-upgradeable/access/OwnableUpgradeable.sol\":2717:2740  owner() != _msgSender() */\n      and\n      eq\n        /* \"@openzeppelin/contracts-upgradeable/access/OwnableUpgradeable.sol\":2713:2814  if (owner() != _msgSender()) {... */\n      tag_93\n      jumpi\n        /* \"@openzeppelin/contracts-upgradeable/access/OwnableUpgradeable.sol\":2763:2803  OwnableUnauthorizedAccount(_msgSender()) */\n      mload(0x40)\n      shl(0xe0, 0x118cdaa7)\n      dup2\n      mstore\n        /* \"@openzeppelin/contracts-upgradeable/utils/ContextUpgradeable.sol\":966:976  msg.sender */\n      caller\n        /* \"@openzeppelin/contracts-upgradeable/access/OwnableUpgradeable.sol\":2763:2803  OwnableUnauthorizedAccount(_msgSender()) */\n      0x04\n      dup3\n      add\n        /* \"#utility.yul\":3605:3656   */\n      mstore\n        /* \"#utility.yul\":3578:3596   */\n      0x24\n      add\n        /* \"@openzeppelin/contracts-upgradeable/access/OwnableUpgradeable.sol\":2763:2803  OwnableUnauthorizedAccount(_msgSender()) */\n      tag_156\n        /* \"#utility.yul\":3459:3662   */\n      jump\n        /* \"@openzeppelin/contracts-upgradeable/token/ERC20/ERC20Upgradeable.sol\":8714:8922  function _mint(address account, uint256 value) internal {... */\n    tag_100:\n      sub(shl(0xa0, 0x01), 0x01)\n        /* \"@openzeppelin/contracts-upgradeable/token/ERC20/ERC20Upgradeable.sol\":8784:8805  account == address(0) */\n      dup3\n      and\n        /* \"@openzeppelin/contracts-upgradeable/token/ERC20/ERC20Upgradeable.sol\":8780:8871  if (account == address(0)) {... */\n      tag_170\n      jumpi\n        /* \"@openzeppelin/contracts-upgradeable/token/ERC20/ERC20Upgradeable.sol\":8828:8860  ERC20InvalidReceiver(address(0)) */\n      mload(0x40)\n      shl(0xe0, 0xec442f05)\n      dup2\n      mstore\n        /* \"@openzeppelin/contracts-upgradeable/token/ERC20/ERC20Upgradeable.sol\":8857:8858  0 */\n      0x00\n        /* \"@openzeppelin/contracts-upgradeable/token/ERC20/ERC20Upgradeable.sol\":8828:8860  ERC20InvalidReceiver(address(0)) */\n      0x04\n      dup3\n      add\n        /* \"#utility.yul\":3605:3656   */\n      mstore\n        /* \"#utility.yul\":3578:3596   */\n      0x24\n      add\n        /* \"@openzeppelin/contracts-upgradeable/token/ERC20/ERC20Upgradeable.sol\":8828:8860  ERC20InvalidReceiver(address(0)) */\n      tag_156\n        /* \"#utility.yul\":3459:3662   */\n      jump\n        /* \"@openzeppelin/contracts-upgradeable/token/ERC20/ERC20Upgradeable.sol\":8780:8871  if (account == address(0)) {... */\n    tag_170:\n        /* \"@openzeppelin/contracts-upgradeable/token/ERC20/ERC20Upgradeable.sol\":8880:8915  _update(address(0), account, value) */\n      tag_172\n        /* \"@openzeppelin/contracts-upgradeable/token/ERC20/ERC20Upgradeable.sol\":8896:8897  0 */\n      0x00\n        /* \"@openzeppelin/contracts-upgradeable/token/ERC20/ERC20Upgradeable.sol\":8900:8907  account */\n      dup4\n        /* \"@openzeppelin/contracts-upgradeable/token/ERC20/ERC20Upgradeable.sol\":8909:8914  value */\n      dup4\n        /* \"@openzeppelin/contracts-upgradeable/token/ERC20/ERC20Upgradeable.sol\":8880:8887  _update */\n      tag_173\n        /* \"@openzeppelin/contracts-upgradeable/token/ERC20/ERC20Upgradeable.sol\":8880:8915  _update(address(0), account, value) */\n      jump\t// in\n    tag_172:\n        /* \"@openzeppelin/contracts-upgradeable/token/ERC20/ERC20Upgradeable.sol\":8714:8922  function _mint(address account, uint256 value) internal {... */\n      pop\n      pop\n      jump\t// out\n        /* \"@openzeppelin/contracts-upgradeable/token/ERC20/ERC20Upgradeable.sol\":11726:12202  function _spendAllowance(address owner, address spender, uint256 value) internal virtual {... */\n    tag_106:\n        /* \"@openzeppelin/contracts-upgradeable/token/ERC20/ERC20Upgradeable.sol\":11825:11849  uint256 currentAllowance */\n      0x00\n        /* \"@openzeppelin/contracts-upgradeable/token/ERC20/ERC20Upgradeable.sol\":11852:11877  allowance(owner, spender) */\n      tag_175\n        /* \"@openzeppelin/contracts-upgradeable/token/ERC20/ERC20Upgradeable.sol\":11862:11867  owner */\n      dup5\n        /* \"@openzeppelin/contracts-upgradeable/token/ERC20/ERC20Upgradeable.sol\":11869:11876  spender */\n      dup5\n        /* \"@openzeppelin/contracts-upgradeable/token/ERC20/ERC20Upgradeable.sol\":11852:11861  allowance */\n      tag_70\n        /* \"@openzeppelin/contracts-upgradeable/token/ERC20/ERC20Upgradeable.sol\":11852:11877  allowance(owner, spender) */\n      jump\t// in\n    tag_175:\n        /* \"@openzeppelin/contracts-upgradeable/token/ERC20/ERC20Upgradeable.sol\":11825:11877  uint256 currentAllowance = allowance(owner, spender) */\n      swap1\n      pop\n      not(0x00)\n        /* \"@openzeppelin/contracts-upgradeable/token/ERC20/ERC20Upgradeable.sol\":11891:11907  currentAllowance */\n      dup2\n        /* \"@openzeppelin/contracts-upgradeable/token/ERC20/ERC20Upgradeable.sol\":11891:11927  currentAllowance < type(uint256).max */\n      lt\n        /* \"@openzeppelin/contracts-upgradeable/token/ERC20/ERC20Upgradeable.sol\":11887:12196  if (currentAllowance < type(uint256).max) {... */\n      iszero\n      tag_180\n      jumpi\n        /* \"@openzeppelin/contracts-upgradeable/token/ERC20/ERC20Upgradeable.sol\":11966:11971  value */\n      dup2\n        /* \"@openzeppelin/contracts-upgradeable/token/ERC20/ERC20Upgradeable.sol\":11947:11963  currentAllowance */\n      dup2\n        /* \"@openzeppelin/contracts-upgradeable/token/ERC20/ERC20Upgradeable.sol\":11947:11971  currentAllowance < value */\n      lt\n        /* \"@openzeppelin/contracts-upgradeable/token/ERC20/ERC20Upgradeable.sol\":11943:12073  if (currentAllowance < value) {... */\n      iszero\n      tag_177\n      jumpi\n        /* \"@openzeppelin/contracts-upgradeable/token/ERC20/ERC20Upgradeable.sol\":11998:12058  ERC20InsufficientAllowance(spender, currentAllowance, value) */\n      mload(0x40)\n      shl(0xe1, 0x7dc7a0d9)\n      dup2\n      mstore\n      sub(shl(0xa0, 0x01), 0x01)\n        /* \"#utility.yul\":6488:6520   */\n      dup5\n      and\n        /* \"@openzeppelin/contracts-upgradeable/token/ERC20/ERC20Upgradeable.sol\":11998:12058  ERC20InsufficientAllowance(spender, currentAllowance, value) */\n      0x04\n      dup3\n      add\n        /* \"#utility.yul\":6470:6521   */\n      mstore\n        /* \"#utility.yul\":6537:6555   */\n      0x24\n      dup2\n      add\n        /* \"#utility.yul\":6530:6564   */\n      dup3\n      swap1\n      mstore\n        /* \"#utility.yul\":6580:6598   */\n      0x44\n      dup2\n      add\n        /* \"#utility.yul\":6573:6607   */\n      dup4\n      swap1\n      mstore\n        /* \"#utility.yul\":6443:6461   */\n      0x64\n      add\n        /* \"@openzeppelin/contracts-upgradeable/token/ERC20/ERC20Upgradeable.sol\":11998:12058  ERC20InsufficientAllowance(spender, currentAllowance, value) */\n      tag_156\n        /* \"#utility.yul\":6268:6613   */\n      jump\n        /* \"@openzeppelin/contracts-upgradeable/token/ERC20/ERC20Upgradeable.sol\":11943:12073  if (currentAllowance < value) {... */\n    tag_177:\n        /* \"@openzeppelin/contracts-upgradeable/token/ERC20/ERC20Upgradeable.sol\":12114:12171  _approve(owner, spender, currentAllowance - value, false) */\n      tag_180\n        /* \"@openzeppelin/contracts-upgradeable/token/ERC20/ERC20Upgradeable.sol\":12123:12128  owner */\n      dup5\n        /* \"@openzeppelin/contracts-upgradeable/token/ERC20/ERC20Upgradeable.sol\":12130:12137  spender */\n      dup5\n        /* \"@openzeppelin/contracts-upgradeable/token/ERC20/ERC20Upgradeable.sol\":12158:12163  value */\n      dup5\n        /* \"@openzeppelin/contracts-upgradeable/token/ERC20/ERC20Upgradeable.sol\":12139:12155  currentAllowance */\n      dup5\n        /* \"@openzeppelin/contracts-upgradeable/token/ERC20/ERC20Upgradeable.sol\":12139:12163  currentAllowance - value */\n      sub\n        /* \"@openzeppelin/contracts-upgradeable/token/ERC20/ERC20Upgradeable.sol\":12165:12170  false */\n      0x00\n        /* \"@openzeppelin/contracts-upgradeable/token/ERC20/ERC20Upgradeable.sol\":12114:12122  _approve */\n      tag_162\n        /* \"@openzeppelin/contracts-upgradeable/token/ERC20/ERC20Upgradeable.sol\":12114:12171  _approve(owner, spender, currentAllowance - value, false) */\n      jump\t// in\n    tag_180:\n        /* \"@openzeppelin/contracts-upgradeable/token/ERC20/ERC20Upgradeable.sol\":11815:12202  {... */\n      pop\n        /* \"@openzeppelin/contracts-upgradeable/token/ERC20/ERC20Upgradeable.sol\":11726:12202  function _spendAllowance(address owner, address spender, uint256 value) internal virtual {... */\n      pop\n      pop\n      pop\n      jump\t// out\n        /* \"@openzeppelin/contracts-upgradeable/token/ERC20/ERC20Upgradeable.sol\":6586:6886  function _transfer(address from, address to, uint256 value) internal {... */\n    tag_108:\n      sub(shl(0xa0, 0x01), 0x01)\n        /* \"@openzeppelin/contracts-upgradeable/token/ERC20/ERC20Upgradeable.sol\":6669:6687  from == address(0) */\n      dup4\n      and\n        /* \"@openzeppelin/contracts-upgradeable/token/ERC20/ERC20Upgradeable.sol\":6665:6751  if (from == address(0)) {... */\n      tag_182\n      jumpi\n        /* \"@openzeppelin/contracts-upgradeable/token/ERC20/ERC20Upgradeable.sol\":6710:6740  ERC20InvalidSender(address(0)) */\n      mload(0x40)\n      shl(0xe1, 0x4b637e8f)\n      dup2\n      mstore\n        /* \"@openzeppelin/contracts-upgradeable/token/ERC20/ERC20Upgradeable.sol\":6737:6738  0 */\n      0x00\n        /* \"@openzeppelin/contracts-upgradeable/token/ERC20/ERC20Upgradeable.sol\":6710:6740  ERC20InvalidSender(address(0)) */\n      0x04\n      dup3\n      add\n        /* \"#utility.yul\":3605:3656   */\n      mstore\n        /* \"#utility.yul\":3578:3596   */\n      0x24\n      add\n        /* \"@openzeppelin/contracts-upgradeable/token/ERC20/ERC20Upgradeable.sol\":6710:6740  ERC20InvalidSender(address(0)) */\n      tag_156\n        /* \"#utility.yul\":3459:3662   */\n      jump\n        /* \"@openzeppelin/contracts-upgradeable/token/ERC20/ERC20Upgradeable.sol\":6665:6751  if (from == address(0)) {... */\n    tag_182:\n      sub(shl(0xa0, 0x01), 0x01)\n        /* \"@openzeppelin/contracts-upgradeable/token/ERC20/ERC20Upgradeable.sol\":6764:6780  to == address(0) */\n      dup3\n      and\n        /* \"@openzeppelin/contracts-upgradeable/token/ERC20/ERC20Upgradeable.sol\":6760:6846  if (to == address(0)) {... */\n      tag_184\n      jumpi\n        /* \"@openzeppelin/contracts-upgradeable/token/ERC20/ERC20Upgradeable.sol\":6803:6835  ERC20InvalidReceiver(address(0)) */\n      mload(0x40)\n      shl(0xe0, 0xec442f05)\n      dup2\n      mstore\n        /* \"@openzeppelin/contracts-upgradeable/token/ERC20/ERC20Upgradeable.sol\":6832:6833  0 */\n      0x00\n        /* \"@openzeppelin/contracts-upgradeable/token/ERC20/ERC20Upgradeable.sol\":6803:6835  ERC20InvalidReceiver(address(0)) */\n      0x04\n      dup3\n      add\n        /* \"#utility.yul\":3605:3656   */\n      mstore\n        /* \"#utility.yul\":3578:3596   */\n      0x24\n      add\n        /* \"@openzeppelin/contracts-upgradeable/token/ERC20/ERC20Upgradeable.sol\":6803:6835  ERC20InvalidReceiver(address(0)) */\n      tag_156\n        /* \"#utility.yul\":3459:3662   */\n      jump\n        /* \"@openzeppelin/contracts-upgradeable/token/ERC20/ERC20Upgradeable.sol\":6760:6846  if (to == address(0)) {... */\n    tag_184:\n        /* \"@openzeppelin/contracts-upgradeable/token/ERC20/ERC20Upgradeable.sol\":6855:6879  _update(from, to, value) */\n      tag_161\n        /* \"@openzeppelin/contracts-upgradeable/token/ERC20/ERC20Upgradeable.sol\":6863:6867  from */\n      dup4\n        /* \"@openzeppelin/contracts-upgradeable/token/ERC20/ERC20Upgradeable.sol\":6869:6871  to */\n      dup4\n        /* \"@openzeppelin/contracts-upgradeable/token/ERC20/ERC20Upgradeable.sol\":6873:6878  value */\n      dup4\n        /* \"@openzeppelin/contracts-upgradeable/token/ERC20/ERC20Upgradeable.sol\":6855:6862  _update */\n      tag_173\n        /* \"@openzeppelin/contracts-upgradeable/token/ERC20/ERC20Upgradeable.sol\":6855:6879  _update(from, to, value) */\n      jump\t// in\n        /* \"@openzeppelin/contracts-upgradeable/proxy/utils/Initializable.sol\":9071:9276  function _getInitializableStorage() private pure returns (InitializableStorage storage $) {... */\n    tag_112:\n        /* \"@openzeppelin/contracts-upgradeable/proxy/utils/Initializable.sol\":9129:9159  InitializableStorage storage $ */\n      0x00\n      dup1\n        /* \"@openzeppelin/contracts-upgradeable/proxy/utils/Initializable.sol\":3147:3213  0xf0c57e16840df040f15088dc2f81fe391c3923bec73e23a9662efc9c229c6a00 */\n      0xf0c57e16840df040f15088dc2f81fe391c3923bec73e23a9662efc9c229c6a00\n        /* \"@openzeppelin/contracts-upgradeable/proxy/utils/Initializable.sol\":9186:9213  _initializableStorageSlot() */\n      tag_84\n        /* \"@openzeppelin/contracts-upgradeable/proxy/utils/Initializable.sol\":8819:8941  function _initializableStorageSlot() internal pure virtual returns (bytes32) {... */\n      jump\n        /* \"@openzeppelin/contracts-upgradeable/access/OwnableUpgradeable.sol\":1847:1974  function __Ownable_init(address initialOwner) internal onlyInitializing {... */\n    tag_120:\n        /* \"@openzeppelin/contracts-upgradeable/proxy/utils/Initializable.sol\":6929:6949  _checkInitializing() */\n      tag_191\n        /* \"@openzeppelin/contracts-upgradeable/proxy/utils/Initializable.sol\":6929:6947  _checkInitializing */\n      tag_192\n        /* \"@openzeppelin/contracts-upgradeable/proxy/utils/Initializable.sol\":6929:6949  _checkInitializing() */\n      jump\t// in\n    tag_191:\n        /* \"@openzeppelin/contracts-upgradeable/access/OwnableUpgradeable.sol\":1929:1967  __Ownable_init_unchained(initialOwner) */\n      tag_157\n        /* \"@openzeppelin/contracts-upgradeable/access/OwnableUpgradeable.sol\":1954:1966  initialOwner */\n      dup2\n        /* \"@openzeppelin/contracts-upgradeable/access/OwnableUpgradeable.sol\":1929:1953  __Ownable_init_unchained */\n      tag_195\n        /* \"@openzeppelin/contracts-upgradeable/access/OwnableUpgradeable.sol\":1929:1967  __Ownable_init_unchained(initialOwner) */\n      jump\t// in\n        /* \"@openzeppelin/contracts-upgradeable/token/ERC20/ERC20Upgradeable.sol\":2263:2410  function __ERC20_init(string memory name_, string memory symbol_) internal onlyInitializing {... */\n    tag_122:\n        /* \"@openzeppelin/contracts-upgradeable/proxy/utils/Initializable.sol\":6929:6949  _checkInitializing() */\n      tag_197\n        /* \"@openzeppelin/contracts-upgradeable/proxy/utils/Initializable.sol\":6929:6947  _checkInitializing */\n      tag_192\n        /* \"@openzeppelin/contracts-upgradeable/proxy/utils/Initializable.sol\":6929:6949  _checkInitializing() */\n      jump\t// in\n    tag_197:\n        /* \"@openzeppelin/contracts-upgradeable/token/ERC20/ERC20Upgradeable.sol\":2365:2403  __ERC20_init_unchained(name_, symbol_) */\n      tag_172\n        /* \"@openzeppelin/contracts-upgradeable/token/ERC20/ERC20Upgradeable.sol\":2388:2393  name_ */\n      dup3\n        /* \"@openzeppelin/contracts-upgradeable/token/ERC20/ERC20Upgradeable.sol\":2395:2402  symbol_ */\n      dup3\n        /* \"@openzeppelin/contracts-upgradeable/token/ERC20/ERC20Upgradeable.sol\":2365:2387  __ERC20_init_unchained */\n      tag_200\n        /* \"@openzeppelin/contracts-upgradeable/token/ERC20/ERC20Upgradeable.sol\":2365:2403  __ERC20_init_unchained(name_, symbol_) */\n      jump\t// in\n        /* \"@openzeppelin/contracts-upgradeable/access/OwnableUpgradeable.sol\":3774:4022  function _transferOwnership(address newOwner) internal virtual {... */\n    tag_136:\n        /* \"@openzeppelin/contracts-upgradeable/access/OwnableUpgradeable.sol\":1313:1335  OwnableStorageLocation */\n      0x9016d09d72d40fdae2fd8ceac6b6234c7706214fd39c1cd1e609a0528c199300\n        /* \"@openzeppelin/contracts-upgradeable/access/OwnableUpgradeable.sol\":3923:3931  $._owner */\n      dup1\n      sload\n      not(sub(shl(0xa0, 0x01), 0x01))\n        /* \"@openzeppelin/contracts-upgradeable/access/OwnableUpgradeable.sol\":3941:3960  $._owner = newOwner */\n      dup2\n      and\n      sub(shl(0xa0, 0x01), 0x01)\n      dup5\n      dup2\n      and\n      swap2\n      dup3\n      or\n      dup5\n      sstore\n        /* \"@openzeppelin/contracts-upgradeable/access/OwnableUpgradeable.sol\":3975:4015  OwnershipTransferred(oldOwner, newOwner) */\n      mload(0x40)\n        /* \"@openzeppelin/contracts-upgradeable/access/OwnableUpgradeable.sol\":3923:3931  $._owner */\n      swap3\n      and\n      swap2\n      dup3\n      swap1\n        /* \"@openzeppelin/contracts-upgradeable/access/OwnableUpgradeable.sol\":3975:4015  OwnershipTransferred(oldOwner, newOwner) */\n      0x8be0079c531659141344cd1fd0a4f28419497f9722a3daafe3b4186f6b6457e0\n      swap1\n        /* \"@openzeppelin/contracts-upgradeable/access/OwnableUpgradeable.sol\":3847:3871  OwnableStorage storage $ */\n      0x00\n      swap1\n        /* \"@openzeppelin/contracts-upgradeable/access/OwnableUpgradeable.sol\":3975:4015  OwnershipTransferred(oldOwner, newOwner) */\n      log3\n        /* \"@openzeppelin/contracts-upgradeable/access/OwnableUpgradeable.sol\":3837:4022  {... */\n      pop\n      pop\n        /* \"@openzeppelin/contracts-upgradeable/access/OwnableUpgradeable.sol\":3774:4022  function _transferOwnership(address newOwner) internal virtual {... */\n      pop\n      jump\t// out\n        /* \"@openzeppelin/contracts-upgradeable/token/ERC20/ERC20Upgradeable.sol\":10957:11444  function _approve(address owner, address spender, uint256 value, bool emitEvent) internal virtual {... */\n    tag_162:\n      mload(0x00)\n      codecopy(0x00, data_3874827173e8df9f34323b12b251d1d3c53926ce129e30a0d69f1d47c277041b, 0x20)\n      mload(0x00)\n      swap1\n      0x00\n      mstore\n      sub(shl(0xa0, 0x01), 0x01)\n        /* \"@openzeppelin/contracts-upgradeable/token/ERC20/ERC20Upgradeable.sol\":11122:11141  owner == address(0) */\n      dup6\n      and\n        /* \"@openzeppelin/contracts-upgradeable/token/ERC20/ERC20Upgradeable.sol\":11118:11207  if (owner == address(0)) {... */\n      tag_206\n      jumpi\n        /* \"@openzeppelin/contracts-upgradeable/token/ERC20/ERC20Upgradeable.sol\":11164:11196  ERC20InvalidApprover(address(0)) */\n      mload(0x40)\n      shl(0xe0, 0xe602df05)\n      dup2\n      mstore\n        /* \"@openzeppelin/contracts-upgradeable/token/ERC20/ERC20Upgradeable.sol\":11193:11194  0 */\n      0x00\n        /* \"@openzeppelin/contracts-upgradeable/token/ERC20/ERC20Upgradeable.sol\":11164:11196  ERC20InvalidApprover(address(0)) */\n      0x04\n      dup3\n      add\n        /* \"#utility.yul\":3605:3656   */\n      mstore\n        /* \"#utility.yul\":3578:3596   */\n      0x24\n      add\n        /* \"@openzeppelin/contracts-upgradeable/token/ERC20/ERC20Upgradeable.sol\":11164:11196  ERC20InvalidApprover(address(0)) */\n      tag_156\n        /* \"#utility.yul\":3459:3662   */\n      jump\n        /* \"@openzeppelin/contracts-upgradeable/token/ERC20/ERC20Upgradeable.sol\":11118:11207  if (owner == address(0)) {... */\n    tag_206:\n      sub(shl(0xa0, 0x01), 0x01)\n        /* \"@openzeppelin/contracts-upgradeable/token/ERC20/ERC20Upgradeable.sol\":11220:11241  spender == address(0) */\n      dup5\n      and\n        /* \"@openzeppelin/contracts-upgradeable/token/ERC20/ERC20Upgradeable.sol\":11216:11306  if (spender == address(0)) {... */\n      tag_208\n      jumpi\n        /* \"@openzeppelin/contracts-upgradeable/token/ERC20/ERC20Upgradeable.sol\":11264:11295  ERC20InvalidSpender(address(0)) */\n      mload(0x40)\n      shl(0xe1, 0x4a1406b1)\n      dup2\n      mstore\n        /* \"@openzeppelin/contracts-upgradeable/token/ERC20/ERC20Upgradeable.sol\":11292:11293  0 */\n      0x00\n        /* \"@openzeppelin/contracts-upgradeable/token/ERC20/ERC20Upgradeable.sol\":11264:11295  ERC20InvalidSpender(address(0)) */\n      0x04\n      dup3\n      add\n        /* \"#utility.yul\":3605:3656   */\n      mstore\n        /* \"#utility.yul\":3578:3596   */\n      0x24\n      add\n        /* \"@openzeppelin/contracts-upgradeable/token/ERC20/ERC20Upgradeable.sol\":11264:11295  ERC20InvalidSpender(address(0)) */\n      tag_156\n        /* \"#utility.yul\":3459:3662   */\n      jump\n        /* \"@openzeppelin/contracts-upgradeable/token/ERC20/ERC20Upgradeable.sol\":11216:11306  if (spender == address(0)) {... */\n    tag_208:\n      sub(shl(0xa0, 0x01), 0x01)\n        /* \"@openzeppelin/contracts-upgradeable/token/ERC20/ERC20Upgradeable.sol\":11315:11335  $._allowances[owner] */\n      dup1\n      dup7\n      and\n      0x00\n      swap1\n      dup2\n      mstore\n        /* \"@openzeppelin/contracts-upgradeable/token/ERC20/ERC20Upgradeable.sol\":11315:11328  $._allowances */\n      0x01\n      dup4\n      add\n        /* \"@openzeppelin/contracts-upgradeable/token/ERC20/ERC20Upgradeable.sol\":11315:11335  $._allowances[owner] */\n      0x20\n      swap1\n      dup2\n      mstore\n      0x40\n      dup1\n      dup4\n      keccak256\n        /* \"@openzeppelin/contracts-upgradeable/token/ERC20/ERC20Upgradeable.sol\":11315:11344  $._allowances[owner][spender] */\n      swap4\n      dup9\n      and\n      dup4\n      mstore\n      swap3\n      swap1\n      mstore\n      keccak256\n        /* \"@openzeppelin/contracts-upgradeable/token/ERC20/ERC20Upgradeable.sol\":11315:11352  $._allowances[owner][spender] = value */\n      dup4\n      swap1\n      sstore\n        /* \"@openzeppelin/contracts-upgradeable/token/ERC20/ERC20Upgradeable.sol\":11362:11438  if (emitEvent) {... */\n      dup2\n      iszero\n      tag_210\n      jumpi\n        /* \"@openzeppelin/contracts-upgradeable/token/ERC20/ERC20Upgradeable.sol\":11412:11419  spender */\n      dup4\n      sub(shl(0xa0, 0x01), 0x01)\n        /* \"@openzeppelin/contracts-upgradeable/token/ERC20/ERC20Upgradeable.sol\":11396:11427  Approval(owner, spender, value) */\n      and\n        /* \"@openzeppelin/contracts-upgradeable/token/ERC20/ERC20Upgradeable.sol\":11405:11410  owner */\n      dup6\n      sub(shl(0xa0, 0x01), 0x01)\n        /* \"@openzeppelin/contracts-upgradeable/token/ERC20/ERC20Upgradeable.sol\":11396:11427  Approval(owner, spender, value) */\n      and\n      0x8c5be1e5ebec7d5bd14f71427d1e84f3dd0314c0f7b2291e5b200ac8c7c3b925\n        /* \"@openzeppelin/contracts-upgradeable/token/ERC20/ERC20Upgradeable.sol\":11421:11426  value */\n      dup6\n        /* \"@openzeppelin/contracts-upgradeable/token/ERC20/ERC20Upgradeable.sol\":11396:11427  Approval(owner, spender, value) */\n      mload(0x40)\n      tag_211\n      swap2\n        /* \"#utility.yul\":1258:1283   */\n      dup2\n      mstore\n        /* \"#utility.yul\":1246:1248   */\n      0x20\n        /* \"#utility.yul\":1231:1249   */\n      add\n      swap1\n        /* \"#utility.yul\":1112:1289   */\n      jump\n        /* \"@openzeppelin/contracts-upgradeable/token/ERC20/ERC20Upgradeable.sol\":11396:11427  Approval(owner, spender, value) */\n    tag_211:\n      mload(0x40)\n      dup1\n      swap2\n      sub\n      swap1\n      log3\n        /* \"@openzeppelin/contracts-upgradeable/token/ERC20/ERC20Upgradeable.sol\":11362:11438  if (emitEvent) {... */\n    tag_210:\n        /* \"@openzeppelin/contracts-upgradeable/token/ERC20/ERC20Upgradeable.sol\":11055:11444  {... */\n      pop\n        /* \"@openzeppelin/contracts-upgradeable/token/ERC20/ERC20Upgradeable.sol\":10957:11444  function _approve(address owner, address spender, uint256 value, bool emitEvent) internal virtual {... */\n      pop\n      pop\n      pop\n      pop\n      jump\t// out\n        /* \"@openzeppelin/contracts-upgradeable/token/ERC20/ERC20Upgradeable.sol\":7201:8371  function _update(address from, address to, uint256 value) internal virtual {... */\n    tag_173:\n      mload(0x00)\n      codecopy(0x00, data_3874827173e8df9f34323b12b251d1d3c53926ce129e30a0d69f1d47c277041b, 0x20)\n      mload(0x00)\n      swap1\n      0x00\n      mstore\n      sub(shl(0xa0, 0x01), 0x01)\n        /* \"@openzeppelin/contracts-upgradeable/token/ERC20/ERC20Upgradeable.sol\":7343:7361  from == address(0) */\n      dup5\n      and\n        /* \"@openzeppelin/contracts-upgradeable/token/ERC20/ERC20Upgradeable.sol\":7339:7885  if (from == address(0)) {... */\n      tag_214\n      jumpi\n        /* \"@openzeppelin/contracts-upgradeable/token/ERC20/ERC20Upgradeable.sol\":7497:7502  value */\n      dup2\n        /* \"@openzeppelin/contracts-upgradeable/token/ERC20/ERC20Upgradeable.sol\":7479:7480  $ */\n      dup2\n        /* \"@openzeppelin/contracts-upgradeable/token/ERC20/ERC20Upgradeable.sol\":7479:7493  $._totalSupply */\n      0x02\n      add\n      0x00\n        /* \"@openzeppelin/contracts-upgradeable/token/ERC20/ERC20Upgradeable.sol\":7479:7502  $._totalSupply += value */\n      dup3\n      dup3\n      sload\n      tag_215\n      swap2\n      swap1\n      tag_216\n      jump\t// in\n    tag_215:\n      swap1\n      swap2\n      sstore\n      pop\n        /* \"@openzeppelin/contracts-upgradeable/token/ERC20/ERC20Upgradeable.sol\":7339:7885  if (from == address(0)) {... */\n      tag_217\n      swap1\n      pop\n      jump\n    tag_214:\n      sub(shl(0xa0, 0x01), 0x01)\n        /* \"@openzeppelin/contracts-upgradeable/token/ERC20/ERC20Upgradeable.sol\":7555:7572  $._balances[from] */\n      dup5\n      and\n        /* \"@openzeppelin/contracts-upgradeable/token/ERC20/ERC20Upgradeable.sol\":7533:7552  uint256 fromBalance */\n      0x00\n        /* \"@openzeppelin/contracts-upgradeable/token/ERC20/ERC20Upgradeable.sol\":7555:7572  $._balances[from] */\n      swap1\n      dup2\n      mstore\n      0x20\n      dup3\n      swap1\n      mstore\n      0x40\n      swap1\n      keccak256\n      sload\n        /* \"@openzeppelin/contracts-upgradeable/token/ERC20/ERC20Upgradeable.sol\":7590:7609  fromBalance < value */\n      dup3\n      dup2\n      lt\n        /* \"@openzeppelin/contracts-upgradeable/token/ERC20/ERC20Upgradeable.sol\":7586:7701  if (fromBalance < value) {... */\n      iszero\n      tag_218\n      jumpi\n        /* \"@openzeppelin/contracts-upgradeable/token/ERC20/ERC20Upgradeable.sol\":7636:7686  ERC20InsufficientBalance(from, fromBalance, value) */\n      mload(0x40)\n      shl(0xe2, 0x391434e3)\n      dup2\n      mstore\n      sub(shl(0xa0, 0x01), 0x01)\n        /* \"#utility.yul\":6488:6520   */\n      dup7\n      and\n        /* \"@openzeppelin/contracts-upgradeable/token/ERC20/ERC20Upgradeable.sol\":7636:7686  ERC20InsufficientBalance(from, fromBalance, value) */\n      0x04\n      dup3\n      add\n        /* \"#utility.yul\":6470:6521   */\n      mstore\n        /* \"#utility.yul\":6537:6555   */\n      0x24\n      dup2\n      add\n        /* \"#utility.yul\":6530:6564   */\n      dup3\n      swap1\n      mstore\n        /* \"#utility.yul\":6580:6598   */\n      0x44\n      dup2\n      add\n        /* \"#utility.yul\":6573:6607   */\n      dup5\n      swap1\n      mstore\n        /* \"#utility.yul\":6443:6461   */\n      0x64\n      add\n        /* \"@openzeppelin/contracts-upgradeable/token/ERC20/ERC20Upgradeable.sol\":7636:7686  ERC20InsufficientBalance(from, fromBalance, value) */\n      tag_156\n        /* \"#utility.yul\":6268:6613   */\n      jump\n        /* \"@openzeppelin/contracts-upgradeable/token/ERC20/ERC20Upgradeable.sol\":7586:7701  if (fromBalance < value) {... */\n    tag_218:\n      sub(shl(0xa0, 0x01), 0x01)\n        /* \"@openzeppelin/contracts-upgradeable/token/ERC20/ERC20Upgradeable.sol\":7821:7838  $._balances[from] */\n      dup6\n      and\n        /* \"@openzeppelin/contracts-upgradeable/token/ERC20/ERC20Upgradeable.sol\":7821:7832  $._balances */\n      0x00\n        /* \"@openzeppelin/contracts-upgradeable/token/ERC20/ERC20Upgradeable.sol\":7821:7838  $._balances[from] */\n      swap1\n      dup2\n      mstore\n      0x20\n      dup4\n      swap1\n      mstore\n      0x40\n      swap1\n      keccak256\n        /* \"@openzeppelin/contracts-upgradeable/token/ERC20/ERC20Upgradeable.sol\":7841:7860  fromBalance - value */\n      swap1\n      dup4\n      swap1\n      sub\n        /* \"@openzeppelin/contracts-upgradeable/token/ERC20/ERC20Upgradeable.sol\":7821:7860  $._balances[from] = fromBalance - value */\n      swap1\n      sstore\n        /* \"@openzeppelin/contracts-upgradeable/token/ERC20/ERC20Upgradeable.sol\":7339:7885  if (from == address(0)) {... */\n    tag_217:\n      sub(shl(0xa0, 0x01), 0x01)\n        /* \"@openzeppelin/contracts-upgradeable/token/ERC20/ERC20Upgradeable.sol\":7899:7915  to == address(0) */\n      dup4\n      and\n        /* \"@openzeppelin/contracts-upgradeable/token/ERC20/ERC20Upgradeable.sol\":7895:8324  if (to == address(0)) {... */\n      tag_220\n      jumpi\n        /* \"@openzeppelin/contracts-upgradeable/token/ERC20/ERC20Upgradeable.sol\":8062:8076  $._totalSupply */\n      0x02\n      dup2\n      add\n        /* \"@openzeppelin/contracts-upgradeable/token/ERC20/ERC20Upgradeable.sol\":8062:8085  $._totalSupply -= value */\n      dup1\n      sload\n      dup4\n      swap1\n      sub\n      swap1\n      sstore\n        /* \"@openzeppelin/contracts-upgradeable/token/ERC20/ERC20Upgradeable.sol\":7895:8324  if (to == address(0)) {... */\n      jump(tag_221)\n    tag_220:\n      sub(shl(0xa0, 0x01), 0x01)\n        /* \"@openzeppelin/contracts-upgradeable/token/ERC20/ERC20Upgradeable.sol\":8275:8290  $._balances[to] */\n      dup4\n      and\n        /* \"@openzeppelin/contracts-upgradeable/token/ERC20/ERC20Upgradeable.sol\":8275:8286  $._balances */\n      0x00\n        /* \"@openzeppelin/contracts-upgradeable/token/ERC20/ERC20Upgradeable.sol\":8275:8290  $._balances[to] */\n      swap1\n      dup2\n      mstore\n      0x20\n      dup3\n      swap1\n      mstore\n      0x40\n      swap1\n      keccak256\n        /* \"@openzeppelin/contracts-upgradeable/token/ERC20/ERC20Upgradeable.sol\":8275:8299  $._balances[to] += value */\n      dup1\n      sload\n      dup4\n      add\n      swap1\n      sstore\n        /* \"@openzeppelin/contracts-upgradeable/token/ERC20/ERC20Upgradeable.sol\":7895:8324  if (to == address(0)) {... */\n    tag_221:\n        /* \"@openzeppelin/contracts-upgradeable/token/ERC20/ERC20Upgradeable.sol\":8354:8356  to */\n      dup3\n      sub(shl(0xa0, 0x01), 0x01)\n        /* \"@openzeppelin/contracts-upgradeable/token/ERC20/ERC20Upgradeable.sol\":8339:8364  Transfer(from, to, value) */\n      and\n        /* \"@openzeppelin/contracts-upgradeable/token/ERC20/ERC20Upgradeable.sol\":8348:8352  from */\n      dup5\n      sub(shl(0xa0, 0x01), 0x01)\n        /* \"@openzeppelin/contracts-upgradeable/token/ERC20/ERC20Upgradeable.sol\":8339:8364  Transfer(from, to, value) */\n      and\n      0xddf252ad1be2c89b69c2b068fc378daa952ba7f163c4a11628f55a4df523b3ef\n        /* \"@openzeppelin/contracts-upgradeable/token/ERC20/ERC20Upgradeable.sol\":8358:8363  value */\n      dup5\n        /* \"@openzeppelin/contracts-upgradeable/token/ERC20/ERC20Upgradeable.sol\":8339:8364  Transfer(from, to, value) */\n      mload(0x40)\n      tag_222\n      swap2\n        /* \"#utility.yul\":1258:1283   */\n      dup2\n      mstore\n        /* \"#utility.yul\":1246:1248   */\n      0x20\n        /* \"#utility.yul\":1231:1249   */\n      add\n      swap1\n        /* \"#utility.yul\":1112:1289   */\n      jump\n        /* \"@openzeppelin/contracts-upgradeable/token/ERC20/ERC20Upgradeable.sol\":8339:8364  Transfer(from, to, value) */\n    tag_222:\n      mload(0x40)\n      dup1\n      swap2\n      sub\n      swap1\n      log3\n        /* \"@openzeppelin/contracts-upgradeable/token/ERC20/ERC20Upgradeable.sol\":7276:8371  {... */\n      pop\n        /* \"@openzeppelin/contracts-upgradeable/token/ERC20/ERC20Upgradeable.sol\":7201:8371  function _update(address from, address to, uint256 value) internal virtual {... */\n      pop\n      pop\n      pop\n      jump\t// out\n        /* \"@openzeppelin/contracts-upgradeable/proxy/utils/Initializable.sol\":7082:7223  function _checkInitializing() internal view virtual {... */\n    tag_192:\n        /* \"@openzeppelin/contracts-upgradeable/proxy/utils/Initializable.sol\":7149:7166  _isInitializing() */\n      tag_225\n        /* \"@openzeppelin/contracts-upgradeable/proxy/utils/Initializable.sol\":7149:7164  _isInitializing */\n      tag_226\n        /* \"@openzeppelin/contracts-upgradeable/proxy/utils/Initializable.sol\":7149:7166  _isInitializing() */\n      jump\t// in\n    tag_225:\n        /* \"@openzeppelin/contracts-upgradeable/proxy/utils/Initializable.sol\":7144:7217  if (!_isInitializing()) {... */\n      tag_93\n      jumpi\n        /* \"@openzeppelin/contracts-upgradeable/proxy/utils/Initializable.sol\":7189:7206  NotInitializing() */\n      mload(0x40)\n      shl(0xe3, 0x1afcd79f)\n      dup2\n      mstore\n      0x04\n      add\n      mload(0x40)\n      dup1\n      swap2\n      sub\n      swap1\n      revert\n        /* \"@openzeppelin/contracts-upgradeable/access/OwnableUpgradeable.sol\":1980:2215  function __Ownable_init_unchained(address initialOwner) internal onlyInitializing {... */\n    tag_195:\n        /* \"@openzeppelin/contracts-upgradeable/proxy/utils/Initializable.sol\":6929:6949  _checkInitializing() */\n      tag_153\n        /* \"@openzeppelin/contracts-upgradeable/proxy/utils/Initializable.sol\":6929:6947  _checkInitializing */\n      tag_192\n        /* \"@openzeppelin/contracts-upgradeable/proxy/utils/Initializable.sol\":6929:6949  _checkInitializing() */\n      jump\t// in\n        /* \"@openzeppelin/contracts-upgradeable/token/ERC20/ERC20Upgradeable.sol\":2416:2632  function __ERC20_init_unchained(string memory name_, string memory symbol_) internal onlyInitializing {... */\n    tag_200:\n        /* \"@openzeppelin/contracts-upgradeable/proxy/utils/Initializable.sol\":6929:6949  _checkInitializing() */\n      tag_235\n        /* \"@openzeppelin/contracts-upgradeable/proxy/utils/Initializable.sol\":6929:6947  _checkInitializing */\n      tag_192\n        /* \"@openzeppelin/contracts-upgradeable/proxy/utils/Initializable.sol\":6929:6949  _checkInitializing() */\n      jump\t// in\n    tag_235:\n      mload(0x00)\n      codecopy(0x00, data_3874827173e8df9f34323b12b251d1d3c53926ce129e30a0d69f1d47c277041b, 0x20)\n      mload(0x00)\n      swap1\n      0x00\n      mstore\n        /* \"@openzeppelin/contracts-upgradeable/token/ERC20/ERC20Upgradeable.sol\":2581:2588  $._name */\n      0x52c63247e1f47db19d5ce0460030c497f067ca4cebf71ba98eeadabe20bace03\n        /* \"@openzeppelin/contracts-upgradeable/token/ERC20/ERC20Upgradeable.sol\":2581:2596  $._name = name_ */\n      tag_238\n        /* \"@openzeppelin/contracts-upgradeable/token/ERC20/ERC20Upgradeable.sol\":2591:2596  name_ */\n      dup5\n        /* \"@openzeppelin/contracts-upgradeable/token/ERC20/ERC20Upgradeable.sol\":2581:2588  $._name */\n      dup3\n        /* \"@openzeppelin/contracts-upgradeable/token/ERC20/ERC20Upgradeable.sol\":2581:2596  $._name = name_ */\n      tag_239\n      jump\t// in\n    tag_238:\n      pop\n        /* \"@openzeppelin/contracts-upgradeable/token/ERC20/ERC20Upgradeable.sol\":2606:2615  $._symbol */\n      0x04\n      dup2\n      add\n        /* \"@openzeppelin/contracts-upgradeable/token/ERC20/ERC20Upgradeable.sol\":2606:2625  $._symbol = symbol_ */\n      tag_180\n        /* \"@openzeppelin/contracts-upgradeable/token/ERC20/ERC20Upgradeable.sol\":2618:2625  symbol_ */\n      dup4\n        /* \"@openzeppelin/contracts-upgradeable/token/ERC20/ERC20Upgradeable.sol\":2606:2615  $._symbol */\n      dup3\n        /* \"@openzeppelin/contracts-upgradeable/token/ERC20/ERC20Upgradeable.sol\":2606:2625  $._symbol = symbol_ */\n      tag_239\n      jump\t// in\n        /* \"@openzeppelin/contracts-upgradeable/proxy/utils/Initializable.sol\":8485:8605  function _isInitializing() internal view returns (bool) {... */\n    tag_226:\n        /* \"@openzeppelin/contracts-upgradeable/proxy/utils/Initializable.sol\":8535:8539  bool */\n      0x00\n        /* \"@openzeppelin/contracts-upgradeable/proxy/utils/Initializable.sol\":8558:8584  _getInitializableStorage() */\n      tag_242\n        /* \"@openzeppelin/contracts-upgradeable/proxy/utils/Initializable.sol\":8558:8582  _getInitializableStorage */\n      tag_112\n        /* \"@openzeppelin/contracts-upgradeable/proxy/utils/Initializable.sol\":8558:8584  _getInitializableStorage() */\n      jump\t// in\n    tag_242:\n        /* \"@openzeppelin/contracts-upgradeable/proxy/utils/Initializable.sol\":8558:8598  _getInitializableStorage()._initializing */\n      sload\n      shl(0x40, 0x01)\n      swap1\n      div\n      0xff\n      and\n      swap2\n      swap1\n      pop\n        /* \"@openzeppelin/contracts-upgradeable/proxy/utils/Initializable.sol\":8485:8605  function _isInitializing() internal view returns (bool) {... */\n      jump\t// out\n        /* \"#utility.yul\":14:432   */\n    tag_23:\n        /* \"#utility.yul\":163:165   */\n      0x20\n        /* \"#utility.yul\":152:161   */\n      dup2\n        /* \"#utility.yul\":145:166   */\n      mstore\n        /* \"#utility.yul\":126:130   */\n      0x00\n        /* \"#utility.yul\":195:201   */\n      dup3\n        /* \"#utility.yul\":189:202   */\n      mload\n        /* \"#utility.yul\":238:244   */\n      dup1\n        /* \"#utility.yul\":233:235   */\n      0x20\n        /* \"#utility.yul\":222:231   */\n      dup5\n        /* \"#utility.yul\":218:236   */\n      add\n        /* \"#utility.yul\":211:245   */\n      mstore\n        /* \"#utility.yul\":297:303   */\n      dup1\n        /* \"#utility.yul\":292:294   */\n      0x20\n        /* \"#utility.yul\":284:290   */\n      dup6\n        /* \"#utility.yul\":280:295   */\n      add\n        /* \"#utility.yul\":275:277   */\n      0x40\n        /* \"#utility.yul\":264:273   */\n      dup6\n        /* \"#utility.yul\":260:278   */\n      add\n        /* \"#utility.yul\":254:304   */\n      mcopy\n        /* \"#utility.yul\":353:354   */\n      0x00\n        /* \"#utility.yul\":348:350   */\n      0x40\n        /* \"#utility.yul\":339:345   */\n      dup3\n        /* \"#utility.yul\":328:337   */\n      dup6\n        /* \"#utility.yul\":324:346   */\n      add\n        /* \"#utility.yul\":320:351   */\n      add\n        /* \"#utility.yul\":313:355   */\n      mstore\n        /* \"#utility.yul\":423:425   */\n      0x40\n        /* \"#utility.yul\":416:418   */\n      0x1f\n        /* \"#utility.yul\":412:419   */\n      not\n        /* \"#utility.yul\":407:409   */\n      0x1f\n        /* \"#utility.yul\":399:405   */\n      dup4\n        /* \"#utility.yul\":395:410   */\n      add\n        /* \"#utility.yul\":391:420   */\n      and\n        /* \"#utility.yul\":380:389   */\n      dup5\n        /* \"#utility.yul\":376:421   */\n      add\n        /* \"#utility.yul\":372:426   */\n      add\n        /* \"#utility.yul\":364:426   */\n      swap2\n      pop\n      pop\n        /* \"#utility.yul\":14:432   */\n      swap3\n      swap2\n      pop\n      pop\n      jump\t// out\n        /* \"#utility.yul\":437:610   */\n    tag_243:\n        /* \"#utility.yul\":505:525   */\n      dup1\n      calldataload\n      sub(shl(0xa0, 0x01), 0x01)\n        /* \"#utility.yul\":554:585   */\n      dup2\n      and\n        /* \"#utility.yul\":544:586   */\n      dup2\n      eq\n        /* \"#utility.yul\":534:604   */\n      tag_255\n      jumpi\n        /* \"#utility.yul\":600:601   */\n      0x00\n        /* \"#utility.yul\":597:598   */\n      0x00\n        /* \"#utility.yul\":590:602   */\n      revert\n        /* \"#utility.yul\":534:604   */\n    tag_255:\n        /* \"#utility.yul\":437:610   */\n      swap2\n      swap1\n      pop\n      jump\t// out\n        /* \"#utility.yul\":615:915   */\n    tag_26:\n        /* \"#utility.yul\":683:689   */\n      0x00\n        /* \"#utility.yul\":691:697   */\n      0x00\n        /* \"#utility.yul\":744:746   */\n      0x40\n        /* \"#utility.yul\":732:741   */\n      dup4\n        /* \"#utility.yul\":723:730   */\n      dup6\n        /* \"#utility.yul\":719:742   */\n      sub\n        /* \"#utility.yul\":715:747   */\n      slt\n        /* \"#utility.yul\":712:764   */\n      iszero\n      tag_257\n      jumpi\n        /* \"#utility.yul\":760:761   */\n      0x00\n        /* \"#utility.yul\":757:758   */\n      0x00\n        /* \"#utility.yul\":750:762   */\n      revert\n        /* \"#utility.yul\":712:764   */\n    tag_257:\n        /* \"#utility.yul\":783:812   */\n      tag_258\n        /* \"#utility.yul\":802:811   */\n      dup4\n        /* \"#utility.yul\":783:812   */\n      tag_243\n      jump\t// in\n    tag_258:\n        /* \"#utility.yul\":773:812   */\n      swap5\n        /* \"#utility.yul\":881:883   */\n      0x20\n        /* \"#utility.yul\":866:884   */\n      swap4\n      swap1\n      swap4\n      add\n        /* \"#utility.yul\":853:885   */\n      calldataload\n      swap4\n      pop\n      pop\n      pop\n        /* \"#utility.yul\":615:915   */\n      jump\t// out\n        /* \"#utility.yul\":1294:1668   */\n    tag_38:\n        /* \"#utility.yul\":1371:1377   */\n      0x00\n        /* \"#utility.yul\":1379:1385   */\n      0x00\n        /* \"#utility.yul\":1387:1393   */\n      0x00\n        /* \"#utility.yul\":1440:1442   */\n      0x60\n        /* \"#utility.yul\":1428:1437   */\n      dup5\n        /* \"#utility.yul\":1419:1426   */\n      dup7\n        /* \"#utility.yul\":1415:1438   */\n      sub\n        /* \"#utility.yul\":1411:1443   */\n      slt\n        /* \"#utility.yul\":1408:1460   */\n      iszero\n      tag_262\n      jumpi\n        /* \"#utility.yul\":1456:1457   */\n      0x00\n        /* \"#utility.yul\":1453:1454   */\n      0x00\n        /* \"#utility.yul\":1446:1458   */\n      revert\n        /* \"#utility.yul\":1408:1460   */\n    tag_262:\n        /* \"#utility.yul\":1479:1508   */\n      tag_263\n        /* \"#utility.yul\":1498:1507   */\n      dup5\n        /* \"#utility.yul\":1479:1508   */\n      tag_243\n      jump\t// in\n    tag_263:\n        /* \"#utility.yul\":1469:1508   */\n      swap3\n      pop\n        /* \"#utility.yul\":1527:1565   */\n      tag_264\n        /* \"#utility.yul\":1561:1563   */\n      0x20\n        /* \"#utility.yul\":1550:1559   */\n      dup6\n        /* \"#utility.yul\":1546:1564   */\n      add\n        /* \"#utility.yul\":1527:1565   */\n      tag_243\n      jump\t// in\n    tag_264:\n        /* \"#utility.yul\":1294:1668   */\n      swap3\n      swap6\n        /* \"#utility.yul\":1517:1565   */\n      swap3\n      swap5\n      pop\n      pop\n      pop\n        /* \"#utility.yul\":1634:1636   */\n      0x40\n        /* \"#utility.yul\":1619:1637   */\n      swap2\n      swap1\n      swap2\n      add\n        /* \"#utility.yul\":1606:1638   */\n      calldataload\n      swap1\n        /* \"#utility.yul\":1294:1668   */\n      jump\t// out\n        /* \"#utility.yul\":1862:1989   */\n    tag_244:\n        /* \"#utility.yul\":1923:1933   */\n      0x4e487b71\n        /* \"#utility.yul\":1918:1921   */\n      0xe0\n        /* \"#utility.yul\":1914:1934   */\n      shl\n        /* \"#utility.yul\":1911:1912   */\n      0x00\n        /* \"#utility.yul\":1904:1935   */\n      mstore\n        /* \"#utility.yul\":1954:1958   */\n      0x41\n        /* \"#utility.yul\":1951:1952   */\n      0x04\n        /* \"#utility.yul\":1944:1959   */\n      mstore\n        /* \"#utility.yul\":1978:1982   */\n      0x24\n        /* \"#utility.yul\":1975:1976   */\n      0x00\n        /* \"#utility.yul\":1968:1983   */\n      revert\n        /* \"#utility.yul\":1994:2720   */\n    tag_245:\n        /* \"#utility.yul\":2037:2042   */\n      0x00\n        /* \"#utility.yul\":2090:2093   */\n      dup3\n        /* \"#utility.yul\":2083:2087   */\n      0x1f\n        /* \"#utility.yul\":2075:2081   */\n      dup4\n        /* \"#utility.yul\":2071:2088   */\n      add\n        /* \"#utility.yul\":2067:2094   */\n      slt\n        /* \"#utility.yul\":2057:2112   */\n      tag_268\n      jumpi\n        /* \"#utility.yul\":2108:2109   */\n      0x00\n        /* \"#utility.yul\":2105:2106   */\n      0x00\n        /* \"#utility.yul\":2098:2110   */\n      revert\n        /* \"#utility.yul\":2057:2112   */\n    tag_268:\n        /* \"#utility.yul\":2148:2154   */\n      dup2\n        /* \"#utility.yul\":2135:2155   */\n      calldataload\n        /* \"#utility.yul\":2178:2196   */\n      0xffffffffffffffff\n        /* \"#utility.yul\":2170:2176   */\n      dup2\n        /* \"#utility.yul\":2167:2197   */\n      gt\n        /* \"#utility.yul\":2164:2220   */\n      iszero\n      tag_270\n      jumpi\n        /* \"#utility.yul\":2200:2218   */\n      tag_270\n      tag_244\n      jump\t// in\n    tag_270:\n        /* \"#utility.yul\":2249:2251   */\n      0x40\n        /* \"#utility.yul\":2243:2252   */\n      mload\n        /* \"#utility.yul\":2341:2343   */\n      0x1f\n        /* \"#utility.yul\":2303:2320   */\n      dup3\n      add\n      not(0x1f)\n        /* \"#utility.yul\":2299:2330   */\n      swap1\n      dup2\n      and\n        /* \"#utility.yul\":2332:2334   */\n      0x3f\n        /* \"#utility.yul\":2295:2335   */\n      add\n        /* \"#utility.yul\":2291:2345   */\n      and\n        /* \"#utility.yul\":2279:2346   */\n      dup2\n      add\n        /* \"#utility.yul\":2376:2394   */\n      0xffffffffffffffff\n        /* \"#utility.yul\":2361:2395   */\n      dup2\n      gt\n        /* \"#utility.yul\":2397:2419   */\n      dup3\n      dup3\n      lt\n        /* \"#utility.yul\":2358:2420   */\n      or\n        /* \"#utility.yul\":2355:2443   */\n      iszero\n      tag_272\n      jumpi\n        /* \"#utility.yul\":2423:2441   */\n      tag_272\n      tag_244\n      jump\t// in\n    tag_272:\n        /* \"#utility.yul\":2459:2461   */\n      0x40\n        /* \"#utility.yul\":2452:2474   */\n      mstore\n        /* \"#utility.yul\":2483:2505   */\n      dup2\n      dup2\n      mstore\n        /* \"#utility.yul\":2524:2543   */\n      dup4\n      dup3\n      add\n        /* \"#utility.yul\":2545:2549   */\n      0x20\n        /* \"#utility.yul\":2520:2550   */\n      add\n        /* \"#utility.yul\":2517:2556   */\n      dup6\n      lt\n        /* \"#utility.yul\":2514:2573   */\n      iszero\n      tag_273\n      jumpi\n        /* \"#utility.yul\":2569:2570   */\n      0x00\n        /* \"#utility.yul\":2566:2567   */\n      0x00\n        /* \"#utility.yul\":2559:2571   */\n      revert\n        /* \"#utility.yul\":2514:2573   */\n    tag_273:\n        /* \"#utility.yul\":2633:2639   */\n      dup2\n        /* \"#utility.yul\":2626:2630   */\n      0x20\n        /* \"#utility.yul\":2618:2624   */\n      dup6\n        /* \"#utility.yul\":2614:2631   */\n      add\n        /* \"#utility.yul\":2607:2611   */\n      0x20\n        /* \"#utility.yul\":2599:2605   */\n      dup4\n        /* \"#utility.yul\":2595:2612   */\n      add\n        /* \"#utility.yul\":2582:2640   */\n      calldatacopy\n        /* \"#utility.yul\":2688:2689   */\n      0x00\n        /* \"#utility.yul\":2660:2679   */\n      swap2\n      dup2\n      add\n        /* \"#utility.yul\":2681:2685   */\n      0x20\n        /* \"#utility.yul\":2656:2686   */\n      add\n        /* \"#utility.yul\":2649:2690   */\n      swap2\n      swap1\n      swap2\n      mstore\n        /* \"#utility.yul\":2664:2670   */\n      swap4\n        /* \"#utility.yul\":1994:2720   */\n      swap3\n      pop\n      pop\n      pop\n      jump\t// out\n        /* \"#utility.yul\":2725:3263   */\n    tag_47:\n        /* \"#utility.yul\":2813:2819   */\n      0x00\n        /* \"#utility.yul\":2821:2827   */\n      0x00\n        /* \"#utility.yul\":2874:2876   */\n      0x40\n        /* \"#utility.yul\":2862:2871   */\n      dup4\n        /* \"#utility.yul\":2853:2860   */\n      dup6\n        /* \"#utility.yul\":2849:2872   */\n      sub\n        /* \"#utility.yul\":2845:2877   */\n      slt\n        /* \"#utility.yul\":2842:2894   */\n      iszero\n      tag_275\n      jumpi\n        /* \"#utility.yul\":2890:2891   */\n      0x00\n        /* \"#utility.yul\":2887:2888   */\n      0x00\n        /* \"#utility.yul\":2880:2892   */\n      revert\n        /* \"#utility.yul\":2842:2894   */\n    tag_275:\n        /* \"#utility.yul\":2930:2939   */\n      dup3\n        /* \"#utility.yul\":2917:2940   */\n      calldataload\n        /* \"#utility.yul\":2963:2981   */\n      0xffffffffffffffff\n        /* \"#utility.yul\":2955:2961   */\n      dup2\n        /* \"#utility.yul\":2952:2982   */\n      gt\n        /* \"#utility.yul\":2949:2999   */\n      iszero\n      tag_276\n      jumpi\n        /* \"#utility.yul\":2995:2996   */\n      0x00\n        /* \"#utility.yul\":2992:2993   */\n      0x00\n        /* \"#utility.yul\":2985:2997   */\n      revert\n        /* \"#utility.yul\":2949:2999   */\n    tag_276:\n        /* \"#utility.yul\":3018:3068   */\n      tag_277\n        /* \"#utility.yul\":3060:3067   */\n      dup6\n        /* \"#utility.yul\":3051:3057   */\n      dup3\n        /* \"#utility.yul\":3040:3049   */\n      dup7\n        /* \"#utility.yul\":3036:3058   */\n      add\n        /* \"#utility.yul\":3018:3068   */\n      tag_245\n      jump\t// in\n    tag_277:\n        /* \"#utility.yul\":3008:3068   */\n      swap3\n      pop\n      pop\n        /* \"#utility.yul\":3121:3123   */\n      0x20\n        /* \"#utility.yul\":3110:3119   */\n      dup4\n        /* \"#utility.yul\":3106:3124   */\n      add\n        /* \"#utility.yul\":3093:3125   */\n      calldataload\n        /* \"#utility.yul\":3150:3168   */\n      0xffffffffffffffff\n        /* \"#utility.yul\":3140:3148   */\n      dup2\n        /* \"#utility.yul\":3137:3169   */\n      gt\n        /* \"#utility.yul\":3134:3186   */\n      iszero\n      tag_278\n      jumpi\n        /* \"#utility.yul\":3182:3183   */\n      0x00\n        /* \"#utility.yul\":3179:3180   */\n      0x00\n        /* \"#utility.yul\":3172:3184   */\n      revert\n        /* \"#utility.yul\":3134:3186   */\n    tag_278:\n        /* \"#utility.yul\":3205:3257   */\n      tag_279\n        /* \"#utility.yul\":3249:3256   */\n      dup6\n        /* \"#utility.yul\":3238:3246   */\n      dup3\n        /* \"#utility.yul\":3227:3236   */\n      dup7\n        /* \"#utility.yul\":3223:3247   */\n      add\n        /* \"#utility.yul\":3205:3257   */\n      tag_245\n      jump\t// in\n    tag_279:\n        /* \"#utility.yul\":3195:3257   */\n      swap2\n      pop\n      pop\n        /* \"#utility.yul\":2725:3263   */\n      swap3\n      pop\n      swap3\n      swap1\n      pop\n      jump\t// out\n        /* \"#utility.yul\":3268:3454   */\n    tag_51:\n        /* \"#utility.yul\":3327:3333   */\n      0x00\n        /* \"#utility.yul\":3380:3382   */\n      0x20\n        /* \"#utility.yul\":3368:3377   */\n      dup3\n        /* \"#utility.yul\":3359:3366   */\n      dup5\n        /* \"#utility.yul\":3355:3378   */\n      sub\n        /* \"#utility.yul\":3351:3383   */\n      slt\n        /* \"#utility.yul\":3348:3400   */\n      iszero\n      tag_281\n      jumpi\n        /* \"#utility.yul\":3396:3397   */\n      0x00\n        /* \"#utility.yul\":3393:3394   */\n      0x00\n        /* \"#utility.yul\":3386:3398   */\n      revert\n        /* \"#utility.yul\":3348:3400   */\n    tag_281:\n        /* \"#utility.yul\":3419:3448   */\n      tag_282\n        /* \"#utility.yul\":3438:3447   */\n      dup3\n        /* \"#utility.yul\":3419:3448   */\n      tag_243\n      jump\t// in\n    tag_282:\n        /* \"#utility.yul\":3409:3448   */\n      swap4\n        /* \"#utility.yul\":3268:3454   */\n      swap3\n      pop\n      pop\n      pop\n      jump\t// out\n        /* \"#utility.yul\":3667:3927   */\n    tag_69:\n        /* \"#utility.yul\":3735:3741   */\n      0x00\n        /* \"#utility.yul\":3743:3749   */\n      0x00\n        /* \"#utility.yul\":3796:3798   */\n      0x40\n        /* \"#utility.yul\":3784:3793   */\n      dup4\n        /* \"#utility.yul\":3775:3782   */\n      dup6\n        /* \"#utility.yul\":3771:3794   */\n      sub\n        /* \"#utility.yul\":3767:3799   */\n      slt\n        /* \"#utility.yul\":3764:3816   */\n      iszero\n      tag_285\n      jumpi\n        /* \"#utility.yul\":3812:3813   */\n      0x00\n        /* \"#utility.yul\":3809:3810   */\n      0x00\n        /* \"#utility.yul\":3802:3814   */\n      revert\n        /* \"#utility.yul\":3764:3816   */\n    tag_285:\n        /* \"#utility.yul\":3835:3864   */\n      tag_286\n        /* \"#utility.yul\":3854:3863   */\n      dup4\n        /* \"#utility.yul\":3835:3864   */\n      tag_243\n      jump\t// in\n    tag_286:\n        /* \"#utility.yul\":3825:3864   */\n      swap2\n      pop\n        /* \"#utility.yul\":3883:3921   */\n      tag_287\n        /* \"#utility.yul\":3917:3919   */\n      0x20\n        /* \"#utility.yul\":3906:3915   */\n      dup5\n        /* \"#utility.yul\":3902:3920   */\n      add\n        /* \"#utility.yul\":3883:3921   */\n      tag_243\n      jump\t// in\n    tag_287:\n        /* \"#utility.yul\":3873:3921   */\n      swap1\n      pop\n        /* \"#utility.yul\":3667:3927   */\n      swap3\n      pop\n      swap3\n      swap1\n      pop\n      jump\t// out\n        /* \"#utility.yul\":3932:4312   */\n    tag_79:\n        /* \"#utility.yul\":4011:4012   */\n      0x01\n        /* \"#utility.yul\":4007:4019   */\n      dup2\n      dup2\n      shr\n      swap1\n        /* \"#utility.yul\":4054:4066   */\n      dup3\n      and\n      dup1\n        /* \"#utility.yul\":4075:4136   */\n      tag_289\n      jumpi\n        /* \"#utility.yul\":4129:4133   */\n      0x7f\n        /* \"#utility.yul\":4121:4127   */\n      dup3\n        /* \"#utility.yul\":4117:4134   */\n      and\n        /* \"#utility.yul\":4107:4134   */\n      swap2\n      pop\n        /* \"#utility.yul\":4075:4136   */\n    tag_289:\n        /* \"#utility.yul\":4182:4184   */\n      0x20\n        /* \"#utility.yul\":4174:4180   */\n      dup3\n        /* \"#utility.yul\":4171:4185   */\n      lt\n        /* \"#utility.yul\":4151:4169   */\n      dup2\n        /* \"#utility.yul\":4148:4186   */\n      sub\n        /* \"#utility.yul\":4145:4306   */\n      tag_290\n      jumpi\n        /* \"#utility.yul\":4228:4238   */\n      0x4e487b71\n        /* \"#utility.yul\":4223:4226   */\n      0xe0\n        /* \"#utility.yul\":4219:4239   */\n      shl\n        /* \"#utility.yul\":4216:4217   */\n      0x00\n        /* \"#utility.yul\":4209:4240   */\n      mstore\n        /* \"#utility.yul\":4263:4267   */\n      0x22\n        /* \"#utility.yul\":4260:4261   */\n      0x04\n        /* \"#utility.yul\":4253:4268   */\n      mstore\n        /* \"#utility.yul\":4291:4295   */\n      0x24\n        /* \"#utility.yul\":4288:4289   */\n      0x00\n        /* \"#utility.yul\":4281:4296   */\n      revert\n        /* \"#utility.yul\":4145:4306   */\n    tag_290:\n      pop\n        /* \"#utility.yul\":3932:4312   */\n      swap2\n      swap1\n      pop\n      jump\t// out\n        /* \"#utility.yul\":4317:4444   */\n    tag_246:\n        /* \"#utility.yul\":4378:4388   */\n      0x4e487b71\n        /* \"#utility.yul\":4373:4376   */\n      0xe0\n        /* \"#utility.yul\":4369:4389   */\n      shl\n        /* \"#utility.yul\":4366:4367   */\n      0x00\n        /* \"#utility.yul\":4359:4390   */\n      mstore\n        /* \"#utility.yul\":4409:4413   */\n      0x11\n        /* \"#utility.yul\":4406:4407   */\n      0x04\n        /* \"#utility.yul\":4399:4414   */\n      mstore\n        /* \"#utility.yul\":4433:4437   */\n      0x24\n        /* \"#utility.yul\":4430:4431   */\n      0x00\n        /* \"#utility.yul\":4423:4438   */\n      revert\n        /* \"#utility.yul\":4449:4824   */\n    tag_247:\n        /* \"#utility.yul\":4537:4538   */\n      0x01\n        /* \"#utility.yul\":4555:4560   */\n      dup2\n        /* \"#utility.yul\":4569:4818   */\n    tag_293:\n        /* \"#utility.yul\":4590:4591   */\n      0x01\n        /* \"#utility.yul\":4580:4588   */\n      dup5\n        /* \"#utility.yul\":4577:4592   */\n      gt\n        /* \"#utility.yul\":4569:4818   */\n      iszero\n      tag_295\n      jumpi\n        /* \"#utility.yul\":4640:4644   */\n      dup1\n        /* \"#utility.yul\":4635:4638   */\n      dup6\n        /* \"#utility.yul\":4631:4645   */\n      div\n        /* \"#utility.yul\":4625:4629   */\n      dup2\n        /* \"#utility.yul\":4622:4646   */\n      gt\n        /* \"#utility.yul\":4619:4669   */\n      iszero\n      tag_297\n      jumpi\n        /* \"#utility.yul\":4649:4667   */\n      tag_297\n      tag_246\n      jump\t// in\n    tag_297:\n        /* \"#utility.yul\":4699:4700   */\n      0x01\n        /* \"#utility.yul\":4689:4697   */\n      dup5\n        /* \"#utility.yul\":4685:4701   */\n      and\n        /* \"#utility.yul\":4682:4731   */\n      iszero\n      tag_298\n      jumpi\n        /* \"#utility.yul\":4713:4729   */\n      swap1\n      dup2\n      mul\n      swap1\n        /* \"#utility.yul\":4682:4731   */\n    tag_298:\n        /* \"#utility.yul\":4796:4797   */\n      0x01\n        /* \"#utility.yul\":4792:4808   */\n      swap4\n      swap1\n      swap4\n      shr\n      swap3\n        /* \"#utility.yul\":4752:4767   */\n      dup1\n      mul\n        /* \"#utility.yul\":4569:4818   */\n      jump(tag_293)\n    tag_295:\n        /* \"#utility.yul\":4449:4824   */\n      swap4\n      pop\n      swap4\n      swap2\n      pop\n      pop\n      jump\t// out\n        /* \"#utility.yul\":4829:5731   */\n    tag_248:\n        /* \"#utility.yul\":4878:4883   */\n      0x00\n        /* \"#utility.yul\":4908:4916   */\n      dup3\n        /* \"#utility.yul\":4898:4978   */\n      tag_300\n      jumpi\n      pop\n        /* \"#utility.yul\":4949:4950   */\n      0x01\n        /* \"#utility.yul\":4963:4968   */\n      jump(tag_84)\n        /* \"#utility.yul\":4898:4978   */\n    tag_300:\n        /* \"#utility.yul\":4997:5001   */\n      dup2\n        /* \"#utility.yul\":4987:5063   */\n      tag_301\n      jumpi\n      pop\n        /* \"#utility.yul\":5034:5035   */\n      0x00\n        /* \"#utility.yul\":5048:5053   */\n      jump(tag_84)\n        /* \"#utility.yul\":4987:5063   */\n    tag_301:\n        /* \"#utility.yul\":5079:5083   */\n      dup2\n        /* \"#utility.yul\":5097:5098   */\n      0x01\n        /* \"#utility.yul\":5092:5151   */\n      dup2\n      eq\n      tag_303\n      jumpi\n        /* \"#utility.yul\":5165:5166   */\n      0x02\n        /* \"#utility.yul\":5160:5334   */\n      dup2\n      eq\n      tag_304\n      jumpi\n        /* \"#utility.yul\":5072:5334   */\n      jump(tag_302)\n        /* \"#utility.yul\":5092:5151   */\n    tag_303:\n        /* \"#utility.yul\":5122:5123   */\n      0x01\n        /* \"#utility.yul\":5113:5123   */\n      swap2\n      pop\n        /* \"#utility.yul\":5136:5141   */\n      pop\n      jump(tag_84)\n        /* \"#utility.yul\":5160:5334   */\n    tag_304:\n        /* \"#utility.yul\":5197:5200   */\n      0xff\n        /* \"#utility.yul\":5187:5195   */\n      dup5\n        /* \"#utility.yul\":5184:5201   */\n      gt\n        /* \"#utility.yul\":5181:5224   */\n      iszero\n      tag_306\n      jumpi\n        /* \"#utility.yul\":5204:5222   */\n      tag_306\n      tag_246\n      jump\t// in\n    tag_306:\n      pop\n      pop\n        /* \"#utility.yul\":5260:5261   */\n      0x01\n        /* \"#utility.yul\":5246:5262   */\n      dup3\n      shl\n        /* \"#utility.yul\":5319:5324   */\n      jump(tag_84)\n        /* \"#utility.yul\":5072:5334   */\n    tag_302:\n      pop\n        /* \"#utility.yul\":5418:5420   */\n      0x20\n        /* \"#utility.yul\":5408:5416   */\n      dup4\n        /* \"#utility.yul\":5405:5421   */\n      lt\n        /* \"#utility.yul\":5399:5402   */\n      0x0133\n        /* \"#utility.yul\":5393:5397   */\n      dup4\n        /* \"#utility.yul\":5390:5403   */\n      lt\n        /* \"#utility.yul\":5386:5422   */\n      and\n        /* \"#utility.yul\":5380:5382   */\n      0x4e\n        /* \"#utility.yul\":5370:5378   */\n      dup5\n        /* \"#utility.yul\":5367:5383   */\n      lt\n        /* \"#utility.yul\":5362:5364   */\n      0x0b\n        /* \"#utility.yul\":5356:5360   */\n      dup5\n        /* \"#utility.yul\":5353:5365   */\n      lt\n        /* \"#utility.yul\":5349:5384   */\n      and\n        /* \"#utility.yul\":5346:5423   */\n      or\n        /* \"#utility.yul\":5343:5546   */\n      iszero\n      tag_307\n      jumpi\n      pop\n        /* \"#utility.yul\":5455:5474   */\n      dup2\n      dup2\n      exp\n        /* \"#utility.yul\":5531:5536   */\n      jump(tag_84)\n        /* \"#utility.yul\":5343:5546   */\n    tag_307:\n        /* \"#utility.yul\":5578:5620   */\n      tag_308\n      not(0x00)\n        /* \"#utility.yul\":5603:5611   */\n      dup5\n        /* \"#utility.yul\":5597:5601   */\n      dup5\n        /* \"#utility.yul\":5578:5620   */\n      tag_247\n      jump\t// in\n    tag_308:\n        /* \"#utility.yul\":5656:5662   */\n      dup1\n        /* \"#utility.yul\":5652:5653   */\n      0x00\n        /* \"#utility.yul\":5648:5654   */\n      not\n        /* \"#utility.yul\":5644:5663   */\n      div\n        /* \"#utility.yul\":5635:5642   */\n      dup3\n        /* \"#utility.yul\":5632:5664   */\n      gt\n        /* \"#utility.yul\":5629:5687   */\n      iszero\n      tag_310\n      jumpi\n        /* \"#utility.yul\":5667:5685   */\n      tag_310\n      tag_246\n      jump\t// in\n    tag_310:\n        /* \"#utility.yul\":5705:5725   */\n      mul\n      swap4\n        /* \"#utility.yul\":4829:5731   */\n      swap3\n      pop\n      pop\n      pop\n      jump\t// out\n        /* \"#utility.yul\":5736:5876   */\n    tag_97:\n        /* \"#utility.yul\":5794:5799   */\n      0x00\n        /* \"#utility.yul\":5823:5870   */\n      tag_282\n        /* \"#utility.yul\":5864:5868   */\n      0xff\n        /* \"#utility.yul\":5854:5862   */\n      dup5\n        /* \"#utility.yul\":5850:5869   */\n      and\n        /* \"#utility.yul\":5844:5848   */\n      dup4\n        /* \"#utility.yul\":5823:5870   */\n      tag_248\n      jump\t// in\n        /* \"#utility.yul\":5881:6049   */\n    tag_99:\n        /* \"#utility.yul\":5954:5963   */\n      dup1\n      dup3\n      mul\n        /* \"#utility.yul\":5985:5994   */\n      dup2\n      iszero\n        /* \"#utility.yul\":6002:6017   */\n      dup3\n      dup3\n      div\n        /* \"#utility.yul\":5996:6018   */\n      dup5\n      eq\n        /* \"#utility.yul\":5982:6019   */\n      or\n        /* \"#utility.yul\":5972:6043   */\n      tag_84\n      jumpi\n        /* \"#utility.yul\":6023:6041   */\n      tag_84\n      tag_246\n      jump\t// in\n        /* \"#utility.yul\":6618:6743   */\n    tag_216:\n        /* \"#utility.yul\":6683:6692   */\n      dup1\n      dup3\n      add\n        /* \"#utility.yul\":6704:6714   */\n      dup1\n      dup3\n      gt\n        /* \"#utility.yul\":6701:6737   */\n      iszero\n      tag_84\n      jumpi\n        /* \"#utility.yul\":6717:6735   */\n      tag_84\n      tag_246\n      jump\t// in\n        /* \"#utility.yul\":6874:7392   */\n    tag_250:\n        /* \"#utility.yul\":6976:6978   */\n      0x1f\n        /* \"#utility.yul\":6971:6974   */\n      dup3\n        /* \"#utility.yul\":6968:6979   */\n      gt\n        /* \"#utility.yul\":6965:7386   */\n      iszero\n      tag_161\n      jumpi\n        /* \"#utility.yul\":7012:7017   */\n      dup1\n        /* \"#utility.yul\":7009:7010   */\n      0x00\n        /* \"#utility.yul\":7002:7018   */\n      mstore\n        /* \"#utility.yul\":7056:7060   */\n      0x20\n        /* \"#utility.yul\":7053:7054   */\n      0x00\n        /* \"#utility.yul\":7043:7061   */\n      keccak256\n        /* \"#utility.yul\":7126:7128   */\n      0x1f\n        /* \"#utility.yul\":7114:7124   */\n      dup5\n        /* \"#utility.yul\":7110:7129   */\n      add\n        /* \"#utility.yul\":7107:7108   */\n      0x05\n        /* \"#utility.yul\":7103:7130   */\n      shr\n        /* \"#utility.yul\":7097:7101   */\n      dup2\n        /* \"#utility.yul\":7093:7131   */\n      add\n        /* \"#utility.yul\":7162:7166   */\n      0x20\n        /* \"#utility.yul\":7150:7160   */\n      dup6\n        /* \"#utility.yul\":7147:7167   */\n      lt\n        /* \"#utility.yul\":7144:7191   */\n      iszero\n      tag_324\n      jumpi\n      pop\n        /* \"#utility.yul\":7185:7189   */\n      dup1\n        /* \"#utility.yul\":7144:7191   */\n    tag_324:\n        /* \"#utility.yul\":7240:7242   */\n      0x1f\n        /* \"#utility.yul\":7235:7238   */\n      dup5\n        /* \"#utility.yul\":7231:7243   */\n      add\n        /* \"#utility.yul\":7228:7229   */\n      0x05\n        /* \"#utility.yul\":7224:7244   */\n      shr\n        /* \"#utility.yul\":7218:7222   */\n      dup3\n        /* \"#utility.yul\":7214:7245   */\n      add\n        /* \"#utility.yul\":7204:7245   */\n      swap2\n      pop\n        /* \"#utility.yul\":7295:7376   */\n    tag_325:\n        /* \"#utility.yul\":7313:7315   */\n      dup2\n        /* \"#utility.yul\":7306:7311   */\n      dup2\n        /* \"#utility.yul\":7303:7316   */\n      lt\n        /* \"#utility.yul\":7295:7376   */\n      iszero\n      tag_210\n      jumpi\n        /* \"#utility.yul\":7372:7373   */\n      0x00\n        /* \"#utility.yul\":7358:7374   */\n      dup2\n      sstore\n        /* \"#utility.yul\":7339:7340   */\n      0x01\n        /* \"#utility.yul\":7328:7341   */\n      add\n        /* \"#utility.yul\":7295:7376   */\n      jump(tag_325)\n        /* \"#utility.yul\":7568:8867   */\n    tag_239:\n        /* \"#utility.yul\":7694:7697   */\n      dup2\n        /* \"#utility.yul\":7688:7698   */\n      mload\n        /* \"#utility.yul\":7721:7739   */\n      0xffffffffffffffff\n        /* \"#utility.yul\":7713:7719   */\n      dup2\n        /* \"#utility.yul\":7710:7740   */\n      gt\n        /* \"#utility.yul\":7707:7763   */\n      iszero\n      tag_331\n      jumpi\n        /* \"#utility.yul\":7743:7761   */\n      tag_331\n      tag_244\n      jump\t// in\n    tag_331:\n        /* \"#utility.yul\":7772:7869   */\n      tag_332\n        /* \"#utility.yul\":7862:7868   */\n      dup2\n        /* \"#utility.yul\":7822:7860   */\n      tag_333\n        /* \"#utility.yul\":7854:7858   */\n      dup5\n        /* \"#utility.yul\":7848:7859   */\n      sload\n        /* \"#utility.yul\":7822:7860   */\n      tag_79\n      jump\t// in\n    tag_333:\n        /* \"#utility.yul\":7816:7820   */\n      dup5\n        /* \"#utility.yul\":7772:7869   */\n      tag_250\n      jump\t// in\n    tag_332:\n        /* \"#utility.yul\":7918:7922   */\n      0x20\n        /* \"#utility.yul\":7949:7951   */\n      0x1f\n        /* \"#utility.yul\":7938:7952   */\n      dup3\n      gt\n        /* \"#utility.yul\":7966:7967   */\n      0x01\n        /* \"#utility.yul\":7961:8610   */\n      dup2\n      eq\n      tag_335\n      jumpi\n        /* \"#utility.yul\":8654:8655   */\n      0x00\n        /* \"#utility.yul\":8671:8677   */\n      dup4\n        /* \"#utility.yul\":8668:8757   */\n      iszero\n      tag_336\n      jumpi\n      pop\n        /* \"#utility.yul\":8723:8742   */\n      dup5\n      dup3\n      add\n        /* \"#utility.yul\":8717:8743   */\n      mload\n        /* \"#utility.yul\":8668:8757   */\n    tag_336:\n      not(0x00)\n        /* \"#utility.yul\":7525:7526   */\n      0x03\n        /* \"#utility.yul\":7521:7532   */\n      dup6\n      swap1\n      shl\n        /* \"#utility.yul\":7517:7541   */\n      shr\n        /* \"#utility.yul\":7513:7542   */\n      not\n        /* \"#utility.yul\":7503:7543   */\n      and\n        /* \"#utility.yul\":7549:7550   */\n      0x01\n        /* \"#utility.yul\":7545:7556   */\n      dup5\n      swap1\n      shl\n        /* \"#utility.yul\":7500:7557   */\n      or\n        /* \"#utility.yul\":8770:8851   */\n      dup5\n      sstore\n        /* \"#utility.yul\":7931:8861   */\n      jump(tag_210)\n        /* \"#utility.yul\":7961:8610   */\n    tag_335:\n        /* \"#utility.yul\":6821:6822   */\n      0x00\n        /* \"#utility.yul\":6814:6828   */\n      dup5\n      dup2\n      mstore\n        /* \"#utility.yul\":6858:6862   */\n      0x20\n        /* \"#utility.yul\":6845:6863   */\n      dup2\n      keccak256\n      not(0x1f)\n        /* \"#utility.yul\":7997:8017   */\n      dup6\n      and\n      swap2\n        /* \"#utility.yul\":8115:8337   */\n    tag_339:\n        /* \"#utility.yul\":8129:8136   */\n      dup3\n        /* \"#utility.yul\":8126:8127   */\n      dup2\n        /* \"#utility.yul\":8123:8137   */\n      lt\n        /* \"#utility.yul\":8115:8337   */\n      iszero\n      tag_341\n      jumpi\n        /* \"#utility.yul\":8211:8230   */\n      dup8\n      dup6\n      add\n        /* \"#utility.yul\":8205:8231   */\n      mload\n        /* \"#utility.yul\":8190:8232   */\n      dup3\n      sstore\n        /* \"#utility.yul\":8318:8322   */\n      0x20\n        /* \"#utility.yul\":8303:8323   */\n      swap5\n      dup6\n      add\n      swap5\n        /* \"#utility.yul\":8271:8272   */\n      0x01\n        /* \"#utility.yul\":8259:8273   */\n      swap1\n      swap3\n      add\n      swap2\n        /* \"#utility.yul\":8145:8157   */\n      add\n        /* \"#utility.yul\":8115:8337   */\n      jump(tag_339)\n    tag_341:\n        /* \"#utility.yul\":8119:8122   */\n      pop\n        /* \"#utility.yul\":8365:8371   */\n      dup5\n        /* \"#utility.yul\":8356:8363   */\n      dup3\n        /* \"#utility.yul\":8353:8372   */\n      lt\n        /* \"#utility.yul\":8350:8551   */\n      iszero\n      tag_342\n      jumpi\n        /* \"#utility.yul\":8426:8445   */\n      dup7\n      dup5\n      add\n        /* \"#utility.yul\":8420:8446   */\n      mload\n      not(0x00)\n        /* \"#utility.yul\":8509:8510   */\n      0x03\n        /* \"#utility.yul\":8505:8519   */\n      dup8\n      swap1\n      shl\n        /* \"#utility.yul\":8521:8524   */\n      0xf8\n        /* \"#utility.yul\":8501:8525   */\n      and\n        /* \"#utility.yul\":8497:8534   */\n      shr\n        /* \"#utility.yul\":8493:8535   */\n      not\n        /* \"#utility.yul\":8478:8536   */\n      and\n        /* \"#utility.yul\":8463:8537   */\n      dup2\n      sstore\n        /* \"#utility.yul\":8350:8551   */\n    tag_342:\n      pop\n      pop\n      pop\n      pop\n        /* \"#utility.yul\":8597:8598   */\n      0x01\n        /* \"#utility.yul\":8581:8595   */\n      swap1\n      dup2\n      shl\n        /* \"#utility.yul\":8577:8599   */\n      add\n        /* \"#utility.yul\":8564:8600   */\n      swap1\n      sstore\n      pop\n        /* \"#utility.yul\":7568:8867   */\n      jump\t// out\n    stop\n    data_3874827173e8df9f34323b12b251d1d3c53926ce129e30a0d69f1d47c277041b 52c63247e1f47db19d5ce0460030c497f067ca4cebf71ba98eeadabe20bace00\n\n    auxdata: 0xa2646970667358221220577cd2639d5cd81a4a7c622dd699faea6593f5c8302dd404c7e292ef7058cd1f64736f6c634300081e0033\n}\n",
				"bytecode": {
					"linkReferences": {},
					"object": "6080604052348015600e575f5ffd5b50610efb8061001c5f395ff3fe608060405234801561000f575f5ffd5b50600436106100e5575f3560e01c806370a082311161008857806395d89b411161006357806395d89b41146101f6578063a9059cbb146101fe578063dd62ed3e14610211578063f2fde38b14610224575f5ffd5b806370a082311461019a578063715018a6146101ce5780638da5cb5b146101d6575f5ffd5b806318160ddd116100c357806318160ddd1461013457806323b872dd14610165578063313ce567146101785780634cd88b7614610187575f5ffd5b806306fdde03146100e9578063095ea7b3146101075780631249c58b1461012a575b5f5ffd5b6100f1610237565b6040516100fe9190610a38565b60405180910390f35b61011a610115366004610a88565b6102f7565b60405190151581526020016100fe565b610132610310565b005b7f52c63247e1f47db19d5ce0460030c497f067ca4cebf71ba98eeadabe20bace02545b6040519081526020016100fe565b61011a610173366004610ab0565b610346565b604051601281526020016100fe565b610132610195366004610b89565b610369565b6101576101a8366004610bee565b6001600160a01b03165f9081525f516020610ea65f395f51905f52602052604090205490565b610132610478565b6101de610489565b6040516001600160a01b0390911681526020016100fe565b6100f16104b7565b61011a61020c366004610a88565b6104f5565b61015761021f366004610c0e565b610502565b610132610232366004610bee565b61054b565b7f52c63247e1f47db19d5ce0460030c497f067ca4cebf71ba98eeadabe20bace0380546060915f516020610ea65f395f51905f529161027590610c3f565b80601f01602080910402602001604051908101604052809291908181526020018280546102a190610c3f565b80156102ec5780601f106102c3576101008083540402835291602001916102ec565b820191905f5260205f20905b8154815290600101906020018083116102cf57829003601f168201915b505050505091505090565b5f3361030481858561058d565b60019150505b92915050565b61031861059f565b610344610323610489565b60125b61033190600a610d6e565b61033f90630bebc200610d7c565b6105d1565b565b5f33610353858285610609565b61035e85858561066d565b506001949350505050565b5f6103726106ca565b805490915060ff600160401b820416159067ffffffffffffffff165f811580156103995750825b90505f8267ffffffffffffffff1660011480156103b55750303b155b9050811580156103c3575080155b156103e15760405163f92ee8a960e01b815260040160405180910390fd5b845467ffffffffffffffff19166001178555831561040b57845460ff60401b1916600160401b1785555b610414336106f2565b61041e8787610703565b610429336012610326565b831561046f57845460ff60401b19168555604051600181527fc7f505b2f371ae2175ee4913f4499e1f2633a7b5936321eed1cdaeb6115181d29060200160405180910390a15b50505050505050565b61048061059f565b6103445f610715565b7f9016d09d72d40fdae2fd8ceac6b6234c7706214fd39c1cd1e609a0528c199300546001600160a01b031690565b7f52c63247e1f47db19d5ce0460030c497f067ca4cebf71ba98eeadabe20bace0480546060915f516020610ea65f395f51905f529161027590610c3f565b5f3361030481858561066d565b6001600160a01b039182165f9081527f52c63247e1f47db19d5ce0460030c497f067ca4cebf71ba98eeadabe20bace016020908152604080832093909416825291909152205490565b61055361059f565b6001600160a01b03811661058157604051631e4fbdf760e01b81525f60048201526024015b60405180910390fd5b61058a81610715565b50565b61059a8383836001610785565b505050565b336105a8610489565b6001600160a01b0316146103445760405163118cdaa760e01b8152336004820152602401610578565b6001600160a01b0382166105fa5760405163ec442f0560e01b81525f6004820152602401610578565b6106055f8383610869565b5050565b5f6106148484610502565b90505f19811015610667578181101561065957604051637dc7a0d960e11b81526001600160a01b03841660048201526024810182905260448101839052606401610578565b61066784848484035f610785565b50505050565b6001600160a01b03831661069657604051634b637e8f60e11b81525f6004820152602401610578565b6001600160a01b0382166106bf5760405163ec442f0560e01b81525f6004820152602401610578565b61059a838383610869565b5f807ff0c57e16840df040f15088dc2f81fe391c3923bec73e23a9662efc9c229c6a0061030a565b6106fa6109a2565b61058a816109c7565b61070b6109a2565b61060582826109cf565b7f9016d09d72d40fdae2fd8ceac6b6234c7706214fd39c1cd1e609a0528c19930080546001600160a01b031981166001600160a01b03848116918217845560405192169182907f8be0079c531659141344cd1fd0a4f28419497f9722a3daafe3b4186f6b6457e0905f90a3505050565b5f516020610ea65f395f51905f526001600160a01b0385166107bc5760405163e602df0560e01b81525f6004820152602401610578565b6001600160a01b0384166107e557604051634a1406b160e11b81525f6004820152602401610578565b6001600160a01b038086165f9081526001830160209081526040808320938816835292905220839055811561086257836001600160a01b0316856001600160a01b03167f8c5be1e5ebec7d5bd14f71427d1e84f3dd0314c0f7b2291e5b200ac8c7c3b9258560405161085991815260200190565b60405180910390a35b5050505050565b5f516020610ea65f395f51905f526001600160a01b0384166108a35781816002015f8282546108989190610d93565b909155506109139050565b6001600160a01b0384165f90815260208290526040902054828110156108f55760405163391434e360e21b81526001600160a01b03861660048201526024810182905260448101849052606401610578565b6001600160a01b0385165f9081526020839052604090209083900390555b6001600160a01b03831661093157600281018054839003905561094f565b6001600160a01b0383165f9081526020829052604090208054830190555b826001600160a01b0316846001600160a01b03167fddf252ad1be2c89b69c2b068fc378daa952ba7f163c4a11628f55a4df523b3ef8460405161099491815260200190565b60405180910390a350505050565b6109aa610a1f565b61034457604051631afcd79f60e31b815260040160405180910390fd5b6105536109a2565b6109d76109a2565b5f516020610ea65f395f51905f527f52c63247e1f47db19d5ce0460030c497f067ca4cebf71ba98eeadabe20bace03610a108482610dea565b50600481016106678382610dea565b5f610a286106ca565b54600160401b900460ff16919050565b602081525f82518060208401528060208501604085015e5f604082850101526040601f19601f83011684010191505092915050565b80356001600160a01b0381168114610a83575f5ffd5b919050565b5f5f60408385031215610a99575f5ffd5b610aa283610a6d565b946020939093013593505050565b5f5f5f60608486031215610ac2575f5ffd5b610acb84610a6d565b9250610ad960208501610a6d565b929592945050506040919091013590565b634e487b7160e01b5f52604160045260245ffd5b5f82601f830112610b0d575f5ffd5b813567ffffffffffffffff811115610b2757610b27610aea565b604051601f8201601f19908116603f0116810167ffffffffffffffff81118282101715610b5657610b56610aea565b604052818152838201602001851015610b6d575f5ffd5b816020850160208301375f918101602001919091529392505050565b5f5f60408385031215610b9a575f5ffd5b823567ffffffffffffffff811115610bb0575f5ffd5b610bbc85828601610afe565b925050602083013567ffffffffffffffff811115610bd8575f5ffd5b610be485828601610afe565b9150509250929050565b5f60208284031215610bfe575f5ffd5b610c0782610a6d565b9392505050565b5f5f60408385031215610c1f575f5ffd5b610c2883610a6d565b9150610c3660208401610a6d565b90509250929050565b600181811c90821680610c5357607f821691505b602082108103610c7157634e487b7160e01b5f52602260045260245ffd5b50919050565b634e487b7160e01b5f52601160045260245ffd5b6001815b6001841115610cc657808504811115610caa57610caa610c77565b6001841615610cb857908102905b60019390931c928002610c8f565b935093915050565b5f82610cdc5750600161030a565b81610ce857505f61030a565b8160018114610cfe5760028114610d0857610d24565b600191505061030a565b60ff841115610d1957610d19610c77565b50506001821b61030a565b5060208310610133831016604e8410600b8410161715610d47575081810a61030a565b610d535f198484610c8b565b805f1904821115610d6657610d66610c77565b029392505050565b5f610c0760ff841683610cce565b808202811582820484141761030a5761030a610c77565b8082018082111561030a5761030a610c77565b601f82111561059a57805f5260205f20601f840160051c81016020851015610dcb5750805b601f840160051c820191505b81811015610862575f8155600101610dd7565b815167ffffffffffffffff811115610e0457610e04610aea565b610e1881610e128454610c3f565b84610da6565b6020601f821160018114610e4a575f8315610e335750848201515b5f19600385901b1c1916600184901b178455610862565b5f84815260208120601f198516915b82811015610e795787850151825560209485019460019092019101610e59565b5084821015610e9657868401515f19600387901b60f8161c191681555b50505050600190811b0190555056fe52c63247e1f47db19d5ce0460030c497f067ca4cebf71ba98eeadabe20bace00a2646970667358221220577cd2639d5cd81a4a7c622dd699faea6593f5c8302dd404c7e292ef7058cd1f64736f6c634300081e0033",
					"opcodes": "PUSH1 0x80 PUSH1 0x40 MSTORE CALLVALUE DUP1 ISZERO PUSH1 0xE JUMPI PUSH0 PUSH0 REVERT JUMPDEST POP PUSH2 0xEFB DUP1 PUSH2 0x1C PUSH0 CODECOPY PUSH0 RETURN INVALID PUSH1 0x80 PUSH1 0x40 MSTORE CALLVALUE DUP1 ISZERO PUSH2 0xF JUMPI PUSH0 PUSH0 REVERT JUMPDEST POP PUSH1 0x4 CALLDATASIZE LT PUSH2 0xE5 JUMPI PUSH0 CALLDATALOAD PUSH1 0xE0 SHR DUP1 PUSH4 0x70A08231 GT PUSH2 0x88 JUMPI DUP1 PUSH4 0x95D89B41 GT PUSH2 0x63 JUMPI DUP1 PUSH4 0x95D89B41 EQ PUSH2 0x1F6 JUMPI DUP1 PUSH4 0xA9059CBB EQ PUSH2 0x1FE JUMPI DUP1 PUSH4 0xDD62ED3E EQ PUSH2 0x211 JUMPI DUP1 PUSH4 0xF2FDE38B EQ PUSH2 0x224 JUMPI PUSH0 PUSH0 REVERT JUMPDEST DUP1 PUSH4 0x70A08231 EQ PUSH2 0x19A JUMPI DUP1 PUSH4 0x715018A6 EQ PUSH2 0x1CE JUMPI DUP1 PUSH4 0x8DA5CB5B EQ PUSH2 0x1D6 JUMPI PUSH0 PUSH0 REVERT JUMPDEST DUP1 PUSH4 0x18160DDD GT PUSH2 0xC3 JUMPI DUP1 PUSH4 0x18160DDD EQ PUSH2 0x134 JUMPI DUP1 PUSH4 0x23B872DD EQ PUSH2 0x165 JUMPI DUP1 PUSH4 0x313CE567 EQ PUSH2 0x178 JUMPI DUP1 PUSH4 0x4CD88B76 EQ PUSH2 0x187 JUMPI PUSH0 PUSH0 REVERT JUMPDEST DUP1 PUSH4 0x6FDDE03 EQ PUSH2 0xE9 JUMPI DUP1 PUSH4 0x95EA7B3 EQ PUSH2 0x107 JUMPI DUP1 PUSH4 0x1249C58B EQ PUSH2 0x12A JUMPI JUMPDEST PUSH0 PUSH0 REVERT JUMPDEST PUSH2 0xF1 PUSH2 0x237 JUMP JUMPDEST PUSH1 0x40 MLOAD PUSH2 0xFE SWAP2 SWAP1 PUSH2 0xA38 JUMP JUMPDEST PUSH1 0x40 MLOAD DUP1 SWAP2 SUB SWAP1 RETURN JUMPDEST PUSH2 0x11A PUSH2 0x115 CALLDATASIZE PUSH1 0x4 PUSH2 0xA88 JUMP JUMPDEST PUSH2 0x2F7 JUMP JUMPDEST PUSH1 0x40 MLOAD SWAP1 ISZERO ISZERO DUP2 MSTORE PUSH1 0x20 ADD PUSH2 0xFE JUMP JUMPDEST PUSH2 0x132 PUSH2 0x310 JUMP JUMPDEST STOP JUMPDEST PUSH32 0x52C63247E1F47DB19D5CE0460030C497F067CA4CEBF71BA98EEADABE20BACE02 SLOAD JUMPDEST PUSH1 0x40 MLOAD SWAP1 DUP2 MSTORE PUSH1 0x20 ADD PUSH2 0xFE JUMP JUMPDEST PUSH2 0x11A PUSH2 0x173 CALLDATASIZE PUSH1 0x4 PUSH2 0xAB0 JUMP JUMPDEST PUSH2 0x346 JUMP JUMPDEST PUSH1 0x40 MLOAD PUSH1 0x12 DUP2 MSTORE PUSH1 0x20 ADD PUSH2 0xFE JUMP JUMPDEST PUSH2 0x132 PUSH2 0x195 CALLDATASIZE PUSH1 0x4 PUSH2 0xB89 JUMP JUMPDEST PUSH2 0x369 JUMP JUMPDEST PUSH2 0x157 PUSH2 0x1A8 CALLDATASIZE PUSH1 0x4 PUSH2 0xBEE JUMP JUMPDEST PUSH1 0x1 PUSH1 0x1 PUSH1 0xA0 SHL SUB AND PUSH0 SWAP1 DUP2 MSTORE PUSH0 MLOAD PUSH1 0x20 PUSH2 0xEA6 PUSH0 CODECOPY PUSH0 MLOAD SWAP1 PUSH0 MSTORE PUSH1 0x20 MSTORE PUSH1 0x40 SWAP1 KECCAK256 SLOAD SWAP1 JUMP JUMPDEST PUSH2 0x132 PUSH2 0x478 JUMP JUMPDEST PUSH2 0x1DE PUSH2 0x489 JUMP JUMPDEST PUSH1 0x40 MLOAD PUSH1 0x1 PUSH1 0x1 PUSH1 0xA0 SHL SUB SWAP1 SWAP2 AND DUP2 MSTORE PUSH1 0x20 ADD PUSH2 0xFE JUMP JUMPDEST PUSH2 0xF1 PUSH2 0x4B7 JUMP JUMPDEST PUSH2 0x11A PUSH2 0x20C CALLDATASIZE PUSH1 0x4 PUSH2 0xA88 JUMP JUMPDEST PUSH2 0x4F5 JUMP JUMPDEST PUSH2 0x157 PUSH2 0x21F CALLDATASIZE PUSH1 0x4 PUSH2 0xC0E JUMP JUMPDEST PUSH2 0x502 JUMP JUMPDEST PUSH2 0x132 PUSH2 0x232 CALLDATASIZE PUSH1 0x4 PUSH2 0xBEE JUMP JUMPDEST PUSH2 0x54B JUMP JUMPDEST PUSH32 0x52C63247E1F47DB19D5CE0460030C497F067CA4CEBF71BA98EEADABE20BACE03 DUP1 SLOAD PUSH1 0x60 SWAP2 PUSH0 MLOAD PUSH1 0x20 PUSH2 0xEA6 PUSH0 CODECOPY PUSH0 MLOAD SWAP1 PUSH0 MSTORE SWAP2 PUSH2 0x275 SWAP1 PUSH2 0xC3F JUMP JUMPDEST DUP1 PUSH1 0x1F ADD PUSH1 0x20 DUP1 SWAP2 DIV MUL PUSH1 0x20 ADD PUSH1 0x40 MLOAD SWAP1 DUP2 ADD PUSH1 0x40 MSTORE DUP1 SWAP3 SWAP2 SWAP1 DUP2 DUP2 MSTORE PUSH1 0x20 ADD DUP3 DUP1 SLOAD PUSH2 0x2A1 SWAP1 PUSH2 0xC3F JUMP JUMPDEST DUP1 ISZERO PUSH2 0x2EC JUMPI DUP1 PUSH1 0x1F LT PUSH2 0x2C3 JUMPI PUSH2 0x100 DUP1 DUP4 SLOAD DIV MUL DUP4 MSTORE SWAP2 PUSH1 0x20 ADD SWAP2 PUSH2 0x2EC JUMP JUMPDEST DUP3 ADD SWAP2 SWAP1 PUSH0 MSTORE PUSH1 0x20 PUSH0 KECCAK256 SWAP1 JUMPDEST DUP2 SLOAD DUP2 MSTORE SWAP1 PUSH1 0x1 ADD SWAP1 PUSH1 0x20 ADD DUP1 DUP4 GT PUSH2 0x2CF JUMPI DUP3 SWAP1 SUB PUSH1 0x1F AND DUP3 ADD SWAP2 JUMPDEST POP POP POP POP POP SWAP2 POP POP SWAP1 JUMP JUMPDEST PUSH0 CALLER PUSH2 0x304 DUP2 DUP6 DUP6 PUSH2 0x58D JUMP JUMPDEST PUSH1 0x1 SWAP2 POP POP JUMPDEST SWAP3 SWAP2 POP POP JUMP JUMPDEST PUSH2 0x318 PUSH2 0x59F JUMP JUMPDEST PUSH2 0x344 PUSH2 0x323 PUSH2 0x489 JUMP JUMPDEST PUSH1 0x12 JUMPDEST PUSH2 0x331 SWAP1 PUSH1 0xA PUSH2 0xD6E JUMP JUMPDEST PUSH2 0x33F SWAP1 PUSH4 0xBEBC200 PUSH2 0xD7C JUMP JUMPDEST PUSH2 0x5D1 JUMP JUMPDEST JUMP JUMPDEST PUSH0 CALLER PUSH2 0x353 DUP6 DUP3 DUP6 PUSH2 0x609 JUMP JUMPDEST PUSH2 0x35E DUP6 DUP6 DUP6 PUSH2 0x66D JUMP JUMPDEST POP PUSH1 0x1 SWAP5 SWAP4 POP POP POP POP JUMP JUMPDEST PUSH0 PUSH2 0x372 PUSH2 0x6CA JUMP JUMPDEST DUP1 SLOAD SWAP1 SWAP2 POP PUSH1 0xFF PUSH1 0x1 PUSH1 0x40 SHL DUP3 DIV AND ISZERO SWAP1 PUSH8 0xFFFFFFFFFFFFFFFF AND PUSH0 DUP2 ISZERO DUP1 ISZERO PUSH2 0x399 JUMPI POP DUP3 JUMPDEST SWAP1 POP PUSH0 DUP3 PUSH8 0xFFFFFFFFFFFFFFFF AND PUSH1 0x1 EQ DUP1 ISZERO PUSH2 0x3B5 JUMPI POP ADDRESS EXTCODESIZE ISZERO JUMPDEST SWAP1 POP DUP2 ISZERO DUP1 ISZERO PUSH2 0x3C3 JUMPI POP DUP1 ISZERO JUMPDEST ISZERO PUSH2 0x3E1 JUMPI PUSH1 0x40 MLOAD PUSH4 0xF92EE8A9 PUSH1 0xE0 SHL DUP2 MSTORE PUSH1 0x4 ADD PUSH1 0x40 MLOAD DUP1 SWAP2 SUB SWAP1 REVERT JUMPDEST DUP5 SLOAD PUSH8 0xFFFFFFFFFFFFFFFF NOT AND PUSH1 0x1 OR DUP6 SSTORE DUP4 ISZERO PUSH2 0x40B JUMPI DUP5 SLOAD PUSH1 0xFF PUSH1 0x40 SHL NOT AND PUSH1 0x1 PUSH1 0x40 SHL OR DUP6 SSTORE JUMPDEST PUSH2 0x414 CALLER PUSH2 0x6F2 JUMP JUMPDEST PUSH2 0x41E DUP8 DUP8 PUSH2 0x703 JUMP JUMPDEST PUSH2 0x429 CALLER PUSH1 0x12 PUSH2 0x326 JUMP JUMPDEST DUP4 ISZERO PUSH2 0x46F JUMPI DUP5 SLOAD PUSH1 0xFF PUSH1 0x40 SHL NOT AND DUP6 SSTORE PUSH1 0x40 MLOAD PUSH1 0x1 DUP2 MSTORE PUSH32 0xC7F505B2F371AE2175EE4913F4499E1F2633A7B5936321EED1CDAEB6115181D2 SWAP1 PUSH1 0x20 ADD PUSH1 0x40 MLOAD DUP1 SWAP2 SUB SWAP1 LOG1 JUMPDEST POP POP POP POP POP POP POP JUMP JUMPDEST PUSH2 0x480 PUSH2 0x59F JUMP JUMPDEST PUSH2 0x344 PUSH0 PUSH2 0x715 JUMP JUMPDEST PUSH32 0x9016D09D72D40FDAE2FD8CEAC6B6234C7706214FD39C1CD1E609A0528C199300 SLOAD PUSH1 0x1 PUSH1 0x1 PUSH1 0xA0 SHL SUB AND SWAP1 JUMP JUMPDEST PUSH32 0x52C63247E1F47DB19D5CE0460030C497F067CA4CEBF71BA98EEADABE20BACE04 DUP1 SLOAD PUSH1 0x60 SWAP2 PUSH0 MLOAD PUSH1 0x20 PUSH2 0xEA6 PUSH0 CODECOPY PUSH0 MLOAD SWAP1 PUSH0 MSTORE SWAP2 PUSH2 0x275 SWAP1 PUSH2 0xC3F JUMP JUMPDEST PUSH0 CALLER PUSH2 0x304 DUP2 DUP6 DUP6 PUSH2 0x66D JUMP JUMPDEST PUSH1 0x1 PUSH1 0x1 PUSH1 0xA0 SHL SUB SWAP2 DUP3 AND PUSH0 SWAP1 DUP2 MSTORE PUSH32 0x52C63247E1F47DB19D5CE0460030C497F067CA4CEBF71BA98EEADABE20BACE01 PUSH1 0x20 SWAP1 DUP2 MSTORE PUSH1 0x40 DUP1 DUP4 KECCAK256 SWAP4 SWAP1 SWAP5 AND DUP3 MSTORE SWAP2 SWAP1 SWAP2 MSTORE KECCAK256 SLOAD SWAP1 JUMP JUMPDEST PUSH2 0x553 PUSH2 0x59F JUMP JUMPDEST PUSH1 0x1 PUSH1 0x1 PUSH1 0xA0 SHL SUB DUP2 AND PUSH2 0x581 JUMPI PUSH1 0x40 MLOAD PUSH4 0x1E4FBDF7 PUSH1 0xE0 SHL DUP2 MSTORE PUSH0 PUSH1 0x4 DUP3 ADD MSTORE PUSH1 0x24 ADD JUMPDEST PUSH1 0x40 MLOAD DUP1 SWAP2 SUB SWAP1 REVERT JUMPDEST PUSH2 0x58A DUP2 PUSH2 0x715 JUMP JUMPDEST POP JUMP JUMPDEST PUSH2 0x59A DUP4 DUP4 DUP4 PUSH1 0x1 PUSH2 0x785 JUMP JUMPDEST POP POP POP JUMP JUMPDEST CALLER PUSH2 0x5A8 PUSH2 0x489 JUMP JUMPDEST PUSH1 0x1 PUSH1 0x1 PUSH1 0xA0 SHL SUB AND EQ PUSH2 0x344 JUMPI PUSH1 0x40 MLOAD PUSH4 0x118CDAA7 PUSH1 0xE0 SHL DUP2 MSTORE CALLER PUSH1 0x4 DUP3 ADD MSTORE PUSH1 0x24 ADD PUSH2 0x578 JUMP JUMPDEST PUSH1 0x1 PUSH1 0x1 PUSH1 0xA0 SHL SUB DUP3 AND PUSH2 0x5FA JUMPI PUSH1 0x40 MLOAD PUSH4 0xEC442F05 PUSH1 0xE0 SHL DUP2 MSTORE PUSH0 PUSH1 0x4 DUP3 ADD MSTORE PUSH1 0x24 ADD PUSH2 0x578 JUMP JUMPDEST PUSH2 0x605 PUSH0 DUP4 DUP4 PUSH2 0x869 JUMP JUMPDEST POP POP JUMP JUMPDEST PUSH0 PUSH2 0x614 DUP5 DUP5 PUSH2 0x502 JUMP JUMPDEST SWAP1 POP PUSH0 NOT DUP2 LT ISZERO PUSH2 0x667 JUMPI DUP2 DUP2 LT ISZERO PUSH2 0x659 JUMPI PUSH1 0x40 MLOAD PUSH4 0x7DC7A0D9 PUSH1 0xE1 SHL DUP2 MSTORE PUSH1 0x1 PUSH1 0x1 PUSH1 0xA0 SHL SUB DUP5 AND PUSH1 0x4 DUP3 ADD MSTORE PUSH1 0x24 DUP2 ADD DUP3 SWAP1 MSTORE PUSH1 0x44 DUP2 ADD DUP4 SWAP1 MSTORE PUSH1 0x64 ADD PUSH2 0x578 JUMP JUMPDEST PUSH2 0x667 DUP5 DUP5 DUP5 DUP5 SUB PUSH0 PUSH2 0x785 JUMP JUMPDEST POP POP POP POP JUMP JUMPDEST PUSH1 0x1 PUSH1 0x1 PUSH1 0xA0 SHL SUB DUP4 AND PUSH2 0x696 JUMPI PUSH1 0x40 MLOAD PUSH4 0x4B637E8F PUSH1 0xE1 SHL DUP2 MSTORE PUSH0 PUSH1 0x4 DUP3 ADD MSTORE PUSH1 0x24 ADD PUSH2 0x578 JUMP JUMPDEST PUSH1 0x1 PUSH1 0x1 PUSH1 0xA0 SHL SUB DUP3 AND PUSH2 0x6BF JUMPI PUSH1 0x40 MLOAD PUSH4 0xEC442F05 PUSH1 0xE0 SHL DUP2 MSTORE PUSH0 PUSH1 0x4 DUP3 ADD MSTORE PUSH1 0x24 ADD PUSH2 0x578 JUMP JUMPDEST PUSH2 0x59A DUP4 DUP4 DUP4 PUSH2 0x869 JUMP JUMPDEST PUSH0 DUP1 PUSH32 0xF0C57E16840DF040F15088DC2F81FE391C3923BEC73E23A9662EFC9C229C6A00 PUSH2 0x30A JUMP JUMPDEST PUSH2 0x6FA PUSH2 0x9A2 JUMP JUMPDEST PUSH2 0x58A DUP2 PUSH2 0x9C7 JUMP JUMPDEST PUSH2 0x70B PUSH2 0x9A2 JUMP JUMPDEST PUSH2 0x605 DUP3 DUP3 PUSH2 0x9CF JUMP JUMPDEST PUSH32 0x9016D09D72D40FDAE2FD8CEAC6B6234C7706214FD39C1CD1E609A0528C199300 DUP1 SLOAD PUSH1 0x1 PUSH1 0x1 PUSH1 0xA0 SHL SUB NOT DUP2 AND PUSH1 0x1 PUSH1 0x1 PUSH1 0xA0 SHL SUB DUP5 DUP2 AND SWAP2 DUP3 OR DUP5 SSTORE PUSH1 0x40 MLOAD SWAP3 AND SWAP2 DUP3 SWAP1 PUSH32 0x8BE0079C531659141344CD1FD0A4F28419497F9722A3DAAFE3B4186F6B6457E0 SWAP1 PUSH0 SWAP1 LOG3 POP POP POP JUMP JUMPDEST PUSH0 MLOAD PUSH1 0x20 PUSH2 0xEA6 PUSH0 CODECOPY PUSH0 MLOAD SWAP1 PUSH0 MSTORE PUSH1 0x1 PUSH1 0x1 PUSH1 0xA0 SHL SUB DUP6 AND PUSH2 0x7BC JUMPI PUSH1 0x40 MLOAD PUSH4 0xE602DF05 PUSH1 0xE0 SHL DUP2 MSTORE PUSH0 PUSH1 0x4 DUP3 ADD MSTORE PUSH1 0x24 ADD PUSH2 0x578 JUMP JUMPDEST PUSH1 0x1 PUSH1 0x1 PUSH1 0xA0 SHL SUB DUP5 AND PUSH2 0x7E5 JUMPI PUSH1 0x40 MLOAD PUSH4 0x4A1406B1 PUSH1 0xE1 SHL DUP2 MSTORE PUSH0 PUSH1 0x4 DUP3 ADD MSTORE PUSH1 0x24 ADD PUSH2 0x578 JUMP JUMPDEST PUSH1 0x1 PUSH1 0x1 PUSH1 0xA0 SHL SUB DUP1 DUP7 AND PUSH0 SWAP1 DUP2 MSTORE PUSH1 0x1 DUP4 ADD PUSH1 0x20 SWAP1 DUP2 MSTORE PUSH1 0x40 DUP1 DUP4 KECCAK256 SWAP4 DUP9 AND DUP4 MSTORE SWAP3 SWAP1 MSTORE KECCAK256 DUP4 SWAP1 SSTORE DUP2 ISZERO PUSH2 0x862 JUMPI DUP4 PUSH1 0x1 PUSH1 0x1 PUSH1 0xA0 SHL SUB AND DUP6 PUSH1 0x1 PUSH1 0x1 PUSH1 0xA0 SHL SUB AND PUSH32 0x8C5BE1E5EBEC7D5BD14F71427D1E84F3DD0314C0F7B2291E5B200AC8C7C3B925 DUP6 PUSH1 0x40 MLOAD PUSH2 0x859 SWAP2 DUP2 MSTORE PUSH1 0x20 ADD SWAP1 JUMP JUMPDEST PUSH1 0x40 MLOAD DUP1 SWAP2 SUB SWAP1 LOG3 JUMPDEST POP POP POP POP POP JUMP JUMPDEST PUSH0 MLOAD PUSH1 0x20 PUSH2 0xEA6 PUSH0 CODECOPY PUSH0 MLOAD SWAP1 PUSH0 MSTORE PUSH1 0x1 PUSH1 0x1 PUSH1 0xA0 SHL SUB DUP5 AND PUSH2 0x8A3 JUMPI DUP2 DUP2 PUSH1 0x2 ADD PUSH0 DUP3 DUP3 SLOAD PUSH2 0x898 SWAP2 SWAP1 PUSH2 0xD93 JUMP JUMPDEST SWAP1 SWAP2 SSTORE POP PUSH2 0x913 SWAP1 POP JUMP JUMPDEST PUSH1 0x1 PUSH1 0x1 PUSH1 0xA0 SHL SUB DUP5 AND PUSH0 SWAP1 DUP2 MSTORE PUSH1 0x20 DUP3 SWAP1 MSTORE PUSH1 0x40 SWAP1 KECCAK256 SLOAD DUP3 DUP2 LT ISZERO PUSH2 0x8F5 JUMPI PUSH1 0x40 MLOAD PUSH4 0x391434E3 PUSH1 0xE2 SHL DUP2 MSTORE PUSH1 0x1 PUSH1 0x1 PUSH1 0xA0 SHL SUB DUP7 AND PUSH1 0x4 DUP3 ADD MSTORE PUSH1 0x24 DUP2 ADD DUP3 SWAP1 MSTORE PUSH1 0x44 DUP2 ADD DUP5 SWAP1 MSTORE PUSH1 0x64 ADD PUSH2 0x578 JUMP JUMPDEST PUSH1 0x1 PUSH1 0x1 PUSH1 0xA0 SHL SUB DUP6 AND PUSH0 SWAP1 DUP2 MSTORE PUSH1 0x20 DUP4 SWAP1 MSTORE PUSH1 0x40 SWAP1 KECCAK256 SWAP1 DUP4 SWAP1 SUB SWAP1 SSTORE JUMPDEST PUSH1 0x1 PUSH1 0x1 PUSH1 0xA0 SHL SUB DUP4 AND PUSH2 0x931 JUMPI PUSH1 0x2 DUP2 ADD DUP1 SLOAD DUP4 SWAP1 SUB SWAP1 SSTORE PUSH2 0x94F JUMP JUMPDEST PUSH1 0x1 PUSH1 0x1 PUSH1 0xA0 SHL SUB DUP4 AND PUSH0 SWAP1 DUP2 MSTORE PUSH1 0x20 DUP3 SWAP1 MSTORE PUSH1 0x40 SWAP1 KECCAK256 DUP1 SLOAD DUP4 ADD SWAP1 SSTORE JUMPDEST DUP3 PUSH1 0x1 PUSH1 0x1 PUSH1 0xA0 SHL SUB AND DUP5 PUSH1 0x1 PUSH1 0x1 PUSH1 0xA0 SHL SUB AND PUSH32 0xDDF252AD1BE2C89B69C2B068FC378DAA952BA7F163C4A11628F55A4DF523B3EF DUP5 PUSH1 0x40 MLOAD PUSH2 0x994 SWAP2 DUP2 MSTORE PUSH1 0x20 ADD SWAP1 JUMP JUMPDEST PUSH1 0x40 MLOAD DUP1 SWAP2 SUB SWAP1 LOG3 POP POP POP POP JUMP JUMPDEST PUSH2 0x9AA PUSH2 0xA1F JUMP JUMPDEST PUSH2 0x344 JUMPI PUSH1 0x40 MLOAD PUSH4 0x1AFCD79F PUSH1 0xE3 SHL DUP2 MSTORE PUSH1 0x4 ADD PUSH1 0x40 MLOAD DUP1 SWAP2 SUB SWAP1 REVERT JUMPDEST PUSH2 0x553 PUSH2 0x9A2 JUMP JUMPDEST PUSH2 0x9D7 PUSH2 0x9A2 JUMP JUMPDEST PUSH0 MLOAD PUSH1 0x20 PUSH2 0xEA6 PUSH0 CODECOPY PUSH0 MLOAD SWAP1 PUSH0 MSTORE PUSH32 0x52C63247E1F47DB19D5CE0460030C497F067CA4CEBF71BA98EEADABE20BACE03 PUSH2 0xA10 DUP5 DUP3 PUSH2 0xDEA JUMP JUMPDEST POP PUSH1 0x4 DUP2 ADD PUSH2 0x667 DUP4 DUP3 PUSH2 0xDEA JUMP JUMPDEST PUSH0 PUSH2 0xA28 PUSH2 0x6CA JUMP JUMPDEST SLOAD PUSH1 0x1 PUSH1 0x40 SHL SWAP1 DIV PUSH1 0xFF AND SWAP2 SWAP1 POP JUMP JUMPDEST PUSH1 0x20 DUP2 MSTORE PUSH0 DUP3 MLOAD DUP1 PUSH1 0x20 DUP5 ADD MSTORE DUP1 PUSH1 0x20 DUP6 ADD PUSH1 0x40 DUP6 ADD MCOPY PUSH0 PUSH1 0x40 DUP3 DUP6 ADD ADD MSTORE PUSH1 0x40 PUSH1 0x1F NOT PUSH1 0x1F DUP4 ADD AND DUP5 ADD ADD SWAP2 POP POP SWAP3 SWAP2 POP POP JUMP JUMPDEST DUP1 CALLDATALOAD PUSH1 0x1 PUSH1 0x1 PUSH1 0xA0 SHL SUB DUP2 AND DUP2 EQ PUSH2 0xA83 JUMPI PUSH0 PUSH0 REVERT JUMPDEST SWAP2 SWAP1 POP JUMP JUMPDEST PUSH0 PUSH0 PUSH1 0x40 DUP4 DUP6 SUB SLT ISZERO PUSH2 0xA99 JUMPI PUSH0 PUSH0 REVERT JUMPDEST PUSH2 0xAA2 DUP4 PUSH2 0xA6D JUMP JUMPDEST SWAP5 PUSH1 0x20 SWAP4 SWAP1 SWAP4 ADD CALLDATALOAD SWAP4 POP POP POP JUMP JUMPDEST PUSH0 PUSH0 PUSH0 PUSH1 0x60 DUP5 DUP7 SUB SLT ISZERO PUSH2 0xAC2 JUMPI PUSH0 PUSH0 REVERT JUMPDEST PUSH2 0xACB DUP5 PUSH2 0xA6D JUMP JUMPDEST SWAP3 POP PUSH2 0xAD9 PUSH1 0x20 DUP6 ADD PUSH2 0xA6D JUMP JUMPDEST SWAP3 SWAP6 SWAP3 SWAP5 POP POP POP PUSH1 0x40 SWAP2 SWAP1 SWAP2 ADD CALLDATALOAD SWAP1 JUMP JUMPDEST PUSH4 0x4E487B71 PUSH1 0xE0 SHL PUSH0 MSTORE PUSH1 0x41 PUSH1 0x4 MSTORE PUSH1 0x24 PUSH0 REVERT JUMPDEST PUSH0 DUP3 PUSH1 0x1F DUP4 ADD SLT PUSH2 0xB0D JUMPI PUSH0 PUSH0 REVERT JUMPDEST DUP2 CALLDATALOAD PUSH8 0xFFFFFFFFFFFFFFFF DUP2 GT ISZERO PUSH2 0xB27 JUMPI PUSH2 0xB27 PUSH2 0xAEA JUMP JUMPDEST PUSH1 0x40 MLOAD PUSH1 0x1F DUP3 ADD PUSH1 0x1F NOT SWAP1 DUP2 AND PUSH1 0x3F ADD AND DUP2 ADD PUSH8 0xFFFFFFFFFFFFFFFF DUP2 GT DUP3 DUP3 LT OR ISZERO PUSH2 0xB56 JUMPI PUSH2 0xB56 PUSH2 0xAEA JUMP JUMPDEST PUSH1 0x40 MSTORE DUP2 DUP2 MSTORE DUP4 DUP3 ADD PUSH1 0x20 ADD DUP6 LT ISZERO PUSH2 0xB6D JUMPI PUSH0 PUSH0 REVERT JUMPDEST DUP2 PUSH1 0x20 DUP6 ADD PUSH1 0x20 DUP4 ADD CALLDATACOPY PUSH0 SWAP2 DUP2 ADD PUSH1 0x20 ADD SWAP2 SWAP1 SWAP2 MSTORE SWAP4 SWAP3 POP POP POP JUMP JUMPDEST PUSH0 PUSH0 PUSH1 0x40 DUP4 DUP6 SUB SLT ISZERO PUSH2 0xB9A JUMPI PUSH0 PUSH0 REVERT JUMPDEST DUP3 CALLDATALOAD PUSH8 0xFFFFFFFFFFFFFFFF DUP2 GT ISZERO PUSH2 0xBB0 JUMPI PUSH0 PUSH0 REVERT JUMPDEST PUSH2 0xBBC DUP6 DUP3 DUP7 ADD PUSH2 0xAFE JUMP JUMPDEST SWAP3 POP POP PUSH1 0x20 DUP4 ADD CALLDATALOAD PUSH8 0xFFFFFFFFFFFFFFFF DUP2 GT ISZERO PUSH2 0xBD8 JUMPI PUSH0 PUSH0 REVERT JUMPDEST PUSH2 0xBE4 DUP6 DUP3 DUP7 ADD PUSH2 0xAFE JUMP JUMPDEST SWAP2 POP POP SWAP3 POP SWAP3 SWAP1 POP JUMP JUMPDEST PUSH0 PUSH1 0x20 DUP3 DUP5 SUB SLT ISZERO PUSH2 0xBFE JUMPI PUSH0 PUSH0 REVERT JUMPDEST PUSH2 0xC07 DUP3 PUSH2 0xA6D JUMP JUMPDEST SWAP4 SWAP3 POP POP POP JUMP JUMPDEST PUSH0 PUSH0 PUSH1 0x40 DUP4 DUP6 SUB SLT ISZERO PUSH2 0xC1F JUMPI PUSH0 PUSH0 REVERT JUMPDEST PUSH2 0xC28 DUP4 PUSH2 0xA6D JUMP JUMPDEST SWAP2 POP PUSH2 0xC36 PUSH1 0x20 DUP5 ADD PUSH2 0xA6D JUMP JUMPDEST SWAP1 POP SWAP3 POP SWAP3 SWAP1 POP JUMP JUMPDEST PUSH1 0x1 DUP2 DUP2 SHR SWAP1 DUP3 AND DUP1 PUSH2 0xC53 JUMPI PUSH1 0x7F DUP3 AND SWAP2 POP JUMPDEST PUSH1 0x20 DUP3 LT DUP2 SUB PUSH2 0xC71 JUMPI PUSH4 0x4E487B71 PUSH1 0xE0 SHL PUSH0 MSTORE PUSH1 0x22 PUSH1 0x4 MSTORE PUSH1 0x24 PUSH0 REVERT JUMPDEST POP SWAP2 SWAP1 POP JUMP JUMPDEST PUSH4 0x4E487B71 PUSH1 0xE0 SHL PUSH0 MSTORE PUSH1 0x11 PUSH1 0x4 MSTORE PUSH1 0x24 PUSH0 REVERT JUMPDEST PUSH1 0x1 DUP2 JUMPDEST PUSH1 0x1 DUP5 GT ISZERO PUSH2 0xCC6 JUMPI DUP1 DUP6 DIV DUP2 GT ISZERO PUSH2 0xCAA JUMPI PUSH2 0xCAA PUSH2 0xC77 JUMP JUMPDEST PUSH1 0x1 DUP5 AND ISZERO PUSH2 0xCB8 JUMPI SWAP1 DUP2 MUL SWAP1 JUMPDEST PUSH1 0x1 SWAP4 SWAP1 SWAP4 SHR SWAP3 DUP1 MUL PUSH2 0xC8F JUMP JUMPDEST SWAP4 POP SWAP4 SWAP2 POP POP JUMP JUMPDEST PUSH0 DUP3 PUSH2 0xCDC JUMPI POP PUSH1 0x1 PUSH2 0x30A JUMP JUMPDEST DUP2 PUSH2 0xCE8 JUMPI POP PUSH0 PUSH2 0x30A JUMP JUMPDEST DUP2 PUSH1 0x1 DUP2 EQ PUSH2 0xCFE JUMPI PUSH1 0x2 DUP2 EQ PUSH2 0xD08 JUMPI PUSH2 0xD24 JUMP JUMPDEST PUSH1 0x1 SWAP2 POP POP PUSH2 0x30A JUMP JUMPDEST PUSH1 0xFF DUP5 GT ISZERO PUSH2 0xD19 JUMPI PUSH2 0xD19 PUSH2 0xC77 JUMP JUMPDEST POP POP PUSH1 0x1 DUP3 SHL PUSH2 0x30A JUMP JUMPDEST POP PUSH1 0x20 DUP4 LT PUSH2 0x133 DUP4 LT AND PUSH1 0x4E DUP5 LT PUSH1 0xB DUP5 LT AND OR ISZERO PUSH2 0xD47 JUMPI POP DUP2 DUP2 EXP PUSH2 0x30A JUMP JUMPDEST PUSH2 0xD53 PUSH0 NOT DUP5 DUP5 PUSH2 0xC8B JUMP JUMPDEST DUP1 PUSH0 NOT DIV DUP3 GT ISZERO PUSH2 0xD66 JUMPI PUSH2 0xD66 PUSH2 0xC77 JUMP JUMPDEST MUL SWAP4 SWAP3 POP POP POP JUMP JUMPDEST PUSH0 PUSH2 0xC07 PUSH1 0xFF DUP5 AND DUP4 PUSH2 0xCCE JUMP JUMPDEST DUP1 DUP3 MUL DUP2 ISZERO DUP3 DUP3 DIV DUP5 EQ OR PUSH2 0x30A JUMPI PUSH2 0x30A PUSH2 0xC77 JUMP JUMPDEST DUP1 DUP3 ADD DUP1 DUP3 GT ISZERO PUSH2 0x30A JUMPI PUSH2 0x30A PUSH2 0xC77 JUMP JUMPDEST PUSH1 0x1F DUP3 GT ISZERO PUSH2 0x59A JUMPI DUP1 PUSH0 MSTORE PUSH1 0x20 PUSH0 KECCAK256 PUSH1 0x1F DUP5 ADD PUSH1 0x5 SHR DUP2 ADD PUSH1 0x20 DUP6 LT ISZERO PUSH2 0xDCB JUMPI POP DUP1 JUMPDEST PUSH1 0x1F DUP5 ADD PUSH1 0x5 SHR DUP3 ADD SWAP2 POP JUMPDEST DUP2 DUP2 LT ISZERO PUSH2 0x862 JUMPI PUSH0 DUP2 SSTORE PUSH1 0x1 ADD PUSH2 0xDD7 JUMP JUMPDEST DUP2 MLOAD PUSH8 0xFFFFFFFFFFFFFFFF DUP2 GT ISZERO PUSH2 0xE04 JUMPI PUSH2 0xE04 PUSH2 0xAEA JUMP JUMPDEST PUSH2 0xE18 DUP2 PUSH2 0xE12 DUP5 SLOAD PUSH2 0xC3F JUMP JUMPDEST DUP5 PUSH2 0xDA6 JUMP JUMPDEST PUSH1 0x20 PUSH1 0x1F DUP3 GT PUSH1 0x1 DUP2 EQ PUSH2 0xE4A JUMPI PUSH0 DUP4 ISZERO PUSH2 0xE33 JUMPI POP DUP5 DUP3 ADD MLOAD JUMPDEST PUSH0 NOT PUSH1 0x3 DUP6 SWAP1 SHL SHR NOT AND PUSH1 0x1 DUP5 SWAP1 SHL OR DUP5 SSTORE PUSH2 0x862 JUMP JUMPDEST PUSH0 DUP5 DUP2 MSTORE PUSH1 0x20 DUP2 KECCAK256 PUSH1 0x1F NOT DUP6 AND SWAP2 JUMPDEST DUP3 DUP2 LT ISZERO PUSH2 0xE79 JUMPI DUP8 DUP6 ADD MLOAD DUP3 SSTORE PUSH1 0x20 SWAP5 DUP6 ADD SWAP5 PUSH1 0x1 SWAP1 SWAP3 ADD SWAP2 ADD PUSH2 0xE59 JUMP JUMPDEST POP DUP5 DUP3 LT ISZERO PUSH2 0xE96 JUMPI DUP7 DUP5 ADD MLOAD PUSH0 NOT PUSH1 0x3 DUP8 SWAP1 SHL PUSH1 0xF8 AND SHR NOT AND DUP2 SSTORE JUMPDEST POP POP POP POP PUSH1 0x1 SWAP1 DUP2 SHL ADD SWAP1 SSTORE POP JUMP INVALID MSTORE 0xC6 ORIGIN SELFBALANCE RJUMPI 0xF47D 0xB1 SWAP14 TLOAD RJUMP 0x4600 ADDRESS 0xC4 SWAP8 CREATE PUSH8 0xCA4CEBF71BA98EEA 0xDA 0xBE KECCAK256 0xBA 0xCE STOP LOG2 PUSH5 0x6970667358 0x22 SLT KECCAK256 JUMPI PUSH29 0xD2639D5CD81A4A7C622DD699FAEA6593F5C8302DD404C7E292EF7058CD 0x1F PUSH5 0x736F6C6343 STOP ADDMOD 0x1E STOP CALLER "
				},
				"gasEstimates": {
					"creation": {
						"codeDepositCost": "767000",
						"executionCost": "797",
						"totalCost": "767797"
					},
					"external": {
						"allowance(address,address)": "infinite",
						"approve(address,uint256)": "infinite",
						"balanceOf(address)": "infinite",
						"decimals()": "243",
						"initialize(string,string)": "infinite",
						"mint()": "infinite",
						"name()": "infinite",
						"owner()": "2412",
						"renounceOwnership()": "infinite",
						"symbol()": "infinite",
						"totalSupply()": "2303",
						"transfer(address,uint256)": "infinite",
						"transferFrom(address,address,uint256)": "infinite",
						"transferOwnership(address)": "28465"
					}
				},
				"methodIdentifiers": {
					"allowance(address,address)": "dd62ed3e",
					"approve(address,uint256)": "095ea7b3",
					"balanceOf(address)": "70a08231",
					"decimals()": "313ce567",
					"initialize(string,string)": "4cd88b76",
					"mint()": "1249c58b",
					"name()": "06fdde03",
					"owner()": "8da5cb5b",
					"renounceOwnership()": "715018a6",
					"symbol()": "95d89b41",
					"totalSupply()": "18160ddd",
					"transfer(address,uint256)": "a9059cbb",
					"transferFrom(address,address,uint256)": "23b872dd",
					"transferOwnership(address)": "f2fde38b"
				}
			},
			"storageLayout": {
				"storage": [],
				"types": null
			},
			"userdoc": {
				"kind": "user",
				"methods": {},
				"version": 1
			}
		}
	}
}