{
	"data": {
		"bytecode": {
			"linkReferences": {},
			"object": "6080604052348015600e575f5ffd5b5060156019565b60c9565b7ff0c57e16840df040f15088dc2f81fe391c3923bec73e23a9662efc9c229c6a00805468010000000000000000900460ff161560685760405163f92ee8a960e01b815260040160405180910390fd5b80546001600160401b039081161460c65780546001600160401b0319166001600160401b0390811782556040519081527fc7f505b2f371ae2175ee4913f4499e1f2633a7b5936321eed1cdaeb6115181d29060200160405180910390a15b50565b61419e806100d65f395ff3fe608060405234801561000f575f5ffd5b5060043610610372575f3560e01c806375b238fc116101d4578063c142d98811610109578063e27c8ad5116100a9578063eee7f41c11610079578063eee7f41c14610849578063efb810311461085c578063f9f1678814610887578063fff9e91714610890575f5ffd5b8063e27c8ad51461080f578063e63ab1e914610818578063e7e4e1f71461082c578063ee01e5e71461083f575f5ffd5b8063d3f52d00116100e4578063d3f52d00146107d5578063d547741f146107e8578063d8bbd46c146107fb578063df3100d414610806575f5ffd5b8063c142d98814610739578063c38474c0146107ba578063c86a0d16146107c2575f5ffd5b8063a0b80db411610174578063b0d2d0111161014f578063b0d2d01114610701578063b397e5721461070a578063b44c4fef1461071d578063b6334aee14610730575f5ffd5b8063a0b80db4146106de578063a217fddf146106e7578063abd8a033146106ee575f5ffd5b80637f53243b116101af5780637f53243b146106915780638456cb59146106a45780638b2d0ccf146106ac57806391d14854146106cb575f5ffd5b806375b238fc1461062557806378e97925146106395780637c83e6c814610642575f5ffd5b80633f4ba83a116102aa5780635c5c0d601161024a57806366ff9f801161022557806366ff9f80146105c0578063720b3ad3146105df57806373dfccca146105f2578063744f90a714610612575f5ffd5b80635c5c0d601461059b5780635c975abb146105ae5780635d1dccb1146105b8575f5ffd5b8063507f130511610285578063507f13051461050457806358a13b3a146105175780635ab2d62f1461053e5780635bae5e5414610551575f5ffd5b80633f4ba83a146104bb57806343cdab57146104c357806345434445146104d6575f5ffd5b80632b6fdc7e116103155780632f57c174116102f05780632f57c1741461046e578063323bf9f01461048d57806336568abe146104a0578063372500ab146104b3575f5ffd5b80632b6fdc7e1461044a5780632def6620146104535780632f2ff15d1461045b575f5ffd5b80631698fe76116103505780631698fe76146103c95780631bd067c5146103f4578063248a9ca31461040957806327c1a8121461041c575f5ffd5b806301ffc9a71461037657806302e4923c1461039e5780630a171df8146103bf575b5f5ffd5b61038961038436600461384f565b6108a3565b60405190151581526020015b60405180910390f35b6103b16103ac366004613891565b6108d9565b604051908152602001610395565b6103b162093a8081565b6033546103dc906001600160a01b031681565b6040516001600160a01b039091168152602001610395565b6104076104023660046138aa565b6109c3565b005b6103b16104173660046138aa565b610a40565b6103b161042a3660046138c1565b5f918252604360209081526040808420928452600b909201905290205490565b6103b1603c5481565b610407610a60565b6104076104693660046138e1565b610c80565b6103b161047c366004613891565b603f6020525f908152604090205481565b6032546103dc906001600160a01b031681565b6104076104ae3660046138e1565b610ca2565b610407610cda565b610407610d97565b6104076104d13660046138aa565b610db9565b6104e96104e43660046138c1565b610e46565b60408051938452602084019290925290820152606001610395565b610407610512366004613918565b610f64565b6103b17f4c716a0ebd1cfd3e93ca0db9b9f8a0a9cb7c1d4cc18b52950e1f5528cc73cb5d81565b6103b161054c366004613891565b611153565b61058661055f366004613891565b6001600160a01b03165f908152603e6020908152604080832054603d909252909120549091565b60408051928352602083019190915201610395565b6104076105a93660046139f5565b61134e565b5f5460ff16610389565b61040761146e565b6103b16105ce366004613891565b60416020525f908152604090205481565b6104076105ed366004613a38565b6119a8565b6106056106003660046138aa565b611d04565b6040516103959190613aa9565b6104e9610620366004613a38565b611daa565b6103b15f5160206141495f395f51905f5281565b6103b1603b5481565b6106746106503660046138aa565b60446020525f908152604090208054600182015460029092015460ff909116919083565b604080519315158452602084019290925290820152606001610395565b6103b161069f366004613abb565b611e4d565b610407611e78565b6103b16106ba366004613891565b604060208190525f91825290205481565b6103896106d93660046138e1565b611e97565b6103b160355481565b6103b15f81565b6104076106fc3660046138aa565b611ecd565b6103b160385481565b6103b1610718366004613a38565b611f3d565b6103b161072b366004613891565b611f81565b6103b160375481565b61078b610747366004613ae3565b805160208183018101805160428252928201919093012091528054600182015460028301546003840154600485015460059095015460ff9094169492939192909186565b6040805196151587526020870195909552938501929092526060840152608083015260a082015260c001610395565b6103b1612045565b6104076107d0366004613b14565b612067565b6104076107e33660046138aa565b6121dd565b6104076107f63660046138e1565b6121fa565b6103b16305f5e10081565b6103b1603a5481565b6103b160395481565b6103b15f5160206141095f395f51905f5281565b61040761083a366004613a38565b612216565b6103b16298968081565b6103b1610857366004613abb565b612258565b61086f61086a3660046138aa565b612271565b6040516103959c9b9a99989796959493929190613b2f565b6103b160365481565b61040761089e366004613ca1565b61235b565b5f6001600160e01b03198216637965db0b60e01b14806108d357506301ffc9a760e01b6001600160e01b03198316145b92915050565b5f5f6108e483611f81565b5f81815260436020526040902060068101546004909101549192509015610989576037545f838152604360205260408120600401549091906109269042613dc6565b6109309190613dd9565b6037545f85815260436020526040812060030154929350916109529190613dd9565b90508181111561098257806109678382613dc6565b6109719085613df8565b61097b9190613dd9565b9250610986565b5f92505b50505b6001600160a01b0384165f90815260416020908152604080832054835260439091529020600601546109bb9082613e0f565b949350505050565b5f5160206141495f395f51905f526109da81612879565b6001821015610a3a5760405162461bcd60e51b815260206004820152602160248201527f4d696e696d756d20616d6f756e74206d757374206265206174206c65617374206044820152603160f81b60648201526084015b60405180910390fd5b50603855565b5f9081525f5160206141295f395f51905f52602052604090206001015490565b610a68612883565b5f610a7233611f81565b9050805f03610aba5760405162461bcd60e51b8152602060048201526014602482015273139bc81858dd1a5d99481b1bd8dac8199bdd5b9960621b6044820152606401610a31565b5f818152604360205260409020600501544211610b295760405162461bcd60e51b815260206004820152602760248201527f43616e6e6f7420756e7374616b65206265666f726520746865206c6f636b20656044820152666e642074696d6560c81b6064820152608401610a31565b6032545f828152604360205260409081902060010154905163a9059cbb60e01b815233600482015260248101919091526001600160a01b039091169063a9059cbb906044016020604051808303815f875af1158015610b8a573d5f5f3e3d5ffd5b505050506040513d601f19601f82011682018060405250810190610bae9190613e22565b506033545f82815260436020526040908190206006015490516306888c6760e11b815233600482015260248101919091526001600160a01b0390911690630d1118ce906044015f604051808303815f87803b158015610c0b575f5ffd5b505af1158015610c1d573d5f5f3e3d5ffd5b5050505f828152604360205260409081902060028101805461ff001916905560050154905183925033917f92ccf450a286a957af52509bc1c9939d1a6a481783e142e41e2499f0bb66ebc691610c7591815260200190565b60405180910390a350565b610c8982610a40565b610c9281612879565b610c9c83836128ca565b50505050565b6001600160a01b0381163314610ccb5760405163334bd91960e11b815260040160405180910390fd5b610cd5828261296b565b505050565b610ce2612883565b5f610ceb6129e4565b60325460405163a9059cbb60e01b8152336004820152602481018390529192506001600160a01b03169063a9059cbb906044016020604051808303815f875af1158015610d3a573d5f5f3e3d5ffd5b505050506040513d601f19601f82011682018060405250810190610d5e9190613e22565b5060405181815233907ffc30cddea38e2bf4d6ea7d3f9ed3b6ad7f176419f4963bd81318067a4aee73fe9060200160405180910390a250565b5f5160206141095f395f51905f52610dae81612879565b610db6612ac3565b50565b5f5160206141495f395f51905f52610dd081612879565b5f82118015610de2575062093a808211155b610e405760405162461bcd60e51b815260206004820152602960248201527f496e74657276616c2073686f756c642062652077697468696e207468652076616044820152686c69642072616e676560b81b6064820152608401610a31565b50603755565b5f828152604360205260408120600181015482918291610e9a5760405162461bcd60e51b815260206004820152600f60248201526e125b9d985b1a5908131bd8dac81259608a1b6044820152606401610a31565b60028101545f9060ff16610eb2578160090154610eb6565b6036545b6008830154945090505f610eca8786613e0f565b5f868152600b85016020526040902054945090505b8481118015610eed57508482115b15610f5a575f8581526044602052604090206001015415610f5a57610f13858986612b14565b610f1d9087613e0f565b5f868152600b8501602052604090205490965015610f48575f858152600b8401602052604090205493505b84610f5281613e3d565b955050610edf565b5050509250925092565b610f6c612883565b5f81156110075750335f9081526041602052604081205490819003610fa35760405162461bcd60e51b8152600401610a3190613e55565b60325460405163079cc67960e41b8152336004820152602481018590526001600160a01b03909116906379cc6790906044015f604051808303815f87803b158015610fec575f5ffd5b505af1158015610ffe573d5f5f3e3d5ffd5b505050506110ee565b61101033611f81565b9050801580159061103057505f8181526043602052604090206005015442105b6110745760405162461bcd60e51b81526020600482015260156024820152744e6f20416374697665206c6f636b2065786973747360581b6044820152606401610a31565b6032546040516323b872dd60e01b8152336004820152306024820152604481018590526001600160a01b03909116906323b872dd906064016020604051808303815f875af11580156110c8573d5f5f3e3d5ffd5b505050506040513d601f19601f820116820180604052508101906110ec9190613e22565b505b6110f88382612c87565b5f81815260436020908152604091829020600181015460069091015483519182529181019190915282917f7975828cb9027121837d9d3a5eda3d9bf35a6582d2ec4684b110ae0b553bb4f691015b60405180910390a2505050565b6001600160a01b0381165f908152603f6020526040812054819081905b6001600160a01b0385165f908152603e602052604090205481101561128d576001600160a01b0385165f908152603e6020526040812080546112729190849081106111bd576111bd613e9f565b905f5260205f20015460435f603e5f8b6001600160a01b03166001600160a01b031681526020019081526020015f2086815481106111fd576111fd613e9f565b905f5260205f20015481526020019081526020015f206008015460435f603e5f8c6001600160a01b03166001600160a01b031681526020019081526020015f20878154811061124e5761124e613e9f565b905f5260205f20015481526020019081526020015f20600901546104e49190613dc6565b5050905080846112829190613e0f565b935050600101611170565b506001600160a01b0384165f90815260416020526040902054158015906112dc57506001600160a01b0384165f9081526041602090815260408083205483526043909152902060080154603654115b15611322576001600160a01b0384165f9081526041602090815260408083205480845260439092529091206008015460365461131c92916104e491613dc6565b50909150505b6001600160a01b0384165f908152604060208190529020546113448284613e0f565b6109bb9190613e0f565b5f5160206141495f395f51905f5261136581612879565b6034545f90815b818110156113f257856040516020016113859190613eb3565b60405160208183030381529060405280519060200120603482815481106113ae576113ae613e9f565b905f5260205f20016040516020016113c69190613efb565b60405160208183030381529060405280519060200120036113ea57600192506113f2565b60010161136c565b50816114365760405162461bcd60e51b8152602060048201526013602482015272141bdbdb08191bd95cc81b9bdd08195e1a5cdd606a1b6044820152606401610a31565b836042866040516114479190613eb3565b908152604051908190036020019020805491151560ff199092169190911790555050505050565b7f4c716a0ebd1cfd3e93ca0db9b9f8a0a9cb7c1d4cc18b52950e1f5528cc73cb5d61149881612879565b6114a0612883565b603a546032546040516370a0823160e01b81523360048201525f92629896809290916001600160a01b03909116906370a0823190602401602060405180830381865afa1580156114f2573d5f5f3e3d5ffd5b505050506040513d601f19601f820116820180604052508101906115169190613f6c565b6115209190613df8565b61152a9190613dd9565b90506039548110156115915760405162461bcd60e51b815260206004820152602a60248201527f526577617264206d757374206265206174206c6561737420746865206d696e696044820152691b5d5b48185b5bdd5b9d60b21b6064820152608401610a31565b60365461159c612045565b81106115ea5760405162461bcd60e51b815260206004820152601a60248201527f43616e6e6f742070726f63657373206265666f72652074696d650000000000006044820152606401610a31565b6032546040516323b872dd60e01b8152336004820152306024820152604481018490526001600160a01b03909116906323b872dd906064016020604051808303815f875af115801561163e573d5f5f3e3d5ffd5b505050506040513d601f19601f820116820180604052508101906116629190613e22565b50603c546116708184613e0f565b5f838152604460205260408120600201829055909350905062093a80611697836001613e0f565b6116a19190613df8565b603b546116ae9190613e0f565b5f838152604460205260408120600101919091555b60345481101561193c5760445f8481526020019081526020015f20600401603482815481106116f4576116f4613e9f565b905f5260205f20016040516117099190613efb565b90815260200160405180910390205460426034838154811061172d5761172d613e9f565b905f5260205f20016040516117429190613efb565b90815260200160405180910390206004015f8282546117619190613e0f565b909155505080156118065760445f8481526020019081526020015f206005016034828154811061179357611793613e9f565b905f5260205f20016040516117a89190613efb565b9081526020016040518091039020546042603483815481106117cc576117cc613e9f565b905f5260205f20016040516117e19190613efb565b90815260200160405180910390206004015f8282546118009190613dc6565b90915550505b60426034828154811061181b5761181b613e9f565b905f5260205f20016040516118309190613efb565b90815260200160405180910390206004015460445f8581526020019081526020015f206003016034838154811061186957611869613e9f565b905f5260205f200160405161187e9190613efb565b9081526020016040518091039020819055506042603482815481106118a5576118a5613e9f565b905f5260205f20016040516118ba9190613efb565b9081526020016040518091039020600401545f0361193457629896806042603483815481106118eb576118eb613e9f565b905f5260205f20016040516119009190613efb565b9081526020016040518091039020600201548561191d9190613df8565b6119279190613dd9565b6119319083613e0f565b91505b6001016116c3565b50603c81905560405183815282907f40df43107e8b4d467127964bd3c966687c0a6a39aaede970755397fd09535e989060200160405180910390a25f828152604460205260408120805460ff19166001179055603680549161199d83613e3d565b919050555050505050565b6119b0612883565b5f6119ba33611f81565b905080158015906119da57505f8181526043602052604090206005015442105b611a1d5760405162461bcd60e51b8152602060048201526014602482015273139bc81858dd1a5d99481b1bd8dac8199bdd5b9960621b6044820152606401610a31565b5f8181526043602052604090819020600301549051604290611a40908590613eb3565b9081526020016040518091039020600301541015611ab85760405162461bcd60e51b815260206004820152602f60248201527f4c6f636b206475726174696f6e2063616e6e6f74206265206c6573732074686160448201526e6e206578697374696e67206c6f636b60881b6064820152608401610a31565b5f8181526043602052604081206001810154815490929190611ad990613ec9565b80601f0160208091040260200160405190810160405280929190818152602001828054611b0590613ec9565b8015611b505780601f10611b2757610100808354040283529160200191611b50565b820191905f5260205f20905b815481529060010190602001808311611b3357829003601f168201915b5050505f86815260436020526040812060028101805461ff001916905542600590910155929350611b8391506120459050565b5f85815260436020526040902060090154909150811015611caf575f8481526043602090815260408083206009015483526044909152908190209051849160050190611bd0908590613eb3565b90815260200160405180910390205f828254611bec9190613dc6565b90915550505f8481526043602090815260408083206009018490558383526044909152908190209051849160050190611c26908590613eb3565b90815260200160405180910390205f828254611c429190613e0f565b90915550505f8481526043602052604090206009810154600890910154148015611c795750335f908152603e602052604090205415155b15611caf57335f908152603e60205260409020805480611c9b57611c9b613f83565b600190038181905f5260205f20015f905590555b5f84815260436020526040902060060154611ccf90879085908885612f7f565b60355460405185907f49b2ada88c09d45d501a352ddd16f0b8baba46034a2b243bfa8e215e2745f233905f90a3505050505050565b60348181548110611d13575f80fd5b905f5260205f20015f915090508054611d2b90613ec9565b80601f0160208091040260200160405190810160405280929190818152602001828054611d5790613ec9565b8015611da25780601f10611d7957610100808354040283529160200191611da2565b820191905f5260205f20905b815481529060010190602001808311611d8557829003601f168201915b505050505081565b5f5f5f60445f8681526020019081526020015f2060030184604051611dcf9190613eb3565b90815260200160405180910390205460445f8781526020019081526020015f2060040185604051611e009190613eb3565b90815260200160405180910390205460445f8881526020019081526020015f2060050186604051611e319190613eb3565b9081526020016040518091039020549250925092509250925092565b603e602052815f5260405f208181548110611e66575f80fd5b905f5260205f20015f91509150505481565b5f5160206141095f395f51905f52611e8f81612879565b610db6613509565b5f9182525f5160206141295f395f51905f52602090815260408084206001600160a01b0393909316845291905290205460ff1690565b5f5160206141495f395f51905f52611ee481612879565b62989680821115611f375760405162461bcd60e51b815260206004820152601860248201527f496e76616c69642070657263656e746167652076616c756500000000000000006044820152606401610a31565b50603a55565b5f6305f5e100604283604051611f539190613eb3565b90815260200160405180910390206001015484611f709190613df8565b611f7a9190613dd9565b9392505050565b6001600160a01b0381165f908152603d6020526040812054801561203f576001600160a01b0383165f908152603d6020526040812060439190611fc5600185613dc6565b81548110611fd557611fd5613e9f565b905f5260205f20015481526020019081526020015f2060020160019054906101000a900460ff161561203f576001600160a01b0383165f908152603d60205260409020612023600183613dc6565b8154811061203357612033613e9f565b905f5260205f20015491505b50919050565b5f62093a80603b54426120589190613dc6565b6120629190613dd9565b905090565b61206f612883565b5f6120786129e4565b90505f821561210f5750335f90815260416020526040812054908190036120b15760405162461bcd60e51b8152600401610a3190613e55565b603254604051630852cd8d60e31b8152600481018490526001600160a01b03909116906342966c68906024015f604051808303815f87803b1580156120f4575f5ffd5b505af1158015612106573d5f5f3e3d5ffd5b5050505061217c565b61211833611f81565b9050801580159061213857505f8181526043602052604090206005015442105b61217c5760405162461bcd60e51b81526020600482015260156024820152744e6f20416374697665206c6f636b2065786973747360581b6044820152606401610a31565b6121868282612c87565b5f81815260436020908152604091829020600181015460069091015483519182529181018590529182015281907f4e2cc4951f3eeabdd9e423f93eba5e634644ff5fc64b2e59c2486c23a305dd8e90606001611146565b5f5160206141495f395f51905f526121f481612879565b50603955565b61220382610a40565b61220c81612879565b610c9c838361296b565b61221e612883565b6038548210156122405760405162461bcd60e51b8152600401610a3190613f97565b612254825f5f8461224f612045565b612f7f565b5050565b603d602052815f5260405f208181548110611e66575f80fd5b60436020525f908152604090208054819061228b90613ec9565b80601f01602080910402602001604051908101604052809291908181526020018280546122b790613ec9565b80156123025780601f106122d957610100808354040283529160200191612302565b820191905f5260205f20905b8154815290600101906020018083116122e557829003601f168201915b50505060018401546002850154600386015460048701546005880154600689015460078a015460088b015460098c0154600a909c01549a9b979a60ff8089169b506101009098049097169850949693959294919390928c565b5f612364613545565b805490915060ff600160401b82041615906001600160401b03165f8115801561238a5750825b90505f826001600160401b031660011480156123a55750303b155b9050811580156123b3575080155b156123d15760405163f92ee8a960e01b815260040160405180910390fd5b845467ffffffffffffffff1916600117855583156123fb57845460ff60401b1916600160401b1785555b6001600160a01b038e166124515760405162461bcd60e51b815260206004820152601a60248201527f496e76616c696420414c564120746f6b656e20616464726573730000000000006044820152606401610a31565b6001600160a01b038d166124a75760405162461bcd60e51b815260206004820152601c60248201527f496e76616c6964207665414c564120746f6b656e2061646472657373000000006044820152606401610a31565b8d60325f6101000a8154816001600160a01b0302191690836001600160a01b031602179055508c60335f6101000a8154816001600160a01b0302191690836001600160a01b031602179055508b6037819055508a603b819055506001603881905550612710603981905550624c4b40603a819055506125285f5f1b336128ca565b506125405f5160206141095f395f51905f52336128ca565b506125585f5160206141495f395f51905f52336128ca565b506125837f4c716a0ebd1cfd3e93ca0db9b9f8a0a9cb7c1d4cc18b52950e1f5528cc73cb5d336128ca565b50865f8151811061259657612596613e9f565b60200260200101515f146125e05760405162461bcd60e51b8152602060048201526011602482015270496e76616c6964204475726174696f6e7360781b6044820152606401610a31565b89515f906125f59060349060208e0190613799565b505f5b8b518110156127dd5789818151811061261357612613613e9f565b602002602001015160428d838151811061262f5761262f613e9f565b60200260200101516040516126449190613eb3565b9081526020016040518091039020600101819055508a818151811061266b5761266b613e9f565b602002602001015160428d838151811061268757612687613e9f565b602002602001015160405161269c9190613eb3565b9081526020016040518091039020600201819055508881815181106126c3576126c3613e9f565b602002602001015160428d83815181106126df576126df613e9f565b60200260200101516040516126f49190613eb3565b908152602001604051809103902060030181905550600160428d838151811061271f5761271f613e9f565b60200260200101516040516127349190613eb3565b908152604051908190036020019020805491151560ff19909216919091179055875188908290811061276857612768613e9f565b602002602001015160428d838151811061278457612784613e9f565b60200260200101516040516127999190613eb3565b9081526020016040518091039020600501819055508a81815181106127c0576127c0613e9f565b6020026020010151826127d39190613e0f565b91506001016125f8565b506298968081146128225760405162461bcd60e51b815260206004820152600f60248201526e496e76616c6964205265776172647360881b6044820152606401610a31565b50831561286957845460ff60401b19168555604051600181527fc7f505b2f371ae2175ee4913f4499e1f2633a7b5936321eed1cdaeb6115181d29060200160405180910390a15b5050505050505050505050505050565b610db6813361356d565b5f5460ff16156128c85760405162461bcd60e51b815260206004820152601060248201526f14185d5cd8589b194e881c185d5cd95960821b6044820152606401610a31565b565b5f5f5160206141295f395f51905f526128e38484611e97565b612962575f848152602082815260408083206001600160a01b03871684529091529020805460ff191660011790556129183390565b6001600160a01b0316836001600160a01b0316857f2f8788117e7eff1d82e926ec794901d17c78024a50270940304540a733656f0d60405160405180910390a460019150506108d3565b5f9150506108d3565b5f5f5160206141295f395f51905f526129848484611e97565b15612962575f848152602082815260408083206001600160a01b0387168085529252808320805460ff1916905551339287917ff6391f5c32d9c69d2a47ea670b442974b53935d1edc7fd64eb21e047a839171b9190a460019150506108d3565b335f908152603f6020908152604080832054603e9092528220541115612a4257335f908152603e60209081526040808320603f909252909120548154612a429291908110612a3457612a34613e9f565b905f5260205f2001546135a6565b612a4a613692565b50335f9081526040602081905290205480612ab15760405162461bcd60e51b815260206004820152602160248201527f4e6f207265776172647320617661696c61626c6520666f7220636c61696d696e6044820152606760f81b6064820152608401610a31565b335f9081526040602081905281205590565b612acb613751565b5f805460ff191690557f5db9ee0a495bf2e6ff9c91a7834c1ba4fdd244a5e8aa4e537bd38aeae4b073aa335b6040516001600160a01b03909116815260200160405180910390a1565b5f8281526043602052604081208054829190612b2f90613ec9565b80601f0160208091040260200160405190810160405280929190818152602001828054612b5b90613ec9565b8015612ba65780601f10612b7d57610100808354040283529160200191612ba6565b820191905f5260205f20905b815481529060010190602001808311612b8957829003601f168201915b5050505f878152604360205260408120600a015493945092612bcb9250869150613dc6565b5f86815260436020526040902060010154612be69190613dc6565b90506298968060445f8881526020019081526020015f2060030183604051612c0e9190613eb3565b90815260200160405180910390205482604285604051612c2e9190613eb3565b90815260200160405180910390206002015460445f8b81526020019081526020015f2060020154612c5f9190613df8565b612c699190613df8565b612c739190613dd9565b612c7d9190613dd9565b9695505050505050565b603854821015612ca95760405162461bcd60e51b8152600401610a3190613f97565b5f8181526043602052604081208054612cc190613ec9565b80601f0160208091040260200160405190810160405280929190818152602001828054612ced90613ec9565b8015612d385780601f10612d0f57610100808354040283529160200191612d38565b820191905f5260205f20905b815481529060010190602001808311612d1b57829003601f168201915b50505050509050604281604051612d4f9190613eb3565b9081526040519081900360200190205460ff16612dae5760405162461bcd60e51b815260206004820152601a60248201527f506f6f6c2069732063757272656e746c792064697361626c65640000000000006044820152606401610a31565b5f612db98483611f3d565b6033546040516340c10f1960e01b8152336004820152602481018390529192506001600160a01b0316906340c10f19906044015f604051808303815f87803b158015612e03575f5ffd5b505af1158015612e15573d5f5f3e3d5ffd5b5050505f8481526043602052604081206001018054879350909190612e3b908490613e0f565b90915550505f8381526043602052604081206006018054839290612e60908490613e0f565b909155505f9050612e6f612045565b5f858152604360205260409020600901549091508181101580612ea257505f8581526043602052604090206002015460ff165b15612f2f578560445f8481526020019081526020015f2060040185604051612eca9190613eb3565b90815260200160405180910390205f828254612ee69190613e0f565b90915550505f81815260446020526040908190209051879160050190612f0d908790613eb3565b90815260200160405180910390205f828254612f299190613e0f565b90915550505b5f858152604360205260408120600a018054889290612f4f908490613e0f565b9091555050505f938452604360209081526040808620600a810154938752600b0190915290932092909255505050565b604282604051612f8f9190613eb3565b9081526040519081900360200190205460ff16612ffc5760405162461bcd60e51b815260206004820152602560248201527f54686520706f6f6c206973206e6f7420617661696c61626c6520666f72207374604482015264616b696e6760d81b6064820152608401610a31565b60358054905f61300b83613e3d565b91905055505f6042836040516130219190613eb3565b9081526020016040518091039020600501548261303e9190613e0f565b90505f61304b8688613e0f565b90505f6130588286611f3d565b9050858111156130d8576033546001600160a01b03166340c10f193361307e8985613dc6565b6040516001600160e01b031960e085901b1681526001600160a01b03909216600483015260248201526044015f604051808303815f87803b1580156130c1575f5ffd5b505af11580156130d3573d5f5f3e3d5ffd5b505050505b6042856040516130e89190613eb3565b9081526020016040518091039020600301545f146132955761310933611f81565b156131565760405162461bcd60e51b815260206004820152601c60248201527f54696d6562617365206c6f636b20616c726561647920657869737473000000006044820152606401610a31565b335f908152603d60209081526040808320603554815460018101835591855292842001919091555160429061318c908890613eb3565b90815260200160405180910390206002015411156131cb57335f908152603e602090815260408220603554815460018101835591845291909220909101555b871561324b576032546040516323b872dd60e01b8152336004820152306024820152604481018a90526001600160a01b03909116906323b872dd906064016020604051808303815f875af1158015613225573d5f5f3e3d5ffd5b505050506040513d601f19601f820116820180604052508101906132499190613e22565b505b8160445f8581526020019081526020015f206005018660405161326e9190613eb3565b90815260200160405180910390205f82825461328a9190613e0f565b909155506133819050565b335f90815260416020526040902054156132f15760405162461bcd60e51b815260206004820152601b60248201527f466f7265766572206c6f636b20616c72656164792065786973747300000000006044820152606401610a31565b603554335f81815260416020908152604080832085905593825260439052829020600201805460ff19166001179055603254915163079cc67960e41b81526004810191909152602481018490526001600160a01b03909116906379cc6790906044015f604051808303815f87803b15801561336a575f5ffd5b505af115801561337c573d5f5f3e3d5ffd5b505050505b6035545f90815260436020526040902061339b8682614026565b506035545f9081526043602052604090819020600101839055516042906133c3908790613eb3565b908152604080519182900360209081018320600390810154603580545f9081526043909452848420909201555481522042600490910155604290613408908790613eb3565b908152602001604051809103902060030154426134259190613e0f565b603580545f908152604360209081526040808320600501949094558254825283822060060185905582548252838220600201805461ff00191661010017905582548252838220600801889055915481528281206009018690558681526044909152819020905183916004019061349c908890613eb3565b90815260200160405180910390205f8282546134b89190613e0f565b90915550506035546040513391907f0e11027f9e3d7aa31b5d23503be35faede305799d8c9ab6c5b06fe0f28589906906134f79086908a9087906140e0565b60405180910390a35050505050505050565b613511612883565b5f805460ff191660011790557f62e78cea01bee320cd4e420270b5ea74000d11b0c9f74754ebdbfc544b05a258612af73390565b5f807ff0c57e16840df040f15088dc2f81fe391c3923bec73e23a9662efc9c229c6a006108d3565b6135778282611e97565b6122545760405163e2517d3f60e01b81526001600160a01b038216600482015260248101839052604401610a31565b80158015906135ca57505f8181526043602052604090206009810154600890910154105b15610db6575f5f6135dc83600a610e46565b5f868152604360205260408120600881019390935560079092018054939550909350849290919061360e908490613e0f565b9091555050335f9081526040602081905281208054849290613631908490613e0f565b90915550505f8381526043602081815260408084206008810180548652600b8201845291852086905593879052919052600990910154905403610cd557335f908152603f6020526040812080549161368883613e3d565b9190505550505050565b335f9081526041602052604090205480158015906136c157506036545f82815260436020526040902060080154105b15610db6575f5f6136d383600a610e46565b5f8681526043602052604081206008810193909355600790920180549395509093508492909190613705908490613e0f565b9091555050335f9081526040602081905281208054849290613728908490613e0f565b90915550505f83815260436020908152604080832060088101548452600b019091529020555050565b5f5460ff166128c85760405162461bcd60e51b815260206004820152601460248201527314185d5cd8589b194e881b9bdd081c185d5cd95960621b6044820152606401610a31565b828054828255905f5260205f209081019282156137dd579160200282015b828111156137dd57825182906137cd9082614026565b50916020019190600101906137b7565b506137e99291506137ed565b5090565b808211156137e9575f6138008282613809565b506001016137ed565b50805461381590613ec9565b5f825580601f10613824575050565b601f0160209004905f5260205f2090810190610db691905b808211156137e9575f815560010161383c565b5f6020828403121561385f575f5ffd5b81356001600160e01b031981168114611f7a575f5ffd5b80356001600160a01b038116811461388c575f5ffd5b919050565b5f602082840312156138a1575f5ffd5b611f7a82613876565b5f602082840312156138ba575f5ffd5b5035919050565b5f5f604083850312156138d2575f5ffd5b50508035926020909101359150565b5f5f604083850312156138f2575f5ffd5b8235915061390260208401613876565b90509250929050565b8015158114610db6575f5ffd5b5f5f60408385031215613929575f5ffd5b82359150602083013561393b8161390b565b809150509250929050565b634e487b7160e01b5f52604160045260245ffd5b604051601f8201601f191681016001600160401b038111828210171561398257613982613946565b604052919050565b5f82601f830112613999575f5ffd5b81356001600160401b038111156139b2576139b2613946565b6139c5601f8201601f191660200161395a565b8181528460208386010111156139d9575f5ffd5b816020850160208301375f918101602001919091529392505050565b5f5f60408385031215613a06575f5ffd5b82356001600160401b03811115613a1b575f5ffd5b613a278582860161398a565b925050602083013561393b8161390b565b5f5f60408385031215613a49575f5ffd5b8235915060208301356001600160401b03811115613a65575f5ffd5b613a718582860161398a565b9150509250929050565b5f81518084528060208401602086015e5f602082860101526020601f19601f83011685010191505092915050565b602081525f611f7a6020830184613a7b565b5f5f60408385031215613acc575f5ffd5b613ad583613876565b946020939093013593505050565b5f60208284031215613af3575f5ffd5b81356001600160401b03811115613b08575f5ffd5b6109bb8482850161398a565b5f60208284031215613b24575f5ffd5b8135611f7a8161390b565b61018081525f613b4361018083018f613a7b565b602083019d909d525099151560408b015297151560608a0152608089019690965260a088019490945260c087019290925260e086015261010085015261012084015261014083015261016090910152919050565b5f6001600160401b03821115613baf57613baf613946565b5060051b60200190565b5f82601f830112613bc8575f5ffd5b8135613bdb613bd682613b97565b61395a565b8082825260208201915060208360051b860101925085831115613bfc575f5ffd5b602085015b83811015613c3c5780356001600160401b03811115613c1e575f5ffd5b613c2d886020838a010161398a565b84525060209283019201613c01565b5095945050505050565b5f82601f830112613c55575f5ffd5b8135613c63613bd682613b97565b8082825260208201915060208360051b860101925085831115613c84575f5ffd5b602085015b83811015613c3c578035835260209283019201613c89565b5f5f5f5f5f5f5f5f5f6101208a8c031215613cba575f5ffd5b613cc38a613876565b9850613cd160208b01613876565b975060408a0135965060608a0135955060808a01356001600160401b03811115613cf9575f5ffd5b613d058c828d01613bb9565b95505060a08a01356001600160401b03811115613d20575f5ffd5b613d2c8c828d01613c46565b94505060c08a01356001600160401b03811115613d47575f5ffd5b613d538c828d01613c46565b93505060e08a01356001600160401b03811115613d6e575f5ffd5b613d7a8c828d01613c46565b9250506101008a01356001600160401b03811115613d96575f5ffd5b613da28c828d01613c46565b9150509295985092959850929598565b634e487b7160e01b5f52601160045260245ffd5b818103818111156108d3576108d3613db2565b5f82613df357634e487b7160e01b5f52601260045260245ffd5b500490565b80820281158282048414176108d3576108d3613db2565b808201808211156108d3576108d3613db2565b5f60208284031215613e32575f5ffd5b8151611f7a8161390b565b5f60018201613e4e57613e4e613db2565b5060010190565b6020808252602a908201527f4e6f2061637469766520666f7265766572206c6f636b2065786973747320666f60408201526939103a3432903ab9b2b960b11b606082015260800190565b634e487b7160e01b5f52603260045260245ffd5b5f82518060208501845e5f920191825250919050565b600181811c90821680613edd57607f821691505b60208210810361203f57634e487b7160e01b5f52602260045260245ffd5b5f5f8354613f0881613ec9565b600182168015613f1f5760018114613f3457613f61565b60ff1983168652811515820286019350613f61565b865f5260205f205f5b83811015613f5957815488820152600190910190602001613f3d565b505081860193505b509195945050505050565b5f60208284031215613f7c575f5ffd5b5051919050565b634e487b7160e01b5f52603160045260245ffd5b60208082526024908201527f416d6f756e742069732062656c6f7720746865206d696e696d756d20726571756040820152631a5c995960e21b606082015260800190565b601f821115610cd557805f5260205f20601f840160051c810160208510156140005750805b601f840160051c820191505b8181101561401f575f815560010161400c565b5050505050565b81516001600160401b0381111561403f5761403f613946565b6140538161404d8454613ec9565b84613fdb565b6020601f821160018114614085575f831561406e5750848201515b5f19600385901b1c1916600184901b17845561401f565b5f84815260208120601f198516915b828110156140b45787850151825560209485019460019092019101614094565b50848210156140d157868401515f19600387901b60f8161c191681555b50505050600190811b01905550565b838152606060208201525f6140f86060830185613a7b565b905082604083015294935050505056fe65d7a28e3265b37a6474929f336521b332c1681b933f6cb9f3376673440d862a02dd7bc7dec4dceedda775e58dd541e08a116c6c53815c0bd028192f7b626800a49807205ce4d355092ef5a8a18f56e8913cf4a201fbe287825b095693c21775a26469706673582212202671eda14d9683501a4ce3ca958d82710db8439307cc0a0def3d36c689b44d6564736f6c634300081e0033",
			"opcodes": "PUSH1 0x80 PUSH1 0x40 MSTORE CALLVALUE DUP1 ISZERO PUSH1 0xE JUMPI PUSH0 PUSH0 REVERT JUMPDEST POP PUSH1 0x15 PUSH1 0x19 JUMP JUMPDEST PUSH1 0xC9 JUMP JUMPDEST PUSH32 0xF0C57E16840DF040F15088DC2F81FE391C3923BEC73E23A9662EFC9C229C6A00 DUP1 SLOAD PUSH9 0x10000000000000000 SWAP1 DIV PUSH1 0xFF AND ISZERO PUSH1 0x68 JUMPI PUSH1 0x40 MLOAD PUSH4 0xF92EE8A9 PUSH1 0xE0 SHL DUP2 MSTORE PUSH1 0x4 ADD PUSH1 0x40 MLOAD DUP1 SWAP2 SUB SWAP1 REVERT JUMPDEST DUP1 SLOAD PUSH1 0x1 PUSH1 0x1 PUSH1 0x40 SHL SUB SWAP1 DUP2 AND EQ PUSH1 0xC6 JUMPI DUP1 SLOAD PUSH1 0x1 PUSH1 0x1 PUSH1 0x40 SHL SUB NOT AND PUSH1 0x1 PUSH1 0x1 PUSH1 0x40 SHL SUB SWAP1 DUP2 OR DUP3 SSTORE PUSH1 0x40 MLOAD SWAP1 DUP2 MSTORE PUSH32 0xC7F505B2F371AE2175EE4913F4499E1F2633A7B5936321EED1CDAEB6115181D2 SWAP1 PUSH1 0x20 ADD PUSH1 0x40 MLOAD DUP1 SWAP2 SUB SWAP1 LOG1 JUMPDEST POP JUMP JUMPDEST PUSH2 0x419E DUP1 PUSH2 0xD6 PUSH0 CODECOPY PUSH0 RETURN INVALID PUSH1 0x80 PUSH1 0x40 MSTORE CALLVALUE DUP1 ISZERO PUSH2 0xF JUMPI PUSH0 PUSH0 REVERT JUMPDEST POP PUSH1 0x4 CALLDATASIZE LT PUSH2 0x372 JUMPI PUSH0 CALLDATALOAD PUSH1 0xE0 SHR DUP1 PUSH4 0x75B238FC GT PUSH2 0x1D4 JUMPI DUP1 PUSH4 0xC142D988 GT PUSH2 0x109 JUMPI DUP1 PUSH4 0xE27C8AD5 GT PUSH2 0xA9 JUMPI DUP1 PUSH4 0xEEE7F41C GT PUSH2 0x79 JUMPI DUP1 PUSH4 0xEEE7F41C EQ PUSH2 0x849 JUMPI DUP1 PUSH4 0xEFB81031 EQ PUSH2 0x85C JUMPI DUP1 PUSH4 0xF9F16788 EQ PUSH2 0x887 JUMPI DUP1 PUSH4 0xFFF9E917 EQ PUSH2 0x890 JUMPI PUSH0 PUSH0 REVERT JUMPDEST DUP1 PUSH4 0xE27C8AD5 EQ PUSH2 0x80F JUMPI DUP1 PUSH4 0xE63AB1E9 EQ PUSH2 0x818 JUMPI DUP1 PUSH4 0xE7E4E1F7 EQ PUSH2 0x82C JUMPI DUP1 PUSH4 0xEE01E5E7 EQ PUSH2 0x83F JUMPI PUSH0 PUSH0 REVERT JUMPDEST DUP1 PUSH4 0xD3F52D00 GT PUSH2 0xE4 JUMPI DUP1 PUSH4 0xD3F52D00 EQ PUSH2 0x7D5 JUMPI DUP1 PUSH4 0xD547741F EQ PUSH2 0x7E8 JUMPI DUP1 PUSH4 0xD8BBD46C EQ PUSH2 0x7FB JUMPI DUP1 PUSH4 0xDF3100D4 EQ PUSH2 0x806 JUMPI PUSH0 PUSH0 REVERT JUMPDEST DUP1 PUSH4 0xC142D988 EQ PUSH2 0x739 JUMPI DUP1 PUSH4 0xC38474C0 EQ PUSH2 0x7BA JUMPI DUP1 PUSH4 0xC86A0D16 EQ PUSH2 0x7C2 JUMPI PUSH0 PUSH0 REVERT JUMPDEST DUP1 PUSH4 0xA0B80DB4 GT PUSH2 0x174 JUMPI DUP1 PUSH4 0xB0D2D011 GT PUSH2 0x14F JUMPI DUP1 PUSH4 0xB0D2D011 EQ PUSH2 0x701 JUMPI DUP1 PUSH4 0xB397E572 EQ PUSH2 0x70A JUMPI DUP1 PUSH4 0xB44C4FEF EQ PUSH2 0x71D JUMPI DUP1 PUSH4 0xB6334AEE EQ PUSH2 0x730 JUMPI PUSH0 PUSH0 REVERT JUMPDEST DUP1 PUSH4 0xA0B80DB4 EQ PUSH2 0x6DE JUMPI DUP1 PUSH4 0xA217FDDF EQ PUSH2 0x6E7 JUMPI DUP1 PUSH4 0xABD8A033 EQ PUSH2 0x6EE JUMPI PUSH0 PUSH0 REVERT JUMPDEST DUP1 PUSH4 0x7F53243B GT PUSH2 0x1AF JUMPI DUP1 PUSH4 0x7F53243B EQ PUSH2 0x691 JUMPI DUP1 PUSH4 0x8456CB59 EQ PUSH2 0x6A4 JUMPI DUP1 PUSH4 0x8B2D0CCF EQ PUSH2 0x6AC JUMPI DUP1 PUSH4 0x91D14854 EQ PUSH2 0x6CB JUMPI PUSH0 PUSH0 REVERT JUMPDEST DUP1 PUSH4 0x75B238FC EQ PUSH2 0x625 JUMPI DUP1 PUSH4 0x78E97925 EQ PUSH2 0x639 JUMPI DUP1 PUSH4 0x7C83E6C8 EQ PUSH2 0x642 JUMPI PUSH0 PUSH0 REVERT JUMPDEST DUP1 PUSH4 0x3F4BA83A GT PUSH2 0x2AA JUMPI DUP1 PUSH4 0x5C5C0D60 GT PUSH2 0x24A JUMPI DUP1 PUSH4 0x66FF9F80 GT PUSH2 0x225 JUMPI DUP1 PUSH4 0x66FF9F80 EQ PUSH2 0x5C0 JUMPI DUP1 PUSH4 0x720B3AD3 EQ PUSH2 0x5DF JUMPI DUP1 PUSH4 0x73DFCCCA EQ PUSH2 0x5F2 JUMPI DUP1 PUSH4 0x744F90A7 EQ PUSH2 0x612 JUMPI PUSH0 PUSH0 REVERT JUMPDEST DUP1 PUSH4 0x5C5C0D60 EQ PUSH2 0x59B JUMPI DUP1 PUSH4 0x5C975ABB EQ PUSH2 0x5AE JUMPI DUP1 PUSH4 0x5D1DCCB1 EQ PUSH2 0x5B8 JUMPI PUSH0 PUSH0 REVERT JUMPDEST DUP1 PUSH4 0x507F1305 GT PUSH2 0x285 JUMPI DUP1 PUSH4 0x507F1305 EQ PUSH2 0x504 JUMPI DUP1 PUSH4 0x58A13B3A EQ PUSH2 0x517 JUMPI DUP1 PUSH4 0x5AB2D62F EQ PUSH2 0x53E JUMPI DUP1 PUSH4 0x5BAE5E54 EQ PUSH2 0x551 JUMPI PUSH0 PUSH0 REVERT JUMPDEST DUP1 PUSH4 0x3F4BA83A EQ PUSH2 0x4BB JUMPI DUP1 PUSH4 0x43CDAB57 EQ PUSH2 0x4C3 JUMPI DUP1 PUSH4 0x45434445 EQ PUSH2 0x4D6 JUMPI PUSH0 PUSH0 REVERT JUMPDEST DUP1 PUSH4 0x2B6FDC7E GT PUSH2 0x315 JUMPI DUP1 PUSH4 0x2F57C174 GT PUSH2 0x2F0 JUMPI DUP1 PUSH4 0x2F57C174 EQ PUSH2 0x46E JUMPI DUP1 PUSH4 0x323BF9F0 EQ PUSH2 0x48D JUMPI DUP1 PUSH4 0x36568ABE EQ PUSH2 0x4A0 JUMPI DUP1 PUSH4 0x372500AB EQ PUSH2 0x4B3 JUMPI PUSH0 PUSH0 REVERT JUMPDEST DUP1 PUSH4 0x2B6FDC7E EQ PUSH2 0x44A JUMPI DUP1 PUSH4 0x2DEF6620 EQ PUSH2 0x453 JUMPI DUP1 PUSH4 0x2F2FF15D EQ PUSH2 0x45B JUMPI PUSH0 PUSH0 REVERT JUMPDEST DUP1 PUSH4 0x1698FE76 GT PUSH2 0x350 JUMPI DUP1 PUSH4 0x1698FE76 EQ PUSH2 0x3C9 JUMPI DUP1 PUSH4 0x1BD067C5 EQ PUSH2 0x3F4 JUMPI DUP1 PUSH4 0x248A9CA3 EQ PUSH2 0x409 JUMPI DUP1 PUSH4 0x27C1A812 EQ PUSH2 0x41C JUMPI PUSH0 PUSH0 REVERT JUMPDEST DUP1 PUSH4 0x1FFC9A7 EQ PUSH2 0x376 JUMPI DUP1 PUSH4 0x2E4923C EQ PUSH2 0x39E JUMPI DUP1 PUSH4 0xA171DF8 EQ PUSH2 0x3BF JUMPI JUMPDEST PUSH0 PUSH0 REVERT JUMPDEST PUSH2 0x389 PUSH2 0x384 CALLDATASIZE PUSH1 0x4 PUSH2 0x384F JUMP JUMPDEST PUSH2 0x8A3 JUMP JUMPDEST PUSH1 0x40 MLOAD SWAP1 ISZERO ISZERO DUP2 MSTORE PUSH1 0x20 ADD JUMPDEST PUSH1 0x40 MLOAD DUP1 SWAP2 SUB SWAP1 RETURN JUMPDEST PUSH2 0x3B1 PUSH2 0x3AC CALLDATASIZE PUSH1 0x4 PUSH2 0x3891 JUMP JUMPDEST PUSH2 0x8D9 JUMP JUMPDEST PUSH1 0x40 MLOAD SWAP1 DUP2 MSTORE PUSH1 0x20 ADD PUSH2 0x395 JUMP JUMPDEST PUSH2 0x3B1 PUSH3 0x93A80 DUP2 JUMP JUMPDEST PUSH1 0x33 SLOAD PUSH2 0x3DC SWAP1 PUSH1 0x1 PUSH1 0x1 PUSH1 0xA0 SHL SUB AND DUP2 JUMP JUMPDEST PUSH1 0x40 MLOAD PUSH1 0x1 PUSH1 0x1 PUSH1 0xA0 SHL SUB SWAP1 SWAP2 AND DUP2 MSTORE PUSH1 0x20 ADD PUSH2 0x395 JUMP JUMPDEST PUSH2 0x407 PUSH2 0x402 CALLDATASIZE PUSH1 0x4 PUSH2 0x38AA JUMP JUMPDEST PUSH2 0x9C3 JUMP JUMPDEST STOP JUMPDEST PUSH2 0x3B1 PUSH2 0x417 CALLDATASIZE PUSH1 0x4 PUSH2 0x38AA JUMP JUMPDEST PUSH2 0xA40 JUMP JUMPDEST PUSH2 0x3B1 PUSH2 0x42A CALLDATASIZE PUSH1 0x4 PUSH2 0x38C1 JUMP JUMPDEST PUSH0 SWAP2 DUP3 MSTORE PUSH1 0x43 PUSH1 0x20 SWAP1 DUP2 MSTORE PUSH1 0x40 DUP1 DUP5 KECCAK256 SWAP3 DUP5 MSTORE PUSH1 0xB SWAP1 SWAP3 ADD SWAP1 MSTORE SWAP1 KECCAK256 SLOAD SWAP1 JUMP JUMPDEST PUSH2 0x3B1 PUSH1 0x3C SLOAD DUP2 JUMP JUMPDEST PUSH2 0x407 PUSH2 0xA60 JUMP JUMPDEST PUSH2 0x407 PUSH2 0x469 CALLDATASIZE PUSH1 0x4 PUSH2 0x38E1 JUMP JUMPDEST PUSH2 0xC80 JUMP JUMPDEST PUSH2 0x3B1 PUSH2 0x47C CALLDATASIZE PUSH1 0x4 PUSH2 0x3891 JUMP JUMPDEST PUSH1 0x3F PUSH1 0x20 MSTORE PUSH0 SWAP1 DUP2 MSTORE PUSH1 0x40 SWAP1 KECCAK256 SLOAD DUP2 JUMP JUMPDEST PUSH1 0x32 SLOAD PUSH2 0x3DC SWAP1 PUSH1 0x1 PUSH1 0x1 PUSH1 0xA0 SHL SUB AND DUP2 JUMP JUMPDEST PUSH2 0x407 PUSH2 0x4AE CALLDATASIZE PUSH1 0x4 PUSH2 0x38E1 JUMP JUMPDEST PUSH2 0xCA2 JUMP JUMPDEST PUSH2 0x407 PUSH2 0xCDA JUMP JUMPDEST PUSH2 0x407 PUSH2 0xD97 JUMP JUMPDEST PUSH2 0x407 PUSH2 0x4D1 CALLDATASIZE PUSH1 0x4 PUSH2 0x38AA JUMP JUMPDEST PUSH2 0xDB9 JUMP JUMPDEST PUSH2 0x4E9 PUSH2 0x4E4 CALLDATASIZE PUSH1 0x4 PUSH2 0x38C1 JUMP JUMPDEST PUSH2 0xE46 JUMP JUMPDEST PUSH1 0x40 DUP1 MLOAD SWAP4 DUP5 MSTORE PUSH1 0x20 DUP5 ADD SWAP3 SWAP1 SWAP3 MSTORE SWAP1 DUP3 ADD MSTORE PUSH1 0x60 ADD PUSH2 0x395 JUMP JUMPDEST PUSH2 0x407 PUSH2 0x512 CALLDATASIZE PUSH1 0x4 PUSH2 0x3918 JUMP JUMPDEST PUSH2 0xF64 JUMP JUMPDEST PUSH2 0x3B1 PUSH32 0x4C716A0EBD1CFD3E93CA0DB9B9F8A0A9CB7C1D4CC18B52950E1F5528CC73CB5D DUP2 JUMP JUMPDEST PUSH2 0x3B1 PUSH2 0x54C CALLDATASIZE PUSH1 0x4 PUSH2 0x3891 JUMP JUMPDEST PUSH2 0x1153 JUMP JUMPDEST PUSH2 0x586 PUSH2 0x55F CALLDATASIZE PUSH1 0x4 PUSH2 0x3891 JUMP JUMPDEST PUSH1 0x1 PUSH1 0x1 PUSH1 0xA0 SHL SUB AND PUSH0 SWAP1 DUP2 MSTORE PUSH1 0x3E PUSH1 0x20 SWAP1 DUP2 MSTORE PUSH1 0x40 DUP1 DUP4 KECCAK256 SLOAD PUSH1 0x3D SWAP1 SWAP3 MSTORE SWAP1 SWAP2 KECCAK256 SLOAD SWAP1 SWAP2 JUMP JUMPDEST PUSH1 0x40 DUP1 MLOAD SWAP3 DUP4 MSTORE PUSH1 0x20 DUP4 ADD SWAP2 SWAP1 SWAP2 MSTORE ADD PUSH2 0x395 JUMP JUMPDEST PUSH2 0x407 PUSH2 0x5A9 CALLDATASIZE PUSH1 0x4 PUSH2 0x39F5 JUMP JUMPDEST PUSH2 0x134E JUMP JUMPDEST PUSH0 SLOAD PUSH1 0xFF AND PUSH2 0x389 JUMP JUMPDEST PUSH2 0x407 PUSH2 0x146E JUMP JUMPDEST PUSH2 0x3B1 PUSH2 0x5CE CALLDATASIZE PUSH1 0x4 PUSH2 0x3891 JUMP JUMPDEST PUSH1 0x41 PUSH1 0x20 MSTORE PUSH0 SWAP1 DUP2 MSTORE PUSH1 0x40 SWAP1 KECCAK256 SLOAD DUP2 JUMP JUMPDEST PUSH2 0x407 PUSH2 0x5ED CALLDATASIZE PUSH1 0x4 PUSH2 0x3A38 JUMP JUMPDEST PUSH2 0x19A8 JUMP JUMPDEST PUSH2 0x605 PUSH2 0x600 CALLDATASIZE PUSH1 0x4 PUSH2 0x38AA JUMP JUMPDEST PUSH2 0x1D04 JUMP JUMPDEST PUSH1 0x40 MLOAD PUSH2 0x395 SWAP2 SWAP1 PUSH2 0x3AA9 JUMP JUMPDEST PUSH2 0x4E9 PUSH2 0x620 CALLDATASIZE PUSH1 0x4 PUSH2 0x3A38 JUMP JUMPDEST PUSH2 0x1DAA JUMP JUMPDEST PUSH2 0x3B1 PUSH0 MLOAD PUSH1 0x20 PUSH2 0x4149 PUSH0 CODECOPY PUSH0 MLOAD SWAP1 PUSH0 MSTORE DUP2 JUMP JUMPDEST PUSH2 0x3B1 PUSH1 0x3B SLOAD DUP2 JUMP JUMPDEST PUSH2 0x674 PUSH2 0x650 CALLDATASIZE PUSH1 0x4 PUSH2 0x38AA JUMP JUMPDEST PUSH1 0x44 PUSH1 0x20 MSTORE PUSH0 SWAP1 DUP2 MSTORE PUSH1 0x40 SWAP1 KECCAK256 DUP1 SLOAD PUSH1 0x1 DUP3 ADD SLOAD PUSH1 0x2 SWAP1 SWAP3 ADD SLOAD PUSH1 0xFF SWAP1 SWAP2 AND SWAP2 SWAP1 DUP4 JUMP JUMPDEST PUSH1 0x40 DUP1 MLOAD SWAP4 ISZERO ISZERO DUP5 MSTORE PUSH1 0x20 DUP5 ADD SWAP3 SWAP1 SWAP3 MSTORE SWAP1 DUP3 ADD MSTORE PUSH1 0x60 ADD PUSH2 0x395 JUMP JUMPDEST PUSH2 0x3B1 PUSH2 0x69F CALLDATASIZE PUSH1 0x4 PUSH2 0x3ABB JUMP JUMPDEST PUSH2 0x1E4D JUMP JUMPDEST PUSH2 0x407 PUSH2 0x1E78 JUMP JUMPDEST PUSH2 0x3B1 PUSH2 0x6BA CALLDATASIZE PUSH1 0x4 PUSH2 0x3891 JUMP JUMPDEST PUSH1 0x40 PUSH1 0x20 DUP2 SWAP1 MSTORE PUSH0 SWAP2 DUP3 MSTORE SWAP1 KECCAK256 SLOAD DUP2 JUMP JUMPDEST PUSH2 0x389 PUSH2 0x6D9 CALLDATASIZE PUSH1 0x4 PUSH2 0x38E1 JUMP JUMPDEST PUSH2 0x1E97 JUMP JUMPDEST PUSH2 0x3B1 PUSH1 0x35 SLOAD DUP2 JUMP JUMPDEST PUSH2 0x3B1 PUSH0 DUP2 JUMP JUMPDEST PUSH2 0x407 PUSH2 0x6FC CALLDATASIZE PUSH1 0x4 PUSH2 0x38AA JUMP JUMPDEST PUSH2 0x1ECD JUMP JUMPDEST PUSH2 0x3B1 PUSH1 0x38 SLOAD DUP2 JUMP JUMPDEST PUSH2 0x3B1 PUSH2 0x718 CALLDATASIZE PUSH1 0x4 PUSH2 0x3A38 JUMP JUMPDEST PUSH2 0x1F3D JUMP JUMPDEST PUSH2 0x3B1 PUSH2 0x72B CALLDATASIZE PUSH1 0x4 PUSH2 0x3891 JUMP JUMPDEST PUSH2 0x1F81 JUMP JUMPDEST PUSH2 0x3B1 PUSH1 0x37 SLOAD DUP2 JUMP JUMPDEST PUSH2 0x78B PUSH2 0x747 CALLDATASIZE PUSH1 0x4 PUSH2 0x3AE3 JUMP JUMPDEST DUP1 MLOAD PUSH1 0x20 DUP2 DUP4 ADD DUP2 ADD DUP1 MLOAD PUSH1 0x42 DUP3 MSTORE SWAP3 DUP3 ADD SWAP2 SWAP1 SWAP4 ADD KECCAK256 SWAP2 MSTORE DUP1 SLOAD PUSH1 0x1 DUP3 ADD SLOAD PUSH1 0x2 DUP4 ADD SLOAD PUSH1 0x3 DUP5 ADD SLOAD PUSH1 0x4 DUP6 ADD SLOAD PUSH1 0x5 SWAP1 SWAP6 ADD SLOAD PUSH1 0xFF SWAP1 SWAP5 AND SWAP5 SWAP3 SWAP4 SWAP2 SWAP3 SWAP1 SWAP2 DUP7 JUMP JUMPDEST PUSH1 0x40 DUP1 MLOAD SWAP7 ISZERO ISZERO DUP8 MSTORE PUSH1 0x20 DUP8 ADD SWAP6 SWAP1 SWAP6 MSTORE SWAP4 DUP6 ADD SWAP3 SWAP1 SWAP3 MSTORE PUSH1 0x60 DUP5 ADD MSTORE PUSH1 0x80 DUP4 ADD MSTORE PUSH1 0xA0 DUP3 ADD MSTORE PUSH1 0xC0 ADD PUSH2 0x395 JUMP JUMPDEST PUSH2 0x3B1 PUSH2 0x2045 JUMP JUMPDEST PUSH2 0x407 PUSH2 0x7D0 CALLDATASIZE PUSH1 0x4 PUSH2 0x3B14 JUMP JUMPDEST PUSH2 0x2067 JUMP JUMPDEST PUSH2 0x407 PUSH2 0x7E3 CALLDATASIZE PUSH1 0x4 PUSH2 0x38AA JUMP JUMPDEST PUSH2 0x21DD JUMP JUMPDEST PUSH2 0x407 PUSH2 0x7F6 CALLDATASIZE PUSH1 0x4 PUSH2 0x38E1 JUMP JUMPDEST PUSH2 0x21FA JUMP JUMPDEST PUSH2 0x3B1 PUSH4 0x5F5E100 DUP2 JUMP JUMPDEST PUSH2 0x3B1 PUSH1 0x3A SLOAD DUP2 JUMP JUMPDEST PUSH2 0x3B1 PUSH1 0x39 SLOAD DUP2 JUMP JUMPDEST PUSH2 0x3B1 PUSH0 MLOAD PUSH1 0x20 PUSH2 0x4109 PUSH0 CODECOPY PUSH0 MLOAD SWAP1 PUSH0 MSTORE DUP2 JUMP JUMPDEST PUSH2 0x407 PUSH2 0x83A CALLDATASIZE PUSH1 0x4 PUSH2 0x3A38 JUMP JUMPDEST PUSH2 0x2216 JUMP JUMPDEST PUSH2 0x3B1 PUSH3 0x989680 DUP2 JUMP JUMPDEST PUSH2 0x3B1 PUSH2 0x857 CALLDATASIZE PUSH1 0x4 PUSH2 0x3ABB JUMP JUMPDEST PUSH2 0x2258 JUMP JUMPDEST PUSH2 0x86F PUSH2 0x86A CALLDATASIZE PUSH1 0x4 PUSH2 0x38AA JUMP JUMPDEST PUSH2 0x2271 JUMP JUMPDEST PUSH1 0x40 MLOAD PUSH2 0x395 SWAP13 SWAP12 SWAP11 SWAP10 SWAP9 SWAP8 SWAP7 SWAP6 SWAP5 SWAP4 SWAP3 SWAP2 SWAP1 PUSH2 0x3B2F JUMP JUMPDEST PUSH2 0x3B1 PUSH1 0x36 SLOAD DUP2 JUMP JUMPDEST PUSH2 0x407 PUSH2 0x89E CALLDATASIZE PUSH1 0x4 PUSH2 0x3CA1 JUMP JUMPDEST PUSH2 0x235B JUMP JUMPDEST PUSH0 PUSH1 0x1 PUSH1 0x1 PUSH1 0xE0 SHL SUB NOT DUP3 AND PUSH4 0x7965DB0B PUSH1 0xE0 SHL EQ DUP1 PUSH2 0x8D3 JUMPI POP PUSH4 0x1FFC9A7 PUSH1 0xE0 SHL PUSH1 0x1 PUSH1 0x1 PUSH1 0xE0 SHL SUB NOT DUP4 AND EQ JUMPDEST SWAP3 SWAP2 POP POP JUMP JUMPDEST PUSH0 PUSH0 PUSH2 0x8E4 DUP4 PUSH2 0x1F81 JUMP JUMPDEST PUSH0 DUP2 DUP2 MSTORE PUSH1 0x43 PUSH1 0x20 MSTORE PUSH1 0x40 SWAP1 KECCAK256 PUSH1 0x6 DUP2 ADD SLOAD PUSH1 0x4 SWAP1 SWAP2 ADD SLOAD SWAP2 SWAP3 POP SWAP1 ISZERO PUSH2 0x989 JUMPI PUSH1 0x37 SLOAD PUSH0 DUP4 DUP2 MSTORE PUSH1 0x43 PUSH1 0x20 MSTORE PUSH1 0x40 DUP2 KECCAK256 PUSH1 0x4 ADD SLOAD SWAP1 SWAP2 SWAP1 PUSH2 0x926 SWAP1 TIMESTAMP PUSH2 0x3DC6 JUMP JUMPDEST PUSH2 0x930 SWAP2 SWAP1 PUSH2 0x3DD9 JUMP JUMPDEST PUSH1 0x37 SLOAD PUSH0 DUP6 DUP2 MSTORE PUSH1 0x43 PUSH1 0x20 MSTORE PUSH1 0x40 DUP2 KECCAK256 PUSH1 0x3 ADD SLOAD SWAP3 SWAP4 POP SWAP2 PUSH2 0x952 SWAP2 SWAP1 PUSH2 0x3DD9 JUMP JUMPDEST SWAP1 POP DUP2 DUP2 GT ISZERO PUSH2 0x982 JUMPI DUP1 PUSH2 0x967 DUP4 DUP3 PUSH2 0x3DC6 JUMP JUMPDEST PUSH2 0x971 SWAP1 DUP6 PUSH2 0x3DF8 JUMP JUMPDEST PUSH2 0x97B SWAP2 SWAP1 PUSH2 0x3DD9 JUMP JUMPDEST SWAP3 POP PUSH2 0x986 JUMP JUMPDEST PUSH0 SWAP3 POP JUMPDEST POP POP JUMPDEST PUSH1 0x1 PUSH1 0x1 PUSH1 0xA0 SHL SUB DUP5 AND PUSH0 SWAP1 DUP2 MSTORE PUSH1 0x41 PUSH1 0x20 SWAP1 DUP2 MSTORE PUSH1 0x40 DUP1 DUP4 KECCAK256 SLOAD DUP4 MSTORE PUSH1 0x43 SWAP1 SWAP2 MSTORE SWAP1 KECCAK256 PUSH1 0x6 ADD SLOAD PUSH2 0x9BB SWAP1 DUP3 PUSH2 0x3E0F JUMP JUMPDEST SWAP5 SWAP4 POP POP POP POP JUMP JUMPDEST PUSH0 MLOAD PUSH1 0x20 PUSH2 0x4149 PUSH0 CODECOPY PUSH0 MLOAD SWAP1 PUSH0 MSTORE PUSH2 0x9DA DUP2 PUSH2 0x2879 JUMP JUMPDEST PUSH1 0x1 DUP3 LT ISZERO PUSH2 0xA3A JUMPI PUSH1 0x40 MLOAD PUSH3 0x461BCD PUSH1 0xE5 SHL DUP2 MSTORE PUSH1 0x20 PUSH1 0x4 DUP3 ADD MSTORE PUSH1 0x21 PUSH1 0x24 DUP3 ADD MSTORE PUSH32 0x4D696E696D756D20616D6F756E74206D757374206265206174206C6561737420 PUSH1 0x44 DUP3 ADD MSTORE PUSH1 0x31 PUSH1 0xF8 SHL PUSH1 0x64 DUP3 ADD MSTORE PUSH1 0x84 ADD JUMPDEST PUSH1 0x40 MLOAD DUP1 SWAP2 SUB SWAP1 REVERT JUMPDEST POP PUSH1 0x38 SSTORE JUMP JUMPDEST PUSH0 SWAP1 DUP2 MSTORE PUSH0 MLOAD PUSH1 0x20 PUSH2 0x4129 PUSH0 CODECOPY PUSH0 MLOAD SWAP1 PUSH0 MSTORE PUSH1 0x20 MSTORE PUSH1 0x40 SWAP1 KECCAK256 PUSH1 0x1 ADD SLOAD SWAP1 JUMP JUMPDEST PUSH2 0xA68 PUSH2 0x2883 JUMP JUMPDEST PUSH0 PUSH2 0xA72 CALLER PUSH2 0x1F81 JUMP JUMPDEST SWAP1 POP DUP1 PUSH0 SUB PUSH2 0xABA JUMPI PUSH1 0x40 MLOAD PUSH3 0x461BCD PUSH1 0xE5 SHL DUP2 MSTORE PUSH1 0x20 PUSH1 0x4 DUP3 ADD MSTORE PUSH1 0x14 PUSH1 0x24 DUP3 ADD MSTORE PUSH20 0x139BC81858DD1A5D99481B1BD8DAC8199BDD5B99 PUSH1 0x62 SHL PUSH1 0x44 DUP3 ADD MSTORE PUSH1 0x64 ADD PUSH2 0xA31 JUMP JUMPDEST PUSH0 DUP2 DUP2 MSTORE PUSH1 0x43 PUSH1 0x20 MSTORE PUSH1 0x40 SWAP1 KECCAK256 PUSH1 0x5 ADD SLOAD TIMESTAMP GT PUSH2 0xB29 JUMPI PUSH1 0x40 MLOAD PUSH3 0x461BCD PUSH1 0xE5 SHL DUP2 MSTORE PUSH1 0x20 PUSH1 0x4 DUP3 ADD MSTORE PUSH1 0x27 PUSH1 0x24 DUP3 ADD MSTORE PUSH32 0x43616E6E6F7420756E7374616B65206265666F726520746865206C6F636B2065 PUSH1 0x44 DUP3 ADD MSTORE PUSH7 0x6E642074696D65 PUSH1 0xC8 SHL PUSH1 0x64 DUP3 ADD MSTORE PUSH1 0x84 ADD PUSH2 0xA31 JUMP JUMPDEST PUSH1 0x32 SLOAD PUSH0 DUP3 DUP2 MSTORE PUSH1 0x43 PUSH1 0x20 MSTORE PUSH1 0x40 SWAP1 DUP2 SWAP1 KECCAK256 PUSH1 0x1 ADD SLOAD SWAP1 MLOAD PUSH4 0xA9059CBB PUSH1 0xE0 SHL DUP2 MSTORE CALLER PUSH1 0x4 DUP3 ADD MSTORE PUSH1 0x24 DUP2 ADD SWAP2 SWAP1 SWAP2 MSTORE PUSH1 0x1 PUSH1 0x1 PUSH1 0xA0 SHL SUB SWAP1 SWAP2 AND SWAP1 PUSH4 0xA9059CBB SWAP1 PUSH1 0x44 ADD PUSH1 0x20 PUSH1 0x40 MLOAD DUP1 DUP4 SUB DUP2 PUSH0 DUP8 GAS CALL ISZERO DUP1 ISZERO PUSH2 0xB8A JUMPI RETURNDATASIZE PUSH0 PUSH0 RETURNDATACOPY RETURNDATASIZE PUSH0 REVERT JUMPDEST POP POP POP POP PUSH1 0x40 MLOAD RETURNDATASIZE PUSH1 0x1F NOT PUSH1 0x1F DUP3 ADD AND DUP3 ADD DUP1 PUSH1 0x40 MSTORE POP DUP2 ADD SWAP1 PUSH2 0xBAE SWAP2 SWAP1 PUSH2 0x3E22 JUMP JUMPDEST POP PUSH1 0x33 SLOAD PUSH0 DUP3 DUP2 MSTORE PUSH1 0x43 PUSH1 0x20 MSTORE PUSH1 0x40 SWAP1 DUP2 SWAP1 KECCAK256 PUSH1 0x6 ADD SLOAD SWAP1 MLOAD PUSH4 0x6888C67 PUSH1 0xE1 SHL DUP2 MSTORE CALLER PUSH1 0x4 DUP3 ADD MSTORE PUSH1 0x24 DUP2 ADD SWAP2 SWAP1 SWAP2 MSTORE PUSH1 0x1 PUSH1 0x1 PUSH1 0xA0 SHL SUB SWAP1 SWAP2 AND SWAP1 PUSH4 0xD1118CE SWAP1 PUSH1 0x44 ADD PUSH0 PUSH1 0x40 MLOAD DUP1 DUP4 SUB DUP2 PUSH0 DUP8 DUP1 EXTCODESIZE ISZERO DUP1 ISZERO PUSH2 0xC0B JUMPI PUSH0 PUSH0 REVERT JUMPDEST POP GAS CALL ISZERO DUP1 ISZERO PUSH2 0xC1D JUMPI RETURNDATASIZE PUSH0 PUSH0 RETURNDATACOPY RETURNDATASIZE PUSH0 REVERT JUMPDEST POP POP POP PUSH0 DUP3 DUP2 MSTORE PUSH1 0x43 PUSH1 0x20 MSTORE PUSH1 0x40 SWAP1 DUP2 SWAP1 KECCAK256 PUSH1 0x2 DUP2 ADD DUP1 SLOAD PUSH2 0xFF00 NOT AND SWAP1 SSTORE PUSH1 0x5 ADD SLOAD SWAP1 MLOAD DUP4 SWAP3 POP CALLER SWAP2 PUSH32 0x92CCF450A286A957AF52509BC1C9939D1A6A481783E142E41E2499F0BB66EBC6 SWAP2 PUSH2 0xC75 SWAP2 DUP2 MSTORE PUSH1 0x20 ADD SWAP1 JUMP JUMPDEST PUSH1 0x40 MLOAD DUP1 SWAP2 SUB SWAP1 LOG3 POP JUMP JUMPDEST PUSH2 0xC89 DUP3 PUSH2 0xA40 JUMP JUMPDEST PUSH2 0xC92 DUP2 PUSH2 0x2879 JUMP JUMPDEST PUSH2 0xC9C DUP4 DUP4 PUSH2 0x28CA JUMP JUMPDEST POP POP POP POP JUMP JUMPDEST PUSH1 0x1 PUSH1 0x1 PUSH1 0xA0 SHL SUB DUP2 AND CALLER EQ PUSH2 0xCCB JUMPI PUSH1 0x40 MLOAD PUSH4 0x334BD919 PUSH1 0xE1 SHL DUP2 MSTORE PUSH1 0x4 ADD PUSH1 0x40 MLOAD DUP1 SWAP2 SUB SWAP1 REVERT JUMPDEST PUSH2 0xCD5 DUP3 DUP3 PUSH2 0x296B JUMP JUMPDEST POP POP POP JUMP JUMPDEST PUSH2 0xCE2 PUSH2 0x2883 JUMP JUMPDEST PUSH0 PUSH2 0xCEB PUSH2 0x29E4 JUMP JUMPDEST PUSH1 0x32 SLOAD PUSH1 0x40 MLOAD PUSH4 0xA9059CBB PUSH1 0xE0 SHL DUP2 MSTORE CALLER PUSH1 0x4 DUP3 ADD MSTORE PUSH1 0x24 DUP2 ADD DUP4 SWAP1 MSTORE SWAP2 SWAP3 POP PUSH1 0x1 PUSH1 0x1 PUSH1 0xA0 SHL SUB AND SWAP1 PUSH4 0xA9059CBB SWAP1 PUSH1 0x44 ADD PUSH1 0x20 PUSH1 0x40 MLOAD DUP1 DUP4 SUB DUP2 PUSH0 DUP8 GAS CALL ISZERO DUP1 ISZERO PUSH2 0xD3A JUMPI RETURNDATASIZE PUSH0 PUSH0 RETURNDATACOPY RETURNDATASIZE PUSH0 REVERT JUMPDEST POP POP POP POP PUSH1 0x40 MLOAD RETURNDATASIZE PUSH1 0x1F NOT PUSH1 0x1F DUP3 ADD AND DUP3 ADD DUP1 PUSH1 0x40 MSTORE POP DUP2 ADD SWAP1 PUSH2 0xD5E SWAP2 SWAP1 PUSH2 0x3E22 JUMP JUMPDEST POP PUSH1 0x40 MLOAD DUP2 DUP2 MSTORE CALLER SWAP1 PUSH32 0xFC30CDDEA38E2BF4D6EA7D3F9ED3B6AD7F176419F4963BD81318067A4AEE73FE SWAP1 PUSH1 0x20 ADD PUSH1 0x40 MLOAD DUP1 SWAP2 SUB SWAP1 LOG2 POP JUMP JUMPDEST PUSH0 MLOAD PUSH1 0x20 PUSH2 0x4109 PUSH0 CODECOPY PUSH0 MLOAD SWAP1 PUSH0 MSTORE PUSH2 0xDAE DUP2 PUSH2 0x2879 JUMP JUMPDEST PUSH2 0xDB6 PUSH2 0x2AC3 JUMP JUMPDEST POP JUMP JUMPDEST PUSH0 MLOAD PUSH1 0x20 PUSH2 0x4149 PUSH0 CODECOPY PUSH0 MLOAD SWAP1 PUSH0 MSTORE PUSH2 0xDD0 DUP2 PUSH2 0x2879 JUMP JUMPDEST PUSH0 DUP3 GT DUP1 ISZERO PUSH2 0xDE2 JUMPI POP PUSH3 0x93A80 DUP3 GT ISZERO JUMPDEST PUSH2 0xE40 JUMPI PUSH1 0x40 MLOAD PUSH3 0x461BCD PUSH1 0xE5 SHL DUP2 MSTORE PUSH1 0x20 PUSH1 0x4 DUP3 ADD MSTORE PUSH1 0x29 PUSH1 0x24 DUP3 ADD MSTORE PUSH32 0x496E74657276616C2073686F756C642062652077697468696E20746865207661 PUSH1 0x44 DUP3 ADD MSTORE PUSH9 0x6C69642072616E6765 PUSH1 0xB8 SHL PUSH1 0x64 DUP3 ADD MSTORE PUSH1 0x84 ADD PUSH2 0xA31 JUMP JUMPDEST POP PUSH1 0x37 SSTORE JUMP JUMPDEST PUSH0 DUP3 DUP2 MSTORE PUSH1 0x43 PUSH1 0x20 MSTORE PUSH1 0x40 DUP2 KECCAK256 PUSH1 0x1 DUP2 ADD SLOAD DUP3 SWAP2 DUP3 SWAP2 PUSH2 0xE9A JUMPI PUSH1 0x40 MLOAD PUSH3 0x461BCD PUSH1 0xE5 SHL DUP2 MSTORE PUSH1 0x20 PUSH1 0x4 DUP3 ADD MSTORE PUSH1 0xF PUSH1 0x24 DUP3 ADD MSTORE PUSH15 0x125B9D985B1A5908131BD8DAC81259 PUSH1 0x8A SHL PUSH1 0x44 DUP3 ADD MSTORE PUSH1 0x64 ADD PUSH2 0xA31 JUMP JUMPDEST PUSH1 0x2 DUP2 ADD SLOAD PUSH0 SWAP1 PUSH1 0xFF AND PUSH2 0xEB2 JUMPI DUP2 PUSH1 0x9 ADD SLOAD PUSH2 0xEB6 JUMP JUMPDEST PUSH1 0x36 SLOAD JUMPDEST PUSH1 0x8 DUP4 ADD SLOAD SWAP5 POP SWAP1 POP PUSH0 PUSH2 0xECA DUP8 DUP7 PUSH2 0x3E0F JUMP JUMPDEST PUSH0 DUP7 DUP2 MSTORE PUSH1 0xB DUP6 ADD PUSH1 0x20 MSTORE PUSH1 0x40 SWAP1 KECCAK256 SLOAD SWAP5 POP SWAP1 POP JUMPDEST DUP5 DUP2 GT DUP1 ISZERO PUSH2 0xEED JUMPI POP DUP5 DUP3 GT JUMPDEST ISZERO PUSH2 0xF5A JUMPI PUSH0 DUP6 DUP2 MSTORE PUSH1 0x44 PUSH1 0x20 MSTORE PUSH1 0x40 SWAP1 KECCAK256 PUSH1 0x1 ADD SLOAD ISZERO PUSH2 0xF5A JUMPI PUSH2 0xF13 DUP6 DUP10 DUP7 PUSH2 0x2B14 JUMP JUMPDEST PUSH2 0xF1D SWAP1 DUP8 PUSH2 0x3E0F JUMP JUMPDEST PUSH0 DUP7 DUP2 MSTORE PUSH1 0xB DUP6 ADD PUSH1 0x20 MSTORE PUSH1 0x40 SWAP1 KECCAK256 SLOAD SWAP1 SWAP7 POP ISZERO PUSH2 0xF48 JUMPI PUSH0 DUP6 DUP2 MSTORE PUSH1 0xB DUP5 ADD PUSH1 0x20 MSTORE PUSH1 0x40 SWAP1 KECCAK256 SLOAD SWAP4 POP JUMPDEST DUP5 PUSH2 0xF52 DUP2 PUSH2 0x3E3D JUMP JUMPDEST SWAP6 POP POP PUSH2 0xEDF JUMP JUMPDEST POP POP POP SWAP3 POP SWAP3 POP SWAP3 JUMP JUMPDEST PUSH2 0xF6C PUSH2 0x2883 JUMP JUMPDEST PUSH0 DUP2 ISZERO PUSH2 0x1007 JUMPI POP CALLER PUSH0 SWAP1 DUP2 MSTORE PUSH1 0x41 PUSH1 0x20 MSTORE PUSH1 0x40 DUP2 KECCAK256 SLOAD SWAP1 DUP2 SWAP1 SUB PUSH2 0xFA3 JUMPI PUSH1 0x40 MLOAD PUSH3 0x461BCD PUSH1 0xE5 SHL DUP2 MSTORE PUSH1 0x4 ADD PUSH2 0xA31 SWAP1 PUSH2 0x3E55 JUMP JUMPDEST PUSH1 0x32 SLOAD PUSH1 0x40 MLOAD PUSH4 0x79CC679 PUSH1 0xE4 SHL DUP2 MSTORE CALLER PUSH1 0x4 DUP3 ADD MSTORE PUSH1 0x24 DUP2 ADD DUP6 SWAP1 MSTORE PUSH1 0x1 PUSH1 0x1 PUSH1 0xA0 SHL SUB SWAP1 SWAP2 AND SWAP1 PUSH4 0x79CC6790 SWAP1 PUSH1 0x44 ADD PUSH0 PUSH1 0x40 MLOAD DUP1 DUP4 SUB DUP2 PUSH0 DUP8 DUP1 EXTCODESIZE ISZERO DUP1 ISZERO PUSH2 0xFEC JUMPI PUSH0 PUSH0 REVERT JUMPDEST POP GAS CALL ISZERO DUP1 ISZERO PUSH2 0xFFE JUMPI RETURNDATASIZE PUSH0 PUSH0 RETURNDATACOPY RETURNDATASIZE PUSH0 REVERT JUMPDEST POP POP POP POP PUSH2 0x10EE JUMP JUMPDEST PUSH2 0x1010 CALLER PUSH2 0x1F81 JUMP JUMPDEST SWAP1 POP DUP1 ISZERO DUP1 ISZERO SWAP1 PUSH2 0x1030 JUMPI POP PUSH0 DUP2 DUP2 MSTORE PUSH1 0x43 PUSH1 0x20 MSTORE PUSH1 0x40 SWAP1 KECCAK256 PUSH1 0x5 ADD SLOAD TIMESTAMP LT JUMPDEST PUSH2 0x1074 JUMPI PUSH1 0x40 MLOAD PUSH3 0x461BCD PUSH1 0xE5 SHL DUP2 MSTORE PUSH1 0x20 PUSH1 0x4 DUP3 ADD MSTORE PUSH1 0x15 PUSH1 0x24 DUP3 ADD MSTORE PUSH21 0x4E6F20416374697665206C6F636B20657869737473 PUSH1 0x58 SHL PUSH1 0x44 DUP3 ADD MSTORE PUSH1 0x64 ADD PUSH2 0xA31 JUMP JUMPDEST PUSH1 0x32 SLOAD PUSH1 0x40 MLOAD PUSH4 0x23B872DD PUSH1 0xE0 SHL DUP2 MSTORE CALLER PUSH1 0x4 DUP3 ADD MSTORE ADDRESS PUSH1 0x24 DUP3 ADD MSTORE PUSH1 0x44 DUP2 ADD DUP6 SWAP1 MSTORE PUSH1 0x1 PUSH1 0x1 PUSH1 0xA0 SHL SUB SWAP1 SWAP2 AND SWAP1 PUSH4 0x23B872DD SWAP1 PUSH1 0x64 ADD PUSH1 0x20 PUSH1 0x40 MLOAD DUP1 DUP4 SUB DUP2 PUSH0 DUP8 GAS CALL ISZERO DUP1 ISZERO PUSH2 0x10C8 JUMPI RETURNDATASIZE PUSH0 PUSH0 RETURNDATACOPY RETURNDATASIZE PUSH0 REVERT JUMPDEST POP POP POP POP PUSH1 0x40 MLOAD RETURNDATASIZE PUSH1 0x1F NOT PUSH1 0x1F DUP3 ADD AND DUP3 ADD DUP1 PUSH1 0x40 MSTORE POP DUP2 ADD SWAP1 PUSH2 0x10EC SWAP2 SWAP1 PUSH2 0x3E22 JUMP JUMPDEST POP JUMPDEST PUSH2 0x10F8 DUP4 DUP3 PUSH2 0x2C87 JUMP JUMPDEST PUSH0 DUP2 DUP2 MSTORE PUSH1 0x43 PUSH1 0x20 SWAP1 DUP2 MSTORE PUSH1 0x40 SWAP2 DUP3 SWAP1 KECCAK256 PUSH1 0x1 DUP2 ADD SLOAD PUSH1 0x6 SWAP1 SWAP2 ADD SLOAD DUP4 MLOAD SWAP2 DUP3 MSTORE SWAP2 DUP2 ADD SWAP2 SWAP1 SWAP2 MSTORE DUP3 SWAP2 PUSH32 0x7975828CB9027121837D9D3A5EDA3D9BF35A6582D2EC4684B110AE0B553BB4F6 SWAP2 ADD JUMPDEST PUSH1 0x40 MLOAD DUP1 SWAP2 SUB SWAP1 LOG2 POP POP POP JUMP JUMPDEST PUSH1 0x1 PUSH1 0x1 PUSH1 0xA0 SHL SUB DUP2 AND PUSH0 SWAP1 DUP2 MSTORE PUSH1 0x3F PUSH1 0x20 MSTORE PUSH1 0x40 DUP2 KECCAK256 SLOAD DUP2 SWAP1 DUP2 SWAP1 JUMPDEST PUSH1 0x1 PUSH1 0x1 PUSH1 0xA0 SHL SUB DUP6 AND PUSH0 SWAP1 DUP2 MSTORE PUSH1 0x3E PUSH1 0x20 MSTORE PUSH1 0x40 SWAP1 KECCAK256 SLOAD DUP2 LT ISZERO PUSH2 0x128D JUMPI PUSH1 0x1 PUSH1 0x1 PUSH1 0xA0 SHL SUB DUP6 AND PUSH0 SWAP1 DUP2 MSTORE PUSH1 0x3E PUSH1 0x20 MSTORE PUSH1 0x40 DUP2 KECCAK256 DUP1 SLOAD PUSH2 0x1272 SWAP2 SWAP1 DUP5 SWAP1 DUP2 LT PUSH2 0x11BD JUMPI PUSH2 0x11BD PUSH2 0x3E9F JUMP JUMPDEST SWAP1 PUSH0 MSTORE PUSH1 0x20 PUSH0 KECCAK256 ADD SLOAD PUSH1 0x43 PUSH0 PUSH1 0x3E PUSH0 DUP12 PUSH1 0x1 PUSH1 0x1 PUSH1 0xA0 SHL SUB AND PUSH1 0x1 PUSH1 0x1 PUSH1 0xA0 SHL SUB AND DUP2 MSTORE PUSH1 0x20 ADD SWAP1 DUP2 MSTORE PUSH1 0x20 ADD PUSH0 KECCAK256 DUP7 DUP2 SLOAD DUP2 LT PUSH2 0x11FD JUMPI PUSH2 0x11FD PUSH2 0x3E9F JUMP JUMPDEST SWAP1 PUSH0 MSTORE PUSH1 0x20 PUSH0 KECCAK256 ADD SLOAD DUP2 MSTORE PUSH1 0x20 ADD SWAP1 DUP2 MSTORE PUSH1 0x20 ADD PUSH0 KECCAK256 PUSH1 0x8 ADD SLOAD PUSH1 0x43 PUSH0 PUSH1 0x3E PUSH0 DUP13 PUSH1 0x1 PUSH1 0x1 PUSH1 0xA0 SHL SUB AND PUSH1 0x1 PUSH1 0x1 PUSH1 0xA0 SHL SUB AND DUP2 MSTORE PUSH1 0x20 ADD SWAP1 DUP2 MSTORE PUSH1 0x20 ADD PUSH0 KECCAK256 DUP8 DUP2 SLOAD DUP2 LT PUSH2 0x124E JUMPI PUSH2 0x124E PUSH2 0x3E9F JUMP JUMPDEST SWAP1 PUSH0 MSTORE PUSH1 0x20 PUSH0 KECCAK256 ADD SLOAD DUP2 MSTORE PUSH1 0x20 ADD SWAP1 DUP2 MSTORE PUSH1 0x20 ADD PUSH0 KECCAK256 PUSH1 0x9 ADD SLOAD PUSH2 0x4E4 SWAP2 SWAP1 PUSH2 0x3DC6 JUMP JUMPDEST POP POP SWAP1 POP DUP1 DUP5 PUSH2 0x1282 SWAP2 SWAP1 PUSH2 0x3E0F JUMP JUMPDEST SWAP4 POP POP PUSH1 0x1 ADD PUSH2 0x1170 JUMP JUMPDEST POP PUSH1 0x1 PUSH1 0x1 PUSH1 0xA0 SHL SUB DUP5 AND PUSH0 SWAP1 DUP2 MSTORE PUSH1 0x41 PUSH1 0x20 MSTORE PUSH1 0x40 SWAP1 KECCAK256 SLOAD ISZERO DUP1 ISZERO SWAP1 PUSH2 0x12DC JUMPI POP PUSH1 0x1 PUSH1 0x1 PUSH1 0xA0 SHL SUB DUP5 AND PUSH0 SWAP1 DUP2 MSTORE PUSH1 0x41 PUSH1 0x20 SWAP1 DUP2 MSTORE PUSH1 0x40 DUP1 DUP4 KECCAK256 SLOAD DUP4 MSTORE PUSH1 0x43 SWAP1 SWAP2 MSTORE SWAP1 KECCAK256 PUSH1 0x8 ADD SLOAD PUSH1 0x36 SLOAD GT JUMPDEST ISZERO PUSH2 0x1322 JUMPI PUSH1 0x1 PUSH1 0x1 PUSH1 0xA0 SHL SUB DUP5 AND PUSH0 SWAP1 DUP2 MSTORE PUSH1 0x41 PUSH1 0x20 SWAP1 DUP2 MSTORE PUSH1 0x40 DUP1 DUP4 KECCAK256 SLOAD DUP1 DUP5 MSTORE PUSH1 0x43 SWAP1 SWAP3 MSTORE SWAP1 SWAP2 KECCAK256 PUSH1 0x8 ADD SLOAD PUSH1 0x36 SLOAD PUSH2 0x131C SWAP3 SWAP2 PUSH2 0x4E4 SWAP2 PUSH2 0x3DC6 JUMP JUMPDEST POP SWAP1 SWAP2 POP POP JUMPDEST PUSH1 0x1 PUSH1 0x1 PUSH1 0xA0 SHL SUB DUP5 AND PUSH0 SWAP1 DUP2 MSTORE PUSH1 0x40 PUSH1 0x20 DUP2 SWAP1 MSTORE SWAP1 KECCAK256 SLOAD PUSH2 0x1344 DUP3 DUP5 PUSH2 0x3E0F JUMP JUMPDEST PUSH2 0x9BB SWAP2 SWAP1 PUSH2 0x3E0F JUMP JUMPDEST PUSH0 MLOAD PUSH1 0x20 PUSH2 0x4149 PUSH0 CODECOPY PUSH0 MLOAD SWAP1 PUSH0 MSTORE PUSH2 0x1365 DUP2 PUSH2 0x2879 JUMP JUMPDEST PUSH1 0x34 SLOAD PUSH0 SWAP1 DUP2 JUMPDEST DUP2 DUP2 LT ISZERO PUSH2 0x13F2 JUMPI DUP6 PUSH1 0x40 MLOAD PUSH1 0x20 ADD PUSH2 0x1385 SWAP2 SWAP1 PUSH2 0x3EB3 JUMP JUMPDEST PUSH1 0x40 MLOAD PUSH1 0x20 DUP2 DUP4 SUB SUB DUP2 MSTORE SWAP1 PUSH1 0x40 MSTORE DUP1 MLOAD SWAP1 PUSH1 0x20 ADD KECCAK256 PUSH1 0x34 DUP3 DUP2 SLOAD DUP2 LT PUSH2 0x13AE JUMPI PUSH2 0x13AE PUSH2 0x3E9F JUMP JUMPDEST SWAP1 PUSH0 MSTORE PUSH1 0x20 PUSH0 KECCAK256 ADD PUSH1 0x40 MLOAD PUSH1 0x20 ADD PUSH2 0x13C6 SWAP2 SWAP1 PUSH2 0x3EFB JUMP JUMPDEST PUSH1 0x40 MLOAD PUSH1 0x20 DUP2 DUP4 SUB SUB DUP2 MSTORE SWAP1 PUSH1 0x40 MSTORE DUP1 MLOAD SWAP1 PUSH1 0x20 ADD KECCAK256 SUB PUSH2 0x13EA JUMPI PUSH1 0x1 SWAP3 POP PUSH2 0x13F2 JUMP JUMPDEST PUSH1 0x1 ADD PUSH2 0x136C JUMP JUMPDEST POP DUP2 PUSH2 0x1436 JUMPI PUSH1 0x40 MLOAD PUSH3 0x461BCD PUSH1 0xE5 SHL DUP2 MSTORE PUSH1 0x20 PUSH1 0x4 DUP3 ADD MSTORE PUSH1 0x13 PUSH1 0x24 DUP3 ADD MSTORE PUSH19 0x141BDBDB08191BD95CC81B9BDD08195E1A5CDD PUSH1 0x6A SHL PUSH1 0x44 DUP3 ADD MSTORE PUSH1 0x64 ADD PUSH2 0xA31 JUMP JUMPDEST DUP4 PUSH1 0x42 DUP7 PUSH1 0x40 MLOAD PUSH2 0x1447 SWAP2 SWAP1 PUSH2 0x3EB3 JUMP JUMPDEST SWAP1 DUP2 MSTORE PUSH1 0x40 MLOAD SWAP1 DUP2 SWAP1 SUB PUSH1 0x20 ADD SWAP1 KECCAK256 DUP1 SLOAD SWAP2 ISZERO ISZERO PUSH1 0xFF NOT SWAP1 SWAP3 AND SWAP2 SWAP1 SWAP2 OR SWAP1 SSTORE POP POP POP POP POP JUMP JUMPDEST PUSH32 0x4C716A0EBD1CFD3E93CA0DB9B9F8A0A9CB7C1D4CC18B52950E1F5528CC73CB5D PUSH2 0x1498 DUP2 PUSH2 0x2879 JUMP JUMPDEST PUSH2 0x14A0 PUSH2 0x2883 JUMP JUMPDEST PUSH1 0x3A SLOAD PUSH1 0x32 SLOAD PUSH1 0x40 MLOAD PUSH4 0x70A08231 PUSH1 0xE0 SHL DUP2 MSTORE CALLER PUSH1 0x4 DUP3 ADD MSTORE PUSH0 SWAP3 PUSH3 0x989680 SWAP3 SWAP1 SWAP2 PUSH1 0x1 PUSH1 0x1 PUSH1 0xA0 SHL SUB SWAP1 SWAP2 AND SWAP1 PUSH4 0x70A08231 SWAP1 PUSH1 0x24 ADD PUSH1 0x20 PUSH1 0x40 MLOAD DUP1 DUP4 SUB DUP2 DUP7 GAS STATICCALL ISZERO DUP1 ISZERO PUSH2 0x14F2 JUMPI RETURNDATASIZE PUSH0 PUSH0 RETURNDATACOPY RETURNDATASIZE PUSH0 REVERT JUMPDEST POP POP POP POP PUSH1 0x40 MLOAD RETURNDATASIZE PUSH1 0x1F NOT PUSH1 0x1F DUP3 ADD AND DUP3 ADD DUP1 PUSH1 0x40 MSTORE POP DUP2 ADD SWAP1 PUSH2 0x1516 SWAP2 SWAP1 PUSH2 0x3F6C JUMP JUMPDEST PUSH2 0x1520 SWAP2 SWAP1 PUSH2 0x3DF8 JUMP JUMPDEST PUSH2 0x152A SWAP2 SWAP1 PUSH2 0x3DD9 JUMP JUMPDEST SWAP1 POP PUSH1 0x39 SLOAD DUP2 LT ISZERO PUSH2 0x1591 JUMPI PUSH1 0x40 MLOAD PUSH3 0x461BCD PUSH1 0xE5 SHL DUP2 MSTORE PUSH1 0x20 PUSH1 0x4 DUP3 ADD MSTORE PUSH1 0x2A PUSH1 0x24 DUP3 ADD MSTORE PUSH32 0x526577617264206D757374206265206174206C6561737420746865206D696E69 PUSH1 0x44 DUP3 ADD MSTORE PUSH10 0x1B5D5B48185B5BDD5B9D PUSH1 0xB2 SHL PUSH1 0x64 DUP3 ADD MSTORE PUSH1 0x84 ADD PUSH2 0xA31 JUMP JUMPDEST PUSH1 0x36 SLOAD PUSH2 0x159C PUSH2 0x2045 JUMP JUMPDEST DUP2 LT PUSH2 0x15EA JUMPI PUSH1 0x40 MLOAD PUSH3 0x461BCD PUSH1 0xE5 SHL DUP2 MSTORE PUSH1 0x20 PUSH1 0x4 DUP3 ADD MSTORE PUSH1 0x1A PUSH1 0x24 DUP3 ADD MSTORE PUSH32 0x43616E6E6F742070726F63657373206265666F72652074696D65000000000000 PUSH1 0x44 DUP3 ADD MSTORE PUSH1 0x64 ADD PUSH2 0xA31 JUMP JUMPDEST PUSH1 0x32 SLOAD PUSH1 0x40 MLOAD PUSH4 0x23B872DD PUSH1 0xE0 SHL DUP2 MSTORE CALLER PUSH1 0x4 DUP3 ADD MSTORE ADDRESS PUSH1 0x24 DUP3 ADD MSTORE PUSH1 0x44 DUP2 ADD DUP5 SWAP1 MSTORE PUSH1 0x1 PUSH1 0x1 PUSH1 0xA0 SHL SUB SWAP1 SWAP2 AND SWAP1 PUSH4 0x23B872DD SWAP1 PUSH1 0x64 ADD PUSH1 0x20 PUSH1 0x40 MLOAD DUP1 DUP4 SUB DUP2 PUSH0 DUP8 GAS CALL ISZERO DUP1 ISZERO PUSH2 0x163E JUMPI RETURNDATASIZE PUSH0 PUSH0 RETURNDATACOPY RETURNDATASIZE PUSH0 REVERT JUMPDEST POP POP POP POP PUSH1 0x40 MLOAD RETURNDATASIZE PUSH1 0x1F NOT PUSH1 0x1F DUP3 ADD AND DUP3 ADD DUP1 PUSH1 0x40 MSTORE POP DUP2 ADD SWAP1 PUSH2 0x1662 SWAP2 SWAP1 PUSH2 0x3E22 JUMP JUMPDEST POP PUSH1 0x3C SLOAD PUSH2 0x1670 DUP2 DUP5 PUSH2 0x3E0F JUMP JUMPDEST PUSH0 DUP4 DUP2 MSTORE PUSH1 0x44 PUSH1 0x20 MSTORE PUSH1 0x40 DUP2 KECCAK256 PUSH1 0x2 ADD DUP3 SWAP1 SSTORE SWAP1 SWAP4 POP SWAP1 POP PUSH3 0x93A80 PUSH2 0x1697 DUP4 PUSH1 0x1 PUSH2 0x3E0F JUMP JUMPDEST PUSH2 0x16A1 SWAP2 SWAP1 PUSH2 0x3DF8 JUMP JUMPDEST PUSH1 0x3B SLOAD PUSH2 0x16AE SWAP2 SWAP1 PUSH2 0x3E0F JUMP JUMPDEST PUSH0 DUP4 DUP2 MSTORE PUSH1 0x44 PUSH1 0x20 MSTORE PUSH1 0x40 DUP2 KECCAK256 PUSH1 0x1 ADD SWAP2 SWAP1 SWAP2 SSTORE JUMPDEST PUSH1 0x34 SLOAD DUP2 LT ISZERO PUSH2 0x193C JUMPI PUSH1 0x44 PUSH0 DUP5 DUP2 MSTORE PUSH1 0x20 ADD SWAP1 DUP2 MSTORE PUSH1 0x20 ADD PUSH0 KECCAK256 PUSH1 0x4 ADD PUSH1 0x34 DUP3 DUP2 SLOAD DUP2 LT PUSH2 0x16F4 JUMPI PUSH2 0x16F4 PUSH2 0x3E9F JUMP JUMPDEST SWAP1 PUSH0 MSTORE PUSH1 0x20 PUSH0 KECCAK256 ADD PUSH1 0x40 MLOAD PUSH2 0x1709 SWAP2 SWAP1 PUSH2 0x3EFB JUMP JUMPDEST SWAP1 DUP2 MSTORE PUSH1 0x20 ADD PUSH1 0x40 MLOAD DUP1 SWAP2 SUB SWAP1 KECCAK256 SLOAD PUSH1 0x42 PUSH1 0x34 DUP4 DUP2 SLOAD DUP2 LT PUSH2 0x172D JUMPI PUSH2 0x172D PUSH2 0x3E9F JUMP JUMPDEST SWAP1 PUSH0 MSTORE PUSH1 0x20 PUSH0 KECCAK256 ADD PUSH1 0x40 MLOAD PUSH2 0x1742 SWAP2 SWAP1 PUSH2 0x3EFB JUMP JUMPDEST SWAP1 DUP2 MSTORE PUSH1 0x20 ADD PUSH1 0x40 MLOAD DUP1 SWAP2 SUB SWAP1 KECCAK256 PUSH1 0x4 ADD PUSH0 DUP3 DUP3 SLOAD PUSH2 0x1761 SWAP2 SWAP1 PUSH2 0x3E0F JUMP JUMPDEST SWAP1 SWAP2 SSTORE POP POP DUP1 ISZERO PUSH2 0x1806 JUMPI PUSH1 0x44 PUSH0 DUP5 DUP2 MSTORE PUSH1 0x20 ADD SWAP1 DUP2 MSTORE PUSH1 0x20 ADD PUSH0 KECCAK256 PUSH1 0x5 ADD PUSH1 0x34 DUP3 DUP2 SLOAD DUP2 LT PUSH2 0x1793 JUMPI PUSH2 0x1793 PUSH2 0x3E9F JUMP JUMPDEST SWAP1 PUSH0 MSTORE PUSH1 0x20 PUSH0 KECCAK256 ADD PUSH1 0x40 MLOAD PUSH2 0x17A8 SWAP2 SWAP1 PUSH2 0x3EFB JUMP JUMPDEST SWAP1 DUP2 MSTORE PUSH1 0x20 ADD PUSH1 0x40 MLOAD DUP1 SWAP2 SUB SWAP1 KECCAK256 SLOAD PUSH1 0x42 PUSH1 0x34 DUP4 DUP2 SLOAD DUP2 LT PUSH2 0x17CC JUMPI PUSH2 0x17CC PUSH2 0x3E9F JUMP JUMPDEST SWAP1 PUSH0 MSTORE PUSH1 0x20 PUSH0 KECCAK256 ADD PUSH1 0x40 MLOAD PUSH2 0x17E1 SWAP2 SWAP1 PUSH2 0x3EFB JUMP JUMPDEST SWAP1 DUP2 MSTORE PUSH1 0x20 ADD PUSH1 0x40 MLOAD DUP1 SWAP2 SUB SWAP1 KECCAK256 PUSH1 0x4 ADD PUSH0 DUP3 DUP3 SLOAD PUSH2 0x1800 SWAP2 SWAP1 PUSH2 0x3DC6 JUMP JUMPDEST SWAP1 SWAP2 SSTORE POP POP JUMPDEST PUSH1 0x42 PUSH1 0x34 DUP3 DUP2 SLOAD DUP2 LT PUSH2 0x181B JUMPI PUSH2 0x181B PUSH2 0x3E9F JUMP JUMPDEST SWAP1 PUSH0 MSTORE PUSH1 0x20 PUSH0 KECCAK256 ADD PUSH1 0x40 MLOAD PUSH2 0x1830 SWAP2 SWAP1 PUSH2 0x3EFB JUMP JUMPDEST SWAP1 DUP2 MSTORE PUSH1 0x20 ADD PUSH1 0x40 MLOAD DUP1 SWAP2 SUB SWAP1 KECCAK256 PUSH1 0x4 ADD SLOAD PUSH1 0x44 PUSH0 DUP6 DUP2 MSTORE PUSH1 0x20 ADD SWAP1 DUP2 MSTORE PUSH1 0x20 ADD PUSH0 KECCAK256 PUSH1 0x3 ADD PUSH1 0x34 DUP4 DUP2 SLOAD DUP2 LT PUSH2 0x1869 JUMPI PUSH2 0x1869 PUSH2 0x3E9F JUMP JUMPDEST SWAP1 PUSH0 MSTORE PUSH1 0x20 PUSH0 KECCAK256 ADD PUSH1 0x40 MLOAD PUSH2 0x187E SWAP2 SWAP1 PUSH2 0x3EFB JUMP JUMPDEST SWAP1 DUP2 MSTORE PUSH1 0x20 ADD PUSH1 0x40 MLOAD DUP1 SWAP2 SUB SWAP1 KECCAK256 DUP2 SWAP1 SSTORE POP PUSH1 0x42 PUSH1 0x34 DUP3 DUP2 SLOAD DUP2 LT PUSH2 0x18A5 JUMPI PUSH2 0x18A5 PUSH2 0x3E9F JUMP JUMPDEST SWAP1 PUSH0 MSTORE PUSH1 0x20 PUSH0 KECCAK256 ADD PUSH1 0x40 MLOAD PUSH2 0x18BA SWAP2 SWAP1 PUSH2 0x3EFB JUMP JUMPDEST SWAP1 DUP2 MSTORE PUSH1 0x20 ADD PUSH1 0x40 MLOAD DUP1 SWAP2 SUB SWAP1 KECCAK256 PUSH1 0x4 ADD SLOAD PUSH0 SUB PUSH2 0x1934 JUMPI PUSH3 0x989680 PUSH1 0x42 PUSH1 0x34 DUP4 DUP2 SLOAD DUP2 LT PUSH2 0x18EB JUMPI PUSH2 0x18EB PUSH2 0x3E9F JUMP JUMPDEST SWAP1 PUSH0 MSTORE PUSH1 0x20 PUSH0 KECCAK256 ADD PUSH1 0x40 MLOAD PUSH2 0x1900 SWAP2 SWAP1 PUSH2 0x3EFB JUMP JUMPDEST SWAP1 DUP2 MSTORE PUSH1 0x20 ADD PUSH1 0x40 MLOAD DUP1 SWAP2 SUB SWAP1 KECCAK256 PUSH1 0x2 ADD SLOAD DUP6 PUSH2 0x191D SWAP2 SWAP1 PUSH2 0x3DF8 JUMP JUMPDEST PUSH2 0x1927 SWAP2 SWAP1 PUSH2 0x3DD9 JUMP JUMPDEST PUSH2 0x1931 SWAP1 DUP4 PUSH2 0x3E0F JUMP JUMPDEST SWAP2 POP JUMPDEST PUSH1 0x1 ADD PUSH2 0x16C3 JUMP JUMPDEST POP PUSH1 0x3C DUP2 SWAP1 SSTORE PUSH1 0x40 MLOAD DUP4 DUP2 MSTORE DUP3 SWAP1 PUSH32 0x40DF43107E8B4D467127964BD3C966687C0A6A39AAEDE970755397FD09535E98 SWAP1 PUSH1 0x20 ADD PUSH1 0x40 MLOAD DUP1 SWAP2 SUB SWAP1 LOG2 PUSH0 DUP3 DUP2 MSTORE PUSH1 0x44 PUSH1 0x20 MSTORE PUSH1 0x40 DUP2 KECCAK256 DUP1 SLOAD PUSH1 0xFF NOT AND PUSH1 0x1 OR SWAP1 SSTORE PUSH1 0x36 DUP1 SLOAD SWAP2 PUSH2 0x199D DUP4 PUSH2 0x3E3D JUMP JUMPDEST SWAP2 SWAP1 POP SSTORE POP POP POP POP POP JUMP JUMPDEST PUSH2 0x19B0 PUSH2 0x2883 JUMP JUMPDEST PUSH0 PUSH2 0x19BA CALLER PUSH2 0x1F81 JUMP JUMPDEST SWAP1 POP DUP1 ISZERO DUP1 ISZERO SWAP1 PUSH2 0x19DA JUMPI POP PUSH0 DUP2 DUP2 MSTORE PUSH1 0x43 PUSH1 0x20 MSTORE PUSH1 0x40 SWAP1 KECCAK256 PUSH1 0x5 ADD SLOAD TIMESTAMP LT JUMPDEST PUSH2 0x1A1D JUMPI PUSH1 0x40 MLOAD PUSH3 0x461BCD PUSH1 0xE5 SHL DUP2 MSTORE PUSH1 0x20 PUSH1 0x4 DUP3 ADD MSTORE PUSH1 0x14 PUSH1 0x24 DUP3 ADD MSTORE PUSH20 0x139BC81858DD1A5D99481B1BD8DAC8199BDD5B99 PUSH1 0x62 SHL PUSH1 0x44 DUP3 ADD MSTORE PUSH1 0x64 ADD PUSH2 0xA31 JUMP JUMPDEST PUSH0 DUP2 DUP2 MSTORE PUSH1 0x43 PUSH1 0x20 MSTORE PUSH1 0x40 SWAP1 DUP2 SWAP1 KECCAK256 PUSH1 0x3 ADD SLOAD SWAP1 MLOAD PUSH1 0x42 SWAP1 PUSH2 0x1A40 SWAP1 DUP6 SWAP1 PUSH2 0x3EB3 JUMP JUMPDEST SWAP1 DUP2 MSTORE PUSH1 0x20 ADD PUSH1 0x40 MLOAD DUP1 SWAP2 SUB SWAP1 KECCAK256 PUSH1 0x3 ADD SLOAD LT ISZERO PUSH2 0x1AB8 JUMPI PUSH1 0x40 MLOAD PUSH3 0x461BCD PUSH1 0xE5 SHL DUP2 MSTORE PUSH1 0x20 PUSH1 0x4 DUP3 ADD MSTORE PUSH1 0x2F PUSH1 0x24 DUP3 ADD MSTORE PUSH32 0x4C6F636B206475726174696F6E2063616E6E6F74206265206C65737320746861 PUSH1 0x44 DUP3 ADD MSTORE PUSH15 0x6E206578697374696E67206C6F636B PUSH1 0x88 SHL PUSH1 0x64 DUP3 ADD MSTORE PUSH1 0x84 ADD PUSH2 0xA31 JUMP JUMPDEST PUSH0 DUP2 DUP2 MSTORE PUSH1 0x43 PUSH1 0x20 MSTORE PUSH1 0x40 DUP2 KECCAK256 PUSH1 0x1 DUP2 ADD SLOAD DUP2 SLOAD SWAP1 SWAP3 SWAP2 SWAP1 PUSH2 0x1AD9 SWAP1 PUSH2 0x3EC9 JUMP JUMPDEST DUP1 PUSH1 0x1F ADD PUSH1 0x20 DUP1 SWAP2 DIV MUL PUSH1 0x20 ADD PUSH1 0x40 MLOAD SWAP1 DUP2 ADD PUSH1 0x40 MSTORE DUP1 SWAP3 SWAP2 SWAP1 DUP2 DUP2 MSTORE PUSH1 0x20 ADD DUP3 DUP1 SLOAD PUSH2 0x1B05 SWAP1 PUSH2 0x3EC9 JUMP JUMPDEST DUP1 ISZERO PUSH2 0x1B50 JUMPI DUP1 PUSH1 0x1F LT PUSH2 0x1B27 JUMPI PUSH2 0x100 DUP1 DUP4 SLOAD DIV MUL DUP4 MSTORE SWAP2 PUSH1 0x20 ADD SWAP2 PUSH2 0x1B50 JUMP JUMPDEST DUP3 ADD SWAP2 SWAP1 PUSH0 MSTORE PUSH1 0x20 PUSH0 KECCAK256 SWAP1 JUMPDEST DUP2 SLOAD DUP2 MSTORE SWAP1 PUSH1 0x1 ADD SWAP1 PUSH1 0x20 ADD DUP1 DUP4 GT PUSH2 0x1B33 JUMPI DUP3 SWAP1 SUB PUSH1 0x1F AND DUP3 ADD SWAP2 JUMPDEST POP POP POP PUSH0 DUP7 DUP2 MSTORE PUSH1 0x43 PUSH1 0x20 MSTORE PUSH1 0x40 DUP2 KECCAK256 PUSH1 0x2 DUP2 ADD DUP1 SLOAD PUSH2 0xFF00 NOT AND SWAP1 SSTORE TIMESTAMP PUSH1 0x5 SWAP1 SWAP2 ADD SSTORE SWAP3 SWAP4 POP PUSH2 0x1B83 SWAP2 POP PUSH2 0x2045 SWAP1 POP JUMP JUMPDEST PUSH0 DUP6 DUP2 MSTORE PUSH1 0x43 PUSH1 0x20 MSTORE PUSH1 0x40 SWAP1 KECCAK256 PUSH1 0x9 ADD SLOAD SWAP1 SWAP2 POP DUP2 LT ISZERO PUSH2 0x1CAF JUMPI PUSH0 DUP5 DUP2 MSTORE PUSH1 0x43 PUSH1 0x20 SWAP1 DUP2 MSTORE PUSH1 0x40 DUP1 DUP4 KECCAK256 PUSH1 0x9 ADD SLOAD DUP4 MSTORE PUSH1 0x44 SWAP1 SWAP2 MSTORE SWAP1 DUP2 SWAP1 KECCAK256 SWAP1 MLOAD DUP5 SWAP2 PUSH1 0x5 ADD SWAP1 PUSH2 0x1BD0 SWAP1 DUP6 SWAP1 PUSH2 0x3EB3 JUMP JUMPDEST SWAP1 DUP2 MSTORE PUSH1 0x20 ADD PUSH1 0x40 MLOAD DUP1 SWAP2 SUB SWAP1 KECCAK256 PUSH0 DUP3 DUP3 SLOAD PUSH2 0x1BEC SWAP2 SWAP1 PUSH2 0x3DC6 JUMP JUMPDEST SWAP1 SWAP2 SSTORE POP POP PUSH0 DUP5 DUP2 MSTORE PUSH1 0x43 PUSH1 0x20 SWAP1 DUP2 MSTORE PUSH1 0x40 DUP1 DUP4 KECCAK256 PUSH1 0x9 ADD DUP5 SWAP1 SSTORE DUP4 DUP4 MSTORE PUSH1 0x44 SWAP1 SWAP2 MSTORE SWAP1 DUP2 SWAP1 KECCAK256 SWAP1 MLOAD DUP5 SWAP2 PUSH1 0x5 ADD SWAP1 PUSH2 0x1C26 SWAP1 DUP6 SWAP1 PUSH2 0x3EB3 JUMP JUMPDEST SWAP1 DUP2 MSTORE PUSH1 0x20 ADD PUSH1 0x40 MLOAD DUP1 SWAP2 SUB SWAP1 KECCAK256 PUSH0 DUP3 DUP3 SLOAD PUSH2 0x1C42 SWAP2 SWAP1 PUSH2 0x3E0F JUMP JUMPDEST SWAP1 SWAP2 SSTORE POP POP PUSH0 DUP5 DUP2 MSTORE PUSH1 0x43 PUSH1 0x20 MSTORE PUSH1 0x40 SWAP1 KECCAK256 PUSH1 0x9 DUP2 ADD SLOAD PUSH1 0x8 SWAP1 SWAP2 ADD SLOAD EQ DUP1 ISZERO PUSH2 0x1C79 JUMPI POP CALLER PUSH0 SWAP1 DUP2 MSTORE PUSH1 0x3E PUSH1 0x20 MSTORE PUSH1 0x40 SWAP1 KECCAK256 SLOAD ISZERO ISZERO JUMPDEST ISZERO PUSH2 0x1CAF JUMPI CALLER PUSH0 SWAP1 DUP2 MSTORE PUSH1 0x3E PUSH1 0x20 MSTORE PUSH1 0x40 SWAP1 KECCAK256 DUP1 SLOAD DUP1 PUSH2 0x1C9B JUMPI PUSH2 0x1C9B PUSH2 0x3F83 JUMP JUMPDEST PUSH1 0x1 SWAP1 SUB DUP2 DUP2 SWAP1 PUSH0 MSTORE PUSH1 0x20 PUSH0 KECCAK256 ADD PUSH0 SWAP1 SSTORE SWAP1 SSTORE JUMPDEST PUSH0 DUP5 DUP2 MSTORE PUSH1 0x43 PUSH1 0x20 MSTORE PUSH1 0x40 SWAP1 KECCAK256 PUSH1 0x6 ADD SLOAD PUSH2 0x1CCF SWAP1 DUP8 SWAP1 DUP6 SWAP1 DUP9 DUP6 PUSH2 0x2F7F JUMP JUMPDEST PUSH1 0x35 SLOAD PUSH1 0x40 MLOAD DUP6 SWAP1 PUSH32 0x49B2ADA88C09D45D501A352DDD16F0B8BABA46034A2B243BFA8E215E2745F233 SWAP1 PUSH0 SWAP1 LOG3 POP POP POP POP POP POP JUMP JUMPDEST PUSH1 0x34 DUP2 DUP2 SLOAD DUP2 LT PUSH2 0x1D13 JUMPI PUSH0 DUP1 REVERT JUMPDEST SWAP1 PUSH0 MSTORE PUSH1 0x20 PUSH0 KECCAK256 ADD PUSH0 SWAP2 POP SWAP1 POP DUP1 SLOAD PUSH2 0x1D2B SWAP1 PUSH2 0x3EC9 JUMP JUMPDEST DUP1 PUSH1 0x1F ADD PUSH1 0x20 DUP1 SWAP2 DIV MUL PUSH1 0x20 ADD PUSH1 0x40 MLOAD SWAP1 DUP2 ADD PUSH1 0x40 MSTORE DUP1 SWAP3 SWAP2 SWAP1 DUP2 DUP2 MSTORE PUSH1 0x20 ADD DUP3 DUP1 SLOAD PUSH2 0x1D57 SWAP1 PUSH2 0x3EC9 JUMP JUMPDEST DUP1 ISZERO PUSH2 0x1DA2 JUMPI DUP1 PUSH1 0x1F LT PUSH2 0x1D79 JUMPI PUSH2 0x100 DUP1 DUP4 SLOAD DIV MUL DUP4 MSTORE SWAP2 PUSH1 0x20 ADD SWAP2 PUSH2 0x1DA2 JUMP JUMPDEST DUP3 ADD SWAP2 SWAP1 PUSH0 MSTORE PUSH1 0x20 PUSH0 KECCAK256 SWAP1 JUMPDEST DUP2 SLOAD DUP2 MSTORE SWAP1 PUSH1 0x1 ADD SWAP1 PUSH1 0x20 ADD DUP1 DUP4 GT PUSH2 0x1D85 JUMPI DUP3 SWAP1 SUB PUSH1 0x1F AND DUP3 ADD SWAP2 JUMPDEST POP POP POP POP POP DUP2 JUMP JUMPDEST PUSH0 PUSH0 PUSH0 PUSH1 0x44 PUSH0 DUP7 DUP2 MSTORE PUSH1 0x20 ADD SWAP1 DUP2 MSTORE PUSH1 0x20 ADD PUSH0 KECCAK256 PUSH1 0x3 ADD DUP5 PUSH1 0x40 MLOAD PUSH2 0x1DCF SWAP2 SWAP1 PUSH2 0x3EB3 JUMP JUMPDEST SWAP1 DUP2 MSTORE PUSH1 0x20 ADD PUSH1 0x40 MLOAD DUP1 SWAP2 SUB SWAP1 KECCAK256 SLOAD PUSH1 0x44 PUSH0 DUP8 DUP2 MSTORE PUSH1 0x20 ADD SWAP1 DUP2 MSTORE PUSH1 0x20 ADD PUSH0 KECCAK256 PUSH1 0x4 ADD DUP6 PUSH1 0x40 MLOAD PUSH2 0x1E00 SWAP2 SWAP1 PUSH2 0x3EB3 JUMP JUMPDEST SWAP1 DUP2 MSTORE PUSH1 0x20 ADD PUSH1 0x40 MLOAD DUP1 SWAP2 SUB SWAP1 KECCAK256 SLOAD PUSH1 0x44 PUSH0 DUP9 DUP2 MSTORE PUSH1 0x20 ADD SWAP1 DUP2 MSTORE PUSH1 0x20 ADD PUSH0 KECCAK256 PUSH1 0x5 ADD DUP7 PUSH1 0x40 MLOAD PUSH2 0x1E31 SWAP2 SWAP1 PUSH2 0x3EB3 JUMP JUMPDEST SWAP1 DUP2 MSTORE PUSH1 0x20 ADD PUSH1 0x40 MLOAD DUP1 SWAP2 SUB SWAP1 KECCAK256 SLOAD SWAP3 POP SWAP3 POP SWAP3 POP SWAP3 POP SWAP3 POP SWAP3 JUMP JUMPDEST PUSH1 0x3E PUSH1 0x20 MSTORE DUP2 PUSH0 MSTORE PUSH1 0x40 PUSH0 KECCAK256 DUP2 DUP2 SLOAD DUP2 LT PUSH2 0x1E66 JUMPI PUSH0 DUP1 REVERT JUMPDEST SWAP1 PUSH0 MSTORE PUSH1 0x20 PUSH0 KECCAK256 ADD PUSH0 SWAP2 POP SWAP2 POP POP SLOAD DUP2 JUMP JUMPDEST PUSH0 MLOAD PUSH1 0x20 PUSH2 0x4109 PUSH0 CODECOPY PUSH0 MLOAD SWAP1 PUSH0 MSTORE PUSH2 0x1E8F DUP2 PUSH2 0x2879 JUMP JUMPDEST PUSH2 0xDB6 PUSH2 0x3509 JUMP JUMPDEST PUSH0 SWAP2 DUP3 MSTORE PUSH0 MLOAD PUSH1 0x20 PUSH2 0x4129 PUSH0 CODECOPY PUSH0 MLOAD SWAP1 PUSH0 MSTORE PUSH1 0x20 SWAP1 DUP2 MSTORE PUSH1 0x40 DUP1 DUP5 KECCAK256 PUSH1 0x1 PUSH1 0x1 PUSH1 0xA0 SHL SUB SWAP4 SWAP1 SWAP4 AND DUP5 MSTORE SWAP2 SWAP1 MSTORE SWAP1 KECCAK256 SLOAD PUSH1 0xFF AND SWAP1 JUMP JUMPDEST PUSH0 MLOAD PUSH1 0x20 PUSH2 0x4149 PUSH0 CODECOPY PUSH0 MLOAD SWAP1 PUSH0 MSTORE PUSH2 0x1EE4 DUP2 PUSH2 0x2879 JUMP JUMPDEST PUSH3 0x989680 DUP3 GT ISZERO PUSH2 0x1F37 JUMPI PUSH1 0x40 MLOAD PUSH3 0x461BCD PUSH1 0xE5 SHL DUP2 MSTORE PUSH1 0x20 PUSH1 0x4 DUP3 ADD MSTORE PUSH1 0x18 PUSH1 0x24 DUP3 ADD MSTORE PUSH32 0x496E76616C69642070657263656E746167652076616C75650000000000000000 PUSH1 0x44 DUP3 ADD MSTORE PUSH1 0x64 ADD PUSH2 0xA31 JUMP JUMPDEST POP PUSH1 0x3A SSTORE JUMP JUMPDEST PUSH0 PUSH4 0x5F5E100 PUSH1 0x42 DUP4 PUSH1 0x40 MLOAD PUSH2 0x1F53 SWAP2 SWAP1 PUSH2 0x3EB3 JUMP JUMPDEST SWAP1 DUP2 MSTORE PUSH1 0x20 ADD PUSH1 0x40 MLOAD DUP1 SWAP2 SUB SWAP1 KECCAK256 PUSH1 0x1 ADD SLOAD DUP5 PUSH2 0x1F70 SWAP2 SWAP1 PUSH2 0x3DF8 JUMP JUMPDEST PUSH2 0x1F7A SWAP2 SWAP1 PUSH2 0x3DD9 JUMP JUMPDEST SWAP4 SWAP3 POP POP POP JUMP JUMPDEST PUSH1 0x1 PUSH1 0x1 PUSH1 0xA0 SHL SUB DUP2 AND PUSH0 SWAP1 DUP2 MSTORE PUSH1 0x3D PUSH1 0x20 MSTORE PUSH1 0x40 DUP2 KECCAK256 SLOAD DUP1 ISZERO PUSH2 0x203F JUMPI PUSH1 0x1 PUSH1 0x1 PUSH1 0xA0 SHL SUB DUP4 AND PUSH0 SWAP1 DUP2 MSTORE PUSH1 0x3D PUSH1 0x20 MSTORE PUSH1 0x40 DUP2 KECCAK256 PUSH1 0x43 SWAP2 SWAP1 PUSH2 0x1FC5 PUSH1 0x1 DUP6 PUSH2 0x3DC6 JUMP JUMPDEST DUP2 SLOAD DUP2 LT PUSH2 0x1FD5 JUMPI PUSH2 0x1FD5 PUSH2 0x3E9F JUMP JUMPDEST SWAP1 PUSH0 MSTORE PUSH1 0x20 PUSH0 KECCAK256 ADD SLOAD DUP2 MSTORE PUSH1 0x20 ADD SWAP1 DUP2 MSTORE PUSH1 0x20 ADD PUSH0 KECCAK256 PUSH1 0x2 ADD PUSH1 0x1 SWAP1 SLOAD SWAP1 PUSH2 0x100 EXP SWAP1 DIV PUSH1 0xFF AND ISZERO PUSH2 0x203F JUMPI PUSH1 0x1 PUSH1 0x1 PUSH1 0xA0 SHL SUB DUP4 AND PUSH0 SWAP1 DUP2 MSTORE PUSH1 0x3D PUSH1 0x20 MSTORE PUSH1 0x40 SWAP1 KECCAK256 PUSH2 0x2023 PUSH1 0x1 DUP4 PUSH2 0x3DC6 JUMP JUMPDEST DUP2 SLOAD DUP2 LT PUSH2 0x2033 JUMPI PUSH2 0x2033 PUSH2 0x3E9F JUMP JUMPDEST SWAP1 PUSH0 MSTORE PUSH1 0x20 PUSH0 KECCAK256 ADD SLOAD SWAP2 POP JUMPDEST POP SWAP2 SWAP1 POP JUMP JUMPDEST PUSH0 PUSH3 0x93A80 PUSH1 0x3B SLOAD TIMESTAMP PUSH2 0x2058 SWAP2 SWAP1 PUSH2 0x3DC6 JUMP JUMPDEST PUSH2 0x2062 SWAP2 SWAP1 PUSH2 0x3DD9 JUMP JUMPDEST SWAP1 POP SWAP1 JUMP JUMPDEST PUSH2 0x206F PUSH2 0x2883 JUMP JUMPDEST PUSH0 PUSH2 0x2078 PUSH2 0x29E4 JUMP JUMPDEST SWAP1 POP PUSH0 DUP3 ISZERO PUSH2 0x210F JUMPI POP CALLER PUSH0 SWAP1 DUP2 MSTORE PUSH1 0x41 PUSH1 0x20 MSTORE PUSH1 0x40 DUP2 KECCAK256 SLOAD SWAP1 DUP2 SWAP1 SUB PUSH2 0x20B1 JUMPI PUSH1 0x40 MLOAD PUSH3 0x461BCD PUSH1 0xE5 SHL DUP2 MSTORE PUSH1 0x4 ADD PUSH2 0xA31 SWAP1 PUSH2 0x3E55 JUMP JUMPDEST PUSH1 0x32 SLOAD PUSH1 0x40 MLOAD PUSH4 0x852CD8D PUSH1 0xE3 SHL DUP2 MSTORE PUSH1 0x4 DUP2 ADD DUP5 SWAP1 MSTORE PUSH1 0x1 PUSH1 0x1 PUSH1 0xA0 SHL SUB SWAP1 SWAP2 AND SWAP1 PUSH4 0x42966C68 SWAP1 PUSH1 0x24 ADD PUSH0 PUSH1 0x40 MLOAD DUP1 DUP4 SUB DUP2 PUSH0 DUP8 DUP1 EXTCODESIZE ISZERO DUP1 ISZERO PUSH2 0x20F4 JUMPI PUSH0 PUSH0 REVERT JUMPDEST POP GAS CALL ISZERO DUP1 ISZERO PUSH2 0x2106 JUMPI RETURNDATASIZE PUSH0 PUSH0 RETURNDATACOPY RETURNDATASIZE PUSH0 REVERT JUMPDEST POP POP POP POP PUSH2 0x217C JUMP JUMPDEST PUSH2 0x2118 CALLER PUSH2 0x1F81 JUMP JUMPDEST SWAP1 POP DUP1 ISZERO DUP1 ISZERO SWAP1 PUSH2 0x2138 JUMPI POP PUSH0 DUP2 DUP2 MSTORE PUSH1 0x43 PUSH1 0x20 MSTORE PUSH1 0x40 SWAP1 KECCAK256 PUSH1 0x5 ADD SLOAD TIMESTAMP LT JUMPDEST PUSH2 0x217C JUMPI PUSH1 0x40 MLOAD PUSH3 0x461BCD PUSH1 0xE5 SHL DUP2 MSTORE PUSH1 0x20 PUSH1 0x4 DUP3 ADD MSTORE PUSH1 0x15 PUSH1 0x24 DUP3 ADD MSTORE PUSH21 0x4E6F20416374697665206C6F636B20657869737473 PUSH1 0x58 SHL PUSH1 0x44 DUP3 ADD MSTORE PUSH1 0x64 ADD PUSH2 0xA31 JUMP JUMPDEST PUSH2 0x2186 DUP3 DUP3 PUSH2 0x2C87 JUMP JUMPDEST PUSH0 DUP2 DUP2 MSTORE PUSH1 0x43 PUSH1 0x20 SWAP1 DUP2 MSTORE PUSH1 0x40 SWAP2 DUP3 SWAP1 KECCAK256 PUSH1 0x1 DUP2 ADD SLOAD PUSH1 0x6 SWAP1 SWAP2 ADD SLOAD DUP4 MLOAD SWAP2 DUP3 MSTORE SWAP2 DUP2 ADD DUP6 SWAP1 MSTORE SWAP2 DUP3 ADD MSTORE DUP2 SWAP1 PUSH32 0x4E2CC4951F3EEABDD9E423F93EBA5E634644FF5FC64B2E59C2486C23A305DD8E SWAP1 PUSH1 0x60 ADD PUSH2 0x1146 JUMP JUMPDEST PUSH0 MLOAD PUSH1 0x20 PUSH2 0x4149 PUSH0 CODECOPY PUSH0 MLOAD SWAP1 PUSH0 MSTORE PUSH2 0x21F4 DUP2 PUSH2 0x2879 JUMP JUMPDEST POP PUSH1 0x39 SSTORE JUMP JUMPDEST PUSH2 0x2203 DUP3 PUSH2 0xA40 JUMP JUMPDEST PUSH2 0x220C DUP2 PUSH2 0x2879 JUMP JUMPDEST PUSH2 0xC9C DUP4 DUP4 PUSH2 0x296B JUMP JUMPDEST PUSH2 0x221E PUSH2 0x2883 JUMP JUMPDEST PUSH1 0x38 SLOAD DUP3 LT ISZERO PUSH2 0x2240 JUMPI PUSH1 0x40 MLOAD PUSH3 0x461BCD PUSH1 0xE5 SHL DUP2 MSTORE PUSH1 0x4 ADD PUSH2 0xA31 SWAP1 PUSH2 0x3F97 JUMP JUMPDEST PUSH2 0x2254 DUP3 PUSH0 PUSH0 DUP5 PUSH2 0x224F PUSH2 0x2045 JUMP JUMPDEST PUSH2 0x2F7F JUMP JUMPDEST POP POP JUMP JUMPDEST PUSH1 0x3D PUSH1 0x20 MSTORE DUP2 PUSH0 MSTORE PUSH1 0x40 PUSH0 KECCAK256 DUP2 DUP2 SLOAD DUP2 LT PUSH2 0x1E66 JUMPI PUSH0 DUP1 REVERT JUMPDEST PUSH1 0x43 PUSH1 0x20 MSTORE PUSH0 SWAP1 DUP2 MSTORE PUSH1 0x40 SWAP1 KECCAK256 DUP1 SLOAD DUP2 SWAP1 PUSH2 0x228B SWAP1 PUSH2 0x3EC9 JUMP JUMPDEST DUP1 PUSH1 0x1F ADD PUSH1 0x20 DUP1 SWAP2 DIV MUL PUSH1 0x20 ADD PUSH1 0x40 MLOAD SWAP1 DUP2 ADD PUSH1 0x40 MSTORE DUP1 SWAP3 SWAP2 SWAP1 DUP2 DUP2 MSTORE PUSH1 0x20 ADD DUP3 DUP1 SLOAD PUSH2 0x22B7 SWAP1 PUSH2 0x3EC9 JUMP JUMPDEST DUP1 ISZERO PUSH2 0x2302 JUMPI DUP1 PUSH1 0x1F LT PUSH2 0x22D9 JUMPI PUSH2 0x100 DUP1 DUP4 SLOAD DIV MUL DUP4 MSTORE SWAP2 PUSH1 0x20 ADD SWAP2 PUSH2 0x2302 JUMP JUMPDEST DUP3 ADD SWAP2 SWAP1 PUSH0 MSTORE PUSH1 0x20 PUSH0 KECCAK256 SWAP1 JUMPDEST DUP2 SLOAD DUP2 MSTORE SWAP1 PUSH1 0x1 ADD SWAP1 PUSH1 0x20 ADD DUP1 DUP4 GT PUSH2 0x22E5 JUMPI DUP3 SWAP1 SUB PUSH1 0x1F AND DUP3 ADD SWAP2 JUMPDEST POP POP POP PUSH1 0x1 DUP5 ADD SLOAD PUSH1 0x2 DUP6 ADD SLOAD PUSH1 0x3 DUP7 ADD SLOAD PUSH1 0x4 DUP8 ADD SLOAD PUSH1 0x5 DUP9 ADD SLOAD PUSH1 0x6 DUP10 ADD SLOAD PUSH1 0x7 DUP11 ADD SLOAD PUSH1 0x8 DUP12 ADD SLOAD PUSH1 0x9 DUP13 ADD SLOAD PUSH1 0xA SWAP1 SWAP13 ADD SLOAD SWAP11 SWAP12 SWAP8 SWAP11 PUSH1 0xFF DUP1 DUP10 AND SWAP12 POP PUSH2 0x100 SWAP1 SWAP9 DIV SWAP1 SWAP8 AND SWAP9 POP SWAP5 SWAP7 SWAP4 SWAP6 SWAP3 SWAP5 SWAP2 SWAP4 SWAP1 SWAP3 DUP13 JUMP JUMPDEST PUSH0 PUSH2 0x2364 PUSH2 0x3545 JUMP JUMPDEST DUP1 SLOAD SWAP1 SWAP2 POP PUSH1 0xFF PUSH1 0x1 PUSH1 0x40 SHL DUP3 DIV AND ISZERO SWAP1 PUSH1 0x1 PUSH1 0x1 PUSH1 0x40 SHL SUB AND PUSH0 DUP2 ISZERO DUP1 ISZERO PUSH2 0x238A JUMPI POP DUP3 JUMPDEST SWAP1 POP PUSH0 DUP3 PUSH1 0x1 PUSH1 0x1 PUSH1 0x40 SHL SUB AND PUSH1 0x1 EQ DUP1 ISZERO PUSH2 0x23A5 JUMPI POP ADDRESS EXTCODESIZE ISZERO JUMPDEST SWAP1 POP DUP2 ISZERO DUP1 ISZERO PUSH2 0x23B3 JUMPI POP DUP1 ISZERO JUMPDEST ISZERO PUSH2 0x23D1 JUMPI PUSH1 0x40 MLOAD PUSH4 0xF92EE8A9 PUSH1 0xE0 SHL DUP2 MSTORE PUSH1 0x4 ADD PUSH1 0x40 MLOAD DUP1 SWAP2 SUB SWAP1 REVERT JUMPDEST DUP5 SLOAD PUSH8 0xFFFFFFFFFFFFFFFF NOT AND PUSH1 0x1 OR DUP6 SSTORE DUP4 ISZERO PUSH2 0x23FB JUMPI DUP5 SLOAD PUSH1 0xFF PUSH1 0x40 SHL NOT AND PUSH1 0x1 PUSH1 0x40 SHL OR DUP6 SSTORE JUMPDEST PUSH1 0x1 PUSH1 0x1 PUSH1 0xA0 SHL SUB DUP15 AND PUSH2 0x2451 JUMPI PUSH1 0x40 MLOAD PUSH3 0x461BCD PUSH1 0xE5 SHL DUP2 MSTORE PUSH1 0x20 PUSH1 0x4 DUP3 ADD MSTORE PUSH1 0x1A PUSH1 0x24 DUP3 ADD MSTORE PUSH32 0x496E76616C696420414C564120746F6B656E2061646472657373000000000000 PUSH1 0x44 DUP3 ADD MSTORE PUSH1 0x64 ADD PUSH2 0xA31 JUMP JUMPDEST PUSH1 0x1 PUSH1 0x1 PUSH1 0xA0 SHL SUB DUP14 AND PUSH2 0x24A7 JUMPI PUSH1 0x40 MLOAD PUSH3 0x461BCD PUSH1 0xE5 SHL DUP2 MSTORE PUSH1 0x20 PUSH1 0x4 DUP3 ADD MSTORE PUSH1 0x1C PUSH1 0x24 DUP3 ADD MSTORE PUSH32 0x496E76616C6964207665414C564120746F6B656E206164647265737300000000 PUSH1 0x44 DUP3 ADD MSTORE PUSH1 0x64 ADD PUSH2 0xA31 JUMP JUMPDEST DUP14 PUSH1 0x32 PUSH0 PUSH2 0x100 EXP DUP2 SLOAD DUP2 PUSH1 0x1 PUSH1 0x1 PUSH1 0xA0 SHL SUB MUL NOT AND SWAP1 DUP4 PUSH1 0x1 PUSH1 0x1 PUSH1 0xA0 SHL SUB AND MUL OR SWAP1 SSTORE POP DUP13 PUSH1 0x33 PUSH0 PUSH2 0x100 EXP DUP2 SLOAD DUP2 PUSH1 0x1 PUSH1 0x1 PUSH1 0xA0 SHL SUB MUL NOT AND SWAP1 DUP4 PUSH1 0x1 PUSH1 0x1 PUSH1 0xA0 SHL SUB AND MUL OR SWAP1 SSTORE POP DUP12 PUSH1 0x37 DUP2 SWAP1 SSTORE POP DUP11 PUSH1 0x3B DUP2 SWAP1 SSTORE POP PUSH1 0x1 PUSH1 0x38 DUP2 SWAP1 SSTORE POP PUSH2 0x2710 PUSH1 0x39 DUP2 SWAP1 SSTORE POP PUSH3 0x4C4B40 PUSH1 0x3A DUP2 SWAP1 SSTORE POP PUSH2 0x2528 PUSH0 PUSH0 SHL CALLER PUSH2 0x28CA JUMP JUMPDEST POP PUSH2 0x2540 PUSH0 MLOAD PUSH1 0x20 PUSH2 0x4109 PUSH0 CODECOPY PUSH0 MLOAD SWAP1 PUSH0 MSTORE CALLER PUSH2 0x28CA JUMP JUMPDEST POP PUSH2 0x2558 PUSH0 MLOAD PUSH1 0x20 PUSH2 0x4149 PUSH0 CODECOPY PUSH0 MLOAD SWAP1 PUSH0 MSTORE CALLER PUSH2 0x28CA JUMP JUMPDEST POP PUSH2 0x2583 PUSH32 0x4C716A0EBD1CFD3E93CA0DB9B9F8A0A9CB7C1D4CC18B52950E1F5528CC73CB5D CALLER PUSH2 0x28CA JUMP JUMPDEST POP DUP7 PUSH0 DUP2 MLOAD DUP2 LT PUSH2 0x2596 JUMPI PUSH2 0x2596 PUSH2 0x3E9F JUMP JUMPDEST PUSH1 0x20 MUL PUSH1 0x20 ADD ADD MLOAD PUSH0 EQ PUSH2 0x25E0 JUMPI PUSH1 0x40 MLOAD PUSH3 0x461BCD PUSH1 0xE5 SHL DUP2 MSTORE PUSH1 0x20 PUSH1 0x4 DUP3 ADD MSTORE PUSH1 0x11 PUSH1 0x24 DUP3 ADD MSTORE PUSH17 0x496E76616C6964204475726174696F6E73 PUSH1 0x78 SHL PUSH1 0x44 DUP3 ADD MSTORE PUSH1 0x64 ADD PUSH2 0xA31 JUMP JUMPDEST DUP10 MLOAD PUSH0 SWAP1 PUSH2 0x25F5 SWAP1 PUSH1 0x34 SWAP1 PUSH1 0x20 DUP15 ADD SWAP1 PUSH2 0x3799 JUMP JUMPDEST POP PUSH0 JUMPDEST DUP12 MLOAD DUP2 LT ISZERO PUSH2 0x27DD JUMPI DUP10 DUP2 DUP2 MLOAD DUP2 LT PUSH2 0x2613 JUMPI PUSH2 0x2613 PUSH2 0x3E9F JUMP JUMPDEST PUSH1 0x20 MUL PUSH1 0x20 ADD ADD MLOAD PUSH1 0x42 DUP14 DUP4 DUP2 MLOAD DUP2 LT PUSH2 0x262F JUMPI PUSH2 0x262F PUSH2 0x3E9F JUMP JUMPDEST PUSH1 0x20 MUL PUSH1 0x20 ADD ADD MLOAD PUSH1 0x40 MLOAD PUSH2 0x2644 SWAP2 SWAP1 PUSH2 0x3EB3 JUMP JUMPDEST SWAP1 DUP2 MSTORE PUSH1 0x20 ADD PUSH1 0x40 MLOAD DUP1 SWAP2 SUB SWAP1 KECCAK256 PUSH1 0x1 ADD DUP2 SWAP1 SSTORE POP DUP11 DUP2 DUP2 MLOAD DUP2 LT PUSH2 0x266B JUMPI PUSH2 0x266B PUSH2 0x3E9F JUMP JUMPDEST PUSH1 0x20 MUL PUSH1 0x20 ADD ADD MLOAD PUSH1 0x42 DUP14 DUP4 DUP2 MLOAD DUP2 LT PUSH2 0x2687 JUMPI PUSH2 0x2687 PUSH2 0x3E9F JUMP JUMPDEST PUSH1 0x20 MUL PUSH1 0x20 ADD ADD MLOAD PUSH1 0x40 MLOAD PUSH2 0x269C SWAP2 SWAP1 PUSH2 0x3EB3 JUMP JUMPDEST SWAP1 DUP2 MSTORE PUSH1 0x20 ADD PUSH1 0x40 MLOAD DUP1 SWAP2 SUB SWAP1 KECCAK256 PUSH1 0x2 ADD DUP2 SWAP1 SSTORE POP DUP9 DUP2 DUP2 MLOAD DUP2 LT PUSH2 0x26C3 JUMPI PUSH2 0x26C3 PUSH2 0x3E9F JUMP JUMPDEST PUSH1 0x20 MUL PUSH1 0x20 ADD ADD MLOAD PUSH1 0x42 DUP14 DUP4 DUP2 MLOAD DUP2 LT PUSH2 0x26DF JUMPI PUSH2 0x26DF PUSH2 0x3E9F JUMP JUMPDEST PUSH1 0x20 MUL PUSH1 0x20 ADD ADD MLOAD PUSH1 0x40 MLOAD PUSH2 0x26F4 SWAP2 SWAP1 PUSH2 0x3EB3 JUMP JUMPDEST SWAP1 DUP2 MSTORE PUSH1 0x20 ADD PUSH1 0x40 MLOAD DUP1 SWAP2 SUB SWAP1 KECCAK256 PUSH1 0x3 ADD DUP2 SWAP1 SSTORE POP PUSH1 0x1 PUSH1 0x42 DUP14 DUP4 DUP2 MLOAD DUP2 LT PUSH2 0x271F JUMPI PUSH2 0x271F PUSH2 0x3E9F JUMP JUMPDEST PUSH1 0x20 MUL PUSH1 0x20 ADD ADD MLOAD PUSH1 0x40 MLOAD PUSH2 0x2734 SWAP2 SWAP1 PUSH2 0x3EB3 JUMP JUMPDEST SWAP1 DUP2 MSTORE PUSH1 0x40 MLOAD SWAP1 DUP2 SWAP1 SUB PUSH1 0x20 ADD SWAP1 KECCAK256 DUP1 SLOAD SWAP2 ISZERO ISZERO PUSH1 0xFF NOT SWAP1 SWAP3 AND SWAP2 SWAP1 SWAP2 OR SWAP1 SSTORE DUP8 MLOAD DUP9 SWAP1 DUP3 SWAP1 DUP2 LT PUSH2 0x2768 JUMPI PUSH2 0x2768 PUSH2 0x3E9F JUMP JUMPDEST PUSH1 0x20 MUL PUSH1 0x20 ADD ADD MLOAD PUSH1 0x42 DUP14 DUP4 DUP2 MLOAD DUP2 LT PUSH2 0x2784 JUMPI PUSH2 0x2784 PUSH2 0x3E9F JUMP JUMPDEST PUSH1 0x20 MUL PUSH1 0x20 ADD ADD MLOAD PUSH1 0x40 MLOAD PUSH2 0x2799 SWAP2 SWAP1 PUSH2 0x3EB3 JUMP JUMPDEST SWAP1 DUP2 MSTORE PUSH1 0x20 ADD PUSH1 0x40 MLOAD DUP1 SWAP2 SUB SWAP1 KECCAK256 PUSH1 0x5 ADD DUP2 SWAP1 SSTORE POP DUP11 DUP2 DUP2 MLOAD DUP2 LT PUSH2 0x27C0 JUMPI PUSH2 0x27C0 PUSH2 0x3E9F JUMP JUMPDEST PUSH1 0x20 MUL PUSH1 0x20 ADD ADD MLOAD DUP3 PUSH2 0x27D3 SWAP2 SWAP1 PUSH2 0x3E0F JUMP JUMPDEST SWAP2 POP PUSH1 0x1 ADD PUSH2 0x25F8 JUMP JUMPDEST POP PUSH3 0x989680 DUP2 EQ PUSH2 0x2822 JUMPI PUSH1 0x40 MLOAD PUSH3 0x461BCD PUSH1 0xE5 SHL DUP2 MSTORE PUSH1 0x20 PUSH1 0x4 DUP3 ADD MSTORE PUSH1 0xF PUSH1 0x24 DUP3 ADD MSTORE PUSH15 0x496E76616C69642052657761726473 PUSH1 0x88 SHL PUSH1 0x44 DUP3 ADD MSTORE PUSH1 0x64 ADD PUSH2 0xA31 JUMP JUMPDEST POP DUP4 ISZERO PUSH2 0x2869 JUMPI DUP5 SLOAD PUSH1 0xFF PUSH1 0x40 SHL NOT AND DUP6 SSTORE PUSH1 0x40 MLOAD PUSH1 0x1 DUP2 MSTORE PUSH32 0xC7F505B2F371AE2175EE4913F4499E1F2633A7B5936321EED1CDAEB6115181D2 SWAP1 PUSH1 0x20 ADD PUSH1 0x40 MLOAD DUP1 SWAP2 SUB SWAP1 LOG1 JUMPDEST POP POP POP POP POP POP POP POP POP POP POP POP POP POP JUMP JUMPDEST PUSH2 0xDB6 DUP2 CALLER PUSH2 0x356D JUMP JUMPDEST PUSH0 SLOAD PUSH1 0xFF AND ISZERO PUSH2 0x28C8 JUMPI PUSH1 0x40 MLOAD PUSH3 0x461BCD PUSH1 0xE5 SHL DUP2 MSTORE PUSH1 0x20 PUSH1 0x4 DUP3 ADD MSTORE PUSH1 0x10 PUSH1 0x24 DUP3 ADD MSTORE PUSH16 0x14185D5CD8589B194E881C185D5CD959 PUSH1 0x82 SHL PUSH1 0x44 DUP3 ADD MSTORE PUSH1 0x64 ADD PUSH2 0xA31 JUMP JUMPDEST JUMP JUMPDEST PUSH0 PUSH0 MLOAD PUSH1 0x20 PUSH2 0x4129 PUSH0 CODECOPY PUSH0 MLOAD SWAP1 PUSH0 MSTORE PUSH2 0x28E3 DUP5 DUP5 PUSH2 0x1E97 JUMP JUMPDEST PUSH2 0x2962 JUMPI PUSH0 DUP5 DUP2 MSTORE PUSH1 0x20 DUP3 DUP2 MSTORE PUSH1 0x40 DUP1 DUP4 KECCAK256 PUSH1 0x1 PUSH1 0x1 PUSH1 0xA0 SHL SUB DUP8 AND DUP5 MSTORE SWAP1 SWAP2 MSTORE SWAP1 KECCAK256 DUP1 SLOAD PUSH1 0xFF NOT AND PUSH1 0x1 OR SWAP1 SSTORE PUSH2 0x2918 CALLER SWAP1 JUMP JUMPDEST PUSH1 0x1 PUSH1 0x1 PUSH1 0xA0 SHL SUB AND DUP4 PUSH1 0x1 PUSH1 0x1 PUSH1 0xA0 SHL SUB AND DUP6 PUSH32 0x2F8788117E7EFF1D82E926EC794901D17C78024A50270940304540A733656F0D PUSH1 0x40 MLOAD PUSH1 0x40 MLOAD DUP1 SWAP2 SUB SWAP1 LOG4 PUSH1 0x1 SWAP2 POP POP PUSH2 0x8D3 JUMP JUMPDEST PUSH0 SWAP2 POP POP PUSH2 0x8D3 JUMP JUMPDEST PUSH0 PUSH0 MLOAD PUSH1 0x20 PUSH2 0x4129 PUSH0 CODECOPY PUSH0 MLOAD SWAP1 PUSH0 MSTORE PUSH2 0x2984 DUP5 DUP5 PUSH2 0x1E97 JUMP JUMPDEST ISZERO PUSH2 0x2962 JUMPI PUSH0 DUP5 DUP2 MSTORE PUSH1 0x20 DUP3 DUP2 MSTORE PUSH1 0x40 DUP1 DUP4 KECCAK256 PUSH1 0x1 PUSH1 0x1 PUSH1 0xA0 SHL SUB DUP8 AND DUP1 DUP6 MSTORE SWAP3 MSTORE DUP1 DUP4 KECCAK256 DUP1 SLOAD PUSH1 0xFF NOT AND SWAP1 SSTORE MLOAD CALLER SWAP3 DUP8 SWAP2 PUSH32 0xF6391F5C32D9C69D2A47EA670B442974B53935D1EDC7FD64EB21E047A839171B SWAP2 SWAP1 LOG4 PUSH1 0x1 SWAP2 POP POP PUSH2 0x8D3 JUMP JUMPDEST CALLER PUSH0 SWAP1 DUP2 MSTORE PUSH1 0x3F PUSH1 0x20 SWAP1 DUP2 MSTORE PUSH1 0x40 DUP1 DUP4 KECCAK256 SLOAD PUSH1 0x3E SWAP1 SWAP3 MSTORE DUP3 KECCAK256 SLOAD GT ISZERO PUSH2 0x2A42 JUMPI CALLER PUSH0 SWAP1 DUP2 MSTORE PUSH1 0x3E PUSH1 0x20 SWAP1 DUP2 MSTORE PUSH1 0x40 DUP1 DUP4 KECCAK256 PUSH1 0x3F SWAP1 SWAP3 MSTORE SWAP1 SWAP2 KECCAK256 SLOAD DUP2 SLOAD PUSH2 0x2A42 SWAP3 SWAP2 SWAP1 DUP2 LT PUSH2 0x2A34 JUMPI PUSH2 0x2A34 PUSH2 0x3E9F JUMP JUMPDEST SWAP1 PUSH0 MSTORE PUSH1 0x20 PUSH0 KECCAK256 ADD SLOAD PUSH2 0x35A6 JUMP JUMPDEST PUSH2 0x2A4A PUSH2 0x3692 JUMP JUMPDEST POP CALLER PUSH0 SWAP1 DUP2 MSTORE PUSH1 0x40 PUSH1 0x20 DUP2 SWAP1 MSTORE SWAP1 KECCAK256 SLOAD DUP1 PUSH2 0x2AB1 JUMPI PUSH1 0x40 MLOAD PUSH3 0x461BCD PUSH1 0xE5 SHL DUP2 MSTORE PUSH1 0x20 PUSH1 0x4 DUP3 ADD MSTORE PUSH1 0x21 PUSH1 0x24 DUP3 ADD MSTORE PUSH32 0x4E6F207265776172647320617661696C61626C6520666F7220636C61696D696E PUSH1 0x44 DUP3 ADD MSTORE PUSH1 0x67 PUSH1 0xF8 SHL PUSH1 0x64 DUP3 ADD MSTORE PUSH1 0x84 ADD PUSH2 0xA31 JUMP JUMPDEST CALLER PUSH0 SWAP1 DUP2 MSTORE PUSH1 0x40 PUSH1 0x20 DUP2 SWAP1 MSTORE DUP2 KECCAK256 SSTORE SWAP1 JUMP JUMPDEST PUSH2 0x2ACB PUSH2 0x3751 JUMP JUMPDEST PUSH0 DUP1 SLOAD PUSH1 0xFF NOT AND SWAP1 SSTORE PUSH32 0x5DB9EE0A495BF2E6FF9C91A7834C1BA4FDD244A5E8AA4E537BD38AEAE4B073AA CALLER JUMPDEST PUSH1 0x40 MLOAD PUSH1 0x1 PUSH1 0x1 PUSH1 0xA0 SHL SUB SWAP1 SWAP2 AND DUP2 MSTORE PUSH1 0x20 ADD PUSH1 0x40 MLOAD DUP1 SWAP2 SUB SWAP1 LOG1 JUMP JUMPDEST PUSH0 DUP3 DUP2 MSTORE PUSH1 0x43 PUSH1 0x20 MSTORE PUSH1 0x40 DUP2 KECCAK256 DUP1 SLOAD DUP3 SWAP2 SWAP1 PUSH2 0x2B2F SWAP1 PUSH2 0x3EC9 JUMP JUMPDEST DUP1 PUSH1 0x1F ADD PUSH1 0x20 DUP1 SWAP2 DIV MUL PUSH1 0x20 ADD PUSH1 0x40 MLOAD SWAP1 DUP2 ADD PUSH1 0x40 MSTORE DUP1 SWAP3 SWAP2 SWAP1 DUP2 DUP2 MSTORE PUSH1 0x20 ADD DUP3 DUP1 SLOAD PUSH2 0x2B5B SWAP1 PUSH2 0x3EC9 JUMP JUMPDEST DUP1 ISZERO PUSH2 0x2BA6 JUMPI DUP1 PUSH1 0x1F LT PUSH2 0x2B7D JUMPI PUSH2 0x100 DUP1 DUP4 SLOAD DIV MUL DUP4 MSTORE SWAP2 PUSH1 0x20 ADD SWAP2 PUSH2 0x2BA6 JUMP JUMPDEST DUP3 ADD SWAP2 SWAP1 PUSH0 MSTORE PUSH1 0x20 PUSH0 KECCAK256 SWAP1 JUMPDEST DUP2 SLOAD DUP2 MSTORE SWAP1 PUSH1 0x1 ADD SWAP1 PUSH1 0x20 ADD DUP1 DUP4 GT PUSH2 0x2B89 JUMPI DUP3 SWAP1 SUB PUSH1 0x1F AND DUP3 ADD SWAP2 JUMPDEST POP POP POP PUSH0 DUP8 DUP2 MSTORE PUSH1 0x43 PUSH1 0x20 MSTORE PUSH1 0x40 DUP2 KECCAK256 PUSH1 0xA ADD SLOAD SWAP4 SWAP5 POP SWAP3 PUSH2 0x2BCB SWAP3 POP DUP7 SWAP2 POP PUSH2 0x3DC6 JUMP JUMPDEST PUSH0 DUP7 DUP2 MSTORE PUSH1 0x43 PUSH1 0x20 MSTORE PUSH1 0x40 SWAP1 KECCAK256 PUSH1 0x1 ADD SLOAD PUSH2 0x2BE6 SWAP2 SWAP1 PUSH2 0x3DC6 JUMP JUMPDEST SWAP1 POP PUSH3 0x989680 PUSH1 0x44 PUSH0 DUP9 DUP2 MSTORE PUSH1 0x20 ADD SWAP1 DUP2 MSTORE PUSH1 0x20 ADD PUSH0 KECCAK256 PUSH1 0x3 ADD DUP4 PUSH1 0x40 MLOAD PUSH2 0x2C0E SWAP2 SWAP1 PUSH2 0x3EB3 JUMP JUMPDEST SWAP1 DUP2 MSTORE PUSH1 0x20 ADD PUSH1 0x40 MLOAD DUP1 SWAP2 SUB SWAP1 KECCAK256 SLOAD DUP3 PUSH1 0x42 DUP6 PUSH1 0x40 MLOAD PUSH2 0x2C2E SWAP2 SWAP1 PUSH2 0x3EB3 JUMP JUMPDEST SWAP1 DUP2 MSTORE PUSH1 0x20 ADD PUSH1 0x40 MLOAD DUP1 SWAP2 SUB SWAP1 KECCAK256 PUSH1 0x2 ADD SLOAD PUSH1 0x44 PUSH0 DUP12 DUP2 MSTORE PUSH1 0x20 ADD SWAP1 DUP2 MSTORE PUSH1 0x20 ADD PUSH0 KECCAK256 PUSH1 0x2 ADD SLOAD PUSH2 0x2C5F SWAP2 SWAP1 PUSH2 0x3DF8 JUMP JUMPDEST PUSH2 0x2C69 SWAP2 SWAP1 PUSH2 0x3DF8 JUMP JUMPDEST PUSH2 0x2C73 SWAP2 SWAP1 PUSH2 0x3DD9 JUMP JUMPDEST PUSH2 0x2C7D SWAP2 SWAP1 PUSH2 0x3DD9 JUMP JUMPDEST SWAP7 SWAP6 POP POP POP POP POP POP JUMP JUMPDEST PUSH1 0x38 SLOAD DUP3 LT ISZERO PUSH2 0x2CA9 JUMPI PUSH1 0x40 MLOAD PUSH3 0x461BCD PUSH1 0xE5 SHL DUP2 MSTORE PUSH1 0x4 ADD PUSH2 0xA31 SWAP1 PUSH2 0x3F97 JUMP JUMPDEST PUSH0 DUP2 DUP2 MSTORE PUSH1 0x43 PUSH1 0x20 MSTORE PUSH1 0x40 DUP2 KECCAK256 DUP1 SLOAD PUSH2 0x2CC1 SWAP1 PUSH2 0x3EC9 JUMP JUMPDEST DUP1 PUSH1 0x1F ADD PUSH1 0x20 DUP1 SWAP2 DIV MUL PUSH1 0x20 ADD PUSH1 0x40 MLOAD SWAP1 DUP2 ADD PUSH1 0x40 MSTORE DUP1 SWAP3 SWAP2 SWAP1 DUP2 DUP2 MSTORE PUSH1 0x20 ADD DUP3 DUP1 SLOAD PUSH2 0x2CED SWAP1 PUSH2 0x3EC9 JUMP JUMPDEST DUP1 ISZERO PUSH2 0x2D38 JUMPI DUP1 PUSH1 0x1F LT PUSH2 0x2D0F JUMPI PUSH2 0x100 DUP1 DUP4 SLOAD DIV MUL DUP4 MSTORE SWAP2 PUSH1 0x20 ADD SWAP2 PUSH2 0x2D38 JUMP JUMPDEST DUP3 ADD SWAP2 SWAP1 PUSH0 MSTORE PUSH1 0x20 PUSH0 KECCAK256 SWAP1 JUMPDEST DUP2 SLOAD DUP2 MSTORE SWAP1 PUSH1 0x1 ADD SWAP1 PUSH1 0x20 ADD DUP1 DUP4 GT PUSH2 0x2D1B JUMPI DUP3 SWAP1 SUB PUSH1 0x1F AND DUP3 ADD SWAP2 JUMPDEST POP POP POP POP POP SWAP1 POP PUSH1 0x42 DUP2 PUSH1 0x40 MLOAD PUSH2 0x2D4F SWAP2 SWAP1 PUSH2 0x3EB3 JUMP JUMPDEST SWAP1 DUP2 MSTORE PUSH1 0x40 MLOAD SWAP1 DUP2 SWAP1 SUB PUSH1 0x20 ADD SWAP1 KECCAK256 SLOAD PUSH1 0xFF AND PUSH2 0x2DAE JUMPI PUSH1 0x40 MLOAD PUSH3 0x461BCD PUSH1 0xE5 SHL DUP2 MSTORE PUSH1 0x20 PUSH1 0x4 DUP3 ADD MSTORE PUSH1 0x1A PUSH1 0x24 DUP3 ADD MSTORE PUSH32 0x506F6F6C2069732063757272656E746C792064697361626C6564000000000000 PUSH1 0x44 DUP3 ADD MSTORE PUSH1 0x64 ADD PUSH2 0xA31 JUMP JUMPDEST PUSH0 PUSH2 0x2DB9 DUP5 DUP4 PUSH2 0x1F3D JUMP JUMPDEST PUSH1 0x33 SLOAD PUSH1 0x40 MLOAD PUSH4 0x40C10F19 PUSH1 0xE0 SHL DUP2 MSTORE CALLER PUSH1 0x4 DUP3 ADD MSTORE PUSH1 0x24 DUP2 ADD DUP4 SWAP1 MSTORE SWAP2 SWAP3 POP PUSH1 0x1 PUSH1 0x1 PUSH1 0xA0 SHL SUB AND SWAP1 PUSH4 0x40C10F19 SWAP1 PUSH1 0x44 ADD PUSH0 PUSH1 0x40 MLOAD DUP1 DUP4 SUB DUP2 PUSH0 DUP8 DUP1 EXTCODESIZE ISZERO DUP1 ISZERO PUSH2 0x2E03 JUMPI PUSH0 PUSH0 REVERT JUMPDEST POP GAS CALL ISZERO DUP1 ISZERO PUSH2 0x2E15 JUMPI RETURNDATASIZE PUSH0 PUSH0 RETURNDATACOPY RETURNDATASIZE PUSH0 REVERT JUMPDEST POP POP POP PUSH0 DUP5 DUP2 MSTORE PUSH1 0x43 PUSH1 0x20 MSTORE PUSH1 0x40 DUP2 KECCAK256 PUSH1 0x1 ADD DUP1 SLOAD DUP8 SWAP4 POP SWAP1 SWAP2 SWAP1 PUSH2 0x2E3B SWAP1 DUP5 SWAP1 PUSH2 0x3E0F JUMP JUMPDEST SWAP1 SWAP2 SSTORE POP POP PUSH0 DUP4 DUP2 MSTORE PUSH1 0x43 PUSH1 0x20 MSTORE PUSH1 0x40 DUP2 KECCAK256 PUSH1 0x6 ADD DUP1 SLOAD DUP4 SWAP3 SWAP1 PUSH2 0x2E60 SWAP1 DUP5 SWAP1 PUSH2 0x3E0F JUMP JUMPDEST SWAP1 SWAP2 SSTORE POP PUSH0 SWAP1 POP PUSH2 0x2E6F PUSH2 0x2045 JUMP JUMPDEST PUSH0 DUP6 DUP2 MSTORE PUSH1 0x43 PUSH1 0x20 MSTORE PUSH1 0x40 SWAP1 KECCAK256 PUSH1 0x9 ADD SLOAD SWAP1 SWAP2 POP DUP2 DUP2 LT ISZERO DUP1 PUSH2 0x2EA2 JUMPI POP PUSH0 DUP6 DUP2 MSTORE PUSH1 0x43 PUSH1 0x20 MSTORE PUSH1 0x40 SWAP1 KECCAK256 PUSH1 0x2 ADD SLOAD PUSH1 0xFF AND JUMPDEST ISZERO PUSH2 0x2F2F JUMPI DUP6 PUSH1 0x44 PUSH0 DUP5 DUP2 MSTORE PUSH1 0x20 ADD SWAP1 DUP2 MSTORE PUSH1 0x20 ADD PUSH0 KECCAK256 PUSH1 0x4 ADD DUP6 PUSH1 0x40 MLOAD PUSH2 0x2ECA SWAP2 SWAP1 PUSH2 0x3EB3 JUMP JUMPDEST SWAP1 DUP2 MSTORE PUSH1 0x20 ADD PUSH1 0x40 MLOAD DUP1 SWAP2 SUB SWAP1 KECCAK256 PUSH0 DUP3 DUP3 SLOAD PUSH2 0x2EE6 SWAP2 SWAP1 PUSH2 0x3E0F JUMP JUMPDEST SWAP1 SWAP2 SSTORE POP POP PUSH0 DUP2 DUP2 MSTORE PUSH1 0x44 PUSH1 0x20 MSTORE PUSH1 0x40 SWAP1 DUP2 SWAP1 KECCAK256 SWAP1 MLOAD DUP8 SWAP2 PUSH1 0x5 ADD SWAP1 PUSH2 0x2F0D SWAP1 DUP8 SWAP1 PUSH2 0x3EB3 JUMP JUMPDEST SWAP1 DUP2 MSTORE PUSH1 0x20 ADD PUSH1 0x40 MLOAD DUP1 SWAP2 SUB SWAP1 KECCAK256 PUSH0 DUP3 DUP3 SLOAD PUSH2 0x2F29 SWAP2 SWAP1 PUSH2 0x3E0F JUMP JUMPDEST SWAP1 SWAP2 SSTORE POP POP JUMPDEST PUSH0 DUP6 DUP2 MSTORE PUSH1 0x43 PUSH1 0x20 MSTORE PUSH1 0x40 DUP2 KECCAK256 PUSH1 0xA ADD DUP1 SLOAD DUP9 SWAP3 SWAP1 PUSH2 0x2F4F SWAP1 DUP5 SWAP1 PUSH2 0x3E0F JUMP JUMPDEST SWAP1 SWAP2 SSTORE POP POP POP PUSH0 SWAP4 DUP5 MSTORE PUSH1 0x43 PUSH1 0x20 SWAP1 DUP2 MSTORE PUSH1 0x40 DUP1 DUP7 KECCAK256 PUSH1 0xA DUP2 ADD SLOAD SWAP4 DUP8 MSTORE PUSH1 0xB ADD SWAP1 SWAP2 MSTORE SWAP1 SWAP4 KECCAK256 SWAP3 SWAP1 SWAP3 SSTORE POP POP POP JUMP JUMPDEST PUSH1 0x42 DUP3 PUSH1 0x40 MLOAD PUSH2 0x2F8F SWAP2 SWAP1 PUSH2 0x3EB3 JUMP JUMPDEST SWAP1 DUP2 MSTORE PUSH1 0x40 MLOAD SWAP1 DUP2 SWAP1 SUB PUSH1 0x20 ADD SWAP1 KECCAK256 SLOAD PUSH1 0xFF AND PUSH2 0x2FFC JUMPI PUSH1 0x40 MLOAD PUSH3 0x461BCD PUSH1 0xE5 SHL DUP2 MSTORE PUSH1 0x20 PUSH1 0x4 DUP3 ADD MSTORE PUSH1 0x25 PUSH1 0x24 DUP3 ADD MSTORE PUSH32 0x54686520706F6F6C206973206E6F7420617661696C61626C6520666F72207374 PUSH1 0x44 DUP3 ADD MSTORE PUSH5 0x616B696E67 PUSH1 0xD8 SHL PUSH1 0x64 DUP3 ADD MSTORE PUSH1 0x84 ADD PUSH2 0xA31 JUMP JUMPDEST PUSH1 0x35 DUP1 SLOAD SWAP1 PUSH0 PUSH2 0x300B DUP4 PUSH2 0x3E3D JUMP JUMPDEST SWAP2 SWAP1 POP SSTORE POP PUSH0 PUSH1 0x42 DUP4 PUSH1 0x40 MLOAD PUSH2 0x3021 SWAP2 SWAP1 PUSH2 0x3EB3 JUMP JUMPDEST SWAP1 DUP2 MSTORE PUSH1 0x20 ADD PUSH1 0x40 MLOAD DUP1 SWAP2 SUB SWAP1 KECCAK256 PUSH1 0x5 ADD SLOAD DUP3 PUSH2 0x303E SWAP2 SWAP1 PUSH2 0x3E0F JUMP JUMPDEST SWAP1 POP PUSH0 PUSH2 0x304B DUP7 DUP9 PUSH2 0x3E0F JUMP JUMPDEST SWAP1 POP PUSH0 PUSH2 0x3058 DUP3 DUP7 PUSH2 0x1F3D JUMP JUMPDEST SWAP1 POP DUP6 DUP2 GT ISZERO PUSH2 0x30D8 JUMPI PUSH1 0x33 SLOAD PUSH1 0x1 PUSH1 0x1 PUSH1 0xA0 SHL SUB AND PUSH4 0x40C10F19 CALLER PUSH2 0x307E DUP10 DUP6 PUSH2 0x3DC6 JUMP JUMPDEST PUSH1 0x40 MLOAD PUSH1 0x1 PUSH1 0x1 PUSH1 0xE0 SHL SUB NOT PUSH1 0xE0 DUP6 SWAP1 SHL AND DUP2 MSTORE PUSH1 0x1 PUSH1 0x1 PUSH1 0xA0 SHL SUB SWAP1 SWAP3 AND PUSH1 0x4 DUP4 ADD MSTORE PUSH1 0x24 DUP3 ADD MSTORE PUSH1 0x44 ADD PUSH0 PUSH1 0x40 MLOAD DUP1 DUP4 SUB DUP2 PUSH0 DUP8 DUP1 EXTCODESIZE ISZERO DUP1 ISZERO PUSH2 0x30C1 JUMPI PUSH0 PUSH0 REVERT JUMPDEST POP GAS CALL ISZERO DUP1 ISZERO PUSH2 0x30D3 JUMPI RETURNDATASIZE PUSH0 PUSH0 RETURNDATACOPY RETURNDATASIZE PUSH0 REVERT JUMPDEST POP POP POP POP JUMPDEST PUSH1 0x42 DUP6 PUSH1 0x40 MLOAD PUSH2 0x30E8 SWAP2 SWAP1 PUSH2 0x3EB3 JUMP JUMPDEST SWAP1 DUP2 MSTORE PUSH1 0x20 ADD PUSH1 0x40 MLOAD DUP1 SWAP2 SUB SWAP1 KECCAK256 PUSH1 0x3 ADD SLOAD PUSH0 EQ PUSH2 0x3295 JUMPI PUSH2 0x3109 CALLER PUSH2 0x1F81 JUMP JUMPDEST ISZERO PUSH2 0x3156 JUMPI PUSH1 0x40 MLOAD PUSH3 0x461BCD PUSH1 0xE5 SHL DUP2 MSTORE PUSH1 0x20 PUSH1 0x4 DUP3 ADD MSTORE PUSH1 0x1C PUSH1 0x24 DUP3 ADD MSTORE PUSH32 0x54696D6562617365206C6F636B20616C72656164792065786973747300000000 PUSH1 0x44 DUP3 ADD MSTORE PUSH1 0x64 ADD PUSH2 0xA31 JUMP JUMPDEST CALLER PUSH0 SWAP1 DUP2 MSTORE PUSH1 0x3D PUSH1 0x20 SWAP1 DUP2 MSTORE PUSH1 0x40 DUP1 DUP4 KECCAK256 PUSH1 0x35 SLOAD DUP2 SLOAD PUSH1 0x1 DUP2 ADD DUP4 SSTORE SWAP2 DUP6 MSTORE SWAP3 DUP5 KECCAK256 ADD SWAP2 SWAP1 SWAP2 SSTORE MLOAD PUSH1 0x42 SWAP1 PUSH2 0x318C SWAP1 DUP9 SWAP1 PUSH2 0x3EB3 JUMP JUMPDEST SWAP1 DUP2 MSTORE PUSH1 0x20 ADD PUSH1 0x40 MLOAD DUP1 SWAP2 SUB SWAP1 KECCAK256 PUSH1 0x2 ADD SLOAD GT ISZERO PUSH2 0x31CB JUMPI CALLER PUSH0 SWAP1 DUP2 MSTORE PUSH1 0x3E PUSH1 0x20 SWAP1 DUP2 MSTORE PUSH1 0x40 DUP3 KECCAK256 PUSH1 0x35 SLOAD DUP2 SLOAD PUSH1 0x1 DUP2 ADD DUP4 SSTORE SWAP2 DUP5 MSTORE SWAP2 SWAP1 SWAP3 KECCAK256 SWAP1 SWAP2 ADD SSTORE JUMPDEST DUP8 ISZERO PUSH2 0x324B JUMPI PUSH1 0x32 SLOAD PUSH1 0x40 MLOAD PUSH4 0x23B872DD PUSH1 0xE0 SHL DUP2 MSTORE CALLER PUSH1 0x4 DUP3 ADD MSTORE ADDRESS PUSH1 0x24 DUP3 ADD MSTORE PUSH1 0x44 DUP2 ADD DUP11 SWAP1 MSTORE PUSH1 0x1 PUSH1 0x1 PUSH1 0xA0 SHL SUB SWAP1 SWAP2 AND SWAP1 PUSH4 0x23B872DD SWAP1 PUSH1 0x64 ADD PUSH1 0x20 PUSH1 0x40 MLOAD DUP1 DUP4 SUB DUP2 PUSH0 DUP8 GAS CALL ISZERO DUP1 ISZERO PUSH2 0x3225 JUMPI RETURNDATASIZE PUSH0 PUSH0 RETURNDATACOPY RETURNDATASIZE PUSH0 REVERT JUMPDEST POP POP POP POP PUSH1 0x40 MLOAD RETURNDATASIZE PUSH1 0x1F NOT PUSH1 0x1F DUP3 ADD AND DUP3 ADD DUP1 PUSH1 0x40 MSTORE POP DUP2 ADD SWAP1 PUSH2 0x3249 SWAP2 SWAP1 PUSH2 0x3E22 JUMP JUMPDEST POP JUMPDEST DUP2 PUSH1 0x44 PUSH0 DUP6 DUP2 MSTORE PUSH1 0x20 ADD SWAP1 DUP2 MSTORE PUSH1 0x20 ADD PUSH0 KECCAK256 PUSH1 0x5 ADD DUP7 PUSH1 0x40 MLOAD PUSH2 0x326E SWAP2 SWAP1 PUSH2 0x3EB3 JUMP JUMPDEST SWAP1 DUP2 MSTORE PUSH1 0x20 ADD PUSH1 0x40 MLOAD DUP1 SWAP2 SUB SWAP1 KECCAK256 PUSH0 DUP3 DUP3 SLOAD PUSH2 0x328A SWAP2 SWAP1 PUSH2 0x3E0F JUMP JUMPDEST SWAP1 SWAP2 SSTORE POP PUSH2 0x3381 SWAP1 POP JUMP JUMPDEST CALLER PUSH0 SWAP1 DUP2 MSTORE PUSH1 0x41 PUSH1 0x20 MSTORE PUSH1 0x40 SWAP1 KECCAK256 SLOAD ISZERO PUSH2 0x32F1 JUMPI PUSH1 0x40 MLOAD PUSH3 0x461BCD PUSH1 0xE5 SHL DUP2 MSTORE PUSH1 0x20 PUSH1 0x4 DUP3 ADD MSTORE PUSH1 0x1B PUSH1 0x24 DUP3 ADD MSTORE PUSH32 0x466F7265766572206C6F636B20616C7265616479206578697374730000000000 PUSH1 0x44 DUP3 ADD MSTORE PUSH1 0x64 ADD PUSH2 0xA31 JUMP JUMPDEST PUSH1 0x35 SLOAD CALLER PUSH0 DUP2 DUP2 MSTORE PUSH1 0x41 PUSH1 0x20 SWAP1 DUP2 MSTORE PUSH1 0x40 DUP1 DUP4 KECCAK256 DUP6 SWAP1 SSTORE SWAP4 DUP3 MSTORE PUSH1 0x43 SWAP1 MSTORE DUP3 SWAP1 KECCAK256 PUSH1 0x2 ADD DUP1 SLOAD PUSH1 0xFF NOT AND PUSH1 0x1 OR SWAP1 SSTORE PUSH1 0x32 SLOAD SWAP2 MLOAD PUSH4 0x79CC679 PUSH1 0xE4 SHL DUP2 MSTORE PUSH1 0x4 DUP2 ADD SWAP2 SWAP1 SWAP2 MSTORE PUSH1 0x24 DUP2 ADD DUP5 SWAP1 MSTORE PUSH1 0x1 PUSH1 0x1 PUSH1 0xA0 SHL SUB SWAP1 SWAP2 AND SWAP1 PUSH4 0x79CC6790 SWAP1 PUSH1 0x44 ADD PUSH0 PUSH1 0x40 MLOAD DUP1 DUP4 SUB DUP2 PUSH0 DUP8 DUP1 EXTCODESIZE ISZERO DUP1 ISZERO PUSH2 0x336A JUMPI PUSH0 PUSH0 REVERT JUMPDEST POP GAS CALL ISZERO DUP1 ISZERO PUSH2 0x337C JUMPI RETURNDATASIZE PUSH0 PUSH0 RETURNDATACOPY RETURNDATASIZE PUSH0 REVERT JUMPDEST POP POP POP POP JUMPDEST PUSH1 0x35 SLOAD PUSH0 SWAP1 DUP2 MSTORE PUSH1 0x43 PUSH1 0x20 MSTORE PUSH1 0x40 SWAP1 KECCAK256 PUSH2 0x339B DUP7 DUP3 PUSH2 0x4026 JUMP JUMPDEST POP PUSH1 0x35 SLOAD PUSH0 SWAP1 DUP2 MSTORE PUSH1 0x43 PUSH1 0x20 MSTORE PUSH1 0x40 SWAP1 DUP2 SWAP1 KECCAK256 PUSH1 0x1 ADD DUP4 SWAP1 SSTORE MLOAD PUSH1 0x42 SWAP1 PUSH2 0x33C3 SWAP1 DUP8 SWAP1 PUSH2 0x3EB3 JUMP JUMPDEST SWAP1 DUP2 MSTORE PUSH1 0x40 DUP1 MLOAD SWAP2 DUP3 SWAP1 SUB PUSH1 0x20 SWAP1 DUP2 ADD DUP4 KECCAK256 PUSH1 0x3 SWAP1 DUP2 ADD SLOAD PUSH1 0x35 DUP1 SLOAD PUSH0 SWAP1 DUP2 MSTORE PUSH1 0x43 SWAP1 SWAP5 MSTORE DUP5 DUP5 KECCAK256 SWAP1 SWAP3 ADD SSTORE SLOAD DUP2 MSTORE KECCAK256 TIMESTAMP PUSH1 0x4 SWAP1 SWAP2 ADD SSTORE PUSH1 0x42 SWAP1 PUSH2 0x3408 SWAP1 DUP8 SWAP1 PUSH2 0x3EB3 JUMP JUMPDEST SWAP1 DUP2 MSTORE PUSH1 0x20 ADD PUSH1 0x40 MLOAD DUP1 SWAP2 SUB SWAP1 KECCAK256 PUSH1 0x3 ADD SLOAD TIMESTAMP PUSH2 0x3425 SWAP2 SWAP1 PUSH2 0x3E0F JUMP JUMPDEST PUSH1 0x35 DUP1 SLOAD PUSH0 SWAP1 DUP2 MSTORE PUSH1 0x43 PUSH1 0x20 SWAP1 DUP2 MSTORE PUSH1 0x40 DUP1 DUP4 KECCAK256 PUSH1 0x5 ADD SWAP5 SWAP1 SWAP5 SSTORE DUP3 SLOAD DUP3 MSTORE DUP4 DUP3 KECCAK256 PUSH1 0x6 ADD DUP6 SWAP1 SSTORE DUP3 SLOAD DUP3 MSTORE DUP4 DUP3 KECCAK256 PUSH1 0x2 ADD DUP1 SLOAD PUSH2 0xFF00 NOT AND PUSH2 0x100 OR SWAP1 SSTORE DUP3 SLOAD DUP3 MSTORE DUP4 DUP3 KECCAK256 PUSH1 0x8 ADD DUP9 SWAP1 SSTORE SWAP2 SLOAD DUP2 MSTORE DUP3 DUP2 KECCAK256 PUSH1 0x9 ADD DUP7 SWAP1 SSTORE DUP7 DUP2 MSTORE PUSH1 0x44 SWAP1 SWAP2 MSTORE DUP2 SWAP1 KECCAK256 SWAP1 MLOAD DUP4 SWAP2 PUSH1 0x4 ADD SWAP1 PUSH2 0x349C SWAP1 DUP9 SWAP1 PUSH2 0x3EB3 JUMP JUMPDEST SWAP1 DUP2 MSTORE PUSH1 0x20 ADD PUSH1 0x40 MLOAD DUP1 SWAP2 SUB SWAP1 KECCAK256 PUSH0 DUP3 DUP3 SLOAD PUSH2 0x34B8 SWAP2 SWAP1 PUSH2 0x3E0F JUMP JUMPDEST SWAP1 SWAP2 SSTORE POP POP PUSH1 0x35 SLOAD PUSH1 0x40 MLOAD CALLER SWAP2 SWAP1 PUSH32 0xE11027F9E3D7AA31B5D23503BE35FAEDE305799D8C9AB6C5B06FE0F28589906 SWAP1 PUSH2 0x34F7 SWAP1 DUP7 SWAP1 DUP11 SWAP1 DUP8 SWAP1 PUSH2 0x40E0 JUMP JUMPDEST PUSH1 0x40 MLOAD DUP1 SWAP2 SUB SWAP1 LOG3 POP POP POP POP POP POP POP POP JUMP JUMPDEST PUSH2 0x3511 PUSH2 0x2883 JUMP JUMPDEST PUSH0 DUP1 SLOAD PUSH1 0xFF NOT AND PUSH1 0x1 OR SWAP1 SSTORE PUSH32 0x62E78CEA01BEE320CD4E420270B5EA74000D11B0C9F74754EBDBFC544B05A258 PUSH2 0x2AF7 CALLER SWAP1 JUMP JUMPDEST PUSH0 DUP1 PUSH32 0xF0C57E16840DF040F15088DC2F81FE391C3923BEC73E23A9662EFC9C229C6A00 PUSH2 0x8D3 JUMP JUMPDEST PUSH2 0x3577 DUP3 DUP3 PUSH2 0x1E97 JUMP JUMPDEST PUSH2 0x2254 JUMPI PUSH1 0x40 MLOAD PUSH4 0xE2517D3F PUSH1 0xE0 SHL DUP2 MSTORE PUSH1 0x1 PUSH1 0x1 PUSH1 0xA0 SHL SUB DUP3 AND PUSH1 0x4 DUP3 ADD MSTORE PUSH1 0x24 DUP2 ADD DUP4 SWAP1 MSTORE PUSH1 0x44 ADD PUSH2 0xA31 JUMP JUMPDEST DUP1 ISZERO DUP1 ISZERO SWAP1 PUSH2 0x35CA JUMPI POP PUSH0 DUP2 DUP2 MSTORE PUSH1 0x43 PUSH1 0x20 MSTORE PUSH1 0x40 SWAP1 KECCAK256 PUSH1 0x9 DUP2 ADD SLOAD PUSH1 0x8 SWAP1 SWAP2 ADD SLOAD LT JUMPDEST ISZERO PUSH2 0xDB6 JUMPI PUSH0 PUSH0 PUSH2 0x35DC DUP4 PUSH1 0xA PUSH2 0xE46 JUMP JUMPDEST PUSH0 DUP7 DUP2 MSTORE PUSH1 0x43 PUSH1 0x20 MSTORE PUSH1 0x40 DUP2 KECCAK256 PUSH1 0x8 DUP2 ADD SWAP4 SWAP1 SWAP4 SSTORE PUSH1 0x7 SWAP1 SWAP3 ADD DUP1 SLOAD SWAP4 SWAP6 POP SWAP1 SWAP4 POP DUP5 SWAP3 SWAP1 SWAP2 SWAP1 PUSH2 0x360E SWAP1 DUP5 SWAP1 PUSH2 0x3E0F JUMP JUMPDEST SWAP1 SWAP2 SSTORE POP POP CALLER PUSH0 SWAP1 DUP2 MSTORE PUSH1 0x40 PUSH1 0x20 DUP2 SWAP1 MSTORE DUP2 KECCAK256 DUP1 SLOAD DUP5 SWAP3 SWAP1 PUSH2 0x3631 SWAP1 DUP5 SWAP1 PUSH2 0x3E0F JUMP JUMPDEST SWAP1 SWAP2 SSTORE POP POP PUSH0 DUP4 DUP2 MSTORE PUSH1 0x43 PUSH1 0x20 DUP2 DUP2 MSTORE PUSH1 0x40 DUP1 DUP5 KECCAK256 PUSH1 0x8 DUP2 ADD DUP1 SLOAD DUP7 MSTORE PUSH1 0xB DUP3 ADD DUP5 MSTORE SWAP2 DUP6 KECCAK256 DUP7 SWAP1 SSTORE SWAP4 DUP8 SWAP1 MSTORE SWAP2 SWAP1 MSTORE PUSH1 0x9 SWAP1 SWAP2 ADD SLOAD SWAP1 SLOAD SUB PUSH2 0xCD5 JUMPI CALLER PUSH0 SWAP1 DUP2 MSTORE PUSH1 0x3F PUSH1 0x20 MSTORE PUSH1 0x40 DUP2 KECCAK256 DUP1 SLOAD SWAP2 PUSH2 0x3688 DUP4 PUSH2 0x3E3D JUMP JUMPDEST SWAP2 SWAP1 POP SSTORE POP POP POP POP JUMP JUMPDEST CALLER PUSH0 SWAP1 DUP2 MSTORE PUSH1 0x41 PUSH1 0x20 MSTORE PUSH1 0x40 SWAP1 KECCAK256 SLOAD DUP1 ISZERO DUP1 ISZERO SWAP1 PUSH2 0x36C1 JUMPI POP PUSH1 0x36 SLOAD PUSH0 DUP3 DUP2 MSTORE PUSH1 0x43 PUSH1 0x20 MSTORE PUSH1 0x40 SWAP1 KECCAK256 PUSH1 0x8 ADD SLOAD LT JUMPDEST ISZERO PUSH2 0xDB6 JUMPI PUSH0 PUSH0 PUSH2 0x36D3 DUP4 PUSH1 0xA PUSH2 0xE46 JUMP JUMPDEST PUSH0 DUP7 DUP2 MSTORE PUSH1 0x43 PUSH1 0x20 MSTORE PUSH1 0x40 DUP2 KECCAK256 PUSH1 0x8 DUP2 ADD SWAP4 SWAP1 SWAP4 SSTORE PUSH1 0x7 SWAP1 SWAP3 ADD DUP1 SLOAD SWAP4 SWAP6 POP SWAP1 SWAP4 POP DUP5 SWAP3 SWAP1 SWAP2 SWAP1 PUSH2 0x3705 SWAP1 DUP5 SWAP1 PUSH2 0x3E0F JUMP JUMPDEST SWAP1 SWAP2 SSTORE POP POP CALLER PUSH0 SWAP1 DUP2 MSTORE PUSH1 0x40 PUSH1 0x20 DUP2 SWAP1 MSTORE DUP2 KECCAK256 DUP1 SLOAD DUP5 SWAP3 SWAP1 PUSH2 0x3728 SWAP1 DUP5 SWAP1 PUSH2 0x3E0F JUMP JUMPDEST SWAP1 SWAP2 SSTORE POP POP PUSH0 DUP4 DUP2 MSTORE PUSH1 0x43 PUSH1 0x20 SWAP1 DUP2 MSTORE PUSH1 0x40 DUP1 DUP4 KECCAK256 PUSH1 0x8 DUP2 ADD SLOAD DUP5 MSTORE PUSH1 0xB ADD SWAP1 SWAP2 MSTORE SWAP1 KECCAK256 SSTORE POP POP JUMP JUMPDEST PUSH0 SLOAD PUSH1 0xFF AND PUSH2 0x28C8 JUMPI PUSH1 0x40 MLOAD PUSH3 0x461BCD PUSH1 0xE5 SHL DUP2 MSTORE PUSH1 0x20 PUSH1 0x4 DUP3 ADD MSTORE PUSH1 0x14 PUSH1 0x24 DUP3 ADD MSTORE PUSH20 0x14185D5CD8589B194E881B9BDD081C185D5CD959 PUSH1 0x62 SHL PUSH1 0x44 DUP3 ADD MSTORE PUSH1 0x64 ADD PUSH2 0xA31 JUMP JUMPDEST DUP3 DUP1 SLOAD DUP3 DUP3 SSTORE SWAP1 PUSH0 MSTORE PUSH1 0x20 PUSH0 KECCAK256 SWAP1 DUP2 ADD SWAP3 DUP3 ISZERO PUSH2 0x37DD JUMPI SWAP2 PUSH1 0x20 MUL DUP3 ADD JUMPDEST DUP3 DUP2 GT ISZERO PUSH2 0x37DD JUMPI DUP3 MLOAD DUP3 SWAP1 PUSH2 0x37CD SWAP1 DUP3 PUSH2 0x4026 JUMP JUMPDEST POP SWAP2 PUSH1 0x20 ADD SWAP2 SWAP1 PUSH1 0x1 ADD SWAP1 PUSH2 0x37B7 JUMP JUMPDEST POP PUSH2 0x37E9 SWAP3 SWAP2 POP PUSH2 0x37ED JUMP JUMPDEST POP SWAP1 JUMP JUMPDEST DUP1 DUP3 GT ISZERO PUSH2 0x37E9 JUMPI PUSH0 PUSH2 0x3800 DUP3 DUP3 PUSH2 0x3809 JUMP JUMPDEST POP PUSH1 0x1 ADD PUSH2 0x37ED JUMP JUMPDEST POP DUP1 SLOAD PUSH2 0x3815 SWAP1 PUSH2 0x3EC9 JUMP JUMPDEST PUSH0 DUP3 SSTORE DUP1 PUSH1 0x1F LT PUSH2 0x3824 JUMPI POP POP JUMP JUMPDEST PUSH1 0x1F ADD PUSH1 0x20 SWAP1 DIV SWAP1 PUSH0 MSTORE PUSH1 0x20 PUSH0 KECCAK256 SWAP1 DUP2 ADD SWAP1 PUSH2 0xDB6 SWAP2 SWAP1 JUMPDEST DUP1 DUP3 GT ISZERO PUSH2 0x37E9 JUMPI PUSH0 DUP2 SSTORE PUSH1 0x1 ADD PUSH2 0x383C JUMP JUMPDEST PUSH0 PUSH1 0x20 DUP3 DUP5 SUB SLT ISZERO PUSH2 0x385F JUMPI PUSH0 PUSH0 REVERT JUMPDEST DUP2 CALLDATALOAD PUSH1 0x1 PUSH1 0x1 PUSH1 0xE0 SHL SUB NOT DUP2 AND DUP2 EQ PUSH2 0x1F7A JUMPI PUSH0 PUSH0 REVERT JUMPDEST DUP1 CALLDATALOAD PUSH1 0x1 PUSH1 0x1 PUSH1 0xA0 SHL SUB DUP2 AND DUP2 EQ PUSH2 0x388C JUMPI PUSH0 PUSH0 REVERT JUMPDEST SWAP2 SWAP1 POP JUMP JUMPDEST PUSH0 PUSH1 0x20 DUP3 DUP5 SUB SLT ISZERO PUSH2 0x38A1 JUMPI PUSH0 PUSH0 REVERT JUMPDEST PUSH2 0x1F7A DUP3 PUSH2 0x3876 JUMP JUMPDEST PUSH0 PUSH1 0x20 DUP3 DUP5 SUB SLT ISZERO PUSH2 0x38BA JUMPI PUSH0 PUSH0 REVERT JUMPDEST POP CALLDATALOAD SWAP2 SWAP1 POP JUMP JUMPDEST PUSH0 PUSH0 PUSH1 0x40 DUP4 DUP6 SUB SLT ISZERO PUSH2 0x38D2 JUMPI PUSH0 PUSH0 REVERT JUMPDEST POP POP DUP1 CALLDATALOAD SWAP3 PUSH1 0x20 SWAP1 SWAP2 ADD CALLDATALOAD SWAP2 POP JUMP JUMPDEST PUSH0 PUSH0 PUSH1 0x40 DUP4 DUP6 SUB SLT ISZERO PUSH2 0x38F2 JUMPI PUSH0 PUSH0 REVERT JUMPDEST DUP3 CALLDATALOAD SWAP2 POP PUSH2 0x3902 PUSH1 0x20 DUP5 ADD PUSH2 0x3876 JUMP JUMPDEST SWAP1 POP SWAP3 POP SWAP3 SWAP1 POP JUMP JUMPDEST DUP1 ISZERO ISZERO DUP2 EQ PUSH2 0xDB6 JUMPI PUSH0 PUSH0 REVERT JUMPDEST PUSH0 PUSH0 PUSH1 0x40 DUP4 DUP6 SUB SLT ISZERO PUSH2 0x3929 JUMPI PUSH0 PUSH0 REVERT JUMPDEST DUP3 CALLDATALOAD SWAP2 POP PUSH1 0x20 DUP4 ADD CALLDATALOAD PUSH2 0x393B DUP2 PUSH2 0x390B JUMP JUMPDEST DUP1 SWAP2 POP POP SWAP3 POP SWAP3 SWAP1 POP JUMP JUMPDEST PUSH4 0x4E487B71 PUSH1 0xE0 SHL PUSH0 MSTORE PUSH1 0x41 PUSH1 0x4 MSTORE PUSH1 0x24 PUSH0 REVERT JUMPDEST PUSH1 0x40 MLOAD PUSH1 0x1F DUP3 ADD PUSH1 0x1F NOT AND DUP2 ADD PUSH1 0x1 PUSH1 0x1 PUSH1 0x40 SHL SUB DUP2 GT DUP3 DUP3 LT OR ISZERO PUSH2 0x3982 JUMPI PUSH2 0x3982 PUSH2 0x3946 JUMP JUMPDEST PUSH1 0x40 MSTORE SWAP2 SWAP1 POP JUMP JUMPDEST PUSH0 DUP3 PUSH1 0x1F DUP4 ADD SLT PUSH2 0x3999 JUMPI PUSH0 PUSH0 REVERT JUMPDEST DUP2 CALLDATALOAD PUSH1 0x1 PUSH1 0x1 PUSH1 0x40 SHL SUB DUP2 GT ISZERO PUSH2 0x39B2 JUMPI PUSH2 0x39B2 PUSH2 0x3946 JUMP JUMPDEST PUSH2 0x39C5 PUSH1 0x1F DUP3 ADD PUSH1 0x1F NOT AND PUSH1 0x20 ADD PUSH2 0x395A JUMP JUMPDEST DUP2 DUP2 MSTORE DUP5 PUSH1 0x20 DUP4 DUP7 ADD ADD GT ISZERO PUSH2 0x39D9 JUMPI PUSH0 PUSH0 REVERT JUMPDEST DUP2 PUSH1 0x20 DUP6 ADD PUSH1 0x20 DUP4 ADD CALLDATACOPY PUSH0 SWAP2 DUP2 ADD PUSH1 0x20 ADD SWAP2 SWAP1 SWAP2 MSTORE SWAP4 SWAP3 POP POP POP JUMP JUMPDEST PUSH0 PUSH0 PUSH1 0x40 DUP4 DUP6 SUB SLT ISZERO PUSH2 0x3A06 JUMPI PUSH0 PUSH0 REVERT JUMPDEST DUP3 CALLDATALOAD PUSH1 0x1 PUSH1 0x1 PUSH1 0x40 SHL SUB DUP2 GT ISZERO PUSH2 0x3A1B JUMPI PUSH0 PUSH0 REVERT JUMPDEST PUSH2 0x3A27 DUP6 DUP3 DUP7 ADD PUSH2 0x398A JUMP JUMPDEST SWAP3 POP POP PUSH1 0x20 DUP4 ADD CALLDATALOAD PUSH2 0x393B DUP2 PUSH2 0x390B JUMP JUMPDEST PUSH0 PUSH0 PUSH1 0x40 DUP4 DUP6 SUB SLT ISZERO PUSH2 0x3A49 JUMPI PUSH0 PUSH0 REVERT JUMPDEST DUP3 CALLDATALOAD SWAP2 POP PUSH1 0x20 DUP4 ADD CALLDATALOAD PUSH1 0x1 PUSH1 0x1 PUSH1 0x40 SHL SUB DUP2 GT ISZERO PUSH2 0x3A65 JUMPI PUSH0 PUSH0 REVERT JUMPDEST PUSH2 0x3A71 DUP6 DUP3 DUP7 ADD PUSH2 0x398A JUMP JUMPDEST SWAP2 POP POP SWAP3 POP SWAP3 SWAP1 POP JUMP JUMPDEST PUSH0 DUP2 MLOAD DUP1 DUP5 MSTORE DUP1 PUSH1 0x20 DUP5 ADD PUSH1 0x20 DUP7 ADD MCOPY PUSH0 PUSH1 0x20 DUP3 DUP7 ADD ADD MSTORE PUSH1 0x20 PUSH1 0x1F NOT PUSH1 0x1F DUP4 ADD AND DUP6 ADD ADD SWAP2 POP POP SWAP3 SWAP2 POP POP JUMP JUMPDEST PUSH1 0x20 DUP2 MSTORE PUSH0 PUSH2 0x1F7A PUSH1 0x20 DUP4 ADD DUP5 PUSH2 0x3A7B JUMP JUMPDEST PUSH0 PUSH0 PUSH1 0x40 DUP4 DUP6 SUB SLT ISZERO PUSH2 0x3ACC JUMPI PUSH0 PUSH0 REVERT JUMPDEST PUSH2 0x3AD5 DUP4 PUSH2 0x3876 JUMP JUMPDEST SWAP5 PUSH1 0x20 SWAP4 SWAP1 SWAP4 ADD CALLDATALOAD SWAP4 POP POP POP JUMP JUMPDEST PUSH0 PUSH1 0x20 DUP3 DUP5 SUB SLT ISZERO PUSH2 0x3AF3 JUMPI PUSH0 PUSH0 REVERT JUMPDEST DUP2 CALLDATALOAD PUSH1 0x1 PUSH1 0x1 PUSH1 0x40 SHL SUB DUP2 GT ISZERO PUSH2 0x3B08 JUMPI PUSH0 PUSH0 REVERT JUMPDEST PUSH2 0x9BB DUP5 DUP3 DUP6 ADD PUSH2 0x398A JUMP JUMPDEST PUSH0 PUSH1 0x20 DUP3 DUP5 SUB SLT ISZERO PUSH2 0x3B24 JUMPI PUSH0 PUSH0 REVERT JUMPDEST DUP2 CALLDATALOAD PUSH2 0x1F7A DUP2 PUSH2 0x390B JUMP JUMPDEST PUSH2 0x180 DUP2 MSTORE PUSH0 PUSH2 0x3B43 PUSH2 0x180 DUP4 ADD DUP16 PUSH2 0x3A7B JUMP JUMPDEST PUSH1 0x20 DUP4 ADD SWAP14 SWAP1 SWAP14 MSTORE POP SWAP10 ISZERO ISZERO PUSH1 0x40 DUP12 ADD MSTORE SWAP8 ISZERO ISZERO PUSH1 0x60 DUP11 ADD MSTORE PUSH1 0x80 DUP10 ADD SWAP7 SWAP1 SWAP7 MSTORE PUSH1 0xA0 DUP9 ADD SWAP5 SWAP1 SWAP5 MSTORE PUSH1 0xC0 DUP8 ADD SWAP3 SWAP1 SWAP3 MSTORE PUSH1 0xE0 DUP7 ADD MSTORE PUSH2 0x100 DUP6 ADD MSTORE PUSH2 0x120 DUP5 ADD MSTORE PUSH2 0x140 DUP4 ADD MSTORE PUSH2 0x160 SWAP1 SWAP2 ADD MSTORE SWAP2 SWAP1 POP JUMP JUMPDEST PUSH0 PUSH1 0x1 PUSH1 0x1 PUSH1 0x40 SHL SUB DUP3 GT ISZERO PUSH2 0x3BAF JUMPI PUSH2 0x3BAF PUSH2 0x3946 JUMP JUMPDEST POP PUSH1 0x5 SHL PUSH1 0x20 ADD SWAP1 JUMP JUMPDEST PUSH0 DUP3 PUSH1 0x1F DUP4 ADD SLT PUSH2 0x3BC8 JUMPI PUSH0 PUSH0 REVERT JUMPDEST DUP2 CALLDATALOAD PUSH2 0x3BDB PUSH2 0x3BD6 DUP3 PUSH2 0x3B97 JUMP JUMPDEST PUSH2 0x395A JUMP JUMPDEST DUP1 DUP3 DUP3 MSTORE PUSH1 0x20 DUP3 ADD SWAP2 POP PUSH1 0x20 DUP4 PUSH1 0x5 SHL DUP7 ADD ADD SWAP3 POP DUP6 DUP4 GT ISZERO PUSH2 0x3BFC JUMPI PUSH0 PUSH0 REVERT JUMPDEST PUSH1 0x20 DUP6 ADD JUMPDEST DUP4 DUP2 LT ISZERO PUSH2 0x3C3C JUMPI DUP1 CALLDATALOAD PUSH1 0x1 PUSH1 0x1 PUSH1 0x40 SHL SUB DUP2 GT ISZERO PUSH2 0x3C1E JUMPI PUSH0 PUSH0 REVERT JUMPDEST PUSH2 0x3C2D DUP9 PUSH1 0x20 DUP4 DUP11 ADD ADD PUSH2 0x398A JUMP JUMPDEST DUP5 MSTORE POP PUSH1 0x20 SWAP3 DUP4 ADD SWAP3 ADD PUSH2 0x3C01 JUMP JUMPDEST POP SWAP6 SWAP5 POP POP POP POP POP JUMP JUMPDEST PUSH0 DUP3 PUSH1 0x1F DUP4 ADD SLT PUSH2 0x3C55 JUMPI PUSH0 PUSH0 REVERT JUMPDEST DUP2 CALLDATALOAD PUSH2 0x3C63 PUSH2 0x3BD6 DUP3 PUSH2 0x3B97 JUMP JUMPDEST DUP1 DUP3 DUP3 MSTORE PUSH1 0x20 DUP3 ADD SWAP2 POP PUSH1 0x20 DUP4 PUSH1 0x5 SHL DUP7 ADD ADD SWAP3 POP DUP6 DUP4 GT ISZERO PUSH2 0x3C84 JUMPI PUSH0 PUSH0 REVERT JUMPDEST PUSH1 0x20 DUP6 ADD JUMPDEST DUP4 DUP2 LT ISZERO PUSH2 0x3C3C JUMPI DUP1 CALLDATALOAD DUP4 MSTORE PUSH1 0x20 SWAP3 DUP4 ADD SWAP3 ADD PUSH2 0x3C89 JUMP JUMPDEST PUSH0 PUSH0 PUSH0 PUSH0 PUSH0 PUSH0 PUSH0 PUSH0 PUSH0 PUSH2 0x120 DUP11 DUP13 SUB SLT ISZERO PUSH2 0x3CBA JUMPI PUSH0 PUSH0 REVERT JUMPDEST PUSH2 0x3CC3 DUP11 PUSH2 0x3876 JUMP JUMPDEST SWAP9 POP PUSH2 0x3CD1 PUSH1 0x20 DUP12 ADD PUSH2 0x3876 JUMP JUMPDEST SWAP8 POP PUSH1 0x40 DUP11 ADD CALLDATALOAD SWAP7 POP PUSH1 0x60 DUP11 ADD CALLDATALOAD SWAP6 POP PUSH1 0x80 DUP11 ADD CALLDATALOAD PUSH1 0x1 PUSH1 0x1 PUSH1 0x40 SHL SUB DUP2 GT ISZERO PUSH2 0x3CF9 JUMPI PUSH0 PUSH0 REVERT JUMPDEST PUSH2 0x3D05 DUP13 DUP3 DUP14 ADD PUSH2 0x3BB9 JUMP JUMPDEST SWAP6 POP POP PUSH1 0xA0 DUP11 ADD CALLDATALOAD PUSH1 0x1 PUSH1 0x1 PUSH1 0x40 SHL SUB DUP2 GT ISZERO PUSH2 0x3D20 JUMPI PUSH0 PUSH0 REVERT JUMPDEST PUSH2 0x3D2C DUP13 DUP3 DUP14 ADD PUSH2 0x3C46 JUMP JUMPDEST SWAP5 POP POP PUSH1 0xC0 DUP11 ADD CALLDATALOAD PUSH1 0x1 PUSH1 0x1 PUSH1 0x40 SHL SUB DUP2 GT ISZERO PUSH2 0x3D47 JUMPI PUSH0 PUSH0 REVERT JUMPDEST PUSH2 0x3D53 DUP13 DUP3 DUP14 ADD PUSH2 0x3C46 JUMP JUMPDEST SWAP4 POP POP PUSH1 0xE0 DUP11 ADD CALLDATALOAD PUSH1 0x1 PUSH1 0x1 PUSH1 0x40 SHL SUB DUP2 GT ISZERO PUSH2 0x3D6E JUMPI PUSH0 PUSH0 REVERT JUMPDEST PUSH2 0x3D7A DUP13 DUP3 DUP14 ADD PUSH2 0x3C46 JUMP JUMPDEST SWAP3 POP POP PUSH2 0x100 DUP11 ADD CALLDATALOAD PUSH1 0x1 PUSH1 0x1 PUSH1 0x40 SHL SUB DUP2 GT ISZERO PUSH2 0x3D96 JUMPI PUSH0 PUSH0 REVERT JUMPDEST PUSH2 0x3DA2 DUP13 DUP3 DUP14 ADD PUSH2 0x3C46 JUMP JUMPDEST SWAP2 POP POP SWAP3 SWAP6 SWAP9 POP SWAP3 SWAP6 SWAP9 POP SWAP3 SWAP6 SWAP9 JUMP JUMPDEST PUSH4 0x4E487B71 PUSH1 0xE0 SHL PUSH0 MSTORE PUSH1 0x11 PUSH1 0x4 MSTORE PUSH1 0x24 PUSH0 REVERT JUMPDEST DUP2 DUP2 SUB DUP2 DUP2 GT ISZERO PUSH2 0x8D3 JUMPI PUSH2 0x8D3 PUSH2 0x3DB2 JUMP JUMPDEST PUSH0 DUP3 PUSH2 0x3DF3 JUMPI PUSH4 0x4E487B71 PUSH1 0xE0 SHL PUSH0 MSTORE PUSH1 0x12 PUSH1 0x4 MSTORE PUSH1 0x24 PUSH0 REVERT JUMPDEST POP DIV SWAP1 JUMP JUMPDEST DUP1 DUP3 MUL DUP2 ISZERO DUP3 DUP3 DIV DUP5 EQ OR PUSH2 0x8D3 JUMPI PUSH2 0x8D3 PUSH2 0x3DB2 JUMP JUMPDEST DUP1 DUP3 ADD DUP1 DUP3 GT ISZERO PUSH2 0x8D3 JUMPI PUSH2 0x8D3 PUSH2 0x3DB2 JUMP JUMPDEST PUSH0 PUSH1 0x20 DUP3 DUP5 SUB SLT ISZERO PUSH2 0x3E32 JUMPI PUSH0 PUSH0 REVERT JUMPDEST DUP2 MLOAD PUSH2 0x1F7A DUP2 PUSH2 0x390B JUMP JUMPDEST PUSH0 PUSH1 0x1 DUP3 ADD PUSH2 0x3E4E JUMPI PUSH2 0x3E4E PUSH2 0x3DB2 JUMP JUMPDEST POP PUSH1 0x1 ADD SWAP1 JUMP JUMPDEST PUSH1 0x20 DUP1 DUP3 MSTORE PUSH1 0x2A SWAP1 DUP3 ADD MSTORE PUSH32 0x4E6F2061637469766520666F7265766572206C6F636B2065786973747320666F PUSH1 0x40 DUP3 ADD MSTORE PUSH10 0x39103A3432903AB9B2B9 PUSH1 0xB1 SHL PUSH1 0x60 DUP3 ADD MSTORE PUSH1 0x80 ADD SWAP1 JUMP JUMPDEST PUSH4 0x4E487B71 PUSH1 0xE0 SHL PUSH0 MSTORE PUSH1 0x32 PUSH1 0x4 MSTORE PUSH1 0x24 PUSH0 REVERT JUMPDEST PUSH0 DUP3 MLOAD DUP1 PUSH1 0x20 DUP6 ADD DUP5 MCOPY PUSH0 SWAP3 ADD SWAP2 DUP3 MSTORE POP SWAP2 SWAP1 POP JUMP JUMPDEST PUSH1 0x1 DUP2 DUP2 SHR SWAP1 DUP3 AND DUP1 PUSH2 0x3EDD JUMPI PUSH1 0x7F DUP3 AND SWAP2 POP JUMPDEST PUSH1 0x20 DUP3 LT DUP2 SUB PUSH2 0x203F JUMPI PUSH4 0x4E487B71 PUSH1 0xE0 SHL PUSH0 MSTORE PUSH1 0x22 PUSH1 0x4 MSTORE PUSH1 0x24 PUSH0 REVERT JUMPDEST PUSH0 PUSH0 DUP4 SLOAD PUSH2 0x3F08 DUP2 PUSH2 0x3EC9 JUMP JUMPDEST PUSH1 0x1 DUP3 AND DUP1 ISZERO PUSH2 0x3F1F JUMPI PUSH1 0x1 DUP2 EQ PUSH2 0x3F34 JUMPI PUSH2 0x3F61 JUMP JUMPDEST PUSH1 0xFF NOT DUP4 AND DUP7 MSTORE DUP2 ISZERO ISZERO DUP3 MUL DUP7 ADD SWAP4 POP PUSH2 0x3F61 JUMP JUMPDEST DUP7 PUSH0 MSTORE PUSH1 0x20 PUSH0 KECCAK256 PUSH0 JUMPDEST DUP4 DUP2 LT ISZERO PUSH2 0x3F59 JUMPI DUP2 SLOAD DUP9 DUP3 ADD MSTORE PUSH1 0x1 SWAP1 SWAP2 ADD SWAP1 PUSH1 0x20 ADD PUSH2 0x3F3D JUMP JUMPDEST POP POP DUP2 DUP7 ADD SWAP4 POP JUMPDEST POP SWAP2 SWAP6 SWAP5 POP POP POP POP POP JUMP JUMPDEST PUSH0 PUSH1 0x20 DUP3 DUP5 SUB SLT ISZERO PUSH2 0x3F7C JUMPI PUSH0 PUSH0 REVERT JUMPDEST POP MLOAD SWAP2 SWAP1 POP JUMP JUMPDEST PUSH4 0x4E487B71 PUSH1 0xE0 SHL PUSH0 MSTORE PUSH1 0x31 PUSH1 0x4 MSTORE PUSH1 0x24 PUSH0 REVERT JUMPDEST PUSH1 0x20 DUP1 DUP3 MSTORE PUSH1 0x24 SWAP1 DUP3 ADD MSTORE PUSH32 0x416D6F756E742069732062656C6F7720746865206D696E696D756D2072657175 PUSH1 0x40 DUP3 ADD MSTORE PUSH4 0x1A5C9959 PUSH1 0xE2 SHL PUSH1 0x60 DUP3 ADD MSTORE PUSH1 0x80 ADD SWAP1 JUMP JUMPDEST PUSH1 0x1F DUP3 GT ISZERO PUSH2 0xCD5 JUMPI DUP1 PUSH0 MSTORE PUSH1 0x20 PUSH0 KECCAK256 PUSH1 0x1F DUP5 ADD PUSH1 0x5 SHR DUP2 ADD PUSH1 0x20 DUP6 LT ISZERO PUSH2 0x4000 JUMPI POP DUP1 JUMPDEST PUSH1 0x1F DUP5 ADD PUSH1 0x5 SHR DUP3 ADD SWAP2 POP JUMPDEST DUP2 DUP2 LT ISZERO PUSH2 0x401F JUMPI PUSH0 DUP2 SSTORE PUSH1 0x1 ADD PUSH2 0x400C JUMP JUMPDEST POP POP POP POP POP JUMP JUMPDEST DUP2 MLOAD PUSH1 0x1 PUSH1 0x1 PUSH1 0x40 SHL SUB DUP2 GT ISZERO PUSH2 0x403F JUMPI PUSH2 0x403F PUSH2 0x3946 JUMP JUMPDEST PUSH2 0x4053 DUP2 PUSH2 0x404D DUP5 SLOAD PUSH2 0x3EC9 JUMP JUMPDEST DUP5 PUSH2 0x3FDB JUMP JUMPDEST PUSH1 0x20 PUSH1 0x1F DUP3 GT PUSH1 0x1 DUP2 EQ PUSH2 0x4085 JUMPI PUSH0 DUP4 ISZERO PUSH2 0x406E JUMPI POP DUP5 DUP3 ADD MLOAD JUMPDEST PUSH0 NOT PUSH1 0x3 DUP6 SWAP1 SHL SHR NOT AND PUSH1 0x1 DUP5 SWAP1 SHL OR DUP5 SSTORE PUSH2 0x401F JUMP JUMPDEST PUSH0 DUP5 DUP2 MSTORE PUSH1 0x20 DUP2 KECCAK256 PUSH1 0x1F NOT DUP6 AND SWAP2 JUMPDEST DUP3 DUP2 LT ISZERO PUSH2 0x40B4 JUMPI DUP8 DUP6 ADD MLOAD DUP3 SSTORE PUSH1 0x20 SWAP5 DUP6 ADD SWAP5 PUSH1 0x1 SWAP1 SWAP3 ADD SWAP2 ADD PUSH2 0x4094 JUMP JUMPDEST POP DUP5 DUP3 LT ISZERO PUSH2 0x40D1 JUMPI DUP7 DUP5 ADD MLOAD PUSH0 NOT PUSH1 0x3 DUP8 SWAP1 SHL PUSH1 0xF8 AND SHR NOT AND DUP2 SSTORE JUMPDEST POP POP POP POP PUSH1 0x1 SWAP1 DUP2 SHL ADD SWAP1 SSTORE POP JUMP JUMPDEST DUP4 DUP2 MSTORE PUSH1 0x60 PUSH1 0x20 DUP3 ADD MSTORE PUSH0 PUSH2 0x40F8 PUSH1 0x60 DUP4 ADD DUP6 PUSH2 0x3A7B JUMP JUMPDEST SWAP1 POP DUP3 PUSH1 0x40 DUP4 ADD MSTORE SWAP5 SWAP4 POP POP POP POP JUMP INVALID PUSH6 0xD7A28E3265B3 PUSH27 0x6474929F336521B332C1681B933F6CB9F3376673440D862A02DD7B 0xC7 0xDE 0xC4 0xDC RETURNCONTRACT 0xDD 0xA7 PUSH22 0xE58DD541E08A116C6C53815C0BD028192F7B626800A4 SWAP9 SMOD KECCAK256 TLOAD RETF 0xD3 SSTORE MULMOD 0x2E CREATE2 0xA8 LOG1 DUP16 JUMP 0xE8 SWAP2 EXTCODECOPY DELEGATECALL LOG2 ADD EXTSTATICCALL 0xE2 DUP8 DUP3 JUMPDEST MULMOD JUMP SWAP4 0xC2 OR PUSH22 0xA26469706673582212202671EDA14D9683501A4CE3CA SWAP6 DUP14 DUP3 PUSH18 0xDB8439307CC0A0DEF3D36C689B44D656473 PUSH16 0x6C634300081E00330000000000000000 "
		},
		"gasEstimates": {
			"creation": {
				"codeDepositCost": "3359600",
				"executionCost": "33361",
				"totalCost": "3392961"
			},
			"external": {
				"ADMIN_ROLE()": "infinite",
				"ALVA()": "2426",
				"DEFAULT_ADMIN_ROLE()": "283",
				"PAUSER_ROLE()": "infinite",
				"PERCENTAGE_FACTOR()": "327",
				"Pools(uint256)": "infinite",
				"RATIO_FACTOR()": "305",
				"REWARDS_ALLOCATOR_ROLE()": "284",
				"REWARD_PERIOD()": "308",
				"accountToForeverId(address)": "2583",
				"accountToIdFinalized(address)": "2584",
				"accountToLockIds(address,uint256)": "4802",
				"accountTocalculatedRewards(address)": "2631",
				"claimRewards()": "infinite",
				"compoundRewards(bool)": "infinite",
				"countRewards(uint256,uint256)": "infinite",
				"currentIdLock()": "2362",
				"currentIdRewards()": "2404",
				"decayInterval()": "2427",
				"getActiveTimeBaseLock(address)": "infinite",
				"getIncrementedAmount(uint256,uint256)": "2673",
				"getPoolDataByRewardId(uint256,string)": "infinite",
				"getRewardsPending(address)": "infinite",
				"getRoleAdmin(bytes32)": "infinite",
				"getTotalLocks(address)": "4864",
				"getveAlvaAmount(uint256,string)": "infinite",
				"grantRole(bytes32,address)": "infinite",
				"hasRole(bytes32,address)": "infinite",
				"increaseAmount(uint256,bool)": "infinite",
				"initialize(address,address,uint256,uint256,string[],uint256[],uint256[],uint256[],uint256[])": "infinite",
				"lockIdToLockData(uint256)": "infinite",
				"minimumRewardAmount()": "2361",
				"minimumStakingAmount()": "2361",
				"pause()": "infinite",
				"paused()": "2381",
				"poolToPoolData(string)": "infinite",
				"renewStaking(uint256,string)": "infinite",
				"renounceRole(bytes32,address)": "29198",
				"revokeRole(bytes32,address)": "infinite",
				"rewardEligibleLocks(address,uint256)": "4804",
				"rewardIdToRewardData(uint256)": "6838",
				"rewardPeriodCount()": "2542",
				"stake(uint256,string)": "infinite",
				"startTime()": "2385",
				"supportsInterface(bytes4)": "493",
				"topUpRewards()": "infinite",
				"unallocatedRewards()": "2363",
				"unpause()": "infinite",
				"unstake()": "infinite",
				"updateDecayInterval(uint256)": "infinite",
				"updateMinStakingAmount(uint256)": "infinite",
				"updateMinimumRewardAmount(uint256)": "infinite",
				"updatePoolStatus(string,bool)": "infinite",
				"updateWithdrawalPercentage(uint256)": "infinite",
				"vaultWithdrawalPercentage()": "2427",
				"veALVA()": "2405",
				"veAlvaBalance(address)": "11472"
			},
			"internal": {
				"_calculateRewards(uint256,uint256,uint256)": "infinite",
				"_claimRewards()": "infinite",
				"_finalizeForeverLockRewards()": "infinite",
				"_finalizeTimeBaseRewards(uint256)": "infinite",
				"_increaseAmount(uint256,uint256)": "infinite",
				"_stake(uint256,uint256,uint256,string memory,uint256)": "infinite"
			}
		},
		"methodIdentifiers": {
			"ADMIN_ROLE()": "75b238fc",
			"ALVA()": "323bf9f0",
			"DEFAULT_ADMIN_ROLE()": "a217fddf",
			"PAUSER_ROLE()": "e63ab1e9",
			"PERCENTAGE_FACTOR()": "ee01e5e7",
			"Pools(uint256)": "73dfccca",
			"RATIO_FACTOR()": "d8bbd46c",
			"REWARDS_ALLOCATOR_ROLE()": "58a13b3a",
			"REWARD_PERIOD()": "0a171df8",
			"accountToForeverId(address)": "66ff9f80",
			"accountToIdFinalized(address)": "2f57c174",
			"accountToLockIds(address,uint256)": "eee7f41c",
			"accountTocalculatedRewards(address)": "8b2d0ccf",
			"claimRewards()": "372500ab",
			"compoundRewards(bool)": "c86a0d16",
			"countRewards(uint256,uint256)": "45434445",
			"currentIdLock()": "a0b80db4",
			"currentIdRewards()": "f9f16788",
			"decayInterval()": "b6334aee",
			"getActiveTimeBaseLock(address)": "b44c4fef",
			"getIncrementedAmount(uint256,uint256)": "27c1a812",
			"getPoolDataByRewardId(uint256,string)": "744f90a7",
			"getRewardsPending(address)": "5ab2d62f",
			"getRoleAdmin(bytes32)": "248a9ca3",
			"getTotalLocks(address)": "5bae5e54",
			"getveAlvaAmount(uint256,string)": "b397e572",
			"grantRole(bytes32,address)": "2f2ff15d",
			"hasRole(bytes32,address)": "91d14854",
			"increaseAmount(uint256,bool)": "507f1305",
			"initialize(address,address,uint256,uint256,string[],uint256[],uint256[],uint256[],uint256[])": "fff9e917",
			"lockIdToLockData(uint256)": "efb81031",
			"minimumRewardAmount()": "e27c8ad5",
			"minimumStakingAmount()": "b0d2d011",
			"pause()": "8456cb59",
			"paused()": "5c975abb",
			"poolToPoolData(string)": "c142d988",
			"renewStaking(uint256,string)": "720b3ad3",
			"renounceRole(bytes32,address)": "36568abe",
			"revokeRole(bytes32,address)": "d547741f",
			"rewardEligibleLocks(address,uint256)": "7f53243b",
			"rewardIdToRewardData(uint256)": "7c83e6c8",
			"rewardPeriodCount()": "c38474c0",
			"stake(uint256,string)": "e7e4e1f7",
			"startTime()": "78e97925",
			"supportsInterface(bytes4)": "01ffc9a7",
			"topUpRewards()": "5d1dccb1",
			"unallocatedRewards()": "2b6fdc7e",
			"unpause()": "3f4ba83a",
			"unstake()": "2def6620",
			"updateDecayInterval(uint256)": "43cdab57",
			"updateMinStakingAmount(uint256)": "1bd067c5",
			"updateMinimumRewardAmount(uint256)": "d3f52d00",
			"updatePoolStatus(string,bool)": "5c5c0d60",
			"updateWithdrawalPercentage(uint256)": "abd8a033",
			"vaultWithdrawalPercentage()": "df3100d4",
			"veALVA()": "1698fe76",
			"veAlvaBalance(address)": "02e4923c"
		}
	},
	"abi": [
		{
			"inputs": [],
			"stateMutability": "nonpayable",
			"type": "constructor"
		},
		{
			"inputs": [],
			"name": "AccessControlBadConfirmation",
			"type": "error"
		},
		{
			"inputs": [
				{
					"internalType": "address",
					"name": "account",
					"type": "address"
				},
				{
					"internalType": "bytes32",
					"name": "neededRole",
					"type": "bytes32"
				}
			],
			"name": "AccessControlUnauthorizedAccount",
			"type": "error"
		},
		{
			"inputs": [],
			"name": "InvalidInitialization",
			"type": "error"
		},
		{
			"inputs": [],
			"name": "NotInitializing",
			"type": "error"
		},
		{
			"anonymous": false,
			"inputs": [
				{
					"indexed": true,
					"internalType": "uint256",
					"name": "lockId",
					"type": "uint256"
				},
				{
					"indexed": false,
					"internalType": "uint256",
					"name": "amount",
					"type": "uint256"
				},
				{
					"indexed": false,
					"internalType": "uint256",
					"name": "rewardAmount",
					"type": "uint256"
				},
				{
					"indexed": false,
					"internalType": "uint256",
					"name": "veAlva",
					"type": "uint256"
				}
			],
			"name": "Compounded",
			"type": "event"
		},
		{
			"anonymous": false,
			"inputs": [
				{
					"indexed": false,
					"internalType": "uint64",
					"name": "version",
					"type": "uint64"
				}
			],
			"name": "Initialized",
			"type": "event"
		},
		{
			"anonymous": false,
			"inputs": [
				{
					"indexed": true,
					"internalType": "uint256",
					"name": "previousLockId",
					"type": "uint256"
				},
				{
					"indexed": true,
					"internalType": "uint256",
					"name": "newLockId",
					"type": "uint256"
				}
			],
			"name": "LockRenewed",
			"type": "event"
		},
		{
			"anonymous": false,
			"inputs": [
				{
					"indexed": false,
					"internalType": "address",
					"name": "account",
					"type": "address"
				}
			],
			"name": "Paused",
			"type": "event"
		},
		{
			"anonymous": false,
			"inputs": [
				{
					"indexed": true,
					"internalType": "uint256",
					"name": "rewardId",
					"type": "uint256"
				},
				{
					"indexed": false,
					"internalType": "uint256",
					"name": "amount",
					"type": "uint256"
				}
			],
			"name": "RewardsAdded",
			"type": "event"
		},
		{
			"anonymous": false,
			"inputs": [
				{
					"indexed": true,
					"internalType": "address",
					"name": "account",
					"type": "address"
				},
				{
					"indexed": false,
					"internalType": "uint256",
					"name": "rewardAmount",
					"type": "uint256"
				}
			],
			"name": "RewardsClaimed",
			"type": "event"
		},
		{
			"anonymous": false,
			"inputs": [
				{
					"indexed": true,
					"internalType": "bytes32",
					"name": "role",
					"type": "bytes32"
				},
				{
					"indexed": true,
					"internalType": "bytes32",
					"name": "previousAdminRole",
					"type": "bytes32"
				},
				{
					"indexed": true,
					"internalType": "bytes32",
					"name": "newAdminRole",
					"type": "bytes32"
				}
			],
			"name": "RoleAdminChanged",
			"type": "event"
		},
		{
			"anonymous": false,
			"inputs": [
				{
					"indexed": true,
					"internalType": "bytes32",
					"name": "role",
					"type": "bytes32"
				},
				{
					"indexed": true,
					"internalType": "address",
					"name": "account",
					"type": "address"
				},
				{
					"indexed": true,
					"internalType": "address",
					"name": "sender",
					"type": "address"
				}
			],
			"name": "RoleGranted",
			"type": "event"
		},
		{
			"anonymous": false,
			"inputs": [
				{
					"indexed": true,
					"internalType": "bytes32",
					"name": "role",
					"type": "bytes32"
				},
				{
					"indexed": true,
					"internalType": "address",
					"name": "account",
					"type": "address"
				},
				{
					"indexed": true,
					"internalType": "address",
					"name": "sender",
					"type": "address"
				}
			],
			"name": "RoleRevoked",
			"type": "event"
		},
		{
			"anonymous": false,
			"inputs": [
				{
					"indexed": true,
					"internalType": "uint256",
					"name": "lockId",
					"type": "uint256"
				},
				{
					"indexed": false,
					"internalType": "uint256",
					"name": "amount",
					"type": "uint256"
				},
				{
					"indexed": false,
					"internalType": "uint256",
					"name": "veAlva",
					"type": "uint256"
				}
			],
			"name": "StakedAmountIncreased",
			"type": "event"
		},
		{
			"anonymous": false,
			"inputs": [
				{
					"indexed": true,
					"internalType": "uint256",
					"name": "lockId",
					"type": "uint256"
				},
				{
					"indexed": true,
					"internalType": "address",
					"name": "account",
					"type": "address"
				},
				{
					"indexed": false,
					"internalType": "uint256",
					"name": "amount",
					"type": "uint256"
				},
				{
					"indexed": false,
					"internalType": "string",
					"name": "pool",
					"type": "string"
				},
				{
					"indexed": false,
					"internalType": "uint256",
					"name": "veAlva",
					"type": "uint256"
				}
			],
			"name": "TokensStaked",
			"type": "event"
		},
		{
			"anonymous": false,
			"inputs": [
				{
					"indexed": false,
					"internalType": "address",
					"name": "account",
					"type": "address"
				}
			],
			"name": "Unpaused",
			"type": "event"
		},
		{
			"anonymous": false,
			"inputs": [
				{
					"indexed": true,
					"internalType": "address",
					"name": "account",
					"type": "address"
				},
				{
					"indexed": true,
					"internalType": "uint256",
					"name": "lockId",
					"type": "uint256"
				},
				{
					"indexed": false,
					"internalType": "uint256",
					"name": "endTime",
					"type": "uint256"
				}
			],
			"name": "Withdrawn",
			"type": "event"
		},
		{
			"inputs": [],
			"name": "ADMIN_ROLE",
			"outputs": [
				{
					"internalType": "bytes32",
					"name": "",
					"type": "bytes32"
				}
			],
			"stateMutability": "view",
			"type": "function"
		},
		{
			"inputs": [],
			"name": "ALVA",
			"outputs": [
				{
					"internalType": "contract IERC20",
					"name": "",
					"type": "address"
				}
			],
			"stateMutability": "view",
			"type": "function"
		},
		{
			"inputs": [],
			"name": "DEFAULT_ADMIN_ROLE",
			"outputs": [
				{
					"internalType": "bytes32",
					"name": "",
					"type": "bytes32"
				}
			],
			"stateMutability": "view",
			"type": "function"
		},
		{
			"inputs": [],
			"name": "PAUSER_ROLE",
			"outputs": [
				{
					"internalType": "bytes32",
					"name": "",
					"type": "bytes32"
				}
			],
			"stateMutability": "view",
			"type": "function"
		},
		{
			"inputs": [],
			"name": "PERCENTAGE_FACTOR",
			"outputs": [
				{
					"internalType": "uint256",
					"name": "",
					"type": "uint256"
				}
			],
			"stateMutability": "view",
			"type": "function"
		},
		{
			"inputs": [
				{
					"internalType": "uint256",
					"name": "",
					"type": "uint256"
				}
			],
			"name": "Pools",
			"outputs": [
				{
					"internalType": "string",
					"name": "",
					"type": "string"
				}
			],
			"stateMutability": "view",
			"type": "function"
		},
		{
			"inputs": [],
			"name": "RATIO_FACTOR",
			"outputs": [
				{
					"internalType": "uint256",
					"name": "",
					"type": "uint256"
				}
			],
			"stateMutability": "view",
			"type": "function"
		},
		{
			"inputs": [],
			"name": "REWARDS_ALLOCATOR_ROLE",
			"outputs": [
				{
					"internalType": "bytes32",
					"name": "",
					"type": "bytes32"
				}
			],
			"stateMutability": "view",
			"type": "function"
		},
		{
			"inputs": [],
			"name": "REWARD_PERIOD",
			"outputs": [
				{
					"internalType": "uint256",
					"name": "",
					"type": "uint256"
				}
			],
			"stateMutability": "view",
			"type": "function"
		},
		{
			"inputs": [
				{
					"internalType": "address",
					"name": "",
					"type": "address"
				}
			],
			"name": "accountToForeverId",
			"outputs": [
				{
					"internalType": "uint256",
					"name": "",
					"type": "uint256"
				}
			],
			"stateMutability": "view",
			"type": "function"
		},
		{
			"inputs": [
				{
					"internalType": "address",
					"name": "",
					"type": "address"
				}
			],
			"name": "accountToIdFinalized",
			"outputs": [
				{
					"internalType": "uint256",
					"name": "",
					"type": "uint256"
				}
			],
			"stateMutability": "view",
			"type": "function"
		},
		{
			"inputs": [
				{
					"internalType": "address",
					"name": "",
					"type": "address"
				},
				{
					"internalType": "uint256",
					"name": "",
					"type": "uint256"
				}
			],
			"name": "accountToLockIds",
			"outputs": [
				{
					"internalType": "uint256",
					"name": "",
					"type": "uint256"
				}
			],
			"stateMutability": "view",
			"type": "function"
		},
		{
			"inputs": [
				{
					"internalType": "address",
					"name": "",
					"type": "address"
				}
			],
			"name": "accountTocalculatedRewards",
			"outputs": [
				{
					"internalType": "uint256",
					"name": "",
					"type": "uint256"
				}
			],
			"stateMutability": "view",
			"type": "function"
		},
		{
			"inputs": [],
			"name": "claimRewards",
			"outputs": [],
			"stateMutability": "nonpayable",
			"type": "function"
		},
		{
			"inputs": [
				{
					"internalType": "bool",
					"name": "isForever",
					"type": "bool"
				}
			],
			"name": "compoundRewards",
			"outputs": [],
			"stateMutability": "nonpayable",
			"type": "function"
		},
		{
			"inputs": [
				{
					"internalType": "uint256",
					"name": "lockId",
					"type": "uint256"
				},
				{
					"internalType": "uint256",
					"name": "batchSize",
					"type": "uint256"
				}
			],
			"name": "countRewards",
			"outputs": [
				{
					"internalType": "uint256",
					"name": "pendingCurrent",
					"type": "uint256"
				},
				{
					"internalType": "uint256",
					"name": "openingRewardId",
					"type": "uint256"
				},
				{
					"internalType": "uint256",
					"name": "incrementedAmount",
					"type": "uint256"
				}
			],
			"stateMutability": "view",
			"type": "function"
		},
		{
			"inputs": [],
			"name": "currentIdLock",
			"outputs": [
				{
					"internalType": "uint256",
					"name": "",
					"type": "uint256"
				}
			],
			"stateMutability": "view",
			"type": "function"
		},
		{
			"inputs": [],
			"name": "currentIdRewards",
			"outputs": [
				{
					"internalType": "uint256",
					"name": "",
					"type": "uint256"
				}
			],
			"stateMutability": "view",
			"type": "function"
		},
		{
			"inputs": [],
			"name": "decayInterval",
			"outputs": [
				{
					"internalType": "uint256",
					"name": "",
					"type": "uint256"
				}
			],
			"stateMutability": "view",
			"type": "function"
		},
		{
			"inputs": [
				{
					"internalType": "address",
					"name": "account",
					"type": "address"
				}
			],
			"name": "getActiveTimeBaseLock",
			"outputs": [
				{
					"internalType": "uint256",
					"name": "timebaseId",
					"type": "uint256"
				}
			],
			"stateMutability": "view",
			"type": "function"
		},
		{
			"inputs": [
				{
					"internalType": "uint256",
					"name": "lockId",
					"type": "uint256"
				},
				{
					"internalType": "uint256",
					"name": "rewardId",
					"type": "uint256"
				}
			],
			"name": "getIncrementedAmount",
			"outputs": [
				{
					"internalType": "uint256",
					"name": "amount",
					"type": "uint256"
				}
			],
			"stateMutability": "view",
			"type": "function"
		},
		{
			"inputs": [
				{
					"internalType": "uint256",
					"name": "rewardId",
					"type": "uint256"
				},
				{
					"internalType": "string",
					"name": "pool",
					"type": "string"
				}
			],
			"name": "getPoolDataByRewardId",
			"outputs": [
				{
					"internalType": "uint256",
					"name": "",
					"type": "uint256"
				},
				{
					"internalType": "uint256",
					"name": "",
					"type": "uint256"
				},
				{
					"internalType": "uint256",
					"name": "",
					"type": "uint256"
				}
			],
			"stateMutability": "view",
			"type": "function"
		},
		{
			"inputs": [
				{
					"internalType": "address",
					"name": "account",
					"type": "address"
				}
			],
			"name": "getRewardsPending",
			"outputs": [
				{
					"internalType": "uint256",
					"name": "totalReward",
					"type": "uint256"
				}
			],
			"stateMutability": "view",
			"type": "function"
		},
		{
			"inputs": [
				{
					"internalType": "bytes32",
					"name": "role",
					"type": "bytes32"
				}
			],
			"name": "getRoleAdmin",
			"outputs": [
				{
					"internalType": "bytes32",
					"name": "",
					"type": "bytes32"
				}
			],
			"stateMutability": "view",
			"type": "function"
		},
		{
			"inputs": [
				{
					"internalType": "address",
					"name": "account",
					"type": "address"
				}
			],
			"name": "getTotalLocks",
			"outputs": [
				{
					"internalType": "uint256",
					"name": "userLocksTotal",
					"type": "uint256"
				},
				{
					"internalType": "uint256",
					"name": "userRewardEligibleLocks",
					"type": "uint256"
				}
			],
			"stateMutability": "view",
			"type": "function"
		},
		{
			"inputs": [
				{
					"internalType": "uint256",
					"name": "amount",
					"type": "uint256"
				},
				{
					"internalType": "string",
					"name": "pool",
					"type": "string"
				}
			],
			"name": "getveAlvaAmount",
			"outputs": [
				{
					"internalType": "uint256",
					"name": "",
					"type": "uint256"
				}
			],
			"stateMutability": "view",
			"type": "function"
		},
		{
			"inputs": [
				{
					"internalType": "bytes32",
					"name": "role",
					"type": "bytes32"
				},
				{
					"internalType": "address",
					"name": "account",
					"type": "address"
				}
			],
			"name": "grantRole",
			"outputs": [],
			"stateMutability": "nonpayable",
			"type": "function"
		},
		{
			"inputs": [
				{
					"internalType": "bytes32",
					"name": "role",
					"type": "bytes32"
				},
				{
					"internalType": "address",
					"name": "account",
					"type": "address"
				}
			],
			"name": "hasRole",
			"outputs": [
				{
					"internalType": "bool",
					"name": "",
					"type": "bool"
				}
			],
			"stateMutability": "view",
			"type": "function"
		},
		{
			"inputs": [
				{
					"internalType": "uint256",
					"name": "amount",
					"type": "uint256"
				},
				{
					"internalType": "bool",
					"name": "isForever",
					"type": "bool"
				}
			],
			"name": "increaseAmount",
			"outputs": [],
			"stateMutability": "nonpayable",
			"type": "function"
		},
		{
			"inputs": [
				{
					"internalType": "address",
					"name": "_alva",
					"type": "address"
				},
				{
					"internalType": "address",
					"name": "_veAlva",
					"type": "address"
				},
				{
					"internalType": "uint256",
					"name": "_decayInterval",
					"type": "uint256"
				},
				{
					"internalType": "uint256",
					"name": "_startTime",
					"type": "uint256"
				},
				{
					"internalType": "string[]",
					"name": "_pools",
					"type": "string[]"
				},
				{
					"internalType": "uint256[]",
					"name": "rewards",
					"type": "uint256[]"
				},
				{
					"internalType": "uint256[]",
					"name": "veTokenRatio",
					"type": "uint256[]"
				},
				{
					"internalType": "uint256[]",
					"name": "duration",
					"type": "uint256[]"
				},
				{
					"internalType": "uint256[]",
					"name": "rewardPeriods",
					"type": "uint256[]"
				}
			],
			"name": "initialize",
			"outputs": [],
			"stateMutability": "nonpayable",
			"type": "function"
		},
		{
			"inputs": [
				{
					"internalType": "uint256",
					"name": "",
					"type": "uint256"
				}
			],
			"name": "lockIdToLockData",
			"outputs": [
				{
					"internalType": "string",
					"name": "pool",
					"type": "string"
				},
				{
					"internalType": "uint256",
					"name": "amount",
					"type": "uint256"
				},
				{
					"internalType": "bool",
					"name": "isForever",
					"type": "bool"
				},
				{
					"internalType": "bool",
					"name": "isActive",
					"type": "bool"
				},
				{
					"internalType": "uint256",
					"name": "duration",
					"type": "uint256"
				},
				{
					"internalType": "uint256",
					"name": "startTime",
					"type": "uint256"
				},
				{
					"internalType": "uint256",
					"name": "endTime",
					"type": "uint256"
				},
				{
					"internalType": "uint256",
					"name": "votingPower",
					"type": "uint256"
				},
				{
					"internalType": "uint256",
					"name": "rewardsCurrent",
					"type": "uint256"
				},
				{
					"internalType": "uint256",
					"name": "openingRewardId",
					"type": "uint256"
				},
				{
					"internalType": "uint256",
					"name": "closingRewardId",
					"type": "uint256"
				},
				{
					"internalType": "uint256",
					"name": "totalIncremented",
					"type": "uint256"
				}
			],
			"stateMutability": "view",
			"type": "function"
		},
		{
			"inputs": [],
			"name": "minimumRewardAmount",
			"outputs": [
				{
					"internalType": "uint256",
					"name": "",
					"type": "uint256"
				}
			],
			"stateMutability": "view",
			"type": "function"
		},
		{
			"inputs": [],
			"name": "minimumStakingAmount",
			"outputs": [
				{
					"internalType": "uint256",
					"name": "",
					"type": "uint256"
				}
			],
			"stateMutability": "view",
			"type": "function"
		},
		{
			"inputs": [],
			"name": "pause",
			"outputs": [],
			"stateMutability": "nonpayable",
			"type": "function"
		},
		{
			"inputs": [],
			"name": "paused",
			"outputs": [
				{
					"internalType": "bool",
					"name": "",
					"type": "bool"
				}
			],
			"stateMutability": "view",
			"type": "function"
		},
		{
			"inputs": [
				{
					"internalType": "string",
					"name": "",
					"type": "string"
				}
			],
			"name": "poolToPoolData",
			"outputs": [
				{
					"internalType": "bool",
					"name": "status",
					"type": "bool"
				},
				{
					"internalType": "uint256",
					"name": "veAlvaRatio",
					"type": "uint256"
				},
				{
					"internalType": "uint256",
					"name": "poolPercentage",
					"type": "uint256"
				},
				{
					"internalType": "uint256",
					"name": "duration",
					"type": "uint256"
				},
				{
					"internalType": "uint256",
					"name": "amountLocked",
					"type": "uint256"
				},
				{
					"internalType": "uint256",
					"name": "rewardPeriods",
					"type": "uint256"
				}
			],
			"stateMutability": "view",
			"type": "function"
		},
		{
			"inputs": [
				{
					"internalType": "uint256",
					"name": "amount",
					"type": "uint256"
				},
				{
					"internalType": "string",
					"name": "pool",
					"type": "string"
				}
			],
			"name": "renewStaking",
			"outputs": [],
			"stateMutability": "nonpayable",
			"type": "function"
		},
		{
			"inputs": [
				{
					"internalType": "bytes32",
					"name": "role",
					"type": "bytes32"
				},
				{
					"internalType": "address",
					"name": "callerConfirmation",
					"type": "address"
				}
			],
			"name": "renounceRole",
			"outputs": [],
			"stateMutability": "nonpayable",
			"type": "function"
		},
		{
			"inputs": [
				{
					"internalType": "bytes32",
					"name": "role",
					"type": "bytes32"
				},
				{
					"internalType": "address",
					"name": "account",
					"type": "address"
				}
			],
			"name": "revokeRole",
			"outputs": [],
			"stateMutability": "nonpayable",
			"type": "function"
		},
		{
			"inputs": [
				{
					"internalType": "address",
					"name": "",
					"type": "address"
				},
				{
					"internalType": "uint256",
					"name": "",
					"type": "uint256"
				}
			],
			"name": "rewardEligibleLocks",
			"outputs": [
				{
					"internalType": "uint256",
					"name": "",
					"type": "uint256"
				}
			],
			"stateMutability": "view",
			"type": "function"
		},
		{
			"inputs": [
				{
					"internalType": "uint256",
					"name": "",
					"type": "uint256"
				}
			],
			"name": "rewardIdToRewardData",
			"outputs": [
				{
					"internalType": "bool",
					"name": "isProcessed",
					"type": "bool"
				},
				{
					"internalType": "uint256",
					"name": "timestamp",
					"type": "uint256"
				},
				{
					"internalType": "uint256",
					"name": "amount",
					"type": "uint256"
				}
			],
			"stateMutability": "view",
			"type": "function"
		},
		{
			"inputs": [],
			"name": "rewardPeriodCount",
			"outputs": [
				{
					"internalType": "uint256",
					"name": "",
					"type": "uint256"
				}
			],
			"stateMutability": "view",
			"type": "function"
		},
		{
			"inputs": [
				{
					"internalType": "uint256",
					"name": "amount",
					"type": "uint256"
				},
				{
					"internalType": "string",
					"name": "pool",
					"type": "string"
				}
			],
			"name": "stake",
			"outputs": [],
			"stateMutability": "nonpayable",
			"type": "function"
		},
		{
			"inputs": [],
			"name": "startTime",
			"outputs": [
				{
					"internalType": "uint256",
					"name": "",
					"type": "uint256"
				}
			],
			"stateMutability": "view",
			"type": "function"
		},
		{
			"inputs": [
				{
					"internalType": "bytes4",
					"name": "interfaceId",
					"type": "bytes4"
				}
			],
			"name": "supportsInterface",
			"outputs": [
				{
					"internalType": "bool",
					"name": "",
					"type": "bool"
				}
			],
			"stateMutability": "view",
			"type": "function"
		},
		{
			"inputs": [],
			"name": "topUpRewards",
			"outputs": [],
			"stateMutability": "nonpayable",
			"type": "function"
		},
		{
			"inputs": [],
			"name": "unallocatedRewards",
			"outputs": [
				{
					"internalType": "uint256",
					"name": "",
					"type": "uint256"
				}
			],
			"stateMutability": "view",
			"type": "function"
		},
		{
			"inputs": [],
			"name": "unpause",
			"outputs": [],
			"stateMutability": "nonpayable",
			"type": "function"
		},
		{
			"inputs": [],
			"name": "unstake",
			"outputs": [],
			"stateMutability": "nonpayable",
			"type": "function"
		},
		{
			"inputs": [
				{
					"internalType": "uint256",
					"name": "newInterval",
					"type": "uint256"
				}
			],
			"name": "updateDecayInterval",
			"outputs": [],
			"stateMutability": "nonpayable",
			"type": "function"
		},
		{
			"inputs": [
				{
					"internalType": "uint256",
					"name": "amount",
					"type": "uint256"
				}
			],
			"name": "updateMinStakingAmount",
			"outputs": [],
			"stateMutability": "nonpayable",
			"type": "function"
		},
		{
			"inputs": [
				{
					"internalType": "uint256",
					"name": "amount",
					"type": "uint256"
				}
			],
			"name": "updateMinimumRewardAmount",
			"outputs": [],
			"stateMutability": "nonpayable",
			"type": "function"
		},
		{
			"inputs": [
				{
					"internalType": "string",
					"name": "pool",
					"type": "string"
				},
				{
					"internalType": "bool",
					"name": "status",
					"type": "bool"
				}
			],
			"name": "updatePoolStatus",
			"outputs": [],
			"stateMutability": "nonpayable",
			"type": "function"
		},
		{
			"inputs": [
				{
					"internalType": "uint256",
					"name": "amount",
					"type": "uint256"
				}
			],
			"name": "updateWithdrawalPercentage",
			"outputs": [],
			"stateMutability": "nonpayable",
			"type": "function"
		},
		{
			"inputs": [],
			"name": "vaultWithdrawalPercentage",
			"outputs": [
				{
					"internalType": "uint256",
					"name": "",
					"type": "uint256"
				}
			],
			"stateMutability": "view",
			"type": "function"
		},
		{
			"inputs": [],
			"name": "veALVA",
			"outputs": [
				{
					"internalType": "contract IERC20",
					"name": "",
					"type": "address"
				}
			],
			"stateMutability": "view",
			"type": "function"
		},
		{
			"inputs": [
				{
					"internalType": "address",
					"name": "account",
					"type": "address"
				}
			],
			"name": "veAlvaBalance",
			"outputs": [
				{
					"internalType": "uint256",
					"name": "",
					"type": "uint256"
				}
			],
			"stateMutability": "view",
			"type": "function"
		}
	]
}