{
	"data": {
		"bytecode": {
			"linkReferences": {},
			"object": "6080604052348015600e575f5ffd5b506152b28061001c5f395ff3fe6080604052600436106101de575f3560e01c80638c590917116100fd578063c1e0372811610092578063e8a3d48511610062578063e8a3d48514610588578063e985e9c51461059c578063ff332ab7146105bb578063ffe8e372146105dd575f5ffd5b8063c1e037281461050c578063c45a01551461052b578063c87b56dd1461054a578063d32429ce14610569575f5ffd5b8063a41fe49f116100cd578063a41fe49f1461049b578063af640d0f146104ba578063b88d4fde146104ce578063baa888b3146104ed575f5ffd5b80638c5909171461043657806395d89b41146104495780639ff253f91461045d578063a22cb4651461047c575f5ffd5b8063478ecd90116101735780637284e416116101435780637284e416146103db5780637e1c0c09146103ef57806387244b9c14610403578063893d20e814610422575f5ffd5b8063478ecd901461035f5780634c3065281461037e5780636352211e1461039d57806370a08231146103bc575f5ffd5b8063095ea7b3116101ae578063095ea7b3146102c457806323b872dd146102e35780632a55205a1461030257806342842e0e14610340575f5ffd5b806301ffc9a71461021657806306fdde031461024a578063081812fc1461026b578063083c01f3146102a2575f5ffd5b36610212576101ec336105f2565b61021057604051633fcc3f1760e01b81523360048201526024015b60405180910390fd5b005b5f5ffd5b348015610221575f5ffd5b5061023561023036600461463a565b610607565b60405190151581526020015b60405180910390f35b348015610255575f5ffd5b5061025e610636565b6040516102419190614683565b348015610276575f5ffd5b5061028a610285366004614695565b6106d7565b6040516001600160a01b039091168152602001610241565b3480156102ad575f5ffd5b506102b66106eb565b604051908152602001610241565b3480156102cf575f5ffd5b506102106102de3660046146c0565b610909565b3480156102ee575f5ffd5b506102106102fd3660046146ea565b6109ba565b34801561030d575f5ffd5b5061032161031c366004614728565b610a6d565b604080516001600160a01b039093168352602083019190915201610241565b34801561034b575f5ffd5b5061021061035a3660046146ea565b610b94565b34801561036a575f5ffd5b50610210610379366004614748565b610c41565b348015610389575f5ffd5b5061021061039836600461477f565b610fd7565b3480156103a8575f5ffd5b5061028a6103b7366004614695565b61121c565b3480156103c7575f5ffd5b506102b66103d63660046147a8565b611226565b3480156103e6575f5ffd5b5061025e61127e565b3480156103fa575f5ffd5b506037546102b6565b34801561040e575f5ffd5b5061021061041d36600461477f565b61130a565b34801561042d575f5ffd5b5061028a611594565b610210610444366004614728565b6115a3565b348015610454575f5ffd5b5061025e61178a565b348015610468575f5ffd5b5061021061047736600461480a565b6117c8565b348015610487575f5ffd5b50610210610496366004614892565b6118ad565b3480156104a6575f5ffd5b506102106104b536600461477f565b611963565b3480156104c5575f5ffd5b5061025e611be2565b3480156104d9575f5ffd5b506102106104e8366004614933565b611bef565b3480156104f8575f5ffd5b5060325461028a906001600160a01b031681565b348015610517575f5ffd5b50610321610526366004614695565b611ca4565b348015610536575f5ffd5b5060335461028a906001600160a01b031681565b348015610555575f5ffd5b5061025e610564366004614695565b611d27565b348015610574575f5ffd5b5061021061058336600461480a565b611e56565b348015610593575f5ffd5b5061025e611f36565b3480156105a7575f5ffd5b506102356105b63660046149da565b611fab565b3480156105c6575f5ffd5b506105cf611ff7565b604051610241929190614a79565b3480156105e8575f5ffd5b506102b661271081565b5f6001600160a01b0382163b15155b92915050565b5f610611826120b5565b806106015750506001600160e01b0319165f9081526036602052604090205460ff1690565b5f51602061525d5f395f51905f52805460609190819061065590614a9d565b80601f016020809104026020016040519081016040528092919081815260200182805461068190614a9d565b80156106cc5780601f106106a3576101008083540402835291602001916106cc565b820191905f5260205f20905b8154815290600101906020018083116106af57829003601f168201915b505050505091505090565b5f6106e1826120d9565b5061060182612110565b5f5f6106ff6033546001600160a01b031690565b90505f816001600160a01b0316633fc8cef36040518163ffffffff1660e01b8152600401602060405180830381865afa15801561073e573d5f5f3e3d5ffd5b505050506040513d601f19601f820116820180604052508101906107629190614ad5565b6037549091505f5b81811015610902575f60375f01828154811061078857610788614af0565b5f91825260208220015460325460405163239cfc6d60e21b8152600481018690526001600160a01b039283169450911690638e73f1b490602401602060405180830381865afa1580156107dd573d5f5f3e3d5ffd5b505050506040513d601f19601f820116820180604052508101906108019190614b04565b60405163d88e3e3b60e01b81526001600160a01b03848116600483015287811660248301529192505f9188169063d88e3e3b906044015f60405180830381865afa158015610851573d5f5f3e3d5ffd5b505050506040513d5f823e601f3d908101601f191682016040526108789190810190614b3d565b60405163d06ca61f60e01b81529091506001600160a01b0388169063d06ca61f906108a99085908590600401614bd6565b602060405180830381865afa1580156108c4573d5f5f3e3d5ffd5b505050506040513d601f19601f820116820180604052508101906108e89190614b04565b6108f29089614c02565b975083600101935050505061076a565b5050505090565b81610913816105f2565b156109ab576033546001600160a01b0316604051633b9589a960e01b81526001600160a01b0383811660048301529190911690633b9589a990602401602060405180830381865afa15801561096a573d5f5f3e3d5ffd5b505050506040513d601f19601f8201168201806040525081019061098e9190614c15565b6109ab57604051632ff3629f60e21b815260040160405180910390fd5b6109b58383612149565b505050565b816109c4816105f2565b15610a5c576033546001600160a01b0316604051633b9589a960e01b81526001600160a01b0383811660048301529190911690633b9589a990602401602060405180830381865afa158015610a1b573d5f5f3e3d5ffd5b505050506040513d601f19601f82011682018060405250810190610a3f9190614c15565b610a5c57604051632ff3629f60e21b815260040160405180910390fd5b610a67848484612154565b50505050565b5f5f610a816033546001600160a01b031690565b6001600160a01b0316639fbc87136040518163ffffffff1660e01b8152600401602060405180830381865afa158015610abc573d5f5f3e3d5ffd5b505050506040513d601f19601f82011682018060405250810190610ae09190614ad5565b91505f610af56033546001600160a01b031690565b6001600160a01b0316638a71bb2d6040518163ffffffff1660e01b8152600401602060405180830381865afa158015610b30573d5f5f3e3d5ffd5b505050506040513d601f19601f82011682018060405250810190610b549190614b04565b90505f81118015610b6d57506001600160a01b03831615155b15610b8c57612710610b7f8286614c30565b610b899190614c47565b91505b509250929050565b81610b9e816105f2565b15610c36576033546001600160a01b0316604051633b9589a960e01b81526001600160a01b0383811660048301529190911690633b9589a990602401602060405180830381865afa158015610bf5573d5f5f3e3d5ffd5b505050506040513d601f19601f82011682018060405250810190610c199190614c15565b610c3657604051632ff3629f60e21b815260040160405180910390fd5b610a678484846121d7565b610c4e6080820182614c66565b9050610c5d60a0830183614c66565b90508082141580610c6c575081155b80610c75575080155b15610c935760405163251f56a160e21b815260040160405180910390fd5b5f610c9c6121f1565b805490915060ff600160401b82041615906001600160401b03165f81158015610cc25750825b90505f826001600160401b03166001148015610cdd5750303b155b905081158015610ceb575080155b15610d095760405163f92ee8a960e01b815260040160405180910390fd5b845467ffffffffffffffff191660011785558315610d3357845460ff60401b1916600160401b1785555b610dba610d408980614cab565b8080601f0160208091040260200160405190810160405280939291908181526020018383808284375f92019190915250610d819250505060208b018b614cab565b8080601f0160208091040260200160405190810160405280939291908181526020018383808284375f9201919091525061221992505050565b610dca63152a902d60e11b61222b565b610dd261227a565b610de26080890160608a016147a8565b603380546001600160a01b0319166001600160a01b0392909216919091179055610e10610100890189614cab565b603491610e1e919083614d31565b50610ea3610e2f60808a018a614c66565b808060200260200160405190810160405280939291908181526020018383602002808284375f92019190915250610e6d9250505060a08b018b614c66565b808060200260200160405190810160405280939291908181526020018383602002808284375f9201919091525061228c92505050565b610eb360e0890160c08a016147a8565b603280546001600160a01b0319166001600160a01b0392909216919091179055610ee06080890189614c66565b610eec916037916144e8565b50610efa60a0890189614c66565b610f0691603891614549565b50610f15610120890189614cab565b603591610f23919083614d31565b50610f3d610f3760608a0160408b016147a8565b5f6125a8565b610f875f610f4e60e08b018b614cab565b8080601f0160208091040260200160405190810160405280939291908181526020018383808284375f920191909152506125c192505050565b8315610fcd57845460ff60401b19168555604051600181527fc7f505b2f371ae2175ee4913f4499e1f2633a7b5936321eed1cdaeb6115181d29060200160405180910390a15b5050505050505050565b33610fe0611594565b6001600160a01b031614611007576040516349e27cff60e01b815260040160405180910390fd5b81158061101657506113888210155b1561104657604051631818d2a760e31b815260048101839052600160248201526113876044820152606401610207565b5f6110596033546001600160a01b031690565b905060325f9054906101000a90046001600160a01b03166001600160a01b031663b4b93c8c6040518163ffffffff1660e01b81526004015f604051808303815f87803b1580156110a7575f5ffd5b505af11580156110b9573d5f5f3e3d5ffd5b505060325460405163a9059cbb60e01b81526001600160a01b039091166004820181905260248201889052925063a9059cbb91506044016020604051808303815f875af115801561110c573d5f5f3e3d5ffd5b505050506040513d601f19601f820116820180604052508101906111309190614c15565b5060325460405163226bf2d160e21b81523060048201525f916001600160a01b0316906389afcb44906024015f604051808303815f875af1158015611177573d5f5f3e3d5ffd5b505050506040513d5f823e601f3d908101601f1916820160405261119e9190810190614dea565b90505f6111b583836111ae611594565b8888612633565b90506111bf611594565b6001600160a01b0316306001600160a01b03167f2ee827557318e24ad8fdb9f616bbfd73b44656ea23439623780d719c369f0c1d888460405161120c929190918252602082015260400190565b60405180910390a3505050505050565b5f610601826120d9565b5f5f51602061525d5f395f51905f526001600160a01b03831661125e576040516322718ad960e21b81525f6004820152602401610207565b6001600160a01b039092165f908152600390920160205250604090205490565b6035805461128b90614a9d565b80601f01602080910402602001604051908101604052809291908181526020018280546112b790614a9d565b80156113025780601f106112d957610100808354040283529160200191611302565b820191905f5260205f20905b8154815290600101906020018083116112e557829003601f168201915b505050505081565b611312612945565b825f6113266033546001600160a01b031690565b6001600160a01b0316636dbd5d2a6040518163ffffffff1660e01b8152600401602060405180830381865afa158015611361573d5f5f3e3d5ffd5b505050506040513d601f19601f820116820180604052508101906113859190614b04565b9050808210156113a857604051639abc749160e01b815260040160405180910390fd5b8315806113b757506113888410155b156113e757604051631818d2a760e31b815260048101859052600160248201526113876044820152606401610207565b5f6113fa6033546001600160a01b031690565b90505f5f826001600160a01b031663c4e994a06040518163ffffffff1660e01b8152600401608060405180830381865afa15801561143a573d5f5f3e3d5ffd5b505050506040513d601f19601f8201168201806040525081019061145e9190614e86565b61ffff91909116945092505f915089905081841561152857612710611483868d614c30565b61148d9190614c47565b9250611499838c614ed9565b91505f6114a6843061299c565b90506114b58782878e8e612633565b9150846001600160a01b03167f72cd57b8de25c52a120a25de816c33ef7193ff5985d2106cf9d4269edc0b7055838860405161151e9291909182526020820152606060408201819052600b908201526a0eed2e8d0c8e4c2ee8aa8960ab1b608082015260a00190565b60405180910390a2505b5f611533833061299c565b90505f6115438883338f8f612633565b604080513081526020810183905291925033917fc12ef08928e6f622169f25057ed91bf3461f4e675260bd1e51944f5d08dd611d910160405180910390a2505050505050505050506109b560015f55565b5f61159e5f61121c565b905090565b6115ab612945565b8115806115ba57506113888210155b156115ea57604051631818d2a760e31b815260048101839052600160248201526113876044820152606401610207565b345f0361160a576040516328d07cef60e11b815260040160405180910390fd5b42811161162d576040516318db49c560e21b815260048101829052602401610207565b5f6116406033546001600160a01b031690565b90505f5f826001600160a01b031663c4e994a06040518163ffffffff1660e01b8152600401608060405180830381865afa158015611680573d5f5f3e3d5ffd5b505050506040513d601f19601f820116820180604052508101906116a49190614e86565b93505061ffff169250505f6116ba348484612ab4565b9150505f6116ca85838989612c02565b60325460405163de836ebd60e01b81529192506001600160a01b03169063de836ebd906116fd9033908590600401614eec565b6020604051808303815f875af1158015611719573d5f5f3e3d5ffd5b505050506040513d601f19601f8201168201806040525081019061173d9190614b04565b506040805130815234602082015233917fb5e4876510a0189f92792685c610d37d563cd514d5789982152f48f0cef46451910160405180910390a2505050505061178660015f55565b5050565b7f80bb2b638cc20bc4d0a60d66940f3ab4a00c1d7b313497ca82fb0b4ab007930180546060915f51602061525d5f395f51905f529161065590614a9d565b336117d1611594565b6001600160a01b0316146117f8576040516349e27cff60e01b815260040160405180910390fd5b81158061180757506113888210155b1561183757604051631818d2a760e31b815260048101839052600160248201526113876044820152606401610207565b6118a58686808060200260200160405190810160405280939291908181526020018383602002808284375f9201919091525050604080516020808a028281018201909352898252909350899250889182918501908490808284375f9201829052508893509150869050612cc1565b505050505050565b8015611959576118bc826105f2565b801561193b57506033546001600160a01b0316604051633b9589a960e01b81526001600160a01b0384811660048301529190911690633b9589a990602401602060405180830381865afa158015611915573d5f5f3e3d5ffd5b505050506040513d601f19601f820116820180604052508101906119399190614c15565b155b1561195957604051632ff3629f60e21b815260040160405180910390fd5b6117868282612f51565b61196b612945565b825f61197f6033546001600160a01b031690565b6001600160a01b0316636dbd5d2a6040518163ffffffff1660e01b8152600401602060405180830381865afa1580156119ba573d5f5f3e3d5ffd5b505050506040513d601f19601f820116820180604052508101906119de9190614b04565b905080821015611a0157604051639abc749160e01b815260040160405180910390fd5b831580611a1057506113888410155b15611a4057604051631818d2a760e31b815260048101859052600160248201526113876044820152606401610207565b5f611a536033546001600160a01b031690565b90505f5f826001600160a01b031663c4e994a06040518163ffffffff1660e01b8152600401608060405180830381865afa158015611a93573d5f5f3e3d5ffd5b505050506040513d601f19601f82011682018060405250810190611ab79190614e86565b61ffff91909116945092505f9150508215611b7757612710611ad9848b614c30565b611ae39190614c47565b90505f611af0823061299c565b90505f611b008683868d8d612633565b9050836001600160a01b03167f72cd57b8de25c52a120a25de816c33ef7193ff5985d2106cf9d4269edc0b70558287604051611b6c9291909182526020820152606060408201819052600e908201526d7769746864726177546f6b656e7360901b608082015260a00190565b60405180910390a250505b5f611b82828b614ed9565b90505f611b8f823361299c565b60405190915033907fa5adb08498508ba672168a2404308bf2b0c19a2e91b553309ac80f47a222fdd690611bc99030906037908690614f4b565b60405180910390a250505050505050506109b560015f55565b6034805461128b90614a9d565b82611bf9816105f2565b15611c91576033546001600160a01b0316604051633b9589a960e01b81526001600160a01b0383811660048301529190911690633b9589a990602401602060405180830381865afa158015611c50573d5f5f3e3d5ffd5b505050506040513d601f19601f82011682018060405250810190611c749190614c15565b611c9157604051632ff3629f60e21b815260040160405180910390fd5b611c9d85858585612f5c565b5050505050565b6037545f908190808410611cd557604051635a2e95f960e01b81526004810185905260248101829052604401610207565b6037805485908110611ce957611ce9614af0565b5f91825260209091200154603880546001600160a01b0390921694509085908110611d1657611d16614af0565b905f5260205f200154915050915091565b60607f0542a41881ee128a365a727b282c86fa859579490b9bb45aab8503648c8e7900611d53836120d9565b505f8381526020829052604081208054611d6c90614a9d565b80601f0160208091040260200160405190810160405280929190818152602001828054611d9890614a9d565b8015611de35780601f10611dba57610100808354040283529160200191611de3565b820191905f5260205f20905b815481529060010190602001808311611dc657829003601f168201915b505050505090505f611dff60408051602081019091525f815290565b905080515f03611e1157509392505050565b815115611e44578082604051602001611e2b929190614f97565b6040516020818303038152906040529350505050919050565b611e4d85612f74565b95945050505050565b33611e5f611594565b6001600160a01b031614611e86576040516349e27cff60e01b815260040160405180910390fd5b811580611e9557506113888210155b15611ec557604051631818d2a760e31b815260048101839052600160248201526113876044820152606401610207565b6118a58686808060200260200160405190810160405280939291908181526020018383602002808284375f9201919091525050604080516020808a028281018201909352898252909350899250889182918501908490808284375f9201919091525087925060019150869050612cc1565b6060611f4a6033546001600160a01b031690565b6001600160a01b03166337929eb46040518163ffffffff1660e01b81526004015f60405180830381865afa158015611f84573d5f5f3e3d5ffd5b505050506040513d5f823e601f3d908101601f1916820160405261159e9190810190614fab565b6001600160a01b039182165f9081527f80bb2b638cc20bc4d0a60d66940f3ab4a00c1d7b313497ca82fb0b4ab00793056020908152604080832093909416825291909152205460ff1690565b60608060375f0160376001018180548060200260200160405190810160405280929190818152602001828054801561205657602002820191905f5260205f20905b81546001600160a01b03168152600190910190602001808311612038575b50505050509150808054806020026020016040519081016040528092919081815260200182805480156120a657602002820191905f5260205f20905b815481526020019060010190808311612092575b50505050509050915091509091565b5f6001600160e01b03198216632483248360e11b1480610601575061060182612fe4565b5f5f6120e483613033565b90506001600160a01b03811661060157604051637e27328960e01b815260048101849052602401610207565b5f9081527f80bb2b638cc20bc4d0a60d66940f3ab4a00c1d7b313497ca82fb0b4ab007930460205260409020546001600160a01b031690565b61178682823361306c565b6001600160a01b03821661217d57604051633250574960e11b81525f6004820152602401610207565b5f612189838333613079565b9050836001600160a01b0316816001600160a01b031614610a67576040516364283d7b60e01b81526001600160a01b0380861660048301526024820184905282166044820152606401610207565b6109b583838360405180602001604052805f815250611bef565b5f807ff0c57e16840df040f15088dc2f81fe391c3923bec73e23a9662efc9c229c6a00610601565b61222161317b565b61178682826131a0565b6001600160e01b03198082169003612256576040516309b5e76560e31b815260040160405180910390fd5b6001600160e01b0319165f908152603660205260409020805460ff19166001179055565b61228261317b565b61228a6131d0565b565b5f80806122a16033546001600160a01b031690565b6001600160a01b031663b28775cd6040518163ffffffff1660e01b8152600401602060405180830381865afa1580156122dc573d5f5f3e3d5ffd5b505050506040513d601f19601f820116820180604052508101906123009190614ad5565b90505f5b85518110156125675761232f86828151811061232257612322614af0565b60200260200101516105f2565b6123765785818151811061234557612345614af0565b60200260200101516040516319bb402960e01b815260040161020791906001600160a01b0391909116815260200190565b6123a68687838151811061238c5761238c614af0565b60200260200101518360016123a19190614c02565b6131d8565b1580156123cc57508481815181106123c0576123c0614af0565b60200260200101515f14155b1561250d57816001600160a01b03168682815181106123ed576123ed614af0565b60200260200101516001600160a01b0316036124e157600192505f61241a6033546001600160a01b031690565b6001600160a01b03166301c4aebe6040518163ffffffff1660e01b8152600401602060405180830381865afa158015612455573d5f5f3e3d5ffd5b505050506040513d601f19601f82011682018060405250810190612479919061501f565b61ffff1690508086838151811061249257612492614af0565b602002602001015110156124df578582815181106124b2576124b2614af0565b60200260200101518160405163540fcb0760e11b8152600401610207929190918252602082015260400190565b505b8481815181106124f3576124f3614af0565b6020026020010151846125069190614c02565b935061255f565b84818151811061251f5761251f614af0565b60200260200101515f03612546576040516309ae9a4d60e01b815260040160405180910390fd5b60405163c1ab6dc160e01b815260040160405180910390fd5b600101612304565b508161258657604051633ca4618760e01b815260040160405180910390fd5b6127108314611c9d5760405163585b926360e01b815260040160405180910390fd5b611786828260405180602001604052805f81525061324b565b5f8281527f0542a41881ee128a365a727b282c86fa859579490b9bb45aab8503648c8e7900602081905260409091206125fa8382615038565b506040518381527ff8e1a15aba9398e019f0b49df1a4fde98ee17ae345cb5f6b5e2c27f5033e8ce79060200160405180910390a1505050565b5f428211612657576040516318db49c560e21b815260048101839052602401610207565b5f866001600160a01b0316633fc8cef36040518163ffffffff1660e01b8152600401602060405180830381865afa158015612694573d5f5f3e3d5ffd5b505050506040513d601f19601f820116820180604052508101906126b89190614ad5565b90505f876001600160a01b031663f887ea406040518163ffffffff1660e01b8152600401602060405180830381865afa1580156126f7573d5f5f3e3d5ffd5b505050506040513d601f19601f8201168201806040525081019061271b9190614ad5565b90505f805b885181101561281e575f89828151811061273c5761273c614af0565b6020026020010151111561281657836001600160a01b031660375f01828154811061276957612769614af0565b5f918252602090912001546001600160a01b0316036127ae5788818151811061279457612794614af0565b6020026020010151826127a79190614c02565b9150612816565b5f61280660375f0183815481106127c7576127c7614af0565b905f5260205f20015f9054906101000a90046001600160a01b031686868d86815181106127f6576127f6614af0565b6020026020010151308d8d613262565b90506128128184614c02565b9250505b600101612720565b50801561293957604051632e1a7d4d60e01b8152600481018290526001600160a01b03841690632e1a7d4d906024015f604051808303815f87803b158015612864575f5ffd5b505af1158015612876573d5f5f3e3d5ffd5b505050505f876001600160a01b0316826040515f6040518083038185875af1925050503d805f81146128c3576040519150601f19603f3d011682016040523d82523d5f602084013e6128c8565b606091505b50509050806129345760405162461bcd60e51b815260206004820152603260248201527f4661696c656420746f20756e7772617020616e64207472616e736665722057456044820152712a24103a37903a3432903932b1b2b4bb32b960711b6064820152608401610207565b819450505b50505095945050505050565b60025f54036129965760405162461bcd60e51b815260206004820152601f60248201527f5265656e7472616e637947756172643a207265656e7472616e742063616c6c006044820152606401610207565b60025f55565b6060825f036129be57604051639abc749160e01b815260040160405180910390fd5b6032546040516323b872dd60e01b81523360048201526001600160a01b039091166024820181905260448201859052906323b872dd906064016020604051808303815f875af1158015612a13573d5f5f3e3d5ffd5b505050506040513d601f19601f82011682018060405250810190612a379190614c15565b5060325460405163226bf2d160e21b81526001600160a01b038481166004830152909116906389afcb44906024015f604051808303815f875af1158015612a80573d5f5f3e3d5ffd5b505050506040513d5f823e601f3d908101601f19168201604052612aa79190810190614dea565b9392505050565b60015f55565b5f808315612bee57612710612ac98587614c30565b612ad39190614c47565b91505f836001600160a01b0316836040515f6040518083038185875af1925050503d805f8114612b1e576040519150601f19603f3d011682016040523d82523d5f602084013e612b23565b606091505b5050905080612b7e5760405162461bcd60e51b815260206004820152602160248201527f4661696c656420746f2064656475637420436f6e747269627574696f6e2046656044820152606560f81b6064820152608401610207565b836001600160a01b03167f72cd57b8de25c52a120a25de816c33ef7193ff5985d2106cf9d4269edc0b70558487604051612be49291909182526020820152606060408201819052600a9082015269636f6e7472696275746560b01b608082015260a00190565b60405180910390a2505b612bf88286614ed9565b9050935093915050565b603754606090806001600160401b03811115612c2057612c206148c9565b604051908082528060200260200182016040528015612c49578160200160208202803683370190505b5091505f805b82811015612cb6575f612c63828985613520565b9050612c70600185614ed9565b8214612c8357612c808184614c02565b92505b612c908983838a8a613583565b858381518110612ca257612ca2614af0565b602090810291909101015250600101612c4f565b505050949350505050565b845184518082141580612cd2575081155b80612cdb575080155b15612cf95760405163251f56a160e21b815260040160405180910390fd5b838015612d0857508651600214155b15612d2657604051631ec0e68160e11b815260040160405180910390fd5b428311612d49576040516318db49c560e21b815260048101849052602401610207565b612d53878761228c565b60325460405163ba6ba38560e01b8152600160048201526001600160a01b039091169063ba6ba385906024015f604051808303815f87803b158015612d96575f5ffd5b505af1158015612da8573d5f5f3e3d5ffd5b5050505060325f9054906101000a90046001600160a01b03166001600160a01b031663a7c7fdeb6040518163ffffffff1660e01b81526004015f604051808303815f87803b158015612df8575f5ffd5b505af1158015612e0a573d5f5f3e3d5ffd5b505050505f612e198685613853565b9050612e288888838988613a00565b6040517f60e4888485fa1e12376f526ebbde032f0a609ba95e61162e2d279c025c27d1a490612e629030906037906038908d908d906150f2565b60405180910390a16032546040516337905a4760e21b81526001600160a01b039091169063de41691c90612e9a908b90600401615183565b5f604051808303815f87803b158015612eb1575f5ffd5b505af1158015612ec3573d5f5f3e3d5ffd5b50508951612eda92506037915060208b0190614582565b508651612eee9060389060208a01906145d5565b5060325460405163ba6ba38560e01b81525f60048201526001600160a01b039091169063ba6ba385906024015f604051808303815f87803b158015612f31575f5ffd5b505af1158015612f43573d5f5f3e3d5ffd5b505050505050505050505050565b611786338383613b9c565b612f678484846109ba565b610a673385858585613c4b565b6060612f7f826120d9565b505f612f9560408051602081019091525f815290565b90505f815111612fb35760405180602001604052805f815250612aa7565b80612fbd84613d6a565b604051602001612fce929190614f97565b6040516020818303038152906040529392505050565b5f6001600160e01b031982166380ac58cd60e01b148061301457506001600160e01b03198216635b5e139f60e01b145b8061060157506301ffc9a760e01b6001600160e01b0319831614610601565b5f9081527f80bb2b638cc20bc4d0a60d66940f3ab4a00c1d7b313497ca82fb0b4ab007930260205260409020546001600160a01b031690565b6109b58383836001613df9565b5f5f51602061525d5f395f51905f528161309285613033565b90506001600160a01b038416156130ae576130ae818587613f0c565b6001600160a01b038116156130ea576130c95f865f5f613df9565b6001600160a01b0381165f908152600383016020526040902080545f190190555b6001600160a01b0386161561311a576001600160a01b0386165f9081526003830160205260409020805460010190555b5f85815260028301602052604080822080546001600160a01b0319166001600160a01b038a811691821790925591518893918516917fddf252ad1be2c89b69c2b068fc378daa952ba7f163c4a11628f55a4df523b3ef91a495945050505050565b613183613f70565b61228a57604051631afcd79f60e31b815260040160405180910390fd5b6131a861317b565b5f51602061525d5f395f51905f52806131c18482615038565b5060018101610a678382615038565b612aae61317b565b5f818451111561324257815b845181101561324057836001600160a01b031685828151811061320957613209614af0565b60200260200101516001600160a01b031603613238576040516323271fb560e11b815260040160405180910390fd5b6001016131e4565b505b505f9392505050565b6132558383613f89565b6109b5335f858585613c4b565b5f6132776001600160a01b0389168783613fea565b61328b6001600160a01b0389168787613fea565b5f61329e6033546001600160a01b031690565b60405163d88e3e3b60e01b81526001600160a01b038b811660048301528a81166024830152919091169063d88e3e3b906044015f60405180830381865afa1580156132eb573d5f5f3e3d5ffd5b505050506040513d5f823e601f3d908101601f191682016040526133129190810190614b3d565b905080516002146133365760405163251f56a160e21b815260040160405180910390fd5b5f6127106133448682614ed9565b60335460405163d06ca61f60e01b81526001600160a01b039091169063d06ca61f90613376908c908890600401614bd6565b602060405180830381865afa158015613391573d5f5f3e3d5ffd5b505050506040513d601f19601f820116820180604052508101906133b59190614b04565b6133bf9190614c30565b6133c99190614c47565b6040516370a0823160e01b81526001600160a01b0388811660048301529192505f918b16906370a0823190602401602060405180830381865afa158015613412573d5f5f3e3d5ffd5b505050506040513d601f19601f820116820180604052508101906134369190614b04565b604051635c11d79560e01b81529091506001600160a01b038a1690635c11d7959061346d908b90869088908d908c90600401615195565b5f604051808303815f87803b158015613484575f5ffd5b505af1158015613496573d5f5f3e3d5ffd5b50506040516370a0823160e01b81526001600160a01b038a811660048301525f93508d1691506370a0823190602401602060405180830381865afa1580156134e0573d5f5f3e3d5ffd5b505050506040513d601f19601f820116820180604052508101906135049190614b04565b90506135108282614ed9565b9c9b505050505050505050505050565b6037545f9061353190600190614ed9565b8403613548576135418284614ed9565b9050612aa7565b5f6037600101858154811061355f5761355f614af0565b905f5260205f200154905061271081856135799190614c30565b611e4d9190614c47565b5f5f60375f01868154811061359a5761359a614af0565b905f5260205f20015f9054906101000a90046001600160a01b031690505f876001600160a01b0316633fc8cef36040518163ffffffff1660e01b8152600401602060405180830381865afa1580156135f4573d5f5f3e3d5ffd5b505050506040513d601f19601f820116820180604052508101906136189190614ad5565b90505f886001600160a01b031663f887ea406040518163ffffffff1660e01b8152600401602060405180830381865afa158015613657573d5f5f3e3d5ffd5b505050506040513d601f19601f8201168201806040525081019061367b9190614ad5565b60405163d88e3e3b60e01b81526001600160a01b03848116600483015285811660248301529192505f918b169063d88e3e3b906044015f60405180830381865afa1580156136cb573d5f5f3e3d5ffd5b505050506040513d5f823e601f3d908101601f191682016040526136f29190810190614b3d565b90505f6137018b8a848b61411f565b6032546040516370a0823160e01b81526001600160a01b0391821660048201529192505f91908716906370a0823190602401602060405180830381865afa15801561374e573d5f5f3e3d5ffd5b505050506040513d601f19601f820116820180604052508101906137729190614b04565b60325460405163b6f9de9560e01b81529192506001600160a01b038087169263b6f9de95928e926137ad9288928a9216908f906004016151d0565b5f604051808303818588803b1580156137c4575f5ffd5b505af11580156137d6573d5f5f3e3d5ffd5b50506032546040516370a0823160e01b81526001600160a01b039182166004820152859450908a1692506370a082319150602401602060405180830381865afa158015613825573d5f5f3e3d5ffd5b505050506040513d601f19601f820116820180604052508101906138499190614b04565b6135109190614ed9565b5f5f6138676033546001600160a01b031690565b90505f816001600160a01b0316633fc8cef36040518163ffffffff1660e01b8152600401602060405180830381865afa1580156138a6573d5f5f3e3d5ffd5b505050506040513d601f19601f820116820180604052508101906138ca9190614ad5565b90505f826001600160a01b031663f887ea406040518163ffffffff1660e01b8152600401602060405180830381865afa158015613909573d5f5f3e3d5ffd5b505050506040513d601f19601f8201168201806040525081019061392d9190614ad5565b6037549091505f5b818110156139f5575f60375f01828154811061395357613953614af0565b5f9182526020822001546040516370a0823160e01b81523060048201526001600160a01b03909116925082906370a0823190602401602060405180830381865afa1580156139a3573d5f5f3e3d5ffd5b505050506040513d601f19601f820116820180604052508101906139c79190614b04565b905080156139eb576139de82878784308f8f613262565b6139e89089614c02565b97505b5050600101613935565b505050505092915050565b5f613a136033546001600160a01b031690565b90505f816001600160a01b0316633fc8cef36040518163ffffffff1660e01b8152600401602060405180830381865afa158015613a52573d5f5f3e3d5ffd5b505050506040513d601f19601f82011682018060405250810190613a769190614ad5565b90505f826001600160a01b031663f887ea406040518163ffffffff1660e01b8152600401602060405180830381865afa158015613ab5573d5f5f3e3d5ffd5b505050506040513d601f19601f82011682018060405250810190613ad99190614ad5565b87519091505f805b82811015613b8f575f613af5600185614ed9565b8203613b0c57613b05838b614ed9565b9050613b4d565b6127108b8381518110613b2157613b21614af0565b60200260200101518b613b349190614c30565b613b3e9190614c47565b9050613b4a8184614c02565b92505b613b85868d8481518110613b6357613b63614af0565b6020908102919091010151603254889085906001600160a01b03168e8e613262565b5050600101613ae1565b5050505050505050505050565b5f51602061525d5f395f51905f526001600160a01b038316613bdc57604051630b61174360e31b81526001600160a01b0384166004820152602401610207565b6001600160a01b038481165f818152600584016020908152604080832094881680845294825291829020805460ff191687151590811790915591519182527f17307eab39ab6107e8899845ad3d59bd9653f200f220920489ca2b5937696c31910160405180910390a350505050565b6001600160a01b0383163b15611c9d57604051630a85bd0160e11b81526001600160a01b0384169063150b7a0290613c8d908890889087908790600401615204565b6020604051808303815f875af1925050508015613cc7575060408051601f3d908101601f19168201909252613cc491810190615236565b60015b613d2e573d808015613cf4576040519150601f19603f3d011682016040523d82523d5f602084013e613cf9565b606091505b5080515f03613d2657604051633250574960e11b81526001600160a01b0385166004820152602401610207565b805181602001fd5b6001600160e01b03198116630a85bd0160e11b146118a557604051633250574960e11b81526001600160a01b0385166004820152602401610207565b60605f613d76836141bd565b60010190505f816001600160401b03811115613d9457613d946148c9565b6040519080825280601f01601f191660200182016040528015613dbe576020820181803683370190505b5090508181016020015b5f19016f181899199a1a9b1b9c1cb0b131b232b360811b600a86061a8153600a8504945084613dc857509392505050565b5f51602061525d5f395f51905f528180613e1b57506001600160a01b03831615155b15613edc575f613e2a856120d9565b90506001600160a01b03841615801590613e565750836001600160a01b0316816001600160a01b031614155b8015613e695750613e678185611fab565b155b15613e925760405163a9fbf51f60e01b81526001600160a01b0385166004820152602401610207565b8215613eda5784866001600160a01b0316826001600160a01b03167f8c5be1e5ebec7d5bd14f71427d1e84f3dd0314c0f7b2291e5b200ac8c7c3b92560405160405180910390a45b505b5f93845260040160205250506040902080546001600160a01b0319166001600160a01b0392909216919091179055565b613f17838383614294565b6109b5576001600160a01b038316613f4557604051637e27328960e01b815260048101829052602401610207565b60405163177e802f60e01b81526001600160a01b038316600482015260248101829052604401610207565b5f613f796121f1565b54600160401b900460ff16919050565b6001600160a01b038216613fb257604051633250574960e11b81525f6004820152602401610207565b5f613fbe83835f613079565b90506001600160a01b038116156109b5576040516339e3563760e11b81525f6004820152602401610207565b8015806140625750604051636eb1769f60e11b81523060048201526001600160a01b03838116602483015284169063dd62ed3e90604401602060405180830381865afa15801561403c573d5f5f3e3d5ffd5b505050506040513d601f19601f820116820180604052508101906140609190614b04565b155b6140cd5760405162461bcd60e51b815260206004820152603660248201527f5361666545524332303a20617070726f76652066726f6d206e6f6e2d7a65726f60448201527520746f206e6f6e2d7a65726f20616c6c6f77616e636560501b6064820152608401610207565b604080516001600160a01b038416602482015260448082018490528251808303909101815260649091019091526020810180516001600160e01b031663095ea7b360e01b1790526109b59084906142f8565b5f5f856001600160a01b031663d06ca61f86866040518363ffffffff1660e01b815260040161414f929190614bd6565b602060405180830381865afa15801561416a573d5f5f3e3d5ffd5b505050506040513d601f19601f8201168201806040525081019061418e9190614b04565b905061271061419d8482614ed9565b6141a79083614c30565b6141b19190614c47565b9150505b949350505050565b5f8072184f03e93ff9f4daa797ed6e38ed64bf6a1f0160401b83106141fb5772184f03e93ff9f4daa797ed6e38ed64bf6a1f0160401b830492506040015b6d04ee2d6d415b85acef81000000008310614227576d04ee2d6d415b85acef8100000000830492506020015b662386f26fc10000831061424557662386f26fc10000830492506010015b6305f5e100831061425d576305f5e100830492506008015b612710831061427157612710830492506004015b60648310614283576064830492506002015b600a83106106015760010192915050565b5f6001600160a01b038316158015906141b55750826001600160a01b0316846001600160a01b031614806142cd57506142cd8484611fab565b806141b55750826001600160a01b03166142e683612110565b6001600160a01b031614949350505050565b5f61434c826040518060400160405280602081526020017f5361666545524332303a206c6f772d6c6576656c2063616c6c206661696c6564815250856001600160a01b03166143cb9092919063ffffffff16565b905080515f148061436c57508080602001905181019061436c9190614c15565b6109b55760405162461bcd60e51b815260206004820152602a60248201527f5361666545524332303a204552433230206f7065726174696f6e20646964206e6044820152691bdd081cdd58d8d9595960b21b6064820152608401610207565b60606141b584845f85855f5f866001600160a01b031685876040516143f09190615251565b5f6040518083038185875af1925050503d805f811461442a576040519150601f19603f3d011682016040523d82523d5f602084013e61442f565b606091505b50915091506144408783838761444b565b979650505050505050565b606083156144b95782515f036144b2576001600160a01b0385163b6144b25760405162461bcd60e51b815260206004820152601d60248201527f416464726573733a2063616c6c20746f206e6f6e2d636f6e74726163740000006044820152606401610207565b50816141b5565b6141b583838151156144ce5781518083602001fd5b8060405162461bcd60e51b81526004016102079190614683565b828054828255905f5260205f20908101928215614539579160200282015b828111156145395781546001600160a01b0319166001600160a01b03843516178255602090920191600190910190614506565b5061454592915061460e565b5090565b828054828255905f5260205f20908101928215614539579160200282015b82811115614539578235825591602001919060010190614567565b828054828255905f5260205f20908101928215614539579160200282015b8281111561453957825182546001600160a01b0319166001600160a01b039091161782556020909201916001909101906145a0565b828054828255905f5260205f20908101928215614539579160200282015b828111156145395782518255916020019190600101906145f3565b5b80821115614545575f815560010161460f565b6001600160e01b031981168114614637575f5ffd5b50565b5f6020828403121561464a575f5ffd5b8135612aa781614622565b5f81518084528060208401602086015e5f602082860101526020601f19601f83011685010191505092915050565b602081525f612aa76020830184614655565b5f602082840312156146a5575f5ffd5b5035919050565b6001600160a01b0381168114614637575f5ffd5b5f5f604083850312156146d1575f5ffd5b82356146dc816146ac565b946020939093013593505050565b5f5f5f606084860312156146fc575f5ffd5b8335614707816146ac565b92506020840135614717816146ac565b929592945050506040919091013590565b5f5f60408385031215614739575f5ffd5b50508035926020909101359150565b5f60208284031215614758575f5ffd5b81356001600160401b0381111561476d575f5ffd5b82016101408185031215612aa7575f5ffd5b5f5f5f60608486031215614791575f5ffd5b505081359360208301359350604090920135919050565b5f602082840312156147b8575f5ffd5b8135612aa7816146ac565b5f5f83601f8401126147d3575f5ffd5b5081356001600160401b038111156147e9575f5ffd5b6020830191508360208260051b8501011115614803575f5ffd5b9250929050565b5f5f5f5f5f5f6080878903121561481f575f5ffd5b86356001600160401b03811115614834575f5ffd5b61484089828a016147c3565b90975095505060208701356001600160401b0381111561485e575f5ffd5b61486a89828a016147c3565b979a9699509760408101359660609091013595509350505050565b8015158114614637575f5ffd5b5f5f604083850312156148a3575f5ffd5b82356148ae816146ac565b915060208301356148be81614885565b809150509250929050565b634e487b7160e01b5f52604160045260245ffd5b604051601f8201601f191681016001600160401b0381118282101715614905576149056148c9565b604052919050565b5f6001600160401b03821115614925576149256148c9565b50601f01601f191660200190565b5f5f5f5f60808587031215614946575f5ffd5b8435614951816146ac565b93506020850135614961816146ac565b92506040850135915060608501356001600160401b03811115614982575f5ffd5b8501601f81018713614992575f5ffd5b80356149a56149a08261490d565b6148dd565b8181528860208385010111156149b9575f5ffd5b816020840160208301375f6020838301015280935050505092959194509250565b5f5f604083850312156149eb575f5ffd5b82356149f6816146ac565b915060208301356148be816146ac565b5f8151808452602084019350602083015f5b82811015614a3f5781516001600160a01b0316865260209586019590910190600101614a18565b5093949350505050565b5f8151808452602084019350602083015f5b82811015614a3f578151865260209586019590910190600101614a5b565b604081525f614a8b6040830185614a06565b8281036020840152611e4d8185614a49565b600181811c90821680614ab157607f821691505b602082108103614acf57634e487b7160e01b5f52602260045260245ffd5b50919050565b5f60208284031215614ae5575f5ffd5b8151612aa7816146ac565b634e487b7160e01b5f52603260045260245ffd5b5f60208284031215614b14575f5ffd5b5051919050565b5f6001600160401b03821115614b3357614b336148c9565b5060051b60200190565b5f60208284031215614b4d575f5ffd5b81516001600160401b03811115614b62575f5ffd5b8201601f81018413614b72575f5ffd5b8051614b806149a082614b1b565b8082825260208201915060208360051b850101925086831115614ba1575f5ffd5b6020840193505b82841015614bcc578351614bbb816146ac565b825260209384019390910190614ba8565b9695505050505050565b828152604060208201525f6141b56040830184614a06565b634e487b7160e01b5f52601160045260245ffd5b8082018082111561060157610601614bee565b5f60208284031215614c25575f5ffd5b8151612aa781614885565b808202811582820484141761060157610601614bee565b5f82614c6157634e487b7160e01b5f52601260045260245ffd5b500490565b5f5f8335601e19843603018112614c7b575f5ffd5b8301803591506001600160401b03821115614c94575f5ffd5b6020019150600581901b3603821315614803575f5ffd5b5f5f8335601e19843603018112614cc0575f5ffd5b8301803591506001600160401b03821115614cd9575f5ffd5b602001915036819003821315614803575f5ffd5b601f8211156109b557805f5260205f20601f840160051c81016020851015614d125750805b601f840160051c820191505b81811015611c9d575f8155600101614d1e565b6001600160401b03831115614d4857614d486148c9565b614d5c83614d568354614a9d565b83614ced565b5f601f841160018114614d8d575f8515614d765750838201355b5f19600387901b1c1916600186901b178355611c9d565b5f83815260208120601f198716915b82811015614dbc5786850135825560209485019460019092019101614d9c565b5086821015614dd8575f1960f88860031b161c19848701351681555b505060018560011b0183555050505050565b5f60208284031215614dfa575f5ffd5b81516001600160401b03811115614e0f575f5ffd5b8201601f81018413614e1f575f5ffd5b8051614e2d6149a082614b1b565b8082825260208201915060208360051b850101925086831115614e4e575f5ffd5b6020840193505b82841015614bcc578351825260209384019390910190614e55565b805161ffff81168114614e81575f5ffd5b919050565b5f5f5f5f60808587031215614e99575f5ffd5b614ea285614e70565b9350614eb060208601614e70565b9250614ebe60408601614e70565b91506060850151614ece816146ac565b939692955090935050565b8181038181111561060157610601614bee565b6001600160a01b03831681526040602082018190525f906141b590830184614a49565b5f8154808452602084019350825f5260205f205f5b82811015614a3f5781546001600160a01b0316865260209095019460019182019101614f24565b6001600160a01b03841681526060602082018190525f90614f6e90830185614f0f565b82810360408401526141b18185614a49565b5f81518060208401855e5f93019283525090919050565b5f6141b5614fa58386614f80565b84614f80565b5f60208284031215614fbb575f5ffd5b81516001600160401b03811115614fd0575f5ffd5b8201601f81018413614fe0575f5ffd5b8051614fee6149a08261490d565b818152856020838501011115615002575f5ffd5b8160208401602083015e5f91810160200191909152949350505050565b5f6020828403121561502f575f5ffd5b612aa782614e70565b81516001600160401b03811115615051576150516148c9565b6150658161505f8454614a9d565b84614ced565b6020601f821160018114615097575f83156150805750848201515b5f19600385901b1c1916600184901b178455611c9d565b5f84815260208120601f198516915b828110156150c657878501518255602094850194600190920191016150a6565b50848210156150e357868401515f19600387901b60f8161c191681555b50505050600190811b01905550565b6001600160a01b038616815260a0602082018190525f9061511590830187614f0f565b828103604084015285548082525f8781526020808220930191905b8181101561514e578354835260019384019360209093019201615130565b505083810360608501526151628187614a06565b91505082810360808401526151778185614a49565b98975050505050505050565b602081525f612aa76020830184614a06565b85815284602082015260a060408201525f6151b360a0830186614a06565b6001600160a01b0394909416606083015250608001529392505050565b848152608060208201525f6151e86080830186614a06565b6001600160a01b03949094166040830152506060015292915050565b6001600160a01b03858116825284166020820152604081018390526080606082018190525f90614bcc90830184614655565b5f60208284031215615246575f5ffd5b8151612aa781614622565b5f612aa78284614f8056fe80bb2b638cc20bc4d0a60d66940f3ab4a00c1d7b313497ca82fb0b4ab0079300a264697066735822122005568620a5ef97c1695a5a0261d197cc3406e0512d9593a40510425676d29d0964736f6c634300081e0033",
			"opcodes": "PUSH1 0x80 PUSH1 0x40 MSTORE CALLVALUE DUP1 ISZERO PUSH1 0xE JUMPI PUSH0 PUSH0 REVERT JUMPDEST POP PUSH2 0x52B2 DUP1 PUSH2 0x1C PUSH0 CODECOPY PUSH0 RETURN INVALID PUSH1 0x80 PUSH1 0x40 MSTORE PUSH1 0x4 CALLDATASIZE LT PUSH2 0x1DE JUMPI PUSH0 CALLDATALOAD PUSH1 0xE0 SHR DUP1 PUSH4 0x8C590917 GT PUSH2 0xFD JUMPI DUP1 PUSH4 0xC1E03728 GT PUSH2 0x92 JUMPI DUP1 PUSH4 0xE8A3D485 GT PUSH2 0x62 JUMPI DUP1 PUSH4 0xE8A3D485 EQ PUSH2 0x588 JUMPI DUP1 PUSH4 0xE985E9C5 EQ PUSH2 0x59C JUMPI DUP1 PUSH4 0xFF332AB7 EQ PUSH2 0x5BB JUMPI DUP1 PUSH4 0xFFE8E372 EQ PUSH2 0x5DD JUMPI PUSH0 PUSH0 REVERT JUMPDEST DUP1 PUSH4 0xC1E03728 EQ PUSH2 0x50C JUMPI DUP1 PUSH4 0xC45A0155 EQ PUSH2 0x52B JUMPI DUP1 PUSH4 0xC87B56DD EQ PUSH2 0x54A JUMPI DUP1 PUSH4 0xD32429CE EQ PUSH2 0x569 JUMPI PUSH0 PUSH0 REVERT JUMPDEST DUP1 PUSH4 0xA41FE49F GT PUSH2 0xCD JUMPI DUP1 PUSH4 0xA41FE49F EQ PUSH2 0x49B JUMPI DUP1 PUSH4 0xAF640D0F EQ PUSH2 0x4BA JUMPI DUP1 PUSH4 0xB88D4FDE EQ PUSH2 0x4CE JUMPI DUP1 PUSH4 0xBAA888B3 EQ PUSH2 0x4ED JUMPI PUSH0 PUSH0 REVERT JUMPDEST DUP1 PUSH4 0x8C590917 EQ PUSH2 0x436 JUMPI DUP1 PUSH4 0x95D89B41 EQ PUSH2 0x449 JUMPI DUP1 PUSH4 0x9FF253F9 EQ PUSH2 0x45D JUMPI DUP1 PUSH4 0xA22CB465 EQ PUSH2 0x47C JUMPI PUSH0 PUSH0 REVERT JUMPDEST DUP1 PUSH4 0x478ECD90 GT PUSH2 0x173 JUMPI DUP1 PUSH4 0x7284E416 GT PUSH2 0x143 JUMPI DUP1 PUSH4 0x7284E416 EQ PUSH2 0x3DB JUMPI DUP1 PUSH4 0x7E1C0C09 EQ PUSH2 0x3EF JUMPI DUP1 PUSH4 0x87244B9C EQ PUSH2 0x403 JUMPI DUP1 PUSH4 0x893D20E8 EQ PUSH2 0x422 JUMPI PUSH0 PUSH0 REVERT JUMPDEST DUP1 PUSH4 0x478ECD90 EQ PUSH2 0x35F JUMPI DUP1 PUSH4 0x4C306528 EQ PUSH2 0x37E JUMPI DUP1 PUSH4 0x6352211E EQ PUSH2 0x39D JUMPI DUP1 PUSH4 0x70A08231 EQ PUSH2 0x3BC JUMPI PUSH0 PUSH0 REVERT JUMPDEST DUP1 PUSH4 0x95EA7B3 GT PUSH2 0x1AE JUMPI DUP1 PUSH4 0x95EA7B3 EQ PUSH2 0x2C4 JUMPI DUP1 PUSH4 0x23B872DD EQ PUSH2 0x2E3 JUMPI DUP1 PUSH4 0x2A55205A EQ PUSH2 0x302 JUMPI DUP1 PUSH4 0x42842E0E EQ PUSH2 0x340 JUMPI PUSH0 PUSH0 REVERT JUMPDEST DUP1 PUSH4 0x1FFC9A7 EQ PUSH2 0x216 JUMPI DUP1 PUSH4 0x6FDDE03 EQ PUSH2 0x24A JUMPI DUP1 PUSH4 0x81812FC EQ PUSH2 0x26B JUMPI DUP1 PUSH4 0x83C01F3 EQ PUSH2 0x2A2 JUMPI PUSH0 PUSH0 REVERT JUMPDEST CALLDATASIZE PUSH2 0x212 JUMPI PUSH2 0x1EC CALLER PUSH2 0x5F2 JUMP JUMPDEST PUSH2 0x210 JUMPI PUSH1 0x40 MLOAD PUSH4 0x3FCC3F17 PUSH1 0xE0 SHL DUP2 MSTORE CALLER PUSH1 0x4 DUP3 ADD MSTORE PUSH1 0x24 ADD JUMPDEST PUSH1 0x40 MLOAD DUP1 SWAP2 SUB SWAP1 REVERT JUMPDEST STOP JUMPDEST PUSH0 PUSH0 REVERT JUMPDEST CALLVALUE DUP1 ISZERO PUSH2 0x221 JUMPI PUSH0 PUSH0 REVERT JUMPDEST POP PUSH2 0x235 PUSH2 0x230 CALLDATASIZE PUSH1 0x4 PUSH2 0x463A JUMP JUMPDEST PUSH2 0x607 JUMP JUMPDEST PUSH1 0x40 MLOAD SWAP1 ISZERO ISZERO DUP2 MSTORE PUSH1 0x20 ADD JUMPDEST PUSH1 0x40 MLOAD DUP1 SWAP2 SUB SWAP1 RETURN JUMPDEST CALLVALUE DUP1 ISZERO PUSH2 0x255 JUMPI PUSH0 PUSH0 REVERT JUMPDEST POP PUSH2 0x25E PUSH2 0x636 JUMP JUMPDEST PUSH1 0x40 MLOAD PUSH2 0x241 SWAP2 SWAP1 PUSH2 0x4683 JUMP JUMPDEST CALLVALUE DUP1 ISZERO PUSH2 0x276 JUMPI PUSH0 PUSH0 REVERT JUMPDEST POP PUSH2 0x28A PUSH2 0x285 CALLDATASIZE PUSH1 0x4 PUSH2 0x4695 JUMP JUMPDEST PUSH2 0x6D7 JUMP JUMPDEST PUSH1 0x40 MLOAD PUSH1 0x1 PUSH1 0x1 PUSH1 0xA0 SHL SUB SWAP1 SWAP2 AND DUP2 MSTORE PUSH1 0x20 ADD PUSH2 0x241 JUMP JUMPDEST CALLVALUE DUP1 ISZERO PUSH2 0x2AD JUMPI PUSH0 PUSH0 REVERT JUMPDEST POP PUSH2 0x2B6 PUSH2 0x6EB JUMP JUMPDEST PUSH1 0x40 MLOAD SWAP1 DUP2 MSTORE PUSH1 0x20 ADD PUSH2 0x241 JUMP JUMPDEST CALLVALUE DUP1 ISZERO PUSH2 0x2CF JUMPI PUSH0 PUSH0 REVERT JUMPDEST POP PUSH2 0x210 PUSH2 0x2DE CALLDATASIZE PUSH1 0x4 PUSH2 0x46C0 JUMP JUMPDEST PUSH2 0x909 JUMP JUMPDEST CALLVALUE DUP1 ISZERO PUSH2 0x2EE JUMPI PUSH0 PUSH0 REVERT JUMPDEST POP PUSH2 0x210 PUSH2 0x2FD CALLDATASIZE PUSH1 0x4 PUSH2 0x46EA JUMP JUMPDEST PUSH2 0x9BA JUMP JUMPDEST CALLVALUE DUP1 ISZERO PUSH2 0x30D JUMPI PUSH0 PUSH0 REVERT JUMPDEST POP PUSH2 0x321 PUSH2 0x31C CALLDATASIZE PUSH1 0x4 PUSH2 0x4728 JUMP JUMPDEST PUSH2 0xA6D JUMP JUMPDEST PUSH1 0x40 DUP1 MLOAD PUSH1 0x1 PUSH1 0x1 PUSH1 0xA0 SHL SUB SWAP1 SWAP4 AND DUP4 MSTORE PUSH1 0x20 DUP4 ADD SWAP2 SWAP1 SWAP2 MSTORE ADD PUSH2 0x241 JUMP JUMPDEST CALLVALUE DUP1 ISZERO PUSH2 0x34B JUMPI PUSH0 PUSH0 REVERT JUMPDEST POP PUSH2 0x210 PUSH2 0x35A CALLDATASIZE PUSH1 0x4 PUSH2 0x46EA JUMP JUMPDEST PUSH2 0xB94 JUMP JUMPDEST CALLVALUE DUP1 ISZERO PUSH2 0x36A JUMPI PUSH0 PUSH0 REVERT JUMPDEST POP PUSH2 0x210 PUSH2 0x379 CALLDATASIZE PUSH1 0x4 PUSH2 0x4748 JUMP JUMPDEST PUSH2 0xC41 JUMP JUMPDEST CALLVALUE DUP1 ISZERO PUSH2 0x389 JUMPI PUSH0 PUSH0 REVERT JUMPDEST POP PUSH2 0x210 PUSH2 0x398 CALLDATASIZE PUSH1 0x4 PUSH2 0x477F JUMP JUMPDEST PUSH2 0xFD7 JUMP JUMPDEST CALLVALUE DUP1 ISZERO PUSH2 0x3A8 JUMPI PUSH0 PUSH0 REVERT JUMPDEST POP PUSH2 0x28A PUSH2 0x3B7 CALLDATASIZE PUSH1 0x4 PUSH2 0x4695 JUMP JUMPDEST PUSH2 0x121C JUMP JUMPDEST CALLVALUE DUP1 ISZERO PUSH2 0x3C7 JUMPI PUSH0 PUSH0 REVERT JUMPDEST POP PUSH2 0x2B6 PUSH2 0x3D6 CALLDATASIZE PUSH1 0x4 PUSH2 0x47A8 JUMP JUMPDEST PUSH2 0x1226 JUMP JUMPDEST CALLVALUE DUP1 ISZERO PUSH2 0x3E6 JUMPI PUSH0 PUSH0 REVERT JUMPDEST POP PUSH2 0x25E PUSH2 0x127E JUMP JUMPDEST CALLVALUE DUP1 ISZERO PUSH2 0x3FA JUMPI PUSH0 PUSH0 REVERT JUMPDEST POP PUSH1 0x37 SLOAD PUSH2 0x2B6 JUMP JUMPDEST CALLVALUE DUP1 ISZERO PUSH2 0x40E JUMPI PUSH0 PUSH0 REVERT JUMPDEST POP PUSH2 0x210 PUSH2 0x41D CALLDATASIZE PUSH1 0x4 PUSH2 0x477F JUMP JUMPDEST PUSH2 0x130A JUMP JUMPDEST CALLVALUE DUP1 ISZERO PUSH2 0x42D JUMPI PUSH0 PUSH0 REVERT JUMPDEST POP PUSH2 0x28A PUSH2 0x1594 JUMP JUMPDEST PUSH2 0x210 PUSH2 0x444 CALLDATASIZE PUSH1 0x4 PUSH2 0x4728 JUMP JUMPDEST PUSH2 0x15A3 JUMP JUMPDEST CALLVALUE DUP1 ISZERO PUSH2 0x454 JUMPI PUSH0 PUSH0 REVERT JUMPDEST POP PUSH2 0x25E PUSH2 0x178A JUMP JUMPDEST CALLVALUE DUP1 ISZERO PUSH2 0x468 JUMPI PUSH0 PUSH0 REVERT JUMPDEST POP PUSH2 0x210 PUSH2 0x477 CALLDATASIZE PUSH1 0x4 PUSH2 0x480A JUMP JUMPDEST PUSH2 0x17C8 JUMP JUMPDEST CALLVALUE DUP1 ISZERO PUSH2 0x487 JUMPI PUSH0 PUSH0 REVERT JUMPDEST POP PUSH2 0x210 PUSH2 0x496 CALLDATASIZE PUSH1 0x4 PUSH2 0x4892 JUMP JUMPDEST PUSH2 0x18AD JUMP JUMPDEST CALLVALUE DUP1 ISZERO PUSH2 0x4A6 JUMPI PUSH0 PUSH0 REVERT JUMPDEST POP PUSH2 0x210 PUSH2 0x4B5 CALLDATASIZE PUSH1 0x4 PUSH2 0x477F JUMP JUMPDEST PUSH2 0x1963 JUMP JUMPDEST CALLVALUE DUP1 ISZERO PUSH2 0x4C5 JUMPI PUSH0 PUSH0 REVERT JUMPDEST POP PUSH2 0x25E PUSH2 0x1BE2 JUMP JUMPDEST CALLVALUE DUP1 ISZERO PUSH2 0x4D9 JUMPI PUSH0 PUSH0 REVERT JUMPDEST POP PUSH2 0x210 PUSH2 0x4E8 CALLDATASIZE PUSH1 0x4 PUSH2 0x4933 JUMP JUMPDEST PUSH2 0x1BEF JUMP JUMPDEST CALLVALUE DUP1 ISZERO PUSH2 0x4F8 JUMPI PUSH0 PUSH0 REVERT JUMPDEST POP PUSH1 0x32 SLOAD PUSH2 0x28A SWAP1 PUSH1 0x1 PUSH1 0x1 PUSH1 0xA0 SHL SUB AND DUP2 JUMP JUMPDEST CALLVALUE DUP1 ISZERO PUSH2 0x517 JUMPI PUSH0 PUSH0 REVERT JUMPDEST POP PUSH2 0x321 PUSH2 0x526 CALLDATASIZE PUSH1 0x4 PUSH2 0x4695 JUMP JUMPDEST PUSH2 0x1CA4 JUMP JUMPDEST CALLVALUE DUP1 ISZERO PUSH2 0x536 JUMPI PUSH0 PUSH0 REVERT JUMPDEST POP PUSH1 0x33 SLOAD PUSH2 0x28A SWAP1 PUSH1 0x1 PUSH1 0x1 PUSH1 0xA0 SHL SUB AND DUP2 JUMP JUMPDEST CALLVALUE DUP1 ISZERO PUSH2 0x555 JUMPI PUSH0 PUSH0 REVERT JUMPDEST POP PUSH2 0x25E PUSH2 0x564 CALLDATASIZE PUSH1 0x4 PUSH2 0x4695 JUMP JUMPDEST PUSH2 0x1D27 JUMP JUMPDEST CALLVALUE DUP1 ISZERO PUSH2 0x574 JUMPI PUSH0 PUSH0 REVERT JUMPDEST POP PUSH2 0x210 PUSH2 0x583 CALLDATASIZE PUSH1 0x4 PUSH2 0x480A JUMP JUMPDEST PUSH2 0x1E56 JUMP JUMPDEST CALLVALUE DUP1 ISZERO PUSH2 0x593 JUMPI PUSH0 PUSH0 REVERT JUMPDEST POP PUSH2 0x25E PUSH2 0x1F36 JUMP JUMPDEST CALLVALUE DUP1 ISZERO PUSH2 0x5A7 JUMPI PUSH0 PUSH0 REVERT JUMPDEST POP PUSH2 0x235 PUSH2 0x5B6 CALLDATASIZE PUSH1 0x4 PUSH2 0x49DA JUMP JUMPDEST PUSH2 0x1FAB JUMP JUMPDEST CALLVALUE DUP1 ISZERO PUSH2 0x5C6 JUMPI PUSH0 PUSH0 REVERT JUMPDEST POP PUSH2 0x5CF PUSH2 0x1FF7 JUMP JUMPDEST PUSH1 0x40 MLOAD PUSH2 0x241 SWAP3 SWAP2 SWAP1 PUSH2 0x4A79 JUMP JUMPDEST CALLVALUE DUP1 ISZERO PUSH2 0x5E8 JUMPI PUSH0 PUSH0 REVERT JUMPDEST POP PUSH2 0x2B6 PUSH2 0x2710 DUP2 JUMP JUMPDEST PUSH0 PUSH1 0x1 PUSH1 0x1 PUSH1 0xA0 SHL SUB DUP3 AND EXTCODESIZE ISZERO ISZERO JUMPDEST SWAP3 SWAP2 POP POP JUMP JUMPDEST PUSH0 PUSH2 0x611 DUP3 PUSH2 0x20B5 JUMP JUMPDEST DUP1 PUSH2 0x601 JUMPI POP POP PUSH1 0x1 PUSH1 0x1 PUSH1 0xE0 SHL SUB NOT AND PUSH0 SWAP1 DUP2 MSTORE PUSH1 0x36 PUSH1 0x20 MSTORE PUSH1 0x40 SWAP1 KECCAK256 SLOAD PUSH1 0xFF AND SWAP1 JUMP JUMPDEST PUSH0 MLOAD PUSH1 0x20 PUSH2 0x525D PUSH0 CODECOPY PUSH0 MLOAD SWAP1 PUSH0 MSTORE DUP1 SLOAD PUSH1 0x60 SWAP2 SWAP1 DUP2 SWAP1 PUSH2 0x655 SWAP1 PUSH2 0x4A9D JUMP JUMPDEST DUP1 PUSH1 0x1F ADD PUSH1 0x20 DUP1 SWAP2 DIV MUL PUSH1 0x20 ADD PUSH1 0x40 MLOAD SWAP1 DUP2 ADD PUSH1 0x40 MSTORE DUP1 SWAP3 SWAP2 SWAP1 DUP2 DUP2 MSTORE PUSH1 0x20 ADD DUP3 DUP1 SLOAD PUSH2 0x681 SWAP1 PUSH2 0x4A9D JUMP JUMPDEST DUP1 ISZERO PUSH2 0x6CC JUMPI DUP1 PUSH1 0x1F LT PUSH2 0x6A3 JUMPI PUSH2 0x100 DUP1 DUP4 SLOAD DIV MUL DUP4 MSTORE SWAP2 PUSH1 0x20 ADD SWAP2 PUSH2 0x6CC JUMP JUMPDEST DUP3 ADD SWAP2 SWAP1 PUSH0 MSTORE PUSH1 0x20 PUSH0 KECCAK256 SWAP1 JUMPDEST DUP2 SLOAD DUP2 MSTORE SWAP1 PUSH1 0x1 ADD SWAP1 PUSH1 0x20 ADD DUP1 DUP4 GT PUSH2 0x6AF JUMPI DUP3 SWAP1 SUB PUSH1 0x1F AND DUP3 ADD SWAP2 JUMPDEST POP POP POP POP POP SWAP2 POP POP SWAP1 JUMP JUMPDEST PUSH0 PUSH2 0x6E1 DUP3 PUSH2 0x20D9 JUMP JUMPDEST POP PUSH2 0x601 DUP3 PUSH2 0x2110 JUMP JUMPDEST PUSH0 PUSH0 PUSH2 0x6FF PUSH1 0x33 SLOAD PUSH1 0x1 PUSH1 0x1 PUSH1 0xA0 SHL SUB AND SWAP1 JUMP JUMPDEST SWAP1 POP PUSH0 DUP2 PUSH1 0x1 PUSH1 0x1 PUSH1 0xA0 SHL SUB AND PUSH4 0x3FC8CEF3 PUSH1 0x40 MLOAD DUP2 PUSH4 0xFFFFFFFF AND PUSH1 0xE0 SHL DUP2 MSTORE PUSH1 0x4 ADD PUSH1 0x20 PUSH1 0x40 MLOAD DUP1 DUP4 SUB DUP2 DUP7 GAS STATICCALL ISZERO DUP1 ISZERO PUSH2 0x73E JUMPI RETURNDATASIZE PUSH0 PUSH0 RETURNDATACOPY RETURNDATASIZE PUSH0 REVERT JUMPDEST POP POP POP POP PUSH1 0x40 MLOAD RETURNDATASIZE PUSH1 0x1F NOT PUSH1 0x1F DUP3 ADD AND DUP3 ADD DUP1 PUSH1 0x40 MSTORE POP DUP2 ADD SWAP1 PUSH2 0x762 SWAP2 SWAP1 PUSH2 0x4AD5 JUMP JUMPDEST PUSH1 0x37 SLOAD SWAP1 SWAP2 POP PUSH0 JUMPDEST DUP2 DUP2 LT ISZERO PUSH2 0x902 JUMPI PUSH0 PUSH1 0x37 PUSH0 ADD DUP3 DUP2 SLOAD DUP2 LT PUSH2 0x788 JUMPI PUSH2 0x788 PUSH2 0x4AF0 JUMP JUMPDEST PUSH0 SWAP2 DUP3 MSTORE PUSH1 0x20 DUP3 KECCAK256 ADD SLOAD PUSH1 0x32 SLOAD PUSH1 0x40 MLOAD PUSH4 0x239CFC6D PUSH1 0xE2 SHL DUP2 MSTORE PUSH1 0x4 DUP2 ADD DUP7 SWAP1 MSTORE PUSH1 0x1 PUSH1 0x1 PUSH1 0xA0 SHL SUB SWAP3 DUP4 AND SWAP5 POP SWAP2 AND SWAP1 PUSH4 0x8E73F1B4 SWAP1 PUSH1 0x24 ADD PUSH1 0x20 PUSH1 0x40 MLOAD DUP1 DUP4 SUB DUP2 DUP7 GAS STATICCALL ISZERO DUP1 ISZERO PUSH2 0x7DD JUMPI RETURNDATASIZE PUSH0 PUSH0 RETURNDATACOPY RETURNDATASIZE PUSH0 REVERT JUMPDEST POP POP POP POP PUSH1 0x40 MLOAD RETURNDATASIZE PUSH1 0x1F NOT PUSH1 0x1F DUP3 ADD AND DUP3 ADD DUP1 PUSH1 0x40 MSTORE POP DUP2 ADD SWAP1 PUSH2 0x801 SWAP2 SWAP1 PUSH2 0x4B04 JUMP JUMPDEST PUSH1 0x40 MLOAD PUSH4 0xD88E3E3B PUSH1 0xE0 SHL DUP2 MSTORE PUSH1 0x1 PUSH1 0x1 PUSH1 0xA0 SHL SUB DUP5 DUP2 AND PUSH1 0x4 DUP4 ADD MSTORE DUP8 DUP2 AND PUSH1 0x24 DUP4 ADD MSTORE SWAP2 SWAP3 POP PUSH0 SWAP2 DUP9 AND SWAP1 PUSH4 0xD88E3E3B SWAP1 PUSH1 0x44 ADD PUSH0 PUSH1 0x40 MLOAD DUP1 DUP4 SUB DUP2 DUP7 GAS STATICCALL ISZERO DUP1 ISZERO PUSH2 0x851 JUMPI RETURNDATASIZE PUSH0 PUSH0 RETURNDATACOPY RETURNDATASIZE PUSH0 REVERT JUMPDEST POP POP POP POP PUSH1 0x40 MLOAD RETURNDATASIZE PUSH0 DUP3 RETURNDATACOPY PUSH1 0x1F RETURNDATASIZE SWAP1 DUP2 ADD PUSH1 0x1F NOT AND DUP3 ADD PUSH1 0x40 MSTORE PUSH2 0x878 SWAP2 SWAP1 DUP2 ADD SWAP1 PUSH2 0x4B3D JUMP JUMPDEST PUSH1 0x40 MLOAD PUSH4 0xD06CA61F PUSH1 0xE0 SHL DUP2 MSTORE SWAP1 SWAP2 POP PUSH1 0x1 PUSH1 0x1 PUSH1 0xA0 SHL SUB DUP9 AND SWAP1 PUSH4 0xD06CA61F SWAP1 PUSH2 0x8A9 SWAP1 DUP6 SWAP1 DUP6 SWAP1 PUSH1 0x4 ADD PUSH2 0x4BD6 JUMP JUMPDEST PUSH1 0x20 PUSH1 0x40 MLOAD DUP1 DUP4 SUB DUP2 DUP7 GAS STATICCALL ISZERO DUP1 ISZERO PUSH2 0x8C4 JUMPI RETURNDATASIZE PUSH0 PUSH0 RETURNDATACOPY RETURNDATASIZE PUSH0 REVERT JUMPDEST POP POP POP POP PUSH1 0x40 MLOAD RETURNDATASIZE PUSH1 0x1F NOT PUSH1 0x1F DUP3 ADD AND DUP3 ADD DUP1 PUSH1 0x40 MSTORE POP DUP2 ADD SWAP1 PUSH2 0x8E8 SWAP2 SWAP1 PUSH2 0x4B04 JUMP JUMPDEST PUSH2 0x8F2 SWAP1 DUP10 PUSH2 0x4C02 JUMP JUMPDEST SWAP8 POP DUP4 PUSH1 0x1 ADD SWAP4 POP POP POP POP PUSH2 0x76A JUMP JUMPDEST POP POP POP POP SWAP1 JUMP JUMPDEST DUP2 PUSH2 0x913 DUP2 PUSH2 0x5F2 JUMP JUMPDEST ISZERO PUSH2 0x9AB JUMPI PUSH1 0x33 SLOAD PUSH1 0x1 PUSH1 0x1 PUSH1 0xA0 SHL SUB AND PUSH1 0x40 MLOAD PUSH4 0x3B9589A9 PUSH1 0xE0 SHL DUP2 MSTORE PUSH1 0x1 PUSH1 0x1 PUSH1 0xA0 SHL SUB DUP4 DUP2 AND PUSH1 0x4 DUP4 ADD MSTORE SWAP2 SWAP1 SWAP2 AND SWAP1 PUSH4 0x3B9589A9 SWAP1 PUSH1 0x24 ADD PUSH1 0x20 PUSH1 0x40 MLOAD DUP1 DUP4 SUB DUP2 DUP7 GAS STATICCALL ISZERO DUP1 ISZERO PUSH2 0x96A JUMPI RETURNDATASIZE PUSH0 PUSH0 RETURNDATACOPY RETURNDATASIZE PUSH0 REVERT JUMPDEST POP POP POP POP PUSH1 0x40 MLOAD RETURNDATASIZE PUSH1 0x1F NOT PUSH1 0x1F DUP3 ADD AND DUP3 ADD DUP1 PUSH1 0x40 MSTORE POP DUP2 ADD SWAP1 PUSH2 0x98E SWAP2 SWAP1 PUSH2 0x4C15 JUMP JUMPDEST PUSH2 0x9AB JUMPI PUSH1 0x40 MLOAD PUSH4 0x2FF3629F PUSH1 0xE2 SHL DUP2 MSTORE PUSH1 0x4 ADD PUSH1 0x40 MLOAD DUP1 SWAP2 SUB SWAP1 REVERT JUMPDEST PUSH2 0x9B5 DUP4 DUP4 PUSH2 0x2149 JUMP JUMPDEST POP POP POP JUMP JUMPDEST DUP2 PUSH2 0x9C4 DUP2 PUSH2 0x5F2 JUMP JUMPDEST ISZERO PUSH2 0xA5C JUMPI PUSH1 0x33 SLOAD PUSH1 0x1 PUSH1 0x1 PUSH1 0xA0 SHL SUB AND PUSH1 0x40 MLOAD PUSH4 0x3B9589A9 PUSH1 0xE0 SHL DUP2 MSTORE PUSH1 0x1 PUSH1 0x1 PUSH1 0xA0 SHL SUB DUP4 DUP2 AND PUSH1 0x4 DUP4 ADD MSTORE SWAP2 SWAP1 SWAP2 AND SWAP1 PUSH4 0x3B9589A9 SWAP1 PUSH1 0x24 ADD PUSH1 0x20 PUSH1 0x40 MLOAD DUP1 DUP4 SUB DUP2 DUP7 GAS STATICCALL ISZERO DUP1 ISZERO PUSH2 0xA1B JUMPI RETURNDATASIZE PUSH0 PUSH0 RETURNDATACOPY RETURNDATASIZE PUSH0 REVERT JUMPDEST POP POP POP POP PUSH1 0x40 MLOAD RETURNDATASIZE PUSH1 0x1F NOT PUSH1 0x1F DUP3 ADD AND DUP3 ADD DUP1 PUSH1 0x40 MSTORE POP DUP2 ADD SWAP1 PUSH2 0xA3F SWAP2 SWAP1 PUSH2 0x4C15 JUMP JUMPDEST PUSH2 0xA5C JUMPI PUSH1 0x40 MLOAD PUSH4 0x2FF3629F PUSH1 0xE2 SHL DUP2 MSTORE PUSH1 0x4 ADD PUSH1 0x40 MLOAD DUP1 SWAP2 SUB SWAP1 REVERT JUMPDEST PUSH2 0xA67 DUP5 DUP5 DUP5 PUSH2 0x2154 JUMP JUMPDEST POP POP POP POP JUMP JUMPDEST PUSH0 PUSH0 PUSH2 0xA81 PUSH1 0x33 SLOAD PUSH1 0x1 PUSH1 0x1 PUSH1 0xA0 SHL SUB AND SWAP1 JUMP JUMPDEST PUSH1 0x1 PUSH1 0x1 PUSH1 0xA0 SHL SUB AND PUSH4 0x9FBC8713 PUSH1 0x40 MLOAD DUP2 PUSH4 0xFFFFFFFF AND PUSH1 0xE0 SHL DUP2 MSTORE PUSH1 0x4 ADD PUSH1 0x20 PUSH1 0x40 MLOAD DUP1 DUP4 SUB DUP2 DUP7 GAS STATICCALL ISZERO DUP1 ISZERO PUSH2 0xABC JUMPI RETURNDATASIZE PUSH0 PUSH0 RETURNDATACOPY RETURNDATASIZE PUSH0 REVERT JUMPDEST POP POP POP POP PUSH1 0x40 MLOAD RETURNDATASIZE PUSH1 0x1F NOT PUSH1 0x1F DUP3 ADD AND DUP3 ADD DUP1 PUSH1 0x40 MSTORE POP DUP2 ADD SWAP1 PUSH2 0xAE0 SWAP2 SWAP1 PUSH2 0x4AD5 JUMP JUMPDEST SWAP2 POP PUSH0 PUSH2 0xAF5 PUSH1 0x33 SLOAD PUSH1 0x1 PUSH1 0x1 PUSH1 0xA0 SHL SUB AND SWAP1 JUMP JUMPDEST PUSH1 0x1 PUSH1 0x1 PUSH1 0xA0 SHL SUB AND PUSH4 0x8A71BB2D PUSH1 0x40 MLOAD DUP2 PUSH4 0xFFFFFFFF AND PUSH1 0xE0 SHL DUP2 MSTORE PUSH1 0x4 ADD PUSH1 0x20 PUSH1 0x40 MLOAD DUP1 DUP4 SUB DUP2 DUP7 GAS STATICCALL ISZERO DUP1 ISZERO PUSH2 0xB30 JUMPI RETURNDATASIZE PUSH0 PUSH0 RETURNDATACOPY RETURNDATASIZE PUSH0 REVERT JUMPDEST POP POP POP POP PUSH1 0x40 MLOAD RETURNDATASIZE PUSH1 0x1F NOT PUSH1 0x1F DUP3 ADD AND DUP3 ADD DUP1 PUSH1 0x40 MSTORE POP DUP2 ADD SWAP1 PUSH2 0xB54 SWAP2 SWAP1 PUSH2 0x4B04 JUMP JUMPDEST SWAP1 POP PUSH0 DUP2 GT DUP1 ISZERO PUSH2 0xB6D JUMPI POP PUSH1 0x1 PUSH1 0x1 PUSH1 0xA0 SHL SUB DUP4 AND ISZERO ISZERO JUMPDEST ISZERO PUSH2 0xB8C JUMPI PUSH2 0x2710 PUSH2 0xB7F DUP3 DUP7 PUSH2 0x4C30 JUMP JUMPDEST PUSH2 0xB89 SWAP2 SWAP1 PUSH2 0x4C47 JUMP JUMPDEST SWAP2 POP JUMPDEST POP SWAP3 POP SWAP3 SWAP1 POP JUMP JUMPDEST DUP2 PUSH2 0xB9E DUP2 PUSH2 0x5F2 JUMP JUMPDEST ISZERO PUSH2 0xC36 JUMPI PUSH1 0x33 SLOAD PUSH1 0x1 PUSH1 0x1 PUSH1 0xA0 SHL SUB AND PUSH1 0x40 MLOAD PUSH4 0x3B9589A9 PUSH1 0xE0 SHL DUP2 MSTORE PUSH1 0x1 PUSH1 0x1 PUSH1 0xA0 SHL SUB DUP4 DUP2 AND PUSH1 0x4 DUP4 ADD MSTORE SWAP2 SWAP1 SWAP2 AND SWAP1 PUSH4 0x3B9589A9 SWAP1 PUSH1 0x24 ADD PUSH1 0x20 PUSH1 0x40 MLOAD DUP1 DUP4 SUB DUP2 DUP7 GAS STATICCALL ISZERO DUP1 ISZERO PUSH2 0xBF5 JUMPI RETURNDATASIZE PUSH0 PUSH0 RETURNDATACOPY RETURNDATASIZE PUSH0 REVERT JUMPDEST POP POP POP POP PUSH1 0x40 MLOAD RETURNDATASIZE PUSH1 0x1F NOT PUSH1 0x1F DUP3 ADD AND DUP3 ADD DUP1 PUSH1 0x40 MSTORE POP DUP2 ADD SWAP1 PUSH2 0xC19 SWAP2 SWAP1 PUSH2 0x4C15 JUMP JUMPDEST PUSH2 0xC36 JUMPI PUSH1 0x40 MLOAD PUSH4 0x2FF3629F PUSH1 0xE2 SHL DUP2 MSTORE PUSH1 0x4 ADD PUSH1 0x40 MLOAD DUP1 SWAP2 SUB SWAP1 REVERT JUMPDEST PUSH2 0xA67 DUP5 DUP5 DUP5 PUSH2 0x21D7 JUMP JUMPDEST PUSH2 0xC4E PUSH1 0x80 DUP3 ADD DUP3 PUSH2 0x4C66 JUMP JUMPDEST SWAP1 POP PUSH2 0xC5D PUSH1 0xA0 DUP4 ADD DUP4 PUSH2 0x4C66 JUMP JUMPDEST SWAP1 POP DUP1 DUP3 EQ ISZERO DUP1 PUSH2 0xC6C JUMPI POP DUP2 ISZERO JUMPDEST DUP1 PUSH2 0xC75 JUMPI POP DUP1 ISZERO JUMPDEST ISZERO PUSH2 0xC93 JUMPI PUSH1 0x40 MLOAD PUSH4 0x251F56A1 PUSH1 0xE2 SHL DUP2 MSTORE PUSH1 0x4 ADD PUSH1 0x40 MLOAD DUP1 SWAP2 SUB SWAP1 REVERT JUMPDEST PUSH0 PUSH2 0xC9C PUSH2 0x21F1 JUMP JUMPDEST DUP1 SLOAD SWAP1 SWAP2 POP PUSH1 0xFF PUSH1 0x1 PUSH1 0x40 SHL DUP3 DIV AND ISZERO SWAP1 PUSH1 0x1 PUSH1 0x1 PUSH1 0x40 SHL SUB AND PUSH0 DUP2 ISZERO DUP1 ISZERO PUSH2 0xCC2 JUMPI POP DUP3 JUMPDEST SWAP1 POP PUSH0 DUP3 PUSH1 0x1 PUSH1 0x1 PUSH1 0x40 SHL SUB AND PUSH1 0x1 EQ DUP1 ISZERO PUSH2 0xCDD JUMPI POP ADDRESS EXTCODESIZE ISZERO JUMPDEST SWAP1 POP DUP2 ISZERO DUP1 ISZERO PUSH2 0xCEB JUMPI POP DUP1 ISZERO JUMPDEST ISZERO PUSH2 0xD09 JUMPI PUSH1 0x40 MLOAD PUSH4 0xF92EE8A9 PUSH1 0xE0 SHL DUP2 MSTORE PUSH1 0x4 ADD PUSH1 0x40 MLOAD DUP1 SWAP2 SUB SWAP1 REVERT JUMPDEST DUP5 SLOAD PUSH8 0xFFFFFFFFFFFFFFFF NOT AND PUSH1 0x1 OR DUP6 SSTORE DUP4 ISZERO PUSH2 0xD33 JUMPI DUP5 SLOAD PUSH1 0xFF PUSH1 0x40 SHL NOT AND PUSH1 0x1 PUSH1 0x40 SHL OR DUP6 SSTORE JUMPDEST PUSH2 0xDBA PUSH2 0xD40 DUP10 DUP1 PUSH2 0x4CAB JUMP JUMPDEST DUP1 DUP1 PUSH1 0x1F ADD PUSH1 0x20 DUP1 SWAP2 DIV MUL PUSH1 0x20 ADD PUSH1 0x40 MLOAD SWAP1 DUP2 ADD PUSH1 0x40 MSTORE DUP1 SWAP4 SWAP3 SWAP2 SWAP1 DUP2 DUP2 MSTORE PUSH1 0x20 ADD DUP4 DUP4 DUP1 DUP3 DUP5 CALLDATACOPY PUSH0 SWAP3 ADD SWAP2 SWAP1 SWAP2 MSTORE POP PUSH2 0xD81 SWAP3 POP POP POP PUSH1 0x20 DUP12 ADD DUP12 PUSH2 0x4CAB JUMP JUMPDEST DUP1 DUP1 PUSH1 0x1F ADD PUSH1 0x20 DUP1 SWAP2 DIV MUL PUSH1 0x20 ADD PUSH1 0x40 MLOAD SWAP1 DUP2 ADD PUSH1 0x40 MSTORE DUP1 SWAP4 SWAP3 SWAP2 SWAP1 DUP2 DUP2 MSTORE PUSH1 0x20 ADD DUP4 DUP4 DUP1 DUP3 DUP5 CALLDATACOPY PUSH0 SWAP3 ADD SWAP2 SWAP1 SWAP2 MSTORE POP PUSH2 0x2219 SWAP3 POP POP POP JUMP JUMPDEST PUSH2 0xDCA PUSH4 0x152A902D PUSH1 0xE1 SHL PUSH2 0x222B JUMP JUMPDEST PUSH2 0xDD2 PUSH2 0x227A JUMP JUMPDEST PUSH2 0xDE2 PUSH1 0x80 DUP10 ADD PUSH1 0x60 DUP11 ADD PUSH2 0x47A8 JUMP JUMPDEST PUSH1 0x33 DUP1 SLOAD PUSH1 0x1 PUSH1 0x1 PUSH1 0xA0 SHL SUB NOT AND PUSH1 0x1 PUSH1 0x1 PUSH1 0xA0 SHL SUB SWAP3 SWAP1 SWAP3 AND SWAP2 SWAP1 SWAP2 OR SWAP1 SSTORE PUSH2 0xE10 PUSH2 0x100 DUP10 ADD DUP10 PUSH2 0x4CAB JUMP JUMPDEST PUSH1 0x34 SWAP2 PUSH2 0xE1E SWAP2 SWAP1 DUP4 PUSH2 0x4D31 JUMP JUMPDEST POP PUSH2 0xEA3 PUSH2 0xE2F PUSH1 0x80 DUP11 ADD DUP11 PUSH2 0x4C66 JUMP JUMPDEST DUP1 DUP1 PUSH1 0x20 MUL PUSH1 0x20 ADD PUSH1 0x40 MLOAD SWAP1 DUP2 ADD PUSH1 0x40 MSTORE DUP1 SWAP4 SWAP3 SWAP2 SWAP1 DUP2 DUP2 MSTORE PUSH1 0x20 ADD DUP4 DUP4 PUSH1 0x20 MUL DUP1 DUP3 DUP5 CALLDATACOPY PUSH0 SWAP3 ADD SWAP2 SWAP1 SWAP2 MSTORE POP PUSH2 0xE6D SWAP3 POP POP POP PUSH1 0xA0 DUP12 ADD DUP12 PUSH2 0x4C66 JUMP JUMPDEST DUP1 DUP1 PUSH1 0x20 MUL PUSH1 0x20 ADD PUSH1 0x40 MLOAD SWAP1 DUP2 ADD PUSH1 0x40 MSTORE DUP1 SWAP4 SWAP3 SWAP2 SWAP1 DUP2 DUP2 MSTORE PUSH1 0x20 ADD DUP4 DUP4 PUSH1 0x20 MUL DUP1 DUP3 DUP5 CALLDATACOPY PUSH0 SWAP3 ADD SWAP2 SWAP1 SWAP2 MSTORE POP PUSH2 0x228C SWAP3 POP POP POP JUMP JUMPDEST PUSH2 0xEB3 PUSH1 0xE0 DUP10 ADD PUSH1 0xC0 DUP11 ADD PUSH2 0x47A8 JUMP JUMPDEST PUSH1 0x32 DUP1 SLOAD PUSH1 0x1 PUSH1 0x1 PUSH1 0xA0 SHL SUB NOT AND PUSH1 0x1 PUSH1 0x1 PUSH1 0xA0 SHL SUB SWAP3 SWAP1 SWAP3 AND SWAP2 SWAP1 SWAP2 OR SWAP1 SSTORE PUSH2 0xEE0 PUSH1 0x80 DUP10 ADD DUP10 PUSH2 0x4C66 JUMP JUMPDEST PUSH2 0xEEC SWAP2 PUSH1 0x37 SWAP2 PUSH2 0x44E8 JUMP JUMPDEST POP PUSH2 0xEFA PUSH1 0xA0 DUP10 ADD DUP10 PUSH2 0x4C66 JUMP JUMPDEST PUSH2 0xF06 SWAP2 PUSH1 0x38 SWAP2 PUSH2 0x4549 JUMP JUMPDEST POP PUSH2 0xF15 PUSH2 0x120 DUP10 ADD DUP10 PUSH2 0x4CAB JUMP JUMPDEST PUSH1 0x35 SWAP2 PUSH2 0xF23 SWAP2 SWAP1 DUP4 PUSH2 0x4D31 JUMP JUMPDEST POP PUSH2 0xF3D PUSH2 0xF37 PUSH1 0x60 DUP11 ADD PUSH1 0x40 DUP12 ADD PUSH2 0x47A8 JUMP JUMPDEST PUSH0 PUSH2 0x25A8 JUMP JUMPDEST PUSH2 0xF87 PUSH0 PUSH2 0xF4E PUSH1 0xE0 DUP12 ADD DUP12 PUSH2 0x4CAB JUMP JUMPDEST DUP1 DUP1 PUSH1 0x1F ADD PUSH1 0x20 DUP1 SWAP2 DIV MUL PUSH1 0x20 ADD PUSH1 0x40 MLOAD SWAP1 DUP2 ADD PUSH1 0x40 MSTORE DUP1 SWAP4 SWAP3 SWAP2 SWAP1 DUP2 DUP2 MSTORE PUSH1 0x20 ADD DUP4 DUP4 DUP1 DUP3 DUP5 CALLDATACOPY PUSH0 SWAP3 ADD SWAP2 SWAP1 SWAP2 MSTORE POP PUSH2 0x25C1 SWAP3 POP POP POP JUMP JUMPDEST DUP4 ISZERO PUSH2 0xFCD JUMPI DUP5 SLOAD PUSH1 0xFF PUSH1 0x40 SHL NOT AND DUP6 SSTORE PUSH1 0x40 MLOAD PUSH1 0x1 DUP2 MSTORE PUSH32 0xC7F505B2F371AE2175EE4913F4499E1F2633A7B5936321EED1CDAEB6115181D2 SWAP1 PUSH1 0x20 ADD PUSH1 0x40 MLOAD DUP1 SWAP2 SUB SWAP1 LOG1 JUMPDEST POP POP POP POP POP POP POP POP JUMP JUMPDEST CALLER PUSH2 0xFE0 PUSH2 0x1594 JUMP JUMPDEST PUSH1 0x1 PUSH1 0x1 PUSH1 0xA0 SHL SUB AND EQ PUSH2 0x1007 JUMPI PUSH1 0x40 MLOAD PUSH4 0x49E27CFF PUSH1 0xE0 SHL DUP2 MSTORE PUSH1 0x4 ADD PUSH1 0x40 MLOAD DUP1 SWAP2 SUB SWAP1 REVERT JUMPDEST DUP2 ISZERO DUP1 PUSH2 0x1016 JUMPI POP PUSH2 0x1388 DUP3 LT ISZERO JUMPDEST ISZERO PUSH2 0x1046 JUMPI PUSH1 0x40 MLOAD PUSH4 0x1818D2A7 PUSH1 0xE3 SHL DUP2 MSTORE PUSH1 0x4 DUP2 ADD DUP4 SWAP1 MSTORE PUSH1 0x1 PUSH1 0x24 DUP3 ADD MSTORE PUSH2 0x1387 PUSH1 0x44 DUP3 ADD MSTORE PUSH1 0x64 ADD PUSH2 0x207 JUMP JUMPDEST PUSH0 PUSH2 0x1059 PUSH1 0x33 SLOAD PUSH1 0x1 PUSH1 0x1 PUSH1 0xA0 SHL SUB AND SWAP1 JUMP JUMPDEST SWAP1 POP PUSH1 0x32 PUSH0 SWAP1 SLOAD SWAP1 PUSH2 0x100 EXP SWAP1 DIV PUSH1 0x1 PUSH1 0x1 PUSH1 0xA0 SHL SUB AND PUSH1 0x1 PUSH1 0x1 PUSH1 0xA0 SHL SUB AND PUSH4 0xB4B93C8C PUSH1 0x40 MLOAD DUP2 PUSH4 0xFFFFFFFF AND PUSH1 0xE0 SHL DUP2 MSTORE PUSH1 0x4 ADD PUSH0 PUSH1 0x40 MLOAD DUP1 DUP4 SUB DUP2 PUSH0 DUP8 DUP1 EXTCODESIZE ISZERO DUP1 ISZERO PUSH2 0x10A7 JUMPI PUSH0 PUSH0 REVERT JUMPDEST POP GAS CALL ISZERO DUP1 ISZERO PUSH2 0x10B9 JUMPI RETURNDATASIZE PUSH0 PUSH0 RETURNDATACOPY RETURNDATASIZE PUSH0 REVERT JUMPDEST POP POP PUSH1 0x32 SLOAD PUSH1 0x40 MLOAD PUSH4 0xA9059CBB PUSH1 0xE0 SHL DUP2 MSTORE PUSH1 0x1 PUSH1 0x1 PUSH1 0xA0 SHL SUB SWAP1 SWAP2 AND PUSH1 0x4 DUP3 ADD DUP2 SWAP1 MSTORE PUSH1 0x24 DUP3 ADD DUP9 SWAP1 MSTORE SWAP3 POP PUSH4 0xA9059CBB SWAP2 POP PUSH1 0x44 ADD PUSH1 0x20 PUSH1 0x40 MLOAD DUP1 DUP4 SUB DUP2 PUSH0 DUP8 GAS CALL ISZERO DUP1 ISZERO PUSH2 0x110C JUMPI RETURNDATASIZE PUSH0 PUSH0 RETURNDATACOPY RETURNDATASIZE PUSH0 REVERT JUMPDEST POP POP POP POP PUSH1 0x40 MLOAD RETURNDATASIZE PUSH1 0x1F NOT PUSH1 0x1F DUP3 ADD AND DUP3 ADD DUP1 PUSH1 0x40 MSTORE POP DUP2 ADD SWAP1 PUSH2 0x1130 SWAP2 SWAP1 PUSH2 0x4C15 JUMP JUMPDEST POP PUSH1 0x32 SLOAD PUSH1 0x40 MLOAD PUSH4 0x226BF2D1 PUSH1 0xE2 SHL DUP2 MSTORE ADDRESS PUSH1 0x4 DUP3 ADD MSTORE PUSH0 SWAP2 PUSH1 0x1 PUSH1 0x1 PUSH1 0xA0 SHL SUB AND SWAP1 PUSH4 0x89AFCB44 SWAP1 PUSH1 0x24 ADD PUSH0 PUSH1 0x40 MLOAD DUP1 DUP4 SUB DUP2 PUSH0 DUP8 GAS CALL ISZERO DUP1 ISZERO PUSH2 0x1177 JUMPI RETURNDATASIZE PUSH0 PUSH0 RETURNDATACOPY RETURNDATASIZE PUSH0 REVERT JUMPDEST POP POP POP POP PUSH1 0x40 MLOAD RETURNDATASIZE PUSH0 DUP3 RETURNDATACOPY PUSH1 0x1F RETURNDATASIZE SWAP1 DUP2 ADD PUSH1 0x1F NOT AND DUP3 ADD PUSH1 0x40 MSTORE PUSH2 0x119E SWAP2 SWAP1 DUP2 ADD SWAP1 PUSH2 0x4DEA JUMP JUMPDEST SWAP1 POP PUSH0 PUSH2 0x11B5 DUP4 DUP4 PUSH2 0x11AE PUSH2 0x1594 JUMP JUMPDEST DUP9 DUP9 PUSH2 0x2633 JUMP JUMPDEST SWAP1 POP PUSH2 0x11BF PUSH2 0x1594 JUMP JUMPDEST PUSH1 0x1 PUSH1 0x1 PUSH1 0xA0 SHL SUB AND ADDRESS PUSH1 0x1 PUSH1 0x1 PUSH1 0xA0 SHL SUB AND PUSH32 0x2EE827557318E24AD8FDB9F616BBFD73B44656EA23439623780D719C369F0C1D DUP9 DUP5 PUSH1 0x40 MLOAD PUSH2 0x120C SWAP3 SWAP2 SWAP1 SWAP2 DUP3 MSTORE PUSH1 0x20 DUP3 ADD MSTORE PUSH1 0x40 ADD SWAP1 JUMP JUMPDEST PUSH1 0x40 MLOAD DUP1 SWAP2 SUB SWAP1 LOG3 POP POP POP POP POP POP JUMP JUMPDEST PUSH0 PUSH2 0x601 DUP3 PUSH2 0x20D9 JUMP JUMPDEST PUSH0 PUSH0 MLOAD PUSH1 0x20 PUSH2 0x525D PUSH0 CODECOPY PUSH0 MLOAD SWAP1 PUSH0 MSTORE PUSH1 0x1 PUSH1 0x1 PUSH1 0xA0 SHL SUB DUP4 AND PUSH2 0x125E JUMPI PUSH1 0x40 MLOAD PUSH4 0x22718AD9 PUSH1 0xE2 SHL DUP2 MSTORE PUSH0 PUSH1 0x4 DUP3 ADD MSTORE PUSH1 0x24 ADD PUSH2 0x207 JUMP JUMPDEST PUSH1 0x1 PUSH1 0x1 PUSH1 0xA0 SHL SUB SWAP1 SWAP3 AND PUSH0 SWAP1 DUP2 MSTORE PUSH1 0x3 SWAP1 SWAP3 ADD PUSH1 0x20 MSTORE POP PUSH1 0x40 SWAP1 KECCAK256 SLOAD SWAP1 JUMP JUMPDEST PUSH1 0x35 DUP1 SLOAD PUSH2 0x128B SWAP1 PUSH2 0x4A9D JUMP JUMPDEST DUP1 PUSH1 0x1F ADD PUSH1 0x20 DUP1 SWAP2 DIV MUL PUSH1 0x20 ADD PUSH1 0x40 MLOAD SWAP1 DUP2 ADD PUSH1 0x40 MSTORE DUP1 SWAP3 SWAP2 SWAP1 DUP2 DUP2 MSTORE PUSH1 0x20 ADD DUP3 DUP1 SLOAD PUSH2 0x12B7 SWAP1 PUSH2 0x4A9D JUMP JUMPDEST DUP1 ISZERO PUSH2 0x1302 JUMPI DUP1 PUSH1 0x1F LT PUSH2 0x12D9 JUMPI PUSH2 0x100 DUP1 DUP4 SLOAD DIV MUL DUP4 MSTORE SWAP2 PUSH1 0x20 ADD SWAP2 PUSH2 0x1302 JUMP JUMPDEST DUP3 ADD SWAP2 SWAP1 PUSH0 MSTORE PUSH1 0x20 PUSH0 KECCAK256 SWAP1 JUMPDEST DUP2 SLOAD DUP2 MSTORE SWAP1 PUSH1 0x1 ADD SWAP1 PUSH1 0x20 ADD DUP1 DUP4 GT PUSH2 0x12E5 JUMPI DUP3 SWAP1 SUB PUSH1 0x1F AND DUP3 ADD SWAP2 JUMPDEST POP POP POP POP POP DUP2 JUMP JUMPDEST PUSH2 0x1312 PUSH2 0x2945 JUMP JUMPDEST DUP3 PUSH0 PUSH2 0x1326 PUSH1 0x33 SLOAD PUSH1 0x1 PUSH1 0x1 PUSH1 0xA0 SHL SUB AND SWAP1 JUMP JUMPDEST PUSH1 0x1 PUSH1 0x1 PUSH1 0xA0 SHL SUB AND PUSH4 0x6DBD5D2A PUSH1 0x40 MLOAD DUP2 PUSH4 0xFFFFFFFF AND PUSH1 0xE0 SHL DUP2 MSTORE PUSH1 0x4 ADD PUSH1 0x20 PUSH1 0x40 MLOAD DUP1 DUP4 SUB DUP2 DUP7 GAS STATICCALL ISZERO DUP1 ISZERO PUSH2 0x1361 JUMPI RETURNDATASIZE PUSH0 PUSH0 RETURNDATACOPY RETURNDATASIZE PUSH0 REVERT JUMPDEST POP POP POP POP PUSH1 0x40 MLOAD RETURNDATASIZE PUSH1 0x1F NOT PUSH1 0x1F DUP3 ADD AND DUP3 ADD DUP1 PUSH1 0x40 MSTORE POP DUP2 ADD SWAP1 PUSH2 0x1385 SWAP2 SWAP1 PUSH2 0x4B04 JUMP JUMPDEST SWAP1 POP DUP1 DUP3 LT ISZERO PUSH2 0x13A8 JUMPI PUSH1 0x40 MLOAD PUSH4 0x9ABC7491 PUSH1 0xE0 SHL DUP2 MSTORE PUSH1 0x4 ADD PUSH1 0x40 MLOAD DUP1 SWAP2 SUB SWAP1 REVERT JUMPDEST DUP4 ISZERO DUP1 PUSH2 0x13B7 JUMPI POP PUSH2 0x1388 DUP5 LT ISZERO JUMPDEST ISZERO PUSH2 0x13E7 JUMPI PUSH1 0x40 MLOAD PUSH4 0x1818D2A7 PUSH1 0xE3 SHL DUP2 MSTORE PUSH1 0x4 DUP2 ADD DUP6 SWAP1 MSTORE PUSH1 0x1 PUSH1 0x24 DUP3 ADD MSTORE PUSH2 0x1387 PUSH1 0x44 DUP3 ADD MSTORE PUSH1 0x64 ADD PUSH2 0x207 JUMP JUMPDEST PUSH0 PUSH2 0x13FA PUSH1 0x33 SLOAD PUSH1 0x1 PUSH1 0x1 PUSH1 0xA0 SHL SUB AND SWAP1 JUMP JUMPDEST SWAP1 POP PUSH0 PUSH0 DUP3 PUSH1 0x1 PUSH1 0x1 PUSH1 0xA0 SHL SUB AND PUSH4 0xC4E994A0 PUSH1 0x40 MLOAD DUP2 PUSH4 0xFFFFFFFF AND PUSH1 0xE0 SHL DUP2 MSTORE PUSH1 0x4 ADD PUSH1 0x80 PUSH1 0x40 MLOAD DUP1 DUP4 SUB DUP2 DUP7 GAS STATICCALL ISZERO DUP1 ISZERO PUSH2 0x143A JUMPI RETURNDATASIZE PUSH0 PUSH0 RETURNDATACOPY RETURNDATASIZE PUSH0 REVERT JUMPDEST POP POP POP POP PUSH1 0x40 MLOAD RETURNDATASIZE PUSH1 0x1F NOT PUSH1 0x1F DUP3 ADD AND DUP3 ADD DUP1 PUSH1 0x40 MSTORE POP DUP2 ADD SWAP1 PUSH2 0x145E SWAP2 SWAP1 PUSH2 0x4E86 JUMP JUMPDEST PUSH2 0xFFFF SWAP2 SWAP1 SWAP2 AND SWAP5 POP SWAP3 POP PUSH0 SWAP2 POP DUP10 SWAP1 POP DUP2 DUP5 ISZERO PUSH2 0x1528 JUMPI PUSH2 0x2710 PUSH2 0x1483 DUP7 DUP14 PUSH2 0x4C30 JUMP JUMPDEST PUSH2 0x148D SWAP2 SWAP1 PUSH2 0x4C47 JUMP JUMPDEST SWAP3 POP PUSH2 0x1499 DUP4 DUP13 PUSH2 0x4ED9 JUMP JUMPDEST SWAP2 POP PUSH0 PUSH2 0x14A6 DUP5 ADDRESS PUSH2 0x299C JUMP JUMPDEST SWAP1 POP PUSH2 0x14B5 DUP8 DUP3 DUP8 DUP15 DUP15 PUSH2 0x2633 JUMP JUMPDEST SWAP2 POP DUP5 PUSH1 0x1 PUSH1 0x1 PUSH1 0xA0 SHL SUB AND PUSH32 0x72CD57B8DE25C52A120A25DE816C33EF7193FF5985D2106CF9D4269EDC0B7055 DUP4 DUP9 PUSH1 0x40 MLOAD PUSH2 0x151E SWAP3 SWAP2 SWAP1 SWAP2 DUP3 MSTORE PUSH1 0x20 DUP3 ADD MSTORE PUSH1 0x60 PUSH1 0x40 DUP3 ADD DUP2 SWAP1 MSTORE PUSH1 0xB SWAP1 DUP3 ADD MSTORE PUSH11 0xEED2E8D0C8E4C2EE8AA89 PUSH1 0xAB SHL PUSH1 0x80 DUP3 ADD MSTORE PUSH1 0xA0 ADD SWAP1 JUMP JUMPDEST PUSH1 0x40 MLOAD DUP1 SWAP2 SUB SWAP1 LOG2 POP JUMPDEST PUSH0 PUSH2 0x1533 DUP4 ADDRESS PUSH2 0x299C JUMP JUMPDEST SWAP1 POP PUSH0 PUSH2 0x1543 DUP9 DUP4 CALLER DUP16 DUP16 PUSH2 0x2633 JUMP JUMPDEST PUSH1 0x40 DUP1 MLOAD ADDRESS DUP2 MSTORE PUSH1 0x20 DUP2 ADD DUP4 SWAP1 MSTORE SWAP2 SWAP3 POP CALLER SWAP2 PUSH32 0xC12EF08928E6F622169F25057ED91BF3461F4E675260BD1E51944F5D08DD611D SWAP2 ADD PUSH1 0x40 MLOAD DUP1 SWAP2 SUB SWAP1 LOG2 POP POP POP POP POP POP POP POP POP POP PUSH2 0x9B5 PUSH1 0x1 PUSH0 SSTORE JUMP JUMPDEST PUSH0 PUSH2 0x159E PUSH0 PUSH2 0x121C JUMP JUMPDEST SWAP1 POP SWAP1 JUMP JUMPDEST PUSH2 0x15AB PUSH2 0x2945 JUMP JUMPDEST DUP2 ISZERO DUP1 PUSH2 0x15BA JUMPI POP PUSH2 0x1388 DUP3 LT ISZERO JUMPDEST ISZERO PUSH2 0x15EA JUMPI PUSH1 0x40 MLOAD PUSH4 0x1818D2A7 PUSH1 0xE3 SHL DUP2 MSTORE PUSH1 0x4 DUP2 ADD DUP4 SWAP1 MSTORE PUSH1 0x1 PUSH1 0x24 DUP3 ADD MSTORE PUSH2 0x1387 PUSH1 0x44 DUP3 ADD MSTORE PUSH1 0x64 ADD PUSH2 0x207 JUMP JUMPDEST CALLVALUE PUSH0 SUB PUSH2 0x160A JUMPI PUSH1 0x40 MLOAD PUSH4 0x28D07CEF PUSH1 0xE1 SHL DUP2 MSTORE PUSH1 0x4 ADD PUSH1 0x40 MLOAD DUP1 SWAP2 SUB SWAP1 REVERT JUMPDEST TIMESTAMP DUP2 GT PUSH2 0x162D JUMPI PUSH1 0x40 MLOAD PUSH4 0x18DB49C5 PUSH1 0xE2 SHL DUP2 MSTORE PUSH1 0x4 DUP2 ADD DUP3 SWAP1 MSTORE PUSH1 0x24 ADD PUSH2 0x207 JUMP JUMPDEST PUSH0 PUSH2 0x1640 PUSH1 0x33 SLOAD PUSH1 0x1 PUSH1 0x1 PUSH1 0xA0 SHL SUB AND SWAP1 JUMP JUMPDEST SWAP1 POP PUSH0 PUSH0 DUP3 PUSH1 0x1 PUSH1 0x1 PUSH1 0xA0 SHL SUB AND PUSH4 0xC4E994A0 PUSH1 0x40 MLOAD DUP2 PUSH4 0xFFFFFFFF AND PUSH1 0xE0 SHL DUP2 MSTORE PUSH1 0x4 ADD PUSH1 0x80 PUSH1 0x40 MLOAD DUP1 DUP4 SUB DUP2 DUP7 GAS STATICCALL ISZERO DUP1 ISZERO PUSH2 0x1680 JUMPI RETURNDATASIZE PUSH0 PUSH0 RETURNDATACOPY RETURNDATASIZE PUSH0 REVERT JUMPDEST POP POP POP POP PUSH1 0x40 MLOAD RETURNDATASIZE PUSH1 0x1F NOT PUSH1 0x1F DUP3 ADD AND DUP3 ADD DUP1 PUSH1 0x40 MSTORE POP DUP2 ADD SWAP1 PUSH2 0x16A4 SWAP2 SWAP1 PUSH2 0x4E86 JUMP JUMPDEST SWAP4 POP POP PUSH2 0xFFFF AND SWAP3 POP POP PUSH0 PUSH2 0x16BA CALLVALUE DUP5 DUP5 PUSH2 0x2AB4 JUMP JUMPDEST SWAP2 POP POP PUSH0 PUSH2 0x16CA DUP6 DUP4 DUP10 DUP10 PUSH2 0x2C02 JUMP JUMPDEST PUSH1 0x32 SLOAD PUSH1 0x40 MLOAD PUSH4 0xDE836EBD PUSH1 0xE0 SHL DUP2 MSTORE SWAP2 SWAP3 POP PUSH1 0x1 PUSH1 0x1 PUSH1 0xA0 SHL SUB AND SWAP1 PUSH4 0xDE836EBD SWAP1 PUSH2 0x16FD SWAP1 CALLER SWAP1 DUP6 SWAP1 PUSH1 0x4 ADD PUSH2 0x4EEC JUMP JUMPDEST PUSH1 0x20 PUSH1 0x40 MLOAD DUP1 DUP4 SUB DUP2 PUSH0 DUP8 GAS CALL ISZERO DUP1 ISZERO PUSH2 0x1719 JUMPI RETURNDATASIZE PUSH0 PUSH0 RETURNDATACOPY RETURNDATASIZE PUSH0 REVERT JUMPDEST POP POP POP POP PUSH1 0x40 MLOAD RETURNDATASIZE PUSH1 0x1F NOT PUSH1 0x1F DUP3 ADD AND DUP3 ADD DUP1 PUSH1 0x40 MSTORE POP DUP2 ADD SWAP1 PUSH2 0x173D SWAP2 SWAP1 PUSH2 0x4B04 JUMP JUMPDEST POP PUSH1 0x40 DUP1 MLOAD ADDRESS DUP2 MSTORE CALLVALUE PUSH1 0x20 DUP3 ADD MSTORE CALLER SWAP2 PUSH32 0xB5E4876510A0189F92792685C610D37D563CD514D5789982152F48F0CEF46451 SWAP2 ADD PUSH1 0x40 MLOAD DUP1 SWAP2 SUB SWAP1 LOG2 POP POP POP POP POP PUSH2 0x1786 PUSH1 0x1 PUSH0 SSTORE JUMP JUMPDEST POP POP JUMP JUMPDEST PUSH32 0x80BB2B638CC20BC4D0A60D66940F3AB4A00C1D7B313497CA82FB0B4AB0079301 DUP1 SLOAD PUSH1 0x60 SWAP2 PUSH0 MLOAD PUSH1 0x20 PUSH2 0x525D PUSH0 CODECOPY PUSH0 MLOAD SWAP1 PUSH0 MSTORE SWAP2 PUSH2 0x655 SWAP1 PUSH2 0x4A9D JUMP JUMPDEST CALLER PUSH2 0x17D1 PUSH2 0x1594 JUMP JUMPDEST PUSH1 0x1 PUSH1 0x1 PUSH1 0xA0 SHL SUB AND EQ PUSH2 0x17F8 JUMPI PUSH1 0x40 MLOAD PUSH4 0x49E27CFF PUSH1 0xE0 SHL DUP2 MSTORE PUSH1 0x4 ADD PUSH1 0x40 MLOAD DUP1 SWAP2 SUB SWAP1 REVERT JUMPDEST DUP2 ISZERO DUP1 PUSH2 0x1807 JUMPI POP PUSH2 0x1388 DUP3 LT ISZERO JUMPDEST ISZERO PUSH2 0x1837 JUMPI PUSH1 0x40 MLOAD PUSH4 0x1818D2A7 PUSH1 0xE3 SHL DUP2 MSTORE PUSH1 0x4 DUP2 ADD DUP4 SWAP1 MSTORE PUSH1 0x1 PUSH1 0x24 DUP3 ADD MSTORE PUSH2 0x1387 PUSH1 0x44 DUP3 ADD MSTORE PUSH1 0x64 ADD PUSH2 0x207 JUMP JUMPDEST PUSH2 0x18A5 DUP7 DUP7 DUP1 DUP1 PUSH1 0x20 MUL PUSH1 0x20 ADD PUSH1 0x40 MLOAD SWAP1 DUP2 ADD PUSH1 0x40 MSTORE DUP1 SWAP4 SWAP3 SWAP2 SWAP1 DUP2 DUP2 MSTORE PUSH1 0x20 ADD DUP4 DUP4 PUSH1 0x20 MUL DUP1 DUP3 DUP5 CALLDATACOPY PUSH0 SWAP3 ADD SWAP2 SWAP1 SWAP2 MSTORE POP POP PUSH1 0x40 DUP1 MLOAD PUSH1 0x20 DUP1 DUP11 MUL DUP3 DUP2 ADD DUP3 ADD SWAP1 SWAP4 MSTORE DUP10 DUP3 MSTORE SWAP1 SWAP4 POP DUP10 SWAP3 POP DUP9 SWAP2 DUP3 SWAP2 DUP6 ADD SWAP1 DUP5 SWAP1 DUP1 DUP3 DUP5 CALLDATACOPY PUSH0 SWAP3 ADD DUP3 SWAP1 MSTORE POP DUP9 SWAP4 POP SWAP2 POP DUP7 SWAP1 POP PUSH2 0x2CC1 JUMP JUMPDEST POP POP POP POP POP POP JUMP JUMPDEST DUP1 ISZERO PUSH2 0x1959 JUMPI PUSH2 0x18BC DUP3 PUSH2 0x5F2 JUMP JUMPDEST DUP1 ISZERO PUSH2 0x193B JUMPI POP PUSH1 0x33 SLOAD PUSH1 0x1 PUSH1 0x1 PUSH1 0xA0 SHL SUB AND PUSH1 0x40 MLOAD PUSH4 0x3B9589A9 PUSH1 0xE0 SHL DUP2 MSTORE PUSH1 0x1 PUSH1 0x1 PUSH1 0xA0 SHL SUB DUP5 DUP2 AND PUSH1 0x4 DUP4 ADD MSTORE SWAP2 SWAP1 SWAP2 AND SWAP1 PUSH4 0x3B9589A9 SWAP1 PUSH1 0x24 ADD PUSH1 0x20 PUSH1 0x40 MLOAD DUP1 DUP4 SUB DUP2 DUP7 GAS STATICCALL ISZERO DUP1 ISZERO PUSH2 0x1915 JUMPI RETURNDATASIZE PUSH0 PUSH0 RETURNDATACOPY RETURNDATASIZE PUSH0 REVERT JUMPDEST POP POP POP POP PUSH1 0x40 MLOAD RETURNDATASIZE PUSH1 0x1F NOT PUSH1 0x1F DUP3 ADD AND DUP3 ADD DUP1 PUSH1 0x40 MSTORE POP DUP2 ADD SWAP1 PUSH2 0x1939 SWAP2 SWAP1 PUSH2 0x4C15 JUMP JUMPDEST ISZERO JUMPDEST ISZERO PUSH2 0x1959 JUMPI PUSH1 0x40 MLOAD PUSH4 0x2FF3629F PUSH1 0xE2 SHL DUP2 MSTORE PUSH1 0x4 ADD PUSH1 0x40 MLOAD DUP1 SWAP2 SUB SWAP1 REVERT JUMPDEST PUSH2 0x1786 DUP3 DUP3 PUSH2 0x2F51 JUMP JUMPDEST PUSH2 0x196B PUSH2 0x2945 JUMP JUMPDEST DUP3 PUSH0 PUSH2 0x197F PUSH1 0x33 SLOAD PUSH1 0x1 PUSH1 0x1 PUSH1 0xA0 SHL SUB AND SWAP1 JUMP JUMPDEST PUSH1 0x1 PUSH1 0x1 PUSH1 0xA0 SHL SUB AND PUSH4 0x6DBD5D2A PUSH1 0x40 MLOAD DUP2 PUSH4 0xFFFFFFFF AND PUSH1 0xE0 SHL DUP2 MSTORE PUSH1 0x4 ADD PUSH1 0x20 PUSH1 0x40 MLOAD DUP1 DUP4 SUB DUP2 DUP7 GAS STATICCALL ISZERO DUP1 ISZERO PUSH2 0x19BA JUMPI RETURNDATASIZE PUSH0 PUSH0 RETURNDATACOPY RETURNDATASIZE PUSH0 REVERT JUMPDEST POP POP POP POP PUSH1 0x40 MLOAD RETURNDATASIZE PUSH1 0x1F NOT PUSH1 0x1F DUP3 ADD AND DUP3 ADD DUP1 PUSH1 0x40 MSTORE POP DUP2 ADD SWAP1 PUSH2 0x19DE SWAP2 SWAP1 PUSH2 0x4B04 JUMP JUMPDEST SWAP1 POP DUP1 DUP3 LT ISZERO PUSH2 0x1A01 JUMPI PUSH1 0x40 MLOAD PUSH4 0x9ABC7491 PUSH1 0xE0 SHL DUP2 MSTORE PUSH1 0x4 ADD PUSH1 0x40 MLOAD DUP1 SWAP2 SUB SWAP1 REVERT JUMPDEST DUP4 ISZERO DUP1 PUSH2 0x1A10 JUMPI POP PUSH2 0x1388 DUP5 LT ISZERO JUMPDEST ISZERO PUSH2 0x1A40 JUMPI PUSH1 0x40 MLOAD PUSH4 0x1818D2A7 PUSH1 0xE3 SHL DUP2 MSTORE PUSH1 0x4 DUP2 ADD DUP6 SWAP1 MSTORE PUSH1 0x1 PUSH1 0x24 DUP3 ADD MSTORE PUSH2 0x1387 PUSH1 0x44 DUP3 ADD MSTORE PUSH1 0x64 ADD PUSH2 0x207 JUMP JUMPDEST PUSH0 PUSH2 0x1A53 PUSH1 0x33 SLOAD PUSH1 0x1 PUSH1 0x1 PUSH1 0xA0 SHL SUB AND SWAP1 JUMP JUMPDEST SWAP1 POP PUSH0 PUSH0 DUP3 PUSH1 0x1 PUSH1 0x1 PUSH1 0xA0 SHL SUB AND PUSH4 0xC4E994A0 PUSH1 0x40 MLOAD DUP2 PUSH4 0xFFFFFFFF AND PUSH1 0xE0 SHL DUP2 MSTORE PUSH1 0x4 ADD PUSH1 0x80 PUSH1 0x40 MLOAD DUP1 DUP4 SUB DUP2 DUP7 GAS STATICCALL ISZERO DUP1 ISZERO PUSH2 0x1A93 JUMPI RETURNDATASIZE PUSH0 PUSH0 RETURNDATACOPY RETURNDATASIZE PUSH0 REVERT JUMPDEST POP POP POP POP PUSH1 0x40 MLOAD RETURNDATASIZE PUSH1 0x1F NOT PUSH1 0x1F DUP3 ADD AND DUP3 ADD DUP1 PUSH1 0x40 MSTORE POP DUP2 ADD SWAP1 PUSH2 0x1AB7 SWAP2 SWAP1 PUSH2 0x4E86 JUMP JUMPDEST PUSH2 0xFFFF SWAP2 SWAP1 SWAP2 AND SWAP5 POP SWAP3 POP PUSH0 SWAP2 POP POP DUP3 ISZERO PUSH2 0x1B77 JUMPI PUSH2 0x2710 PUSH2 0x1AD9 DUP5 DUP12 PUSH2 0x4C30 JUMP JUMPDEST PUSH2 0x1AE3 SWAP2 SWAP1 PUSH2 0x4C47 JUMP JUMPDEST SWAP1 POP PUSH0 PUSH2 0x1AF0 DUP3 ADDRESS PUSH2 0x299C JUMP JUMPDEST SWAP1 POP PUSH0 PUSH2 0x1B00 DUP7 DUP4 DUP7 DUP14 DUP14 PUSH2 0x2633 JUMP JUMPDEST SWAP1 POP DUP4 PUSH1 0x1 PUSH1 0x1 PUSH1 0xA0 SHL SUB AND PUSH32 0x72CD57B8DE25C52A120A25DE816C33EF7193FF5985D2106CF9D4269EDC0B7055 DUP3 DUP8 PUSH1 0x40 MLOAD PUSH2 0x1B6C SWAP3 SWAP2 SWAP1 SWAP2 DUP3 MSTORE PUSH1 0x20 DUP3 ADD MSTORE PUSH1 0x60 PUSH1 0x40 DUP3 ADD DUP2 SWAP1 MSTORE PUSH1 0xE SWAP1 DUP3 ADD MSTORE PUSH14 0x7769746864726177546F6B656E73 PUSH1 0x90 SHL PUSH1 0x80 DUP3 ADD MSTORE PUSH1 0xA0 ADD SWAP1 JUMP JUMPDEST PUSH1 0x40 MLOAD DUP1 SWAP2 SUB SWAP1 LOG2 POP POP JUMPDEST PUSH0 PUSH2 0x1B82 DUP3 DUP12 PUSH2 0x4ED9 JUMP JUMPDEST SWAP1 POP PUSH0 PUSH2 0x1B8F DUP3 CALLER PUSH2 0x299C JUMP JUMPDEST PUSH1 0x40 MLOAD SWAP1 SWAP2 POP CALLER SWAP1 PUSH32 0xA5ADB08498508BA672168A2404308BF2B0C19A2E91B553309AC80F47A222FDD6 SWAP1 PUSH2 0x1BC9 SWAP1 ADDRESS SWAP1 PUSH1 0x37 SWAP1 DUP7 SWAP1 PUSH2 0x4F4B JUMP JUMPDEST PUSH1 0x40 MLOAD DUP1 SWAP2 SUB SWAP1 LOG2 POP POP POP POP POP POP POP POP PUSH2 0x9B5 PUSH1 0x1 PUSH0 SSTORE JUMP JUMPDEST PUSH1 0x34 DUP1 SLOAD PUSH2 0x128B SWAP1 PUSH2 0x4A9D JUMP JUMPDEST DUP3 PUSH2 0x1BF9 DUP2 PUSH2 0x5F2 JUMP JUMPDEST ISZERO PUSH2 0x1C91 JUMPI PUSH1 0x33 SLOAD PUSH1 0x1 PUSH1 0x1 PUSH1 0xA0 SHL SUB AND PUSH1 0x40 MLOAD PUSH4 0x3B9589A9 PUSH1 0xE0 SHL DUP2 MSTORE PUSH1 0x1 PUSH1 0x1 PUSH1 0xA0 SHL SUB DUP4 DUP2 AND PUSH1 0x4 DUP4 ADD MSTORE SWAP2 SWAP1 SWAP2 AND SWAP1 PUSH4 0x3B9589A9 SWAP1 PUSH1 0x24 ADD PUSH1 0x20 PUSH1 0x40 MLOAD DUP1 DUP4 SUB DUP2 DUP7 GAS STATICCALL ISZERO DUP1 ISZERO PUSH2 0x1C50 JUMPI RETURNDATASIZE PUSH0 PUSH0 RETURNDATACOPY RETURNDATASIZE PUSH0 REVERT JUMPDEST POP POP POP POP PUSH1 0x40 MLOAD RETURNDATASIZE PUSH1 0x1F NOT PUSH1 0x1F DUP3 ADD AND DUP3 ADD DUP1 PUSH1 0x40 MSTORE POP DUP2 ADD SWAP1 PUSH2 0x1C74 SWAP2 SWAP1 PUSH2 0x4C15 JUMP JUMPDEST PUSH2 0x1C91 JUMPI PUSH1 0x40 MLOAD PUSH4 0x2FF3629F PUSH1 0xE2 SHL DUP2 MSTORE PUSH1 0x4 ADD PUSH1 0x40 MLOAD DUP1 SWAP2 SUB SWAP1 REVERT JUMPDEST PUSH2 0x1C9D DUP6 DUP6 DUP6 DUP6 PUSH2 0x2F5C JUMP JUMPDEST POP POP POP POP POP JUMP JUMPDEST PUSH1 0x37 SLOAD PUSH0 SWAP1 DUP2 SWAP1 DUP1 DUP5 LT PUSH2 0x1CD5 JUMPI PUSH1 0x40 MLOAD PUSH4 0x5A2E95F9 PUSH1 0xE0 SHL DUP2 MSTORE PUSH1 0x4 DUP2 ADD DUP6 SWAP1 MSTORE PUSH1 0x24 DUP2 ADD DUP3 SWAP1 MSTORE PUSH1 0x44 ADD PUSH2 0x207 JUMP JUMPDEST PUSH1 0x37 DUP1 SLOAD DUP6 SWAP1 DUP2 LT PUSH2 0x1CE9 JUMPI PUSH2 0x1CE9 PUSH2 0x4AF0 JUMP JUMPDEST PUSH0 SWAP2 DUP3 MSTORE PUSH1 0x20 SWAP1 SWAP2 KECCAK256 ADD SLOAD PUSH1 0x38 DUP1 SLOAD PUSH1 0x1 PUSH1 0x1 PUSH1 0xA0 SHL SUB SWAP1 SWAP3 AND SWAP5 POP SWAP1 DUP6 SWAP1 DUP2 LT PUSH2 0x1D16 JUMPI PUSH2 0x1D16 PUSH2 0x4AF0 JUMP JUMPDEST SWAP1 PUSH0 MSTORE PUSH1 0x20 PUSH0 KECCAK256 ADD SLOAD SWAP2 POP POP SWAP2 POP SWAP2 JUMP JUMPDEST PUSH1 0x60 PUSH32 0x542A41881EE128A365A727B282C86FA859579490B9BB45AAB8503648C8E7900 PUSH2 0x1D53 DUP4 PUSH2 0x20D9 JUMP JUMPDEST POP PUSH0 DUP4 DUP2 MSTORE PUSH1 0x20 DUP3 SWAP1 MSTORE PUSH1 0x40 DUP2 KECCAK256 DUP1 SLOAD PUSH2 0x1D6C SWAP1 PUSH2 0x4A9D JUMP JUMPDEST DUP1 PUSH1 0x1F ADD PUSH1 0x20 DUP1 SWAP2 DIV MUL PUSH1 0x20 ADD PUSH1 0x40 MLOAD SWAP1 DUP2 ADD PUSH1 0x40 MSTORE DUP1 SWAP3 SWAP2 SWAP1 DUP2 DUP2 MSTORE PUSH1 0x20 ADD DUP3 DUP1 SLOAD PUSH2 0x1D98 SWAP1 PUSH2 0x4A9D JUMP JUMPDEST DUP1 ISZERO PUSH2 0x1DE3 JUMPI DUP1 PUSH1 0x1F LT PUSH2 0x1DBA JUMPI PUSH2 0x100 DUP1 DUP4 SLOAD DIV MUL DUP4 MSTORE SWAP2 PUSH1 0x20 ADD SWAP2 PUSH2 0x1DE3 JUMP JUMPDEST DUP3 ADD SWAP2 SWAP1 PUSH0 MSTORE PUSH1 0x20 PUSH0 KECCAK256 SWAP1 JUMPDEST DUP2 SLOAD DUP2 MSTORE SWAP1 PUSH1 0x1 ADD SWAP1 PUSH1 0x20 ADD DUP1 DUP4 GT PUSH2 0x1DC6 JUMPI DUP3 SWAP1 SUB PUSH1 0x1F AND DUP3 ADD SWAP2 JUMPDEST POP POP POP POP POP SWAP1 POP PUSH0 PUSH2 0x1DFF PUSH1 0x40 DUP1 MLOAD PUSH1 0x20 DUP2 ADD SWAP1 SWAP2 MSTORE PUSH0 DUP2 MSTORE SWAP1 JUMP JUMPDEST SWAP1 POP DUP1 MLOAD PUSH0 SUB PUSH2 0x1E11 JUMPI POP SWAP4 SWAP3 POP POP POP JUMP JUMPDEST DUP2 MLOAD ISZERO PUSH2 0x1E44 JUMPI DUP1 DUP3 PUSH1 0x40 MLOAD PUSH1 0x20 ADD PUSH2 0x1E2B SWAP3 SWAP2 SWAP1 PUSH2 0x4F97 JUMP JUMPDEST PUSH1 0x40 MLOAD PUSH1 0x20 DUP2 DUP4 SUB SUB DUP2 MSTORE SWAP1 PUSH1 0x40 MSTORE SWAP4 POP POP POP POP SWAP2 SWAP1 POP JUMP JUMPDEST PUSH2 0x1E4D DUP6 PUSH2 0x2F74 JUMP JUMPDEST SWAP6 SWAP5 POP POP POP POP POP JUMP JUMPDEST CALLER PUSH2 0x1E5F PUSH2 0x1594 JUMP JUMPDEST PUSH1 0x1 PUSH1 0x1 PUSH1 0xA0 SHL SUB AND EQ PUSH2 0x1E86 JUMPI PUSH1 0x40 MLOAD PUSH4 0x49E27CFF PUSH1 0xE0 SHL DUP2 MSTORE PUSH1 0x4 ADD PUSH1 0x40 MLOAD DUP1 SWAP2 SUB SWAP1 REVERT JUMPDEST DUP2 ISZERO DUP1 PUSH2 0x1E95 JUMPI POP PUSH2 0x1388 DUP3 LT ISZERO JUMPDEST ISZERO PUSH2 0x1EC5 JUMPI PUSH1 0x40 MLOAD PUSH4 0x1818D2A7 PUSH1 0xE3 SHL DUP2 MSTORE PUSH1 0x4 DUP2 ADD DUP4 SWAP1 MSTORE PUSH1 0x1 PUSH1 0x24 DUP3 ADD MSTORE PUSH2 0x1387 PUSH1 0x44 DUP3 ADD MSTORE PUSH1 0x64 ADD PUSH2 0x207 JUMP JUMPDEST PUSH2 0x18A5 DUP7 DUP7 DUP1 DUP1 PUSH1 0x20 MUL PUSH1 0x20 ADD PUSH1 0x40 MLOAD SWAP1 DUP2 ADD PUSH1 0x40 MSTORE DUP1 SWAP4 SWAP3 SWAP2 SWAP1 DUP2 DUP2 MSTORE PUSH1 0x20 ADD DUP4 DUP4 PUSH1 0x20 MUL DUP1 DUP3 DUP5 CALLDATACOPY PUSH0 SWAP3 ADD SWAP2 SWAP1 SWAP2 MSTORE POP POP PUSH1 0x40 DUP1 MLOAD PUSH1 0x20 DUP1 DUP11 MUL DUP3 DUP2 ADD DUP3 ADD SWAP1 SWAP4 MSTORE DUP10 DUP3 MSTORE SWAP1 SWAP4 POP DUP10 SWAP3 POP DUP9 SWAP2 DUP3 SWAP2 DUP6 ADD SWAP1 DUP5 SWAP1 DUP1 DUP3 DUP5 CALLDATACOPY PUSH0 SWAP3 ADD SWAP2 SWAP1 SWAP2 MSTORE POP DUP8 SWAP3 POP PUSH1 0x1 SWAP2 POP DUP7 SWAP1 POP PUSH2 0x2CC1 JUMP JUMPDEST PUSH1 0x60 PUSH2 0x1F4A PUSH1 0x33 SLOAD PUSH1 0x1 PUSH1 0x1 PUSH1 0xA0 SHL SUB AND SWAP1 JUMP JUMPDEST PUSH1 0x1 PUSH1 0x1 PUSH1 0xA0 SHL SUB AND PUSH4 0x37929EB4 PUSH1 0x40 MLOAD DUP2 PUSH4 0xFFFFFFFF AND PUSH1 0xE0 SHL DUP2 MSTORE PUSH1 0x4 ADD PUSH0 PUSH1 0x40 MLOAD DUP1 DUP4 SUB DUP2 DUP7 GAS STATICCALL ISZERO DUP1 ISZERO PUSH2 0x1F84 JUMPI RETURNDATASIZE PUSH0 PUSH0 RETURNDATACOPY RETURNDATASIZE PUSH0 REVERT JUMPDEST POP POP POP POP PUSH1 0x40 MLOAD RETURNDATASIZE PUSH0 DUP3 RETURNDATACOPY PUSH1 0x1F RETURNDATASIZE SWAP1 DUP2 ADD PUSH1 0x1F NOT AND DUP3 ADD PUSH1 0x40 MSTORE PUSH2 0x159E SWAP2 SWAP1 DUP2 ADD SWAP1 PUSH2 0x4FAB JUMP JUMPDEST PUSH1 0x1 PUSH1 0x1 PUSH1 0xA0 SHL SUB SWAP2 DUP3 AND PUSH0 SWAP1 DUP2 MSTORE PUSH32 0x80BB2B638CC20BC4D0A60D66940F3AB4A00C1D7B313497CA82FB0B4AB0079305 PUSH1 0x20 SWAP1 DUP2 MSTORE PUSH1 0x40 DUP1 DUP4 KECCAK256 SWAP4 SWAP1 SWAP5 AND DUP3 MSTORE SWAP2 SWAP1 SWAP2 MSTORE KECCAK256 SLOAD PUSH1 0xFF AND SWAP1 JUMP JUMPDEST PUSH1 0x60 DUP1 PUSH1 0x37 PUSH0 ADD PUSH1 0x37 PUSH1 0x1 ADD DUP2 DUP1 SLOAD DUP1 PUSH1 0x20 MUL PUSH1 0x20 ADD PUSH1 0x40 MLOAD SWAP1 DUP2 ADD PUSH1 0x40 MSTORE DUP1 SWAP3 SWAP2 SWAP1 DUP2 DUP2 MSTORE PUSH1 0x20 ADD DUP3 DUP1 SLOAD DUP1 ISZERO PUSH2 0x2056 JUMPI PUSH1 0x20 MUL DUP3 ADD SWAP2 SWAP1 PUSH0 MSTORE PUSH1 0x20 PUSH0 KECCAK256 SWAP1 JUMPDEST DUP2 SLOAD PUSH1 0x1 PUSH1 0x1 PUSH1 0xA0 SHL SUB AND DUP2 MSTORE PUSH1 0x1 SWAP1 SWAP2 ADD SWAP1 PUSH1 0x20 ADD DUP1 DUP4 GT PUSH2 0x2038 JUMPI JUMPDEST POP POP POP POP POP SWAP2 POP DUP1 DUP1 SLOAD DUP1 PUSH1 0x20 MUL PUSH1 0x20 ADD PUSH1 0x40 MLOAD SWAP1 DUP2 ADD PUSH1 0x40 MSTORE DUP1 SWAP3 SWAP2 SWAP1 DUP2 DUP2 MSTORE PUSH1 0x20 ADD DUP3 DUP1 SLOAD DUP1 ISZERO PUSH2 0x20A6 JUMPI PUSH1 0x20 MUL DUP3 ADD SWAP2 SWAP1 PUSH0 MSTORE PUSH1 0x20 PUSH0 KECCAK256 SWAP1 JUMPDEST DUP2 SLOAD DUP2 MSTORE PUSH1 0x20 ADD SWAP1 PUSH1 0x1 ADD SWAP1 DUP1 DUP4 GT PUSH2 0x2092 JUMPI JUMPDEST POP POP POP POP POP SWAP1 POP SWAP2 POP SWAP2 POP SWAP1 SWAP2 JUMP JUMPDEST PUSH0 PUSH1 0x1 PUSH1 0x1 PUSH1 0xE0 SHL SUB NOT DUP3 AND PUSH4 0x24832483 PUSH1 0xE1 SHL EQ DUP1 PUSH2 0x601 JUMPI POP PUSH2 0x601 DUP3 PUSH2 0x2FE4 JUMP JUMPDEST PUSH0 PUSH0 PUSH2 0x20E4 DUP4 PUSH2 0x3033 JUMP JUMPDEST SWAP1 POP PUSH1 0x1 PUSH1 0x1 PUSH1 0xA0 SHL SUB DUP2 AND PUSH2 0x601 JUMPI PUSH1 0x40 MLOAD PUSH4 0x7E273289 PUSH1 0xE0 SHL DUP2 MSTORE PUSH1 0x4 DUP2 ADD DUP5 SWAP1 MSTORE PUSH1 0x24 ADD PUSH2 0x207 JUMP JUMPDEST PUSH0 SWAP1 DUP2 MSTORE PUSH32 0x80BB2B638CC20BC4D0A60D66940F3AB4A00C1D7B313497CA82FB0B4AB0079304 PUSH1 0x20 MSTORE PUSH1 0x40 SWAP1 KECCAK256 SLOAD PUSH1 0x1 PUSH1 0x1 PUSH1 0xA0 SHL SUB AND SWAP1 JUMP JUMPDEST PUSH2 0x1786 DUP3 DUP3 CALLER PUSH2 0x306C JUMP JUMPDEST PUSH1 0x1 PUSH1 0x1 PUSH1 0xA0 SHL SUB DUP3 AND PUSH2 0x217D JUMPI PUSH1 0x40 MLOAD PUSH4 0x32505749 PUSH1 0xE1 SHL DUP2 MSTORE PUSH0 PUSH1 0x4 DUP3 ADD MSTORE PUSH1 0x24 ADD PUSH2 0x207 JUMP JUMPDEST PUSH0 PUSH2 0x2189 DUP4 DUP4 CALLER PUSH2 0x3079 JUMP JUMPDEST SWAP1 POP DUP4 PUSH1 0x1 PUSH1 0x1 PUSH1 0xA0 SHL SUB AND DUP2 PUSH1 0x1 PUSH1 0x1 PUSH1 0xA0 SHL SUB AND EQ PUSH2 0xA67 JUMPI PUSH1 0x40 MLOAD PUSH4 0x64283D7B PUSH1 0xE0 SHL DUP2 MSTORE PUSH1 0x1 PUSH1 0x1 PUSH1 0xA0 SHL SUB DUP1 DUP7 AND PUSH1 0x4 DUP4 ADD MSTORE PUSH1 0x24 DUP3 ADD DUP5 SWAP1 MSTORE DUP3 AND PUSH1 0x44 DUP3 ADD MSTORE PUSH1 0x64 ADD PUSH2 0x207 JUMP JUMPDEST PUSH2 0x9B5 DUP4 DUP4 DUP4 PUSH1 0x40 MLOAD DUP1 PUSH1 0x20 ADD PUSH1 0x40 MSTORE DUP1 PUSH0 DUP2 MSTORE POP PUSH2 0x1BEF JUMP JUMPDEST PUSH0 DUP1 PUSH32 0xF0C57E16840DF040F15088DC2F81FE391C3923BEC73E23A9662EFC9C229C6A00 PUSH2 0x601 JUMP JUMPDEST PUSH2 0x2221 PUSH2 0x317B JUMP JUMPDEST PUSH2 0x1786 DUP3 DUP3 PUSH2 0x31A0 JUMP JUMPDEST PUSH1 0x1 PUSH1 0x1 PUSH1 0xE0 SHL SUB NOT DUP1 DUP3 AND SWAP1 SUB PUSH2 0x2256 JUMPI PUSH1 0x40 MLOAD PUSH4 0x9B5E765 PUSH1 0xE3 SHL DUP2 MSTORE PUSH1 0x4 ADD PUSH1 0x40 MLOAD DUP1 SWAP2 SUB SWAP1 REVERT JUMPDEST PUSH1 0x1 PUSH1 0x1 PUSH1 0xE0 SHL SUB NOT AND PUSH0 SWAP1 DUP2 MSTORE PUSH1 0x36 PUSH1 0x20 MSTORE PUSH1 0x40 SWAP1 KECCAK256 DUP1 SLOAD PUSH1 0xFF NOT AND PUSH1 0x1 OR SWAP1 SSTORE JUMP JUMPDEST PUSH2 0x2282 PUSH2 0x317B JUMP JUMPDEST PUSH2 0x228A PUSH2 0x31D0 JUMP JUMPDEST JUMP JUMPDEST PUSH0 DUP1 DUP1 PUSH2 0x22A1 PUSH1 0x33 SLOAD PUSH1 0x1 PUSH1 0x1 PUSH1 0xA0 SHL SUB AND SWAP1 JUMP JUMPDEST PUSH1 0x1 PUSH1 0x1 PUSH1 0xA0 SHL SUB AND PUSH4 0xB28775CD PUSH1 0x40 MLOAD DUP2 PUSH4 0xFFFFFFFF AND PUSH1 0xE0 SHL DUP2 MSTORE PUSH1 0x4 ADD PUSH1 0x20 PUSH1 0x40 MLOAD DUP1 DUP4 SUB DUP2 DUP7 GAS STATICCALL ISZERO DUP1 ISZERO PUSH2 0x22DC JUMPI RETURNDATASIZE PUSH0 PUSH0 RETURNDATACOPY RETURNDATASIZE PUSH0 REVERT JUMPDEST POP POP POP POP PUSH1 0x40 MLOAD RETURNDATASIZE PUSH1 0x1F NOT PUSH1 0x1F DUP3 ADD AND DUP3 ADD DUP1 PUSH1 0x40 MSTORE POP DUP2 ADD SWAP1 PUSH2 0x2300 SWAP2 SWAP1 PUSH2 0x4AD5 JUMP JUMPDEST SWAP1 POP PUSH0 JUMPDEST DUP6 MLOAD DUP2 LT ISZERO PUSH2 0x2567 JUMPI PUSH2 0x232F DUP7 DUP3 DUP2 MLOAD DUP2 LT PUSH2 0x2322 JUMPI PUSH2 0x2322 PUSH2 0x4AF0 JUMP JUMPDEST PUSH1 0x20 MUL PUSH1 0x20 ADD ADD MLOAD PUSH2 0x5F2 JUMP JUMPDEST PUSH2 0x2376 JUMPI DUP6 DUP2 DUP2 MLOAD DUP2 LT PUSH2 0x2345 JUMPI PUSH2 0x2345 PUSH2 0x4AF0 JUMP JUMPDEST PUSH1 0x20 MUL PUSH1 0x20 ADD ADD MLOAD PUSH1 0x40 MLOAD PUSH4 0x19BB4029 PUSH1 0xE0 SHL DUP2 MSTORE PUSH1 0x4 ADD PUSH2 0x207 SWAP2 SWAP1 PUSH1 0x1 PUSH1 0x1 PUSH1 0xA0 SHL SUB SWAP2 SWAP1 SWAP2 AND DUP2 MSTORE PUSH1 0x20 ADD SWAP1 JUMP JUMPDEST PUSH2 0x23A6 DUP7 DUP8 DUP4 DUP2 MLOAD DUP2 LT PUSH2 0x238C JUMPI PUSH2 0x238C PUSH2 0x4AF0 JUMP JUMPDEST PUSH1 0x20 MUL PUSH1 0x20 ADD ADD MLOAD DUP4 PUSH1 0x1 PUSH2 0x23A1 SWAP2 SWAP1 PUSH2 0x4C02 JUMP JUMPDEST PUSH2 0x31D8 JUMP JUMPDEST ISZERO DUP1 ISZERO PUSH2 0x23CC JUMPI POP DUP5 DUP2 DUP2 MLOAD DUP2 LT PUSH2 0x23C0 JUMPI PUSH2 0x23C0 PUSH2 0x4AF0 JUMP JUMPDEST PUSH1 0x20 MUL PUSH1 0x20 ADD ADD MLOAD PUSH0 EQ ISZERO JUMPDEST ISZERO PUSH2 0x250D JUMPI DUP2 PUSH1 0x1 PUSH1 0x1 PUSH1 0xA0 SHL SUB AND DUP7 DUP3 DUP2 MLOAD DUP2 LT PUSH2 0x23ED JUMPI PUSH2 0x23ED PUSH2 0x4AF0 JUMP JUMPDEST PUSH1 0x20 MUL PUSH1 0x20 ADD ADD MLOAD PUSH1 0x1 PUSH1 0x1 PUSH1 0xA0 SHL SUB AND SUB PUSH2 0x24E1 JUMPI PUSH1 0x1 SWAP3 POP PUSH0 PUSH2 0x241A PUSH1 0x33 SLOAD PUSH1 0x1 PUSH1 0x1 PUSH1 0xA0 SHL SUB AND SWAP1 JUMP JUMPDEST PUSH1 0x1 PUSH1 0x1 PUSH1 0xA0 SHL SUB AND PUSH4 0x1C4AEBE PUSH1 0x40 MLOAD DUP2 PUSH4 0xFFFFFFFF AND PUSH1 0xE0 SHL DUP2 MSTORE PUSH1 0x4 ADD PUSH1 0x20 PUSH1 0x40 MLOAD DUP1 DUP4 SUB DUP2 DUP7 GAS STATICCALL ISZERO DUP1 ISZERO PUSH2 0x2455 JUMPI RETURNDATASIZE PUSH0 PUSH0 RETURNDATACOPY RETURNDATASIZE PUSH0 REVERT JUMPDEST POP POP POP POP PUSH1 0x40 MLOAD RETURNDATASIZE PUSH1 0x1F NOT PUSH1 0x1F DUP3 ADD AND DUP3 ADD DUP1 PUSH1 0x40 MSTORE POP DUP2 ADD SWAP1 PUSH2 0x2479 SWAP2 SWAP1 PUSH2 0x501F JUMP JUMPDEST PUSH2 0xFFFF AND SWAP1 POP DUP1 DUP7 DUP4 DUP2 MLOAD DUP2 LT PUSH2 0x2492 JUMPI PUSH2 0x2492 PUSH2 0x4AF0 JUMP JUMPDEST PUSH1 0x20 MUL PUSH1 0x20 ADD ADD MLOAD LT ISZERO PUSH2 0x24DF JUMPI DUP6 DUP3 DUP2 MLOAD DUP2 LT PUSH2 0x24B2 JUMPI PUSH2 0x24B2 PUSH2 0x4AF0 JUMP JUMPDEST PUSH1 0x20 MUL PUSH1 0x20 ADD ADD MLOAD DUP2 PUSH1 0x40 MLOAD PUSH4 0x540FCB07 PUSH1 0xE1 SHL DUP2 MSTORE PUSH1 0x4 ADD PUSH2 0x207 SWAP3 SWAP2 SWAP1 SWAP2 DUP3 MSTORE PUSH1 0x20 DUP3 ADD MSTORE PUSH1 0x40 ADD SWAP1 JUMP JUMPDEST POP JUMPDEST DUP5 DUP2 DUP2 MLOAD DUP2 LT PUSH2 0x24F3 JUMPI PUSH2 0x24F3 PUSH2 0x4AF0 JUMP JUMPDEST PUSH1 0x20 MUL PUSH1 0x20 ADD ADD MLOAD DUP5 PUSH2 0x2506 SWAP2 SWAP1 PUSH2 0x4C02 JUMP JUMPDEST SWAP4 POP PUSH2 0x255F JUMP JUMPDEST DUP5 DUP2 DUP2 MLOAD DUP2 LT PUSH2 0x251F JUMPI PUSH2 0x251F PUSH2 0x4AF0 JUMP JUMPDEST PUSH1 0x20 MUL PUSH1 0x20 ADD ADD MLOAD PUSH0 SUB PUSH2 0x2546 JUMPI PUSH1 0x40 MLOAD PUSH4 0x9AE9A4D PUSH1 0xE0 SHL DUP2 MSTORE PUSH1 0x4 ADD PUSH1 0x40 MLOAD DUP1 SWAP2 SUB SWAP1 REVERT JUMPDEST PUSH1 0x40 MLOAD PUSH4 0xC1AB6DC1 PUSH1 0xE0 SHL DUP2 MSTORE PUSH1 0x4 ADD PUSH1 0x40 MLOAD DUP1 SWAP2 SUB SWAP1 REVERT JUMPDEST PUSH1 0x1 ADD PUSH2 0x2304 JUMP JUMPDEST POP DUP2 PUSH2 0x2586 JUMPI PUSH1 0x40 MLOAD PUSH4 0x3CA46187 PUSH1 0xE0 SHL DUP2 MSTORE PUSH1 0x4 ADD PUSH1 0x40 MLOAD DUP1 SWAP2 SUB SWAP1 REVERT JUMPDEST PUSH2 0x2710 DUP4 EQ PUSH2 0x1C9D JUMPI PUSH1 0x40 MLOAD PUSH4 0x585B9263 PUSH1 0xE0 SHL DUP2 MSTORE PUSH1 0x4 ADD PUSH1 0x40 MLOAD DUP1 SWAP2 SUB SWAP1 REVERT JUMPDEST PUSH2 0x1786 DUP3 DUP3 PUSH1 0x40 MLOAD DUP1 PUSH1 0x20 ADD PUSH1 0x40 MSTORE DUP1 PUSH0 DUP2 MSTORE POP PUSH2 0x324B JUMP JUMPDEST PUSH0 DUP3 DUP2 MSTORE PUSH32 0x542A41881EE128A365A727B282C86FA859579490B9BB45AAB8503648C8E7900 PUSH1 0x20 DUP2 SWAP1 MSTORE PUSH1 0x40 SWAP1 SWAP2 KECCAK256 PUSH2 0x25FA DUP4 DUP3 PUSH2 0x5038 JUMP JUMPDEST POP PUSH1 0x40 MLOAD DUP4 DUP2 MSTORE PUSH32 0xF8E1A15ABA9398E019F0B49DF1A4FDE98EE17AE345CB5F6B5E2C27F5033E8CE7 SWAP1 PUSH1 0x20 ADD PUSH1 0x40 MLOAD DUP1 SWAP2 SUB SWAP1 LOG1 POP POP POP JUMP JUMPDEST PUSH0 TIMESTAMP DUP3 GT PUSH2 0x2657 JUMPI PUSH1 0x40 MLOAD PUSH4 0x18DB49C5 PUSH1 0xE2 SHL DUP2 MSTORE PUSH1 0x4 DUP2 ADD DUP4 SWAP1 MSTORE PUSH1 0x24 ADD PUSH2 0x207 JUMP JUMPDEST PUSH0 DUP7 PUSH1 0x1 PUSH1 0x1 PUSH1 0xA0 SHL SUB AND PUSH4 0x3FC8CEF3 PUSH1 0x40 MLOAD DUP2 PUSH4 0xFFFFFFFF AND PUSH1 0xE0 SHL DUP2 MSTORE PUSH1 0x4 ADD PUSH1 0x20 PUSH1 0x40 MLOAD DUP1 DUP4 SUB DUP2 DUP7 GAS STATICCALL ISZERO DUP1 ISZERO PUSH2 0x2694 JUMPI RETURNDATASIZE PUSH0 PUSH0 RETURNDATACOPY RETURNDATASIZE PUSH0 REVERT JUMPDEST POP POP POP POP PUSH1 0x40 MLOAD RETURNDATASIZE PUSH1 0x1F NOT PUSH1 0x1F DUP3 ADD AND DUP3 ADD DUP1 PUSH1 0x40 MSTORE POP DUP2 ADD SWAP1 PUSH2 0x26B8 SWAP2 SWAP1 PUSH2 0x4AD5 JUMP JUMPDEST SWAP1 POP PUSH0 DUP8 PUSH1 0x1 PUSH1 0x1 PUSH1 0xA0 SHL SUB AND PUSH4 0xF887EA40 PUSH1 0x40 MLOAD DUP2 PUSH4 0xFFFFFFFF AND PUSH1 0xE0 SHL DUP2 MSTORE PUSH1 0x4 ADD PUSH1 0x20 PUSH1 0x40 MLOAD DUP1 DUP4 SUB DUP2 DUP7 GAS STATICCALL ISZERO DUP1 ISZERO PUSH2 0x26F7 JUMPI RETURNDATASIZE PUSH0 PUSH0 RETURNDATACOPY RETURNDATASIZE PUSH0 REVERT JUMPDEST POP POP POP POP PUSH1 0x40 MLOAD RETURNDATASIZE PUSH1 0x1F NOT PUSH1 0x1F DUP3 ADD AND DUP3 ADD DUP1 PUSH1 0x40 MSTORE POP DUP2 ADD SWAP1 PUSH2 0x271B SWAP2 SWAP1 PUSH2 0x4AD5 JUMP JUMPDEST SWAP1 POP PUSH0 DUP1 JUMPDEST DUP9 MLOAD DUP2 LT ISZERO PUSH2 0x281E JUMPI PUSH0 DUP10 DUP3 DUP2 MLOAD DUP2 LT PUSH2 0x273C JUMPI PUSH2 0x273C PUSH2 0x4AF0 JUMP JUMPDEST PUSH1 0x20 MUL PUSH1 0x20 ADD ADD MLOAD GT ISZERO PUSH2 0x2816 JUMPI DUP4 PUSH1 0x1 PUSH1 0x1 PUSH1 0xA0 SHL SUB AND PUSH1 0x37 PUSH0 ADD DUP3 DUP2 SLOAD DUP2 LT PUSH2 0x2769 JUMPI PUSH2 0x2769 PUSH2 0x4AF0 JUMP JUMPDEST PUSH0 SWAP2 DUP3 MSTORE PUSH1 0x20 SWAP1 SWAP2 KECCAK256 ADD SLOAD PUSH1 0x1 PUSH1 0x1 PUSH1 0xA0 SHL SUB AND SUB PUSH2 0x27AE JUMPI DUP9 DUP2 DUP2 MLOAD DUP2 LT PUSH2 0x2794 JUMPI PUSH2 0x2794 PUSH2 0x4AF0 JUMP JUMPDEST PUSH1 0x20 MUL PUSH1 0x20 ADD ADD MLOAD DUP3 PUSH2 0x27A7 SWAP2 SWAP1 PUSH2 0x4C02 JUMP JUMPDEST SWAP2 POP PUSH2 0x2816 JUMP JUMPDEST PUSH0 PUSH2 0x2806 PUSH1 0x37 PUSH0 ADD DUP4 DUP2 SLOAD DUP2 LT PUSH2 0x27C7 JUMPI PUSH2 0x27C7 PUSH2 0x4AF0 JUMP JUMPDEST SWAP1 PUSH0 MSTORE PUSH1 0x20 PUSH0 KECCAK256 ADD PUSH0 SWAP1 SLOAD SWAP1 PUSH2 0x100 EXP SWAP1 DIV PUSH1 0x1 PUSH1 0x1 PUSH1 0xA0 SHL SUB AND DUP7 DUP7 DUP14 DUP7 DUP2 MLOAD DUP2 LT PUSH2 0x27F6 JUMPI PUSH2 0x27F6 PUSH2 0x4AF0 JUMP JUMPDEST PUSH1 0x20 MUL PUSH1 0x20 ADD ADD MLOAD ADDRESS DUP14 DUP14 PUSH2 0x3262 JUMP JUMPDEST SWAP1 POP PUSH2 0x2812 DUP2 DUP5 PUSH2 0x4C02 JUMP JUMPDEST SWAP3 POP POP JUMPDEST PUSH1 0x1 ADD PUSH2 0x2720 JUMP JUMPDEST POP DUP1 ISZERO PUSH2 0x2939 JUMPI PUSH1 0x40 MLOAD PUSH4 0x2E1A7D4D PUSH1 0xE0 SHL DUP2 MSTORE PUSH1 0x4 DUP2 ADD DUP3 SWAP1 MSTORE PUSH1 0x1 PUSH1 0x1 PUSH1 0xA0 SHL SUB DUP5 AND SWAP1 PUSH4 0x2E1A7D4D SWAP1 PUSH1 0x24 ADD PUSH0 PUSH1 0x40 MLOAD DUP1 DUP4 SUB DUP2 PUSH0 DUP8 DUP1 EXTCODESIZE ISZERO DUP1 ISZERO PUSH2 0x2864 JUMPI PUSH0 PUSH0 REVERT JUMPDEST POP GAS CALL ISZERO DUP1 ISZERO PUSH2 0x2876 JUMPI RETURNDATASIZE PUSH0 PUSH0 RETURNDATACOPY RETURNDATASIZE PUSH0 REVERT JUMPDEST POP POP POP POP PUSH0 DUP8 PUSH1 0x1 PUSH1 0x1 PUSH1 0xA0 SHL SUB AND DUP3 PUSH1 0x40 MLOAD PUSH0 PUSH1 0x40 MLOAD DUP1 DUP4 SUB DUP2 DUP6 DUP8 GAS CALL SWAP3 POP POP POP RETURNDATASIZE DUP1 PUSH0 DUP2 EQ PUSH2 0x28C3 JUMPI PUSH1 0x40 MLOAD SWAP2 POP PUSH1 0x1F NOT PUSH1 0x3F RETURNDATASIZE ADD AND DUP3 ADD PUSH1 0x40 MSTORE RETURNDATASIZE DUP3 MSTORE RETURNDATASIZE PUSH0 PUSH1 0x20 DUP5 ADD RETURNDATACOPY PUSH2 0x28C8 JUMP JUMPDEST PUSH1 0x60 SWAP2 POP JUMPDEST POP POP SWAP1 POP DUP1 PUSH2 0x2934 JUMPI PUSH1 0x40 MLOAD PUSH3 0x461BCD PUSH1 0xE5 SHL DUP2 MSTORE PUSH1 0x20 PUSH1 0x4 DUP3 ADD MSTORE PUSH1 0x32 PUSH1 0x24 DUP3 ADD MSTORE PUSH32 0x4661696C656420746F20756E7772617020616E64207472616E73666572205745 PUSH1 0x44 DUP3 ADD MSTORE PUSH18 0x2A24103A37903A3432903932B1B2B4BB32B9 PUSH1 0x71 SHL PUSH1 0x64 DUP3 ADD MSTORE PUSH1 0x84 ADD PUSH2 0x207 JUMP JUMPDEST DUP2 SWAP5 POP POP JUMPDEST POP POP POP SWAP6 SWAP5 POP POP POP POP POP JUMP JUMPDEST PUSH1 0x2 PUSH0 SLOAD SUB PUSH2 0x2996 JUMPI PUSH1 0x40 MLOAD PUSH3 0x461BCD PUSH1 0xE5 SHL DUP2 MSTORE PUSH1 0x20 PUSH1 0x4 DUP3 ADD MSTORE PUSH1 0x1F PUSH1 0x24 DUP3 ADD MSTORE PUSH32 0x5265656E7472616E637947756172643A207265656E7472616E742063616C6C00 PUSH1 0x44 DUP3 ADD MSTORE PUSH1 0x64 ADD PUSH2 0x207 JUMP JUMPDEST PUSH1 0x2 PUSH0 SSTORE JUMP JUMPDEST PUSH1 0x60 DUP3 PUSH0 SUB PUSH2 0x29BE JUMPI PUSH1 0x40 MLOAD PUSH4 0x9ABC7491 PUSH1 0xE0 SHL DUP2 MSTORE PUSH1 0x4 ADD PUSH1 0x40 MLOAD DUP1 SWAP2 SUB SWAP1 REVERT JUMPDEST PUSH1 0x32 SLOAD PUSH1 0x40 MLOAD PUSH4 0x23B872DD PUSH1 0xE0 SHL DUP2 MSTORE CALLER PUSH1 0x4 DUP3 ADD MSTORE PUSH1 0x1 PUSH1 0x1 PUSH1 0xA0 SHL SUB SWAP1 SWAP2 AND PUSH1 0x24 DUP3 ADD DUP2 SWAP1 MSTORE PUSH1 0x44 DUP3 ADD DUP6 SWAP1 MSTORE SWAP1 PUSH4 0x23B872DD SWAP1 PUSH1 0x64 ADD PUSH1 0x20 PUSH1 0x40 MLOAD DUP1 DUP4 SUB DUP2 PUSH0 DUP8 GAS CALL ISZERO DUP1 ISZERO PUSH2 0x2A13 JUMPI RETURNDATASIZE PUSH0 PUSH0 RETURNDATACOPY RETURNDATASIZE PUSH0 REVERT JUMPDEST POP POP POP POP PUSH1 0x40 MLOAD RETURNDATASIZE PUSH1 0x1F NOT PUSH1 0x1F DUP3 ADD AND DUP3 ADD DUP1 PUSH1 0x40 MSTORE POP DUP2 ADD SWAP1 PUSH2 0x2A37 SWAP2 SWAP1 PUSH2 0x4C15 JUMP JUMPDEST POP PUSH1 0x32 SLOAD PUSH1 0x40 MLOAD PUSH4 0x226BF2D1 PUSH1 0xE2 SHL DUP2 MSTORE PUSH1 0x1 PUSH1 0x1 PUSH1 0xA0 SHL SUB DUP5 DUP2 AND PUSH1 0x4 DUP4 ADD MSTORE SWAP1 SWAP2 AND SWAP1 PUSH4 0x89AFCB44 SWAP1 PUSH1 0x24 ADD PUSH0 PUSH1 0x40 MLOAD DUP1 DUP4 SUB DUP2 PUSH0 DUP8 GAS CALL ISZERO DUP1 ISZERO PUSH2 0x2A80 JUMPI RETURNDATASIZE PUSH0 PUSH0 RETURNDATACOPY RETURNDATASIZE PUSH0 REVERT JUMPDEST POP POP POP POP PUSH1 0x40 MLOAD RETURNDATASIZE PUSH0 DUP3 RETURNDATACOPY PUSH1 0x1F RETURNDATASIZE SWAP1 DUP2 ADD PUSH1 0x1F NOT AND DUP3 ADD PUSH1 0x40 MSTORE PUSH2 0x2AA7 SWAP2 SWAP1 DUP2 ADD SWAP1 PUSH2 0x4DEA JUMP JUMPDEST SWAP4 SWAP3 POP POP POP JUMP JUMPDEST PUSH1 0x1 PUSH0 SSTORE JUMP JUMPDEST PUSH0 DUP1 DUP4 ISZERO PUSH2 0x2BEE JUMPI PUSH2 0x2710 PUSH2 0x2AC9 DUP6 DUP8 PUSH2 0x4C30 JUMP JUMPDEST PUSH2 0x2AD3 SWAP2 SWAP1 PUSH2 0x4C47 JUMP JUMPDEST SWAP2 POP PUSH0 DUP4 PUSH1 0x1 PUSH1 0x1 PUSH1 0xA0 SHL SUB AND DUP4 PUSH1 0x40 MLOAD PUSH0 PUSH1 0x40 MLOAD DUP1 DUP4 SUB DUP2 DUP6 DUP8 GAS CALL SWAP3 POP POP POP RETURNDATASIZE DUP1 PUSH0 DUP2 EQ PUSH2 0x2B1E JUMPI PUSH1 0x40 MLOAD SWAP2 POP PUSH1 0x1F NOT PUSH1 0x3F RETURNDATASIZE ADD AND DUP3 ADD PUSH1 0x40 MSTORE RETURNDATASIZE DUP3 MSTORE RETURNDATASIZE PUSH0 PUSH1 0x20 DUP5 ADD RETURNDATACOPY PUSH2 0x2B23 JUMP JUMPDEST PUSH1 0x60 SWAP2 POP JUMPDEST POP POP SWAP1 POP DUP1 PUSH2 0x2B7E JUMPI PUSH1 0x40 MLOAD PUSH3 0x461BCD PUSH1 0xE5 SHL DUP2 MSTORE PUSH1 0x20 PUSH1 0x4 DUP3 ADD MSTORE PUSH1 0x21 PUSH1 0x24 DUP3 ADD MSTORE PUSH32 0x4661696C656420746F2064656475637420436F6E747269627574696F6E204665 PUSH1 0x44 DUP3 ADD MSTORE PUSH1 0x65 PUSH1 0xF8 SHL PUSH1 0x64 DUP3 ADD MSTORE PUSH1 0x84 ADD PUSH2 0x207 JUMP JUMPDEST DUP4 PUSH1 0x1 PUSH1 0x1 PUSH1 0xA0 SHL SUB AND PUSH32 0x72CD57B8DE25C52A120A25DE816C33EF7193FF5985D2106CF9D4269EDC0B7055 DUP5 DUP8 PUSH1 0x40 MLOAD PUSH2 0x2BE4 SWAP3 SWAP2 SWAP1 SWAP2 DUP3 MSTORE PUSH1 0x20 DUP3 ADD MSTORE PUSH1 0x60 PUSH1 0x40 DUP3 ADD DUP2 SWAP1 MSTORE PUSH1 0xA SWAP1 DUP3 ADD MSTORE PUSH10 0x636F6E74726962757465 PUSH1 0xB0 SHL PUSH1 0x80 DUP3 ADD MSTORE PUSH1 0xA0 ADD SWAP1 JUMP JUMPDEST PUSH1 0x40 MLOAD DUP1 SWAP2 SUB SWAP1 LOG2 POP JUMPDEST PUSH2 0x2BF8 DUP3 DUP7 PUSH2 0x4ED9 JUMP JUMPDEST SWAP1 POP SWAP4 POP SWAP4 SWAP2 POP POP JUMP JUMPDEST PUSH1 0x37 SLOAD PUSH1 0x60 SWAP1 DUP1 PUSH1 0x1 PUSH1 0x1 PUSH1 0x40 SHL SUB DUP2 GT ISZERO PUSH2 0x2C20 JUMPI PUSH2 0x2C20 PUSH2 0x48C9 JUMP JUMPDEST PUSH1 0x40 MLOAD SWAP1 DUP1 DUP3 MSTORE DUP1 PUSH1 0x20 MUL PUSH1 0x20 ADD DUP3 ADD PUSH1 0x40 MSTORE DUP1 ISZERO PUSH2 0x2C49 JUMPI DUP2 PUSH1 0x20 ADD PUSH1 0x20 DUP3 MUL DUP1 CALLDATASIZE DUP4 CALLDATACOPY ADD SWAP1 POP JUMPDEST POP SWAP2 POP PUSH0 DUP1 JUMPDEST DUP3 DUP2 LT ISZERO PUSH2 0x2CB6 JUMPI PUSH0 PUSH2 0x2C63 DUP3 DUP10 DUP6 PUSH2 0x3520 JUMP JUMPDEST SWAP1 POP PUSH2 0x2C70 PUSH1 0x1 DUP6 PUSH2 0x4ED9 JUMP JUMPDEST DUP3 EQ PUSH2 0x2C83 JUMPI PUSH2 0x2C80 DUP2 DUP5 PUSH2 0x4C02 JUMP JUMPDEST SWAP3 POP JUMPDEST PUSH2 0x2C90 DUP10 DUP4 DUP4 DUP11 DUP11 PUSH2 0x3583 JUMP JUMPDEST DUP6 DUP4 DUP2 MLOAD DUP2 LT PUSH2 0x2CA2 JUMPI PUSH2 0x2CA2 PUSH2 0x4AF0 JUMP JUMPDEST PUSH1 0x20 SWAP1 DUP2 MUL SWAP2 SWAP1 SWAP2 ADD ADD MSTORE POP PUSH1 0x1 ADD PUSH2 0x2C4F JUMP JUMPDEST POP POP POP SWAP5 SWAP4 POP POP POP POP JUMP JUMPDEST DUP5 MLOAD DUP5 MLOAD DUP1 DUP3 EQ ISZERO DUP1 PUSH2 0x2CD2 JUMPI POP DUP2 ISZERO JUMPDEST DUP1 PUSH2 0x2CDB JUMPI POP DUP1 ISZERO JUMPDEST ISZERO PUSH2 0x2CF9 JUMPI PUSH1 0x40 MLOAD PUSH4 0x251F56A1 PUSH1 0xE2 SHL DUP2 MSTORE PUSH1 0x4 ADD PUSH1 0x40 MLOAD DUP1 SWAP2 SUB SWAP1 REVERT JUMPDEST DUP4 DUP1 ISZERO PUSH2 0x2D08 JUMPI POP DUP7 MLOAD PUSH1 0x2 EQ ISZERO JUMPDEST ISZERO PUSH2 0x2D26 JUMPI PUSH1 0x40 MLOAD PUSH4 0x1EC0E681 PUSH1 0xE1 SHL DUP2 MSTORE PUSH1 0x4 ADD PUSH1 0x40 MLOAD DUP1 SWAP2 SUB SWAP1 REVERT JUMPDEST TIMESTAMP DUP4 GT PUSH2 0x2D49 JUMPI PUSH1 0x40 MLOAD PUSH4 0x18DB49C5 PUSH1 0xE2 SHL DUP2 MSTORE PUSH1 0x4 DUP2 ADD DUP5 SWAP1 MSTORE PUSH1 0x24 ADD PUSH2 0x207 JUMP JUMPDEST PUSH2 0x2D53 DUP8 DUP8 PUSH2 0x228C JUMP JUMPDEST PUSH1 0x32 SLOAD PUSH1 0x40 MLOAD PUSH4 0xBA6BA385 PUSH1 0xE0 SHL DUP2 MSTORE PUSH1 0x1 PUSH1 0x4 DUP3 ADD MSTORE PUSH1 0x1 PUSH1 0x1 PUSH1 0xA0 SHL SUB SWAP1 SWAP2 AND SWAP1 PUSH4 0xBA6BA385 SWAP1 PUSH1 0x24 ADD PUSH0 PUSH1 0x40 MLOAD DUP1 DUP4 SUB DUP2 PUSH0 DUP8 DUP1 EXTCODESIZE ISZERO DUP1 ISZERO PUSH2 0x2D96 JUMPI PUSH0 PUSH0 REVERT JUMPDEST POP GAS CALL ISZERO DUP1 ISZERO PUSH2 0x2DA8 JUMPI RETURNDATASIZE PUSH0 PUSH0 RETURNDATACOPY RETURNDATASIZE PUSH0 REVERT JUMPDEST POP POP POP POP PUSH1 0x32 PUSH0 SWAP1 SLOAD SWAP1 PUSH2 0x100 EXP SWAP1 DIV PUSH1 0x1 PUSH1 0x1 PUSH1 0xA0 SHL SUB AND PUSH1 0x1 PUSH1 0x1 PUSH1 0xA0 SHL SUB AND PUSH4 0xA7C7FDEB PUSH1 0x40 MLOAD DUP2 PUSH4 0xFFFFFFFF AND PUSH1 0xE0 SHL DUP2 MSTORE PUSH1 0x4 ADD PUSH0 PUSH1 0x40 MLOAD DUP1 DUP4 SUB DUP2 PUSH0 DUP8 DUP1 EXTCODESIZE ISZERO DUP1 ISZERO PUSH2 0x2DF8 JUMPI PUSH0 PUSH0 REVERT JUMPDEST POP GAS CALL ISZERO DUP1 ISZERO PUSH2 0x2E0A JUMPI RETURNDATASIZE PUSH0 PUSH0 RETURNDATACOPY RETURNDATASIZE PUSH0 REVERT JUMPDEST POP POP POP POP PUSH0 PUSH2 0x2E19 DUP7 DUP6 PUSH2 0x3853 JUMP JUMPDEST SWAP1 POP PUSH2 0x2E28 DUP9 DUP9 DUP4 DUP10 DUP9 PUSH2 0x3A00 JUMP JUMPDEST PUSH1 0x40 MLOAD PUSH32 0x60E4888485FA1E12376F526EBBDE032F0A609BA95E61162E2D279C025C27D1A4 SWAP1 PUSH2 0x2E62 SWAP1 ADDRESS SWAP1 PUSH1 0x37 SWAP1 PUSH1 0x38 SWAP1 DUP14 SWAP1 DUP14 SWAP1 PUSH2 0x50F2 JUMP JUMPDEST PUSH1 0x40 MLOAD DUP1 SWAP2 SUB SWAP1 LOG1 PUSH1 0x32 SLOAD PUSH1 0x40 MLOAD PUSH4 0x37905A47 PUSH1 0xE2 SHL DUP2 MSTORE PUSH1 0x1 PUSH1 0x1 PUSH1 0xA0 SHL SUB SWAP1 SWAP2 AND SWAP1 PUSH4 0xDE41691C SWAP1 PUSH2 0x2E9A SWAP1 DUP12 SWAP1 PUSH1 0x4 ADD PUSH2 0x5183 JUMP JUMPDEST PUSH0 PUSH1 0x40 MLOAD DUP1 DUP4 SUB DUP2 PUSH0 DUP8 DUP1 EXTCODESIZE ISZERO DUP1 ISZERO PUSH2 0x2EB1 JUMPI PUSH0 PUSH0 REVERT JUMPDEST POP GAS CALL ISZERO DUP1 ISZERO PUSH2 0x2EC3 JUMPI RETURNDATASIZE PUSH0 PUSH0 RETURNDATACOPY RETURNDATASIZE PUSH0 REVERT JUMPDEST POP POP DUP10 MLOAD PUSH2 0x2EDA SWAP3 POP PUSH1 0x37 SWAP2 POP PUSH1 0x20 DUP12 ADD SWAP1 PUSH2 0x4582 JUMP JUMPDEST POP DUP7 MLOAD PUSH2 0x2EEE SWAP1 PUSH1 0x38 SWAP1 PUSH1 0x20 DUP11 ADD SWAP1 PUSH2 0x45D5 JUMP JUMPDEST POP PUSH1 0x32 SLOAD PUSH1 0x40 MLOAD PUSH4 0xBA6BA385 PUSH1 0xE0 SHL DUP2 MSTORE PUSH0 PUSH1 0x4 DUP3 ADD MSTORE PUSH1 0x1 PUSH1 0x1 PUSH1 0xA0 SHL SUB SWAP1 SWAP2 AND SWAP1 PUSH4 0xBA6BA385 SWAP1 PUSH1 0x24 ADD PUSH0 PUSH1 0x40 MLOAD DUP1 DUP4 SUB DUP2 PUSH0 DUP8 DUP1 EXTCODESIZE ISZERO DUP1 ISZERO PUSH2 0x2F31 JUMPI PUSH0 PUSH0 REVERT JUMPDEST POP GAS CALL ISZERO DUP1 ISZERO PUSH2 0x2F43 JUMPI RETURNDATASIZE PUSH0 PUSH0 RETURNDATACOPY RETURNDATASIZE PUSH0 REVERT JUMPDEST POP POP POP POP POP POP POP POP POP POP POP POP JUMP JUMPDEST PUSH2 0x1786 CALLER DUP4 DUP4 PUSH2 0x3B9C JUMP JUMPDEST PUSH2 0x2F67 DUP5 DUP5 DUP5 PUSH2 0x9BA JUMP JUMPDEST PUSH2 0xA67 CALLER DUP6 DUP6 DUP6 DUP6 PUSH2 0x3C4B JUMP JUMPDEST PUSH1 0x60 PUSH2 0x2F7F DUP3 PUSH2 0x20D9 JUMP JUMPDEST POP PUSH0 PUSH2 0x2F95 PUSH1 0x40 DUP1 MLOAD PUSH1 0x20 DUP2 ADD SWAP1 SWAP2 MSTORE PUSH0 DUP2 MSTORE SWAP1 JUMP JUMPDEST SWAP1 POP PUSH0 DUP2 MLOAD GT PUSH2 0x2FB3 JUMPI PUSH1 0x40 MLOAD DUP1 PUSH1 0x20 ADD PUSH1 0x40 MSTORE DUP1 PUSH0 DUP2 MSTORE POP PUSH2 0x2AA7 JUMP JUMPDEST DUP1 PUSH2 0x2FBD DUP5 PUSH2 0x3D6A JUMP JUMPDEST PUSH1 0x40 MLOAD PUSH1 0x20 ADD PUSH2 0x2FCE SWAP3 SWAP2 SWAP1 PUSH2 0x4F97 JUMP JUMPDEST PUSH1 0x40 MLOAD PUSH1 0x20 DUP2 DUP4 SUB SUB DUP2 MSTORE SWAP1 PUSH1 0x40 MSTORE SWAP4 SWAP3 POP POP POP JUMP JUMPDEST PUSH0 PUSH1 0x1 PUSH1 0x1 PUSH1 0xE0 SHL SUB NOT DUP3 AND PUSH4 0x80AC58CD PUSH1 0xE0 SHL EQ DUP1 PUSH2 0x3014 JUMPI POP PUSH1 0x1 PUSH1 0x1 PUSH1 0xE0 SHL SUB NOT DUP3 AND PUSH4 0x5B5E139F PUSH1 0xE0 SHL EQ JUMPDEST DUP1 PUSH2 0x601 JUMPI POP PUSH4 0x1FFC9A7 PUSH1 0xE0 SHL PUSH1 0x1 PUSH1 0x1 PUSH1 0xE0 SHL SUB NOT DUP4 AND EQ PUSH2 0x601 JUMP JUMPDEST PUSH0 SWAP1 DUP2 MSTORE PUSH32 0x80BB2B638CC20BC4D0A60D66940F3AB4A00C1D7B313497CA82FB0B4AB0079302 PUSH1 0x20 MSTORE PUSH1 0x40 SWAP1 KECCAK256 SLOAD PUSH1 0x1 PUSH1 0x1 PUSH1 0xA0 SHL SUB AND SWAP1 JUMP JUMPDEST PUSH2 0x9B5 DUP4 DUP4 DUP4 PUSH1 0x1 PUSH2 0x3DF9 JUMP JUMPDEST PUSH0 PUSH0 MLOAD PUSH1 0x20 PUSH2 0x525D PUSH0 CODECOPY PUSH0 MLOAD SWAP1 PUSH0 MSTORE DUP2 PUSH2 0x3092 DUP6 PUSH2 0x3033 JUMP JUMPDEST SWAP1 POP PUSH1 0x1 PUSH1 0x1 PUSH1 0xA0 SHL SUB DUP5 AND ISZERO PUSH2 0x30AE JUMPI PUSH2 0x30AE DUP2 DUP6 DUP8 PUSH2 0x3F0C JUMP JUMPDEST PUSH1 0x1 PUSH1 0x1 PUSH1 0xA0 SHL SUB DUP2 AND ISZERO PUSH2 0x30EA JUMPI PUSH2 0x30C9 PUSH0 DUP7 PUSH0 PUSH0 PUSH2 0x3DF9 JUMP JUMPDEST PUSH1 0x1 PUSH1 0x1 PUSH1 0xA0 SHL SUB DUP2 AND PUSH0 SWAP1 DUP2 MSTORE PUSH1 0x3 DUP4 ADD PUSH1 0x20 MSTORE PUSH1 0x40 SWAP1 KECCAK256 DUP1 SLOAD PUSH0 NOT ADD SWAP1 SSTORE JUMPDEST PUSH1 0x1 PUSH1 0x1 PUSH1 0xA0 SHL SUB DUP7 AND ISZERO PUSH2 0x311A JUMPI PUSH1 0x1 PUSH1 0x1 PUSH1 0xA0 SHL SUB DUP7 AND PUSH0 SWAP1 DUP2 MSTORE PUSH1 0x3 DUP4 ADD PUSH1 0x20 MSTORE PUSH1 0x40 SWAP1 KECCAK256 DUP1 SLOAD PUSH1 0x1 ADD SWAP1 SSTORE JUMPDEST PUSH0 DUP6 DUP2 MSTORE PUSH1 0x2 DUP4 ADD PUSH1 0x20 MSTORE PUSH1 0x40 DUP1 DUP3 KECCAK256 DUP1 SLOAD PUSH1 0x1 PUSH1 0x1 PUSH1 0xA0 SHL SUB NOT AND PUSH1 0x1 PUSH1 0x1 PUSH1 0xA0 SHL SUB DUP11 DUP2 AND SWAP2 DUP3 OR SWAP1 SWAP3 SSTORE SWAP2 MLOAD DUP9 SWAP4 SWAP2 DUP6 AND SWAP2 PUSH32 0xDDF252AD1BE2C89B69C2B068FC378DAA952BA7F163C4A11628F55A4DF523B3EF SWAP2 LOG4 SWAP6 SWAP5 POP POP POP POP POP JUMP JUMPDEST PUSH2 0x3183 PUSH2 0x3F70 JUMP JUMPDEST PUSH2 0x228A JUMPI PUSH1 0x40 MLOAD PUSH4 0x1AFCD79F PUSH1 0xE3 SHL DUP2 MSTORE PUSH1 0x4 ADD PUSH1 0x40 MLOAD DUP1 SWAP2 SUB SWAP1 REVERT JUMPDEST PUSH2 0x31A8 PUSH2 0x317B JUMP JUMPDEST PUSH0 MLOAD PUSH1 0x20 PUSH2 0x525D PUSH0 CODECOPY PUSH0 MLOAD SWAP1 PUSH0 MSTORE DUP1 PUSH2 0x31C1 DUP5 DUP3 PUSH2 0x5038 JUMP JUMPDEST POP PUSH1 0x1 DUP2 ADD PUSH2 0xA67 DUP4 DUP3 PUSH2 0x5038 JUMP JUMPDEST PUSH2 0x2AAE PUSH2 0x317B JUMP JUMPDEST PUSH0 DUP2 DUP5 MLOAD GT ISZERO PUSH2 0x3242 JUMPI DUP2 JUMPDEST DUP5 MLOAD DUP2 LT ISZERO PUSH2 0x3240 JUMPI DUP4 PUSH1 0x1 PUSH1 0x1 PUSH1 0xA0 SHL SUB AND DUP6 DUP3 DUP2 MLOAD DUP2 LT PUSH2 0x3209 JUMPI PUSH2 0x3209 PUSH2 0x4AF0 JUMP JUMPDEST PUSH1 0x20 MUL PUSH1 0x20 ADD ADD MLOAD PUSH1 0x1 PUSH1 0x1 PUSH1 0xA0 SHL SUB AND SUB PUSH2 0x3238 JUMPI PUSH1 0x40 MLOAD PUSH4 0x23271FB5 PUSH1 0xE1 SHL DUP2 MSTORE PUSH1 0x4 ADD PUSH1 0x40 MLOAD DUP1 SWAP2 SUB SWAP1 REVERT JUMPDEST PUSH1 0x1 ADD PUSH2 0x31E4 JUMP JUMPDEST POP JUMPDEST POP PUSH0 SWAP4 SWAP3 POP POP POP JUMP JUMPDEST PUSH2 0x3255 DUP4 DUP4 PUSH2 0x3F89 JUMP JUMPDEST PUSH2 0x9B5 CALLER PUSH0 DUP6 DUP6 DUP6 PUSH2 0x3C4B JUMP JUMPDEST PUSH0 PUSH2 0x3277 PUSH1 0x1 PUSH1 0x1 PUSH1 0xA0 SHL SUB DUP10 AND DUP8 DUP4 PUSH2 0x3FEA JUMP JUMPDEST PUSH2 0x328B PUSH1 0x1 PUSH1 0x1 PUSH1 0xA0 SHL SUB DUP10 AND DUP8 DUP8 PUSH2 0x3FEA JUMP JUMPDEST PUSH0 PUSH2 0x329E PUSH1 0x33 SLOAD PUSH1 0x1 PUSH1 0x1 PUSH1 0xA0 SHL SUB AND SWAP1 JUMP JUMPDEST PUSH1 0x40 MLOAD PUSH4 0xD88E3E3B PUSH1 0xE0 SHL DUP2 MSTORE PUSH1 0x1 PUSH1 0x1 PUSH1 0xA0 SHL SUB DUP12 DUP2 AND PUSH1 0x4 DUP4 ADD MSTORE DUP11 DUP2 AND PUSH1 0x24 DUP4 ADD MSTORE SWAP2 SWAP1 SWAP2 AND SWAP1 PUSH4 0xD88E3E3B SWAP1 PUSH1 0x44 ADD PUSH0 PUSH1 0x40 MLOAD DUP1 DUP4 SUB DUP2 DUP7 GAS STATICCALL ISZERO DUP1 ISZERO PUSH2 0x32EB JUMPI RETURNDATASIZE PUSH0 PUSH0 RETURNDATACOPY RETURNDATASIZE PUSH0 REVERT JUMPDEST POP POP POP POP PUSH1 0x40 MLOAD RETURNDATASIZE PUSH0 DUP3 RETURNDATACOPY PUSH1 0x1F RETURNDATASIZE SWAP1 DUP2 ADD PUSH1 0x1F NOT AND DUP3 ADD PUSH1 0x40 MSTORE PUSH2 0x3312 SWAP2 SWAP1 DUP2 ADD SWAP1 PUSH2 0x4B3D JUMP JUMPDEST SWAP1 POP DUP1 MLOAD PUSH1 0x2 EQ PUSH2 0x3336 JUMPI PUSH1 0x40 MLOAD PUSH4 0x251F56A1 PUSH1 0xE2 SHL DUP2 MSTORE PUSH1 0x4 ADD PUSH1 0x40 MLOAD DUP1 SWAP2 SUB SWAP1 REVERT JUMPDEST PUSH0 PUSH2 0x2710 PUSH2 0x3344 DUP7 DUP3 PUSH2 0x4ED9 JUMP JUMPDEST PUSH1 0x33 SLOAD PUSH1 0x40 MLOAD PUSH4 0xD06CA61F PUSH1 0xE0 SHL DUP2 MSTORE PUSH1 0x1 PUSH1 0x1 PUSH1 0xA0 SHL SUB SWAP1 SWAP2 AND SWAP1 PUSH4 0xD06CA61F SWAP1 PUSH2 0x3376 SWAP1 DUP13 SWAP1 DUP9 SWAP1 PUSH1 0x4 ADD PUSH2 0x4BD6 JUMP JUMPDEST PUSH1 0x20 PUSH1 0x40 MLOAD DUP1 DUP4 SUB DUP2 DUP7 GAS STATICCALL ISZERO DUP1 ISZERO PUSH2 0x3391 JUMPI RETURNDATASIZE PUSH0 PUSH0 RETURNDATACOPY RETURNDATASIZE PUSH0 REVERT JUMPDEST POP POP POP POP PUSH1 0x40 MLOAD RETURNDATASIZE PUSH1 0x1F NOT PUSH1 0x1F DUP3 ADD AND DUP3 ADD DUP1 PUSH1 0x40 MSTORE POP DUP2 ADD SWAP1 PUSH2 0x33B5 SWAP2 SWAP1 PUSH2 0x4B04 JUMP JUMPDEST PUSH2 0x33BF SWAP2 SWAP1 PUSH2 0x4C30 JUMP JUMPDEST PUSH2 0x33C9 SWAP2 SWAP1 PUSH2 0x4C47 JUMP JUMPDEST PUSH1 0x40 MLOAD PUSH4 0x70A08231 PUSH1 0xE0 SHL DUP2 MSTORE PUSH1 0x1 PUSH1 0x1 PUSH1 0xA0 SHL SUB DUP9 DUP2 AND PUSH1 0x4 DUP4 ADD MSTORE SWAP2 SWAP3 POP PUSH0 SWAP2 DUP12 AND SWAP1 PUSH4 0x70A08231 SWAP1 PUSH1 0x24 ADD PUSH1 0x20 PUSH1 0x40 MLOAD DUP1 DUP4 SUB DUP2 DUP7 GAS STATICCALL ISZERO DUP1 ISZERO PUSH2 0x3412 JUMPI RETURNDATASIZE PUSH0 PUSH0 RETURNDATACOPY RETURNDATASIZE PUSH0 REVERT JUMPDEST POP POP POP POP PUSH1 0x40 MLOAD RETURNDATASIZE PUSH1 0x1F NOT PUSH1 0x1F DUP3 ADD AND DUP3 ADD DUP1 PUSH1 0x40 MSTORE POP DUP2 ADD SWAP1 PUSH2 0x3436 SWAP2 SWAP1 PUSH2 0x4B04 JUMP JUMPDEST PUSH1 0x40 MLOAD PUSH4 0x5C11D795 PUSH1 0xE0 SHL DUP2 MSTORE SWAP1 SWAP2 POP PUSH1 0x1 PUSH1 0x1 PUSH1 0xA0 SHL SUB DUP11 AND SWAP1 PUSH4 0x5C11D795 SWAP1 PUSH2 0x346D SWAP1 DUP12 SWAP1 DUP7 SWAP1 DUP9 SWAP1 DUP14 SWAP1 DUP13 SWAP1 PUSH1 0x4 ADD PUSH2 0x5195 JUMP JUMPDEST PUSH0 PUSH1 0x40 MLOAD DUP1 DUP4 SUB DUP2 PUSH0 DUP8 DUP1 EXTCODESIZE ISZERO DUP1 ISZERO PUSH2 0x3484 JUMPI PUSH0 PUSH0 REVERT JUMPDEST POP GAS CALL ISZERO DUP1 ISZERO PUSH2 0x3496 JUMPI RETURNDATASIZE PUSH0 PUSH0 RETURNDATACOPY RETURNDATASIZE PUSH0 REVERT JUMPDEST POP POP PUSH1 0x40 MLOAD PUSH4 0x70A08231 PUSH1 0xE0 SHL DUP2 MSTORE PUSH1 0x1 PUSH1 0x1 PUSH1 0xA0 SHL SUB DUP11 DUP2 AND PUSH1 0x4 DUP4 ADD MSTORE PUSH0 SWAP4 POP DUP14 AND SWAP2 POP PUSH4 0x70A08231 SWAP1 PUSH1 0x24 ADD PUSH1 0x20 PUSH1 0x40 MLOAD DUP1 DUP4 SUB DUP2 DUP7 GAS STATICCALL ISZERO DUP1 ISZERO PUSH2 0x34E0 JUMPI RETURNDATASIZE PUSH0 PUSH0 RETURNDATACOPY RETURNDATASIZE PUSH0 REVERT JUMPDEST POP POP POP POP PUSH1 0x40 MLOAD RETURNDATASIZE PUSH1 0x1F NOT PUSH1 0x1F DUP3 ADD AND DUP3 ADD DUP1 PUSH1 0x40 MSTORE POP DUP2 ADD SWAP1 PUSH2 0x3504 SWAP2 SWAP1 PUSH2 0x4B04 JUMP JUMPDEST SWAP1 POP PUSH2 0x3510 DUP3 DUP3 PUSH2 0x4ED9 JUMP JUMPDEST SWAP13 SWAP12 POP POP POP POP POP POP POP POP POP POP POP POP JUMP JUMPDEST PUSH1 0x37 SLOAD PUSH0 SWAP1 PUSH2 0x3531 SWAP1 PUSH1 0x1 SWAP1 PUSH2 0x4ED9 JUMP JUMPDEST DUP5 SUB PUSH2 0x3548 JUMPI PUSH2 0x3541 DUP3 DUP5 PUSH2 0x4ED9 JUMP JUMPDEST SWAP1 POP PUSH2 0x2AA7 JUMP JUMPDEST PUSH0 PUSH1 0x37 PUSH1 0x1 ADD DUP6 DUP2 SLOAD DUP2 LT PUSH2 0x355F JUMPI PUSH2 0x355F PUSH2 0x4AF0 JUMP JUMPDEST SWAP1 PUSH0 MSTORE PUSH1 0x20 PUSH0 KECCAK256 ADD SLOAD SWAP1 POP PUSH2 0x2710 DUP2 DUP6 PUSH2 0x3579 SWAP2 SWAP1 PUSH2 0x4C30 JUMP JUMPDEST PUSH2 0x1E4D SWAP2 SWAP1 PUSH2 0x4C47 JUMP JUMPDEST PUSH0 PUSH0 PUSH1 0x37 PUSH0 ADD DUP7 DUP2 SLOAD DUP2 LT PUSH2 0x359A JUMPI PUSH2 0x359A PUSH2 0x4AF0 JUMP JUMPDEST SWAP1 PUSH0 MSTORE PUSH1 0x20 PUSH0 KECCAK256 ADD PUSH0 SWAP1 SLOAD SWAP1 PUSH2 0x100 EXP SWAP1 DIV PUSH1 0x1 PUSH1 0x1 PUSH1 0xA0 SHL SUB AND SWAP1 POP PUSH0 DUP8 PUSH1 0x1 PUSH1 0x1 PUSH1 0xA0 SHL SUB AND PUSH4 0x3FC8CEF3 PUSH1 0x40 MLOAD DUP2 PUSH4 0xFFFFFFFF AND PUSH1 0xE0 SHL DUP2 MSTORE PUSH1 0x4 ADD PUSH1 0x20 PUSH1 0x40 MLOAD DUP1 DUP4 SUB DUP2 DUP7 GAS STATICCALL ISZERO DUP1 ISZERO PUSH2 0x35F4 JUMPI RETURNDATASIZE PUSH0 PUSH0 RETURNDATACOPY RETURNDATASIZE PUSH0 REVERT JUMPDEST POP POP POP POP PUSH1 0x40 MLOAD RETURNDATASIZE PUSH1 0x1F NOT PUSH1 0x1F DUP3 ADD AND DUP3 ADD DUP1 PUSH1 0x40 MSTORE POP DUP2 ADD SWAP1 PUSH2 0x3618 SWAP2 SWAP1 PUSH2 0x4AD5 JUMP JUMPDEST SWAP1 POP PUSH0 DUP9 PUSH1 0x1 PUSH1 0x1 PUSH1 0xA0 SHL SUB AND PUSH4 0xF887EA40 PUSH1 0x40 MLOAD DUP2 PUSH4 0xFFFFFFFF AND PUSH1 0xE0 SHL DUP2 MSTORE PUSH1 0x4 ADD PUSH1 0x20 PUSH1 0x40 MLOAD DUP1 DUP4 SUB DUP2 DUP7 GAS STATICCALL ISZERO DUP1 ISZERO PUSH2 0x3657 JUMPI RETURNDATASIZE PUSH0 PUSH0 RETURNDATACOPY RETURNDATASIZE PUSH0 REVERT JUMPDEST POP POP POP POP PUSH1 0x40 MLOAD RETURNDATASIZE PUSH1 0x1F NOT PUSH1 0x1F DUP3 ADD AND DUP3 ADD DUP1 PUSH1 0x40 MSTORE POP DUP2 ADD SWAP1 PUSH2 0x367B SWAP2 SWAP1 PUSH2 0x4AD5 JUMP JUMPDEST PUSH1 0x40 MLOAD PUSH4 0xD88E3E3B PUSH1 0xE0 SHL DUP2 MSTORE PUSH1 0x1 PUSH1 0x1 PUSH1 0xA0 SHL SUB DUP5 DUP2 AND PUSH1 0x4 DUP4 ADD MSTORE DUP6 DUP2 AND PUSH1 0x24 DUP4 ADD MSTORE SWAP2 SWAP3 POP PUSH0 SWAP2 DUP12 AND SWAP1 PUSH4 0xD88E3E3B SWAP1 PUSH1 0x44 ADD PUSH0 PUSH1 0x40 MLOAD DUP1 DUP4 SUB DUP2 DUP7 GAS STATICCALL ISZERO DUP1 ISZERO PUSH2 0x36CB JUMPI RETURNDATASIZE PUSH0 PUSH0 RETURNDATACOPY RETURNDATASIZE PUSH0 REVERT JUMPDEST POP POP POP POP PUSH1 0x40 MLOAD RETURNDATASIZE PUSH0 DUP3 RETURNDATACOPY PUSH1 0x1F RETURNDATASIZE SWAP1 DUP2 ADD PUSH1 0x1F NOT AND DUP3 ADD PUSH1 0x40 MSTORE PUSH2 0x36F2 SWAP2 SWAP1 DUP2 ADD SWAP1 PUSH2 0x4B3D JUMP JUMPDEST SWAP1 POP PUSH0 PUSH2 0x3701 DUP12 DUP11 DUP5 DUP12 PUSH2 0x411F JUMP JUMPDEST PUSH1 0x32 SLOAD PUSH1 0x40 MLOAD PUSH4 0x70A08231 PUSH1 0xE0 SHL DUP2 MSTORE PUSH1 0x1 PUSH1 0x1 PUSH1 0xA0 SHL SUB SWAP2 DUP3 AND PUSH1 0x4 DUP3 ADD MSTORE SWAP2 SWAP3 POP PUSH0 SWAP2 SWAP1 DUP8 AND SWAP1 PUSH4 0x70A08231 SWAP1 PUSH1 0x24 ADD PUSH1 0x20 PUSH1 0x40 MLOAD DUP1 DUP4 SUB DUP2 DUP7 GAS STATICCALL ISZERO DUP1 ISZERO PUSH2 0x374E JUMPI RETURNDATASIZE PUSH0 PUSH0 RETURNDATACOPY RETURNDATASIZE PUSH0 REVERT JUMPDEST POP POP POP POP PUSH1 0x40 MLOAD RETURNDATASIZE PUSH1 0x1F NOT PUSH1 0x1F DUP3 ADD AND DUP3 ADD DUP1 PUSH1 0x40 MSTORE POP DUP2 ADD SWAP1 PUSH2 0x3772 SWAP2 SWAP1 PUSH2 0x4B04 JUMP JUMPDEST PUSH1 0x32 SLOAD PUSH1 0x40 MLOAD PUSH4 0xB6F9DE95 PUSH1 0xE0 SHL DUP2 MSTORE SWAP2 SWAP3 POP PUSH1 0x1 PUSH1 0x1 PUSH1 0xA0 SHL SUB DUP1 DUP8 AND SWAP3 PUSH4 0xB6F9DE95 SWAP3 DUP15 SWAP3 PUSH2 0x37AD SWAP3 DUP9 SWAP3 DUP11 SWAP3 AND SWAP1 DUP16 SWAP1 PUSH1 0x4 ADD PUSH2 0x51D0 JUMP JUMPDEST PUSH0 PUSH1 0x40 MLOAD DUP1 DUP4 SUB DUP2 DUP6 DUP9 DUP1 EXTCODESIZE ISZERO DUP1 ISZERO PUSH2 0x37C4 JUMPI PUSH0 PUSH0 REVERT JUMPDEST POP GAS CALL ISZERO DUP1 ISZERO PUSH2 0x37D6 JUMPI RETURNDATASIZE PUSH0 PUSH0 RETURNDATACOPY RETURNDATASIZE PUSH0 REVERT JUMPDEST POP POP PUSH1 0x32 SLOAD PUSH1 0x40 MLOAD PUSH4 0x70A08231 PUSH1 0xE0 SHL DUP2 MSTORE PUSH1 0x1 PUSH1 0x1 PUSH1 0xA0 SHL SUB SWAP2 DUP3 AND PUSH1 0x4 DUP3 ADD MSTORE DUP6 SWAP5 POP SWAP1 DUP11 AND SWAP3 POP PUSH4 0x70A08231 SWAP2 POP PUSH1 0x24 ADD PUSH1 0x20 PUSH1 0x40 MLOAD DUP1 DUP4 SUB DUP2 DUP7 GAS STATICCALL ISZERO DUP1 ISZERO PUSH2 0x3825 JUMPI RETURNDATASIZE PUSH0 PUSH0 RETURNDATACOPY RETURNDATASIZE PUSH0 REVERT JUMPDEST POP POP POP POP PUSH1 0x40 MLOAD RETURNDATASIZE PUSH1 0x1F NOT PUSH1 0x1F DUP3 ADD AND DUP3 ADD DUP1 PUSH1 0x40 MSTORE POP DUP2 ADD SWAP1 PUSH2 0x3849 SWAP2 SWAP1 PUSH2 0x4B04 JUMP JUMPDEST PUSH2 0x3510 SWAP2 SWAP1 PUSH2 0x4ED9 JUMP JUMPDEST PUSH0 PUSH0 PUSH2 0x3867 PUSH1 0x33 SLOAD PUSH1 0x1 PUSH1 0x1 PUSH1 0xA0 SHL SUB AND SWAP1 JUMP JUMPDEST SWAP1 POP PUSH0 DUP2 PUSH1 0x1 PUSH1 0x1 PUSH1 0xA0 SHL SUB AND PUSH4 0x3FC8CEF3 PUSH1 0x40 MLOAD DUP2 PUSH4 0xFFFFFFFF AND PUSH1 0xE0 SHL DUP2 MSTORE PUSH1 0x4 ADD PUSH1 0x20 PUSH1 0x40 MLOAD DUP1 DUP4 SUB DUP2 DUP7 GAS STATICCALL ISZERO DUP1 ISZERO PUSH2 0x38A6 JUMPI RETURNDATASIZE PUSH0 PUSH0 RETURNDATACOPY RETURNDATASIZE PUSH0 REVERT JUMPDEST POP POP POP POP PUSH1 0x40 MLOAD RETURNDATASIZE PUSH1 0x1F NOT PUSH1 0x1F DUP3 ADD AND DUP3 ADD DUP1 PUSH1 0x40 MSTORE POP DUP2 ADD SWAP1 PUSH2 0x38CA SWAP2 SWAP1 PUSH2 0x4AD5 JUMP JUMPDEST SWAP1 POP PUSH0 DUP3 PUSH1 0x1 PUSH1 0x1 PUSH1 0xA0 SHL SUB AND PUSH4 0xF887EA40 PUSH1 0x40 MLOAD DUP2 PUSH4 0xFFFFFFFF AND PUSH1 0xE0 SHL DUP2 MSTORE PUSH1 0x4 ADD PUSH1 0x20 PUSH1 0x40 MLOAD DUP1 DUP4 SUB DUP2 DUP7 GAS STATICCALL ISZERO DUP1 ISZERO PUSH2 0x3909 JUMPI RETURNDATASIZE PUSH0 PUSH0 RETURNDATACOPY RETURNDATASIZE PUSH0 REVERT JUMPDEST POP POP POP POP PUSH1 0x40 MLOAD RETURNDATASIZE PUSH1 0x1F NOT PUSH1 0x1F DUP3 ADD AND DUP3 ADD DUP1 PUSH1 0x40 MSTORE POP DUP2 ADD SWAP1 PUSH2 0x392D SWAP2 SWAP1 PUSH2 0x4AD5 JUMP JUMPDEST PUSH1 0x37 SLOAD SWAP1 SWAP2 POP PUSH0 JUMPDEST DUP2 DUP2 LT ISZERO PUSH2 0x39F5 JUMPI PUSH0 PUSH1 0x37 PUSH0 ADD DUP3 DUP2 SLOAD DUP2 LT PUSH2 0x3953 JUMPI PUSH2 0x3953 PUSH2 0x4AF0 JUMP JUMPDEST PUSH0 SWAP2 DUP3 MSTORE PUSH1 0x20 DUP3 KECCAK256 ADD SLOAD PUSH1 0x40 MLOAD PUSH4 0x70A08231 PUSH1 0xE0 SHL DUP2 MSTORE ADDRESS PUSH1 0x4 DUP3 ADD MSTORE PUSH1 0x1 PUSH1 0x1 PUSH1 0xA0 SHL SUB SWAP1 SWAP2 AND SWAP3 POP DUP3 SWAP1 PUSH4 0x70A08231 SWAP1 PUSH1 0x24 ADD PUSH1 0x20 PUSH1 0x40 MLOAD DUP1 DUP4 SUB DUP2 DUP7 GAS STATICCALL ISZERO DUP1 ISZERO PUSH2 0x39A3 JUMPI RETURNDATASIZE PUSH0 PUSH0 RETURNDATACOPY RETURNDATASIZE PUSH0 REVERT JUMPDEST POP POP POP POP PUSH1 0x40 MLOAD RETURNDATASIZE PUSH1 0x1F NOT PUSH1 0x1F DUP3 ADD AND DUP3 ADD DUP1 PUSH1 0x40 MSTORE POP DUP2 ADD SWAP1 PUSH2 0x39C7 SWAP2 SWAP1 PUSH2 0x4B04 JUMP JUMPDEST SWAP1 POP DUP1 ISZERO PUSH2 0x39EB JUMPI PUSH2 0x39DE DUP3 DUP8 DUP8 DUP5 ADDRESS DUP16 DUP16 PUSH2 0x3262 JUMP JUMPDEST PUSH2 0x39E8 SWAP1 DUP10 PUSH2 0x4C02 JUMP JUMPDEST SWAP8 POP JUMPDEST POP POP PUSH1 0x1 ADD PUSH2 0x3935 JUMP JUMPDEST POP POP POP POP POP SWAP3 SWAP2 POP POP JUMP JUMPDEST PUSH0 PUSH2 0x3A13 PUSH1 0x33 SLOAD PUSH1 0x1 PUSH1 0x1 PUSH1 0xA0 SHL SUB AND SWAP1 JUMP JUMPDEST SWAP1 POP PUSH0 DUP2 PUSH1 0x1 PUSH1 0x1 PUSH1 0xA0 SHL SUB AND PUSH4 0x3FC8CEF3 PUSH1 0x40 MLOAD DUP2 PUSH4 0xFFFFFFFF AND PUSH1 0xE0 SHL DUP2 MSTORE PUSH1 0x4 ADD PUSH1 0x20 PUSH1 0x40 MLOAD DUP1 DUP4 SUB DUP2 DUP7 GAS STATICCALL ISZERO DUP1 ISZERO PUSH2 0x3A52 JUMPI RETURNDATASIZE PUSH0 PUSH0 RETURNDATACOPY RETURNDATASIZE PUSH0 REVERT JUMPDEST POP POP POP POP PUSH1 0x40 MLOAD RETURNDATASIZE PUSH1 0x1F NOT PUSH1 0x1F DUP3 ADD AND DUP3 ADD DUP1 PUSH1 0x40 MSTORE POP DUP2 ADD SWAP1 PUSH2 0x3A76 SWAP2 SWAP1 PUSH2 0x4AD5 JUMP JUMPDEST SWAP1 POP PUSH0 DUP3 PUSH1 0x1 PUSH1 0x1 PUSH1 0xA0 SHL SUB AND PUSH4 0xF887EA40 PUSH1 0x40 MLOAD DUP2 PUSH4 0xFFFFFFFF AND PUSH1 0xE0 SHL DUP2 MSTORE PUSH1 0x4 ADD PUSH1 0x20 PUSH1 0x40 MLOAD DUP1 DUP4 SUB DUP2 DUP7 GAS STATICCALL ISZERO DUP1 ISZERO PUSH2 0x3AB5 JUMPI RETURNDATASIZE PUSH0 PUSH0 RETURNDATACOPY RETURNDATASIZE PUSH0 REVERT JUMPDEST POP POP POP POP PUSH1 0x40 MLOAD RETURNDATASIZE PUSH1 0x1F NOT PUSH1 0x1F DUP3 ADD AND DUP3 ADD DUP1 PUSH1 0x40 MSTORE POP DUP2 ADD SWAP1 PUSH2 0x3AD9 SWAP2 SWAP1 PUSH2 0x4AD5 JUMP JUMPDEST DUP8 MLOAD SWAP1 SWAP2 POP PUSH0 DUP1 JUMPDEST DUP3 DUP2 LT ISZERO PUSH2 0x3B8F JUMPI PUSH0 PUSH2 0x3AF5 PUSH1 0x1 DUP6 PUSH2 0x4ED9 JUMP JUMPDEST DUP3 SUB PUSH2 0x3B0C JUMPI PUSH2 0x3B05 DUP4 DUP12 PUSH2 0x4ED9 JUMP JUMPDEST SWAP1 POP PUSH2 0x3B4D JUMP JUMPDEST PUSH2 0x2710 DUP12 DUP4 DUP2 MLOAD DUP2 LT PUSH2 0x3B21 JUMPI PUSH2 0x3B21 PUSH2 0x4AF0 JUMP JUMPDEST PUSH1 0x20 MUL PUSH1 0x20 ADD ADD MLOAD DUP12 PUSH2 0x3B34 SWAP2 SWAP1 PUSH2 0x4C30 JUMP JUMPDEST PUSH2 0x3B3E SWAP2 SWAP1 PUSH2 0x4C47 JUMP JUMPDEST SWAP1 POP PUSH2 0x3B4A DUP2 DUP5 PUSH2 0x4C02 JUMP JUMPDEST SWAP3 POP JUMPDEST PUSH2 0x3B85 DUP7 DUP14 DUP5 DUP2 MLOAD DUP2 LT PUSH2 0x3B63 JUMPI PUSH2 0x3B63 PUSH2 0x4AF0 JUMP JUMPDEST PUSH1 0x20 SWAP1 DUP2 MUL SWAP2 SWAP1 SWAP2 ADD ADD MLOAD PUSH1 0x32 SLOAD DUP9 SWAP1 DUP6 SWAP1 PUSH1 0x1 PUSH1 0x1 PUSH1 0xA0 SHL SUB AND DUP15 DUP15 PUSH2 0x3262 JUMP JUMPDEST POP POP PUSH1 0x1 ADD PUSH2 0x3AE1 JUMP JUMPDEST POP POP POP POP POP POP POP POP POP POP POP JUMP JUMPDEST PUSH0 MLOAD PUSH1 0x20 PUSH2 0x525D PUSH0 CODECOPY PUSH0 MLOAD SWAP1 PUSH0 MSTORE PUSH1 0x1 PUSH1 0x1 PUSH1 0xA0 SHL SUB DUP4 AND PUSH2 0x3BDC JUMPI PUSH1 0x40 MLOAD PUSH4 0xB611743 PUSH1 0xE3 SHL DUP2 MSTORE PUSH1 0x1 PUSH1 0x1 PUSH1 0xA0 SHL SUB DUP5 AND PUSH1 0x4 DUP3 ADD MSTORE PUSH1 0x24 ADD PUSH2 0x207 JUMP JUMPDEST PUSH1 0x1 PUSH1 0x1 PUSH1 0xA0 SHL SUB DUP5 DUP2 AND PUSH0 DUP2 DUP2 MSTORE PUSH1 0x5 DUP5 ADD PUSH1 0x20 SWAP1 DUP2 MSTORE PUSH1 0x40 DUP1 DUP4 KECCAK256 SWAP5 DUP9 AND DUP1 DUP5 MSTORE SWAP5 DUP3 MSTORE SWAP2 DUP3 SWAP1 KECCAK256 DUP1 SLOAD PUSH1 0xFF NOT AND DUP8 ISZERO ISZERO SWAP1 DUP2 OR SWAP1 SWAP2 SSTORE SWAP2 MLOAD SWAP2 DUP3 MSTORE PUSH32 0x17307EAB39AB6107E8899845AD3D59BD9653F200F220920489CA2B5937696C31 SWAP2 ADD PUSH1 0x40 MLOAD DUP1 SWAP2 SUB SWAP1 LOG3 POP POP POP POP JUMP JUMPDEST PUSH1 0x1 PUSH1 0x1 PUSH1 0xA0 SHL SUB DUP4 AND EXTCODESIZE ISZERO PUSH2 0x1C9D JUMPI PUSH1 0x40 MLOAD PUSH4 0xA85BD01 PUSH1 0xE1 SHL DUP2 MSTORE PUSH1 0x1 PUSH1 0x1 PUSH1 0xA0 SHL SUB DUP5 AND SWAP1 PUSH4 0x150B7A02 SWAP1 PUSH2 0x3C8D SWAP1 DUP9 SWAP1 DUP9 SWAP1 DUP8 SWAP1 DUP8 SWAP1 PUSH1 0x4 ADD PUSH2 0x5204 JUMP JUMPDEST PUSH1 0x20 PUSH1 0x40 MLOAD DUP1 DUP4 SUB DUP2 PUSH0 DUP8 GAS CALL SWAP3 POP POP POP DUP1 ISZERO PUSH2 0x3CC7 JUMPI POP PUSH1 0x40 DUP1 MLOAD PUSH1 0x1F RETURNDATASIZE SWAP1 DUP2 ADD PUSH1 0x1F NOT AND DUP3 ADD SWAP1 SWAP3 MSTORE PUSH2 0x3CC4 SWAP2 DUP2 ADD SWAP1 PUSH2 0x5236 JUMP JUMPDEST PUSH1 0x1 JUMPDEST PUSH2 0x3D2E JUMPI RETURNDATASIZE DUP1 DUP1 ISZERO PUSH2 0x3CF4 JUMPI PUSH1 0x40 MLOAD SWAP2 POP PUSH1 0x1F NOT PUSH1 0x3F RETURNDATASIZE ADD AND DUP3 ADD PUSH1 0x40 MSTORE RETURNDATASIZE DUP3 MSTORE RETURNDATASIZE PUSH0 PUSH1 0x20 DUP5 ADD RETURNDATACOPY PUSH2 0x3CF9 JUMP JUMPDEST PUSH1 0x60 SWAP2 POP JUMPDEST POP DUP1 MLOAD PUSH0 SUB PUSH2 0x3D26 JUMPI PUSH1 0x40 MLOAD PUSH4 0x32505749 PUSH1 0xE1 SHL DUP2 MSTORE PUSH1 0x1 PUSH1 0x1 PUSH1 0xA0 SHL SUB DUP6 AND PUSH1 0x4 DUP3 ADD MSTORE PUSH1 0x24 ADD PUSH2 0x207 JUMP JUMPDEST DUP1 MLOAD DUP2 PUSH1 0x20 ADD REVERT JUMPDEST PUSH1 0x1 PUSH1 0x1 PUSH1 0xE0 SHL SUB NOT DUP2 AND PUSH4 0xA85BD01 PUSH1 0xE1 SHL EQ PUSH2 0x18A5 JUMPI PUSH1 0x40 MLOAD PUSH4 0x32505749 PUSH1 0xE1 SHL DUP2 MSTORE PUSH1 0x1 PUSH1 0x1 PUSH1 0xA0 SHL SUB DUP6 AND PUSH1 0x4 DUP3 ADD MSTORE PUSH1 0x24 ADD PUSH2 0x207 JUMP JUMPDEST PUSH1 0x60 PUSH0 PUSH2 0x3D76 DUP4 PUSH2 0x41BD JUMP JUMPDEST PUSH1 0x1 ADD SWAP1 POP PUSH0 DUP2 PUSH1 0x1 PUSH1 0x1 PUSH1 0x40 SHL SUB DUP2 GT ISZERO PUSH2 0x3D94 JUMPI PUSH2 0x3D94 PUSH2 0x48C9 JUMP JUMPDEST PUSH1 0x40 MLOAD SWAP1 DUP1 DUP3 MSTORE DUP1 PUSH1 0x1F ADD PUSH1 0x1F NOT AND PUSH1 0x20 ADD DUP3 ADD PUSH1 0x40 MSTORE DUP1 ISZERO PUSH2 0x3DBE JUMPI PUSH1 0x20 DUP3 ADD DUP2 DUP1 CALLDATASIZE DUP4 CALLDATACOPY ADD SWAP1 POP JUMPDEST POP SWAP1 POP DUP2 DUP2 ADD PUSH1 0x20 ADD JUMPDEST PUSH0 NOT ADD PUSH16 0x181899199A1A9B1B9C1CB0B131B232B3 PUSH1 0x81 SHL PUSH1 0xA DUP7 MOD BYTE DUP2 MSTORE8 PUSH1 0xA DUP6 DIV SWAP5 POP DUP5 PUSH2 0x3DC8 JUMPI POP SWAP4 SWAP3 POP POP POP JUMP JUMPDEST PUSH0 MLOAD PUSH1 0x20 PUSH2 0x525D PUSH0 CODECOPY PUSH0 MLOAD SWAP1 PUSH0 MSTORE DUP2 DUP1 PUSH2 0x3E1B JUMPI POP PUSH1 0x1 PUSH1 0x1 PUSH1 0xA0 SHL SUB DUP4 AND ISZERO ISZERO JUMPDEST ISZERO PUSH2 0x3EDC JUMPI PUSH0 PUSH2 0x3E2A DUP6 PUSH2 0x20D9 JUMP JUMPDEST SWAP1 POP PUSH1 0x1 PUSH1 0x1 PUSH1 0xA0 SHL SUB DUP5 AND ISZERO DUP1 ISZERO SWAP1 PUSH2 0x3E56 JUMPI POP DUP4 PUSH1 0x1 PUSH1 0x1 PUSH1 0xA0 SHL SUB AND DUP2 PUSH1 0x1 PUSH1 0x1 PUSH1 0xA0 SHL SUB AND EQ ISZERO JUMPDEST DUP1 ISZERO PUSH2 0x3E69 JUMPI POP PUSH2 0x3E67 DUP2 DUP6 PUSH2 0x1FAB JUMP JUMPDEST ISZERO JUMPDEST ISZERO PUSH2 0x3E92 JUMPI PUSH1 0x40 MLOAD PUSH4 0xA9FBF51F PUSH1 0xE0 SHL DUP2 MSTORE PUSH1 0x1 PUSH1 0x1 PUSH1 0xA0 SHL SUB DUP6 AND PUSH1 0x4 DUP3 ADD MSTORE PUSH1 0x24 ADD PUSH2 0x207 JUMP JUMPDEST DUP3 ISZERO PUSH2 0x3EDA JUMPI DUP5 DUP7 PUSH1 0x1 PUSH1 0x1 PUSH1 0xA0 SHL SUB AND DUP3 PUSH1 0x1 PUSH1 0x1 PUSH1 0xA0 SHL SUB AND PUSH32 0x8C5BE1E5EBEC7D5BD14F71427D1E84F3DD0314C0F7B2291E5B200AC8C7C3B925 PUSH1 0x40 MLOAD PUSH1 0x40 MLOAD DUP1 SWAP2 SUB SWAP1 LOG4 JUMPDEST POP JUMPDEST PUSH0 SWAP4 DUP5 MSTORE PUSH1 0x4 ADD PUSH1 0x20 MSTORE POP POP PUSH1 0x40 SWAP1 KECCAK256 DUP1 SLOAD PUSH1 0x1 PUSH1 0x1 PUSH1 0xA0 SHL SUB NOT AND PUSH1 0x1 PUSH1 0x1 PUSH1 0xA0 SHL SUB SWAP3 SWAP1 SWAP3 AND SWAP2 SWAP1 SWAP2 OR SWAP1 SSTORE JUMP JUMPDEST PUSH2 0x3F17 DUP4 DUP4 DUP4 PUSH2 0x4294 JUMP JUMPDEST PUSH2 0x9B5 JUMPI PUSH1 0x1 PUSH1 0x1 PUSH1 0xA0 SHL SUB DUP4 AND PUSH2 0x3F45 JUMPI PUSH1 0x40 MLOAD PUSH4 0x7E273289 PUSH1 0xE0 SHL DUP2 MSTORE PUSH1 0x4 DUP2 ADD DUP3 SWAP1 MSTORE PUSH1 0x24 ADD PUSH2 0x207 JUMP JUMPDEST PUSH1 0x40 MLOAD PUSH4 0x177E802F PUSH1 0xE0 SHL DUP2 MSTORE PUSH1 0x1 PUSH1 0x1 PUSH1 0xA0 SHL SUB DUP4 AND PUSH1 0x4 DUP3 ADD MSTORE PUSH1 0x24 DUP2 ADD DUP3 SWAP1 MSTORE PUSH1 0x44 ADD PUSH2 0x207 JUMP JUMPDEST PUSH0 PUSH2 0x3F79 PUSH2 0x21F1 JUMP JUMPDEST SLOAD PUSH1 0x1 PUSH1 0x40 SHL SWAP1 DIV PUSH1 0xFF AND SWAP2 SWAP1 POP JUMP JUMPDEST PUSH1 0x1 PUSH1 0x1 PUSH1 0xA0 SHL SUB DUP3 AND PUSH2 0x3FB2 JUMPI PUSH1 0x40 MLOAD PUSH4 0x32505749 PUSH1 0xE1 SHL DUP2 MSTORE PUSH0 PUSH1 0x4 DUP3 ADD MSTORE PUSH1 0x24 ADD PUSH2 0x207 JUMP JUMPDEST PUSH0 PUSH2 0x3FBE DUP4 DUP4 PUSH0 PUSH2 0x3079 JUMP JUMPDEST SWAP1 POP PUSH1 0x1 PUSH1 0x1 PUSH1 0xA0 SHL SUB DUP2 AND ISZERO PUSH2 0x9B5 JUMPI PUSH1 0x40 MLOAD PUSH4 0x39E35637 PUSH1 0xE1 SHL DUP2 MSTORE PUSH0 PUSH1 0x4 DUP3 ADD MSTORE PUSH1 0x24 ADD PUSH2 0x207 JUMP JUMPDEST DUP1 ISZERO DUP1 PUSH2 0x4062 JUMPI POP PUSH1 0x40 MLOAD PUSH4 0x6EB1769F PUSH1 0xE1 SHL DUP2 MSTORE ADDRESS PUSH1 0x4 DUP3 ADD MSTORE PUSH1 0x1 PUSH1 0x1 PUSH1 0xA0 SHL SUB DUP4 DUP2 AND PUSH1 0x24 DUP4 ADD MSTORE DUP5 AND SWAP1 PUSH4 0xDD62ED3E SWAP1 PUSH1 0x44 ADD PUSH1 0x20 PUSH1 0x40 MLOAD DUP1 DUP4 SUB DUP2 DUP7 GAS STATICCALL ISZERO DUP1 ISZERO PUSH2 0x403C JUMPI RETURNDATASIZE PUSH0 PUSH0 RETURNDATACOPY RETURNDATASIZE PUSH0 REVERT JUMPDEST POP POP POP POP PUSH1 0x40 MLOAD RETURNDATASIZE PUSH1 0x1F NOT PUSH1 0x1F DUP3 ADD AND DUP3 ADD DUP1 PUSH1 0x40 MSTORE POP DUP2 ADD SWAP1 PUSH2 0x4060 SWAP2 SWAP1 PUSH2 0x4B04 JUMP JUMPDEST ISZERO JUMPDEST PUSH2 0x40CD JUMPI PUSH1 0x40 MLOAD PUSH3 0x461BCD PUSH1 0xE5 SHL DUP2 MSTORE PUSH1 0x20 PUSH1 0x4 DUP3 ADD MSTORE PUSH1 0x36 PUSH1 0x24 DUP3 ADD MSTORE PUSH32 0x5361666545524332303A20617070726F76652066726F6D206E6F6E2D7A65726F PUSH1 0x44 DUP3 ADD MSTORE PUSH22 0x20746F206E6F6E2D7A65726F20616C6C6F77616E6365 PUSH1 0x50 SHL PUSH1 0x64 DUP3 ADD MSTORE PUSH1 0x84 ADD PUSH2 0x207 JUMP JUMPDEST PUSH1 0x40 DUP1 MLOAD PUSH1 0x1 PUSH1 0x1 PUSH1 0xA0 SHL SUB DUP5 AND PUSH1 0x24 DUP3 ADD MSTORE PUSH1 0x44 DUP1 DUP3 ADD DUP5 SWAP1 MSTORE DUP3 MLOAD DUP1 DUP4 SUB SWAP1 SWAP2 ADD DUP2 MSTORE PUSH1 0x64 SWAP1 SWAP2 ADD SWAP1 SWAP2 MSTORE PUSH1 0x20 DUP2 ADD DUP1 MLOAD PUSH1 0x1 PUSH1 0x1 PUSH1 0xE0 SHL SUB AND PUSH4 0x95EA7B3 PUSH1 0xE0 SHL OR SWAP1 MSTORE PUSH2 0x9B5 SWAP1 DUP5 SWAP1 PUSH2 0x42F8 JUMP JUMPDEST PUSH0 PUSH0 DUP6 PUSH1 0x1 PUSH1 0x1 PUSH1 0xA0 SHL SUB AND PUSH4 0xD06CA61F DUP7 DUP7 PUSH1 0x40 MLOAD DUP4 PUSH4 0xFFFFFFFF AND PUSH1 0xE0 SHL DUP2 MSTORE PUSH1 0x4 ADD PUSH2 0x414F SWAP3 SWAP2 SWAP1 PUSH2 0x4BD6 JUMP JUMPDEST PUSH1 0x20 PUSH1 0x40 MLOAD DUP1 DUP4 SUB DUP2 DUP7 GAS STATICCALL ISZERO DUP1 ISZERO PUSH2 0x416A JUMPI RETURNDATASIZE PUSH0 PUSH0 RETURNDATACOPY RETURNDATASIZE PUSH0 REVERT JUMPDEST POP POP POP POP PUSH1 0x40 MLOAD RETURNDATASIZE PUSH1 0x1F NOT PUSH1 0x1F DUP3 ADD AND DUP3 ADD DUP1 PUSH1 0x40 MSTORE POP DUP2 ADD SWAP1 PUSH2 0x418E SWAP2 SWAP1 PUSH2 0x4B04 JUMP JUMPDEST SWAP1 POP PUSH2 0x2710 PUSH2 0x419D DUP5 DUP3 PUSH2 0x4ED9 JUMP JUMPDEST PUSH2 0x41A7 SWAP1 DUP4 PUSH2 0x4C30 JUMP JUMPDEST PUSH2 0x41B1 SWAP2 SWAP1 PUSH2 0x4C47 JUMP JUMPDEST SWAP2 POP POP JUMPDEST SWAP5 SWAP4 POP POP POP POP JUMP JUMPDEST PUSH0 DUP1 PUSH19 0x184F03E93FF9F4DAA797ED6E38ED64BF6A1F01 PUSH1 0x40 SHL DUP4 LT PUSH2 0x41FB JUMPI PUSH19 0x184F03E93FF9F4DAA797ED6E38ED64BF6A1F01 PUSH1 0x40 SHL DUP4 DIV SWAP3 POP PUSH1 0x40 ADD JUMPDEST PUSH14 0x4EE2D6D415B85ACEF8100000000 DUP4 LT PUSH2 0x4227 JUMPI PUSH14 0x4EE2D6D415B85ACEF8100000000 DUP4 DIV SWAP3 POP PUSH1 0x20 ADD JUMPDEST PUSH7 0x2386F26FC10000 DUP4 LT PUSH2 0x4245 JUMPI PUSH7 0x2386F26FC10000 DUP4 DIV SWAP3 POP PUSH1 0x10 ADD JUMPDEST PUSH4 0x5F5E100 DUP4 LT PUSH2 0x425D JUMPI PUSH4 0x5F5E100 DUP4 DIV SWAP3 POP PUSH1 0x8 ADD JUMPDEST PUSH2 0x2710 DUP4 LT PUSH2 0x4271 JUMPI PUSH2 0x2710 DUP4 DIV SWAP3 POP PUSH1 0x4 ADD JUMPDEST PUSH1 0x64 DUP4 LT PUSH2 0x4283 JUMPI PUSH1 0x64 DUP4 DIV SWAP3 POP PUSH1 0x2 ADD JUMPDEST PUSH1 0xA DUP4 LT PUSH2 0x601 JUMPI PUSH1 0x1 ADD SWAP3 SWAP2 POP POP JUMP JUMPDEST PUSH0 PUSH1 0x1 PUSH1 0x1 PUSH1 0xA0 SHL SUB DUP4 AND ISZERO DUP1 ISZERO SWAP1 PUSH2 0x41B5 JUMPI POP DUP3 PUSH1 0x1 PUSH1 0x1 PUSH1 0xA0 SHL SUB AND DUP5 PUSH1 0x1 PUSH1 0x1 PUSH1 0xA0 SHL SUB AND EQ DUP1 PUSH2 0x42CD JUMPI POP PUSH2 0x42CD DUP5 DUP5 PUSH2 0x1FAB JUMP JUMPDEST DUP1 PUSH2 0x41B5 JUMPI POP DUP3 PUSH1 0x1 PUSH1 0x1 PUSH1 0xA0 SHL SUB AND PUSH2 0x42E6 DUP4 PUSH2 0x2110 JUMP JUMPDEST PUSH1 0x1 PUSH1 0x1 PUSH1 0xA0 SHL SUB AND EQ SWAP5 SWAP4 POP POP POP POP JUMP JUMPDEST PUSH0 PUSH2 0x434C DUP3 PUSH1 0x40 MLOAD DUP1 PUSH1 0x40 ADD PUSH1 0x40 MSTORE DUP1 PUSH1 0x20 DUP2 MSTORE PUSH1 0x20 ADD PUSH32 0x5361666545524332303A206C6F772D6C6576656C2063616C6C206661696C6564 DUP2 MSTORE POP DUP6 PUSH1 0x1 PUSH1 0x1 PUSH1 0xA0 SHL SUB AND PUSH2 0x43CB SWAP1 SWAP3 SWAP2 SWAP1 PUSH4 0xFFFFFFFF AND JUMP JUMPDEST SWAP1 POP DUP1 MLOAD PUSH0 EQ DUP1 PUSH2 0x436C JUMPI POP DUP1 DUP1 PUSH1 0x20 ADD SWAP1 MLOAD DUP2 ADD SWAP1 PUSH2 0x436C SWAP2 SWAP1 PUSH2 0x4C15 JUMP JUMPDEST PUSH2 0x9B5 JUMPI PUSH1 0x40 MLOAD PUSH3 0x461BCD PUSH1 0xE5 SHL DUP2 MSTORE PUSH1 0x20 PUSH1 0x4 DUP3 ADD MSTORE PUSH1 0x2A PUSH1 0x24 DUP3 ADD MSTORE PUSH32 0x5361666545524332303A204552433230206F7065726174696F6E20646964206E PUSH1 0x44 DUP3 ADD MSTORE PUSH10 0x1BDD081CDD58D8D95959 PUSH1 0xB2 SHL PUSH1 0x64 DUP3 ADD MSTORE PUSH1 0x84 ADD PUSH2 0x207 JUMP JUMPDEST PUSH1 0x60 PUSH2 0x41B5 DUP5 DUP5 PUSH0 DUP6 DUP6 PUSH0 PUSH0 DUP7 PUSH1 0x1 PUSH1 0x1 PUSH1 0xA0 SHL SUB AND DUP6 DUP8 PUSH1 0x40 MLOAD PUSH2 0x43F0 SWAP2 SWAP1 PUSH2 0x5251 JUMP JUMPDEST PUSH0 PUSH1 0x40 MLOAD DUP1 DUP4 SUB DUP2 DUP6 DUP8 GAS CALL SWAP3 POP POP POP RETURNDATASIZE DUP1 PUSH0 DUP2 EQ PUSH2 0x442A JUMPI PUSH1 0x40 MLOAD SWAP2 POP PUSH1 0x1F NOT PUSH1 0x3F RETURNDATASIZE ADD AND DUP3 ADD PUSH1 0x40 MSTORE RETURNDATASIZE DUP3 MSTORE RETURNDATASIZE PUSH0 PUSH1 0x20 DUP5 ADD RETURNDATACOPY PUSH2 0x442F JUMP JUMPDEST PUSH1 0x60 SWAP2 POP JUMPDEST POP SWAP2 POP SWAP2 POP PUSH2 0x4440 DUP8 DUP4 DUP4 DUP8 PUSH2 0x444B JUMP JUMPDEST SWAP8 SWAP7 POP POP POP POP POP POP POP JUMP JUMPDEST PUSH1 0x60 DUP4 ISZERO PUSH2 0x44B9 JUMPI DUP3 MLOAD PUSH0 SUB PUSH2 0x44B2 JUMPI PUSH1 0x1 PUSH1 0x1 PUSH1 0xA0 SHL SUB DUP6 AND EXTCODESIZE PUSH2 0x44B2 JUMPI PUSH1 0x40 MLOAD PUSH3 0x461BCD PUSH1 0xE5 SHL DUP2 MSTORE PUSH1 0x20 PUSH1 0x4 DUP3 ADD MSTORE PUSH1 0x1D PUSH1 0x24 DUP3 ADD MSTORE PUSH32 0x416464726573733A2063616C6C20746F206E6F6E2D636F6E7472616374000000 PUSH1 0x44 DUP3 ADD MSTORE PUSH1 0x64 ADD PUSH2 0x207 JUMP JUMPDEST POP DUP2 PUSH2 0x41B5 JUMP JUMPDEST PUSH2 0x41B5 DUP4 DUP4 DUP2 MLOAD ISZERO PUSH2 0x44CE JUMPI DUP2 MLOAD DUP1 DUP4 PUSH1 0x20 ADD REVERT JUMPDEST DUP1 PUSH1 0x40 MLOAD PUSH3 0x461BCD PUSH1 0xE5 SHL DUP2 MSTORE PUSH1 0x4 ADD PUSH2 0x207 SWAP2 SWAP1 PUSH2 0x4683 JUMP JUMPDEST DUP3 DUP1 SLOAD DUP3 DUP3 SSTORE SWAP1 PUSH0 MSTORE PUSH1 0x20 PUSH0 KECCAK256 SWAP1 DUP2 ADD SWAP3 DUP3 ISZERO PUSH2 0x4539 JUMPI SWAP2 PUSH1 0x20 MUL DUP3 ADD JUMPDEST DUP3 DUP2 GT ISZERO PUSH2 0x4539 JUMPI DUP2 SLOAD PUSH1 0x1 PUSH1 0x1 PUSH1 0xA0 SHL SUB NOT AND PUSH1 0x1 PUSH1 0x1 PUSH1 0xA0 SHL SUB DUP5 CALLDATALOAD AND OR DUP3 SSTORE PUSH1 0x20 SWAP1 SWAP3 ADD SWAP2 PUSH1 0x1 SWAP1 SWAP2 ADD SWAP1 PUSH2 0x4506 JUMP JUMPDEST POP PUSH2 0x4545 SWAP3 SWAP2 POP PUSH2 0x460E JUMP JUMPDEST POP SWAP1 JUMP JUMPDEST DUP3 DUP1 SLOAD DUP3 DUP3 SSTORE SWAP1 PUSH0 MSTORE PUSH1 0x20 PUSH0 KECCAK256 SWAP1 DUP2 ADD SWAP3 DUP3 ISZERO PUSH2 0x4539 JUMPI SWAP2 PUSH1 0x20 MUL DUP3 ADD JUMPDEST DUP3 DUP2 GT ISZERO PUSH2 0x4539 JUMPI DUP3 CALLDATALOAD DUP3 SSTORE SWAP2 PUSH1 0x20 ADD SWAP2 SWAP1 PUSH1 0x1 ADD SWAP1 PUSH2 0x4567 JUMP JUMPDEST DUP3 DUP1 SLOAD DUP3 DUP3 SSTORE SWAP1 PUSH0 MSTORE PUSH1 0x20 PUSH0 KECCAK256 SWAP1 DUP2 ADD SWAP3 DUP3 ISZERO PUSH2 0x4539 JUMPI SWAP2 PUSH1 0x20 MUL DUP3 ADD JUMPDEST DUP3 DUP2 GT ISZERO PUSH2 0x4539 JUMPI DUP3 MLOAD DUP3 SLOAD PUSH1 0x1 PUSH1 0x1 PUSH1 0xA0 SHL SUB NOT AND PUSH1 0x1 PUSH1 0x1 PUSH1 0xA0 SHL SUB SWAP1 SWAP2 AND OR DUP3 SSTORE PUSH1 0x20 SWAP1 SWAP3 ADD SWAP2 PUSH1 0x1 SWAP1 SWAP2 ADD SWAP1 PUSH2 0x45A0 JUMP JUMPDEST DUP3 DUP1 SLOAD DUP3 DUP3 SSTORE SWAP1 PUSH0 MSTORE PUSH1 0x20 PUSH0 KECCAK256 SWAP1 DUP2 ADD SWAP3 DUP3 ISZERO PUSH2 0x4539 JUMPI SWAP2 PUSH1 0x20 MUL DUP3 ADD JUMPDEST DUP3 DUP2 GT ISZERO PUSH2 0x4539 JUMPI DUP3 MLOAD DUP3 SSTORE SWAP2 PUSH1 0x20 ADD SWAP2 SWAP1 PUSH1 0x1 ADD SWAP1 PUSH2 0x45F3 JUMP JUMPDEST JUMPDEST DUP1 DUP3 GT ISZERO PUSH2 0x4545 JUMPI PUSH0 DUP2 SSTORE PUSH1 0x1 ADD PUSH2 0x460F JUMP JUMPDEST PUSH1 0x1 PUSH1 0x1 PUSH1 0xE0 SHL SUB NOT DUP2 AND DUP2 EQ PUSH2 0x4637 JUMPI PUSH0 PUSH0 REVERT JUMPDEST POP JUMP JUMPDEST PUSH0 PUSH1 0x20 DUP3 DUP5 SUB SLT ISZERO PUSH2 0x464A JUMPI PUSH0 PUSH0 REVERT JUMPDEST DUP2 CALLDATALOAD PUSH2 0x2AA7 DUP2 PUSH2 0x4622 JUMP JUMPDEST PUSH0 DUP2 MLOAD DUP1 DUP5 MSTORE DUP1 PUSH1 0x20 DUP5 ADD PUSH1 0x20 DUP7 ADD MCOPY PUSH0 PUSH1 0x20 DUP3 DUP7 ADD ADD MSTORE PUSH1 0x20 PUSH1 0x1F NOT PUSH1 0x1F DUP4 ADD AND DUP6 ADD ADD SWAP2 POP POP SWAP3 SWAP2 POP POP JUMP JUMPDEST PUSH1 0x20 DUP2 MSTORE PUSH0 PUSH2 0x2AA7 PUSH1 0x20 DUP4 ADD DUP5 PUSH2 0x4655 JUMP JUMPDEST PUSH0 PUSH1 0x20 DUP3 DUP5 SUB SLT ISZERO PUSH2 0x46A5 JUMPI PUSH0 PUSH0 REVERT JUMPDEST POP CALLDATALOAD SWAP2 SWAP1 POP JUMP JUMPDEST PUSH1 0x1 PUSH1 0x1 PUSH1 0xA0 SHL SUB DUP2 AND DUP2 EQ PUSH2 0x4637 JUMPI PUSH0 PUSH0 REVERT JUMPDEST PUSH0 PUSH0 PUSH1 0x40 DUP4 DUP6 SUB SLT ISZERO PUSH2 0x46D1 JUMPI PUSH0 PUSH0 REVERT JUMPDEST DUP3 CALLDATALOAD PUSH2 0x46DC DUP2 PUSH2 0x46AC JUMP JUMPDEST SWAP5 PUSH1 0x20 SWAP4 SWAP1 SWAP4 ADD CALLDATALOAD SWAP4 POP POP POP JUMP JUMPDEST PUSH0 PUSH0 PUSH0 PUSH1 0x60 DUP5 DUP7 SUB SLT ISZERO PUSH2 0x46FC JUMPI PUSH0 PUSH0 REVERT JUMPDEST DUP4 CALLDATALOAD PUSH2 0x4707 DUP2 PUSH2 0x46AC JUMP JUMPDEST SWAP3 POP PUSH1 0x20 DUP5 ADD CALLDATALOAD PUSH2 0x4717 DUP2 PUSH2 0x46AC JUMP JUMPDEST SWAP3 SWAP6 SWAP3 SWAP5 POP POP POP PUSH1 0x40 SWAP2 SWAP1 SWAP2 ADD CALLDATALOAD SWAP1 JUMP JUMPDEST PUSH0 PUSH0 PUSH1 0x40 DUP4 DUP6 SUB SLT ISZERO PUSH2 0x4739 JUMPI PUSH0 PUSH0 REVERT JUMPDEST POP POP DUP1 CALLDATALOAD SWAP3 PUSH1 0x20 SWAP1 SWAP2 ADD CALLDATALOAD SWAP2 POP JUMP JUMPDEST PUSH0 PUSH1 0x20 DUP3 DUP5 SUB SLT ISZERO PUSH2 0x4758 JUMPI PUSH0 PUSH0 REVERT JUMPDEST DUP2 CALLDATALOAD PUSH1 0x1 PUSH1 0x1 PUSH1 0x40 SHL SUB DUP2 GT ISZERO PUSH2 0x476D JUMPI PUSH0 PUSH0 REVERT JUMPDEST DUP3 ADD PUSH2 0x140 DUP2 DUP6 SUB SLT ISZERO PUSH2 0x2AA7 JUMPI PUSH0 PUSH0 REVERT JUMPDEST PUSH0 PUSH0 PUSH0 PUSH1 0x60 DUP5 DUP7 SUB SLT ISZERO PUSH2 0x4791 JUMPI PUSH0 PUSH0 REVERT JUMPDEST POP POP DUP2 CALLDATALOAD SWAP4 PUSH1 0x20 DUP4 ADD CALLDATALOAD SWAP4 POP PUSH1 0x40 SWAP1 SWAP3 ADD CALLDATALOAD SWAP2 SWAP1 POP JUMP JUMPDEST PUSH0 PUSH1 0x20 DUP3 DUP5 SUB SLT ISZERO PUSH2 0x47B8 JUMPI PUSH0 PUSH0 REVERT JUMPDEST DUP2 CALLDATALOAD PUSH2 0x2AA7 DUP2 PUSH2 0x46AC JUMP JUMPDEST PUSH0 PUSH0 DUP4 PUSH1 0x1F DUP5 ADD SLT PUSH2 0x47D3 JUMPI PUSH0 PUSH0 REVERT JUMPDEST POP DUP2 CALLDATALOAD PUSH1 0x1 PUSH1 0x1 PUSH1 0x40 SHL SUB DUP2 GT ISZERO PUSH2 0x47E9 JUMPI PUSH0 PUSH0 REVERT JUMPDEST PUSH1 0x20 DUP4 ADD SWAP2 POP DUP4 PUSH1 0x20 DUP3 PUSH1 0x5 SHL DUP6 ADD ADD GT ISZERO PUSH2 0x4803 JUMPI PUSH0 PUSH0 REVERT JUMPDEST SWAP3 POP SWAP3 SWAP1 POP JUMP JUMPDEST PUSH0 PUSH0 PUSH0 PUSH0 PUSH0 PUSH0 PUSH1 0x80 DUP8 DUP10 SUB SLT ISZERO PUSH2 0x481F JUMPI PUSH0 PUSH0 REVERT JUMPDEST DUP7 CALLDATALOAD PUSH1 0x1 PUSH1 0x1 PUSH1 0x40 SHL SUB DUP2 GT ISZERO PUSH2 0x4834 JUMPI PUSH0 PUSH0 REVERT JUMPDEST PUSH2 0x4840 DUP10 DUP3 DUP11 ADD PUSH2 0x47C3 JUMP JUMPDEST SWAP1 SWAP8 POP SWAP6 POP POP PUSH1 0x20 DUP8 ADD CALLDATALOAD PUSH1 0x1 PUSH1 0x1 PUSH1 0x40 SHL SUB DUP2 GT ISZERO PUSH2 0x485E JUMPI PUSH0 PUSH0 REVERT JUMPDEST PUSH2 0x486A DUP10 DUP3 DUP11 ADD PUSH2 0x47C3 JUMP JUMPDEST SWAP8 SWAP11 SWAP7 SWAP10 POP SWAP8 PUSH1 0x40 DUP2 ADD CALLDATALOAD SWAP7 PUSH1 0x60 SWAP1 SWAP2 ADD CALLDATALOAD SWAP6 POP SWAP4 POP POP POP POP JUMP JUMPDEST DUP1 ISZERO ISZERO DUP2 EQ PUSH2 0x4637 JUMPI PUSH0 PUSH0 REVERT JUMPDEST PUSH0 PUSH0 PUSH1 0x40 DUP4 DUP6 SUB SLT ISZERO PUSH2 0x48A3 JUMPI PUSH0 PUSH0 REVERT JUMPDEST DUP3 CALLDATALOAD PUSH2 0x48AE DUP2 PUSH2 0x46AC JUMP JUMPDEST SWAP2 POP PUSH1 0x20 DUP4 ADD CALLDATALOAD PUSH2 0x48BE DUP2 PUSH2 0x4885 JUMP JUMPDEST DUP1 SWAP2 POP POP SWAP3 POP SWAP3 SWAP1 POP JUMP JUMPDEST PUSH4 0x4E487B71 PUSH1 0xE0 SHL PUSH0 MSTORE PUSH1 0x41 PUSH1 0x4 MSTORE PUSH1 0x24 PUSH0 REVERT JUMPDEST PUSH1 0x40 MLOAD PUSH1 0x1F DUP3 ADD PUSH1 0x1F NOT AND DUP2 ADD PUSH1 0x1 PUSH1 0x1 PUSH1 0x40 SHL SUB DUP2 GT DUP3 DUP3 LT OR ISZERO PUSH2 0x4905 JUMPI PUSH2 0x4905 PUSH2 0x48C9 JUMP JUMPDEST PUSH1 0x40 MSTORE SWAP2 SWAP1 POP JUMP JUMPDEST PUSH0 PUSH1 0x1 PUSH1 0x1 PUSH1 0x40 SHL SUB DUP3 GT ISZERO PUSH2 0x4925 JUMPI PUSH2 0x4925 PUSH2 0x48C9 JUMP JUMPDEST POP PUSH1 0x1F ADD PUSH1 0x1F NOT AND PUSH1 0x20 ADD SWAP1 JUMP JUMPDEST PUSH0 PUSH0 PUSH0 PUSH0 PUSH1 0x80 DUP6 DUP8 SUB SLT ISZERO PUSH2 0x4946 JUMPI PUSH0 PUSH0 REVERT JUMPDEST DUP5 CALLDATALOAD PUSH2 0x4951 DUP2 PUSH2 0x46AC JUMP JUMPDEST SWAP4 POP PUSH1 0x20 DUP6 ADD CALLDATALOAD PUSH2 0x4961 DUP2 PUSH2 0x46AC JUMP JUMPDEST SWAP3 POP PUSH1 0x40 DUP6 ADD CALLDATALOAD SWAP2 POP PUSH1 0x60 DUP6 ADD CALLDATALOAD PUSH1 0x1 PUSH1 0x1 PUSH1 0x40 SHL SUB DUP2 GT ISZERO PUSH2 0x4982 JUMPI PUSH0 PUSH0 REVERT JUMPDEST DUP6 ADD PUSH1 0x1F DUP2 ADD DUP8 SGT PUSH2 0x4992 JUMPI PUSH0 PUSH0 REVERT JUMPDEST DUP1 CALLDATALOAD PUSH2 0x49A5 PUSH2 0x49A0 DUP3 PUSH2 0x490D JUMP JUMPDEST PUSH2 0x48DD JUMP JUMPDEST DUP2 DUP2 MSTORE DUP9 PUSH1 0x20 DUP4 DUP6 ADD ADD GT ISZERO PUSH2 0x49B9 JUMPI PUSH0 PUSH0 REVERT JUMPDEST DUP2 PUSH1 0x20 DUP5 ADD PUSH1 0x20 DUP4 ADD CALLDATACOPY PUSH0 PUSH1 0x20 DUP4 DUP4 ADD ADD MSTORE DUP1 SWAP4 POP POP POP POP SWAP3 SWAP6 SWAP2 SWAP5 POP SWAP3 POP JUMP JUMPDEST PUSH0 PUSH0 PUSH1 0x40 DUP4 DUP6 SUB SLT ISZERO PUSH2 0x49EB JUMPI PUSH0 PUSH0 REVERT JUMPDEST DUP3 CALLDATALOAD PUSH2 0x49F6 DUP2 PUSH2 0x46AC JUMP JUMPDEST SWAP2 POP PUSH1 0x20 DUP4 ADD CALLDATALOAD PUSH2 0x48BE DUP2 PUSH2 0x46AC JUMP JUMPDEST PUSH0 DUP2 MLOAD DUP1 DUP5 MSTORE PUSH1 0x20 DUP5 ADD SWAP4 POP PUSH1 0x20 DUP4 ADD PUSH0 JUMPDEST DUP3 DUP2 LT ISZERO PUSH2 0x4A3F JUMPI DUP2 MLOAD PUSH1 0x1 PUSH1 0x1 PUSH1 0xA0 SHL SUB AND DUP7 MSTORE PUSH1 0x20 SWAP6 DUP7 ADD SWAP6 SWAP1 SWAP2 ADD SWAP1 PUSH1 0x1 ADD PUSH2 0x4A18 JUMP JUMPDEST POP SWAP4 SWAP5 SWAP4 POP POP POP POP JUMP JUMPDEST PUSH0 DUP2 MLOAD DUP1 DUP5 MSTORE PUSH1 0x20 DUP5 ADD SWAP4 POP PUSH1 0x20 DUP4 ADD PUSH0 JUMPDEST DUP3 DUP2 LT ISZERO PUSH2 0x4A3F JUMPI DUP2 MLOAD DUP7 MSTORE PUSH1 0x20 SWAP6 DUP7 ADD SWAP6 SWAP1 SWAP2 ADD SWAP1 PUSH1 0x1 ADD PUSH2 0x4A5B JUMP JUMPDEST PUSH1 0x40 DUP2 MSTORE PUSH0 PUSH2 0x4A8B PUSH1 0x40 DUP4 ADD DUP6 PUSH2 0x4A06 JUMP JUMPDEST DUP3 DUP2 SUB PUSH1 0x20 DUP5 ADD MSTORE PUSH2 0x1E4D DUP2 DUP6 PUSH2 0x4A49 JUMP JUMPDEST PUSH1 0x1 DUP2 DUP2 SHR SWAP1 DUP3 AND DUP1 PUSH2 0x4AB1 JUMPI PUSH1 0x7F DUP3 AND SWAP2 POP JUMPDEST PUSH1 0x20 DUP3 LT DUP2 SUB PUSH2 0x4ACF JUMPI PUSH4 0x4E487B71 PUSH1 0xE0 SHL PUSH0 MSTORE PUSH1 0x22 PUSH1 0x4 MSTORE PUSH1 0x24 PUSH0 REVERT JUMPDEST POP SWAP2 SWAP1 POP JUMP JUMPDEST PUSH0 PUSH1 0x20 DUP3 DUP5 SUB SLT ISZERO PUSH2 0x4AE5 JUMPI PUSH0 PUSH0 REVERT JUMPDEST DUP2 MLOAD PUSH2 0x2AA7 DUP2 PUSH2 0x46AC JUMP JUMPDEST PUSH4 0x4E487B71 PUSH1 0xE0 SHL PUSH0 MSTORE PUSH1 0x32 PUSH1 0x4 MSTORE PUSH1 0x24 PUSH0 REVERT JUMPDEST PUSH0 PUSH1 0x20 DUP3 DUP5 SUB SLT ISZERO PUSH2 0x4B14 JUMPI PUSH0 PUSH0 REVERT JUMPDEST POP MLOAD SWAP2 SWAP1 POP JUMP JUMPDEST PUSH0 PUSH1 0x1 PUSH1 0x1 PUSH1 0x40 SHL SUB DUP3 GT ISZERO PUSH2 0x4B33 JUMPI PUSH2 0x4B33 PUSH2 0x48C9 JUMP JUMPDEST POP PUSH1 0x5 SHL PUSH1 0x20 ADD SWAP1 JUMP JUMPDEST PUSH0 PUSH1 0x20 DUP3 DUP5 SUB SLT ISZERO PUSH2 0x4B4D JUMPI PUSH0 PUSH0 REVERT JUMPDEST DUP2 MLOAD PUSH1 0x1 PUSH1 0x1 PUSH1 0x40 SHL SUB DUP2 GT ISZERO PUSH2 0x4B62 JUMPI PUSH0 PUSH0 REVERT JUMPDEST DUP3 ADD PUSH1 0x1F DUP2 ADD DUP5 SGT PUSH2 0x4B72 JUMPI PUSH0 PUSH0 REVERT JUMPDEST DUP1 MLOAD PUSH2 0x4B80 PUSH2 0x49A0 DUP3 PUSH2 0x4B1B JUMP JUMPDEST DUP1 DUP3 DUP3 MSTORE PUSH1 0x20 DUP3 ADD SWAP2 POP PUSH1 0x20 DUP4 PUSH1 0x5 SHL DUP6 ADD ADD SWAP3 POP DUP7 DUP4 GT ISZERO PUSH2 0x4BA1 JUMPI PUSH0 PUSH0 REVERT JUMPDEST PUSH1 0x20 DUP5 ADD SWAP4 POP JUMPDEST DUP3 DUP5 LT ISZERO PUSH2 0x4BCC JUMPI DUP4 MLOAD PUSH2 0x4BBB DUP2 PUSH2 0x46AC JUMP JUMPDEST DUP3 MSTORE PUSH1 0x20 SWAP4 DUP5 ADD SWAP4 SWAP1 SWAP2 ADD SWAP1 PUSH2 0x4BA8 JUMP JUMPDEST SWAP7 SWAP6 POP POP POP POP POP POP JUMP JUMPDEST DUP3 DUP2 MSTORE PUSH1 0x40 PUSH1 0x20 DUP3 ADD MSTORE PUSH0 PUSH2 0x41B5 PUSH1 0x40 DUP4 ADD DUP5 PUSH2 0x4A06 JUMP JUMPDEST PUSH4 0x4E487B71 PUSH1 0xE0 SHL PUSH0 MSTORE PUSH1 0x11 PUSH1 0x4 MSTORE PUSH1 0x24 PUSH0 REVERT JUMPDEST DUP1 DUP3 ADD DUP1 DUP3 GT ISZERO PUSH2 0x601 JUMPI PUSH2 0x601 PUSH2 0x4BEE JUMP JUMPDEST PUSH0 PUSH1 0x20 DUP3 DUP5 SUB SLT ISZERO PUSH2 0x4C25 JUMPI PUSH0 PUSH0 REVERT JUMPDEST DUP2 MLOAD PUSH2 0x2AA7 DUP2 PUSH2 0x4885 JUMP JUMPDEST DUP1 DUP3 MUL DUP2 ISZERO DUP3 DUP3 DIV DUP5 EQ OR PUSH2 0x601 JUMPI PUSH2 0x601 PUSH2 0x4BEE JUMP JUMPDEST PUSH0 DUP3 PUSH2 0x4C61 JUMPI PUSH4 0x4E487B71 PUSH1 0xE0 SHL PUSH0 MSTORE PUSH1 0x12 PUSH1 0x4 MSTORE PUSH1 0x24 PUSH0 REVERT JUMPDEST POP DIV SWAP1 JUMP JUMPDEST PUSH0 PUSH0 DUP4 CALLDATALOAD PUSH1 0x1E NOT DUP5 CALLDATASIZE SUB ADD DUP2 SLT PUSH2 0x4C7B JUMPI PUSH0 PUSH0 REVERT JUMPDEST DUP4 ADD DUP1 CALLDATALOAD SWAP2 POP PUSH1 0x1 PUSH1 0x1 PUSH1 0x40 SHL SUB DUP3 GT ISZERO PUSH2 0x4C94 JUMPI PUSH0 PUSH0 REVERT JUMPDEST PUSH1 0x20 ADD SWAP2 POP PUSH1 0x5 DUP2 SWAP1 SHL CALLDATASIZE SUB DUP3 SGT ISZERO PUSH2 0x4803 JUMPI PUSH0 PUSH0 REVERT JUMPDEST PUSH0 PUSH0 DUP4 CALLDATALOAD PUSH1 0x1E NOT DUP5 CALLDATASIZE SUB ADD DUP2 SLT PUSH2 0x4CC0 JUMPI PUSH0 PUSH0 REVERT JUMPDEST DUP4 ADD DUP1 CALLDATALOAD SWAP2 POP PUSH1 0x1 PUSH1 0x1 PUSH1 0x40 SHL SUB DUP3 GT ISZERO PUSH2 0x4CD9 JUMPI PUSH0 PUSH0 REVERT JUMPDEST PUSH1 0x20 ADD SWAP2 POP CALLDATASIZE DUP2 SWAP1 SUB DUP3 SGT ISZERO PUSH2 0x4803 JUMPI PUSH0 PUSH0 REVERT JUMPDEST PUSH1 0x1F DUP3 GT ISZERO PUSH2 0x9B5 JUMPI DUP1 PUSH0 MSTORE PUSH1 0x20 PUSH0 KECCAK256 PUSH1 0x1F DUP5 ADD PUSH1 0x5 SHR DUP2 ADD PUSH1 0x20 DUP6 LT ISZERO PUSH2 0x4D12 JUMPI POP DUP1 JUMPDEST PUSH1 0x1F DUP5 ADD PUSH1 0x5 SHR DUP3 ADD SWAP2 POP JUMPDEST DUP2 DUP2 LT ISZERO PUSH2 0x1C9D JUMPI PUSH0 DUP2 SSTORE PUSH1 0x1 ADD PUSH2 0x4D1E JUMP JUMPDEST PUSH1 0x1 PUSH1 0x1 PUSH1 0x40 SHL SUB DUP4 GT ISZERO PUSH2 0x4D48 JUMPI PUSH2 0x4D48 PUSH2 0x48C9 JUMP JUMPDEST PUSH2 0x4D5C DUP4 PUSH2 0x4D56 DUP4 SLOAD PUSH2 0x4A9D JUMP JUMPDEST DUP4 PUSH2 0x4CED JUMP JUMPDEST PUSH0 PUSH1 0x1F DUP5 GT PUSH1 0x1 DUP2 EQ PUSH2 0x4D8D JUMPI PUSH0 DUP6 ISZERO PUSH2 0x4D76 JUMPI POP DUP4 DUP3 ADD CALLDATALOAD JUMPDEST PUSH0 NOT PUSH1 0x3 DUP8 SWAP1 SHL SHR NOT AND PUSH1 0x1 DUP7 SWAP1 SHL OR DUP4 SSTORE PUSH2 0x1C9D JUMP JUMPDEST PUSH0 DUP4 DUP2 MSTORE PUSH1 0x20 DUP2 KECCAK256 PUSH1 0x1F NOT DUP8 AND SWAP2 JUMPDEST DUP3 DUP2 LT ISZERO PUSH2 0x4DBC JUMPI DUP7 DUP6 ADD CALLDATALOAD DUP3 SSTORE PUSH1 0x20 SWAP5 DUP6 ADD SWAP5 PUSH1 0x1 SWAP1 SWAP3 ADD SWAP2 ADD PUSH2 0x4D9C JUMP JUMPDEST POP DUP7 DUP3 LT ISZERO PUSH2 0x4DD8 JUMPI PUSH0 NOT PUSH1 0xF8 DUP9 PUSH1 0x3 SHL AND SHR NOT DUP5 DUP8 ADD CALLDATALOAD AND DUP2 SSTORE JUMPDEST POP POP PUSH1 0x1 DUP6 PUSH1 0x1 SHL ADD DUP4 SSTORE POP POP POP POP POP JUMP JUMPDEST PUSH0 PUSH1 0x20 DUP3 DUP5 SUB SLT ISZERO PUSH2 0x4DFA JUMPI PUSH0 PUSH0 REVERT JUMPDEST DUP2 MLOAD PUSH1 0x1 PUSH1 0x1 PUSH1 0x40 SHL SUB DUP2 GT ISZERO PUSH2 0x4E0F JUMPI PUSH0 PUSH0 REVERT JUMPDEST DUP3 ADD PUSH1 0x1F DUP2 ADD DUP5 SGT PUSH2 0x4E1F JUMPI PUSH0 PUSH0 REVERT JUMPDEST DUP1 MLOAD PUSH2 0x4E2D PUSH2 0x49A0 DUP3 PUSH2 0x4B1B JUMP JUMPDEST DUP1 DUP3 DUP3 MSTORE PUSH1 0x20 DUP3 ADD SWAP2 POP PUSH1 0x20 DUP4 PUSH1 0x5 SHL DUP6 ADD ADD SWAP3 POP DUP7 DUP4 GT ISZERO PUSH2 0x4E4E JUMPI PUSH0 PUSH0 REVERT JUMPDEST PUSH1 0x20 DUP5 ADD SWAP4 POP JUMPDEST DUP3 DUP5 LT ISZERO PUSH2 0x4BCC JUMPI DUP4 MLOAD DUP3 MSTORE PUSH1 0x20 SWAP4 DUP5 ADD SWAP4 SWAP1 SWAP2 ADD SWAP1 PUSH2 0x4E55 JUMP JUMPDEST DUP1 MLOAD PUSH2 0xFFFF DUP2 AND DUP2 EQ PUSH2 0x4E81 JUMPI PUSH0 PUSH0 REVERT JUMPDEST SWAP2 SWAP1 POP JUMP JUMPDEST PUSH0 PUSH0 PUSH0 PUSH0 PUSH1 0x80 DUP6 DUP8 SUB SLT ISZERO PUSH2 0x4E99 JUMPI PUSH0 PUSH0 REVERT JUMPDEST PUSH2 0x4EA2 DUP6 PUSH2 0x4E70 JUMP JUMPDEST SWAP4 POP PUSH2 0x4EB0 PUSH1 0x20 DUP7 ADD PUSH2 0x4E70 JUMP JUMPDEST SWAP3 POP PUSH2 0x4EBE PUSH1 0x40 DUP7 ADD PUSH2 0x4E70 JUMP JUMPDEST SWAP2 POP PUSH1 0x60 DUP6 ADD MLOAD PUSH2 0x4ECE DUP2 PUSH2 0x46AC JUMP JUMPDEST SWAP4 SWAP7 SWAP3 SWAP6 POP SWAP1 SWAP4 POP POP JUMP JUMPDEST DUP2 DUP2 SUB DUP2 DUP2 GT ISZERO PUSH2 0x601 JUMPI PUSH2 0x601 PUSH2 0x4BEE JUMP JUMPDEST PUSH1 0x1 PUSH1 0x1 PUSH1 0xA0 SHL SUB DUP4 AND DUP2 MSTORE PUSH1 0x40 PUSH1 0x20 DUP3 ADD DUP2 SWAP1 MSTORE PUSH0 SWAP1 PUSH2 0x41B5 SWAP1 DUP4 ADD DUP5 PUSH2 0x4A49 JUMP JUMPDEST PUSH0 DUP2 SLOAD DUP1 DUP5 MSTORE PUSH1 0x20 DUP5 ADD SWAP4 POP DUP3 PUSH0 MSTORE PUSH1 0x20 PUSH0 KECCAK256 PUSH0 JUMPDEST DUP3 DUP2 LT ISZERO PUSH2 0x4A3F JUMPI DUP2 SLOAD PUSH1 0x1 PUSH1 0x1 PUSH1 0xA0 SHL SUB AND DUP7 MSTORE PUSH1 0x20 SWAP1 SWAP6 ADD SWAP5 PUSH1 0x1 SWAP2 DUP3 ADD SWAP2 ADD PUSH2 0x4F24 JUMP JUMPDEST PUSH1 0x1 PUSH1 0x1 PUSH1 0xA0 SHL SUB DUP5 AND DUP2 MSTORE PUSH1 0x60 PUSH1 0x20 DUP3 ADD DUP2 SWAP1 MSTORE PUSH0 SWAP1 PUSH2 0x4F6E SWAP1 DUP4 ADD DUP6 PUSH2 0x4F0F JUMP JUMPDEST DUP3 DUP2 SUB PUSH1 0x40 DUP5 ADD MSTORE PUSH2 0x41B1 DUP2 DUP6 PUSH2 0x4A49 JUMP JUMPDEST PUSH0 DUP2 MLOAD DUP1 PUSH1 0x20 DUP5 ADD DUP6 MCOPY PUSH0 SWAP4 ADD SWAP3 DUP4 MSTORE POP SWAP1 SWAP2 SWAP1 POP JUMP JUMPDEST PUSH0 PUSH2 0x41B5 PUSH2 0x4FA5 DUP4 DUP7 PUSH2 0x4F80 JUMP JUMPDEST DUP5 PUSH2 0x4F80 JUMP JUMPDEST PUSH0 PUSH1 0x20 DUP3 DUP5 SUB SLT ISZERO PUSH2 0x4FBB JUMPI PUSH0 PUSH0 REVERT JUMPDEST DUP2 MLOAD PUSH1 0x1 PUSH1 0x1 PUSH1 0x40 SHL SUB DUP2 GT ISZERO PUSH2 0x4FD0 JUMPI PUSH0 PUSH0 REVERT JUMPDEST DUP3 ADD PUSH1 0x1F DUP2 ADD DUP5 SGT PUSH2 0x4FE0 JUMPI PUSH0 PUSH0 REVERT JUMPDEST DUP1 MLOAD PUSH2 0x4FEE PUSH2 0x49A0 DUP3 PUSH2 0x490D JUMP JUMPDEST DUP2 DUP2 MSTORE DUP6 PUSH1 0x20 DUP4 DUP6 ADD ADD GT ISZERO PUSH2 0x5002 JUMPI PUSH0 PUSH0 REVERT JUMPDEST DUP2 PUSH1 0x20 DUP5 ADD PUSH1 0x20 DUP4 ADD MCOPY PUSH0 SWAP2 DUP2 ADD PUSH1 0x20 ADD SWAP2 SWAP1 SWAP2 MSTORE SWAP5 SWAP4 POP POP POP POP JUMP JUMPDEST PUSH0 PUSH1 0x20 DUP3 DUP5 SUB SLT ISZERO PUSH2 0x502F JUMPI PUSH0 PUSH0 REVERT JUMPDEST PUSH2 0x2AA7 DUP3 PUSH2 0x4E70 JUMP JUMPDEST DUP2 MLOAD PUSH1 0x1 PUSH1 0x1 PUSH1 0x40 SHL SUB DUP2 GT ISZERO PUSH2 0x5051 JUMPI PUSH2 0x5051 PUSH2 0x48C9 JUMP JUMPDEST PUSH2 0x5065 DUP2 PUSH2 0x505F DUP5 SLOAD PUSH2 0x4A9D JUMP JUMPDEST DUP5 PUSH2 0x4CED JUMP JUMPDEST PUSH1 0x20 PUSH1 0x1F DUP3 GT PUSH1 0x1 DUP2 EQ PUSH2 0x5097 JUMPI PUSH0 DUP4 ISZERO PUSH2 0x5080 JUMPI POP DUP5 DUP3 ADD MLOAD JUMPDEST PUSH0 NOT PUSH1 0x3 DUP6 SWAP1 SHL SHR NOT AND PUSH1 0x1 DUP5 SWAP1 SHL OR DUP5 SSTORE PUSH2 0x1C9D JUMP JUMPDEST PUSH0 DUP5 DUP2 MSTORE PUSH1 0x20 DUP2 KECCAK256 PUSH1 0x1F NOT DUP6 AND SWAP2 JUMPDEST DUP3 DUP2 LT ISZERO PUSH2 0x50C6 JUMPI DUP8 DUP6 ADD MLOAD DUP3 SSTORE PUSH1 0x20 SWAP5 DUP6 ADD SWAP5 PUSH1 0x1 SWAP1 SWAP3 ADD SWAP2 ADD PUSH2 0x50A6 JUMP JUMPDEST POP DUP5 DUP3 LT ISZERO PUSH2 0x50E3 JUMPI DUP7 DUP5 ADD MLOAD PUSH0 NOT PUSH1 0x3 DUP8 SWAP1 SHL PUSH1 0xF8 AND SHR NOT AND DUP2 SSTORE JUMPDEST POP POP POP POP PUSH1 0x1 SWAP1 DUP2 SHL ADD SWAP1 SSTORE POP JUMP JUMPDEST PUSH1 0x1 PUSH1 0x1 PUSH1 0xA0 SHL SUB DUP7 AND DUP2 MSTORE PUSH1 0xA0 PUSH1 0x20 DUP3 ADD DUP2 SWAP1 MSTORE PUSH0 SWAP1 PUSH2 0x5115 SWAP1 DUP4 ADD DUP8 PUSH2 0x4F0F JUMP JUMPDEST DUP3 DUP2 SUB PUSH1 0x40 DUP5 ADD MSTORE DUP6 SLOAD DUP1 DUP3 MSTORE PUSH0 DUP8 DUP2 MSTORE PUSH1 0x20 DUP1 DUP3 KECCAK256 SWAP4 ADD SWAP2 SWAP1 JUMPDEST DUP2 DUP2 LT ISZERO PUSH2 0x514E JUMPI DUP4 SLOAD DUP4 MSTORE PUSH1 0x1 SWAP4 DUP5 ADD SWAP4 PUSH1 0x20 SWAP1 SWAP4 ADD SWAP3 ADD PUSH2 0x5130 JUMP JUMPDEST POP POP DUP4 DUP2 SUB PUSH1 0x60 DUP6 ADD MSTORE PUSH2 0x5162 DUP2 DUP8 PUSH2 0x4A06 JUMP JUMPDEST SWAP2 POP POP DUP3 DUP2 SUB PUSH1 0x80 DUP5 ADD MSTORE PUSH2 0x5177 DUP2 DUP6 PUSH2 0x4A49 JUMP JUMPDEST SWAP9 SWAP8 POP POP POP POP POP POP POP POP JUMP JUMPDEST PUSH1 0x20 DUP2 MSTORE PUSH0 PUSH2 0x2AA7 PUSH1 0x20 DUP4 ADD DUP5 PUSH2 0x4A06 JUMP JUMPDEST DUP6 DUP2 MSTORE DUP5 PUSH1 0x20 DUP3 ADD MSTORE PUSH1 0xA0 PUSH1 0x40 DUP3 ADD MSTORE PUSH0 PUSH2 0x51B3 PUSH1 0xA0 DUP4 ADD DUP7 PUSH2 0x4A06 JUMP JUMPDEST PUSH1 0x1 PUSH1 0x1 PUSH1 0xA0 SHL SUB SWAP5 SWAP1 SWAP5 AND PUSH1 0x60 DUP4 ADD MSTORE POP PUSH1 0x80 ADD MSTORE SWAP4 SWAP3 POP POP POP JUMP JUMPDEST DUP5 DUP2 MSTORE PUSH1 0x80 PUSH1 0x20 DUP3 ADD MSTORE PUSH0 PUSH2 0x51E8 PUSH1 0x80 DUP4 ADD DUP7 PUSH2 0x4A06 JUMP JUMPDEST PUSH1 0x1 PUSH1 0x1 PUSH1 0xA0 SHL SUB SWAP5 SWAP1 SWAP5 AND PUSH1 0x40 DUP4 ADD MSTORE POP PUSH1 0x60 ADD MSTORE SWAP3 SWAP2 POP POP JUMP JUMPDEST PUSH1 0x1 PUSH1 0x1 PUSH1 0xA0 SHL SUB DUP6 DUP2 AND DUP3 MSTORE DUP5 AND PUSH1 0x20 DUP3 ADD MSTORE PUSH1 0x40 DUP2 ADD DUP4 SWAP1 MSTORE PUSH1 0x80 PUSH1 0x60 DUP3 ADD DUP2 SWAP1 MSTORE PUSH0 SWAP1 PUSH2 0x4BCC SWAP1 DUP4 ADD DUP5 PUSH2 0x4655 JUMP JUMPDEST PUSH0 PUSH1 0x20 DUP3 DUP5 SUB SLT ISZERO PUSH2 0x5246 JUMPI PUSH0 PUSH0 REVERT JUMPDEST DUP2 MLOAD PUSH2 0x2AA7 DUP2 PUSH2 0x4622 JUMP JUMPDEST PUSH0 PUSH2 0x2AA7 DUP3 DUP5 PUSH2 0x4F80 JUMP INVALID DUP1 0xBB 0x2B PUSH4 0x8CC20BC4 0xD0 0xA6 0xD PUSH7 0x940F3AB4A00C1D PUSH28 0x313497CA82FB0B4AB0079300A264697066735822122005568620A5EF SWAP8 0xC1 PUSH10 0x5A5A0261D197CC3406E0 MLOAD 0x2D SWAP6 SWAP4 LOG4 SDIV LT TIMESTAMP JUMP PUSH23 0xD29D0964736F6C634300081E0033000000000000000000 "
		},
		"gasEstimates": {
			"creation": {
				"codeDepositCost": "4234000",
				"executionCost": "4876",
				"totalCost": "4238876"
			},
			"external": {
				"PERCENT_PRECISION()": "304",
				"approve(address,uint256)": "infinite",
				"balanceOf(address)": "infinite",
				"btsPair()": "2447",
				"claimFee(uint256,uint256,uint256)": "infinite",
				"contractURI()": "infinite",
				"contribute(uint256,uint256)": "infinite",
				"description()": "infinite",
				"emergencyStable(address[],uint256[],uint256,uint256)": "infinite",
				"factory()": "2403",
				"getApproved(uint256)": "infinite",
				"getOwner()": "infinite",
				"getTokenDetails()": "infinite",
				"getTokenDetails(uint256)": "11125",
				"getTokenValueByWETH()": "infinite",
				"id()": "infinite",
				"initialize((string,string,address,address,address[],uint256[],address,string,string,string))": "infinite",
				"isApprovedForAll(address,address)": "infinite",
				"name()": "infinite",
				"ownerOf(uint256)": "infinite",
				"rebalance(address[],uint256[],uint256,uint256)": "infinite",
				"royaltyInfo(uint256,uint256)": "infinite",
				"safeTransferFrom(address,address,uint256)": "infinite",
				"safeTransferFrom(address,address,uint256,bytes)": "infinite",
				"setApprovalForAll(address,bool)": "infinite",
				"supportsInterface(bytes4)": "infinite",
				"symbol()": "infinite",
				"tokenURI(uint256)": "infinite",
				"totalTokens()": "2358",
				"transferFrom(address,address,uint256)": "infinite",
				"withdraw(uint256,uint256,uint256)": "infinite",
				"withdrawETH(uint256,uint256,uint256)": "infinite"
			},
			"internal": {
				"_calculateAmountInMin(uint256,uint256,uint256)": "infinite",
				"_checkForDuplicateAddress(address[] memory,address,uint256)": "infinite",
				"_checkValidTokensAndWeights(address[] memory,uint256[] memory)": "infinite",
				"_distributeWETHIntoNewTokens(address[] memory,uint256[] memory,uint256,uint256,uint256)": "infinite",
				"_factory()": "infinite",
				"_getAmountOutMin(contract IFactory,uint256,address[] memory,uint256)": "infinite",
				"_handleFee(uint256,uint256,address)": "infinite",
				"_rebalance(address[] memory,uint256[] memory,uint256,bool,uint256)": "infinite",
				"_registerInterface(bytes4)": "infinite",
				"_swapETHToTokens(contract IFactory,uint256,uint256,uint256)": "infinite",
				"_swapSingleToken(contract IFactory,uint256,uint256,uint256,uint256)": "infinite",
				"_swapTokensForTokens(address,address,address,uint256,address,uint256,uint256)": "infinite",
				"_tokensToEth(contract IFactory,uint256[] memory,address payable,uint256,uint256)": "infinite",
				"_withdraw(uint256,address)": "infinite",
				"_withdrawAllTokensToWETH(uint256,uint256)": "infinite",
				"isContractAddress(address)": "2649"
			}
		},
		"methodIdentifiers": {
			"PERCENT_PRECISION()": "ffe8e372",
			"approve(address,uint256)": "095ea7b3",
			"balanceOf(address)": "70a08231",
			"btsPair()": "baa888b3",
			"claimFee(uint256,uint256,uint256)": "4c306528",
			"contractURI()": "e8a3d485",
			"contribute(uint256,uint256)": "8c590917",
			"description()": "7284e416",
			"emergencyStable(address[],uint256[],uint256,uint256)": "d32429ce",
			"factory()": "c45a0155",
			"getApproved(uint256)": "081812fc",
			"getOwner()": "893d20e8",
			"getTokenDetails()": "ff332ab7",
			"getTokenDetails(uint256)": "c1e03728",
			"getTokenValueByWETH()": "083c01f3",
			"id()": "af640d0f",
			"initialize((string,string,address,address,address[],uint256[],address,string,string,string))": "478ecd90",
			"isApprovedForAll(address,address)": "e985e9c5",
			"name()": "06fdde03",
			"ownerOf(uint256)": "6352211e",
			"rebalance(address[],uint256[],uint256,uint256)": "9ff253f9",
			"royaltyInfo(uint256,uint256)": "2a55205a",
			"safeTransferFrom(address,address,uint256)": "42842e0e",
			"safeTransferFrom(address,address,uint256,bytes)": "b88d4fde",
			"setApprovalForAll(address,bool)": "a22cb465",
			"supportsInterface(bytes4)": "01ffc9a7",
			"symbol()": "95d89b41",
			"tokenURI(uint256)": "c87b56dd",
			"totalTokens()": "7e1c0c09",
			"transferFrom(address,address,uint256)": "23b872dd",
			"withdraw(uint256,uint256,uint256)": "a41fe49f",
			"withdrawETH(uint256,uint256,uint256)": "87244b9c"
		}
	},
	"abi": [
		{
			"inputs": [],
			"name": "ContractNotWhitelisted",
			"type": "error"
		},
		{
			"inputs": [
				{
					"internalType": "uint256",
					"name": "deadline",
					"type": "uint256"
				}
			],
			"name": "DeadlineInPast",
			"type": "error"
		},
		{
			"inputs": [],
			"name": "DuplicateToken",
			"type": "error"
		},
		{
			"inputs": [
				{
					"internalType": "address",
					"name": "sender",
					"type": "address"
				},
				{
					"internalType": "uint256",
					"name": "tokenId",
					"type": "uint256"
				},
				{
					"internalType": "address",
					"name": "owner",
					"type": "address"
				}
			],
			"name": "ERC721IncorrectOwner",
			"type": "error"
		},
		{
			"inputs": [
				{
					"internalType": "address",
					"name": "operator",
					"type": "address"
				},
				{
					"internalType": "uint256",
					"name": "tokenId",
					"type": "uint256"
				}
			],
			"name": "ERC721InsufficientApproval",
			"type": "error"
		},
		{
			"inputs": [
				{
					"internalType": "address",
					"name": "approver",
					"type": "address"
				}
			],
			"name": "ERC721InvalidApprover",
			"type": "error"
		},
		{
			"inputs": [
				{
					"internalType": "address",
					"name": "operator",
					"type": "address"
				}
			],
			"name": "ERC721InvalidOperator",
			"type": "error"
		},
		{
			"inputs": [
				{
					"internalType": "address",
					"name": "owner",
					"type": "address"
				}
			],
			"name": "ERC721InvalidOwner",
			"type": "error"
		},
		{
			"inputs": [
				{
					"internalType": "address",
					"name": "receiver",
					"type": "address"
				}
			],
			"name": "ERC721InvalidReceiver",
			"type": "error"
		},
		{
			"inputs": [
				{
					"internalType": "address",
					"name": "sender",
					"type": "address"
				}
			],
			"name": "ERC721InvalidSender",
			"type": "error"
		},
		{
			"inputs": [
				{
					"internalType": "uint256",
					"name": "tokenId",
					"type": "uint256"
				}
			],
			"name": "ERC721NonexistentToken",
			"type": "error"
		},
		{
			"inputs": [
				{
					"internalType": "uint256",
					"name": "provided",
					"type": "uint256"
				},
				{
					"internalType": "uint256",
					"name": "required",
					"type": "uint256"
				}
			],
			"name": "InsufficientAlvaPercentage",
			"type": "error"
		},
		{
			"inputs": [
				{
					"internalType": "uint256",
					"name": "provided",
					"type": "uint256"
				},
				{
					"internalType": "uint256",
					"name": "minRequired",
					"type": "uint256"
				},
				{
					"internalType": "uint256",
					"name": "maxAllowed",
					"type": "uint256"
				}
			],
			"name": "InvalidBuffer",
			"type": "error"
		},
		{
			"inputs": [
				{
					"internalType": "address",
					"name": "target",
					"type": "address"
				}
			],
			"name": "InvalidContractAddress",
			"type": "error"
		},
		{
			"inputs": [],
			"name": "InvalidEmergencyParams",
			"type": "error"
		},
		{
			"inputs": [],
			"name": "InvalidInitialization",
			"type": "error"
		},
		{
			"inputs": [],
			"name": "InvalidInterfaceId",
			"type": "error"
		},
		{
			"inputs": [],
			"name": "InvalidLength",
			"type": "error"
		},
		{
			"inputs": [],
			"name": "InvalidOwner",
			"type": "error"
		},
		{
			"inputs": [],
			"name": "InvalidToken",
			"type": "error"
		},
		{
			"inputs": [],
			"name": "InvalidWeight",
			"type": "error"
		},
		{
			"inputs": [],
			"name": "InvalidWithdrawalAmount",
			"type": "error"
		},
		{
			"inputs": [],
			"name": "NoAlvaTokenIncluded",
			"type": "error"
		},
		{
			"inputs": [],
			"name": "NotInitializing",
			"type": "error"
		},
		{
			"inputs": [
				{
					"internalType": "uint256",
					"name": "index",
					"type": "uint256"
				},
				{
					"internalType": "uint256",
					"name": "length",
					"type": "uint256"
				}
			],
			"name": "TokenIndexOutOfBounds",
			"type": "error"
		},
		{
			"inputs": [
				{
					"internalType": "address",
					"name": "sender",
					"type": "address"
				}
			],
			"name": "UnauthorizedSender",
			"type": "error"
		},
		{
			"inputs": [],
			"name": "ZeroContributionAmount",
			"type": "error"
		},
		{
			"inputs": [],
			"name": "ZeroTokenWeight",
			"type": "error"
		},
		{
			"anonymous": false,
			"inputs": [
				{
					"indexed": true,
					"internalType": "address",
					"name": "owner",
					"type": "address"
				},
				{
					"indexed": true,
					"internalType": "address",
					"name": "approved",
					"type": "address"
				},
				{
					"indexed": true,
					"internalType": "uint256",
					"name": "tokenId",
					"type": "uint256"
				}
			],
			"name": "Approval",
			"type": "event"
		},
		{
			"anonymous": false,
			"inputs": [
				{
					"indexed": true,
					"internalType": "address",
					"name": "owner",
					"type": "address"
				},
				{
					"indexed": true,
					"internalType": "address",
					"name": "operator",
					"type": "address"
				},
				{
					"indexed": false,
					"internalType": "bool",
					"name": "approved",
					"type": "bool"
				}
			],
			"name": "ApprovalForAll",
			"type": "event"
		},
		{
			"anonymous": false,
			"inputs": [
				{
					"indexed": false,
					"internalType": "address",
					"name": "bts",
					"type": "address"
				},
				{
					"indexed": false,
					"internalType": "address[]",
					"name": "oldtokens",
					"type": "address[]"
				},
				{
					"indexed": false,
					"internalType": "uint256[]",
					"name": "oldWeights",
					"type": "uint256[]"
				},
				{
					"indexed": false,
					"internalType": "address[]",
					"name": "newTokens",
					"type": "address[]"
				},
				{
					"indexed": false,
					"internalType": "uint256[]",
					"name": "newWeights",
					"type": "uint256[]"
				}
			],
			"name": "BTSRebalanced",
			"type": "event"
		},
		{
			"anonymous": false,
			"inputs": [
				{
					"indexed": false,
					"internalType": "uint256",
					"name": "_fromTokenId",
					"type": "uint256"
				},
				{
					"indexed": false,
					"internalType": "uint256",
					"name": "_toTokenId",
					"type": "uint256"
				}
			],
			"name": "BatchMetadataUpdate",
			"type": "event"
		},
		{
			"anonymous": false,
			"inputs": [
				{
					"indexed": false,
					"internalType": "address",
					"name": "bts",
					"type": "address"
				},
				{
					"indexed": true,
					"internalType": "address",
					"name": "sender",
					"type": "address"
				},
				{
					"indexed": false,
					"internalType": "uint256",
					"name": "amount",
					"type": "uint256"
				}
			],
			"name": "ContributedToBTS",
			"type": "event"
		},
		{
			"anonymous": false,
			"inputs": [
				{
					"indexed": true,
					"internalType": "address",
					"name": "bts",
					"type": "address"
				},
				{
					"indexed": true,
					"internalType": "address",
					"name": "manager",
					"type": "address"
				},
				{
					"indexed": false,
					"internalType": "uint256",
					"name": "lpAmount",
					"type": "uint256"
				},
				{
					"indexed": false,
					"internalType": "uint256",
					"name": "ethAmount",
					"type": "uint256"
				}
			],
			"name": "FeeClaimed",
			"type": "event"
		},
		{
			"anonymous": false,
			"inputs": [
				{
					"indexed": false,
					"internalType": "uint64",
					"name": "version",
					"type": "uint64"
				}
			],
			"name": "Initialized",
			"type": "event"
		},
		{
			"anonymous": false,
			"inputs": [
				{
					"indexed": false,
					"internalType": "uint256",
					"name": "_tokenId",
					"type": "uint256"
				}
			],
			"name": "MetadataUpdate",
			"type": "event"
		},
		{
			"anonymous": false,
			"inputs": [
				{
					"indexed": false,
					"internalType": "uint256",
					"name": "feeAmount",
					"type": "uint256"
				},
				{
					"indexed": false,
					"internalType": "uint256",
					"name": "feePercent",
					"type": "uint256"
				},
				{
					"indexed": true,
					"internalType": "address",
					"name": "feeCollector",
					"type": "address"
				},
				{
					"indexed": false,
					"internalType": "string",
					"name": "action",
					"type": "string"
				}
			],
			"name": "PlatformFeeDeducted",
			"type": "event"
		},
		{
			"anonymous": false,
			"inputs": [
				{
					"indexed": true,
					"internalType": "address",
					"name": "from",
					"type": "address"
				},
				{
					"indexed": true,
					"internalType": "address",
					"name": "to",
					"type": "address"
				},
				{
					"indexed": true,
					"internalType": "uint256",
					"name": "tokenId",
					"type": "uint256"
				}
			],
			"name": "Transfer",
			"type": "event"
		},
		{
			"anonymous": false,
			"inputs": [
				{
					"indexed": false,
					"internalType": "address",
					"name": "bts",
					"type": "address"
				},
				{
					"indexed": true,
					"internalType": "address",
					"name": "sender",
					"type": "address"
				},
				{
					"indexed": false,
					"internalType": "uint256",
					"name": "amount",
					"type": "uint256"
				}
			],
			"name": "WithdrawnETHFromBTS",
			"type": "event"
		},
		{
			"anonymous": false,
			"inputs": [
				{
					"indexed": false,
					"internalType": "address",
					"name": "bts",
					"type": "address"
				},
				{
					"indexed": true,
					"internalType": "address",
					"name": "sender",
					"type": "address"
				},
				{
					"indexed": false,
					"internalType": "address[]",
					"name": "tokens",
					"type": "address[]"
				},
				{
					"indexed": false,
					"internalType": "uint256[]",
					"name": "amounts",
					"type": "uint256[]"
				}
			],
			"name": "WithdrawnFromBTS",
			"type": "event"
		},
		{
			"inputs": [],
			"name": "PERCENT_PRECISION",
			"outputs": [
				{
					"internalType": "uint256",
					"name": "",
					"type": "uint256"
				}
			],
			"stateMutability": "view",
			"type": "function"
		},
		{
			"inputs": [
				{
					"internalType": "address",
					"name": "to",
					"type": "address"
				},
				{
					"internalType": "uint256",
					"name": "tokenId",
					"type": "uint256"
				}
			],
			"name": "approve",
			"outputs": [],
			"stateMutability": "nonpayable",
			"type": "function"
		},
		{
			"inputs": [
				{
					"internalType": "address",
					"name": "owner",
					"type": "address"
				}
			],
			"name": "balanceOf",
			"outputs": [
				{
					"internalType": "uint256",
					"name": "",
					"type": "uint256"
				}
			],
			"stateMutability": "view",
			"type": "function"
		},
		{
			"inputs": [],
			"name": "btsPair",
			"outputs": [
				{
					"internalType": "address",
					"name": "",
					"type": "address"
				}
			],
			"stateMutability": "view",
			"type": "function"
		},
		{
			"inputs": [
				{
					"internalType": "uint256",
					"name": "amount",
					"type": "uint256"
				},
				{
					"internalType": "uint256",
					"name": "_buffer",
					"type": "uint256"
				},
				{
					"internalType": "uint256",
					"name": "_deadline",
					"type": "uint256"
				}
			],
			"name": "claimFee",
			"outputs": [],
			"stateMutability": "nonpayable",
			"type": "function"
		},
		{
			"inputs": [],
			"name": "contractURI",
			"outputs": [
				{
					"internalType": "string",
					"name": "",
					"type": "string"
				}
			],
			"stateMutability": "view",
			"type": "function"
		},
		{
			"inputs": [
				{
					"internalType": "uint256",
					"name": "_buffer",
					"type": "uint256"
				},
				{
					"internalType": "uint256",
					"name": "_deadline",
					"type": "uint256"
				}
			],
			"name": "contribute",
			"outputs": [],
			"stateMutability": "payable",
			"type": "function"
		},
		{
			"inputs": [],
			"name": "description",
			"outputs": [
				{
					"internalType": "string",
					"name": "",
					"type": "string"
				}
			],
			"stateMutability": "view",
			"type": "function"
		},
		{
			"inputs": [
				{
					"internalType": "address[]",
					"name": "_newTokens",
					"type": "address[]"
				},
				{
					"internalType": "uint256[]",
					"name": "_newWeights",
					"type": "uint256[]"
				},
				{
					"internalType": "uint256",
					"name": "_buffer",
					"type": "uint256"
				},
				{
					"internalType": "uint256",
					"name": "_deadline",
					"type": "uint256"
				}
			],
			"name": "emergencyStable",
			"outputs": [],
			"stateMutability": "nonpayable",
			"type": "function"
		},
		{
			"inputs": [],
			"name": "factory",
			"outputs": [
				{
					"internalType": "address",
					"name": "",
					"type": "address"
				}
			],
			"stateMutability": "view",
			"type": "function"
		},
		{
			"inputs": [
				{
					"internalType": "uint256",
					"name": "tokenId",
					"type": "uint256"
				}
			],
			"name": "getApproved",
			"outputs": [
				{
					"internalType": "address",
					"name": "",
					"type": "address"
				}
			],
			"stateMutability": "view",
			"type": "function"
		},
		{
			"inputs": [],
			"name": "getOwner",
			"outputs": [
				{
					"internalType": "address",
					"name": "owner",
					"type": "address"
				}
			],
			"stateMutability": "view",
			"type": "function"
		},
		{
			"inputs": [
				{
					"internalType": "uint256",
					"name": "_index",
					"type": "uint256"
				}
			],
			"name": "getTokenDetails",
			"outputs": [
				{
					"internalType": "address",
					"name": "token",
					"type": "address"
				},
				{
					"internalType": "uint256",
					"name": "weight",
					"type": "uint256"
				}
			],
			"stateMutability": "view",
			"type": "function"
		},
		{
			"inputs": [],
			"name": "getTokenDetails",
			"outputs": [
				{
					"internalType": "address[]",
					"name": "tokens",
					"type": "address[]"
				},
				{
					"internalType": "uint256[]",
					"name": "weights",
					"type": "uint256[]"
				}
			],
			"stateMutability": "view",
			"type": "function"
		},
		{
			"inputs": [],
			"name": "getTokenValueByWETH",
			"outputs": [
				{
					"internalType": "uint256",
					"name": "value",
					"type": "uint256"
				}
			],
			"stateMutability": "view",
			"type": "function"
		},
		{
			"inputs": [],
			"name": "id",
			"outputs": [
				{
					"internalType": "string",
					"name": "",
					"type": "string"
				}
			],
			"stateMutability": "view",
			"type": "function"
		},
		{
			"inputs": [
				{
					"components": [
						{
							"internalType": "string",
							"name": "_name",
							"type": "string"
						},
						{
							"internalType": "string",
							"name": "_symbol",
							"type": "string"
						},
						{
							"internalType": "address",
							"name": "_owner",
							"type": "address"
						},
						{
							"internalType": "address",
							"name": "_factoryAddress",
							"type": "address"
						},
						{
							"internalType": "address[]",
							"name": "_tokens",
							"type": "address[]"
						},
						{
							"internalType": "uint256[]",
							"name": "_weights",
							"type": "uint256[]"
						},
						{
							"internalType": "address",
							"name": "_btsPair",
							"type": "address"
						},
						{
							"internalType": "string",
							"name": "_tokenURI",
							"type": "string"
						},
						{
							"internalType": "string",
							"name": "_id",
							"type": "string"
						},
						{
							"internalType": "string",
							"name": "_description",
							"type": "string"
						}
					],
					"internalType": "struct IBTS.InitParams",
					"name": "params",
					"type": "tuple"
				}
			],
			"name": "initialize",
			"outputs": [],
			"stateMutability": "nonpayable",
			"type": "function"
		},
		{
			"inputs": [
				{
					"internalType": "address",
					"name": "owner",
					"type": "address"
				},
				{
					"internalType": "address",
					"name": "operator",
					"type": "address"
				}
			],
			"name": "isApprovedForAll",
			"outputs": [
				{
					"internalType": "bool",
					"name": "",
					"type": "bool"
				}
			],
			"stateMutability": "view",
			"type": "function"
		},
		{
			"inputs": [],
			"name": "name",
			"outputs": [
				{
					"internalType": "string",
					"name": "",
					"type": "string"
				}
			],
			"stateMutability": "view",
			"type": "function"
		},
		{
			"inputs": [
				{
					"internalType": "uint256",
					"name": "tokenId",
					"type": "uint256"
				}
			],
			"name": "ownerOf",
			"outputs": [
				{
					"internalType": "address",
					"name": "",
					"type": "address"
				}
			],
			"stateMutability": "view",
			"type": "function"
		},
		{
			"inputs": [
				{
					"internalType": "address[]",
					"name": "_newTokens",
					"type": "address[]"
				},
				{
					"internalType": "uint256[]",
					"name": "_newWeights",
					"type": "uint256[]"
				},
				{
					"internalType": "uint256",
					"name": "_buffer",
					"type": "uint256"
				},
				{
					"internalType": "uint256",
					"name": "_deadline",
					"type": "uint256"
				}
			],
			"name": "rebalance",
			"outputs": [],
			"stateMutability": "nonpayable",
			"type": "function"
		},
		{
			"inputs": [
				{
					"internalType": "uint256",
					"name": "",
					"type": "uint256"
				},
				{
					"internalType": "uint256",
					"name": "_salePrice",
					"type": "uint256"
				}
			],
			"name": "royaltyInfo",
			"outputs": [
				{
					"internalType": "address",
					"name": "receiver",
					"type": "address"
				},
				{
					"internalType": "uint256",
					"name": "royaltyAmount",
					"type": "uint256"
				}
			],
			"stateMutability": "view",
			"type": "function"
		},
		{
			"inputs": [
				{
					"internalType": "address",
					"name": "from",
					"type": "address"
				},
				{
					"internalType": "address",
					"name": "to",
					"type": "address"
				},
				{
					"internalType": "uint256",
					"name": "tokenId",
					"type": "uint256"
				}
			],
			"name": "safeTransferFrom",
			"outputs": [],
			"stateMutability": "nonpayable",
			"type": "function"
		},
		{
			"inputs": [
				{
					"internalType": "address",
					"name": "from",
					"type": "address"
				},
				{
					"internalType": "address",
					"name": "to",
					"type": "address"
				},
				{
					"internalType": "uint256",
					"name": "tokenId",
					"type": "uint256"
				},
				{
					"internalType": "bytes",
					"name": "data",
					"type": "bytes"
				}
			],
			"name": "safeTransferFrom",
			"outputs": [],
			"stateMutability": "nonpayable",
			"type": "function"
		},
		{
			"inputs": [
				{
					"internalType": "address",
					"name": "operator",
					"type": "address"
				},
				{
					"internalType": "bool",
					"name": "approved",
					"type": "bool"
				}
			],
			"name": "setApprovalForAll",
			"outputs": [],
			"stateMutability": "nonpayable",
			"type": "function"
		},
		{
			"inputs": [
				{
					"internalType": "bytes4",
					"name": "interfaceId",
					"type": "bytes4"
				}
			],
			"name": "supportsInterface",
			"outputs": [
				{
					"internalType": "bool",
					"name": "",
					"type": "bool"
				}
			],
			"stateMutability": "view",
			"type": "function"
		},
		{
			"inputs": [],
			"name": "symbol",
			"outputs": [
				{
					"internalType": "string",
					"name": "",
					"type": "string"
				}
			],
			"stateMutability": "view",
			"type": "function"
		},
		{
			"inputs": [
				{
					"internalType": "uint256",
					"name": "tokenId",
					"type": "uint256"
				}
			],
			"name": "tokenURI",
			"outputs": [
				{
					"internalType": "string",
					"name": "",
					"type": "string"
				}
			],
			"stateMutability": "view",
			"type": "function"
		},
		{
			"inputs": [],
			"name": "totalTokens",
			"outputs": [
				{
					"internalType": "uint256",
					"name": "tokenLength",
					"type": "uint256"
				}
			],
			"stateMutability": "view",
			"type": "function"
		},
		{
			"inputs": [
				{
					"internalType": "address",
					"name": "from",
					"type": "address"
				},
				{
					"internalType": "address",
					"name": "to",
					"type": "address"
				},
				{
					"internalType": "uint256",
					"name": "tokenId",
					"type": "uint256"
				}
			],
			"name": "transferFrom",
			"outputs": [],
			"stateMutability": "nonpayable",
			"type": "function"
		},
		{
			"inputs": [
				{
					"internalType": "uint256",
					"name": "_liquidity",
					"type": "uint256"
				},
				{
					"internalType": "uint256",
					"name": "_buffer",
					"type": "uint256"
				},
				{
					"internalType": "uint256",
					"name": "_deadline",
					"type": "uint256"
				}
			],
			"name": "withdraw",
			"outputs": [],
			"stateMutability": "nonpayable",
			"type": "function"
		},
		{
			"inputs": [
				{
					"internalType": "uint256",
					"name": "_liquidity",
					"type": "uint256"
				},
				{
					"internalType": "uint256",
					"name": "_buffer",
					"type": "uint256"
				},
				{
					"internalType": "uint256",
					"name": "_deadline",
					"type": "uint256"
				}
			],
			"name": "withdrawETH",
			"outputs": [],
			"stateMutability": "nonpayable",
			"type": "function"
		},
		{
			"stateMutability": "payable",
			"type": "receive"
		}
	]
}