{
	"data": {
		"bytecode": {
			"linkReferences": {},
			"object": "6080604052348015600e575f5ffd5b506128498061001c5f395ff3fe608060405234801561000f575f5ffd5b50600436106101e7575f3560e01c80639257fa0711610109578063d2c725e01161009e578063de836ebd1161006e578063de836ebd1461041a578063e54ef9a01461042d578063ec5975c614610440578063f2fde38b14610448575f5ffd5b8063d2c725e0146103d4578063d410ad7d146103e1578063dd62ed3e146103f4578063de41691c14610407575f5ffd5b8063a9059cbb116100d9578063a9059cbb14610394578063b4b93c8c146103a7578063ba6ba385146103af578063c45a0155146103c2575f5ffd5b80639257fa071461034f57806395d89b4114610362578063a131d4361461036a578063a7c7fdeb1461038c575f5ffd5b80635483067d1161017f578063715018a61161014f578063715018a61461030c57806389afcb44146103145780638da5cb5b146103345780638e73f1b41461033c575f5ffd5b80635483067d146102a257806355917ebe146102ab57806367ccdf38146102ce57806370a08231146102f9575f5ffd5b806323b872dd116101ba57806323b872dd14610256578063273cbaa014610269578063313ce5671461027e5780633a105cfb1461028d575f5ffd5b806306fdde03146101eb578063090318fb14610209578063095ea7b31461021f57806318160ddd14610242575b5f5ffd5b6101f361045b565b604051610200919061209b565b60405180910390f35b61021161051b565b604051908152602001610200565b61023261022d3660046120e4565b610544565b6040519015158152602001610200565b5f5160206127f45f395f51905f5254610211565b61023261026436600461210e565b61055d565b610271610580565b604051610200919061218f565b60405160128152602001610200565b6102a061029b36600461222c565b610605565b005b61021160015481565b6102b3610813565b60408051938452602084019290925290820152606001610200565b6102e16102dc3660046122fc565b6108e4565b6040516001600160a01b039091168152602001610200565b610211610307366004612313565b610937565b6102a061095d565b610327610322366004612313565b610970565b604051610200919061235e565b6102e1610a93565b61021161034a3660046122fc565b610ac1565b61021161035d3660046122fc565b610b0a565b6101f3610d4e565b61037d610378366004612313565b610d8c565b60405161020093929190612370565b6102a0610e7c565b6102326103a23660046120e4565b610f13565b6102a0610f20565b6102a06103bd3660046123a1565b610fe2565b5f546102e1906001600160a01b031681565b6002546102329060ff1681565b6103276103ef3660046122fc565b610ffd565b6102116104023660046123bc565b6110ff565b6102a06104153660046123f3565b611148565b610211610428366004612431565b6111c3565b61021161043b3660046122fc565b61144e565b6103276114c8565b6102a0610456366004612313565b611542565b7f52c63247e1f47db19d5ce0460030c497f067ca4cebf71ba98eeadabe20bace0380546060915f5160206127d45f395f51905f529161049990612481565b80601f01602080910402602001604051908101604052809291908181526020018280546104c590612481565b80156105105780601f106104e757610100808354040283529160200191610510565b820191905f5260205f20905b8154815290600101906020018083116104f357829003601f168201915b505050505091505090565b5f5f610525610813565b92505050610534610307610a93565b61053e90826124cd565b91505090565b5f3361055181858561157f565b60019150505b92915050565b5f3361056a85828561158c565b6105758585856115f0565b506001949350505050565b60025460609060ff16156105a7576040516306fda65d60e31b815260040160405180910390fd5b60038054806020026020016040519081016040528092919081815260200182805480156105fb57602002820191905f5260205f20905b81546001600160a01b031681526001909101906020018083116105dd575b5050505050905090565b5f61060e61164d565b805490915060ff600160401b82041615906001600160401b03165f811580156106345750825b90505f826001600160401b0316600114801561064f5750303b155b90508115801561065d575080155b1561067b5760405163f92ee8a960e01b815260040160405180910390fd5b845467ffffffffffffffff1916600117855583156106a557845460ff60401b1916600160401b1785555b5f8690036106c65760405163c1ab6dc160e01b815260040160405180910390fd5b87515f0361070957604051632432186360e21b8152600401610700906020808252600490820152636e616d6560e01b604082015260600190565b60405180910390fd5b8760405160200161071a91906124f7565b60405160208183030381529060405297506107358889611675565b61073e3361168b565b61074a60038888611fed565b506003546001600160401b03811115610765576107656121a1565b60405190808252806020026020018201604052801561078e578160200160208202803683370190505b5080516107a39160049160209091019061204e565b505f80546001600160a01b0319166001600160a01b038b1617905542600155831561080857845460ff60401b19168555604051600181527fc7f505b2f371ae2175ee4913f4499e1f2633a7b5936321eed1cdaeb6115181d29060200160405180910390a15b505050505050505050565b5f5f5f62278d00600154426108289190612515565b6108329190612528565b92506108495f5160206127f45f395f51905f525490565b9150821580610856575081155b15610862575090915f90565b5f546001600160a01b031660405163d23aaed360e01b815260048101859052602481018490526001600160a01b03919091169063d23aaed390604401602060405180830381865afa1580156108b9573d5f5f3e3d5ffd5b505050506040513d601f19601f820116820180604052508101906108dd9190612547565b9050909192565b6002545f9060ff161561090a576040516306fda65d60e31b815260040160405180910390fd5b6003828154811061091d5761091d61255e565b5f918252602090912001546001600160a01b031692915050565b6001600160a01b03165f9081525f5160206127d45f395f51905f52602052604090205490565b61096561169c565b61096e5f6116ce565b565b606061097a61169c565b6001600160a01b0382166109a157604051634e46966960e11b815260040160405180910390fd5b6109a9610f20565b5f6109b330610937565b9050805f036109d55760405163bb55fd2760e01b815260040160405180910390fd5b6109de81610ffd565b91506109ea308261173e565b6003545f5b81811015610a8b575f848281518110610a0a57610a0a61255e565b602002602001015190505f811115610a53575f60038381548110610a3057610a3061255e565b5f918252602090912001546001600160a01b03169050610a51818884611772565b505b8060048381548110610a6757610a6761255e565b905f5260205f20015f828254610a7d9190612515565b9091555050506001016109ef565b505050919050565b7f9016d09d72d40fdae2fd8ceac6b6234c7706214fd39c1cd1e609a0528c199300546001600160a01b031690565b6002545f9060ff1615610ae7576040516306fda65d60e31b815260040160405180910390fd5b60048281548110610afa57610afa61255e565b905f5260205f2001549050919050565b6002545f9060ff1615610b30576040516306fda65d60e31b815260040160405180910390fd5b5f610b465f5160206127f45f395f51905f525490565b9050805f03610b5757505f92915050565b5f80546001600160a01b031690505f60048054905090505f826001600160a01b0316633fc8cef36040518163ffffffff1660e01b8152600401602060405180830381865afa158015610bab573d5f5f3e3d5ffd5b505050506040513d601f19601f82011682018060405250810190610bcf9190612572565b90505f5b82811015610d44575f60038281548110610bef57610bef61255e565b5f918252602082200154600480546001600160a01b0390921693509084908110610c1b57610c1b61255e565b905f5260205f20015490505f811115610d3a5760405163d88e3e3b60e01b81526001600160a01b03838116600483015285811660248301525f919088169063d88e3e3b906044015f60405180830381865afa158015610c7c573d5f5f3e3d5ffd5b505050506040513d5f823e601f3d908101601f19168201604052610ca3919081019061258d565b90505f88610cb1848d612634565b610cbb9190612528565b60405163d06ca61f60e01b81529091506001600160a01b0389169063d06ca61f90610cec908490869060040161264b565b602060405180830381865afa158015610d07573d5f5f3e3d5ffd5b505050506040513d601f19601f82011682018060405250810190610d2b9190612547565b610d35908b6124cd565b995050505b5050600101610bd3565b5050505050919050565b7f52c63247e1f47db19d5ce0460030c497f067ca4cebf71ba98eeadabe20bace0480546060915f5160206127d45f395f51905f529161049990612481565b6002546060905f90819060ff1615610db7576040516306fda65d60e31b815260040160405180910390fd5b6003545f816001600160401b03811115610dd357610dd36121a1565b604051908082528060200260200182016040528015610dfc578160200160208202803683370190505b5090505f5b82811015610e4a5760048181548110610e1c57610e1c61255e565b905f5260205f200154828281518110610e3757610e3761255e565b6020908102919091010152600101610e01565b505f610e615f5160206127f45f395f51905f525490565b90505f610e6d88610937565b92989197509195509350505050565b610e8461169c565b5f610e8d610a93565b6003549091505f5b81811015610f0e575f60038281548110610eb157610eb161255e565b5f918252602082200154600480546001600160a01b0390921693509084908110610edd57610edd61255e565b905f5260205f20015490505f811115610f0457610f046001600160a01b0383168683611772565b5050600101610e95565b505050565b5f336105518185856115f0565b5f5f5f610f2b610813565b925092509250825f03610f3d57505050565b8015610f5457610f54610f4e610a93565b826117c4565b610f618362278d00612634565b60015f828254610f7191906124cd565b90915550610f7f9050610a93565b6001600160a01b03167f06ef86d1d001d3f4d5d79d6a6647502b17af442209a78bbbafb8867cb5cf6fb7848484600154604051610fd5949392919093845260208401929092526040830152606082015260800190565b60405180910390a2505050565b610fea61169c565b6002805460ff1916911515919091179055565b60025460609060ff1615611024576040516306fda65d60e31b815260040160405180910390fd5b5f61103a5f5160206127f45f395f51905f525490565b6003549091506001600160401b03811115611057576110576121a1565b604051908082528060200260200182016040528015611080578160200160208202803683370190505b509150805f036110905750919050565b5f5b6004548110156110f8575f600482815481106110b0576110b061255e565b905f5260205f20015490508281866110c89190612634565b6110d29190612528565b8483815181106110e4576110e461255e565b602090810291909101015250600101611092565b5050919050565b6001600160a01b039182165f9081527f52c63247e1f47db19d5ce0460030c497f067ca4cebf71ba98eeadabe20bace016020908152604080832093909416825291909152205490565b61115061169c565b5f8190036111715760405163c1ab6dc160e01b815260040160405180910390fd5b61117d60038383611fed565b506111866117f8565b7f3ca096a4c913a6f222a557151d17832dddab787e6ddf59063cab45e15b9a9fac82826040516111b7929190612663565b60405180910390a15050565b5f6111cc61169c565b6001600160a01b0384166111f357604051634e46966960e11b815260040160405180910390fd5b5f80546001600160a01b031690505f816001600160a01b0316633fc8cef36040518163ffffffff1660e01b8152600401602060405180830381865afa15801561123e573d5f5f3e3d5ffd5b505050506040513d601f19601f820116820180604052508101906112629190612572565b905061126c610f20565b6003545f805b828110156113af575f6003828154811061128e5761128e61255e565b5f91825260208220015460405163d88e3e3b60e01b81526001600160a01b0391821660048201819052888316602483015293509088169063d88e3e3b906044015f60405180830381865afa1580156112e8573d5f5f3e3d5ffd5b505050506040513d5f823e601f3d908101601f1916820160405261130f919081019061258d565b9050866001600160a01b031663d06ca61f8b8b868181106113325761133261255e565b90506020020135836040518363ffffffff1660e01b815260040161135792919061264b565b602060405180830381865afa158015611372573d5f5f3e3d5ffd5b505050506040513d601f19601f820116820180604052508101906113969190612547565b6113a090856124cd565b93508260010192505050611272565b505f5160206127f45f395f51905f5254156113d2576113cd8161144e565b6113dd565b683635c9adc5dea000005b94506113e988866117c4565b5f5b86811015611442578787828181106114055761140561255e565b905060200201356004828154811061141f5761141f61255e565b905f5260205f20015f82825461143591906124cd565b90915550506001016113eb565b50505050509392505050565b6002545f9060ff1615611474576040516306fda65d60e31b815260040160405180910390fd5b5f61147d61190c565b9050805f036114975750683635c9adc5dea0000092915050565b806114ad5f5160206127f45f395f51905f525490565b6114b79085612634565b6114c19190612528565b9392505050565b60025460609060ff16156114ef576040516306fda65d60e31b815260040160405180910390fd5b60048054806020026020016040519081016040528092919081815260200182805480156105fb57602002820191905f5260205f20905b815481526020019060010190808311611525575050505050905090565b61154a61169c565b6001600160a01b03811661157357604051631e4fbdf760e01b81525f6004820152602401610700565b61157c816116ce565b50565b610f0e8383836001611add565b5f61159784846110ff565b90505f198110156115ea57818110156115dc57604051637dc7a0d960e11b81526001600160a01b03841660048201526024810182905260448101839052606401610700565b6115ea84848484035f611add565b50505050565b6001600160a01b03831661161957604051634b637e8f60e11b81525f6004820152602401610700565b6001600160a01b0382166116425760405163ec442f0560e01b81525f6004820152602401610700565b610f0e838383611bc1565b5f807ff0c57e16840df040f15088dc2f81fe391c3923bec73e23a9662efc9c229c6a00610557565b61167d611cfa565b6116878282611d1f565b5050565b611693611cfa565b61157c81611d6f565b336116a5610a93565b6001600160a01b03161461096e5760405163118cdaa760e01b8152336004820152602401610700565b7f9016d09d72d40fdae2fd8ceac6b6234c7706214fd39c1cd1e609a0528c19930080546001600160a01b031981166001600160a01b03848116918217845560405192169182907f8be0079c531659141344cd1fd0a4f28419497f9722a3daafe3b4186f6b6457e0905f90a3505050565b6001600160a01b03821661176757604051634b637e8f60e11b81525f6004820152602401610700565b611687825f83611bc1565b604080516001600160a01b038416602482015260448082018490528251808303909101815260649091019091526020810180516001600160e01b031663a9059cbb60e01b179052610f0e908490611d77565b6001600160a01b0382166117ed5760405163ec442f0560e01b81525f6004820152602401610700565b6116875f8383611bc1565b600354806001600160401b03811115611813576118136121a1565b60405190808252806020026020018201604052801561183c578160200160208202803683370190505b5080516118519160049160209091019061204e565b505f5b81811015611687575f600382815481106118705761187061255e565b5f918252602090912001546040516370a0823160e01b81523060048201526001600160a01b03909116915081906370a0823190602401602060405180830381865afa1580156118c1573d5f5f3e3d5ffd5b505050506040513d601f19601f820116820180604052508101906118e59190612547565b600483815481106118f8576118f861255e565b5f9182526020909120015550600101611854565b5f5f61191f5f546001600160a01b031690565b90505f816001600160a01b0316633fc8cef36040518163ffffffff1660e01b8152600401602060405180830381865afa15801561195e573d5f5f3e3d5ffd5b505050506040513d601f19601f820116820180604052508101906119829190612572565b6004549091505f5b81811015611ad6575f600482815481106119a6576119a661255e565b905f5260205f20015490505f811115611acd575f600383815481106119cd576119cd61255e565b5f91825260208220015460405163d88e3e3b60e01b81526001600160a01b0391821660048201819052888316602483015293509088169063d88e3e3b906044015f60405180830381865afa158015611a27573d5f5f3e3d5ffd5b505050506040513d5f823e601f3d908101601f19168201604052611a4e919081019061258d565b60405163d06ca61f60e01b81529091506001600160a01b0388169063d06ca61f90611a7f908690859060040161264b565b602060405180830381865afa158015611a9a573d5f5f3e3d5ffd5b505050506040513d601f19601f82011682018060405250810190611abe9190612547565b611ac890896124cd565b975050505b5060010161198a565b5050505090565b5f5160206127d45f395f51905f526001600160a01b038516611b145760405163e602df0560e01b81525f6004820152602401610700565b6001600160a01b038416611b3d57604051634a1406b160e11b81525f6004820152602401610700565b6001600160a01b038086165f90815260018301602090815260408083209388168352929052208390558115611bba57836001600160a01b0316856001600160a01b03167f8c5be1e5ebec7d5bd14f71427d1e84f3dd0314c0f7b2291e5b200ac8c7c3b92585604051611bb191815260200190565b60405180910390a35b5050505050565b5f5160206127d45f395f51905f526001600160a01b038416611bfb5781816002015f828254611bf091906124cd565b90915550611c6b9050565b6001600160a01b0384165f9081526020829052604090205482811015611c4d5760405163391434e360e21b81526001600160a01b03861660048201526024810182905260448101849052606401610700565b6001600160a01b0385165f9081526020839052604090209083900390555b6001600160a01b038316611c89576002810180548390039055611ca7565b6001600160a01b0383165f9081526020829052604090208054830190555b826001600160a01b0316846001600160a01b03167fddf252ad1be2c89b69c2b068fc378daa952ba7f163c4a11628f55a4df523b3ef84604051611cec91815260200190565b60405180910390a350505050565b611d02611e4a565b61096e57604051631afcd79f60e31b815260040160405180910390fd5b611d27611cfa565b5f5160206127d45f395f51905f527f52c63247e1f47db19d5ce0460030c497f067ca4cebf71ba98eeadabe20bace03611d6084826126f3565b50600481016115ea83826126f3565b61154a611cfa565b5f611dcb826040518060400160405280602081526020017f5361666545524332303a206c6f772d6c6576656c2063616c6c206661696c6564815250856001600160a01b0316611e639092919063ffffffff16565b905080515f1480611deb575080806020019051810190611deb91906127ad565b610f0e5760405162461bcd60e51b815260206004820152602a60248201527f5361666545524332303a204552433230206f7065726174696f6e20646964206e6044820152691bdd081cdd58d8d9595960b21b6064820152608401610700565b5f611e5361164d565b54600160401b900460ff16919050565b6060611e7184845f85611e79565b949350505050565b606082471015611eda5760405162461bcd60e51b815260206004820152602660248201527f416464726573733a20696e73756666696369656e742062616c616e636520666f6044820152651c8818d85b1b60d21b6064820152608401610700565b5f5f866001600160a01b03168587604051611ef591906127c8565b5f6040518083038185875af1925050503d805f8114611f2f576040519150601f19603f3d011682016040523d82523d5f602084013e611f34565b606091505b5091509150611f4587838387611f50565b979650505050505050565b60608315611fbe5782515f03611fb7576001600160a01b0385163b611fb75760405162461bcd60e51b815260206004820152601d60248201527f416464726573733a2063616c6c20746f206e6f6e2d636f6e74726163740000006044820152606401610700565b5081611e71565b611e718383815115611fd35781518083602001fd5b8060405162461bcd60e51b8152600401610700919061209b565b828054828255905f5260205f2090810192821561203e579160200282015b8281111561203e5781546001600160a01b0319166001600160a01b0384351617825560209092019160019091019061200b565b5061204a929150612087565b5090565b828054828255905f5260205f2090810192821561203e579160200282015b8281111561203e57825182559160200191906001019061206c565b5b8082111561204a575f8155600101612088565b602081525f82518060208401528060208501604085015e5f604082850101526040601f19601f83011684010191505092915050565b6001600160a01b038116811461157c575f5ffd5b5f5f604083850312156120f5575f5ffd5b8235612100816120d0565b946020939093013593505050565b5f5f5f60608486031215612120575f5ffd5b833561212b816120d0565b9250602084013561213b816120d0565b929592945050506040919091013590565b5f8151808452602084019350602083015f5b828110156121855781516001600160a01b031686526020958601959091019060010161215e565b5093949350505050565b602081525f6114c1602083018461214c565b634e487b7160e01b5f52604160045260245ffd5b604051601f8201601f191681016001600160401b03811182821017156121dd576121dd6121a1565b604052919050565b5f5f83601f8401126121f5575f5ffd5b5081356001600160401b0381111561220b575f5ffd5b6020830191508360208260051b8501011115612225575f5ffd5b9250929050565b5f5f5f5f6060858703121561223f575f5ffd5b843561224a816120d0565b935060208501356001600160401b03811115612264575f5ffd5b8501601f81018713612274575f5ffd5b80356001600160401b0381111561228d5761228d6121a1565b6122a0601f8201601f19166020016121b5565b8181528860208385010111156122b4575f5ffd5b816020840160208301375f6020838301015280955050505060408501356001600160401b038111156122e4575f5ffd5b6122f0878288016121e5565b95989497509550505050565b5f6020828403121561230c575f5ffd5b5035919050565b5f60208284031215612323575f5ffd5b81356114c1816120d0565b5f8151808452602084019350602083015f5b82811015612185578151865260209586019590910190600101612340565b602081525f6114c1602083018461232e565b606081525f612382606083018661232e565b60208301949094525060400152919050565b801515811461157c575f5ffd5b5f602082840312156123b1575f5ffd5b81356114c181612394565b5f5f604083850312156123cd575f5ffd5b82356123d8816120d0565b915060208301356123e8816120d0565b809150509250929050565b5f5f60208385031215612404575f5ffd5b82356001600160401b03811115612419575f5ffd5b612425858286016121e5565b90969095509350505050565b5f5f5f60408486031215612443575f5ffd5b833561244e816120d0565b925060208401356001600160401b03811115612468575f5ffd5b612474868287016121e5565b9497909650939450505050565b600181811c9082168061249557607f821691505b6020821081036124b357634e487b7160e01b5f52602260045260245ffd5b50919050565b634e487b7160e01b5f52601160045260245ffd5b80820180821115610557576105576124b9565b5f81518060208401855e5f93019283525090919050565b5f61250282846124e0565b6202d4c560ec1b81526003019392505050565b81810381811115610557576105576124b9565b5f8261254257634e487b7160e01b5f52601260045260245ffd5b500490565b5f60208284031215612557575f5ffd5b5051919050565b634e487b7160e01b5f52603260045260245ffd5b5f60208284031215612582575f5ffd5b81516114c1816120d0565b5f6020828403121561259d575f5ffd5b81516001600160401b038111156125b2575f5ffd5b8201601f810184136125c2575f5ffd5b80516001600160401b038111156125db576125db6121a1565b8060051b6125eb602082016121b5565b91825260208184018101929081019087841115612606575f5ffd5b6020850194505b83851015611f455784519250612622836120d0565b8282526020948501949091019061260d565b8082028115828204841417610557576105576124b9565b828152604060208201525f611e71604083018461214c565b602080825281018290525f8360408301825b858110156126a5578235612688816120d0565b6001600160a01b0316825260209283019290910190600101612675565b5095945050505050565b601f821115610f0e57805f5260205f20601f840160051c810160208510156126d45750805b601f840160051c820191505b81811015611bba575f81556001016126e0565b81516001600160401b0381111561270c5761270c6121a1565b6127208161271a8454612481565b846126af565b6020601f821160018114612752575f831561273b5750848201515b5f19600385901b1c1916600184901b178455611bba565b5f84815260208120601f198516915b828110156127815787850151825560209485019460019092019101612761565b508482101561279e57868401515f19600387901b60f8161c191681555b50505050600190811b01905550565b5f602082840312156127bd575f5ffd5b81516114c181612394565b5f6114c182846124e056fe52c63247e1f47db19d5ce0460030c497f067ca4cebf71ba98eeadabe20bace0052c63247e1f47db19d5ce0460030c497f067ca4cebf71ba98eeadabe20bace02a2646970667358221220cb19986944f508eb69ba00ae534455059cf7526c67241b26a7c16baa945a70b564736f6c634300081e0033",
			"opcodes": "PUSH1 0x80 PUSH1 0x40 MSTORE CALLVALUE DUP1 ISZERO PUSH1 0xE JUMPI PUSH0 PUSH0 REVERT JUMPDEST POP PUSH2 0x2849 DUP1 PUSH2 0x1C PUSH0 CODECOPY PUSH0 RETURN INVALID PUSH1 0x80 PUSH1 0x40 MSTORE CALLVALUE DUP1 ISZERO PUSH2 0xF JUMPI PUSH0 PUSH0 REVERT JUMPDEST POP PUSH1 0x4 CALLDATASIZE LT PUSH2 0x1E7 JUMPI PUSH0 CALLDATALOAD PUSH1 0xE0 SHR DUP1 PUSH4 0x9257FA07 GT PUSH2 0x109 JUMPI DUP1 PUSH4 0xD2C725E0 GT PUSH2 0x9E JUMPI DUP1 PUSH4 0xDE836EBD GT PUSH2 0x6E JUMPI DUP1 PUSH4 0xDE836EBD EQ PUSH2 0x41A JUMPI DUP1 PUSH4 0xE54EF9A0 EQ PUSH2 0x42D JUMPI DUP1 PUSH4 0xEC5975C6 EQ PUSH2 0x440 JUMPI DUP1 PUSH4 0xF2FDE38B EQ PUSH2 0x448 JUMPI PUSH0 PUSH0 REVERT JUMPDEST DUP1 PUSH4 0xD2C725E0 EQ PUSH2 0x3D4 JUMPI DUP1 PUSH4 0xD410AD7D EQ PUSH2 0x3E1 JUMPI DUP1 PUSH4 0xDD62ED3E EQ PUSH2 0x3F4 JUMPI DUP1 PUSH4 0xDE41691C EQ PUSH2 0x407 JUMPI PUSH0 PUSH0 REVERT JUMPDEST DUP1 PUSH4 0xA9059CBB GT PUSH2 0xD9 JUMPI DUP1 PUSH4 0xA9059CBB EQ PUSH2 0x394 JUMPI DUP1 PUSH4 0xB4B93C8C EQ PUSH2 0x3A7 JUMPI DUP1 PUSH4 0xBA6BA385 EQ PUSH2 0x3AF JUMPI DUP1 PUSH4 0xC45A0155 EQ PUSH2 0x3C2 JUMPI PUSH0 PUSH0 REVERT JUMPDEST DUP1 PUSH4 0x9257FA07 EQ PUSH2 0x34F JUMPI DUP1 PUSH4 0x95D89B41 EQ PUSH2 0x362 JUMPI DUP1 PUSH4 0xA131D436 EQ PUSH2 0x36A JUMPI DUP1 PUSH4 0xA7C7FDEB EQ PUSH2 0x38C JUMPI PUSH0 PUSH0 REVERT JUMPDEST DUP1 PUSH4 0x5483067D GT PUSH2 0x17F JUMPI DUP1 PUSH4 0x715018A6 GT PUSH2 0x14F JUMPI DUP1 PUSH4 0x715018A6 EQ PUSH2 0x30C JUMPI DUP1 PUSH4 0x89AFCB44 EQ PUSH2 0x314 JUMPI DUP1 PUSH4 0x8DA5CB5B EQ PUSH2 0x334 JUMPI DUP1 PUSH4 0x8E73F1B4 EQ PUSH2 0x33C JUMPI PUSH0 PUSH0 REVERT JUMPDEST DUP1 PUSH4 0x5483067D EQ PUSH2 0x2A2 JUMPI DUP1 PUSH4 0x55917EBE EQ PUSH2 0x2AB JUMPI DUP1 PUSH4 0x67CCDF38 EQ PUSH2 0x2CE JUMPI DUP1 PUSH4 0x70A08231 EQ PUSH2 0x2F9 JUMPI PUSH0 PUSH0 REVERT JUMPDEST DUP1 PUSH4 0x23B872DD GT PUSH2 0x1BA JUMPI DUP1 PUSH4 0x23B872DD EQ PUSH2 0x256 JUMPI DUP1 PUSH4 0x273CBAA0 EQ PUSH2 0x269 JUMPI DUP1 PUSH4 0x313CE567 EQ PUSH2 0x27E JUMPI DUP1 PUSH4 0x3A105CFB EQ PUSH2 0x28D JUMPI PUSH0 PUSH0 REVERT JUMPDEST DUP1 PUSH4 0x6FDDE03 EQ PUSH2 0x1EB JUMPI DUP1 PUSH4 0x90318FB EQ PUSH2 0x209 JUMPI DUP1 PUSH4 0x95EA7B3 EQ PUSH2 0x21F JUMPI DUP1 PUSH4 0x18160DDD EQ PUSH2 0x242 JUMPI JUMPDEST PUSH0 PUSH0 REVERT JUMPDEST PUSH2 0x1F3 PUSH2 0x45B JUMP JUMPDEST PUSH1 0x40 MLOAD PUSH2 0x200 SWAP2 SWAP1 PUSH2 0x209B JUMP JUMPDEST PUSH1 0x40 MLOAD DUP1 SWAP2 SUB SWAP1 RETURN JUMPDEST PUSH2 0x211 PUSH2 0x51B JUMP JUMPDEST PUSH1 0x40 MLOAD SWAP1 DUP2 MSTORE PUSH1 0x20 ADD PUSH2 0x200 JUMP JUMPDEST PUSH2 0x232 PUSH2 0x22D CALLDATASIZE PUSH1 0x4 PUSH2 0x20E4 JUMP JUMPDEST PUSH2 0x544 JUMP JUMPDEST PUSH1 0x40 MLOAD SWAP1 ISZERO ISZERO DUP2 MSTORE PUSH1 0x20 ADD PUSH2 0x200 JUMP JUMPDEST PUSH0 MLOAD PUSH1 0x20 PUSH2 0x27F4 PUSH0 CODECOPY PUSH0 MLOAD SWAP1 PUSH0 MSTORE SLOAD PUSH2 0x211 JUMP JUMPDEST PUSH2 0x232 PUSH2 0x264 CALLDATASIZE PUSH1 0x4 PUSH2 0x210E JUMP JUMPDEST PUSH2 0x55D JUMP JUMPDEST PUSH2 0x271 PUSH2 0x580 JUMP JUMPDEST PUSH1 0x40 MLOAD PUSH2 0x200 SWAP2 SWAP1 PUSH2 0x218F JUMP JUMPDEST PUSH1 0x40 MLOAD PUSH1 0x12 DUP2 MSTORE PUSH1 0x20 ADD PUSH2 0x200 JUMP JUMPDEST PUSH2 0x2A0 PUSH2 0x29B CALLDATASIZE PUSH1 0x4 PUSH2 0x222C JUMP JUMPDEST PUSH2 0x605 JUMP JUMPDEST STOP JUMPDEST PUSH2 0x211 PUSH1 0x1 SLOAD DUP2 JUMP JUMPDEST PUSH2 0x2B3 PUSH2 0x813 JUMP JUMPDEST PUSH1 0x40 DUP1 MLOAD SWAP4 DUP5 MSTORE PUSH1 0x20 DUP5 ADD SWAP3 SWAP1 SWAP3 MSTORE SWAP1 DUP3 ADD MSTORE PUSH1 0x60 ADD PUSH2 0x200 JUMP JUMPDEST PUSH2 0x2E1 PUSH2 0x2DC CALLDATASIZE PUSH1 0x4 PUSH2 0x22FC JUMP JUMPDEST PUSH2 0x8E4 JUMP JUMPDEST PUSH1 0x40 MLOAD PUSH1 0x1 PUSH1 0x1 PUSH1 0xA0 SHL SUB SWAP1 SWAP2 AND DUP2 MSTORE PUSH1 0x20 ADD PUSH2 0x200 JUMP JUMPDEST PUSH2 0x211 PUSH2 0x307 CALLDATASIZE PUSH1 0x4 PUSH2 0x2313 JUMP JUMPDEST PUSH2 0x937 JUMP JUMPDEST PUSH2 0x2A0 PUSH2 0x95D JUMP JUMPDEST PUSH2 0x327 PUSH2 0x322 CALLDATASIZE PUSH1 0x4 PUSH2 0x2313 JUMP JUMPDEST PUSH2 0x970 JUMP JUMPDEST PUSH1 0x40 MLOAD PUSH2 0x200 SWAP2 SWAP1 PUSH2 0x235E JUMP JUMPDEST PUSH2 0x2E1 PUSH2 0xA93 JUMP JUMPDEST PUSH2 0x211 PUSH2 0x34A CALLDATASIZE PUSH1 0x4 PUSH2 0x22FC JUMP JUMPDEST PUSH2 0xAC1 JUMP JUMPDEST PUSH2 0x211 PUSH2 0x35D CALLDATASIZE PUSH1 0x4 PUSH2 0x22FC JUMP JUMPDEST PUSH2 0xB0A JUMP JUMPDEST PUSH2 0x1F3 PUSH2 0xD4E JUMP JUMPDEST PUSH2 0x37D PUSH2 0x378 CALLDATASIZE PUSH1 0x4 PUSH2 0x2313 JUMP JUMPDEST PUSH2 0xD8C JUMP JUMPDEST PUSH1 0x40 MLOAD PUSH2 0x200 SWAP4 SWAP3 SWAP2 SWAP1 PUSH2 0x2370 JUMP JUMPDEST PUSH2 0x2A0 PUSH2 0xE7C JUMP JUMPDEST PUSH2 0x232 PUSH2 0x3A2 CALLDATASIZE PUSH1 0x4 PUSH2 0x20E4 JUMP JUMPDEST PUSH2 0xF13 JUMP JUMPDEST PUSH2 0x2A0 PUSH2 0xF20 JUMP JUMPDEST PUSH2 0x2A0 PUSH2 0x3BD CALLDATASIZE PUSH1 0x4 PUSH2 0x23A1 JUMP JUMPDEST PUSH2 0xFE2 JUMP JUMPDEST PUSH0 SLOAD PUSH2 0x2E1 SWAP1 PUSH1 0x1 PUSH1 0x1 PUSH1 0xA0 SHL SUB AND DUP2 JUMP JUMPDEST PUSH1 0x2 SLOAD PUSH2 0x232 SWAP1 PUSH1 0xFF AND DUP2 JUMP JUMPDEST PUSH2 0x327 PUSH2 0x3EF CALLDATASIZE PUSH1 0x4 PUSH2 0x22FC JUMP JUMPDEST PUSH2 0xFFD JUMP JUMPDEST PUSH2 0x211 PUSH2 0x402 CALLDATASIZE PUSH1 0x4 PUSH2 0x23BC JUMP JUMPDEST PUSH2 0x10FF JUMP JUMPDEST PUSH2 0x2A0 PUSH2 0x415 CALLDATASIZE PUSH1 0x4 PUSH2 0x23F3 JUMP JUMPDEST PUSH2 0x1148 JUMP JUMPDEST PUSH2 0x211 PUSH2 0x428 CALLDATASIZE PUSH1 0x4 PUSH2 0x2431 JUMP JUMPDEST PUSH2 0x11C3 JUMP JUMPDEST PUSH2 0x211 PUSH2 0x43B CALLDATASIZE PUSH1 0x4 PUSH2 0x22FC JUMP JUMPDEST PUSH2 0x144E JUMP JUMPDEST PUSH2 0x327 PUSH2 0x14C8 JUMP JUMPDEST PUSH2 0x2A0 PUSH2 0x456 CALLDATASIZE PUSH1 0x4 PUSH2 0x2313 JUMP JUMPDEST PUSH2 0x1542 JUMP JUMPDEST PUSH32 0x52C63247E1F47DB19D5CE0460030C497F067CA4CEBF71BA98EEADABE20BACE03 DUP1 SLOAD PUSH1 0x60 SWAP2 PUSH0 MLOAD PUSH1 0x20 PUSH2 0x27D4 PUSH0 CODECOPY PUSH0 MLOAD SWAP1 PUSH0 MSTORE SWAP2 PUSH2 0x499 SWAP1 PUSH2 0x2481 JUMP JUMPDEST DUP1 PUSH1 0x1F ADD PUSH1 0x20 DUP1 SWAP2 DIV MUL PUSH1 0x20 ADD PUSH1 0x40 MLOAD SWAP1 DUP2 ADD PUSH1 0x40 MSTORE DUP1 SWAP3 SWAP2 SWAP1 DUP2 DUP2 MSTORE PUSH1 0x20 ADD DUP3 DUP1 SLOAD PUSH2 0x4C5 SWAP1 PUSH2 0x2481 JUMP JUMPDEST DUP1 ISZERO PUSH2 0x510 JUMPI DUP1 PUSH1 0x1F LT PUSH2 0x4E7 JUMPI PUSH2 0x100 DUP1 DUP4 SLOAD DIV MUL DUP4 MSTORE SWAP2 PUSH1 0x20 ADD SWAP2 PUSH2 0x510 JUMP JUMPDEST DUP3 ADD SWAP2 SWAP1 PUSH0 MSTORE PUSH1 0x20 PUSH0 KECCAK256 SWAP1 JUMPDEST DUP2 SLOAD DUP2 MSTORE SWAP1 PUSH1 0x1 ADD SWAP1 PUSH1 0x20 ADD DUP1 DUP4 GT PUSH2 0x4F3 JUMPI DUP3 SWAP1 SUB PUSH1 0x1F AND DUP3 ADD SWAP2 JUMPDEST POP POP POP POP POP SWAP2 POP POP SWAP1 JUMP JUMPDEST PUSH0 PUSH0 PUSH2 0x525 PUSH2 0x813 JUMP JUMPDEST SWAP3 POP POP POP PUSH2 0x534 PUSH2 0x307 PUSH2 0xA93 JUMP JUMPDEST PUSH2 0x53E SWAP1 DUP3 PUSH2 0x24CD JUMP JUMPDEST SWAP2 POP POP SWAP1 JUMP JUMPDEST PUSH0 CALLER PUSH2 0x551 DUP2 DUP6 DUP6 PUSH2 0x157F JUMP JUMPDEST PUSH1 0x1 SWAP2 POP POP JUMPDEST SWAP3 SWAP2 POP POP JUMP JUMPDEST PUSH0 CALLER PUSH2 0x56A DUP6 DUP3 DUP6 PUSH2 0x158C JUMP JUMPDEST PUSH2 0x575 DUP6 DUP6 DUP6 PUSH2 0x15F0 JUMP JUMPDEST POP PUSH1 0x1 SWAP5 SWAP4 POP POP POP POP JUMP JUMPDEST PUSH1 0x2 SLOAD PUSH1 0x60 SWAP1 PUSH1 0xFF AND ISZERO PUSH2 0x5A7 JUMPI PUSH1 0x40 MLOAD PUSH4 0x6FDA65D PUSH1 0xE3 SHL DUP2 MSTORE PUSH1 0x4 ADD PUSH1 0x40 MLOAD DUP1 SWAP2 SUB SWAP1 REVERT JUMPDEST PUSH1 0x3 DUP1 SLOAD DUP1 PUSH1 0x20 MUL PUSH1 0x20 ADD PUSH1 0x40 MLOAD SWAP1 DUP2 ADD PUSH1 0x40 MSTORE DUP1 SWAP3 SWAP2 SWAP1 DUP2 DUP2 MSTORE PUSH1 0x20 ADD DUP3 DUP1 SLOAD DUP1 ISZERO PUSH2 0x5FB JUMPI PUSH1 0x20 MUL DUP3 ADD SWAP2 SWAP1 PUSH0 MSTORE PUSH1 0x20 PUSH0 KECCAK256 SWAP1 JUMPDEST DUP2 SLOAD PUSH1 0x1 PUSH1 0x1 PUSH1 0xA0 SHL SUB AND DUP2 MSTORE PUSH1 0x1 SWAP1 SWAP2 ADD SWAP1 PUSH1 0x20 ADD DUP1 DUP4 GT PUSH2 0x5DD JUMPI JUMPDEST POP POP POP POP POP SWAP1 POP SWAP1 JUMP JUMPDEST PUSH0 PUSH2 0x60E PUSH2 0x164D JUMP JUMPDEST DUP1 SLOAD SWAP1 SWAP2 POP PUSH1 0xFF PUSH1 0x1 PUSH1 0x40 SHL DUP3 DIV AND ISZERO SWAP1 PUSH1 0x1 PUSH1 0x1 PUSH1 0x40 SHL SUB AND PUSH0 DUP2 ISZERO DUP1 ISZERO PUSH2 0x634 JUMPI POP DUP3 JUMPDEST SWAP1 POP PUSH0 DUP3 PUSH1 0x1 PUSH1 0x1 PUSH1 0x40 SHL SUB AND PUSH1 0x1 EQ DUP1 ISZERO PUSH2 0x64F JUMPI POP ADDRESS EXTCODESIZE ISZERO JUMPDEST SWAP1 POP DUP2 ISZERO DUP1 ISZERO PUSH2 0x65D JUMPI POP DUP1 ISZERO JUMPDEST ISZERO PUSH2 0x67B JUMPI PUSH1 0x40 MLOAD PUSH4 0xF92EE8A9 PUSH1 0xE0 SHL DUP2 MSTORE PUSH1 0x4 ADD PUSH1 0x40 MLOAD DUP1 SWAP2 SUB SWAP1 REVERT JUMPDEST DUP5 SLOAD PUSH8 0xFFFFFFFFFFFFFFFF NOT AND PUSH1 0x1 OR DUP6 SSTORE DUP4 ISZERO PUSH2 0x6A5 JUMPI DUP5 SLOAD PUSH1 0xFF PUSH1 0x40 SHL NOT AND PUSH1 0x1 PUSH1 0x40 SHL OR DUP6 SSTORE JUMPDEST PUSH0 DUP7 SWAP1 SUB PUSH2 0x6C6 JUMPI PUSH1 0x40 MLOAD PUSH4 0xC1AB6DC1 PUSH1 0xE0 SHL DUP2 MSTORE PUSH1 0x4 ADD PUSH1 0x40 MLOAD DUP1 SWAP2 SUB SWAP1 REVERT JUMPDEST DUP8 MLOAD PUSH0 SUB PUSH2 0x709 JUMPI PUSH1 0x40 MLOAD PUSH4 0x24321863 PUSH1 0xE2 SHL DUP2 MSTORE PUSH1 0x4 ADD PUSH2 0x700 SWAP1 PUSH1 0x20 DUP1 DUP3 MSTORE PUSH1 0x4 SWAP1 DUP3 ADD MSTORE PUSH4 0x6E616D65 PUSH1 0xE0 SHL PUSH1 0x40 DUP3 ADD MSTORE PUSH1 0x60 ADD SWAP1 JUMP JUMPDEST PUSH1 0x40 MLOAD DUP1 SWAP2 SUB SWAP1 REVERT JUMPDEST DUP8 PUSH1 0x40 MLOAD PUSH1 0x20 ADD PUSH2 0x71A SWAP2 SWAP1 PUSH2 0x24F7 JUMP JUMPDEST PUSH1 0x40 MLOAD PUSH1 0x20 DUP2 DUP4 SUB SUB DUP2 MSTORE SWAP1 PUSH1 0x40 MSTORE SWAP8 POP PUSH2 0x735 DUP9 DUP10 PUSH2 0x1675 JUMP JUMPDEST PUSH2 0x73E CALLER PUSH2 0x168B JUMP JUMPDEST PUSH2 0x74A PUSH1 0x3 DUP9 DUP9 PUSH2 0x1FED JUMP JUMPDEST POP PUSH1 0x3 SLOAD PUSH1 0x1 PUSH1 0x1 PUSH1 0x40 SHL SUB DUP2 GT ISZERO PUSH2 0x765 JUMPI PUSH2 0x765 PUSH2 0x21A1 JUMP JUMPDEST PUSH1 0x40 MLOAD SWAP1 DUP1 DUP3 MSTORE DUP1 PUSH1 0x20 MUL PUSH1 0x20 ADD DUP3 ADD PUSH1 0x40 MSTORE DUP1 ISZERO PUSH2 0x78E JUMPI DUP2 PUSH1 0x20 ADD PUSH1 0x20 DUP3 MUL DUP1 CALLDATASIZE DUP4 CALLDATACOPY ADD SWAP1 POP JUMPDEST POP DUP1 MLOAD PUSH2 0x7A3 SWAP2 PUSH1 0x4 SWAP2 PUSH1 0x20 SWAP1 SWAP2 ADD SWAP1 PUSH2 0x204E JUMP JUMPDEST POP PUSH0 DUP1 SLOAD PUSH1 0x1 PUSH1 0x1 PUSH1 0xA0 SHL SUB NOT AND PUSH1 0x1 PUSH1 0x1 PUSH1 0xA0 SHL SUB DUP12 AND OR SWAP1 SSTORE TIMESTAMP PUSH1 0x1 SSTORE DUP4 ISZERO PUSH2 0x808 JUMPI DUP5 SLOAD PUSH1 0xFF PUSH1 0x40 SHL NOT AND DUP6 SSTORE PUSH1 0x40 MLOAD PUSH1 0x1 DUP2 MSTORE PUSH32 0xC7F505B2F371AE2175EE4913F4499E1F2633A7B5936321EED1CDAEB6115181D2 SWAP1 PUSH1 0x20 ADD PUSH1 0x40 MLOAD DUP1 SWAP2 SUB SWAP1 LOG1 JUMPDEST POP POP POP POP POP POP POP POP POP JUMP JUMPDEST PUSH0 PUSH0 PUSH0 PUSH3 0x278D00 PUSH1 0x1 SLOAD TIMESTAMP PUSH2 0x828 SWAP2 SWAP1 PUSH2 0x2515 JUMP JUMPDEST PUSH2 0x832 SWAP2 SWAP1 PUSH2 0x2528 JUMP JUMPDEST SWAP3 POP PUSH2 0x849 PUSH0 MLOAD PUSH1 0x20 PUSH2 0x27F4 PUSH0 CODECOPY PUSH0 MLOAD SWAP1 PUSH0 MSTORE SLOAD SWAP1 JUMP JUMPDEST SWAP2 POP DUP3 ISZERO DUP1 PUSH2 0x856 JUMPI POP DUP2 ISZERO JUMPDEST ISZERO PUSH2 0x862 JUMPI POP SWAP1 SWAP2 PUSH0 SWAP1 JUMP JUMPDEST PUSH0 SLOAD PUSH1 0x1 PUSH1 0x1 PUSH1 0xA0 SHL SUB AND PUSH1 0x40 MLOAD PUSH4 0xD23AAED3 PUSH1 0xE0 SHL DUP2 MSTORE PUSH1 0x4 DUP2 ADD DUP6 SWAP1 MSTORE PUSH1 0x24 DUP2 ADD DUP5 SWAP1 MSTORE PUSH1 0x1 PUSH1 0x1 PUSH1 0xA0 SHL SUB SWAP2 SWAP1 SWAP2 AND SWAP1 PUSH4 0xD23AAED3 SWAP1 PUSH1 0x44 ADD PUSH1 0x20 PUSH1 0x40 MLOAD DUP1 DUP4 SUB DUP2 DUP7 GAS STATICCALL ISZERO DUP1 ISZERO PUSH2 0x8B9 JUMPI RETURNDATASIZE PUSH0 PUSH0 RETURNDATACOPY RETURNDATASIZE PUSH0 REVERT JUMPDEST POP POP POP POP PUSH1 0x40 MLOAD RETURNDATASIZE PUSH1 0x1F NOT PUSH1 0x1F DUP3 ADD AND DUP3 ADD DUP1 PUSH1 0x40 MSTORE POP DUP2 ADD SWAP1 PUSH2 0x8DD SWAP2 SWAP1 PUSH2 0x2547 JUMP JUMPDEST SWAP1 POP SWAP1 SWAP2 SWAP3 JUMP JUMPDEST PUSH1 0x2 SLOAD PUSH0 SWAP1 PUSH1 0xFF AND ISZERO PUSH2 0x90A JUMPI PUSH1 0x40 MLOAD PUSH4 0x6FDA65D PUSH1 0xE3 SHL DUP2 MSTORE PUSH1 0x4 ADD PUSH1 0x40 MLOAD DUP1 SWAP2 SUB SWAP1 REVERT JUMPDEST PUSH1 0x3 DUP3 DUP2 SLOAD DUP2 LT PUSH2 0x91D JUMPI PUSH2 0x91D PUSH2 0x255E JUMP JUMPDEST PUSH0 SWAP2 DUP3 MSTORE PUSH1 0x20 SWAP1 SWAP2 KECCAK256 ADD SLOAD PUSH1 0x1 PUSH1 0x1 PUSH1 0xA0 SHL SUB AND SWAP3 SWAP2 POP POP JUMP JUMPDEST PUSH1 0x1 PUSH1 0x1 PUSH1 0xA0 SHL SUB AND PUSH0 SWAP1 DUP2 MSTORE PUSH0 MLOAD PUSH1 0x20 PUSH2 0x27D4 PUSH0 CODECOPY PUSH0 MLOAD SWAP1 PUSH0 MSTORE PUSH1 0x20 MSTORE PUSH1 0x40 SWAP1 KECCAK256 SLOAD SWAP1 JUMP JUMPDEST PUSH2 0x965 PUSH2 0x169C JUMP JUMPDEST PUSH2 0x96E PUSH0 PUSH2 0x16CE JUMP JUMPDEST JUMP JUMPDEST PUSH1 0x60 PUSH2 0x97A PUSH2 0x169C JUMP JUMPDEST PUSH1 0x1 PUSH1 0x1 PUSH1 0xA0 SHL SUB DUP3 AND PUSH2 0x9A1 JUMPI PUSH1 0x40 MLOAD PUSH4 0x4E469669 PUSH1 0xE1 SHL DUP2 MSTORE PUSH1 0x4 ADD PUSH1 0x40 MLOAD DUP1 SWAP2 SUB SWAP1 REVERT JUMPDEST PUSH2 0x9A9 PUSH2 0xF20 JUMP JUMPDEST PUSH0 PUSH2 0x9B3 ADDRESS PUSH2 0x937 JUMP JUMPDEST SWAP1 POP DUP1 PUSH0 SUB PUSH2 0x9D5 JUMPI PUSH1 0x40 MLOAD PUSH4 0xBB55FD27 PUSH1 0xE0 SHL DUP2 MSTORE PUSH1 0x4 ADD PUSH1 0x40 MLOAD DUP1 SWAP2 SUB SWAP1 REVERT JUMPDEST PUSH2 0x9DE DUP2 PUSH2 0xFFD JUMP JUMPDEST SWAP2 POP PUSH2 0x9EA ADDRESS DUP3 PUSH2 0x173E JUMP JUMPDEST PUSH1 0x3 SLOAD PUSH0 JUMPDEST DUP2 DUP2 LT ISZERO PUSH2 0xA8B JUMPI PUSH0 DUP5 DUP3 DUP2 MLOAD DUP2 LT PUSH2 0xA0A JUMPI PUSH2 0xA0A PUSH2 0x255E JUMP JUMPDEST PUSH1 0x20 MUL PUSH1 0x20 ADD ADD MLOAD SWAP1 POP PUSH0 DUP2 GT ISZERO PUSH2 0xA53 JUMPI PUSH0 PUSH1 0x3 DUP4 DUP2 SLOAD DUP2 LT PUSH2 0xA30 JUMPI PUSH2 0xA30 PUSH2 0x255E JUMP JUMPDEST PUSH0 SWAP2 DUP3 MSTORE PUSH1 0x20 SWAP1 SWAP2 KECCAK256 ADD SLOAD PUSH1 0x1 PUSH1 0x1 PUSH1 0xA0 SHL SUB AND SWAP1 POP PUSH2 0xA51 DUP2 DUP9 DUP5 PUSH2 0x1772 JUMP JUMPDEST POP JUMPDEST DUP1 PUSH1 0x4 DUP4 DUP2 SLOAD DUP2 LT PUSH2 0xA67 JUMPI PUSH2 0xA67 PUSH2 0x255E JUMP JUMPDEST SWAP1 PUSH0 MSTORE PUSH1 0x20 PUSH0 KECCAK256 ADD PUSH0 DUP3 DUP3 SLOAD PUSH2 0xA7D SWAP2 SWAP1 PUSH2 0x2515 JUMP JUMPDEST SWAP1 SWAP2 SSTORE POP POP POP PUSH1 0x1 ADD PUSH2 0x9EF JUMP JUMPDEST POP POP POP SWAP2 SWAP1 POP JUMP JUMPDEST PUSH32 0x9016D09D72D40FDAE2FD8CEAC6B6234C7706214FD39C1CD1E609A0528C199300 SLOAD PUSH1 0x1 PUSH1 0x1 PUSH1 0xA0 SHL SUB AND SWAP1 JUMP JUMPDEST PUSH1 0x2 SLOAD PUSH0 SWAP1 PUSH1 0xFF AND ISZERO PUSH2 0xAE7 JUMPI PUSH1 0x40 MLOAD PUSH4 0x6FDA65D PUSH1 0xE3 SHL DUP2 MSTORE PUSH1 0x4 ADD PUSH1 0x40 MLOAD DUP1 SWAP2 SUB SWAP1 REVERT JUMPDEST PUSH1 0x4 DUP3 DUP2 SLOAD DUP2 LT PUSH2 0xAFA JUMPI PUSH2 0xAFA PUSH2 0x255E JUMP JUMPDEST SWAP1 PUSH0 MSTORE PUSH1 0x20 PUSH0 KECCAK256 ADD SLOAD SWAP1 POP SWAP2 SWAP1 POP JUMP JUMPDEST PUSH1 0x2 SLOAD PUSH0 SWAP1 PUSH1 0xFF AND ISZERO PUSH2 0xB30 JUMPI PUSH1 0x40 MLOAD PUSH4 0x6FDA65D PUSH1 0xE3 SHL DUP2 MSTORE PUSH1 0x4 ADD PUSH1 0x40 MLOAD DUP1 SWAP2 SUB SWAP1 REVERT JUMPDEST PUSH0 PUSH2 0xB46 PUSH0 MLOAD PUSH1 0x20 PUSH2 0x27F4 PUSH0 CODECOPY PUSH0 MLOAD SWAP1 PUSH0 MSTORE SLOAD SWAP1 JUMP JUMPDEST SWAP1 POP DUP1 PUSH0 SUB PUSH2 0xB57 JUMPI POP PUSH0 SWAP3 SWAP2 POP POP JUMP JUMPDEST PUSH0 DUP1 SLOAD PUSH1 0x1 PUSH1 0x1 PUSH1 0xA0 SHL SUB AND SWAP1 POP PUSH0 PUSH1 0x4 DUP1 SLOAD SWAP1 POP SWAP1 POP PUSH0 DUP3 PUSH1 0x1 PUSH1 0x1 PUSH1 0xA0 SHL SUB AND PUSH4 0x3FC8CEF3 PUSH1 0x40 MLOAD DUP2 PUSH4 0xFFFFFFFF AND PUSH1 0xE0 SHL DUP2 MSTORE PUSH1 0x4 ADD PUSH1 0x20 PUSH1 0x40 MLOAD DUP1 DUP4 SUB DUP2 DUP7 GAS STATICCALL ISZERO DUP1 ISZERO PUSH2 0xBAB JUMPI RETURNDATASIZE PUSH0 PUSH0 RETURNDATACOPY RETURNDATASIZE PUSH0 REVERT JUMPDEST POP POP POP POP PUSH1 0x40 MLOAD RETURNDATASIZE PUSH1 0x1F NOT PUSH1 0x1F DUP3 ADD AND DUP3 ADD DUP1 PUSH1 0x40 MSTORE POP DUP2 ADD SWAP1 PUSH2 0xBCF SWAP2 SWAP1 PUSH2 0x2572 JUMP JUMPDEST SWAP1 POP PUSH0 JUMPDEST DUP3 DUP2 LT ISZERO PUSH2 0xD44 JUMPI PUSH0 PUSH1 0x3 DUP3 DUP2 SLOAD DUP2 LT PUSH2 0xBEF JUMPI PUSH2 0xBEF PUSH2 0x255E JUMP JUMPDEST PUSH0 SWAP2 DUP3 MSTORE PUSH1 0x20 DUP3 KECCAK256 ADD SLOAD PUSH1 0x4 DUP1 SLOAD PUSH1 0x1 PUSH1 0x1 PUSH1 0xA0 SHL SUB SWAP1 SWAP3 AND SWAP4 POP SWAP1 DUP5 SWAP1 DUP2 LT PUSH2 0xC1B JUMPI PUSH2 0xC1B PUSH2 0x255E JUMP JUMPDEST SWAP1 PUSH0 MSTORE PUSH1 0x20 PUSH0 KECCAK256 ADD SLOAD SWAP1 POP PUSH0 DUP2 GT ISZERO PUSH2 0xD3A JUMPI PUSH1 0x40 MLOAD PUSH4 0xD88E3E3B PUSH1 0xE0 SHL DUP2 MSTORE PUSH1 0x1 PUSH1 0x1 PUSH1 0xA0 SHL SUB DUP4 DUP2 AND PUSH1 0x4 DUP4 ADD MSTORE DUP6 DUP2 AND PUSH1 0x24 DUP4 ADD MSTORE PUSH0 SWAP2 SWAP1 DUP9 AND SWAP1 PUSH4 0xD88E3E3B SWAP1 PUSH1 0x44 ADD PUSH0 PUSH1 0x40 MLOAD DUP1 DUP4 SUB DUP2 DUP7 GAS STATICCALL ISZERO DUP1 ISZERO PUSH2 0xC7C JUMPI RETURNDATASIZE PUSH0 PUSH0 RETURNDATACOPY RETURNDATASIZE PUSH0 REVERT JUMPDEST POP POP POP POP PUSH1 0x40 MLOAD RETURNDATASIZE PUSH0 DUP3 RETURNDATACOPY PUSH1 0x1F RETURNDATASIZE SWAP1 DUP2 ADD PUSH1 0x1F NOT AND DUP3 ADD PUSH1 0x40 MSTORE PUSH2 0xCA3 SWAP2 SWAP1 DUP2 ADD SWAP1 PUSH2 0x258D JUMP JUMPDEST SWAP1 POP PUSH0 DUP9 PUSH2 0xCB1 DUP5 DUP14 PUSH2 0x2634 JUMP JUMPDEST PUSH2 0xCBB SWAP2 SWAP1 PUSH2 0x2528 JUMP JUMPDEST PUSH1 0x40 MLOAD PUSH4 0xD06CA61F PUSH1 0xE0 SHL DUP2 MSTORE SWAP1 SWAP2 POP PUSH1 0x1 PUSH1 0x1 PUSH1 0xA0 SHL SUB DUP10 AND SWAP1 PUSH4 0xD06CA61F SWAP1 PUSH2 0xCEC SWAP1 DUP5 SWAP1 DUP7 SWAP1 PUSH1 0x4 ADD PUSH2 0x264B JUMP JUMPDEST PUSH1 0x20 PUSH1 0x40 MLOAD DUP1 DUP4 SUB DUP2 DUP7 GAS STATICCALL ISZERO DUP1 ISZERO PUSH2 0xD07 JUMPI RETURNDATASIZE PUSH0 PUSH0 RETURNDATACOPY RETURNDATASIZE PUSH0 REVERT JUMPDEST POP POP POP POP PUSH1 0x40 MLOAD RETURNDATASIZE PUSH1 0x1F NOT PUSH1 0x1F DUP3 ADD AND DUP3 ADD DUP1 PUSH1 0x40 MSTORE POP DUP2 ADD SWAP1 PUSH2 0xD2B SWAP2 SWAP1 PUSH2 0x2547 JUMP JUMPDEST PUSH2 0xD35 SWAP1 DUP12 PUSH2 0x24CD JUMP JUMPDEST SWAP10 POP POP POP JUMPDEST POP POP PUSH1 0x1 ADD PUSH2 0xBD3 JUMP JUMPDEST POP POP POP POP POP SWAP2 SWAP1 POP JUMP JUMPDEST PUSH32 0x52C63247E1F47DB19D5CE0460030C497F067CA4CEBF71BA98EEADABE20BACE04 DUP1 SLOAD PUSH1 0x60 SWAP2 PUSH0 MLOAD PUSH1 0x20 PUSH2 0x27D4 PUSH0 CODECOPY PUSH0 MLOAD SWAP1 PUSH0 MSTORE SWAP2 PUSH2 0x499 SWAP1 PUSH2 0x2481 JUMP JUMPDEST PUSH1 0x2 SLOAD PUSH1 0x60 SWAP1 PUSH0 SWAP1 DUP2 SWAP1 PUSH1 0xFF AND ISZERO PUSH2 0xDB7 JUMPI PUSH1 0x40 MLOAD PUSH4 0x6FDA65D PUSH1 0xE3 SHL DUP2 MSTORE PUSH1 0x4 ADD PUSH1 0x40 MLOAD DUP1 SWAP2 SUB SWAP1 REVERT JUMPDEST PUSH1 0x3 SLOAD PUSH0 DUP2 PUSH1 0x1 PUSH1 0x1 PUSH1 0x40 SHL SUB DUP2 GT ISZERO PUSH2 0xDD3 JUMPI PUSH2 0xDD3 PUSH2 0x21A1 JUMP JUMPDEST PUSH1 0x40 MLOAD SWAP1 DUP1 DUP3 MSTORE DUP1 PUSH1 0x20 MUL PUSH1 0x20 ADD DUP3 ADD PUSH1 0x40 MSTORE DUP1 ISZERO PUSH2 0xDFC JUMPI DUP2 PUSH1 0x20 ADD PUSH1 0x20 DUP3 MUL DUP1 CALLDATASIZE DUP4 CALLDATACOPY ADD SWAP1 POP JUMPDEST POP SWAP1 POP PUSH0 JUMPDEST DUP3 DUP2 LT ISZERO PUSH2 0xE4A JUMPI PUSH1 0x4 DUP2 DUP2 SLOAD DUP2 LT PUSH2 0xE1C JUMPI PUSH2 0xE1C PUSH2 0x255E JUMP JUMPDEST SWAP1 PUSH0 MSTORE PUSH1 0x20 PUSH0 KECCAK256 ADD SLOAD DUP3 DUP3 DUP2 MLOAD DUP2 LT PUSH2 0xE37 JUMPI PUSH2 0xE37 PUSH2 0x255E JUMP JUMPDEST PUSH1 0x20 SWAP1 DUP2 MUL SWAP2 SWAP1 SWAP2 ADD ADD MSTORE PUSH1 0x1 ADD PUSH2 0xE01 JUMP JUMPDEST POP PUSH0 PUSH2 0xE61 PUSH0 MLOAD PUSH1 0x20 PUSH2 0x27F4 PUSH0 CODECOPY PUSH0 MLOAD SWAP1 PUSH0 MSTORE SLOAD SWAP1 JUMP JUMPDEST SWAP1 POP PUSH0 PUSH2 0xE6D DUP9 PUSH2 0x937 JUMP JUMPDEST SWAP3 SWAP9 SWAP2 SWAP8 POP SWAP2 SWAP6 POP SWAP4 POP POP POP POP JUMP JUMPDEST PUSH2 0xE84 PUSH2 0x169C JUMP JUMPDEST PUSH0 PUSH2 0xE8D PUSH2 0xA93 JUMP JUMPDEST PUSH1 0x3 SLOAD SWAP1 SWAP2 POP PUSH0 JUMPDEST DUP2 DUP2 LT ISZERO PUSH2 0xF0E JUMPI PUSH0 PUSH1 0x3 DUP3 DUP2 SLOAD DUP2 LT PUSH2 0xEB1 JUMPI PUSH2 0xEB1 PUSH2 0x255E JUMP JUMPDEST PUSH0 SWAP2 DUP3 MSTORE PUSH1 0x20 DUP3 KECCAK256 ADD SLOAD PUSH1 0x4 DUP1 SLOAD PUSH1 0x1 PUSH1 0x1 PUSH1 0xA0 SHL SUB SWAP1 SWAP3 AND SWAP4 POP SWAP1 DUP5 SWAP1 DUP2 LT PUSH2 0xEDD JUMPI PUSH2 0xEDD PUSH2 0x255E JUMP JUMPDEST SWAP1 PUSH0 MSTORE PUSH1 0x20 PUSH0 KECCAK256 ADD SLOAD SWAP1 POP PUSH0 DUP2 GT ISZERO PUSH2 0xF04 JUMPI PUSH2 0xF04 PUSH1 0x1 PUSH1 0x1 PUSH1 0xA0 SHL SUB DUP4 AND DUP7 DUP4 PUSH2 0x1772 JUMP JUMPDEST POP POP PUSH1 0x1 ADD PUSH2 0xE95 JUMP JUMPDEST POP POP POP JUMP JUMPDEST PUSH0 CALLER PUSH2 0x551 DUP2 DUP6 DUP6 PUSH2 0x15F0 JUMP JUMPDEST PUSH0 PUSH0 PUSH0 PUSH2 0xF2B PUSH2 0x813 JUMP JUMPDEST SWAP3 POP SWAP3 POP SWAP3 POP DUP3 PUSH0 SUB PUSH2 0xF3D JUMPI POP POP POP JUMP JUMPDEST DUP1 ISZERO PUSH2 0xF54 JUMPI PUSH2 0xF54 PUSH2 0xF4E PUSH2 0xA93 JUMP JUMPDEST DUP3 PUSH2 0x17C4 JUMP JUMPDEST PUSH2 0xF61 DUP4 PUSH3 0x278D00 PUSH2 0x2634 JUMP JUMPDEST PUSH1 0x1 PUSH0 DUP3 DUP3 SLOAD PUSH2 0xF71 SWAP2 SWAP1 PUSH2 0x24CD JUMP JUMPDEST SWAP1 SWAP2 SSTORE POP PUSH2 0xF7F SWAP1 POP PUSH2 0xA93 JUMP JUMPDEST PUSH1 0x1 PUSH1 0x1 PUSH1 0xA0 SHL SUB AND PUSH32 0x6EF86D1D001D3F4D5D79D6A6647502B17AF442209A78BBBAFB8867CB5CF6FB7 DUP5 DUP5 DUP5 PUSH1 0x1 SLOAD PUSH1 0x40 MLOAD PUSH2 0xFD5 SWAP5 SWAP4 SWAP3 SWAP2 SWAP1 SWAP4 DUP5 MSTORE PUSH1 0x20 DUP5 ADD SWAP3 SWAP1 SWAP3 MSTORE PUSH1 0x40 DUP4 ADD MSTORE PUSH1 0x60 DUP3 ADD MSTORE PUSH1 0x80 ADD SWAP1 JUMP JUMPDEST PUSH1 0x40 MLOAD DUP1 SWAP2 SUB SWAP1 LOG2 POP POP POP JUMP JUMPDEST PUSH2 0xFEA PUSH2 0x169C JUMP JUMPDEST PUSH1 0x2 DUP1 SLOAD PUSH1 0xFF NOT AND SWAP2 ISZERO ISZERO SWAP2 SWAP1 SWAP2 OR SWAP1 SSTORE JUMP JUMPDEST PUSH1 0x2 SLOAD PUSH1 0x60 SWAP1 PUSH1 0xFF AND ISZERO PUSH2 0x1024 JUMPI PUSH1 0x40 MLOAD PUSH4 0x6FDA65D PUSH1 0xE3 SHL DUP2 MSTORE PUSH1 0x4 ADD PUSH1 0x40 MLOAD DUP1 SWAP2 SUB SWAP1 REVERT JUMPDEST PUSH0 PUSH2 0x103A PUSH0 MLOAD PUSH1 0x20 PUSH2 0x27F4 PUSH0 CODECOPY PUSH0 MLOAD SWAP1 PUSH0 MSTORE SLOAD SWAP1 JUMP JUMPDEST PUSH1 0x3 SLOAD SWAP1 SWAP2 POP PUSH1 0x1 PUSH1 0x1 PUSH1 0x40 SHL SUB DUP2 GT ISZERO PUSH2 0x1057 JUMPI PUSH2 0x1057 PUSH2 0x21A1 JUMP JUMPDEST PUSH1 0x40 MLOAD SWAP1 DUP1 DUP3 MSTORE DUP1 PUSH1 0x20 MUL PUSH1 0x20 ADD DUP3 ADD PUSH1 0x40 MSTORE DUP1 ISZERO PUSH2 0x1080 JUMPI DUP2 PUSH1 0x20 ADD PUSH1 0x20 DUP3 MUL DUP1 CALLDATASIZE DUP4 CALLDATACOPY ADD SWAP1 POP JUMPDEST POP SWAP2 POP DUP1 PUSH0 SUB PUSH2 0x1090 JUMPI POP SWAP2 SWAP1 POP JUMP JUMPDEST PUSH0 JUMPDEST PUSH1 0x4 SLOAD DUP2 LT ISZERO PUSH2 0x10F8 JUMPI PUSH0 PUSH1 0x4 DUP3 DUP2 SLOAD DUP2 LT PUSH2 0x10B0 JUMPI PUSH2 0x10B0 PUSH2 0x255E JUMP JUMPDEST SWAP1 PUSH0 MSTORE PUSH1 0x20 PUSH0 KECCAK256 ADD SLOAD SWAP1 POP DUP3 DUP2 DUP7 PUSH2 0x10C8 SWAP2 SWAP1 PUSH2 0x2634 JUMP JUMPDEST PUSH2 0x10D2 SWAP2 SWAP1 PUSH2 0x2528 JUMP JUMPDEST DUP5 DUP4 DUP2 MLOAD DUP2 LT PUSH2 0x10E4 JUMPI PUSH2 0x10E4 PUSH2 0x255E JUMP JUMPDEST PUSH1 0x20 SWAP1 DUP2 MUL SWAP2 SWAP1 SWAP2 ADD ADD MSTORE POP PUSH1 0x1 ADD PUSH2 0x1092 JUMP JUMPDEST POP POP SWAP2 SWAP1 POP JUMP JUMPDEST PUSH1 0x1 PUSH1 0x1 PUSH1 0xA0 SHL SUB SWAP2 DUP3 AND PUSH0 SWAP1 DUP2 MSTORE PUSH32 0x52C63247E1F47DB19D5CE0460030C497F067CA4CEBF71BA98EEADABE20BACE01 PUSH1 0x20 SWAP1 DUP2 MSTORE PUSH1 0x40 DUP1 DUP4 KECCAK256 SWAP4 SWAP1 SWAP5 AND DUP3 MSTORE SWAP2 SWAP1 SWAP2 MSTORE KECCAK256 SLOAD SWAP1 JUMP JUMPDEST PUSH2 0x1150 PUSH2 0x169C JUMP JUMPDEST PUSH0 DUP2 SWAP1 SUB PUSH2 0x1171 JUMPI PUSH1 0x40 MLOAD PUSH4 0xC1AB6DC1 PUSH1 0xE0 SHL DUP2 MSTORE PUSH1 0x4 ADD PUSH1 0x40 MLOAD DUP1 SWAP2 SUB SWAP1 REVERT JUMPDEST PUSH2 0x117D PUSH1 0x3 DUP4 DUP4 PUSH2 0x1FED JUMP JUMPDEST POP PUSH2 0x1186 PUSH2 0x17F8 JUMP JUMPDEST PUSH32 0x3CA096A4C913A6F222A557151D17832DDDAB787E6DDF59063CAB45E15B9A9FAC DUP3 DUP3 PUSH1 0x40 MLOAD PUSH2 0x11B7 SWAP3 SWAP2 SWAP1 PUSH2 0x2663 JUMP JUMPDEST PUSH1 0x40 MLOAD DUP1 SWAP2 SUB SWAP1 LOG1 POP POP JUMP JUMPDEST PUSH0 PUSH2 0x11CC PUSH2 0x169C JUMP JUMPDEST PUSH1 0x1 PUSH1 0x1 PUSH1 0xA0 SHL SUB DUP5 AND PUSH2 0x11F3 JUMPI PUSH1 0x40 MLOAD PUSH4 0x4E469669 PUSH1 0xE1 SHL DUP2 MSTORE PUSH1 0x4 ADD PUSH1 0x40 MLOAD DUP1 SWAP2 SUB SWAP1 REVERT JUMPDEST PUSH0 DUP1 SLOAD PUSH1 0x1 PUSH1 0x1 PUSH1 0xA0 SHL SUB AND SWAP1 POP PUSH0 DUP2 PUSH1 0x1 PUSH1 0x1 PUSH1 0xA0 SHL SUB AND PUSH4 0x3FC8CEF3 PUSH1 0x40 MLOAD DUP2 PUSH4 0xFFFFFFFF AND PUSH1 0xE0 SHL DUP2 MSTORE PUSH1 0x4 ADD PUSH1 0x20 PUSH1 0x40 MLOAD DUP1 DUP4 SUB DUP2 DUP7 GAS STATICCALL ISZERO DUP1 ISZERO PUSH2 0x123E JUMPI RETURNDATASIZE PUSH0 PUSH0 RETURNDATACOPY RETURNDATASIZE PUSH0 REVERT JUMPDEST POP POP POP POP PUSH1 0x40 MLOAD RETURNDATASIZE PUSH1 0x1F NOT PUSH1 0x1F DUP3 ADD AND DUP3 ADD DUP1 PUSH1 0x40 MSTORE POP DUP2 ADD SWAP1 PUSH2 0x1262 SWAP2 SWAP1 PUSH2 0x2572 JUMP JUMPDEST SWAP1 POP PUSH2 0x126C PUSH2 0xF20 JUMP JUMPDEST PUSH1 0x3 SLOAD PUSH0 DUP1 JUMPDEST DUP3 DUP2 LT ISZERO PUSH2 0x13AF JUMPI PUSH0 PUSH1 0x3 DUP3 DUP2 SLOAD DUP2 LT PUSH2 0x128E JUMPI PUSH2 0x128E PUSH2 0x255E JUMP JUMPDEST PUSH0 SWAP2 DUP3 MSTORE PUSH1 0x20 DUP3 KECCAK256 ADD SLOAD PUSH1 0x40 MLOAD PUSH4 0xD88E3E3B PUSH1 0xE0 SHL DUP2 MSTORE PUSH1 0x1 PUSH1 0x1 PUSH1 0xA0 SHL SUB SWAP2 DUP3 AND PUSH1 0x4 DUP3 ADD DUP2 SWAP1 MSTORE DUP9 DUP4 AND PUSH1 0x24 DUP4 ADD MSTORE SWAP4 POP SWAP1 DUP9 AND SWAP1 PUSH4 0xD88E3E3B SWAP1 PUSH1 0x44 ADD PUSH0 PUSH1 0x40 MLOAD DUP1 DUP4 SUB DUP2 DUP7 GAS STATICCALL ISZERO DUP1 ISZERO PUSH2 0x12E8 JUMPI RETURNDATASIZE PUSH0 PUSH0 RETURNDATACOPY RETURNDATASIZE PUSH0 REVERT JUMPDEST POP POP POP POP PUSH1 0x40 MLOAD RETURNDATASIZE PUSH0 DUP3 RETURNDATACOPY PUSH1 0x1F RETURNDATASIZE SWAP1 DUP2 ADD PUSH1 0x1F NOT AND DUP3 ADD PUSH1 0x40 MSTORE PUSH2 0x130F SWAP2 SWAP1 DUP2 ADD SWAP1 PUSH2 0x258D JUMP JUMPDEST SWAP1 POP DUP7 PUSH1 0x1 PUSH1 0x1 PUSH1 0xA0 SHL SUB AND PUSH4 0xD06CA61F DUP12 DUP12 DUP7 DUP2 DUP2 LT PUSH2 0x1332 JUMPI PUSH2 0x1332 PUSH2 0x255E JUMP JUMPDEST SWAP1 POP PUSH1 0x20 MUL ADD CALLDATALOAD DUP4 PUSH1 0x40 MLOAD DUP4 PUSH4 0xFFFFFFFF AND PUSH1 0xE0 SHL DUP2 MSTORE PUSH1 0x4 ADD PUSH2 0x1357 SWAP3 SWAP2 SWAP1 PUSH2 0x264B JUMP JUMPDEST PUSH1 0x20 PUSH1 0x40 MLOAD DUP1 DUP4 SUB DUP2 DUP7 GAS STATICCALL ISZERO DUP1 ISZERO PUSH2 0x1372 JUMPI RETURNDATASIZE PUSH0 PUSH0 RETURNDATACOPY RETURNDATASIZE PUSH0 REVERT JUMPDEST POP POP POP POP PUSH1 0x40 MLOAD RETURNDATASIZE PUSH1 0x1F NOT PUSH1 0x1F DUP3 ADD AND DUP3 ADD DUP1 PUSH1 0x40 MSTORE POP DUP2 ADD SWAP1 PUSH2 0x1396 SWAP2 SWAP1 PUSH2 0x2547 JUMP JUMPDEST PUSH2 0x13A0 SWAP1 DUP6 PUSH2 0x24CD JUMP JUMPDEST SWAP4 POP DUP3 PUSH1 0x1 ADD SWAP3 POP POP POP PUSH2 0x1272 JUMP JUMPDEST POP PUSH0 MLOAD PUSH1 0x20 PUSH2 0x27F4 PUSH0 CODECOPY PUSH0 MLOAD SWAP1 PUSH0 MSTORE SLOAD ISZERO PUSH2 0x13D2 JUMPI PUSH2 0x13CD DUP2 PUSH2 0x144E JUMP JUMPDEST PUSH2 0x13DD JUMP JUMPDEST PUSH9 0x3635C9ADC5DEA00000 JUMPDEST SWAP5 POP PUSH2 0x13E9 DUP9 DUP7 PUSH2 0x17C4 JUMP JUMPDEST PUSH0 JUMPDEST DUP7 DUP2 LT ISZERO PUSH2 0x1442 JUMPI DUP8 DUP8 DUP3 DUP2 DUP2 LT PUSH2 0x1405 JUMPI PUSH2 0x1405 PUSH2 0x255E JUMP JUMPDEST SWAP1 POP PUSH1 0x20 MUL ADD CALLDATALOAD PUSH1 0x4 DUP3 DUP2 SLOAD DUP2 LT PUSH2 0x141F JUMPI PUSH2 0x141F PUSH2 0x255E JUMP JUMPDEST SWAP1 PUSH0 MSTORE PUSH1 0x20 PUSH0 KECCAK256 ADD PUSH0 DUP3 DUP3 SLOAD PUSH2 0x1435 SWAP2 SWAP1 PUSH2 0x24CD JUMP JUMPDEST SWAP1 SWAP2 SSTORE POP POP PUSH1 0x1 ADD PUSH2 0x13EB JUMP JUMPDEST POP POP POP POP POP SWAP4 SWAP3 POP POP POP JUMP JUMPDEST PUSH1 0x2 SLOAD PUSH0 SWAP1 PUSH1 0xFF AND ISZERO PUSH2 0x1474 JUMPI PUSH1 0x40 MLOAD PUSH4 0x6FDA65D PUSH1 0xE3 SHL DUP2 MSTORE PUSH1 0x4 ADD PUSH1 0x40 MLOAD DUP1 SWAP2 SUB SWAP1 REVERT JUMPDEST PUSH0 PUSH2 0x147D PUSH2 0x190C JUMP JUMPDEST SWAP1 POP DUP1 PUSH0 SUB PUSH2 0x1497 JUMPI POP PUSH9 0x3635C9ADC5DEA00000 SWAP3 SWAP2 POP POP JUMP JUMPDEST DUP1 PUSH2 0x14AD PUSH0 MLOAD PUSH1 0x20 PUSH2 0x27F4 PUSH0 CODECOPY PUSH0 MLOAD SWAP1 PUSH0 MSTORE SLOAD SWAP1 JUMP JUMPDEST PUSH2 0x14B7 SWAP1 DUP6 PUSH2 0x2634 JUMP JUMPDEST PUSH2 0x14C1 SWAP2 SWAP1 PUSH2 0x2528 JUMP JUMPDEST SWAP4 SWAP3 POP POP POP JUMP JUMPDEST PUSH1 0x2 SLOAD PUSH1 0x60 SWAP1 PUSH1 0xFF AND ISZERO PUSH2 0x14EF JUMPI PUSH1 0x40 MLOAD PUSH4 0x6FDA65D PUSH1 0xE3 SHL DUP2 MSTORE PUSH1 0x4 ADD PUSH1 0x40 MLOAD DUP1 SWAP2 SUB SWAP1 REVERT JUMPDEST PUSH1 0x4 DUP1 SLOAD DUP1 PUSH1 0x20 MUL PUSH1 0x20 ADD PUSH1 0x40 MLOAD SWAP1 DUP2 ADD PUSH1 0x40 MSTORE DUP1 SWAP3 SWAP2 SWAP1 DUP2 DUP2 MSTORE PUSH1 0x20 ADD DUP3 DUP1 SLOAD DUP1 ISZERO PUSH2 0x5FB JUMPI PUSH1 0x20 MUL DUP3 ADD SWAP2 SWAP1 PUSH0 MSTORE PUSH1 0x20 PUSH0 KECCAK256 SWAP1 JUMPDEST DUP2 SLOAD DUP2 MSTORE PUSH1 0x20 ADD SWAP1 PUSH1 0x1 ADD SWAP1 DUP1 DUP4 GT PUSH2 0x1525 JUMPI POP POP POP POP POP SWAP1 POP SWAP1 JUMP JUMPDEST PUSH2 0x154A PUSH2 0x169C JUMP JUMPDEST PUSH1 0x1 PUSH1 0x1 PUSH1 0xA0 SHL SUB DUP2 AND PUSH2 0x1573 JUMPI PUSH1 0x40 MLOAD PUSH4 0x1E4FBDF7 PUSH1 0xE0 SHL DUP2 MSTORE PUSH0 PUSH1 0x4 DUP3 ADD MSTORE PUSH1 0x24 ADD PUSH2 0x700 JUMP JUMPDEST PUSH2 0x157C DUP2 PUSH2 0x16CE JUMP JUMPDEST POP JUMP JUMPDEST PUSH2 0xF0E DUP4 DUP4 DUP4 PUSH1 0x1 PUSH2 0x1ADD JUMP JUMPDEST PUSH0 PUSH2 0x1597 DUP5 DUP5 PUSH2 0x10FF JUMP JUMPDEST SWAP1 POP PUSH0 NOT DUP2 LT ISZERO PUSH2 0x15EA JUMPI DUP2 DUP2 LT ISZERO PUSH2 0x15DC JUMPI PUSH1 0x40 MLOAD PUSH4 0x7DC7A0D9 PUSH1 0xE1 SHL DUP2 MSTORE PUSH1 0x1 PUSH1 0x1 PUSH1 0xA0 SHL SUB DUP5 AND PUSH1 0x4 DUP3 ADD MSTORE PUSH1 0x24 DUP2 ADD DUP3 SWAP1 MSTORE PUSH1 0x44 DUP2 ADD DUP4 SWAP1 MSTORE PUSH1 0x64 ADD PUSH2 0x700 JUMP JUMPDEST PUSH2 0x15EA DUP5 DUP5 DUP5 DUP5 SUB PUSH0 PUSH2 0x1ADD JUMP JUMPDEST POP POP POP POP JUMP JUMPDEST PUSH1 0x1 PUSH1 0x1 PUSH1 0xA0 SHL SUB DUP4 AND PUSH2 0x1619 JUMPI PUSH1 0x40 MLOAD PUSH4 0x4B637E8F PUSH1 0xE1 SHL DUP2 MSTORE PUSH0 PUSH1 0x4 DUP3 ADD MSTORE PUSH1 0x24 ADD PUSH2 0x700 JUMP JUMPDEST PUSH1 0x1 PUSH1 0x1 PUSH1 0xA0 SHL SUB DUP3 AND PUSH2 0x1642 JUMPI PUSH1 0x40 MLOAD PUSH4 0xEC442F05 PUSH1 0xE0 SHL DUP2 MSTORE PUSH0 PUSH1 0x4 DUP3 ADD MSTORE PUSH1 0x24 ADD PUSH2 0x700 JUMP JUMPDEST PUSH2 0xF0E DUP4 DUP4 DUP4 PUSH2 0x1BC1 JUMP JUMPDEST PUSH0 DUP1 PUSH32 0xF0C57E16840DF040F15088DC2F81FE391C3923BEC73E23A9662EFC9C229C6A00 PUSH2 0x557 JUMP JUMPDEST PUSH2 0x167D PUSH2 0x1CFA JUMP JUMPDEST PUSH2 0x1687 DUP3 DUP3 PUSH2 0x1D1F JUMP JUMPDEST POP POP JUMP JUMPDEST PUSH2 0x1693 PUSH2 0x1CFA JUMP JUMPDEST PUSH2 0x157C DUP2 PUSH2 0x1D6F JUMP JUMPDEST CALLER PUSH2 0x16A5 PUSH2 0xA93 JUMP JUMPDEST PUSH1 0x1 PUSH1 0x1 PUSH1 0xA0 SHL SUB AND EQ PUSH2 0x96E JUMPI PUSH1 0x40 MLOAD PUSH4 0x118CDAA7 PUSH1 0xE0 SHL DUP2 MSTORE CALLER PUSH1 0x4 DUP3 ADD MSTORE PUSH1 0x24 ADD PUSH2 0x700 JUMP JUMPDEST PUSH32 0x9016D09D72D40FDAE2FD8CEAC6B6234C7706214FD39C1CD1E609A0528C199300 DUP1 SLOAD PUSH1 0x1 PUSH1 0x1 PUSH1 0xA0 SHL SUB NOT DUP2 AND PUSH1 0x1 PUSH1 0x1 PUSH1 0xA0 SHL SUB DUP5 DUP2 AND SWAP2 DUP3 OR DUP5 SSTORE PUSH1 0x40 MLOAD SWAP3 AND SWAP2 DUP3 SWAP1 PUSH32 0x8BE0079C531659141344CD1FD0A4F28419497F9722A3DAAFE3B4186F6B6457E0 SWAP1 PUSH0 SWAP1 LOG3 POP POP POP JUMP JUMPDEST PUSH1 0x1 PUSH1 0x1 PUSH1 0xA0 SHL SUB DUP3 AND PUSH2 0x1767 JUMPI PUSH1 0x40 MLOAD PUSH4 0x4B637E8F PUSH1 0xE1 SHL DUP2 MSTORE PUSH0 PUSH1 0x4 DUP3 ADD MSTORE PUSH1 0x24 ADD PUSH2 0x700 JUMP JUMPDEST PUSH2 0x1687 DUP3 PUSH0 DUP4 PUSH2 0x1BC1 JUMP JUMPDEST PUSH1 0x40 DUP1 MLOAD PUSH1 0x1 PUSH1 0x1 PUSH1 0xA0 SHL SUB DUP5 AND PUSH1 0x24 DUP3 ADD MSTORE PUSH1 0x44 DUP1 DUP3 ADD DUP5 SWAP1 MSTORE DUP3 MLOAD DUP1 DUP4 SUB SWAP1 SWAP2 ADD DUP2 MSTORE PUSH1 0x64 SWAP1 SWAP2 ADD SWAP1 SWAP2 MSTORE PUSH1 0x20 DUP2 ADD DUP1 MLOAD PUSH1 0x1 PUSH1 0x1 PUSH1 0xE0 SHL SUB AND PUSH4 0xA9059CBB PUSH1 0xE0 SHL OR SWAP1 MSTORE PUSH2 0xF0E SWAP1 DUP5 SWAP1 PUSH2 0x1D77 JUMP JUMPDEST PUSH1 0x1 PUSH1 0x1 PUSH1 0xA0 SHL SUB DUP3 AND PUSH2 0x17ED JUMPI PUSH1 0x40 MLOAD PUSH4 0xEC442F05 PUSH1 0xE0 SHL DUP2 MSTORE PUSH0 PUSH1 0x4 DUP3 ADD MSTORE PUSH1 0x24 ADD PUSH2 0x700 JUMP JUMPDEST PUSH2 0x1687 PUSH0 DUP4 DUP4 PUSH2 0x1BC1 JUMP JUMPDEST PUSH1 0x3 SLOAD DUP1 PUSH1 0x1 PUSH1 0x1 PUSH1 0x40 SHL SUB DUP2 GT ISZERO PUSH2 0x1813 JUMPI PUSH2 0x1813 PUSH2 0x21A1 JUMP JUMPDEST PUSH1 0x40 MLOAD SWAP1 DUP1 DUP3 MSTORE DUP1 PUSH1 0x20 MUL PUSH1 0x20 ADD DUP3 ADD PUSH1 0x40 MSTORE DUP1 ISZERO PUSH2 0x183C JUMPI DUP2 PUSH1 0x20 ADD PUSH1 0x20 DUP3 MUL DUP1 CALLDATASIZE DUP4 CALLDATACOPY ADD SWAP1 POP JUMPDEST POP DUP1 MLOAD PUSH2 0x1851 SWAP2 PUSH1 0x4 SWAP2 PUSH1 0x20 SWAP1 SWAP2 ADD SWAP1 PUSH2 0x204E JUMP JUMPDEST POP PUSH0 JUMPDEST DUP2 DUP2 LT ISZERO PUSH2 0x1687 JUMPI PUSH0 PUSH1 0x3 DUP3 DUP2 SLOAD DUP2 LT PUSH2 0x1870 JUMPI PUSH2 0x1870 PUSH2 0x255E JUMP JUMPDEST PUSH0 SWAP2 DUP3 MSTORE PUSH1 0x20 SWAP1 SWAP2 KECCAK256 ADD SLOAD PUSH1 0x40 MLOAD PUSH4 0x70A08231 PUSH1 0xE0 SHL DUP2 MSTORE ADDRESS PUSH1 0x4 DUP3 ADD MSTORE PUSH1 0x1 PUSH1 0x1 PUSH1 0xA0 SHL SUB SWAP1 SWAP2 AND SWAP2 POP DUP2 SWAP1 PUSH4 0x70A08231 SWAP1 PUSH1 0x24 ADD PUSH1 0x20 PUSH1 0x40 MLOAD DUP1 DUP4 SUB DUP2 DUP7 GAS STATICCALL ISZERO DUP1 ISZERO PUSH2 0x18C1 JUMPI RETURNDATASIZE PUSH0 PUSH0 RETURNDATACOPY RETURNDATASIZE PUSH0 REVERT JUMPDEST POP POP POP POP PUSH1 0x40 MLOAD RETURNDATASIZE PUSH1 0x1F NOT PUSH1 0x1F DUP3 ADD AND DUP3 ADD DUP1 PUSH1 0x40 MSTORE POP DUP2 ADD SWAP1 PUSH2 0x18E5 SWAP2 SWAP1 PUSH2 0x2547 JUMP JUMPDEST PUSH1 0x4 DUP4 DUP2 SLOAD DUP2 LT PUSH2 0x18F8 JUMPI PUSH2 0x18F8 PUSH2 0x255E JUMP JUMPDEST PUSH0 SWAP2 DUP3 MSTORE PUSH1 0x20 SWAP1 SWAP2 KECCAK256 ADD SSTORE POP PUSH1 0x1 ADD PUSH2 0x1854 JUMP JUMPDEST PUSH0 PUSH0 PUSH2 0x191F PUSH0 SLOAD PUSH1 0x1 PUSH1 0x1 PUSH1 0xA0 SHL SUB AND SWAP1 JUMP JUMPDEST SWAP1 POP PUSH0 DUP2 PUSH1 0x1 PUSH1 0x1 PUSH1 0xA0 SHL SUB AND PUSH4 0x3FC8CEF3 PUSH1 0x40 MLOAD DUP2 PUSH4 0xFFFFFFFF AND PUSH1 0xE0 SHL DUP2 MSTORE PUSH1 0x4 ADD PUSH1 0x20 PUSH1 0x40 MLOAD DUP1 DUP4 SUB DUP2 DUP7 GAS STATICCALL ISZERO DUP1 ISZERO PUSH2 0x195E JUMPI RETURNDATASIZE PUSH0 PUSH0 RETURNDATACOPY RETURNDATASIZE PUSH0 REVERT JUMPDEST POP POP POP POP PUSH1 0x40 MLOAD RETURNDATASIZE PUSH1 0x1F NOT PUSH1 0x1F DUP3 ADD AND DUP3 ADD DUP1 PUSH1 0x40 MSTORE POP DUP2 ADD SWAP1 PUSH2 0x1982 SWAP2 SWAP1 PUSH2 0x2572 JUMP JUMPDEST PUSH1 0x4 SLOAD SWAP1 SWAP2 POP PUSH0 JUMPDEST DUP2 DUP2 LT ISZERO PUSH2 0x1AD6 JUMPI PUSH0 PUSH1 0x4 DUP3 DUP2 SLOAD DUP2 LT PUSH2 0x19A6 JUMPI PUSH2 0x19A6 PUSH2 0x255E JUMP JUMPDEST SWAP1 PUSH0 MSTORE PUSH1 0x20 PUSH0 KECCAK256 ADD SLOAD SWAP1 POP PUSH0 DUP2 GT ISZERO PUSH2 0x1ACD JUMPI PUSH0 PUSH1 0x3 DUP4 DUP2 SLOAD DUP2 LT PUSH2 0x19CD JUMPI PUSH2 0x19CD PUSH2 0x255E JUMP JUMPDEST PUSH0 SWAP2 DUP3 MSTORE PUSH1 0x20 DUP3 KECCAK256 ADD SLOAD PUSH1 0x40 MLOAD PUSH4 0xD88E3E3B PUSH1 0xE0 SHL DUP2 MSTORE PUSH1 0x1 PUSH1 0x1 PUSH1 0xA0 SHL SUB SWAP2 DUP3 AND PUSH1 0x4 DUP3 ADD DUP2 SWAP1 MSTORE DUP9 DUP4 AND PUSH1 0x24 DUP4 ADD MSTORE SWAP4 POP SWAP1 DUP9 AND SWAP1 PUSH4 0xD88E3E3B SWAP1 PUSH1 0x44 ADD PUSH0 PUSH1 0x40 MLOAD DUP1 DUP4 SUB DUP2 DUP7 GAS STATICCALL ISZERO DUP1 ISZERO PUSH2 0x1A27 JUMPI RETURNDATASIZE PUSH0 PUSH0 RETURNDATACOPY RETURNDATASIZE PUSH0 REVERT JUMPDEST POP POP POP POP PUSH1 0x40 MLOAD RETURNDATASIZE PUSH0 DUP3 RETURNDATACOPY PUSH1 0x1F RETURNDATASIZE SWAP1 DUP2 ADD PUSH1 0x1F NOT AND DUP3 ADD PUSH1 0x40 MSTORE PUSH2 0x1A4E SWAP2 SWAP1 DUP2 ADD SWAP1 PUSH2 0x258D JUMP JUMPDEST PUSH1 0x40 MLOAD PUSH4 0xD06CA61F PUSH1 0xE0 SHL DUP2 MSTORE SWAP1 SWAP2 POP PUSH1 0x1 PUSH1 0x1 PUSH1 0xA0 SHL SUB DUP9 AND SWAP1 PUSH4 0xD06CA61F SWAP1 PUSH2 0x1A7F SWAP1 DUP7 SWAP1 DUP6 SWAP1 PUSH1 0x4 ADD PUSH2 0x264B JUMP JUMPDEST PUSH1 0x20 PUSH1 0x40 MLOAD DUP1 DUP4 SUB DUP2 DUP7 GAS STATICCALL ISZERO DUP1 ISZERO PUSH2 0x1A9A JUMPI RETURNDATASIZE PUSH0 PUSH0 RETURNDATACOPY RETURNDATASIZE PUSH0 REVERT JUMPDEST POP POP POP POP PUSH1 0x40 MLOAD RETURNDATASIZE PUSH1 0x1F NOT PUSH1 0x1F DUP3 ADD AND DUP3 ADD DUP1 PUSH1 0x40 MSTORE POP DUP2 ADD SWAP1 PUSH2 0x1ABE SWAP2 SWAP1 PUSH2 0x2547 JUMP JUMPDEST PUSH2 0x1AC8 SWAP1 DUP10 PUSH2 0x24CD JUMP JUMPDEST SWAP8 POP POP POP JUMPDEST POP PUSH1 0x1 ADD PUSH2 0x198A JUMP JUMPDEST POP POP POP POP SWAP1 JUMP JUMPDEST PUSH0 MLOAD PUSH1 0x20 PUSH2 0x27D4 PUSH0 CODECOPY PUSH0 MLOAD SWAP1 PUSH0 MSTORE PUSH1 0x1 PUSH1 0x1 PUSH1 0xA0 SHL SUB DUP6 AND PUSH2 0x1B14 JUMPI PUSH1 0x40 MLOAD PUSH4 0xE602DF05 PUSH1 0xE0 SHL DUP2 MSTORE PUSH0 PUSH1 0x4 DUP3 ADD MSTORE PUSH1 0x24 ADD PUSH2 0x700 JUMP JUMPDEST PUSH1 0x1 PUSH1 0x1 PUSH1 0xA0 SHL SUB DUP5 AND PUSH2 0x1B3D JUMPI PUSH1 0x40 MLOAD PUSH4 0x4A1406B1 PUSH1 0xE1 SHL DUP2 MSTORE PUSH0 PUSH1 0x4 DUP3 ADD MSTORE PUSH1 0x24 ADD PUSH2 0x700 JUMP JUMPDEST PUSH1 0x1 PUSH1 0x1 PUSH1 0xA0 SHL SUB DUP1 DUP7 AND PUSH0 SWAP1 DUP2 MSTORE PUSH1 0x1 DUP4 ADD PUSH1 0x20 SWAP1 DUP2 MSTORE PUSH1 0x40 DUP1 DUP4 KECCAK256 SWAP4 DUP9 AND DUP4 MSTORE SWAP3 SWAP1 MSTORE KECCAK256 DUP4 SWAP1 SSTORE DUP2 ISZERO PUSH2 0x1BBA JUMPI DUP4 PUSH1 0x1 PUSH1 0x1 PUSH1 0xA0 SHL SUB AND DUP6 PUSH1 0x1 PUSH1 0x1 PUSH1 0xA0 SHL SUB AND PUSH32 0x8C5BE1E5EBEC7D5BD14F71427D1E84F3DD0314C0F7B2291E5B200AC8C7C3B925 DUP6 PUSH1 0x40 MLOAD PUSH2 0x1BB1 SWAP2 DUP2 MSTORE PUSH1 0x20 ADD SWAP1 JUMP JUMPDEST PUSH1 0x40 MLOAD DUP1 SWAP2 SUB SWAP1 LOG3 JUMPDEST POP POP POP POP POP JUMP JUMPDEST PUSH0 MLOAD PUSH1 0x20 PUSH2 0x27D4 PUSH0 CODECOPY PUSH0 MLOAD SWAP1 PUSH0 MSTORE PUSH1 0x1 PUSH1 0x1 PUSH1 0xA0 SHL SUB DUP5 AND PUSH2 0x1BFB JUMPI DUP2 DUP2 PUSH1 0x2 ADD PUSH0 DUP3 DUP3 SLOAD PUSH2 0x1BF0 SWAP2 SWAP1 PUSH2 0x24CD JUMP JUMPDEST SWAP1 SWAP2 SSTORE POP PUSH2 0x1C6B SWAP1 POP JUMP JUMPDEST PUSH1 0x1 PUSH1 0x1 PUSH1 0xA0 SHL SUB DUP5 AND PUSH0 SWAP1 DUP2 MSTORE PUSH1 0x20 DUP3 SWAP1 MSTORE PUSH1 0x40 SWAP1 KECCAK256 SLOAD DUP3 DUP2 LT ISZERO PUSH2 0x1C4D JUMPI PUSH1 0x40 MLOAD PUSH4 0x391434E3 PUSH1 0xE2 SHL DUP2 MSTORE PUSH1 0x1 PUSH1 0x1 PUSH1 0xA0 SHL SUB DUP7 AND PUSH1 0x4 DUP3 ADD MSTORE PUSH1 0x24 DUP2 ADD DUP3 SWAP1 MSTORE PUSH1 0x44 DUP2 ADD DUP5 SWAP1 MSTORE PUSH1 0x64 ADD PUSH2 0x700 JUMP JUMPDEST PUSH1 0x1 PUSH1 0x1 PUSH1 0xA0 SHL SUB DUP6 AND PUSH0 SWAP1 DUP2 MSTORE PUSH1 0x20 DUP4 SWAP1 MSTORE PUSH1 0x40 SWAP1 KECCAK256 SWAP1 DUP4 SWAP1 SUB SWAP1 SSTORE JUMPDEST PUSH1 0x1 PUSH1 0x1 PUSH1 0xA0 SHL SUB DUP4 AND PUSH2 0x1C89 JUMPI PUSH1 0x2 DUP2 ADD DUP1 SLOAD DUP4 SWAP1 SUB SWAP1 SSTORE PUSH2 0x1CA7 JUMP JUMPDEST PUSH1 0x1 PUSH1 0x1 PUSH1 0xA0 SHL SUB DUP4 AND PUSH0 SWAP1 DUP2 MSTORE PUSH1 0x20 DUP3 SWAP1 MSTORE PUSH1 0x40 SWAP1 KECCAK256 DUP1 SLOAD DUP4 ADD SWAP1 SSTORE JUMPDEST DUP3 PUSH1 0x1 PUSH1 0x1 PUSH1 0xA0 SHL SUB AND DUP5 PUSH1 0x1 PUSH1 0x1 PUSH1 0xA0 SHL SUB AND PUSH32 0xDDF252AD1BE2C89B69C2B068FC378DAA952BA7F163C4A11628F55A4DF523B3EF DUP5 PUSH1 0x40 MLOAD PUSH2 0x1CEC SWAP2 DUP2 MSTORE PUSH1 0x20 ADD SWAP1 JUMP JUMPDEST PUSH1 0x40 MLOAD DUP1 SWAP2 SUB SWAP1 LOG3 POP POP POP POP JUMP JUMPDEST PUSH2 0x1D02 PUSH2 0x1E4A JUMP JUMPDEST PUSH2 0x96E JUMPI PUSH1 0x40 MLOAD PUSH4 0x1AFCD79F PUSH1 0xE3 SHL DUP2 MSTORE PUSH1 0x4 ADD PUSH1 0x40 MLOAD DUP1 SWAP2 SUB SWAP1 REVERT JUMPDEST PUSH2 0x1D27 PUSH2 0x1CFA JUMP JUMPDEST PUSH0 MLOAD PUSH1 0x20 PUSH2 0x27D4 PUSH0 CODECOPY PUSH0 MLOAD SWAP1 PUSH0 MSTORE PUSH32 0x52C63247E1F47DB19D5CE0460030C497F067CA4CEBF71BA98EEADABE20BACE03 PUSH2 0x1D60 DUP5 DUP3 PUSH2 0x26F3 JUMP JUMPDEST POP PUSH1 0x4 DUP2 ADD PUSH2 0x15EA DUP4 DUP3 PUSH2 0x26F3 JUMP JUMPDEST PUSH2 0x154A PUSH2 0x1CFA JUMP JUMPDEST PUSH0 PUSH2 0x1DCB DUP3 PUSH1 0x40 MLOAD DUP1 PUSH1 0x40 ADD PUSH1 0x40 MSTORE DUP1 PUSH1 0x20 DUP2 MSTORE PUSH1 0x20 ADD PUSH32 0x5361666545524332303A206C6F772D6C6576656C2063616C6C206661696C6564 DUP2 MSTORE POP DUP6 PUSH1 0x1 PUSH1 0x1 PUSH1 0xA0 SHL SUB AND PUSH2 0x1E63 SWAP1 SWAP3 SWAP2 SWAP1 PUSH4 0xFFFFFFFF AND JUMP JUMPDEST SWAP1 POP DUP1 MLOAD PUSH0 EQ DUP1 PUSH2 0x1DEB JUMPI POP DUP1 DUP1 PUSH1 0x20 ADD SWAP1 MLOAD DUP2 ADD SWAP1 PUSH2 0x1DEB SWAP2 SWAP1 PUSH2 0x27AD JUMP JUMPDEST PUSH2 0xF0E JUMPI PUSH1 0x40 MLOAD PUSH3 0x461BCD PUSH1 0xE5 SHL DUP2 MSTORE PUSH1 0x20 PUSH1 0x4 DUP3 ADD MSTORE PUSH1 0x2A PUSH1 0x24 DUP3 ADD MSTORE PUSH32 0x5361666545524332303A204552433230206F7065726174696F6E20646964206E PUSH1 0x44 DUP3 ADD MSTORE PUSH10 0x1BDD081CDD58D8D95959 PUSH1 0xB2 SHL PUSH1 0x64 DUP3 ADD MSTORE PUSH1 0x84 ADD PUSH2 0x700 JUMP JUMPDEST PUSH0 PUSH2 0x1E53 PUSH2 0x164D JUMP JUMPDEST SLOAD PUSH1 0x1 PUSH1 0x40 SHL SWAP1 DIV PUSH1 0xFF AND SWAP2 SWAP1 POP JUMP JUMPDEST PUSH1 0x60 PUSH2 0x1E71 DUP5 DUP5 PUSH0 DUP6 PUSH2 0x1E79 JUMP JUMPDEST SWAP5 SWAP4 POP POP POP POP JUMP JUMPDEST PUSH1 0x60 DUP3 SELFBALANCE LT ISZERO PUSH2 0x1EDA JUMPI PUSH1 0x40 MLOAD PUSH3 0x461BCD PUSH1 0xE5 SHL DUP2 MSTORE PUSH1 0x20 PUSH1 0x4 DUP3 ADD MSTORE PUSH1 0x26 PUSH1 0x24 DUP3 ADD MSTORE PUSH32 0x416464726573733A20696E73756666696369656E742062616C616E636520666F PUSH1 0x44 DUP3 ADD MSTORE PUSH6 0x1C8818D85B1B PUSH1 0xD2 SHL PUSH1 0x64 DUP3 ADD MSTORE PUSH1 0x84 ADD PUSH2 0x700 JUMP JUMPDEST PUSH0 PUSH0 DUP7 PUSH1 0x1 PUSH1 0x1 PUSH1 0xA0 SHL SUB AND DUP6 DUP8 PUSH1 0x40 MLOAD PUSH2 0x1EF5 SWAP2 SWAP1 PUSH2 0x27C8 JUMP JUMPDEST PUSH0 PUSH1 0x40 MLOAD DUP1 DUP4 SUB DUP2 DUP6 DUP8 GAS CALL SWAP3 POP POP POP RETURNDATASIZE DUP1 PUSH0 DUP2 EQ PUSH2 0x1F2F JUMPI PUSH1 0x40 MLOAD SWAP2 POP PUSH1 0x1F NOT PUSH1 0x3F RETURNDATASIZE ADD AND DUP3 ADD PUSH1 0x40 MSTORE RETURNDATASIZE DUP3 MSTORE RETURNDATASIZE PUSH0 PUSH1 0x20 DUP5 ADD RETURNDATACOPY PUSH2 0x1F34 JUMP JUMPDEST PUSH1 0x60 SWAP2 POP JUMPDEST POP SWAP2 POP SWAP2 POP PUSH2 0x1F45 DUP8 DUP4 DUP4 DUP8 PUSH2 0x1F50 JUMP JUMPDEST SWAP8 SWAP7 POP POP POP POP POP POP POP JUMP JUMPDEST PUSH1 0x60 DUP4 ISZERO PUSH2 0x1FBE JUMPI DUP3 MLOAD PUSH0 SUB PUSH2 0x1FB7 JUMPI PUSH1 0x1 PUSH1 0x1 PUSH1 0xA0 SHL SUB DUP6 AND EXTCODESIZE PUSH2 0x1FB7 JUMPI PUSH1 0x40 MLOAD PUSH3 0x461BCD PUSH1 0xE5 SHL DUP2 MSTORE PUSH1 0x20 PUSH1 0x4 DUP3 ADD MSTORE PUSH1 0x1D PUSH1 0x24 DUP3 ADD MSTORE PUSH32 0x416464726573733A2063616C6C20746F206E6F6E2D636F6E7472616374000000 PUSH1 0x44 DUP3 ADD MSTORE PUSH1 0x64 ADD PUSH2 0x700 JUMP JUMPDEST POP DUP2 PUSH2 0x1E71 JUMP JUMPDEST PUSH2 0x1E71 DUP4 DUP4 DUP2 MLOAD ISZERO PUSH2 0x1FD3 JUMPI DUP2 MLOAD DUP1 DUP4 PUSH1 0x20 ADD REVERT JUMPDEST DUP1 PUSH1 0x40 MLOAD PUSH3 0x461BCD PUSH1 0xE5 SHL DUP2 MSTORE PUSH1 0x4 ADD PUSH2 0x700 SWAP2 SWAP1 PUSH2 0x209B JUMP JUMPDEST DUP3 DUP1 SLOAD DUP3 DUP3 SSTORE SWAP1 PUSH0 MSTORE PUSH1 0x20 PUSH0 KECCAK256 SWAP1 DUP2 ADD SWAP3 DUP3 ISZERO PUSH2 0x203E JUMPI SWAP2 PUSH1 0x20 MUL DUP3 ADD JUMPDEST DUP3 DUP2 GT ISZERO PUSH2 0x203E JUMPI DUP2 SLOAD PUSH1 0x1 PUSH1 0x1 PUSH1 0xA0 SHL SUB NOT AND PUSH1 0x1 PUSH1 0x1 PUSH1 0xA0 SHL SUB DUP5 CALLDATALOAD AND OR DUP3 SSTORE PUSH1 0x20 SWAP1 SWAP3 ADD SWAP2 PUSH1 0x1 SWAP1 SWAP2 ADD SWAP1 PUSH2 0x200B JUMP JUMPDEST POP PUSH2 0x204A SWAP3 SWAP2 POP PUSH2 0x2087 JUMP JUMPDEST POP SWAP1 JUMP JUMPDEST DUP3 DUP1 SLOAD DUP3 DUP3 SSTORE SWAP1 PUSH0 MSTORE PUSH1 0x20 PUSH0 KECCAK256 SWAP1 DUP2 ADD SWAP3 DUP3 ISZERO PUSH2 0x203E JUMPI SWAP2 PUSH1 0x20 MUL DUP3 ADD JUMPDEST DUP3 DUP2 GT ISZERO PUSH2 0x203E JUMPI DUP3 MLOAD DUP3 SSTORE SWAP2 PUSH1 0x20 ADD SWAP2 SWAP1 PUSH1 0x1 ADD SWAP1 PUSH2 0x206C JUMP JUMPDEST JUMPDEST DUP1 DUP3 GT ISZERO PUSH2 0x204A JUMPI PUSH0 DUP2 SSTORE PUSH1 0x1 ADD PUSH2 0x2088 JUMP JUMPDEST PUSH1 0x20 DUP2 MSTORE PUSH0 DUP3 MLOAD DUP1 PUSH1 0x20 DUP5 ADD MSTORE DUP1 PUSH1 0x20 DUP6 ADD PUSH1 0x40 DUP6 ADD MCOPY PUSH0 PUSH1 0x40 DUP3 DUP6 ADD ADD MSTORE PUSH1 0x40 PUSH1 0x1F NOT PUSH1 0x1F DUP4 ADD AND DUP5 ADD ADD SWAP2 POP POP SWAP3 SWAP2 POP POP JUMP JUMPDEST PUSH1 0x1 PUSH1 0x1 PUSH1 0xA0 SHL SUB DUP2 AND DUP2 EQ PUSH2 0x157C JUMPI PUSH0 PUSH0 REVERT JUMPDEST PUSH0 PUSH0 PUSH1 0x40 DUP4 DUP6 SUB SLT ISZERO PUSH2 0x20F5 JUMPI PUSH0 PUSH0 REVERT JUMPDEST DUP3 CALLDATALOAD PUSH2 0x2100 DUP2 PUSH2 0x20D0 JUMP JUMPDEST SWAP5 PUSH1 0x20 SWAP4 SWAP1 SWAP4 ADD CALLDATALOAD SWAP4 POP POP POP JUMP JUMPDEST PUSH0 PUSH0 PUSH0 PUSH1 0x60 DUP5 DUP7 SUB SLT ISZERO PUSH2 0x2120 JUMPI PUSH0 PUSH0 REVERT JUMPDEST DUP4 CALLDATALOAD PUSH2 0x212B DUP2 PUSH2 0x20D0 JUMP JUMPDEST SWAP3 POP PUSH1 0x20 DUP5 ADD CALLDATALOAD PUSH2 0x213B DUP2 PUSH2 0x20D0 JUMP JUMPDEST SWAP3 SWAP6 SWAP3 SWAP5 POP POP POP PUSH1 0x40 SWAP2 SWAP1 SWAP2 ADD CALLDATALOAD SWAP1 JUMP JUMPDEST PUSH0 DUP2 MLOAD DUP1 DUP5 MSTORE PUSH1 0x20 DUP5 ADD SWAP4 POP PUSH1 0x20 DUP4 ADD PUSH0 JUMPDEST DUP3 DUP2 LT ISZERO PUSH2 0x2185 JUMPI DUP2 MLOAD PUSH1 0x1 PUSH1 0x1 PUSH1 0xA0 SHL SUB AND DUP7 MSTORE PUSH1 0x20 SWAP6 DUP7 ADD SWAP6 SWAP1 SWAP2 ADD SWAP1 PUSH1 0x1 ADD PUSH2 0x215E JUMP JUMPDEST POP SWAP4 SWAP5 SWAP4 POP POP POP POP JUMP JUMPDEST PUSH1 0x20 DUP2 MSTORE PUSH0 PUSH2 0x14C1 PUSH1 0x20 DUP4 ADD DUP5 PUSH2 0x214C JUMP JUMPDEST PUSH4 0x4E487B71 PUSH1 0xE0 SHL PUSH0 MSTORE PUSH1 0x41 PUSH1 0x4 MSTORE PUSH1 0x24 PUSH0 REVERT JUMPDEST PUSH1 0x40 MLOAD PUSH1 0x1F DUP3 ADD PUSH1 0x1F NOT AND DUP2 ADD PUSH1 0x1 PUSH1 0x1 PUSH1 0x40 SHL SUB DUP2 GT DUP3 DUP3 LT OR ISZERO PUSH2 0x21DD JUMPI PUSH2 0x21DD PUSH2 0x21A1 JUMP JUMPDEST PUSH1 0x40 MSTORE SWAP2 SWAP1 POP JUMP JUMPDEST PUSH0 PUSH0 DUP4 PUSH1 0x1F DUP5 ADD SLT PUSH2 0x21F5 JUMPI PUSH0 PUSH0 REVERT JUMPDEST POP DUP2 CALLDATALOAD PUSH1 0x1 PUSH1 0x1 PUSH1 0x40 SHL SUB DUP2 GT ISZERO PUSH2 0x220B JUMPI PUSH0 PUSH0 REVERT JUMPDEST PUSH1 0x20 DUP4 ADD SWAP2 POP DUP4 PUSH1 0x20 DUP3 PUSH1 0x5 SHL DUP6 ADD ADD GT ISZERO PUSH2 0x2225 JUMPI PUSH0 PUSH0 REVERT JUMPDEST SWAP3 POP SWAP3 SWAP1 POP JUMP JUMPDEST PUSH0 PUSH0 PUSH0 PUSH0 PUSH1 0x60 DUP6 DUP8 SUB SLT ISZERO PUSH2 0x223F JUMPI PUSH0 PUSH0 REVERT JUMPDEST DUP5 CALLDATALOAD PUSH2 0x224A DUP2 PUSH2 0x20D0 JUMP JUMPDEST SWAP4 POP PUSH1 0x20 DUP6 ADD CALLDATALOAD PUSH1 0x1 PUSH1 0x1 PUSH1 0x40 SHL SUB DUP2 GT ISZERO PUSH2 0x2264 JUMPI PUSH0 PUSH0 REVERT JUMPDEST DUP6 ADD PUSH1 0x1F DUP2 ADD DUP8 SGT PUSH2 0x2274 JUMPI PUSH0 PUSH0 REVERT JUMPDEST DUP1 CALLDATALOAD PUSH1 0x1 PUSH1 0x1 PUSH1 0x40 SHL SUB DUP2 GT ISZERO PUSH2 0x228D JUMPI PUSH2 0x228D PUSH2 0x21A1 JUMP JUMPDEST PUSH2 0x22A0 PUSH1 0x1F DUP3 ADD PUSH1 0x1F NOT AND PUSH1 0x20 ADD PUSH2 0x21B5 JUMP JUMPDEST DUP2 DUP2 MSTORE DUP9 PUSH1 0x20 DUP4 DUP6 ADD ADD GT ISZERO PUSH2 0x22B4 JUMPI PUSH0 PUSH0 REVERT JUMPDEST DUP2 PUSH1 0x20 DUP5 ADD PUSH1 0x20 DUP4 ADD CALLDATACOPY PUSH0 PUSH1 0x20 DUP4 DUP4 ADD ADD MSTORE DUP1 SWAP6 POP POP POP POP PUSH1 0x40 DUP6 ADD CALLDATALOAD PUSH1 0x1 PUSH1 0x1 PUSH1 0x40 SHL SUB DUP2 GT ISZERO PUSH2 0x22E4 JUMPI PUSH0 PUSH0 REVERT JUMPDEST PUSH2 0x22F0 DUP8 DUP3 DUP9 ADD PUSH2 0x21E5 JUMP JUMPDEST SWAP6 SWAP9 SWAP5 SWAP8 POP SWAP6 POP POP POP POP JUMP JUMPDEST PUSH0 PUSH1 0x20 DUP3 DUP5 SUB SLT ISZERO PUSH2 0x230C JUMPI PUSH0 PUSH0 REVERT JUMPDEST POP CALLDATALOAD SWAP2 SWAP1 POP JUMP JUMPDEST PUSH0 PUSH1 0x20 DUP3 DUP5 SUB SLT ISZERO PUSH2 0x2323 JUMPI PUSH0 PUSH0 REVERT JUMPDEST DUP2 CALLDATALOAD PUSH2 0x14C1 DUP2 PUSH2 0x20D0 JUMP JUMPDEST PUSH0 DUP2 MLOAD DUP1 DUP5 MSTORE PUSH1 0x20 DUP5 ADD SWAP4 POP PUSH1 0x20 DUP4 ADD PUSH0 JUMPDEST DUP3 DUP2 LT ISZERO PUSH2 0x2185 JUMPI DUP2 MLOAD DUP7 MSTORE PUSH1 0x20 SWAP6 DUP7 ADD SWAP6 SWAP1 SWAP2 ADD SWAP1 PUSH1 0x1 ADD PUSH2 0x2340 JUMP JUMPDEST PUSH1 0x20 DUP2 MSTORE PUSH0 PUSH2 0x14C1 PUSH1 0x20 DUP4 ADD DUP5 PUSH2 0x232E JUMP JUMPDEST PUSH1 0x60 DUP2 MSTORE PUSH0 PUSH2 0x2382 PUSH1 0x60 DUP4 ADD DUP7 PUSH2 0x232E JUMP JUMPDEST PUSH1 0x20 DUP4 ADD SWAP5 SWAP1 SWAP5 MSTORE POP PUSH1 0x40 ADD MSTORE SWAP2 SWAP1 POP JUMP JUMPDEST DUP1 ISZERO ISZERO DUP2 EQ PUSH2 0x157C JUMPI PUSH0 PUSH0 REVERT JUMPDEST PUSH0 PUSH1 0x20 DUP3 DUP5 SUB SLT ISZERO PUSH2 0x23B1 JUMPI PUSH0 PUSH0 REVERT JUMPDEST DUP2 CALLDATALOAD PUSH2 0x14C1 DUP2 PUSH2 0x2394 JUMP JUMPDEST PUSH0 PUSH0 PUSH1 0x40 DUP4 DUP6 SUB SLT ISZERO PUSH2 0x23CD JUMPI PUSH0 PUSH0 REVERT JUMPDEST DUP3 CALLDATALOAD PUSH2 0x23D8 DUP2 PUSH2 0x20D0 JUMP JUMPDEST SWAP2 POP PUSH1 0x20 DUP4 ADD CALLDATALOAD PUSH2 0x23E8 DUP2 PUSH2 0x20D0 JUMP JUMPDEST DUP1 SWAP2 POP POP SWAP3 POP SWAP3 SWAP1 POP JUMP JUMPDEST PUSH0 PUSH0 PUSH1 0x20 DUP4 DUP6 SUB SLT ISZERO PUSH2 0x2404 JUMPI PUSH0 PUSH0 REVERT JUMPDEST DUP3 CALLDATALOAD PUSH1 0x1 PUSH1 0x1 PUSH1 0x40 SHL SUB DUP2 GT ISZERO PUSH2 0x2419 JUMPI PUSH0 PUSH0 REVERT JUMPDEST PUSH2 0x2425 DUP6 DUP3 DUP7 ADD PUSH2 0x21E5 JUMP JUMPDEST SWAP1 SWAP7 SWAP1 SWAP6 POP SWAP4 POP POP POP POP JUMP JUMPDEST PUSH0 PUSH0 PUSH0 PUSH1 0x40 DUP5 DUP7 SUB SLT ISZERO PUSH2 0x2443 JUMPI PUSH0 PUSH0 REVERT JUMPDEST DUP4 CALLDATALOAD PUSH2 0x244E DUP2 PUSH2 0x20D0 JUMP JUMPDEST SWAP3 POP PUSH1 0x20 DUP5 ADD CALLDATALOAD PUSH1 0x1 PUSH1 0x1 PUSH1 0x40 SHL SUB DUP2 GT ISZERO PUSH2 0x2468 JUMPI PUSH0 PUSH0 REVERT JUMPDEST PUSH2 0x2474 DUP7 DUP3 DUP8 ADD PUSH2 0x21E5 JUMP JUMPDEST SWAP5 SWAP8 SWAP1 SWAP7 POP SWAP4 SWAP5 POP POP POP POP JUMP JUMPDEST PUSH1 0x1 DUP2 DUP2 SHR SWAP1 DUP3 AND DUP1 PUSH2 0x2495 JUMPI PUSH1 0x7F DUP3 AND SWAP2 POP JUMPDEST PUSH1 0x20 DUP3 LT DUP2 SUB PUSH2 0x24B3 JUMPI PUSH4 0x4E487B71 PUSH1 0xE0 SHL PUSH0 MSTORE PUSH1 0x22 PUSH1 0x4 MSTORE PUSH1 0x24 PUSH0 REVERT JUMPDEST POP SWAP2 SWAP1 POP JUMP JUMPDEST PUSH4 0x4E487B71 PUSH1 0xE0 SHL PUSH0 MSTORE PUSH1 0x11 PUSH1 0x4 MSTORE PUSH1 0x24 PUSH0 REVERT JUMPDEST DUP1 DUP3 ADD DUP1 DUP3 GT ISZERO PUSH2 0x557 JUMPI PUSH2 0x557 PUSH2 0x24B9 JUMP JUMPDEST PUSH0 DUP2 MLOAD DUP1 PUSH1 0x20 DUP5 ADD DUP6 MCOPY PUSH0 SWAP4 ADD SWAP3 DUP4 MSTORE POP SWAP1 SWAP2 SWAP1 POP JUMP JUMPDEST PUSH0 PUSH2 0x2502 DUP3 DUP5 PUSH2 0x24E0 JUMP JUMPDEST PUSH3 0x2D4C5 PUSH1 0xEC SHL DUP2 MSTORE PUSH1 0x3 ADD SWAP4 SWAP3 POP POP POP JUMP JUMPDEST DUP2 DUP2 SUB DUP2 DUP2 GT ISZERO PUSH2 0x557 JUMPI PUSH2 0x557 PUSH2 0x24B9 JUMP JUMPDEST PUSH0 DUP3 PUSH2 0x2542 JUMPI PUSH4 0x4E487B71 PUSH1 0xE0 SHL PUSH0 MSTORE PUSH1 0x12 PUSH1 0x4 MSTORE PUSH1 0x24 PUSH0 REVERT JUMPDEST POP DIV SWAP1 JUMP JUMPDEST PUSH0 PUSH1 0x20 DUP3 DUP5 SUB SLT ISZERO PUSH2 0x2557 JUMPI PUSH0 PUSH0 REVERT JUMPDEST POP MLOAD SWAP2 SWAP1 POP JUMP JUMPDEST PUSH4 0x4E487B71 PUSH1 0xE0 SHL PUSH0 MSTORE PUSH1 0x32 PUSH1 0x4 MSTORE PUSH1 0x24 PUSH0 REVERT JUMPDEST PUSH0 PUSH1 0x20 DUP3 DUP5 SUB SLT ISZERO PUSH2 0x2582 JUMPI PUSH0 PUSH0 REVERT JUMPDEST DUP2 MLOAD PUSH2 0x14C1 DUP2 PUSH2 0x20D0 JUMP JUMPDEST PUSH0 PUSH1 0x20 DUP3 DUP5 SUB SLT ISZERO PUSH2 0x259D JUMPI PUSH0 PUSH0 REVERT JUMPDEST DUP2 MLOAD PUSH1 0x1 PUSH1 0x1 PUSH1 0x40 SHL SUB DUP2 GT ISZERO PUSH2 0x25B2 JUMPI PUSH0 PUSH0 REVERT JUMPDEST DUP3 ADD PUSH1 0x1F DUP2 ADD DUP5 SGT PUSH2 0x25C2 JUMPI PUSH0 PUSH0 REVERT JUMPDEST DUP1 MLOAD PUSH1 0x1 PUSH1 0x1 PUSH1 0x40 SHL SUB DUP2 GT ISZERO PUSH2 0x25DB JUMPI PUSH2 0x25DB PUSH2 0x21A1 JUMP JUMPDEST DUP1 PUSH1 0x5 SHL PUSH2 0x25EB PUSH1 0x20 DUP3 ADD PUSH2 0x21B5 JUMP JUMPDEST SWAP2 DUP3 MSTORE PUSH1 0x20 DUP2 DUP5 ADD DUP2 ADD SWAP3 SWAP1 DUP2 ADD SWAP1 DUP8 DUP5 GT ISZERO PUSH2 0x2606 JUMPI PUSH0 PUSH0 REVERT JUMPDEST PUSH1 0x20 DUP6 ADD SWAP5 POP JUMPDEST DUP4 DUP6 LT ISZERO PUSH2 0x1F45 JUMPI DUP5 MLOAD SWAP3 POP PUSH2 0x2622 DUP4 PUSH2 0x20D0 JUMP JUMPDEST DUP3 DUP3 MSTORE PUSH1 0x20 SWAP5 DUP6 ADD SWAP5 SWAP1 SWAP2 ADD SWAP1 PUSH2 0x260D JUMP JUMPDEST DUP1 DUP3 MUL DUP2 ISZERO DUP3 DUP3 DIV DUP5 EQ OR PUSH2 0x557 JUMPI PUSH2 0x557 PUSH2 0x24B9 JUMP JUMPDEST DUP3 DUP2 MSTORE PUSH1 0x40 PUSH1 0x20 DUP3 ADD MSTORE PUSH0 PUSH2 0x1E71 PUSH1 0x40 DUP4 ADD DUP5 PUSH2 0x214C JUMP JUMPDEST PUSH1 0x20 DUP1 DUP3 MSTORE DUP2 ADD DUP3 SWAP1 MSTORE PUSH0 DUP4 PUSH1 0x40 DUP4 ADD DUP3 JUMPDEST DUP6 DUP2 LT ISZERO PUSH2 0x26A5 JUMPI DUP3 CALLDATALOAD PUSH2 0x2688 DUP2 PUSH2 0x20D0 JUMP JUMPDEST PUSH1 0x1 PUSH1 0x1 PUSH1 0xA0 SHL SUB AND DUP3 MSTORE PUSH1 0x20 SWAP3 DUP4 ADD SWAP3 SWAP1 SWAP2 ADD SWAP1 PUSH1 0x1 ADD PUSH2 0x2675 JUMP JUMPDEST POP SWAP6 SWAP5 POP POP POP POP POP JUMP JUMPDEST PUSH1 0x1F DUP3 GT ISZERO PUSH2 0xF0E JUMPI DUP1 PUSH0 MSTORE PUSH1 0x20 PUSH0 KECCAK256 PUSH1 0x1F DUP5 ADD PUSH1 0x5 SHR DUP2 ADD PUSH1 0x20 DUP6 LT ISZERO PUSH2 0x26D4 JUMPI POP DUP1 JUMPDEST PUSH1 0x1F DUP5 ADD PUSH1 0x5 SHR DUP3 ADD SWAP2 POP JUMPDEST DUP2 DUP2 LT ISZERO PUSH2 0x1BBA JUMPI PUSH0 DUP2 SSTORE PUSH1 0x1 ADD PUSH2 0x26E0 JUMP JUMPDEST DUP2 MLOAD PUSH1 0x1 PUSH1 0x1 PUSH1 0x40 SHL SUB DUP2 GT ISZERO PUSH2 0x270C JUMPI PUSH2 0x270C PUSH2 0x21A1 JUMP JUMPDEST PUSH2 0x2720 DUP2 PUSH2 0x271A DUP5 SLOAD PUSH2 0x2481 JUMP JUMPDEST DUP5 PUSH2 0x26AF JUMP JUMPDEST PUSH1 0x20 PUSH1 0x1F DUP3 GT PUSH1 0x1 DUP2 EQ PUSH2 0x2752 JUMPI PUSH0 DUP4 ISZERO PUSH2 0x273B JUMPI POP DUP5 DUP3 ADD MLOAD JUMPDEST PUSH0 NOT PUSH1 0x3 DUP6 SWAP1 SHL SHR NOT AND PUSH1 0x1 DUP5 SWAP1 SHL OR DUP5 SSTORE PUSH2 0x1BBA JUMP JUMPDEST PUSH0 DUP5 DUP2 MSTORE PUSH1 0x20 DUP2 KECCAK256 PUSH1 0x1F NOT DUP6 AND SWAP2 JUMPDEST DUP3 DUP2 LT ISZERO PUSH2 0x2781 JUMPI DUP8 DUP6 ADD MLOAD DUP3 SSTORE PUSH1 0x20 SWAP5 DUP6 ADD SWAP5 PUSH1 0x1 SWAP1 SWAP3 ADD SWAP2 ADD PUSH2 0x2761 JUMP JUMPDEST POP DUP5 DUP3 LT ISZERO PUSH2 0x279E JUMPI DUP7 DUP5 ADD MLOAD PUSH0 NOT PUSH1 0x3 DUP8 SWAP1 SHL PUSH1 0xF8 AND SHR NOT AND DUP2 SSTORE JUMPDEST POP POP POP POP PUSH1 0x1 SWAP1 DUP2 SHL ADD SWAP1 SSTORE POP JUMP JUMPDEST PUSH0 PUSH1 0x20 DUP3 DUP5 SUB SLT ISZERO PUSH2 0x27BD JUMPI PUSH0 PUSH0 REVERT JUMPDEST DUP2 MLOAD PUSH2 0x14C1 DUP2 PUSH2 0x2394 JUMP JUMPDEST PUSH0 PUSH2 0x14C1 DUP3 DUP5 PUSH2 0x24E0 JUMP INVALID MSTORE 0xC6 ORIGIN SELFBALANCE RJUMPI 0xF47D 0xB1 SWAP14 TLOAD RJUMP 0x4600 ADDRESS 0xC4 SWAP8 CREATE PUSH8 0xCA4CEBF71BA98EEA 0xDA 0xBE KECCAK256 0xBA 0xCE STOP MSTORE 0xC6 ORIGIN SELFBALANCE RJUMPI 0xF47D 0xB1 SWAP14 TLOAD RJUMP 0x4600 ADDRESS 0xC4 SWAP8 CREATE PUSH8 0xCA4CEBF71BA98EEA 0xDA 0xBE KECCAK256 0xBA 0xCE MUL LOG2 PUSH5 0x6970667358 0x22 SLT KECCAK256 0xCB NOT SWAP9 PUSH10 0x44F508EB69BA00AE5344 SSTORE SDIV SWAP13 0xF7 MSTORE PUSH13 0x67241B26A7C16BAA945A70B564 PUSH20 0x6F6C634300081E00330000000000000000000000 "
		},
		"gasEstimates": {
			"creation": {
				"codeDepositCost": "2062600",
				"executionCost": "2190",
				"totalCost": "2064790"
			},
			"external": {
				"allowance(address,address)": "infinite",
				"approve(address,uint256)": "infinite",
				"balanceOf(address)": "infinite",
				"burn(address)": "infinite",
				"calFee()": "infinite",
				"calculateShareETH(uint256)": "infinite",
				"calculateShareLP(uint256)": "infinite",
				"calculateShareTokens(uint256)": "infinite",
				"decimals()": "266",
				"distMgmtFee()": "infinite",
				"factory()": "2446",
				"getTokenAddress(uint256)": "6834",
				"getTokenAndUserBal(address)": "infinite",
				"getTokenList()": "infinite",
				"getTokenReserve(uint256)": "6812",
				"getTokensReserve()": "infinite",
				"getTotalMgmtFee()": "infinite",
				"initialize(address,string,address[])": "infinite",
				"lastAccruedAt()": "2340",
				"mint(address,uint256[])": "infinite",
				"name()": "infinite",
				"owner()": "2434",
				"reentrancyGuardEntered()": "2354",
				"renounceOwnership()": "infinite",
				"setReentrancyGuardStatus(bool)": "26819",
				"symbol()": "infinite",
				"totalSupply()": "infinite",
				"transfer(address,uint256)": "infinite",
				"transferFrom(address,address,uint256)": "infinite",
				"transferOwnership(address)": "infinite",
				"transferTokensToOwner()": "infinite",
				"updateTokens(address[])": "infinite"
			},
			"internal": {
				"_factory()": "infinite",
				"_totalReservedETH()": "infinite",
				"_updateRebalanceReserve()": "infinite"
			}
		},
		"methodIdentifiers": {
			"allowance(address,address)": "dd62ed3e",
			"approve(address,uint256)": "095ea7b3",
			"balanceOf(address)": "70a08231",
			"burn(address)": "89afcb44",
			"calFee()": "55917ebe",
			"calculateShareETH(uint256)": "9257fa07",
			"calculateShareLP(uint256)": "e54ef9a0",
			"calculateShareTokens(uint256)": "d410ad7d",
			"decimals()": "313ce567",
			"distMgmtFee()": "b4b93c8c",
			"factory()": "c45a0155",
			"getTokenAddress(uint256)": "67ccdf38",
			"getTokenAndUserBal(address)": "a131d436",
			"getTokenList()": "273cbaa0",
			"getTokenReserve(uint256)": "8e73f1b4",
			"getTokensReserve()": "ec5975c6",
			"getTotalMgmtFee()": "090318fb",
			"initialize(address,string,address[])": "3a105cfb",
			"lastAccruedAt()": "5483067d",
			"mint(address,uint256[])": "de836ebd",
			"name()": "06fdde03",
			"owner()": "8da5cb5b",
			"reentrancyGuardEntered()": "d2c725e0",
			"renounceOwnership()": "715018a6",
			"setReentrancyGuardStatus(bool)": "ba6ba385",
			"symbol()": "95d89b41",
			"totalSupply()": "18160ddd",
			"transfer(address,uint256)": "a9059cbb",
			"transferFrom(address,address,uint256)": "23b872dd",
			"transferOwnership(address)": "f2fde38b",
			"transferTokensToOwner()": "a7c7fdeb",
			"updateTokens(address[])": "de41691c"
		}
	},
	"abi": [
		{
			"inputs": [
				{
					"internalType": "address",
					"name": "spender",
					"type": "address"
				},
				{
					"internalType": "uint256",
					"name": "allowance",
					"type": "uint256"
				},
				{
					"internalType": "uint256",
					"name": "needed",
					"type": "uint256"
				}
			],
			"name": "ERC20InsufficientAllowance",
			"type": "error"
		},
		{
			"inputs": [
				{
					"internalType": "address",
					"name": "sender",
					"type": "address"
				},
				{
					"internalType": "uint256",
					"name": "balance",
					"type": "uint256"
				},
				{
					"internalType": "uint256",
					"name": "needed",
					"type": "uint256"
				}
			],
			"name": "ERC20InsufficientBalance",
			"type": "error"
		},
		{
			"inputs": [
				{
					"internalType": "address",
					"name": "approver",
					"type": "address"
				}
			],
			"name": "ERC20InvalidApprover",
			"type": "error"
		},
		{
			"inputs": [
				{
					"internalType": "address",
					"name": "receiver",
					"type": "address"
				}
			],
			"name": "ERC20InvalidReceiver",
			"type": "error"
		},
		{
			"inputs": [
				{
					"internalType": "address",
					"name": "sender",
					"type": "address"
				}
			],
			"name": "ERC20InvalidSender",
			"type": "error"
		},
		{
			"inputs": [
				{
					"internalType": "address",
					"name": "spender",
					"type": "address"
				}
			],
			"name": "ERC20InvalidSpender",
			"type": "error"
		},
		{
			"inputs": [
				{
					"internalType": "string",
					"name": "paramName",
					"type": "string"
				}
			],
			"name": "EmptyStringParameter",
			"type": "error"
		},
		{
			"inputs": [],
			"name": "InsufficientLiquidity",
			"type": "error"
		},
		{
			"inputs": [],
			"name": "InvalidInitialization",
			"type": "error"
		},
		{
			"inputs": [],
			"name": "InvalidRecipient",
			"type": "error"
		},
		{
			"inputs": [],
			"name": "InvalidToken",
			"type": "error"
		},
		{
			"inputs": [],
			"name": "NotInitializing",
			"type": "error"
		},
		{
			"inputs": [
				{
					"internalType": "address",
					"name": "owner",
					"type": "address"
				}
			],
			"name": "OwnableInvalidOwner",
			"type": "error"
		},
		{
			"inputs": [
				{
					"internalType": "address",
					"name": "account",
					"type": "address"
				}
			],
			"name": "OwnableUnauthorizedAccount",
			"type": "error"
		},
		{
			"inputs": [],
			"name": "ReentrantCall",
			"type": "error"
		},
		{
			"anonymous": false,
			"inputs": [
				{
					"indexed": true,
					"internalType": "address",
					"name": "owner",
					"type": "address"
				},
				{
					"indexed": true,
					"internalType": "address",
					"name": "spender",
					"type": "address"
				},
				{
					"indexed": false,
					"internalType": "uint256",
					"name": "value",
					"type": "uint256"
				}
			],
			"name": "Approval",
			"type": "event"
		},
		{
			"anonymous": false,
			"inputs": [
				{
					"indexed": false,
					"internalType": "uint64",
					"name": "version",
					"type": "uint64"
				}
			],
			"name": "Initialized",
			"type": "event"
		},
		{
			"anonymous": false,
			"inputs": [
				{
					"indexed": true,
					"internalType": "address",
					"name": "previousOwner",
					"type": "address"
				},
				{
					"indexed": true,
					"internalType": "address",
					"name": "newOwner",
					"type": "address"
				}
			],
			"name": "OwnershipTransferred",
			"type": "event"
		},
		{
			"anonymous": false,
			"inputs": [
				{
					"indexed": false,
					"internalType": "address[]",
					"name": "_tokens",
					"type": "address[]"
				}
			],
			"name": "TokensUpdated",
			"type": "event"
		},
		{
			"anonymous": false,
			"inputs": [
				{
					"indexed": true,
					"internalType": "address",
					"name": "from",
					"type": "address"
				},
				{
					"indexed": true,
					"internalType": "address",
					"name": "to",
					"type": "address"
				},
				{
					"indexed": false,
					"internalType": "uint256",
					"name": "value",
					"type": "uint256"
				}
			],
			"name": "Transfer",
			"type": "event"
		},
		{
			"anonymous": false,
			"inputs": [
				{
					"indexed": true,
					"internalType": "address",
					"name": "owner",
					"type": "address"
				},
				{
					"indexed": false,
					"internalType": "uint256",
					"name": "months",
					"type": "uint256"
				},
				{
					"indexed": false,
					"internalType": "uint256",
					"name": "supply",
					"type": "uint256"
				},
				{
					"indexed": false,
					"internalType": "uint256",
					"name": "amount",
					"type": "uint256"
				},
				{
					"indexed": false,
					"internalType": "uint256",
					"name": "newAccruedAt",
					"type": "uint256"
				}
			],
			"name": "feeAccrued",
			"type": "event"
		},
		{
			"inputs": [
				{
					"internalType": "address",
					"name": "owner",
					"type": "address"
				},
				{
					"internalType": "address",
					"name": "spender",
					"type": "address"
				}
			],
			"name": "allowance",
			"outputs": [
				{
					"internalType": "uint256",
					"name": "",
					"type": "uint256"
				}
			],
			"stateMutability": "view",
			"type": "function"
		},
		{
			"inputs": [
				{
					"internalType": "address",
					"name": "spender",
					"type": "address"
				},
				{
					"internalType": "uint256",
					"name": "value",
					"type": "uint256"
				}
			],
			"name": "approve",
			"outputs": [
				{
					"internalType": "bool",
					"name": "",
					"type": "bool"
				}
			],
			"stateMutability": "nonpayable",
			"type": "function"
		},
		{
			"inputs": [
				{
					"internalType": "address",
					"name": "account",
					"type": "address"
				}
			],
			"name": "balanceOf",
			"outputs": [
				{
					"internalType": "uint256",
					"name": "",
					"type": "uint256"
				}
			],
			"stateMutability": "view",
			"type": "function"
		},
		{
			"inputs": [
				{
					"internalType": "address",
					"name": "_to",
					"type": "address"
				}
			],
			"name": "burn",
			"outputs": [
				{
					"internalType": "uint256[]",
					"name": "amounts",
					"type": "uint256[]"
				}
			],
			"stateMutability": "nonpayable",
			"type": "function"
		},
		{
			"inputs": [],
			"name": "calFee",
			"outputs": [
				{
					"internalType": "uint256",
					"name": "months",
					"type": "uint256"
				},
				{
					"internalType": "uint256",
					"name": "supply",
					"type": "uint256"
				},
				{
					"internalType": "uint256",
					"name": "feeAmount",
					"type": "uint256"
				}
			],
			"stateMutability": "view",
			"type": "function"
		},
		{
			"inputs": [
				{
					"internalType": "uint256",
					"name": "_amountLP",
					"type": "uint256"
				}
			],
			"name": "calculateShareETH",
			"outputs": [
				{
					"internalType": "uint256",
					"name": "amountETH",
					"type": "uint256"
				}
			],
			"stateMutability": "view",
			"type": "function"
		},
		{
			"inputs": [
				{
					"internalType": "uint256",
					"name": "_amountETH",
					"type": "uint256"
				}
			],
			"name": "calculateShareLP",
			"outputs": [
				{
					"internalType": "uint256",
					"name": "amountLP",
					"type": "uint256"
				}
			],
			"stateMutability": "view",
			"type": "function"
		},
		{
			"inputs": [
				{
					"internalType": "uint256",
					"name": "_amountLP",
					"type": "uint256"
				}
			],
			"name": "calculateShareTokens",
			"outputs": [
				{
					"internalType": "uint256[]",
					"name": "amountTokens",
					"type": "uint256[]"
				}
			],
			"stateMutability": "view",
			"type": "function"
		},
		{
			"inputs": [],
			"name": "decimals",
			"outputs": [
				{
					"internalType": "uint8",
					"name": "",
					"type": "uint8"
				}
			],
			"stateMutability": "view",
			"type": "function"
		},
		{
			"inputs": [],
			"name": "distMgmtFee",
			"outputs": [],
			"stateMutability": "nonpayable",
			"type": "function"
		},
		{
			"inputs": [],
			"name": "factory",
			"outputs": [
				{
					"internalType": "address",
					"name": "",
					"type": "address"
				}
			],
			"stateMutability": "view",
			"type": "function"
		},
		{
			"inputs": [
				{
					"internalType": "uint256",
					"name": "_index",
					"type": "uint256"
				}
			],
			"name": "getTokenAddress",
			"outputs": [
				{
					"internalType": "address",
					"name": "",
					"type": "address"
				}
			],
			"stateMutability": "view",
			"type": "function"
		},
		{
			"inputs": [
				{
					"internalType": "address",
					"name": "_user",
					"type": "address"
				}
			],
			"name": "getTokenAndUserBal",
			"outputs": [
				{
					"internalType": "uint256[]",
					"name": "",
					"type": "uint256[]"
				},
				{
					"internalType": "uint256",
					"name": "",
					"type": "uint256"
				},
				{
					"internalType": "uint256",
					"name": "",
					"type": "uint256"
				}
			],
			"stateMutability": "view",
			"type": "function"
		},
		{
			"inputs": [],
			"name": "getTokenList",
			"outputs": [
				{
					"internalType": "address[]",
					"name": "",
					"type": "address[]"
				}
			],
			"stateMutability": "view",
			"type": "function"
		},
		{
			"inputs": [
				{
					"internalType": "uint256",
					"name": "_index",
					"type": "uint256"
				}
			],
			"name": "getTokenReserve",
			"outputs": [
				{
					"internalType": "uint256",
					"name": "",
					"type": "uint256"
				}
			],
			"stateMutability": "view",
			"type": "function"
		},
		{
			"inputs": [],
			"name": "getTokensReserve",
			"outputs": [
				{
					"internalType": "uint256[]",
					"name": "",
					"type": "uint256[]"
				}
			],
			"stateMutability": "view",
			"type": "function"
		},
		{
			"inputs": [],
			"name": "getTotalMgmtFee",
			"outputs": [
				{
					"internalType": "uint256",
					"name": "",
					"type": "uint256"
				}
			],
			"stateMutability": "view",
			"type": "function"
		},
		{
			"inputs": [
				{
					"internalType": "address",
					"name": "_factoryAddress",
					"type": "address"
				},
				{
					"internalType": "string",
					"name": "_name",
					"type": "string"
				},
				{
					"internalType": "address[]",
					"name": "_tokens",
					"type": "address[]"
				}
			],
			"name": "initialize",
			"outputs": [],
			"stateMutability": "nonpayable",
			"type": "function"
		},
		{
			"inputs": [],
			"name": "lastAccruedAt",
			"outputs": [
				{
					"internalType": "uint256",
					"name": "",
					"type": "uint256"
				}
			],
			"stateMutability": "view",
			"type": "function"
		},
		{
			"inputs": [
				{
					"internalType": "address",
					"name": "_to",
					"type": "address"
				},
				{
					"internalType": "uint256[]",
					"name": "amounts",
					"type": "uint256[]"
				}
			],
			"name": "mint",
			"outputs": [
				{
					"internalType": "uint256",
					"name": "liquidity",
					"type": "uint256"
				}
			],
			"stateMutability": "nonpayable",
			"type": "function"
		},
		{
			"inputs": [],
			"name": "name",
			"outputs": [
				{
					"internalType": "string",
					"name": "",
					"type": "string"
				}
			],
			"stateMutability": "view",
			"type": "function"
		},
		{
			"inputs": [],
			"name": "owner",
			"outputs": [
				{
					"internalType": "address",
					"name": "",
					"type": "address"
				}
			],
			"stateMutability": "view",
			"type": "function"
		},
		{
			"inputs": [],
			"name": "reentrancyGuardEntered",
			"outputs": [
				{
					"internalType": "bool",
					"name": "",
					"type": "bool"
				}
			],
			"stateMutability": "view",
			"type": "function"
		},
		{
			"inputs": [],
			"name": "renounceOwnership",
			"outputs": [],
			"stateMutability": "nonpayable",
			"type": "function"
		},
		{
			"inputs": [
				{
					"internalType": "bool",
					"name": "_state",
					"type": "bool"
				}
			],
			"name": "setReentrancyGuardStatus",
			"outputs": [],
			"stateMutability": "nonpayable",
			"type": "function"
		},
		{
			"inputs": [],
			"name": "symbol",
			"outputs": [
				{
					"internalType": "string",
					"name": "",
					"type": "string"
				}
			],
			"stateMutability": "view",
			"type": "function"
		},
		{
			"inputs": [],
			"name": "totalSupply",
			"outputs": [
				{
					"internalType": "uint256",
					"name": "",
					"type": "uint256"
				}
			],
			"stateMutability": "view",
			"type": "function"
		},
		{
			"inputs": [
				{
					"internalType": "address",
					"name": "to",
					"type": "address"
				},
				{
					"internalType": "uint256",
					"name": "value",
					"type": "uint256"
				}
			],
			"name": "transfer",
			"outputs": [
				{
					"internalType": "bool",
					"name": "",
					"type": "bool"
				}
			],
			"stateMutability": "nonpayable",
			"type": "function"
		},
		{
			"inputs": [
				{
					"internalType": "address",
					"name": "from",
					"type": "address"
				},
				{
					"internalType": "address",
					"name": "to",
					"type": "address"
				},
				{
					"internalType": "uint256",
					"name": "value",
					"type": "uint256"
				}
			],
			"name": "transferFrom",
			"outputs": [
				{
					"internalType": "bool",
					"name": "",
					"type": "bool"
				}
			],
			"stateMutability": "nonpayable",
			"type": "function"
		},
		{
			"inputs": [
				{
					"internalType": "address",
					"name": "newOwner",
					"type": "address"
				}
			],
			"name": "transferOwnership",
			"outputs": [],
			"stateMutability": "nonpayable",
			"type": "function"
		},
		{
			"inputs": [],
			"name": "transferTokensToOwner",
			"outputs": [],
			"stateMutability": "nonpayable",
			"type": "function"
		},
		{
			"inputs": [
				{
					"internalType": "address[]",
					"name": "_tokens",
					"type": "address[]"
				}
			],
			"name": "updateTokens",
			"outputs": [],
			"stateMutability": "nonpayable",
			"type": "function"
		}
	]
}