{
	"contracts/tokens/BTSPair.sol": {
		"BasketTokenStandardPair": {
			"abi": [
				{
					"inputs": [
						{
							"internalType": "address",
							"name": "spender",
							"type": "address"
						},
						{
							"internalType": "uint256",
							"name": "allowance",
							"type": "uint256"
						},
						{
							"internalType": "uint256",
							"name": "needed",
							"type": "uint256"
						}
					],
					"name": "ERC20InsufficientAllowance",
					"type": "error"
				},
				{
					"inputs": [
						{
							"internalType": "address",
							"name": "sender",
							"type": "address"
						},
						{
							"internalType": "uint256",
							"name": "balance",
							"type": "uint256"
						},
						{
							"internalType": "uint256",
							"name": "needed",
							"type": "uint256"
						}
					],
					"name": "ERC20InsufficientBalance",
					"type": "error"
				},
				{
					"inputs": [
						{
							"internalType": "address",
							"name": "approver",
							"type": "address"
						}
					],
					"name": "ERC20InvalidApprover",
					"type": "error"
				},
				{
					"inputs": [
						{
							"internalType": "address",
							"name": "receiver",
							"type": "address"
						}
					],
					"name": "ERC20InvalidReceiver",
					"type": "error"
				},
				{
					"inputs": [
						{
							"internalType": "address",
							"name": "sender",
							"type": "address"
						}
					],
					"name": "ERC20InvalidSender",
					"type": "error"
				},
				{
					"inputs": [
						{
							"internalType": "address",
							"name": "spender",
							"type": "address"
						}
					],
					"name": "ERC20InvalidSpender",
					"type": "error"
				},
				{
					"inputs": [
						{
							"internalType": "string",
							"name": "paramName",
							"type": "string"
						}
					],
					"name": "EmptyStringParameter",
					"type": "error"
				},
				{
					"inputs": [],
					"name": "InsufficientLiquidity",
					"type": "error"
				},
				{
					"inputs": [],
					"name": "InvalidInitialization",
					"type": "error"
				},
				{
					"inputs": [],
					"name": "InvalidRecipient",
					"type": "error"
				},
				{
					"inputs": [],
					"name": "InvalidToken",
					"type": "error"
				},
				{
					"inputs": [],
					"name": "NotInitializing",
					"type": "error"
				},
				{
					"inputs": [
						{
							"internalType": "address",
							"name": "owner",
							"type": "address"
						}
					],
					"name": "OwnableInvalidOwner",
					"type": "error"
				},
				{
					"inputs": [
						{
							"internalType": "address",
							"name": "account",
							"type": "address"
						}
					],
					"name": "OwnableUnauthorizedAccount",
					"type": "error"
				},
				{
					"inputs": [],
					"name": "ReentrantCall",
					"type": "error"
				},
				{
					"anonymous": false,
					"inputs": [
						{
							"indexed": true,
							"internalType": "address",
							"name": "owner",
							"type": "address"
						},
						{
							"indexed": true,
							"internalType": "address",
							"name": "spender",
							"type": "address"
						},
						{
							"indexed": false,
							"internalType": "uint256",
							"name": "value",
							"type": "uint256"
						}
					],
					"name": "Approval",
					"type": "event"
				},
				{
					"anonymous": false,
					"inputs": [
						{
							"indexed": false,
							"internalType": "uint64",
							"name": "version",
							"type": "uint64"
						}
					],
					"name": "Initialized",
					"type": "event"
				},
				{
					"anonymous": false,
					"inputs": [
						{
							"indexed": true,
							"internalType": "address",
							"name": "previousOwner",
							"type": "address"
						},
						{
							"indexed": true,
							"internalType": "address",
							"name": "newOwner",
							"type": "address"
						}
					],
					"name": "OwnershipTransferred",
					"type": "event"
				},
				{
					"anonymous": false,
					"inputs": [
						{
							"indexed": false,
							"internalType": "address[]",
							"name": "_tokens",
							"type": "address[]"
						}
					],
					"name": "TokensUpdated",
					"type": "event"
				},
				{
					"anonymous": false,
					"inputs": [
						{
							"indexed": true,
							"internalType": "address",
							"name": "from",
							"type": "address"
						},
						{
							"indexed": true,
							"internalType": "address",
							"name": "to",
							"type": "address"
						},
						{
							"indexed": false,
							"internalType": "uint256",
							"name": "value",
							"type": "uint256"
						}
					],
					"name": "Transfer",
					"type": "event"
				},
				{
					"anonymous": false,
					"inputs": [
						{
							"indexed": true,
							"internalType": "address",
							"name": "owner",
							"type": "address"
						},
						{
							"indexed": false,
							"internalType": "uint256",
							"name": "months",
							"type": "uint256"
						},
						{
							"indexed": false,
							"internalType": "uint256",
							"name": "supply",
							"type": "uint256"
						},
						{
							"indexed": false,
							"internalType": "uint256",
							"name": "amount",
							"type": "uint256"
						},
						{
							"indexed": false,
							"internalType": "uint256",
							"name": "newAccruedAt",
							"type": "uint256"
						}
					],
					"name": "feeAccrued",
					"type": "event"
				},
				{
					"inputs": [
						{
							"internalType": "address",
							"name": "owner",
							"type": "address"
						},
						{
							"internalType": "address",
							"name": "spender",
							"type": "address"
						}
					],
					"name": "allowance",
					"outputs": [
						{
							"internalType": "uint256",
							"name": "",
							"type": "uint256"
						}
					],
					"stateMutability": "view",
					"type": "function"
				},
				{
					"inputs": [
						{
							"internalType": "address",
							"name": "spender",
							"type": "address"
						},
						{
							"internalType": "uint256",
							"name": "value",
							"type": "uint256"
						}
					],
					"name": "approve",
					"outputs": [
						{
							"internalType": "bool",
							"name": "",
							"type": "bool"
						}
					],
					"stateMutability": "nonpayable",
					"type": "function"
				},
				{
					"inputs": [
						{
							"internalType": "address",
							"name": "account",
							"type": "address"
						}
					],
					"name": "balanceOf",
					"outputs": [
						{
							"internalType": "uint256",
							"name": "",
							"type": "uint256"
						}
					],
					"stateMutability": "view",
					"type": "function"
				},
				{
					"inputs": [
						{
							"internalType": "address",
							"name": "_to",
							"type": "address"
						}
					],
					"name": "burn",
					"outputs": [
						{
							"internalType": "uint256[]",
							"name": "amounts",
							"type": "uint256[]"
						}
					],
					"stateMutability": "nonpayable",
					"type": "function"
				},
				{
					"inputs": [],
					"name": "calFee",
					"outputs": [
						{
							"internalType": "uint256",
							"name": "months",
							"type": "uint256"
						},
						{
							"internalType": "uint256",
							"name": "supply",
							"type": "uint256"
						},
						{
							"internalType": "uint256",
							"name": "feeAmount",
							"type": "uint256"
						}
					],
					"stateMutability": "view",
					"type": "function"
				},
				{
					"inputs": [
						{
							"internalType": "uint256",
							"name": "_amountLP",
							"type": "uint256"
						}
					],
					"name": "calculateShareETH",
					"outputs": [
						{
							"internalType": "uint256",
							"name": "amountETH",
							"type": "uint256"
						}
					],
					"stateMutability": "view",
					"type": "function"
				},
				{
					"inputs": [
						{
							"internalType": "uint256",
							"name": "_amountETH",
							"type": "uint256"
						}
					],
					"name": "calculateShareLP",
					"outputs": [
						{
							"internalType": "uint256",
							"name": "amountLP",
							"type": "uint256"
						}
					],
					"stateMutability": "view",
					"type": "function"
				},
				{
					"inputs": [
						{
							"internalType": "uint256",
							"name": "_amountLP",
							"type": "uint256"
						}
					],
					"name": "calculateShareTokens",
					"outputs": [
						{
							"internalType": "uint256[]",
							"name": "amountTokens",
							"type": "uint256[]"
						}
					],
					"stateMutability": "view",
					"type": "function"
				},
				{
					"inputs": [],
					"name": "decimals",
					"outputs": [
						{
							"internalType": "uint8",
							"name": "",
							"type": "uint8"
						}
					],
					"stateMutability": "view",
					"type": "function"
				},
				{
					"inputs": [],
					"name": "distMgmtFee",
					"outputs": [],
					"stateMutability": "nonpayable",
					"type": "function"
				},
				{
					"inputs": [],
					"name": "factory",
					"outputs": [
						{
							"internalType": "address",
							"name": "",
							"type": "address"
						}
					],
					"stateMutability": "view",
					"type": "function"
				},
				{
					"inputs": [
						{
							"internalType": "uint256",
							"name": "_index",
							"type": "uint256"
						}
					],
					"name": "getTokenAddress",
					"outputs": [
						{
							"internalType": "address",
							"name": "",
							"type": "address"
						}
					],
					"stateMutability": "view",
					"type": "function"
				},
				{
					"inputs": [
						{
							"internalType": "address",
							"name": "_user",
							"type": "address"
						}
					],
					"name": "getTokenAndUserBal",
					"outputs": [
						{
							"internalType": "uint256[]",
							"name": "",
							"type": "uint256[]"
						},
						{
							"internalType": "uint256",
							"name": "",
							"type": "uint256"
						},
						{
							"internalType": "uint256",
							"name": "",
							"type": "uint256"
						}
					],
					"stateMutability": "view",
					"type": "function"
				},
				{
					"inputs": [],
					"name": "getTokenList",
					"outputs": [
						{
							"internalType": "address[]",
							"name": "",
							"type": "address[]"
						}
					],
					"stateMutability": "view",
					"type": "function"
				},
				{
					"inputs": [
						{
							"internalType": "uint256",
							"name": "_index",
							"type": "uint256"
						}
					],
					"name": "getTokenReserve",
					"outputs": [
						{
							"internalType": "uint256",
							"name": "",
							"type": "uint256"
						}
					],
					"stateMutability": "view",
					"type": "function"
				},
				{
					"inputs": [],
					"name": "getTokensReserve",
					"outputs": [
						{
							"internalType": "uint256[]",
							"name": "",
							"type": "uint256[]"
						}
					],
					"stateMutability": "view",
					"type": "function"
				},
				{
					"inputs": [],
					"name": "getTotalMgmtFee",
					"outputs": [
						{
							"internalType": "uint256",
							"name": "",
							"type": "uint256"
						}
					],
					"stateMutability": "view",
					"type": "function"
				},
				{
					"inputs": [
						{
							"internalType": "address",
							"name": "_factoryAddress",
							"type": "address"
						},
						{
							"internalType": "string",
							"name": "_name",
							"type": "string"
						},
						{
							"internalType": "address[]",
							"name": "_tokens",
							"type": "address[]"
						}
					],
					"name": "initialize",
					"outputs": [],
					"stateMutability": "nonpayable",
					"type": "function"
				},
				{
					"inputs": [],
					"name": "lastAccruedAt",
					"outputs": [
						{
							"internalType": "uint256",
							"name": "",
							"type": "uint256"
						}
					],
					"stateMutability": "view",
					"type": "function"
				},
				{
					"inputs": [
						{
							"internalType": "address",
							"name": "_to",
							"type": "address"
						},
						{
							"internalType": "uint256[]",
							"name": "amounts",
							"type": "uint256[]"
						}
					],
					"name": "mint",
					"outputs": [
						{
							"internalType": "uint256",
							"name": "liquidity",
							"type": "uint256"
						}
					],
					"stateMutability": "nonpayable",
					"type": "function"
				},
				{
					"inputs": [],
					"name": "name",
					"outputs": [
						{
							"internalType": "string",
							"name": "",
							"type": "string"
						}
					],
					"stateMutability": "view",
					"type": "function"
				},
				{
					"inputs": [],
					"name": "owner",
					"outputs": [
						{
							"internalType": "address",
							"name": "",
							"type": "address"
						}
					],
					"stateMutability": "view",
					"type": "function"
				},
				{
					"inputs": [],
					"name": "reentrancyGuardEntered",
					"outputs": [
						{
							"internalType": "bool",
							"name": "",
							"type": "bool"
						}
					],
					"stateMutability": "view",
					"type": "function"
				},
				{
					"inputs": [],
					"name": "renounceOwnership",
					"outputs": [],
					"stateMutability": "nonpayable",
					"type": "function"
				},
				{
					"inputs": [
						{
							"internalType": "bool",
							"name": "_state",
							"type": "bool"
						}
					],
					"name": "setReentrancyGuardStatus",
					"outputs": [],
					"stateMutability": "nonpayable",
					"type": "function"
				},
				{
					"inputs": [],
					"name": "symbol",
					"outputs": [
						{
							"internalType": "string",
							"name": "",
							"type": "string"
						}
					],
					"stateMutability": "view",
					"type": "function"
				},
				{
					"inputs": [],
					"name": "totalSupply",
					"outputs": [
						{
							"internalType": "uint256",
							"name": "",
							"type": "uint256"
						}
					],
					"stateMutability": "view",
					"type": "function"
				},
				{
					"inputs": [
						{
							"internalType": "address",
							"name": "to",
							"type": "address"
						},
						{
							"internalType": "uint256",
							"name": "value",
							"type": "uint256"
						}
					],
					"name": "transfer",
					"outputs": [
						{
							"internalType": "bool",
							"name": "",
							"type": "bool"
						}
					],
					"stateMutability": "nonpayable",
					"type": "function"
				},
				{
					"inputs": [
						{
							"internalType": "address",
							"name": "from",
							"type": "address"
						},
						{
							"internalType": "address",
							"name": "to",
							"type": "address"
						},
						{
							"internalType": "uint256",
							"name": "value",
							"type": "uint256"
						}
					],
					"name": "transferFrom",
					"outputs": [
						{
							"internalType": "bool",
							"name": "",
							"type": "bool"
						}
					],
					"stateMutability": "nonpayable",
					"type": "function"
				},
				{
					"inputs": [
						{
							"internalType": "address",
							"name": "newOwner",
							"type": "address"
						}
					],
					"name": "transferOwnership",
					"outputs": [],
					"stateMutability": "nonpayable",
					"type": "function"
				},
				{
					"inputs": [],
					"name": "transferTokensToOwner",
					"outputs": [],
					"stateMutability": "nonpayable",
					"type": "function"
				},
				{
					"inputs": [
						{
							"internalType": "address[]",
							"name": "_tokens",
							"type": "address[]"
						}
					],
					"name": "updateTokens",
					"outputs": [],
					"stateMutability": "nonpayable",
					"type": "function"
				}
			],
			"devdoc": {
				"details": "Implements ERC20 for liquidity tokens and acts as a liquidity pool for the specified tokens",
				"errors": {
					"ERC20InsufficientAllowance(address,uint256,uint256)": [
						{
							"details": "Indicates a failure with the `spender`’s `allowance`. Used in transfers.",
							"params": {
								"allowance": "Amount of tokens a `spender` is allowed to operate with.",
								"needed": "Minimum amount required to perform a transfer.",
								"spender": "Address that may be allowed to operate on tokens without being their owner."
							}
						}
					],
					"ERC20InsufficientBalance(address,uint256,uint256)": [
						{
							"details": "Indicates an error related to the current `balance` of a `sender`. Used in transfers.",
							"params": {
								"balance": "Current balance for the interacting account.",
								"needed": "Minimum amount required to perform a transfer.",
								"sender": "Address whose tokens are being transferred."
							}
						}
					],
					"ERC20InvalidApprover(address)": [
						{
							"details": "Indicates a failure with the `approver` of a token to be approved. Used in approvals.",
							"params": {
								"approver": "Address initiating an approval operation."
							}
						}
					],
					"ERC20InvalidReceiver(address)": [
						{
							"details": "Indicates a failure with the token `receiver`. Used in transfers.",
							"params": {
								"receiver": "Address to which tokens are being transferred."
							}
						}
					],
					"ERC20InvalidSender(address)": [
						{
							"details": "Indicates a failure with the token `sender`. Used in transfers.",
							"params": {
								"sender": "Address whose tokens are being transferred."
							}
						}
					],
					"ERC20InvalidSpender(address)": [
						{
							"details": "Indicates a failure with the `spender` to be approved. Used in approvals.",
							"params": {
								"spender": "Address that may be allowed to operate on tokens without being their owner."
							}
						}
					],
					"InsufficientLiquidity()": [
						{
							"details": "The InsufficientLiquidity error is thrown when there is not enough liquidity for an operation"
						}
					],
					"InvalidInitialization()": [
						{
							"details": "The contract is already initialized."
						}
					],
					"InvalidRecipient()": [
						{
							"details": "The InvalidRecipient error is thrown when an address is zero"
						}
					],
					"InvalidToken()": [
						{
							"details": "The InvalidToken error is thrown when a token address is invalid"
						}
					],
					"NotInitializing()": [
						{
							"details": "The contract is not initializing."
						}
					],
					"OwnableInvalidOwner(address)": [
						{
							"details": "The owner is not a valid owner account. (eg. `address(0)`)"
						}
					],
					"OwnableUnauthorizedAccount(address)": [
						{
							"details": "The caller account is not authorized to perform an operation."
						}
					],
					"ReentrantCall()": [
						{
							"details": "The ReentrancyError is thrown when a reentrancy attempt is detected"
						}
					]
				},
				"events": {
					"Approval(address,address,uint256)": {
						"details": "Emitted when the allowance of a `spender` for an `owner` is set by a call to {approve}. `value` is the new allowance."
					},
					"Initialized(uint64)": {
						"details": "Triggered when the contract has been initialized or reinitialized."
					},
					"TokensUpdated(address[])": {
						"params": {
							"_tokens": "New array of token addresses"
						}
					},
					"Transfer(address,address,uint256)": {
						"details": "Emitted when `value` tokens are moved from one account (`from`) to another (`to`). Note that `value` may be zero."
					},
					"feeAccrued(address,uint256,uint256,uint256,uint256)": {
						"params": {
							"amount": "Amount of LP tokens to be minted",
							"months": "Number of months since last accrual",
							"newAccruedAt": "New timestamp for accrual",
							"owner": "Address of the BTS",
							"supply": "Current supply of LP tokens"
						}
					}
				},
				"kind": "dev",
				"methods": {
					"allowance(address,address)": {
						"details": "See {IERC20-allowance}."
					},
					"approve(address,uint256)": {
						"details": "See {IERC20-approve}. NOTE: If `value` is the maximum `uint256`, the allowance is not updated on `transferFrom`. This is semantically equivalent to an infinite approval. Requirements: - `spender` cannot be the zero address."
					},
					"balanceOf(address)": {
						"details": "See {IERC20-balanceOf}."
					},
					"burn(address)": {
						"details": "Burns LP tokens and transfers the corresponding tokens to the recipient",
						"params": {
							"_to": "Address to transfer tokens to"
						},
						"returns": {
							"amounts": "Array of token amounts transferred"
						}
					},
					"calFee()": {
						"details": "Calculates the management fee based on the time elapsed since last accrual",
						"returns": {
							"feeAmount": "Amount of LP tokens to be minted",
							"months": "Number of months since last accrual",
							"supply": "Current supply of LP tokens"
						}
					},
					"calculateShareETH(uint256)": {
						"details": "Calculates the equivalent ETH value for a specific amount of LP tokens",
						"params": {
							"_amountLP": "Amount of LP tokens to calculate share for"
						},
						"returns": {
							"amountETH": "Amount of ETH"
						}
					},
					"calculateShareLP(uint256)": {
						"details": "Calculates the amount of LP tokens for a specific amount of ETH value",
						"params": {
							"_amountETH": "Amount of ETH to calculate share for"
						},
						"returns": {
							"amountLP": "Amount of LP tokens"
						}
					},
					"calculateShareTokens(uint256)": {
						"details": "Calculates the token amounts that correspond to a specific amount of LP tokens",
						"params": {
							"_amountLP": "Amount of LP tokens to calculate share for"
						},
						"returns": {
							"amountTokens": "Array of token amounts corresponding to the LP tokens"
						}
					},
					"decimals()": {
						"details": "Returns the number of decimals used to get its user representation. For example, if `decimals` equals `2`, a balance of `505` tokens should be displayed to a user as `5.05` (`505 / 10 ** 2`). Tokens usually opt for a value of 18, imitating the relationship between Ether and Wei. This is the default value returned by this function, unless it's overridden. NOTE: This information is only used for _display_ purposes: it in no way affects any of the arithmetic of the contract, including {IERC20-balanceOf} and {IERC20-transfer}."
					},
					"distMgmtFee()": {
						"details": "Mints LP tokens for the BTS manager and updates the accrual time. It can be called by internal functions, external cron jobs, or manually by any account."
					},
					"getTokenAddress(uint256)": {
						"params": {
							"_index": "Index of the token in the basket"
						},
						"returns": {
							"_0": "Token address"
						}
					},
					"getTokenAndUserBal(address)": {
						"details": "Returns the token balances in the contract and the user's LP token balance",
						"params": {
							"_user": "Address to get user balance for"
						},
						"returns": {
							"_0": "_tokenBal Array of token balances in the contract",
							"_1": "_supply Total supply of LP tokens",
							"_2": "_userLP User's LP token balance"
						}
					},
					"getTokenList()": {
						"details": "Returns the array of token addresses in the basket",
						"returns": {
							"_0": "Array of token addresses"
						}
					},
					"getTokenReserve(uint256)": {
						"params": {
							"_index": "Index of the token in the basket"
						},
						"returns": {
							"_0": "Token reserve"
						}
					},
					"getTokensReserve()": {
						"details": "Returns the array of token reserves in the basket",
						"returns": {
							"_0": "Array of token reserves"
						}
					},
					"getTotalMgmtFee()": {
						"details": "Returns the fee by calculating new fee and adding existing fee balance",
						"returns": {
							"_0": "Total management fee"
						}
					},
					"initialize(address,string,address[])": {
						"details": "Sets up the ERC20 token and initializes pair parameters",
						"params": {
							"_factoryAddress": "Factory contract address",
							"_name": "Name of the pair token",
							"_tokens": "Array of token addresses in the pair"
						}
					},
					"mint(address,uint256[])": {
						"details": "Calculates the liquidity amount based on token balances and mints LP tokens",
						"params": {
							"_to": "Address to mint tokens to"
						},
						"returns": {
							"liquidity": "Amount of liquidity tokens minted"
						}
					},
					"name()": {
						"details": "Returns the name of the token."
					},
					"owner()": {
						"details": "Returns the address of the current owner."
					},
					"renounceOwnership()": {
						"details": "Leaves the contract without owner. It will not be possible to call `onlyOwner` functions. Can only be called by the current owner. NOTE: Renouncing ownership will leave the contract without an owner, thereby disabling any functionality that is only available to the owner."
					},
					"setReentrancyGuardStatus(bool)": {
						"params": {
							"_state": "New state for the reentrancy guard flag for read-only functions"
						}
					},
					"symbol()": {
						"details": "Returns the symbol of the token, usually a shorter version of the name."
					},
					"totalSupply()": {
						"details": "See {IERC20-totalSupply}."
					},
					"transfer(address,uint256)": {
						"details": "See {IERC20-transfer}. Requirements: - `to` cannot be the zero address. - the caller must have a balance of at least `value`."
					},
					"transferFrom(address,address,uint256)": {
						"details": "See {IERC20-transferFrom}. Skips emitting an {Approval} event indicating an allowance update. This is not required by the ERC. See {xref-ERC20-_approve-address-address-uint256-bool-}[_approve]. NOTE: Does not update the allowance if the current allowance is the maximum `uint256`. Requirements: - `from` and `to` cannot be the zero address. - `from` must have a balance of at least `value`. - the caller must have allowance for ``from``'s tokens of at least `value`."
					},
					"transferOwnership(address)": {
						"details": "Transfers ownership of the contract to a new account (`newOwner`). Can only be called by the current owner."
					},
					"transferTokensToOwner()": {
						"details": "Transfers all tokens to the owner, typically called during basket rebalancing"
					},
					"updateTokens(address[])": {
						"details": "Updates the tokens array and recalculates reserves",
						"params": {
							"_tokens": "New array of token addresses"
						}
					}
				},
				"stateVariables": {
					"factory": {
						"details": "The factory contract is responsible for managing the liquidity pairs"
					},
					"lastAccruedAt": {
						"details": "The lastAccruedAt variable stores the timestamp for occurrence of fee accrual"
					},
					"reentrancyGuardEntered": {
						"details": "Prevents reentrancy by checking the state of operations in BTS"
					},
					"reserves": {
						"details": "The reserves array stores the reserve amounts of the tokens in the basket"
					},
					"tokens": {
						"details": "The tokens array stores the addresses of the tokens in the basket"
					}
				},
				"title": "Basket Token Standard Pair",
				"version": 1
			},
			"evm": {
				"assembly": "    /* \"contracts/tokens/BTSPair.sol\":584:17390  contract BasketTokenStandardPair is ERC20Upgradeable, OwnableUpgradeable, IBTSPair {... */\n  mstore(0x40, 0x80)\n  callvalue\n  dup1\n  iszero\n  tag_1\n  jumpi\n  revert(0x00, 0x00)\ntag_1:\n  pop\n  dataSize(sub_0)\n  dup1\n  dataOffset(sub_0)\n  0x00\n  codecopy\n  0x00\n  return\nstop\n\nsub_0: assembly {\n        /* \"contracts/tokens/BTSPair.sol\":584:17390  contract BasketTokenStandardPair is ERC20Upgradeable, OwnableUpgradeable, IBTSPair {... */\n      mstore(0x40, 0x80)\n      callvalue\n      dup1\n      iszero\n      tag_1\n      jumpi\n      revert(0x00, 0x00)\n    tag_1:\n      pop\n      jumpi(tag_2, lt(calldatasize, 0x04))\n      shr(0xe0, calldataload(0x00))\n      dup1\n      0x9257fa07\n      gt\n      tag_35\n      jumpi\n      dup1\n      0xd2c725e0\n      gt\n      tag_36\n      jumpi\n      dup1\n      0xde836ebd\n      gt\n      tag_37\n      jumpi\n      dup1\n      0xde836ebd\n      eq\n      tag_31\n      jumpi\n      dup1\n      0xe54ef9a0\n      eq\n      tag_32\n      jumpi\n      dup1\n      0xec5975c6\n      eq\n      tag_33\n      jumpi\n      dup1\n      0xf2fde38b\n      eq\n      tag_34\n      jumpi\n      revert(0x00, 0x00)\n    tag_37:\n      dup1\n      0xd2c725e0\n      eq\n      tag_27\n      jumpi\n      dup1\n      0xd410ad7d\n      eq\n      tag_28\n      jumpi\n      dup1\n      0xdd62ed3e\n      eq\n      tag_29\n      jumpi\n      dup1\n      0xde41691c\n      eq\n      tag_30\n      jumpi\n      revert(0x00, 0x00)\n    tag_36:\n      dup1\n      0xa9059cbb\n      gt\n      tag_38\n      jumpi\n      dup1\n      0xa9059cbb\n      eq\n      tag_23\n      jumpi\n      dup1\n      0xb4b93c8c\n      eq\n      tag_24\n      jumpi\n      dup1\n      0xba6ba385\n      eq\n      tag_25\n      jumpi\n      dup1\n      0xc45a0155\n      eq\n      tag_26\n      jumpi\n      revert(0x00, 0x00)\n    tag_38:\n      dup1\n      0x9257fa07\n      eq\n      tag_19\n      jumpi\n      dup1\n      0x95d89b41\n      eq\n      tag_20\n      jumpi\n      dup1\n      0xa131d436\n      eq\n      tag_21\n      jumpi\n      dup1\n      0xa7c7fdeb\n      eq\n      tag_22\n      jumpi\n      revert(0x00, 0x00)\n    tag_35:\n      dup1\n      0x5483067d\n      gt\n      tag_39\n      jumpi\n      dup1\n      0x715018a6\n      gt\n      tag_40\n      jumpi\n      dup1\n      0x715018a6\n      eq\n      tag_15\n      jumpi\n      dup1\n      0x89afcb44\n      eq\n      tag_16\n      jumpi\n      dup1\n      0x8da5cb5b\n      eq\n      tag_17\n      jumpi\n      dup1\n      0x8e73f1b4\n      eq\n      tag_18\n      jumpi\n      revert(0x00, 0x00)\n    tag_40:\n      dup1\n      0x5483067d\n      eq\n      tag_11\n      jumpi\n      dup1\n      0x55917ebe\n      eq\n      tag_12\n      jumpi\n      dup1\n      0x67ccdf38\n      eq\n      tag_13\n      jumpi\n      dup1\n      0x70a08231\n      eq\n      tag_14\n      jumpi\n      revert(0x00, 0x00)\n    tag_39:\n      dup1\n      0x23b872dd\n      gt\n      tag_41\n      jumpi\n      dup1\n      0x23b872dd\n      eq\n      tag_7\n      jumpi\n      dup1\n      0x273cbaa0\n      eq\n      tag_8\n      jumpi\n      dup1\n      0x313ce567\n      eq\n      tag_9\n      jumpi\n      dup1\n      0x3a105cfb\n      eq\n      tag_10\n      jumpi\n      revert(0x00, 0x00)\n    tag_41:\n      dup1\n      0x06fdde03\n      eq\n      tag_3\n      jumpi\n      dup1\n      0x090318fb\n      eq\n      tag_4\n      jumpi\n      dup1\n      0x095ea7b3\n      eq\n      tag_5\n      jumpi\n      dup1\n      0x18160ddd\n      eq\n      tag_6\n      jumpi\n    tag_2:\n      revert(0x00, 0x00)\n        /* \"@openzeppelin/contracts-upgradeable/token/ERC20/ERC20Upgradeable.sol\":2697:2841  function name() public view virtual returns (string memory) {... */\n    tag_3:\n      tag_42\n      tag_43\n      jump\t// in\n    tag_42:\n      mload(0x40)\n      tag_44\n      swap2\n      swap1\n      tag_45\n      jump\t// in\n    tag_44:\n      mload(0x40)\n      dup1\n      swap2\n      sub\n      swap1\n      return\n        /* \"contracts/tokens/BTSPair.sol\":15300:15455  function getTotalMgmtFee() external view returns (uint) { ... */\n    tag_4:\n      tag_46\n      tag_47\n      jump\t// in\n    tag_46:\n      mload(0x40)\n        /* \"#utility.yul\":583:608   */\n      swap1\n      dup2\n      mstore\n        /* \"#utility.yul\":571:573   */\n      0x20\n        /* \"#utility.yul\":556:574   */\n      add\n        /* \"contracts/tokens/BTSPair.sol\":15300:15455  function getTotalMgmtFee() external view returns (uint) { ... */\n      tag_44\n        /* \"#utility.yul\":437:614   */\n      jump\n        /* \"@openzeppelin/contracts-upgradeable/token/ERC20/ERC20Upgradeable.sol\":5191:5377  function approve(address spender, uint256 value) public virtual returns (bool) {... */\n    tag_5:\n      tag_50\n      tag_51\n      calldatasize\n      0x04\n      tag_52\n      jump\t// in\n    tag_51:\n      tag_53\n      jump\t// in\n    tag_50:\n      mload(0x40)\n        /* \"#utility.yul\":1292:1306   */\n      swap1\n      iszero\n        /* \"#utility.yul\":1285:1307   */\n      iszero\n        /* \"#utility.yul\":1267:1308   */\n      dup2\n      mstore\n        /* \"#utility.yul\":1255:1257   */\n      0x20\n        /* \"#utility.yul\":1240:1258   */\n      add\n        /* \"@openzeppelin/contracts-upgradeable/token/ERC20/ERC20Upgradeable.sol\":5191:5377  function approve(address spender, uint256 value) public virtual returns (bool) {... */\n      tag_44\n        /* \"#utility.yul\":1127:1314   */\n      jump\n        /* \"@openzeppelin/contracts-upgradeable/token/ERC20/ERC20Upgradeable.sol\":3877:4029  function totalSupply() public view virtual returns (uint256) {... */\n    tag_6:\n      mload(0x00)\n      codecopy(0x00, data_5c46c655e238aa25f8cbb2dc253afd95ec6fe3438bb2613b924ec6dfbcfd524d, 0x20)\n      mload(0x00)\n      swap1\n      0x00\n      mstore\n        /* \"@openzeppelin/contracts-upgradeable/token/ERC20/ERC20Upgradeable.sol\":4008:4022  $._totalSupply */\n      sload\n        /* \"@openzeppelin/contracts-upgradeable/token/ERC20/ERC20Upgradeable.sol\":3877:4029  function totalSupply() public view virtual returns (uint256) {... */\n      jump(tag_46)\n        /* \"@openzeppelin/contracts-upgradeable/token/ERC20/ERC20Upgradeable.sol\":5969:6213  function transferFrom(address from, address to, uint256 value) public virtual returns (bool) {... */\n    tag_7:\n      tag_50\n      tag_60\n      calldatasize\n      0x04\n      tag_61\n      jump\t// in\n    tag_60:\n      tag_62\n      jump\t// in\n        /* \"contracts/tokens/BTSPair.sol\":14728:14850  function getTokenList() public view nonReentrantReadOnly... */\n    tag_8:\n      tag_64\n      tag_65\n      jump\t// in\n    tag_64:\n      mload(0x40)\n      tag_44\n      swap2\n      swap1\n      tag_67\n      jump\t// in\n        /* \"@openzeppelin/contracts-upgradeable/token/ERC20/ERC20Upgradeable.sol\":3735:3817  function decimals() public view virtual returns (uint8) {... */\n    tag_9:\n      mload(0x40)\n        /* \"@openzeppelin/contracts-upgradeable/token/ERC20/ERC20Upgradeable.sol\":3808:3810  18 */\n      0x12\n        /* \"#utility.yul\":2691:2727   */\n      dup2\n      mstore\n        /* \"#utility.yul\":2679:2681   */\n      0x20\n        /* \"#utility.yul\":2664:2682   */\n      add\n        /* \"@openzeppelin/contracts-upgradeable/token/ERC20/ERC20Upgradeable.sol\":3735:3817  function decimals() public view virtual returns (uint8) {... */\n      tag_44\n        /* \"#utility.yul\":2549:2733   */\n      jump\n        /* \"contracts/tokens/BTSPair.sol\":4084:4652  function initialize(... */\n    tag_10:\n      tag_72\n      tag_73\n      calldatasize\n      0x04\n      tag_74\n      jump\t// in\n    tag_73:\n      tag_75\n      jump\t// in\n    tag_72:\n      stop\n        /* \"contracts/tokens/BTSPair.sol\":1166:1194  uint256 public lastAccruedAt */\n    tag_11:\n      tag_46\n      sload(0x01)\n      dup2\n      jump\n        /* \"contracts/tokens/BTSPair.sol\":13628:13945  function calFee() public view returns (uint256 months, uint256 supply, uint256 feeAmount) {... */\n    tag_12:\n      tag_79\n      tag_80\n      jump\t// in\n    tag_79:\n      0x40\n      dup1\n      mload\n        /* \"#utility.yul\":4961:4986   */\n      swap4\n      dup5\n      mstore\n        /* \"#utility.yul\":5017:5019   */\n      0x20\n        /* \"#utility.yul\":5002:5020   */\n      dup5\n      add\n        /* \"#utility.yul\":4995:5029   */\n      swap3\n      swap1\n      swap3\n      mstore\n        /* \"#utility.yul\":5045:5063   */\n      swap1\n      dup3\n      add\n        /* \"#utility.yul\":5038:5072   */\n      mstore\n        /* \"#utility.yul\":4949:4951   */\n      0x60\n        /* \"#utility.yul\":4934:4952   */\n      add\n        /* \"contracts/tokens/BTSPair.sol\":13628:13945  function calFee() public view returns (uint256 months, uint256 supply, uint256 feeAmount) {... */\n      tag_44\n        /* \"#utility.yul\":4759:5078   */\n      jump\n        /* \"contracts/tokens/BTSPair.sol\":14092:14260  function getTokenAddress(uint256 _index)... */\n    tag_13:\n      tag_83\n      tag_84\n      calldatasize\n      0x04\n      tag_85\n      jump\t// in\n    tag_84:\n      tag_86\n      jump\t// in\n    tag_83:\n      mload(0x40)\n      sub(shl(0xa0, 0x01), 0x01)\n        /* \"#utility.yul\":5478:5510   */\n      swap1\n      swap2\n      and\n        /* \"#utility.yul\":5460:5511   */\n      dup2\n      mstore\n        /* \"#utility.yul\":5448:5450   */\n      0x20\n        /* \"#utility.yul\":5433:5451   */\n      add\n        /* \"contracts/tokens/BTSPair.sol\":14092:14260  function getTokenAddress(uint256 _index)... */\n      tag_44\n        /* \"#utility.yul\":5314:5517   */\n      jump\n        /* \"@openzeppelin/contracts-upgradeable/token/ERC20/ERC20Upgradeable.sol\":4087:4258  function balanceOf(address account) public view virtual returns (uint256) {... */\n    tag_14:\n      tag_46\n      tag_90\n      calldatasize\n      0x04\n      tag_91\n      jump\t// in\n    tag_90:\n      tag_92\n      jump\t// in\n        /* \"@openzeppelin/contracts-upgradeable/access/OwnableUpgradeable.sol\":3155:3256  function renounceOwnership() public virtual onlyOwner {... */\n    tag_15:\n      tag_72\n      tag_95\n      jump\t// in\n        /* \"contracts/tokens/BTSPair.sol\":7568:8453  function burn(address _to)... */\n    tag_16:\n      tag_96\n      tag_97\n      calldatasize\n      0x04\n      tag_91\n      jump\t// in\n    tag_97:\n      tag_98\n      jump\t// in\n    tag_96:\n      mload(0x40)\n      tag_44\n      swap2\n      swap1\n      tag_100\n      jump\t// in\n        /* \"@openzeppelin/contracts-upgradeable/access/OwnableUpgradeable.sol\":2441:2585  function owner() public view virtual returns (address) {... */\n    tag_17:\n      tag_83\n      tag_102\n      jump\t// in\n        /* \"contracts/tokens/BTSPair.sol\":14407:14577  function getTokenReserve(uint256 _index)... */\n    tag_18:\n      tag_46\n      tag_105\n      calldatasize\n      0x04\n      tag_85\n      jump\t// in\n    tag_105:\n      tag_106\n      jump\t// in\n        /* \"contracts/tokens/BTSPair.sol\":10470:11421  function calculateShareETH(uint256 _amountLP)... */\n    tag_19:\n      tag_46\n      tag_109\n      calldatasize\n      0x04\n      tag_85\n      jump\t// in\n    tag_109:\n      tag_110\n      jump\t// in\n        /* \"@openzeppelin/contracts-upgradeable/token/ERC20/ERC20Upgradeable.sol\":2954:3102  function symbol() public view virtual returns (string memory) {... */\n    tag_20:\n      tag_42\n      tag_113\n      jump\t// in\n        /* \"contracts/tokens/BTSPair.sol\":12647:13315  function getTokenAndUserBal(address _user)... */\n    tag_21:\n      tag_115\n      tag_116\n      calldatasize\n      0x04\n      tag_91\n      jump\t// in\n    tag_116:\n      tag_117\n      jump\t// in\n    tag_115:\n      mload(0x40)\n      tag_44\n      swap4\n      swap3\n      swap2\n      swap1\n      tag_119\n      jump\t// in\n        /* \"contracts/tokens/BTSPair.sol\":4988:5485  function transferTokensToOwner() external onlyOwner {... */\n    tag_22:\n      tag_72\n      tag_121\n      jump\t// in\n        /* \"@openzeppelin/contracts-upgradeable/token/ERC20/ERC20Upgradeable.sol\":4453:4631  function transfer(address to, uint256 value) public virtual returns (bool) {... */\n    tag_23:\n      tag_50\n      tag_123\n      calldatasize\n      0x04\n      tag_52\n      jump\t// in\n    tag_123:\n      tag_124\n      jump\t// in\n        /* \"contracts/tokens/BTSPair.sol\":9131:9529  function distMgmtFee() public {... */\n    tag_24:\n      tag_72\n      tag_127\n      jump\t// in\n        /* \"contracts/tokens/BTSPair.sol\":8662:8776  function setReentrancyGuardStatus(bool _state) external onlyOwner {... */\n    tag_25:\n      tag_72\n      tag_129\n      calldatasize\n      0x04\n      tag_130\n      jump\t// in\n    tag_129:\n      tag_131\n      jump\t// in\n        /* \"contracts/tokens/BTSPair.sol\":996:1018  address public factory */\n    tag_26:\n      sload(0x00)\n      tag_83\n      swap1\n      sub(shl(0xa0, 0x01), 0x01)\n      and\n      dup2\n      jump\n        /* \"contracts/tokens/BTSPair.sol\":1325:1359  bool public reentrancyGuardEntered */\n    tag_27:\n      sload(0x02)\n      tag_50\n      swap1\n      0xff\n      and\n      dup2\n      jump\n        /* \"contracts/tokens/BTSPair.sol\":11721:12283  function calculateShareTokens(uint256 _amountLP)... */\n    tag_28:\n      tag_96\n      tag_139\n      calldatasize\n      0x04\n      tag_85\n      jump\t// in\n    tag_139:\n      tag_140\n      jump\t// in\n        /* \"@openzeppelin/contracts-upgradeable/token/ERC20/ERC20Upgradeable.sol\":4689:4884  function allowance(address owner, address spender) public view virtual returns (uint256) {... */\n    tag_29:\n      tag_46\n      tag_143\n      calldatasize\n      0x04\n      tag_144\n      jump\t// in\n    tag_143:\n      tag_145\n      jump\t// in\n        /* \"contracts/tokens/BTSPair.sol\":5706:5937  function updateTokens(address[] calldata _tokens) external onlyOwner {... */\n    tag_30:\n      tag_72\n      tag_148\n      calldatasize\n      0x04\n      tag_149\n      jump\t// in\n    tag_148:\n      tag_150\n      jump\t// in\n        /* \"contracts/tokens/BTSPair.sol\":6236:7270  function mint(address _to, uint256[] calldata amounts)... */\n    tag_31:\n      tag_46\n      tag_152\n      calldatasize\n      0x04\n      tag_153\n      jump\t// in\n    tag_152:\n      tag_154\n      jump\t// in\n        /* \"contracts/tokens/BTSPair.sol\":9926:10224  function calculateShareLP(uint256 _amountETH)... */\n    tag_32:\n      tag_46\n      tag_157\n      calldatasize\n      0x04\n      tag_85\n      jump\t// in\n    tag_157:\n      tag_158\n      jump\t// in\n        /* \"contracts/tokens/BTSPair.sol\":14999:15127  function getTokensReserve() public view nonReentrantReadOnly... */\n    tag_33:\n      tag_96\n      tag_161\n      jump\t// in\n        /* \"@openzeppelin/contracts-upgradeable/access/OwnableUpgradeable.sol\":3405:3620  function transferOwnership(address newOwner) public virtual onlyOwner {... */\n    tag_34:\n      tag_72\n      tag_164\n      calldatasize\n      0x04\n      tag_91\n      jump\t// in\n    tag_164:\n      tag_165\n      jump\t// in\n        /* \"@openzeppelin/contracts-upgradeable/token/ERC20/ERC20Upgradeable.sol\":2697:2841  function name() public view virtual returns (string memory) {... */\n    tag_43:\n        /* \"@openzeppelin/contracts-upgradeable/token/ERC20/ERC20Upgradeable.sol\":2827:2834  $._name */\n      0x52c63247e1f47db19d5ce0460030c497f067ca4cebf71ba98eeadabe20bace03\n        /* \"@openzeppelin/contracts-upgradeable/token/ERC20/ERC20Upgradeable.sol\":2820:2834  return $._name */\n      dup1\n      sload\n        /* \"@openzeppelin/contracts-upgradeable/token/ERC20/ERC20Upgradeable.sol\":2742:2755  string memory */\n      0x60\n      swap2\n      mload(0x00)\n      codecopy(0x00, data_3874827173e8df9f34323b12b251d1d3c53926ce129e30a0d69f1d47c277041b, 0x20)\n      mload(0x00)\n      swap1\n      0x00\n      mstore\n        /* \"@openzeppelin/contracts-upgradeable/token/ERC20/ERC20Upgradeable.sol\":2064:2084  ERC20StorageLocation */\n      swap2\n        /* \"@openzeppelin/contracts-upgradeable/token/ERC20/ERC20Upgradeable.sol\":2820:2834  return $._name */\n      tag_169\n      swap1\n      tag_170\n      jump\t// in\n    tag_169:\n      dup1\n      0x1f\n      add\n      0x20\n      dup1\n      swap2\n      div\n      mul\n      0x20\n      add\n      mload(0x40)\n      swap1\n      dup2\n      add\n      0x40\n      mstore\n      dup1\n      swap3\n      swap2\n      swap1\n      dup2\n      dup2\n      mstore\n      0x20\n      add\n      dup3\n      dup1\n      sload\n      tag_171\n      swap1\n      tag_170\n      jump\t// in\n    tag_171:\n      dup1\n      iszero\n      tag_172\n      jumpi\n      dup1\n      0x1f\n      lt\n      tag_173\n      jumpi\n      0x0100\n      dup1\n      dup4\n      sload\n      div\n      mul\n      dup4\n      mstore\n      swap2\n      0x20\n      add\n      swap2\n      jump(tag_172)\n    tag_173:\n      dup3\n      add\n      swap2\n      swap1\n      0x00\n      mstore\n      keccak256(0x00, 0x20)\n      swap1\n    tag_174:\n      dup2\n      sload\n      dup2\n      mstore\n      swap1\n      0x01\n      add\n      swap1\n      0x20\n      add\n      dup1\n      dup4\n      gt\n      tag_174\n      jumpi\n      dup3\n      swap1\n      sub\n      0x1f\n      and\n      dup3\n      add\n      swap2\n    tag_172:\n      pop\n      pop\n      pop\n      pop\n      pop\n      swap2\n      pop\n      pop\n        /* \"@openzeppelin/contracts-upgradeable/token/ERC20/ERC20Upgradeable.sol\":2697:2841  function name() public view virtual returns (string memory) {... */\n      swap1\n      jump\t// out\n        /* \"contracts/tokens/BTSPair.sol\":15300:15455  function getTotalMgmtFee() external view returns (uint) { ... */\n    tag_47:\n        /* \"contracts/tokens/BTSPair.sol\":15350:15354  uint */\n      0x00\n        /* \"contracts/tokens/BTSPair.sol\":15372:15389  uint256 feeAmount */\n      0x00\n        /* \"contracts/tokens/BTSPair.sol\":15393:15401  calFee() */\n      tag_176\n        /* \"contracts/tokens/BTSPair.sol\":15393:15399  calFee */\n      tag_80\n        /* \"contracts/tokens/BTSPair.sol\":15393:15401  calFee() */\n      jump\t// in\n    tag_176:\n        /* \"contracts/tokens/BTSPair.sol\":15367:15401  (, , uint256 feeAmount) = calFee() */\n      swap3\n      pop\n      pop\n      pop\n        /* \"contracts/tokens/BTSPair.sol\":15430:15448  balanceOf(owner()) */\n      tag_177\n        /* \"contracts/tokens/BTSPair.sol\":15440:15447  owner() */\n      tag_90\n        /* \"contracts/tokens/BTSPair.sol\":15440:15445  owner */\n      tag_102\n        /* \"contracts/tokens/BTSPair.sol\":15440:15447  owner() */\n      jump\t// in\n        /* \"contracts/tokens/BTSPair.sol\":15430:15448  balanceOf(owner()) */\n    tag_177:\n        /* \"contracts/tokens/BTSPair.sol\":15418:15448  feeAmount + balanceOf(owner()) */\n      tag_179\n      swap1\n        /* \"contracts/tokens/BTSPair.sol\":15418:15427  feeAmount */\n      dup3\n        /* \"contracts/tokens/BTSPair.sol\":15418:15448  feeAmount + balanceOf(owner()) */\n      tag_180\n      jump\t// in\n    tag_179:\n        /* \"contracts/tokens/BTSPair.sol\":15411:15448  return feeAmount + balanceOf(owner()) */\n      swap2\n      pop\n      pop\n        /* \"contracts/tokens/BTSPair.sol\":15300:15455  function getTotalMgmtFee() external view returns (uint) { ... */\n      swap1\n      jump\t// out\n        /* \"@openzeppelin/contracts-upgradeable/token/ERC20/ERC20Upgradeable.sol\":5191:5377  function approve(address spender, uint256 value) public virtual returns (bool) {... */\n    tag_53:\n        /* \"@openzeppelin/contracts-upgradeable/token/ERC20/ERC20Upgradeable.sol\":5264:5268  bool */\n      0x00\n        /* \"@openzeppelin/contracts-upgradeable/utils/ContextUpgradeable.sol\":966:976  msg.sender */\n      caller\n        /* \"@openzeppelin/contracts-upgradeable/token/ERC20/ERC20Upgradeable.sol\":5318:5349  _approve(owner, spender, value) */\n      tag_184\n        /* \"@openzeppelin/contracts-upgradeable/utils/ContextUpgradeable.sol\":966:976  msg.sender */\n      dup2\n        /* \"@openzeppelin/contracts-upgradeable/token/ERC20/ERC20Upgradeable.sol\":5334:5341  spender */\n      dup6\n        /* \"@openzeppelin/contracts-upgradeable/token/ERC20/ERC20Upgradeable.sol\":5343:5348  value */\n      dup6\n        /* \"@openzeppelin/contracts-upgradeable/token/ERC20/ERC20Upgradeable.sol\":5318:5326  _approve */\n      tag_185\n        /* \"@openzeppelin/contracts-upgradeable/token/ERC20/ERC20Upgradeable.sol\":5318:5349  _approve(owner, spender, value) */\n      jump\t// in\n    tag_184:\n        /* \"@openzeppelin/contracts-upgradeable/token/ERC20/ERC20Upgradeable.sol\":5366:5370  true */\n      0x01\n        /* \"@openzeppelin/contracts-upgradeable/token/ERC20/ERC20Upgradeable.sol\":5359:5370  return true */\n      swap2\n      pop\n      pop\n        /* \"@openzeppelin/contracts-upgradeable/token/ERC20/ERC20Upgradeable.sol\":5191:5377  function approve(address spender, uint256 value) public virtual returns (bool) {... */\n    tag_181:\n      swap3\n      swap2\n      pop\n      pop\n      jump\t// out\n        /* \"@openzeppelin/contracts-upgradeable/token/ERC20/ERC20Upgradeable.sol\":5969:6213  function transferFrom(address from, address to, uint256 value) public virtual returns (bool) {... */\n    tag_62:\n        /* \"@openzeppelin/contracts-upgradeable/token/ERC20/ERC20Upgradeable.sol\":6056:6060  bool */\n      0x00\n        /* \"@openzeppelin/contracts-upgradeable/utils/ContextUpgradeable.sol\":966:976  msg.sender */\n      caller\n        /* \"@openzeppelin/contracts-upgradeable/token/ERC20/ERC20Upgradeable.sol\":6112:6149  _spendAllowance(from, spender, value) */\n      tag_190\n        /* \"@openzeppelin/contracts-upgradeable/token/ERC20/ERC20Upgradeable.sol\":6128:6132  from */\n      dup6\n        /* \"@openzeppelin/contracts-upgradeable/utils/ContextUpgradeable.sol\":966:976  msg.sender */\n      dup3\n        /* \"@openzeppelin/contracts-upgradeable/token/ERC20/ERC20Upgradeable.sol\":6143:6148  value */\n      dup6\n        /* \"@openzeppelin/contracts-upgradeable/token/ERC20/ERC20Upgradeable.sol\":6112:6127  _spendAllowance */\n      tag_191\n        /* \"@openzeppelin/contracts-upgradeable/token/ERC20/ERC20Upgradeable.sol\":6112:6149  _spendAllowance(from, spender, value) */\n      jump\t// in\n    tag_190:\n        /* \"@openzeppelin/contracts-upgradeable/token/ERC20/ERC20Upgradeable.sol\":6159:6185  _transfer(from, to, value) */\n      tag_192\n        /* \"@openzeppelin/contracts-upgradeable/token/ERC20/ERC20Upgradeable.sol\":6169:6173  from */\n      dup6\n        /* \"@openzeppelin/contracts-upgradeable/token/ERC20/ERC20Upgradeable.sol\":6175:6177  to */\n      dup6\n        /* \"@openzeppelin/contracts-upgradeable/token/ERC20/ERC20Upgradeable.sol\":6179:6184  value */\n      dup6\n        /* \"@openzeppelin/contracts-upgradeable/token/ERC20/ERC20Upgradeable.sol\":6159:6168  _transfer */\n      tag_193\n        /* \"@openzeppelin/contracts-upgradeable/token/ERC20/ERC20Upgradeable.sol\":6159:6185  _transfer(from, to, value) */\n      jump\t// in\n    tag_192:\n      pop\n        /* \"@openzeppelin/contracts-upgradeable/token/ERC20/ERC20Upgradeable.sol\":6202:6206  true */\n      0x01\n      swap5\n        /* \"@openzeppelin/contracts-upgradeable/token/ERC20/ERC20Upgradeable.sol\":5969:6213  function transferFrom(address from, address to, uint256 value) public virtual returns (bool) {... */\n      swap4\n      pop\n      pop\n      pop\n      pop\n      jump\t// out\n        /* \"contracts/tokens/BTSPair.sol\":14728:14850  function getTokenList() public view nonReentrantReadOnly... */\n    tag_65:\n        /* \"contracts/tokens/BTSPair.sol\":1920:1942  reentrancyGuardEntered */\n      sload(0x02)\n        /* \"contracts/tokens/BTSPair.sol\":14802:14818  address[] memory */\n      0x60\n      swap1\n        /* \"contracts/tokens/BTSPair.sol\":1920:1942  reentrancyGuardEntered */\n      0xff\n      and\n        /* \"contracts/tokens/BTSPair.sol\":1917:1966  if(reentrancyGuardEntered) revert ReentrantCall() */\n      iszero\n      tag_195\n      jumpi\n        /* \"contracts/tokens/BTSPair.sol\":1951:1966  ReentrantCall() */\n      mload(0x40)\n      shl(0xe3, 0x06fda65d)\n      dup2\n      mstore\n      0x04\n      add\n      mload(0x40)\n      dup1\n      swap2\n      sub\n      swap1\n      revert\n        /* \"contracts/tokens/BTSPair.sol\":1917:1966  if(reentrancyGuardEntered) revert ReentrantCall() */\n    tag_195:\n        /* \"contracts/tokens/BTSPair.sol\":14837:14843  tokens */\n      0x03\n        /* \"contracts/tokens/BTSPair.sol\":14830:14843  return tokens */\n      dup1\n      sload\n      dup1\n      0x20\n      mul\n      0x20\n      add\n      mload(0x40)\n      swap1\n      dup2\n      add\n      0x40\n      mstore\n      dup1\n      swap3\n      swap2\n      swap1\n      dup2\n      dup2\n      mstore\n      0x20\n      add\n      dup3\n      dup1\n      sload\n      dup1\n      iszero\n      tag_197\n      jumpi\n      0x20\n      mul\n      dup3\n      add\n      swap2\n      swap1\n      0x00\n      mstore\n      keccak256(0x00, 0x20)\n      swap1\n    tag_198:\n      dup2\n      sload\n      sub(shl(0xa0, 0x01), 0x01)\n      and\n      dup2\n      mstore\n      0x01\n      swap1\n      swap2\n      add\n      swap1\n      0x20\n      add\n      dup1\n      dup4\n      gt\n      tag_198\n      jumpi\n    tag_197:\n      pop\n      pop\n      pop\n      pop\n      pop\n      swap1\n      pop\n        /* \"contracts/tokens/BTSPair.sol\":14728:14850  function getTokenList() public view nonReentrantReadOnly... */\n      swap1\n      jump\t// out\n        /* \"contracts/tokens/BTSPair.sol\":4084:4652  function initialize(... */\n    tag_75:\n        /* \"@openzeppelin/contracts-upgradeable/proxy/utils/Initializable.sol\":4158:4188  InitializableStorage storage $ */\n      0x00\n        /* \"@openzeppelin/contracts-upgradeable/proxy/utils/Initializable.sol\":4191:4217  _getInitializableStorage() */\n      tag_201\n        /* \"@openzeppelin/contracts-upgradeable/proxy/utils/Initializable.sol\":4191:4215  _getInitializableStorage */\n      tag_202\n        /* \"@openzeppelin/contracts-upgradeable/proxy/utils/Initializable.sol\":4191:4217  _getInitializableStorage() */\n      jump\t// in\n    tag_201:\n        /* \"@openzeppelin/contracts-upgradeable/proxy/utils/Initializable.sol\":4302:4317  $._initializing */\n      dup1\n      sload\n        /* \"@openzeppelin/contracts-upgradeable/proxy/utils/Initializable.sol\":4158:4217  InitializableStorage storage $ = _getInitializableStorage() */\n      swap1\n      swap2\n      pop\n        /* \"@openzeppelin/contracts-upgradeable/proxy/utils/Initializable.sol\":4302:4317  $._initializing */\n      0xff\n      shl(0x40, 0x01)\n      dup3\n      div\n      and\n        /* \"@openzeppelin/contracts-upgradeable/proxy/utils/Initializable.sol\":4301:4317  !$._initializing */\n      iszero\n      swap1\n      sub(shl(0x40, 0x01), 0x01)\n        /* \"@openzeppelin/contracts-upgradeable/proxy/utils/Initializable.sol\":4348:4362  $._initialized */\n      and\n        /* \"@openzeppelin/contracts-upgradeable/proxy/utils/Initializable.sol\":4279:4298  bool isTopLevelCall */\n      0x00\n        /* \"@openzeppelin/contracts-upgradeable/proxy/utils/Initializable.sol\":4724:4740  initialized == 0 */\n      dup2\n      iszero\n        /* \"@openzeppelin/contracts-upgradeable/proxy/utils/Initializable.sol\":4724:4758  initialized == 0 && isTopLevelCall */\n      dup1\n      iszero\n      tag_203\n      jumpi\n      pop\n        /* \"@openzeppelin/contracts-upgradeable/proxy/utils/Initializable.sol\":4744:4758  isTopLevelCall */\n      dup3\n        /* \"@openzeppelin/contracts-upgradeable/proxy/utils/Initializable.sol\":4724:4758  initialized == 0 && isTopLevelCall */\n    tag_203:\n        /* \"@openzeppelin/contracts-upgradeable/proxy/utils/Initializable.sol\":4704:4758  bool initialSetup = initialized == 0 && isTopLevelCall */\n      swap1\n      pop\n        /* \"@openzeppelin/contracts-upgradeable/proxy/utils/Initializable.sol\":4768:4785  bool construction */\n      0x00\n        /* \"@openzeppelin/contracts-upgradeable/proxy/utils/Initializable.sol\":4788:4799  initialized */\n      dup3\n      sub(shl(0x40, 0x01), 0x01)\n        /* \"@openzeppelin/contracts-upgradeable/proxy/utils/Initializable.sol\":4788:4804  initialized == 1 */\n      and\n        /* \"@openzeppelin/contracts-upgradeable/proxy/utils/Initializable.sol\":4803:4804  1 */\n      0x01\n        /* \"@openzeppelin/contracts-upgradeable/proxy/utils/Initializable.sol\":4788:4804  initialized == 1 */\n      eq\n        /* \"@openzeppelin/contracts-upgradeable/proxy/utils/Initializable.sol\":4788:4838  initialized == 1 && address(this).code.length == 0 */\n      dup1\n      iszero\n      tag_204\n      jumpi\n      pop\n        /* \"@openzeppelin/contracts-upgradeable/proxy/utils/Initializable.sol\":4816:4820  this */\n      address\n        /* \"@openzeppelin/contracts-upgradeable/proxy/utils/Initializable.sol\":4808:4833  address(this).code.length */\n      extcodesize\n        /* \"@openzeppelin/contracts-upgradeable/proxy/utils/Initializable.sol\":4808:4838  address(this).code.length == 0 */\n      iszero\n        /* \"@openzeppelin/contracts-upgradeable/proxy/utils/Initializable.sol\":4788:4838  initialized == 1 && address(this).code.length == 0 */\n    tag_204:\n        /* \"@openzeppelin/contracts-upgradeable/proxy/utils/Initializable.sol\":4768:4838  bool construction = initialized == 1 && address(this).code.length == 0 */\n      swap1\n      pop\n        /* \"@openzeppelin/contracts-upgradeable/proxy/utils/Initializable.sol\":4854:4866  initialSetup */\n      dup2\n        /* \"@openzeppelin/contracts-upgradeable/proxy/utils/Initializable.sol\":4853:4866  !initialSetup */\n      iszero\n        /* \"@openzeppelin/contracts-upgradeable/proxy/utils/Initializable.sol\":4853:4883  !initialSetup && !construction */\n      dup1\n      iszero\n      tag_205\n      jumpi\n      pop\n        /* \"@openzeppelin/contracts-upgradeable/proxy/utils/Initializable.sol\":4871:4883  construction */\n      dup1\n        /* \"@openzeppelin/contracts-upgradeable/proxy/utils/Initializable.sol\":4870:4883  !construction */\n      iszero\n        /* \"@openzeppelin/contracts-upgradeable/proxy/utils/Initializable.sol\":4853:4883  !initialSetup && !construction */\n    tag_205:\n        /* \"@openzeppelin/contracts-upgradeable/proxy/utils/Initializable.sol\":4849:4940  if (!initialSetup && !construction) {... */\n      iszero\n      tag_206\n      jumpi\n        /* \"@openzeppelin/contracts-upgradeable/proxy/utils/Initializable.sol\":4906:4929  InvalidInitialization() */\n      mload(0x40)\n      shl(0xe0, 0xf92ee8a9)\n      dup2\n      mstore\n      0x04\n      add\n      mload(0x40)\n      dup1\n      swap2\n      sub\n      swap1\n      revert\n        /* \"@openzeppelin/contracts-upgradeable/proxy/utils/Initializable.sol\":4849:4940  if (!initialSetup && !construction) {... */\n    tag_206:\n        /* \"@openzeppelin/contracts-upgradeable/proxy/utils/Initializable.sol\":4949:4967  $._initialized = 1 */\n      dup5\n      sload\n      not(0xffffffffffffffff)\n      and\n        /* \"@openzeppelin/contracts-upgradeable/proxy/utils/Initializable.sol\":4966:4967  1 */\n      0x01\n        /* \"@openzeppelin/contracts-upgradeable/proxy/utils/Initializable.sol\":4949:4967  $._initialized = 1 */\n      or\n      dup6\n      sstore\n        /* \"@openzeppelin/contracts-upgradeable/proxy/utils/Initializable.sol\":4977:5044  if (isTopLevelCall) {... */\n      dup4\n      iszero\n      tag_207\n      jumpi\n        /* \"@openzeppelin/contracts-upgradeable/proxy/utils/Initializable.sol\":5011:5033  $._initializing = true */\n      dup5\n      sload\n      not(shl(0x40, 0xff))\n      and\n      shl(0x40, 0x01)\n      or\n      dup6\n      sstore\n        /* \"@openzeppelin/contracts-upgradeable/proxy/utils/Initializable.sol\":4977:5044  if (isTopLevelCall) {... */\n    tag_207:\n        /* \"contracts/tokens/BTSPair.sol\":4261:4262  0 */\n      0x00\n        /* \"contracts/tokens/BTSPair.sol\":4243:4262  _tokens.length == 0 */\n      dup7\n      swap1\n      sub\n        /* \"contracts/tokens/BTSPair.sol\":4239:4285  if (_tokens.length == 0) revert InvalidToken() */\n      tag_209\n      jumpi\n        /* \"contracts/tokens/BTSPair.sol\":4271:4285  InvalidToken() */\n      mload(0x40)\n      shl(0xe0, 0xc1ab6dc1)\n      dup2\n      mstore\n      0x04\n      add\n      mload(0x40)\n      dup1\n      swap2\n      sub\n      swap1\n      revert\n        /* \"contracts/tokens/BTSPair.sol\":4239:4285  if (_tokens.length == 0) revert InvalidToken() */\n    tag_209:\n        /* \"contracts/tokens/BTSPair.sol\":4305:4310  _name */\n      dup8\n        /* \"contracts/tokens/BTSPair.sol\":4299:4318  bytes(_name).length */\n      mload\n        /* \"contracts/tokens/BTSPair.sol\":4322:4323  0 */\n      0x00\n        /* \"contracts/tokens/BTSPair.sol\":4299:4323  bytes(_name).length == 0 */\n      sub\n        /* \"contracts/tokens/BTSPair.sol\":4295:4360  if (bytes(_name).length == 0) revert EmptyStringParameter(\"name\") */\n      tag_210\n      jumpi\n        /* \"contracts/tokens/BTSPair.sol\":4332:4360  EmptyStringParameter(\"name\") */\n      mload(0x40)\n      shl(0xe2, 0x24321863)\n      dup2\n      mstore\n      0x04\n      add\n      tag_211\n      swap1\n        /* \"#utility.yul\":9503:9505   */\n      0x20\n        /* \"#utility.yul\":9485:9506   */\n      dup1\n      dup3\n      mstore\n        /* \"#utility.yul\":9542:9543   */\n      0x04\n        /* \"#utility.yul\":9522:9540   */\n      swap1\n      dup3\n      add\n        /* \"#utility.yul\":9515:9544   */\n      mstore\n      shl(0xe0, 0x6e616d65)\n        /* \"#utility.yul\":9575:9577   */\n      0x40\n        /* \"#utility.yul\":9560:9578   */\n      dup3\n      add\n        /* \"#utility.yul\":9553:9587   */\n      mstore\n        /* \"#utility.yul\":9619:9621   */\n      0x60\n        /* \"#utility.yul\":9604:9622   */\n      add\n      swap1\n        /* \"#utility.yul\":9301:9628   */\n      jump\n        /* \"contracts/tokens/BTSPair.sol\":4332:4360  EmptyStringParameter(\"name\") */\n    tag_211:\n      mload(0x40)\n      dup1\n      swap2\n      sub\n      swap1\n      revert\n        /* \"contracts/tokens/BTSPair.sol\":4295:4360  if (bytes(_name).length == 0) revert EmptyStringParameter(\"name\") */\n    tag_210:\n        /* \"contracts/tokens/BTSPair.sol\":4403:4408  _name */\n      dup8\n        /* \"contracts/tokens/BTSPair.sol\":4386:4416  abi.encodePacked(_name, \"-LP\") */\n      add(0x20, mload(0x40))\n      tag_213\n      swap2\n      swap1\n      tag_214\n      jump\t// in\n    tag_213:\n      mload(0x40)\n      0x20\n      dup2\n      dup4\n      sub\n      sub\n      dup2\n      mstore\n      swap1\n      0x40\n      mstore\n        /* \"contracts/tokens/BTSPair.sol\":4371:4417  _name = string(abi.encodePacked(_name, \"-LP\")) */\n      swap8\n      pop\n        /* \"contracts/tokens/BTSPair.sol\":4428:4454  __ERC20_init(_name, _name) */\n      tag_215\n        /* \"contracts/tokens/BTSPair.sol\":4441:4446  _name */\n      dup9\n        /* \"contracts/tokens/BTSPair.sol\":4448:4453  _name */\n      dup10\n        /* \"contracts/tokens/BTSPair.sol\":4428:4440  __ERC20_init */\n      tag_216\n        /* \"contracts/tokens/BTSPair.sol\":4428:4454  __ERC20_init(_name, _name) */\n      jump\t// in\n    tag_215:\n        /* \"contracts/tokens/BTSPair.sol\":4464:4490  __Ownable_init(msg.sender) */\n      tag_217\n        /* \"contracts/tokens/BTSPair.sol\":4479:4489  msg.sender */\n      caller\n        /* \"contracts/tokens/BTSPair.sol\":4464:4478  __Ownable_init */\n      tag_218\n        /* \"contracts/tokens/BTSPair.sol\":4464:4490  __Ownable_init(msg.sender) */\n      jump\t// in\n    tag_217:\n        /* \"contracts/tokens/BTSPair.sol\":4501:4517  tokens = _tokens */\n      tag_219\n        /* \"contracts/tokens/BTSPair.sol\":4501:4507  tokens */\n      0x03\n        /* \"contracts/tokens/BTSPair.sol\":4510:4517  _tokens */\n      dup9\n      dup9\n        /* \"contracts/tokens/BTSPair.sol\":4501:4517  tokens = _tokens */\n      tag_220\n      jump\t// in\n    tag_219:\n      pop\n        /* \"contracts/tokens/BTSPair.sol\":4554:4560  tokens */\n      0x03\n        /* \"contracts/tokens/BTSPair.sol\":4554:4567  tokens.length */\n      sload\n      sub(shl(0x40, 0x01), 0x01)\n        /* \"contracts/tokens/BTSPair.sol\":4538:4568  new uint256[]  (tokens.length) */\n      dup2\n      gt\n      iszero\n      tag_222\n      jumpi\n      tag_222\n      tag_223\n      jump\t// in\n    tag_222:\n      mload(0x40)\n      swap1\n      dup1\n      dup3\n      mstore\n      dup1\n      0x20\n      mul\n      0x20\n      add\n      dup3\n      add\n      0x40\n      mstore\n      dup1\n      iszero\n      tag_224\n      jumpi\n      dup2\n      0x20\n      add\n      0x20\n      dup3\n      mul\n      dup1\n      calldatasize\n      dup4\n      calldatacopy\n      add\n      swap1\n      pop\n    tag_224:\n      pop\n        /* \"contracts/tokens/BTSPair.sol\":4527:4568  reserves = new uint256[]  (tokens.length) */\n      dup1\n      mload\n      tag_225\n      swap2\n        /* \"contracts/tokens/BTSPair.sol\":4527:4535  reserves */\n      0x04\n      swap2\n        /* \"contracts/tokens/BTSPair.sol\":4527:4568  reserves = new uint256[]  (tokens.length) */\n      0x20\n      swap1\n      swap2\n      add\n      swap1\n      tag_226\n      jump\t// in\n    tag_225:\n      pop\n        /* \"contracts/tokens/BTSPair.sol\":4579:4586  factory */\n      0x00\n        /* \"contracts/tokens/BTSPair.sol\":4579:4604  factory = _factoryAddress */\n      dup1\n      sload\n      not(sub(shl(0xa0, 0x01), 0x01))\n      and\n      sub(shl(0xa0, 0x01), 0x01)\n      dup12\n      and\n      or\n      swap1\n      sstore\n        /* \"contracts/tokens/BTSPair.sol\":4630:4645  block.timestamp */\n      timestamp\n      0x01\n        /* \"contracts/tokens/BTSPair.sol\":4614:4645  lastAccruedAt = block.timestamp */\n      sstore\n        /* \"@openzeppelin/contracts-upgradeable/proxy/utils/Initializable.sol\":5064:5165  if (isTopLevelCall) {... */\n      dup4\n      iszero\n      tag_227\n      jumpi\n        /* \"@openzeppelin/contracts-upgradeable/proxy/utils/Initializable.sol\":5098:5121  $._initializing = false */\n      dup5\n      sload\n      not(shl(0x40, 0xff))\n      and\n      dup6\n      sstore\n        /* \"@openzeppelin/contracts-upgradeable/proxy/utils/Initializable.sol\":5140:5154  Initialized(1) */\n      mload(0x40)\n      0x01\n        /* \"#utility.yul\":10356:10406   */\n      dup2\n      mstore\n        /* \"@openzeppelin/contracts-upgradeable/proxy/utils/Initializable.sol\":5140:5154  Initialized(1) */\n      0xc7f505b2f371ae2175ee4913f4499e1f2633a7b5936321eed1cdaeb6115181d2\n      swap1\n        /* \"#utility.yul\":10344:10346   */\n      0x20\n        /* \"#utility.yul\":10329:10347   */\n      add\n        /* \"@openzeppelin/contracts-upgradeable/proxy/utils/Initializable.sol\":5140:5154  Initialized(1) */\n      mload(0x40)\n      dup1\n      swap2\n      sub\n      swap1\n      log1\n        /* \"@openzeppelin/contracts-upgradeable/proxy/utils/Initializable.sol\":5064:5165  if (isTopLevelCall) {... */\n    tag_227:\n        /* \"@openzeppelin/contracts-upgradeable/proxy/utils/Initializable.sol\":4092:5171  {... */\n      pop\n      pop\n      pop\n      pop\n      pop\n        /* \"contracts/tokens/BTSPair.sol\":4084:4652  function initialize(... */\n      pop\n      pop\n      pop\n      pop\n      jump\t// out\n        /* \"contracts/tokens/BTSPair.sol\":13628:13945  function calFee() public view returns (uint256 months, uint256 supply, uint256 feeAmount) {... */\n    tag_80:\n        /* \"contracts/tokens/BTSPair.sol\":13667:13681  uint256 months */\n      0x00\n        /* \"contracts/tokens/BTSPair.sol\":13683:13697  uint256 supply */\n      0x00\n        /* \"contracts/tokens/BTSPair.sol\":13699:13716  uint256 feeAmount */\n      0x00\n        /* \"contracts/tokens/BTSPair.sol\":13772:13779  30 days */\n      0x278d00\n        /* \"contracts/tokens/BTSPair.sol\":13756:13769  lastAccruedAt */\n      sload(0x01)\n        /* \"contracts/tokens/BTSPair.sol\":13738:13753  block.timestamp */\n      timestamp\n        /* \"contracts/tokens/BTSPair.sol\":13738:13769  block.timestamp - lastAccruedAt */\n      tag_231\n      swap2\n      swap1\n      tag_232\n      jump\t// in\n    tag_231:\n        /* \"contracts/tokens/BTSPair.sol\":13737:13779  (block.timestamp - lastAccruedAt)/ 30 days */\n      tag_233\n      swap2\n      swap1\n      tag_234\n      jump\t// in\n    tag_233:\n        /* \"contracts/tokens/BTSPair.sol\":13728:13779  months = (block.timestamp - lastAccruedAt)/ 30 days */\n      swap3\n      pop\n        /* \"contracts/tokens/BTSPair.sol\":13798:13811  totalSupply() */\n      tag_235\n      mload(0x00)\n      codecopy(0x00, data_5c46c655e238aa25f8cbb2dc253afd95ec6fe3438bb2613b924ec6dfbcfd524d, 0x20)\n      mload(0x00)\n      swap1\n      0x00\n      mstore\n        /* \"@openzeppelin/contracts-upgradeable/token/ERC20/ERC20Upgradeable.sol\":4008:4022  $._totalSupply */\n      sload\n      swap1\n        /* \"@openzeppelin/contracts-upgradeable/token/ERC20/ERC20Upgradeable.sol\":3877:4029  function totalSupply() public view virtual returns (uint256) {... */\n      jump\n        /* \"contracts/tokens/BTSPair.sol\":13798:13811  totalSupply() */\n    tag_235:\n        /* \"contracts/tokens/BTSPair.sol\":13789:13811  supply = totalSupply() */\n      swap2\n      pop\n        /* \"contracts/tokens/BTSPair.sol\":13824:13835  months == 0 */\n      dup3\n      iszero\n      dup1\n        /* \"contracts/tokens/BTSPair.sol\":13824:13850  months == 0 || supply == 0 */\n      tag_236\n      jumpi\n      pop\n        /* \"contracts/tokens/BTSPair.sol\":13839:13850  supply == 0 */\n      dup2\n      iszero\n        /* \"contracts/tokens/BTSPair.sol\":13824:13850  months == 0 || supply == 0 */\n    tag_236:\n        /* \"contracts/tokens/BTSPair.sol\":13821:13878  if(months == 0 || supply == 0) return (months, supply, 0) */\n      iszero\n      tag_237\n      jumpi\n      pop\n        /* \"contracts/tokens/BTSPair.sol\":13860:13866  months */\n      swap1\n      swap2\n        /* \"contracts/tokens/BTSPair.sol\":13876:13877  0 */\n      0x00\n      swap1\n        /* \"contracts/tokens/BTSPair.sol\":13628:13945  function calFee() public view returns (uint256 months, uint256 supply, uint256 feeAmount) {... */\n      jump\t// out\n        /* \"contracts/tokens/BTSPair.sol\":13821:13878  if(months == 0 || supply == 0) return (months, supply, 0) */\n    tag_237:\n        /* \"contracts/tokens/BTSPair.sol\":15866:15874  IFactory */\n      0x00\n        /* \"contracts/tokens/BTSPair.sol\":15902:15909  factory */\n      sload\n      sub(shl(0xa0, 0x01), 0x01)\n      and\n        /* \"contracts/tokens/BTSPair.sol\":13901:13938  _factory().calMgmtFee(months, supply) */\n      mload(0x40)\n      shl(0xe0, 0xd23aaed3)\n      dup2\n      mstore\n      0x04\n      dup2\n      add\n        /* \"#utility.yul\":10946:10971   */\n      dup6\n      swap1\n      mstore\n        /* \"#utility.yul\":10987:11005   */\n      0x24\n      dup2\n      add\n        /* \"#utility.yul\":10980:11014   */\n      dup5\n      swap1\n      mstore\n      sub(shl(0xa0, 0x01), 0x01)\n        /* \"contracts/tokens/BTSPair.sol\":13901:13922  _factory().calMgmtFee */\n      swap2\n      swap1\n      swap2\n      and\n      swap1\n      0xd23aaed3\n      swap1\n        /* \"#utility.yul\":10919:10937   */\n      0x44\n      add\n        /* \"contracts/tokens/BTSPair.sol\":13901:13938  _factory().calMgmtFee(months, supply) */\n      0x20\n      mload(0x40)\n      dup1\n      dup4\n      sub\n      dup2\n      dup7\n      gas\n      staticcall\n      iszero\n      dup1\n      iszero\n      tag_243\n      jumpi\n      returndatacopy(0x00, 0x00, returndatasize)\n      revert(0x00, returndatasize)\n    tag_243:\n      pop\n      pop\n      pop\n      pop\n      mload(0x40)\n      returndatasize\n      not(0x1f)\n      0x1f\n      dup3\n      add\n      and\n      dup3\n      add\n      dup1\n      0x40\n      mstore\n      pop\n      dup2\n      add\n      swap1\n      tag_244\n      swap2\n      swap1\n      tag_245\n      jump\t// in\n    tag_244:\n        /* \"contracts/tokens/BTSPair.sol\":13888:13938  feeAmount  = _factory().calMgmtFee(months, supply) */\n      swap1\n      pop\n        /* \"contracts/tokens/BTSPair.sol\":13628:13945  function calFee() public view returns (uint256 months, uint256 supply, uint256 feeAmount) {... */\n      swap1\n      swap2\n      swap3\n      jump\t// out\n        /* \"contracts/tokens/BTSPair.sol\":14092:14260  function getTokenAddress(uint256 _index)... */\n    tag_86:\n        /* \"contracts/tokens/BTSPair.sol\":1920:1942  reentrancyGuardEntered */\n      sload(0x02)\n        /* \"contracts/tokens/BTSPair.sol\":14209:14216  address */\n      0x00\n      swap1\n        /* \"contracts/tokens/BTSPair.sol\":1920:1942  reentrancyGuardEntered */\n      0xff\n      and\n        /* \"contracts/tokens/BTSPair.sol\":1917:1966  if(reentrancyGuardEntered) revert ReentrantCall() */\n      iszero\n      tag_247\n      jumpi\n        /* \"contracts/tokens/BTSPair.sol\":1951:1966  ReentrantCall() */\n      mload(0x40)\n      shl(0xe3, 0x06fda65d)\n      dup2\n      mstore\n      0x04\n      add\n      mload(0x40)\n      dup1\n      swap2\n      sub\n      swap1\n      revert\n        /* \"contracts/tokens/BTSPair.sol\":1917:1966  if(reentrancyGuardEntered) revert ReentrantCall() */\n    tag_247:\n        /* \"contracts/tokens/BTSPair.sol\":14239:14245  tokens */\n      0x03\n        /* \"contracts/tokens/BTSPair.sol\":14246:14252  _index */\n      dup3\n        /* \"contracts/tokens/BTSPair.sol\":14239:14253  tokens[_index] */\n      dup2\n      sload\n      dup2\n      lt\n      tag_250\n      jumpi\n      tag_250\n      tag_251\n      jump\t// in\n    tag_250:\n      0x00\n      swap2\n      dup3\n      mstore\n      0x20\n      swap1\n      swap2\n      keccak256\n      add\n      sload\n      sub(shl(0xa0, 0x01), 0x01)\n      and\n      swap3\n        /* \"contracts/tokens/BTSPair.sol\":14092:14260  function getTokenAddress(uint256 _index)... */\n      swap2\n      pop\n      pop\n      jump\t// out\n        /* \"@openzeppelin/contracts-upgradeable/token/ERC20/ERC20Upgradeable.sol\":4087:4258  function balanceOf(address account) public view virtual returns (uint256) {... */\n    tag_92:\n      sub(shl(0xa0, 0x01), 0x01)\n        /* \"@openzeppelin/contracts-upgradeable/token/ERC20/ERC20Upgradeable.sol\":4231:4251  $._balances[account] */\n      and\n        /* \"@openzeppelin/contracts-upgradeable/token/ERC20/ERC20Upgradeable.sol\":4152:4159  uint256 */\n      0x00\n        /* \"@openzeppelin/contracts-upgradeable/token/ERC20/ERC20Upgradeable.sol\":4231:4251  $._balances[account] */\n      swap1\n      dup2\n      mstore\n      mload(0x00)\n      codecopy(0x00, data_3874827173e8df9f34323b12b251d1d3c53926ce129e30a0d69f1d47c277041b, 0x20)\n      mload(0x00)\n      swap1\n      0x00\n      mstore\n      0x20\n      mstore\n      0x40\n      swap1\n      keccak256\n      sload\n      swap1\n        /* \"@openzeppelin/contracts-upgradeable/token/ERC20/ERC20Upgradeable.sol\":4087:4258  function balanceOf(address account) public view virtual returns (uint256) {... */\n      jump\t// out\n        /* \"@openzeppelin/contracts-upgradeable/access/OwnableUpgradeable.sol\":3155:3256  function renounceOwnership() public virtual onlyOwner {... */\n    tag_95:\n        /* \"@openzeppelin/contracts-upgradeable/access/OwnableUpgradeable.sol\":2334:2347  _checkOwner() */\n      tag_256\n        /* \"@openzeppelin/contracts-upgradeable/access/OwnableUpgradeable.sol\":2334:2345  _checkOwner */\n      tag_257\n        /* \"@openzeppelin/contracts-upgradeable/access/OwnableUpgradeable.sol\":2334:2347  _checkOwner() */\n      jump\t// in\n    tag_256:\n        /* \"@openzeppelin/contracts-upgradeable/access/OwnableUpgradeable.sol\":3219:3249  _transferOwnership(address(0)) */\n      tag_259\n        /* \"@openzeppelin/contracts-upgradeable/access/OwnableUpgradeable.sol\":3246:3247  0 */\n      0x00\n        /* \"@openzeppelin/contracts-upgradeable/access/OwnableUpgradeable.sol\":3219:3237  _transferOwnership */\n      tag_260\n        /* \"@openzeppelin/contracts-upgradeable/access/OwnableUpgradeable.sol\":3219:3249  _transferOwnership(address(0)) */\n      jump\t// in\n    tag_259:\n        /* \"@openzeppelin/contracts-upgradeable/access/OwnableUpgradeable.sol\":3155:3256  function renounceOwnership() public virtual onlyOwner {... */\n      jump\t// out\n        /* \"contracts/tokens/BTSPair.sol\":7568:8453  function burn(address _to)... */\n    tag_98:\n        /* \"contracts/tokens/BTSPair.sol\":7647:7671  uint256[] memory amounts */\n      0x60\n        /* \"@openzeppelin/contracts-upgradeable/access/OwnableUpgradeable.sol\":2334:2347  _checkOwner() */\n      tag_262\n        /* \"@openzeppelin/contracts-upgradeable/access/OwnableUpgradeable.sol\":2334:2345  _checkOwner */\n      tag_257\n        /* \"@openzeppelin/contracts-upgradeable/access/OwnableUpgradeable.sol\":2334:2347  _checkOwner() */\n      jump\t// in\n    tag_262:\n      sub(shl(0xa0, 0x01), 0x01)\n        /* \"contracts/tokens/BTSPair.sol\":7691:7708  _to == address(0) */\n      dup3\n      and\n        /* \"contracts/tokens/BTSPair.sol\":7687:7735  if (_to == address(0)) revert InvalidRecipient() */\n      tag_264\n      jumpi\n        /* \"contracts/tokens/BTSPair.sol\":7717:7735  InvalidRecipient() */\n      mload(0x40)\n      shl(0xe1, 0x4e469669)\n      dup2\n      mstore\n      0x04\n      add\n      mload(0x40)\n      dup1\n      swap2\n      sub\n      swap1\n      revert\n        /* \"contracts/tokens/BTSPair.sol\":7687:7735  if (_to == address(0)) revert InvalidRecipient() */\n    tag_264:\n        /* \"contracts/tokens/BTSPair.sol\":7746:7759  distMgmtFee() */\n      tag_265\n        /* \"contracts/tokens/BTSPair.sol\":7746:7757  distMgmtFee */\n      tag_127\n        /* \"contracts/tokens/BTSPair.sol\":7746:7759  distMgmtFee() */\n      jump\t// in\n    tag_265:\n        /* \"contracts/tokens/BTSPair.sol\":7769:7787  uint256 _liquidity */\n      0x00\n        /* \"contracts/tokens/BTSPair.sol\":7790:7814  balanceOf(address(this)) */\n      tag_266\n        /* \"contracts/tokens/BTSPair.sol\":7808:7812  this */\n      address\n        /* \"contracts/tokens/BTSPair.sol\":7790:7799  balanceOf */\n      tag_92\n        /* \"contracts/tokens/BTSPair.sol\":7790:7814  balanceOf(address(this)) */\n      jump\t// in\n    tag_266:\n        /* \"contracts/tokens/BTSPair.sol\":7769:7814  uint256 _liquidity = balanceOf(address(this)) */\n      swap1\n      pop\n        /* \"contracts/tokens/BTSPair.sol\":7828:7838  _liquidity */\n      dup1\n        /* \"contracts/tokens/BTSPair.sol\":7842:7843  0 */\n      0x00\n        /* \"contracts/tokens/BTSPair.sol\":7828:7843  _liquidity == 0 */\n      sub\n        /* \"contracts/tokens/BTSPair.sol\":7824:7875  if (_liquidity == 0) revert InsufficientLiquidity() */\n      tag_267\n      jumpi\n        /* \"contracts/tokens/BTSPair.sol\":7852:7875  InsufficientLiquidity() */\n      mload(0x40)\n      shl(0xe0, 0xbb55fd27)\n      dup2\n      mstore\n      0x04\n      add\n      mload(0x40)\n      dup1\n      swap2\n      sub\n      swap1\n      revert\n        /* \"contracts/tokens/BTSPair.sol\":7824:7875  if (_liquidity == 0) revert InsufficientLiquidity() */\n    tag_267:\n        /* \"contracts/tokens/BTSPair.sol\":7896:7928  calculateShareTokens(_liquidity) */\n      tag_268\n        /* \"contracts/tokens/BTSPair.sol\":7917:7927  _liquidity */\n      dup2\n        /* \"contracts/tokens/BTSPair.sol\":7896:7916  calculateShareTokens */\n      tag_140\n        /* \"contracts/tokens/BTSPair.sol\":7896:7928  calculateShareTokens(_liquidity) */\n      jump\t// in\n    tag_268:\n        /* \"contracts/tokens/BTSPair.sol\":7886:7928  amounts = calculateShareTokens(_liquidity) */\n      swap2\n      pop\n        /* \"contracts/tokens/BTSPair.sol\":7938:7970  _burn(address(this), _liquidity) */\n      tag_269\n        /* \"contracts/tokens/BTSPair.sol\":7952:7956  this */\n      address\n        /* \"contracts/tokens/BTSPair.sol\":7959:7969  _liquidity */\n      dup3\n        /* \"contracts/tokens/BTSPair.sol\":7938:7943  _burn */\n      tag_270\n        /* \"contracts/tokens/BTSPair.sol\":7938:7970  _burn(address(this), _liquidity) */\n      jump\t// in\n    tag_269:\n        /* \"contracts/tokens/BTSPair.sol\":8003:8009  tokens */\n      0x03\n        /* \"contracts/tokens/BTSPair.sol\":8003:8016  tokens.length */\n      sload\n        /* \"contracts/tokens/BTSPair.sol\":7980:8000  uint256 tokensLength */\n      0x00\n        /* \"contracts/tokens/BTSPair.sol\":8027:8447  for (uint256 i = 0; i < tokensLength; ) {... */\n    tag_271:\n        /* \"contracts/tokens/BTSPair.sol\":8051:8063  tokensLength */\n      dup2\n        /* \"contracts/tokens/BTSPair.sol\":8047:8048  i */\n      dup2\n        /* \"contracts/tokens/BTSPair.sol\":8047:8063  i < tokensLength */\n      lt\n        /* \"contracts/tokens/BTSPair.sol\":8027:8447  for (uint256 i = 0; i < tokensLength; ) {... */\n      iszero\n      tag_272\n      jumpi\n        /* \"contracts/tokens/BTSPair.sol\":8081:8095  uint256 amount */\n      0x00\n        /* \"contracts/tokens/BTSPair.sol\":8098:8105  amounts */\n      dup5\n        /* \"contracts/tokens/BTSPair.sol\":8106:8107  i */\n      dup3\n        /* \"contracts/tokens/BTSPair.sol\":8098:8108  amounts[i] */\n      dup2\n      mload\n      dup2\n      lt\n      tag_275\n      jumpi\n      tag_275\n      tag_251\n      jump\t// in\n    tag_275:\n      0x20\n      mul\n      0x20\n      add\n      add\n      mload\n        /* \"contracts/tokens/BTSPair.sol\":8081:8108  uint256 amount = amounts[i] */\n      swap1\n      pop\n        /* \"contracts/tokens/BTSPair.sol\":8135:8136  0 */\n      0x00\n        /* \"contracts/tokens/BTSPair.sol\":8126:8132  amount */\n      dup2\n        /* \"contracts/tokens/BTSPair.sol\":8126:8136  amount > 0 */\n      gt\n        /* \"contracts/tokens/BTSPair.sol\":8122:8314  if (amount > 0){... */\n      iszero\n      tag_276\n      jumpi\n        /* \"contracts/tokens/BTSPair.sol\":8155:8168  address token */\n      0x00\n        /* \"contracts/tokens/BTSPair.sol\":8171:8177  tokens */\n      0x03\n        /* \"contracts/tokens/BTSPair.sol\":8178:8179  i */\n      dup4\n        /* \"contracts/tokens/BTSPair.sol\":8171:8180  tokens[i] */\n      dup2\n      sload\n      dup2\n      lt\n      tag_278\n      jumpi\n      tag_278\n      tag_251\n      jump\t// in\n    tag_278:\n      0x00\n      swap2\n      dup3\n      mstore\n      0x20\n      swap1\n      swap2\n      keccak256\n      add\n      sload\n      sub(shl(0xa0, 0x01), 0x01)\n      and\n      swap1\n      pop\n        /* \"contracts/tokens/BTSPair.sol\":8225:8275  IERC20Upgradeable(token).safeTransfer(_to, amount) */\n      tag_280\n        /* \"contracts/tokens/BTSPair.sol\":8171:8180  tokens[i] */\n      dup2\n        /* \"contracts/tokens/BTSPair.sol\":8263:8266  _to */\n      dup9\n        /* \"contracts/tokens/BTSPair.sol\":8268:8274  amount */\n      dup5\n        /* \"contracts/tokens/BTSPair.sol\":8225:8262  IERC20Upgradeable(token).safeTransfer */\n      tag_281\n        /* \"contracts/tokens/BTSPair.sol\":8225:8275  IERC20Upgradeable(token).safeTransfer(_to, amount) */\n      jump\t// in\n    tag_280:\n        /* \"contracts/tokens/BTSPair.sol\":8137:8314  {... */\n      pop\n        /* \"contracts/tokens/BTSPair.sol\":8122:8314  if (amount > 0){... */\n    tag_276:\n        /* \"contracts/tokens/BTSPair.sol\":8345:8351  amount */\n      dup1\n        /* \"contracts/tokens/BTSPair.sol\":8330:8338  reserves */\n      0x04\n        /* \"contracts/tokens/BTSPair.sol\":8339:8340  i */\n      dup4\n        /* \"contracts/tokens/BTSPair.sol\":8330:8341  reserves[i] */\n      dup2\n      sload\n      dup2\n      lt\n      tag_283\n      jumpi\n      tag_283\n      tag_251\n      jump\t// in\n    tag_283:\n      swap1\n      0x00\n      mstore\n      keccak256(0x00, 0x20)\n      add\n      0x00\n        /* \"contracts/tokens/BTSPair.sol\":8330:8351  reserves[i] -= amount */\n      dup3\n      dup3\n      sload\n      tag_285\n      swap2\n      swap1\n      tag_232\n      jump\t// in\n    tag_285:\n      swap1\n      swap2\n      sstore\n      pop\n      pop\n      pop\n        /* \"contracts/tokens/BTSPair.sol\":8419:8422  ++i */\n      0x01\n      add\n        /* \"contracts/tokens/BTSPair.sol\":8027:8447  for (uint256 i = 0; i < tokensLength; ) {... */\n      jump(tag_271)\n    tag_272:\n      pop\n        /* \"contracts/tokens/BTSPair.sol\":7677:8453  {... */\n      pop\n      pop\n        /* \"contracts/tokens/BTSPair.sol\":7568:8453  function burn(address _to)... */\n      swap2\n      swap1\n      pop\n      jump\t// out\n        /* \"@openzeppelin/contracts-upgradeable/access/OwnableUpgradeable.sol\":2441:2585  function owner() public view virtual returns (address) {... */\n    tag_102:\n        /* \"@openzeppelin/contracts-upgradeable/access/OwnableUpgradeable.sol\":1313:1335  OwnableStorageLocation */\n      0x9016d09d72d40fdae2fd8ceac6b6234c7706214fd39c1cd1e609a0528c199300\n        /* \"@openzeppelin/contracts-upgradeable/access/OwnableUpgradeable.sol\":2570:2578  $._owner */\n      sload\n      sub(shl(0xa0, 0x01), 0x01)\n      and\n      swap1\n        /* \"@openzeppelin/contracts-upgradeable/access/OwnableUpgradeable.sol\":2441:2585  function owner() public view virtual returns (address) {... */\n      jump\t// out\n        /* \"contracts/tokens/BTSPair.sol\":14407:14577  function getTokenReserve(uint256 _index)... */\n    tag_106:\n        /* \"contracts/tokens/BTSPair.sol\":1920:1942  reentrancyGuardEntered */\n      sload(0x02)\n        /* \"contracts/tokens/BTSPair.sol\":14524:14531  uint256 */\n      0x00\n      swap1\n        /* \"contracts/tokens/BTSPair.sol\":1920:1942  reentrancyGuardEntered */\n      0xff\n      and\n        /* \"contracts/tokens/BTSPair.sol\":1917:1966  if(reentrancyGuardEntered) revert ReentrantCall() */\n      iszero\n      tag_290\n      jumpi\n        /* \"contracts/tokens/BTSPair.sol\":1951:1966  ReentrantCall() */\n      mload(0x40)\n      shl(0xe3, 0x06fda65d)\n      dup2\n      mstore\n      0x04\n      add\n      mload(0x40)\n      dup1\n      swap2\n      sub\n      swap1\n      revert\n        /* \"contracts/tokens/BTSPair.sol\":1917:1966  if(reentrancyGuardEntered) revert ReentrantCall() */\n    tag_290:\n        /* \"contracts/tokens/BTSPair.sol\":14554:14562  reserves */\n      0x04\n        /* \"contracts/tokens/BTSPair.sol\":14563:14569  _index */\n      dup3\n        /* \"contracts/tokens/BTSPair.sol\":14554:14570  reserves[_index] */\n      dup2\n      sload\n      dup2\n      lt\n      tag_293\n      jumpi\n      tag_293\n      tag_251\n      jump\t// in\n    tag_293:\n      swap1\n      0x00\n      mstore\n      keccak256(0x00, 0x20)\n      add\n      sload\n        /* \"contracts/tokens/BTSPair.sol\":14547:14570  return reserves[_index] */\n      swap1\n      pop\n        /* \"contracts/tokens/BTSPair.sol\":14407:14577  function getTokenReserve(uint256 _index)... */\n      swap2\n      swap1\n      pop\n      jump\t// out\n        /* \"contracts/tokens/BTSPair.sol\":10470:11421  function calculateShareETH(uint256 _amountLP)... */\n    tag_110:\n        /* \"contracts/tokens/BTSPair.sol\":1920:1942  reentrancyGuardEntered */\n      sload(0x02)\n        /* \"contracts/tokens/BTSPair.sol\":10574:10591  uint256 amountETH */\n      0x00\n      swap1\n        /* \"contracts/tokens/BTSPair.sol\":1920:1942  reentrancyGuardEntered */\n      0xff\n      and\n        /* \"contracts/tokens/BTSPair.sol\":1917:1966  if(reentrancyGuardEntered) revert ReentrantCall() */\n      iszero\n      tag_296\n      jumpi\n        /* \"contracts/tokens/BTSPair.sol\":1951:1966  ReentrantCall() */\n      mload(0x40)\n      shl(0xe3, 0x06fda65d)\n      dup2\n      mstore\n      0x04\n      add\n      mload(0x40)\n      dup1\n      swap2\n      sub\n      swap1\n      revert\n        /* \"contracts/tokens/BTSPair.sol\":1917:1966  if(reentrancyGuardEntered) revert ReentrantCall() */\n    tag_296:\n        /* \"contracts/tokens/BTSPair.sol\":10607:10621  uint256 supply */\n      0x00\n        /* \"contracts/tokens/BTSPair.sol\":10624:10637  totalSupply() */\n      tag_298\n      mload(0x00)\n      codecopy(0x00, data_5c46c655e238aa25f8cbb2dc253afd95ec6fe3438bb2613b924ec6dfbcfd524d, 0x20)\n      mload(0x00)\n      swap1\n      0x00\n      mstore\n        /* \"@openzeppelin/contracts-upgradeable/token/ERC20/ERC20Upgradeable.sol\":4008:4022  $._totalSupply */\n      sload\n      swap1\n        /* \"@openzeppelin/contracts-upgradeable/token/ERC20/ERC20Upgradeable.sol\":3877:4029  function totalSupply() public view virtual returns (uint256) {... */\n      jump\n        /* \"contracts/tokens/BTSPair.sol\":10624:10637  totalSupply() */\n    tag_298:\n        /* \"contracts/tokens/BTSPair.sol\":10607:10637  uint256 supply = totalSupply() */\n      swap1\n      pop\n        /* \"contracts/tokens/BTSPair.sol\":10676:10682  supply */\n      dup1\n        /* \"contracts/tokens/BTSPair.sol\":10686:10687  0 */\n      0x00\n        /* \"contracts/tokens/BTSPair.sol\":10676:10687  supply == 0 */\n      sub\n        /* \"contracts/tokens/BTSPair.sol\":10672:10697  if (supply == 0) return 0 */\n      tag_299\n      jumpi\n      pop\n        /* \"contracts/tokens/BTSPair.sol\":10696:10697  0 */\n      0x00\n      swap3\n        /* \"contracts/tokens/BTSPair.sol\":14092:14260  function getTokenAddress(uint256 _index)... */\n      swap2\n      pop\n      pop\n      jump\t// out\n        /* \"contracts/tokens/BTSPair.sol\":10672:10697  if (supply == 0) return 0 */\n    tag_299:\n        /* \"contracts/tokens/BTSPair.sol\":10716:10740  IFactory factoryInstance */\n      0x00\n        /* \"contracts/tokens/BTSPair.sol\":15902:15909  factory */\n      dup1\n      sload\n      sub(shl(0xa0, 0x01), 0x01)\n      and\n        /* \"contracts/tokens/BTSPair.sol\":10716:10753  IFactory factoryInstance = _factory() */\n      swap1\n      pop\n        /* \"contracts/tokens/BTSPair.sol\":10763:10785  uint256 reservesLength */\n      0x00\n        /* \"contracts/tokens/BTSPair.sol\":10788:10796  reserves */\n      0x04\n        /* \"contracts/tokens/BTSPair.sol\":10788:10803  reserves.length */\n      dup1\n      sload\n      swap1\n      pop\n        /* \"contracts/tokens/BTSPair.sol\":10763:10803  uint256 reservesLength = reserves.length */\n      swap1\n      pop\n        /* \"contracts/tokens/BTSPair.sol\":10813:10832  address wethAddress */\n      0x00\n        /* \"contracts/tokens/BTSPair.sol\":10835:10850  factoryInstance */\n      dup3\n      sub(shl(0xa0, 0x01), 0x01)\n        /* \"contracts/tokens/BTSPair.sol\":10835:10855  factoryInstance.weth */\n      and\n      0x3fc8cef3\n        /* \"contracts/tokens/BTSPair.sol\":10835:10857  factoryInstance.weth() */\n      mload(0x40)\n      dup2\n      0xffffffff\n      and\n      0xe0\n      shl\n      dup2\n      mstore\n      0x04\n      add\n      0x20\n      mload(0x40)\n      dup1\n      dup4\n      sub\n      dup2\n      dup7\n      gas\n      staticcall\n      iszero\n      dup1\n      iszero\n      tag_302\n      jumpi\n      returndatacopy(0x00, 0x00, returndatasize)\n      revert(0x00, returndatasize)\n    tag_302:\n      pop\n      pop\n      pop\n      pop\n      mload(0x40)\n      returndatasize\n      not(0x1f)\n      0x1f\n      dup3\n      add\n      and\n      dup3\n      add\n      dup1\n      0x40\n      mstore\n      pop\n      dup2\n      add\n      swap1\n      tag_303\n      swap2\n      swap1\n      tag_304\n      jump\t// in\n    tag_303:\n        /* \"contracts/tokens/BTSPair.sol\":10813:10857  address wethAddress = factoryInstance.weth() */\n      swap1\n      pop\n        /* \"contracts/tokens/BTSPair.sol\":10881:10890  uint256 i */\n      0x00\n        /* \"contracts/tokens/BTSPair.sol\":10876:11415  for (uint256 i = 0; i < reservesLength; ) {... */\n    tag_305:\n        /* \"contracts/tokens/BTSPair.sol\":10900:10914  reservesLength */\n      dup3\n        /* \"contracts/tokens/BTSPair.sol\":10896:10897  i */\n      dup2\n        /* \"contracts/tokens/BTSPair.sol\":10896:10914  i < reservesLength */\n      lt\n        /* \"contracts/tokens/BTSPair.sol\":10876:11415  for (uint256 i = 0; i < reservesLength; ) {... */\n      iszero\n      tag_306\n      jumpi\n        /* \"contracts/tokens/BTSPair.sol\":10932:10945  address token */\n      0x00\n        /* \"contracts/tokens/BTSPair.sol\":10948:10954  tokens */\n      0x03\n        /* \"contracts/tokens/BTSPair.sol\":10955:10956  i */\n      dup3\n        /* \"contracts/tokens/BTSPair.sol\":10948:10957  tokens[i] */\n      dup2\n      sload\n      dup2\n      lt\n      tag_309\n      jumpi\n      tag_309\n      tag_251\n      jump\t// in\n    tag_309:\n      0x00\n      swap2\n      dup3\n      mstore\n      0x20\n      dup3\n      keccak256\n      add\n      sload\n        /* \"contracts/tokens/BTSPair.sol\":11013:11021  reserves */\n      0x04\n        /* \"contracts/tokens/BTSPair.sol\":11013:11024  reserves[i] */\n      dup1\n      sload\n      sub(shl(0xa0, 0x01), 0x01)\n        /* \"contracts/tokens/BTSPair.sol\":10948:10957  tokens[i] */\n      swap1\n      swap3\n      and\n      swap4\n      pop\n        /* \"contracts/tokens/BTSPair.sol\":11013:11021  reserves */\n      swap1\n        /* \"contracts/tokens/BTSPair.sol\":11022:11023  i */\n      dup5\n      swap1\n        /* \"contracts/tokens/BTSPair.sol\":11013:11024  reserves[i] */\n      dup2\n      lt\n      tag_312\n      jumpi\n      tag_312\n      tag_251\n      jump\t// in\n    tag_312:\n      swap1\n      0x00\n      mstore\n      keccak256(0x00, 0x20)\n      add\n      sload\n        /* \"contracts/tokens/BTSPair.sol\":10990:11024  uint256 tokenBalance = reserves[i] */\n      swap1\n      pop\n        /* \"contracts/tokens/BTSPair.sol\":11083:11084  0 */\n      0x00\n        /* \"contracts/tokens/BTSPair.sol\":11068:11080  tokenBalance */\n      dup2\n        /* \"contracts/tokens/BTSPair.sol\":11068:11084  tokenBalance > 0 */\n      gt\n        /* \"contracts/tokens/BTSPair.sol\":11064:11346  if (tokenBalance > 0) {... */\n      iszero\n      tag_314\n      jumpi\n        /* \"contracts/tokens/BTSPair.sol\":11128:11171  factoryInstance.getPath(token, wethAddress) */\n      mload(0x40)\n      shl(0xe0, 0xd88e3e3b)\n      dup2\n      mstore\n      sub(shl(0xa0, 0x01), 0x01)\n        /* \"#utility.yul\":11794:11826   */\n      dup4\n      dup2\n      and\n        /* \"contracts/tokens/BTSPair.sol\":11128:11171  factoryInstance.getPath(token, wethAddress) */\n      0x04\n      dup4\n      add\n        /* \"#utility.yul\":11776:11827   */\n      mstore\n        /* \"#utility.yul\":11863:11895   */\n      dup6\n      dup2\n      and\n        /* \"#utility.yul\":11843:11861   */\n      0x24\n      dup4\n      add\n        /* \"#utility.yul\":11836:11896   */\n      mstore\n        /* \"contracts/tokens/BTSPair.sol\":11104:11125  address[] memory path */\n      0x00\n      swap2\n        /* \"contracts/tokens/BTSPair.sol\":11128:11151  factoryInstance.getPath */\n      swap1\n      dup9\n      and\n      swap1\n      0xd88e3e3b\n      swap1\n        /* \"#utility.yul\":11749:11767   */\n      0x44\n      add\n        /* \"contracts/tokens/BTSPair.sol\":11128:11171  factoryInstance.getPath(token, wethAddress) */\n      0x00\n      mload(0x40)\n      dup1\n      dup4\n      sub\n      dup2\n      dup7\n      gas\n      staticcall\n      iszero\n      dup1\n      iszero\n      tag_318\n      jumpi\n      returndatacopy(0x00, 0x00, returndatasize)\n      revert(0x00, returndatasize)\n    tag_318:\n      pop\n      pop\n      pop\n      pop\n      mload(0x40)\n      returndatasize\n      0x00\n      dup3\n      returndatacopy\n      0x1f\n      returndatasize\n      swap1\n      dup2\n      add\n      not(0x1f)\n      and\n      dup3\n      add\n      0x40\n      mstore\n      tag_319\n      swap2\n      swap1\n      dup2\n      add\n      swap1\n      tag_320\n      jump\t// in\n    tag_319:\n        /* \"contracts/tokens/BTSPair.sol\":11104:11171  address[] memory path = factoryInstance.getPath(token, wethAddress) */\n      swap1\n      pop\n        /* \"contracts/tokens/BTSPair.sol\":11207:11220  uint256 share */\n      0x00\n        /* \"contracts/tokens/BTSPair.sol\":11252:11258  supply */\n      dup9\n        /* \"contracts/tokens/BTSPair.sol\":11224:11248  _amountLP * tokenBalance */\n      tag_321\n        /* \"contracts/tokens/BTSPair.sol\":11236:11248  tokenBalance */\n      dup5\n        /* \"contracts/tokens/BTSPair.sol\":11224:11233  _amountLP */\n      dup14\n        /* \"contracts/tokens/BTSPair.sol\":11224:11248  _amountLP * tokenBalance */\n      tag_322\n      jump\t// in\n    tag_321:\n        /* \"contracts/tokens/BTSPair.sol\":11223:11258  (_amountLP * tokenBalance) / supply */\n      tag_323\n      swap2\n      swap1\n      tag_234\n      jump\t// in\n    tag_323:\n        /* \"contracts/tokens/BTSPair.sol\":11289:11331  factoryInstance.getAmountsOut(share, path) */\n      mload(0x40)\n      shl(0xe0, 0xd06ca61f)\n      dup2\n      mstore\n        /* \"contracts/tokens/BTSPair.sol\":11207:11258  uint256 share = (_amountLP * tokenBalance) / supply */\n      swap1\n      swap2\n      pop\n      sub(shl(0xa0, 0x01), 0x01)\n        /* \"contracts/tokens/BTSPair.sol\":11289:11318  factoryInstance.getAmountsOut */\n      dup10\n      and\n      swap1\n      0xd06ca61f\n      swap1\n        /* \"contracts/tokens/BTSPair.sol\":11289:11331  factoryInstance.getAmountsOut(share, path) */\n      tag_324\n      swap1\n        /* \"contracts/tokens/BTSPair.sol\":11207:11258  uint256 share = (_amountLP * tokenBalance) / supply */\n      dup5\n      swap1\n        /* \"contracts/tokens/BTSPair.sol\":11326:11330  path */\n      dup7\n      swap1\n        /* \"contracts/tokens/BTSPair.sol\":11289:11331  factoryInstance.getAmountsOut(share, path) */\n      0x04\n      add\n      tag_325\n      jump\t// in\n    tag_324:\n      0x20\n      mload(0x40)\n      dup1\n      dup4\n      sub\n      dup2\n      dup7\n      gas\n      staticcall\n      iszero\n      dup1\n      iszero\n      tag_327\n      jumpi\n      returndatacopy(0x00, 0x00, returndatasize)\n      revert(0x00, returndatasize)\n    tag_327:\n      pop\n      pop\n      pop\n      pop\n      mload(0x40)\n      returndatasize\n      not(0x1f)\n      0x1f\n      dup3\n      add\n      and\n      dup3\n      add\n      dup1\n      0x40\n      mstore\n      pop\n      dup2\n      add\n      swap1\n      tag_328\n      swap2\n      swap1\n      tag_245\n      jump\t// in\n    tag_328:\n        /* \"contracts/tokens/BTSPair.sol\":11276:11331  amountETH += factoryInstance.getAmountsOut(share, path) */\n      tag_329\n      swap1\n      dup12\n      tag_180\n      jump\t// in\n    tag_329:\n      swap10\n      pop\n        /* \"contracts/tokens/BTSPair.sol\":11086:11346  {... */\n      pop\n      pop\n        /* \"contracts/tokens/BTSPair.sol\":11064:11346  if (tokenBalance > 0) {... */\n    tag_314:\n      pop\n      pop\n        /* \"contracts/tokens/BTSPair.sol\":11387:11390  ++i */\n      0x01\n      add\n        /* \"contracts/tokens/BTSPair.sol\":10876:11415  for (uint256 i = 0; i < reservesLength; ) {... */\n      jump(tag_305)\n    tag_306:\n      pop\n        /* \"contracts/tokens/BTSPair.sol\":10597:11421  {... */\n      pop\n      pop\n      pop\n      pop\n        /* \"contracts/tokens/BTSPair.sol\":10470:11421  function calculateShareETH(uint256 _amountLP)... */\n      swap2\n      swap1\n      pop\n      jump\t// out\n        /* \"@openzeppelin/contracts-upgradeable/token/ERC20/ERC20Upgradeable.sol\":2954:3102  function symbol() public view virtual returns (string memory) {... */\n    tag_113:\n        /* \"@openzeppelin/contracts-upgradeable/token/ERC20/ERC20Upgradeable.sol\":3086:3095  $._symbol */\n      0x52c63247e1f47db19d5ce0460030c497f067ca4cebf71ba98eeadabe20bace04\n        /* \"@openzeppelin/contracts-upgradeable/token/ERC20/ERC20Upgradeable.sol\":3079:3095  return $._symbol */\n      dup1\n      sload\n        /* \"@openzeppelin/contracts-upgradeable/token/ERC20/ERC20Upgradeable.sol\":3001:3014  string memory */\n      0x60\n      swap2\n      mload(0x00)\n      codecopy(0x00, data_3874827173e8df9f34323b12b251d1d3c53926ce129e30a0d69f1d47c277041b, 0x20)\n      mload(0x00)\n      swap1\n      0x00\n      mstore\n        /* \"@openzeppelin/contracts-upgradeable/token/ERC20/ERC20Upgradeable.sol\":2064:2084  ERC20StorageLocation */\n      swap2\n        /* \"@openzeppelin/contracts-upgradeable/token/ERC20/ERC20Upgradeable.sol\":3079:3095  return $._symbol */\n      tag_169\n      swap1\n      tag_170\n      jump\t// in\n        /* \"contracts/tokens/BTSPair.sol\":12647:13315  function getTokenAndUserBal(address _user)... */\n    tag_117:\n        /* \"contracts/tokens/BTSPair.sol\":1920:1942  reentrancyGuardEntered */\n      sload(0x02)\n        /* \"contracts/tokens/BTSPair.sol\":12757:12773  uint256[] memory */\n      0x60\n      swap1\n        /* \"contracts/tokens/BTSPair.sol\":12787:12794  uint256 */\n      0x00\n      swap1\n      dup2\n      swap1\n        /* \"contracts/tokens/BTSPair.sol\":1920:1942  reentrancyGuardEntered */\n      0xff\n      and\n        /* \"contracts/tokens/BTSPair.sol\":1917:1966  if(reentrancyGuardEntered) revert ReentrantCall() */\n      iszero\n      tag_338\n      jumpi\n        /* \"contracts/tokens/BTSPair.sol\":1951:1966  ReentrantCall() */\n      mload(0x40)\n      shl(0xe3, 0x06fda65d)\n      dup2\n      mstore\n      0x04\n      add\n      mload(0x40)\n      dup1\n      swap2\n      sub\n      swap1\n      revert\n        /* \"contracts/tokens/BTSPair.sol\":1917:1966  if(reentrancyGuardEntered) revert ReentrantCall() */\n    tag_338:\n        /* \"contracts/tokens/BTSPair.sol\":12871:12877  tokens */\n      0x03\n        /* \"contracts/tokens/BTSPair.sol\":12871:12884  tokens.length */\n      sload\n        /* \"contracts/tokens/BTSPair.sol\":12848:12868  uint256 tokensLength */\n      0x00\n        /* \"contracts/tokens/BTSPair.sol\":12871:12884  tokens.length */\n      dup2\n      sub(shl(0x40, 0x01), 0x01)\n        /* \"contracts/tokens/BTSPair.sol\":12927:12954  new uint256[](tokensLength) */\n      dup2\n      gt\n      iszero\n      tag_341\n      jumpi\n      tag_341\n      tag_223\n      jump\t// in\n    tag_341:\n      mload(0x40)\n      swap1\n      dup1\n      dup3\n      mstore\n      dup1\n      0x20\n      mul\n      0x20\n      add\n      dup3\n      add\n      0x40\n      mstore\n      dup1\n      iszero\n      tag_342\n      jumpi\n      dup2\n      0x20\n      add\n      0x20\n      dup3\n      mul\n      dup1\n      calldatasize\n      dup4\n      calldatacopy\n      add\n      swap1\n      pop\n    tag_342:\n      pop\n        /* \"contracts/tokens/BTSPair.sol\":12898:12954  uint256[] memory _tokenBal = new uint256[](tokensLength) */\n      swap1\n      pop\n        /* \"contracts/tokens/BTSPair.sol\":12986:12995  uint256 i */\n      0x00\n        /* \"contracts/tokens/BTSPair.sol\":12981:13153  for (uint256 i = 0; i < tokensLength; ) {... */\n    tag_343:\n        /* \"contracts/tokens/BTSPair.sol\":13005:13017  tokensLength */\n      dup3\n        /* \"contracts/tokens/BTSPair.sol\":13001:13002  i */\n      dup2\n        /* \"contracts/tokens/BTSPair.sol\":13001:13017  i < tokensLength */\n      lt\n        /* \"contracts/tokens/BTSPair.sol\":12981:13153  for (uint256 i = 0; i < tokensLength; ) {... */\n      iszero\n      tag_344\n      jumpi\n        /* \"contracts/tokens/BTSPair.sol\":13054:13062  reserves */\n      0x04\n        /* \"contracts/tokens/BTSPair.sol\":13063:13064  i */\n      dup2\n        /* \"contracts/tokens/BTSPair.sol\":13054:13065  reserves[i] */\n      dup2\n      sload\n      dup2\n      lt\n      tag_347\n      jumpi\n      tag_347\n      tag_251\n      jump\t// in\n    tag_347:\n      swap1\n      0x00\n      mstore\n      keccak256(0x00, 0x20)\n      add\n      sload\n        /* \"contracts/tokens/BTSPair.sol\":13039:13048  _tokenBal */\n      dup3\n        /* \"contracts/tokens/BTSPair.sol\":13049:13050  i */\n      dup3\n        /* \"contracts/tokens/BTSPair.sol\":13039:13051  _tokenBal[i] */\n      dup2\n      mload\n      dup2\n      lt\n      tag_350\n      jumpi\n      tag_350\n      tag_251\n      jump\t// in\n    tag_350:\n      0x20\n      swap1\n      dup2\n      mul\n      swap2\n      swap1\n      swap2\n      add\n      add\n        /* \"contracts/tokens/BTSPair.sol\":13039:13065  _tokenBal[i] = reserves[i] */\n      mstore\n        /* \"contracts/tokens/BTSPair.sol\":13116:13119  ++i */\n      0x01\n      add\n        /* \"contracts/tokens/BTSPair.sol\":12981:13153  for (uint256 i = 0; i < tokensLength; ) {... */\n      jump(tag_343)\n    tag_344:\n      pop\n        /* \"contracts/tokens/BTSPair.sol\":13179:13194  uint256 _supply */\n      0x00\n        /* \"contracts/tokens/BTSPair.sol\":13197:13210  totalSupply() */\n      tag_351\n      mload(0x00)\n      codecopy(0x00, data_5c46c655e238aa25f8cbb2dc253afd95ec6fe3438bb2613b924ec6dfbcfd524d, 0x20)\n      mload(0x00)\n      swap1\n      0x00\n      mstore\n        /* \"@openzeppelin/contracts-upgradeable/token/ERC20/ERC20Upgradeable.sol\":4008:4022  $._totalSupply */\n      sload\n      swap1\n        /* \"@openzeppelin/contracts-upgradeable/token/ERC20/ERC20Upgradeable.sol\":3877:4029  function totalSupply() public view virtual returns (uint256) {... */\n      jump\n        /* \"contracts/tokens/BTSPair.sol\":13197:13210  totalSupply() */\n    tag_351:\n        /* \"contracts/tokens/BTSPair.sol\":13179:13210  uint256 _supply = totalSupply() */\n      swap1\n      pop\n        /* \"contracts/tokens/BTSPair.sol\":13224:13239  uint256 _userLP */\n      0x00\n        /* \"contracts/tokens/BTSPair.sol\":13242:13258  balanceOf(_user) */\n      tag_352\n        /* \"contracts/tokens/BTSPair.sol\":13252:13257  _user */\n      dup9\n        /* \"contracts/tokens/BTSPair.sol\":13242:13251  balanceOf */\n      tag_92\n        /* \"contracts/tokens/BTSPair.sol\":13242:13258  balanceOf(_user) */\n      jump\t// in\n    tag_352:\n        /* \"contracts/tokens/BTSPair.sol\":13280:13289  _tokenBal */\n      swap3\n      swap9\n        /* \"contracts/tokens/BTSPair.sol\":13291:13298  _supply */\n      swap2\n      swap8\n      pop\n        /* \"contracts/tokens/BTSPair.sol\":13280:13289  _tokenBal */\n      swap2\n      swap6\n      pop\n        /* \"contracts/tokens/BTSPair.sol\":12647:13315  function getTokenAndUserBal(address _user)... */\n      swap4\n      pop\n      pop\n      pop\n      pop\n      jump\t// out\n        /* \"contracts/tokens/BTSPair.sol\":4988:5485  function transferTokensToOwner() external onlyOwner {... */\n    tag_121:\n        /* \"@openzeppelin/contracts-upgradeable/access/OwnableUpgradeable.sol\":2334:2347  _checkOwner() */\n      tag_354\n        /* \"@openzeppelin/contracts-upgradeable/access/OwnableUpgradeable.sol\":2334:2345  _checkOwner */\n      tag_257\n        /* \"@openzeppelin/contracts-upgradeable/access/OwnableUpgradeable.sol\":2334:2347  _checkOwner() */\n      jump\t// in\n    tag_354:\n        /* \"contracts/tokens/BTSPair.sol\":5050:5070  address ownerAddress */\n      0x00\n        /* \"contracts/tokens/BTSPair.sol\":5073:5080  owner() */\n      tag_356\n        /* \"contracts/tokens/BTSPair.sol\":5073:5078  owner */\n      tag_102\n        /* \"contracts/tokens/BTSPair.sol\":5073:5080  owner() */\n      jump\t// in\n    tag_356:\n        /* \"contracts/tokens/BTSPair.sol\":5113:5119  tokens */\n      0x03\n        /* \"contracts/tokens/BTSPair.sol\":5113:5126  tokens.length */\n      sload\n        /* \"contracts/tokens/BTSPair.sol\":5050:5080  address ownerAddress = owner() */\n      swap1\n      swap2\n      pop\n        /* \"contracts/tokens/BTSPair.sol\":5090:5110  uint256 tokensLength */\n      0x00\n        /* \"contracts/tokens/BTSPair.sol\":5136:5479  for (uint256 i = 0; i < tokensLength; ) {... */\n    tag_357:\n        /* \"contracts/tokens/BTSPair.sol\":5160:5172  tokensLength */\n      dup2\n        /* \"contracts/tokens/BTSPair.sol\":5156:5157  i */\n      dup2\n        /* \"contracts/tokens/BTSPair.sol\":5156:5172  i < tokensLength */\n      lt\n        /* \"contracts/tokens/BTSPair.sol\":5136:5479  for (uint256 i = 0; i < tokensLength; ) {... */\n      iszero\n      tag_358\n      jumpi\n        /* \"contracts/tokens/BTSPair.sol\":5190:5203  address token */\n      0x00\n        /* \"contracts/tokens/BTSPair.sol\":5206:5212  tokens */\n      0x03\n        /* \"contracts/tokens/BTSPair.sol\":5213:5214  i */\n      dup3\n        /* \"contracts/tokens/BTSPair.sol\":5206:5215  tokens[i] */\n      dup2\n      sload\n      dup2\n      lt\n      tag_361\n      jumpi\n      tag_361\n      tag_251\n      jump\t// in\n    tag_361:\n      0x00\n      swap2\n      dup3\n      mstore\n      0x20\n      dup3\n      keccak256\n      add\n      sload\n        /* \"contracts/tokens/BTSPair.sol\":5274:5282  reserves */\n      0x04\n        /* \"contracts/tokens/BTSPair.sol\":5274:5285  reserves[i] */\n      dup1\n      sload\n      sub(shl(0xa0, 0x01), 0x01)\n        /* \"contracts/tokens/BTSPair.sol\":5206:5215  tokens[i] */\n      swap1\n      swap3\n      and\n      swap4\n      pop\n        /* \"contracts/tokens/BTSPair.sol\":5274:5282  reserves */\n      swap1\n        /* \"contracts/tokens/BTSPair.sol\":5283:5284  i */\n      dup5\n      swap1\n        /* \"contracts/tokens/BTSPair.sol\":5274:5285  reserves[i] */\n      dup2\n      lt\n      tag_364\n      jumpi\n      tag_364\n      tag_251\n      jump\t// in\n    tag_364:\n      swap1\n      0x00\n      mstore\n      keccak256(0x00, 0x20)\n      add\n      sload\n        /* \"contracts/tokens/BTSPair.sol\":5256:5285  uint256 balance = reserves[i] */\n      swap1\n      pop\n        /* \"contracts/tokens/BTSPair.sol\":5315:5316  0 */\n      0x00\n        /* \"contracts/tokens/BTSPair.sol\":5305:5312  balance */\n      dup2\n        /* \"contracts/tokens/BTSPair.sol\":5305:5316  balance > 0 */\n      gt\n        /* \"contracts/tokens/BTSPair.sol\":5301:5437  if (balance > 0) {... */\n      iszero\n      tag_367\n      jumpi\n        /* \"contracts/tokens/BTSPair.sol\":5336:5396  IERC20Upgradeable(token).safeTransfer(ownerAddress, balance) */\n      tag_367\n      sub(shl(0xa0, 0x01), 0x01)\n        /* \"contracts/tokens/BTSPair.sol\":5336:5373  IERC20Upgradeable(token).safeTransfer */\n      dup4\n      and\n        /* \"contracts/tokens/BTSPair.sol\":5374:5386  ownerAddress */\n      dup7\n        /* \"contracts/tokens/BTSPair.sol\":5388:5395  balance */\n      dup4\n        /* \"contracts/tokens/BTSPair.sol\":5336:5373  IERC20Upgradeable(token).safeTransfer */\n      tag_281\n        /* \"contracts/tokens/BTSPair.sol\":5336:5396  IERC20Upgradeable(token).safeTransfer(ownerAddress, balance) */\n      jump\t// in\n    tag_367:\n      pop\n      pop\n        /* \"contracts/tokens/BTSPair.sol\":5463:5466  ++i */\n      0x01\n      add\n        /* \"contracts/tokens/BTSPair.sol\":5136:5479  for (uint256 i = 0; i < tokensLength; ) {... */\n      jump(tag_357)\n    tag_358:\n      pop\n        /* \"contracts/tokens/BTSPair.sol\":5040:5485  {... */\n      pop\n      pop\n        /* \"contracts/tokens/BTSPair.sol\":4988:5485  function transferTokensToOwner() external onlyOwner {... */\n      jump\t// out\n        /* \"@openzeppelin/contracts-upgradeable/token/ERC20/ERC20Upgradeable.sol\":4453:4631  function transfer(address to, uint256 value) public virtual returns (bool) {... */\n    tag_124:\n        /* \"@openzeppelin/contracts-upgradeable/token/ERC20/ERC20Upgradeable.sol\":4522:4526  bool */\n      0x00\n        /* \"@openzeppelin/contracts-upgradeable/utils/ContextUpgradeable.sol\":966:976  msg.sender */\n      caller\n        /* \"@openzeppelin/contracts-upgradeable/token/ERC20/ERC20Upgradeable.sol\":4576:4603  _transfer(owner, to, value) */\n      tag_184\n        /* \"@openzeppelin/contracts-upgradeable/utils/ContextUpgradeable.sol\":966:976  msg.sender */\n      dup2\n        /* \"@openzeppelin/contracts-upgradeable/token/ERC20/ERC20Upgradeable.sol\":4593:4595  to */\n      dup6\n        /* \"@openzeppelin/contracts-upgradeable/token/ERC20/ERC20Upgradeable.sol\":4597:4602  value */\n      dup6\n        /* \"@openzeppelin/contracts-upgradeable/token/ERC20/ERC20Upgradeable.sol\":4576:4585  _transfer */\n      tag_193\n        /* \"@openzeppelin/contracts-upgradeable/token/ERC20/ERC20Upgradeable.sol\":4576:4603  _transfer(owner, to, value) */\n      jump\t// in\n        /* \"contracts/tokens/BTSPair.sol\":9131:9529  function distMgmtFee() public {... */\n    tag_127:\n        /* \"contracts/tokens/BTSPair.sol\":9172:9186  uint256 months */\n      0x00\n        /* \"contracts/tokens/BTSPair.sol\":9188:9202  uint256 supply */\n      0x00\n        /* \"contracts/tokens/BTSPair.sol\":9204:9221  uint256 feeAmount */\n      0x00\n        /* \"contracts/tokens/BTSPair.sol\":9225:9233  calFee() */\n      tag_372\n        /* \"contracts/tokens/BTSPair.sol\":9225:9231  calFee */\n      tag_80\n        /* \"contracts/tokens/BTSPair.sol\":9225:9233  calFee() */\n      jump\t// in\n    tag_372:\n        /* \"contracts/tokens/BTSPair.sol\":9171:9233  (uint256 months, uint256 supply, uint256 feeAmount) = calFee() */\n      swap3\n      pop\n      swap3\n      pop\n      swap3\n      pop\n        /* \"contracts/tokens/BTSPair.sol\":9246:9252  months */\n      dup3\n        /* \"contracts/tokens/BTSPair.sol\":9256:9257  0 */\n      0x00\n        /* \"contracts/tokens/BTSPair.sol\":9246:9257  months == 0 */\n      sub\n        /* \"contracts/tokens/BTSPair.sol\":9243:9266  if(months == 0) return; */\n      tag_373\n      jumpi\n        /* \"contracts/tokens/BTSPair.sol\":9259:9266  return; */\n      pop\n      pop\n      pop\n        /* \"contracts/tokens/BTSPair.sol\":9131:9529  function distMgmtFee() public {... */\n      jump\t// out\n        /* \"contracts/tokens/BTSPair.sol\":9243:9266  if(months == 0) return; */\n    tag_373:\n        /* \"contracts/tokens/BTSPair.sol\":9326:9339  feeAmount > 0 */\n      dup1\n      iszero\n        /* \"contracts/tokens/BTSPair.sol\":9322:9366  if (feeAmount > 0) _mint(owner(), feeAmount) */\n      tag_375\n      jumpi\n        /* \"contracts/tokens/BTSPair.sol\":9341:9366  _mint(owner(), feeAmount) */\n      tag_375\n        /* \"contracts/tokens/BTSPair.sol\":9347:9354  owner() */\n      tag_376\n        /* \"contracts/tokens/BTSPair.sol\":9347:9352  owner */\n      tag_102\n        /* \"contracts/tokens/BTSPair.sol\":9347:9354  owner() */\n      jump\t// in\n    tag_376:\n        /* \"contracts/tokens/BTSPair.sol\":9356:9365  feeAmount */\n      dup3\n        /* \"contracts/tokens/BTSPair.sol\":9341:9346  _mint */\n      tag_377\n        /* \"contracts/tokens/BTSPair.sol\":9341:9366  _mint(owner(), feeAmount) */\n      jump\t// in\n    tag_375:\n        /* \"contracts/tokens/BTSPair.sol\":9429:9445  months * 30 days */\n      tag_378\n        /* \"contracts/tokens/BTSPair.sol\":9429:9435  months */\n      dup4\n        /* \"contracts/tokens/BTSPair.sol\":9438:9445  30 days */\n      0x278d00\n        /* \"contracts/tokens/BTSPair.sol\":9429:9445  months * 30 days */\n      tag_322\n      jump\t// in\n    tag_378:\n        /* \"contracts/tokens/BTSPair.sol\":9412:9425  lastAccruedAt */\n      0x01\n      0x00\n        /* \"contracts/tokens/BTSPair.sol\":9412:9445  lastAccruedAt += months * 30 days */\n      dup3\n      dup3\n      sload\n      tag_379\n      swap2\n      swap1\n      tag_180\n      jump\t// in\n    tag_379:\n      swap1\n      swap2\n      sstore\n      pop\n        /* \"contracts/tokens/BTSPair.sol\":9472:9479  owner() */\n      tag_380\n      swap1\n      pop\n        /* \"contracts/tokens/BTSPair.sol\":9472:9477  owner */\n      tag_102\n        /* \"contracts/tokens/BTSPair.sol\":9472:9479  owner() */\n      jump\t// in\n    tag_380:\n      sub(shl(0xa0, 0x01), 0x01)\n        /* \"contracts/tokens/BTSPair.sol\":9461:9522  feeAccrued(owner(), months, supply, feeAmount, lastAccruedAt) */\n      and\n      0x06ef86d1d001d3f4d5d79d6a6647502b17af442209a78bbbafb8867cb5cf6fb7\n        /* \"contracts/tokens/BTSPair.sol\":9481:9487  months */\n      dup5\n        /* \"contracts/tokens/BTSPair.sol\":9489:9495  supply */\n      dup5\n        /* \"contracts/tokens/BTSPair.sol\":9497:9506  feeAmount */\n      dup5\n        /* \"contracts/tokens/BTSPair.sol\":9508:9521  lastAccruedAt */\n      sload(0x01)\n        /* \"contracts/tokens/BTSPair.sol\":9461:9522  feeAccrued(owner(), months, supply, feeAmount, lastAccruedAt) */\n      mload(0x40)\n      tag_381\n      swap5\n      swap4\n      swap3\n      swap2\n      swap1\n        /* \"#utility.yul\":13654:13679   */\n      swap4\n      dup5\n      mstore\n        /* \"#utility.yul\":13710:13712   */\n      0x20\n        /* \"#utility.yul\":13695:13713   */\n      dup5\n      add\n        /* \"#utility.yul\":13688:13722   */\n      swap3\n      swap1\n      swap3\n      mstore\n        /* \"#utility.yul\":13753:13755   */\n      0x40\n        /* \"#utility.yul\":13738:13756   */\n      dup4\n      add\n        /* \"#utility.yul\":13731:13765   */\n      mstore\n        /* \"#utility.yul\":13796:13798   */\n      0x60\n        /* \"#utility.yul\":13781:13799   */\n      dup3\n      add\n        /* \"#utility.yul\":13774:13808   */\n      mstore\n        /* \"#utility.yul\":13641:13644   */\n      0x80\n        /* \"#utility.yul\":13626:13645   */\n      add\n      swap1\n        /* \"#utility.yul\":13423:13814   */\n      jump\n        /* \"contracts/tokens/BTSPair.sol\":9461:9522  feeAccrued(owner(), months, supply, feeAmount, lastAccruedAt) */\n    tag_381:\n      mload(0x40)\n      dup1\n      swap2\n      sub\n      swap1\n      log2\n        /* \"contracts/tokens/BTSPair.sol\":9161:9529  {... */\n      pop\n      pop\n      pop\n        /* \"contracts/tokens/BTSPair.sol\":9131:9529  function distMgmtFee() public {... */\n      jump\t// out\n        /* \"contracts/tokens/BTSPair.sol\":8662:8776  function setReentrancyGuardStatus(bool _state) external onlyOwner {... */\n    tag_131:\n        /* \"@openzeppelin/contracts-upgradeable/access/OwnableUpgradeable.sol\":2334:2347  _checkOwner() */\n      tag_384\n        /* \"@openzeppelin/contracts-upgradeable/access/OwnableUpgradeable.sol\":2334:2345  _checkOwner */\n      tag_257\n        /* \"@openzeppelin/contracts-upgradeable/access/OwnableUpgradeable.sol\":2334:2347  _checkOwner() */\n      jump\t// in\n    tag_384:\n        /* \"contracts/tokens/BTSPair.sol\":8738:8760  reentrancyGuardEntered */\n      0x02\n        /* \"contracts/tokens/BTSPair.sol\":8738:8769  reentrancyGuardEntered = _state */\n      dup1\n      sload\n      not(0xff)\n      and\n      swap2\n      iszero\n      iszero\n      swap2\n      swap1\n      swap2\n      or\n      swap1\n      sstore\n        /* \"contracts/tokens/BTSPair.sol\":8662:8776  function setReentrancyGuardStatus(bool _state) external onlyOwner {... */\n      jump\t// out\n        /* \"contracts/tokens/BTSPair.sol\":11721:12283  function calculateShareTokens(uint256 _amountLP)... */\n    tag_140:\n        /* \"contracts/tokens/BTSPair.sol\":1920:1942  reentrancyGuardEntered */\n      sload(0x02)\n        /* \"contracts/tokens/BTSPair.sol\":11828:11857  uint256[] memory amountTokens */\n      0x60\n      swap1\n        /* \"contracts/tokens/BTSPair.sol\":1920:1942  reentrancyGuardEntered */\n      0xff\n      and\n        /* \"contracts/tokens/BTSPair.sol\":1917:1966  if(reentrancyGuardEntered) revert ReentrantCall() */\n      iszero\n      tag_387\n      jumpi\n        /* \"contracts/tokens/BTSPair.sol\":1951:1966  ReentrantCall() */\n      mload(0x40)\n      shl(0xe3, 0x06fda65d)\n      dup2\n      mstore\n      0x04\n      add\n      mload(0x40)\n      dup1\n      swap2\n      sub\n      swap1\n      revert\n        /* \"contracts/tokens/BTSPair.sol\":1917:1966  if(reentrancyGuardEntered) revert ReentrantCall() */\n    tag_387:\n        /* \"contracts/tokens/BTSPair.sol\":11873:11887  uint256 supply */\n      0x00\n        /* \"contracts/tokens/BTSPair.sol\":11890:11903  totalSupply() */\n      tag_389\n      mload(0x00)\n      codecopy(0x00, data_5c46c655e238aa25f8cbb2dc253afd95ec6fe3438bb2613b924ec6dfbcfd524d, 0x20)\n      mload(0x00)\n      swap1\n      0x00\n      mstore\n        /* \"@openzeppelin/contracts-upgradeable/token/ERC20/ERC20Upgradeable.sol\":4008:4022  $._totalSupply */\n      sload\n      swap1\n        /* \"@openzeppelin/contracts-upgradeable/token/ERC20/ERC20Upgradeable.sol\":3877:4029  function totalSupply() public view virtual returns (uint256) {... */\n      jump\n        /* \"contracts/tokens/BTSPair.sol\":11890:11903  totalSupply() */\n    tag_389:\n        /* \"contracts/tokens/BTSPair.sol\":11967:11973  tokens */\n      0x03\n        /* \"contracts/tokens/BTSPair.sol\":11967:11980  tokens.length */\n      sload\n        /* \"contracts/tokens/BTSPair.sol\":11873:11903  uint256 supply = totalSupply() */\n      swap1\n      swap2\n      pop\n      sub(shl(0x40, 0x01), 0x01)\n        /* \"contracts/tokens/BTSPair.sol\":11953:11981  new uint256[](tokens.length) */\n      dup2\n      gt\n      iszero\n      tag_391\n      jumpi\n      tag_391\n      tag_223\n      jump\t// in\n    tag_391:\n      mload(0x40)\n      swap1\n      dup1\n      dup3\n      mstore\n      dup1\n      0x20\n      mul\n      0x20\n      add\n      dup3\n      add\n      0x40\n      mstore\n      dup1\n      iszero\n      tag_392\n      jumpi\n      dup2\n      0x20\n      add\n      0x20\n      dup3\n      mul\n      dup1\n      calldatasize\n      dup4\n      calldatacopy\n      add\n      swap1\n      pop\n    tag_392:\n      pop\n        /* \"contracts/tokens/BTSPair.sol\":11938:11981  amountTokens = new uint256[](tokens.length) */\n      swap2\n      pop\n        /* \"contracts/tokens/BTSPair.sol\":11995:12001  supply */\n      dup1\n        /* \"contracts/tokens/BTSPair.sol\":12005:12006  0 */\n      0x00\n        /* \"contracts/tokens/BTSPair.sol\":11995:12006  supply == 0 */\n      sub\n        /* \"contracts/tokens/BTSPair.sol\":11991:12027  if (supply == 0) return amountTokens */\n      tag_393\n      jumpi\n        /* \"contracts/tokens/BTSPair.sol\":12008:12027  return amountTokens */\n      pop\n        /* \"contracts/tokens/BTSPair.sol\":14092:14260  function getTokenAddress(uint256 _index)... */\n      swap2\n      swap1\n      pop\n      jump\t// out\n        /* \"contracts/tokens/BTSPair.sol\":11991:12027  if (supply == 0) return amountTokens */\n    tag_393:\n        /* \"contracts/tokens/BTSPair.sol\":12051:12060  uint256 i */\n      0x00\n        /* \"contracts/tokens/BTSPair.sol\":12046:12277  for (uint256 i = 0; i < reserves.length; ) {... */\n    tag_394:\n        /* \"contracts/tokens/BTSPair.sol\":12070:12078  reserves */\n      0x04\n        /* \"contracts/tokens/BTSPair.sol\":12070:12085  reserves.length */\n      sload\n        /* \"contracts/tokens/BTSPair.sol\":12066:12085  i < reserves.length */\n      dup2\n      lt\n        /* \"contracts/tokens/BTSPair.sol\":12046:12277  for (uint256 i = 0; i < reserves.length; ) {... */\n      iszero\n      tag_395\n      jumpi\n        /* \"contracts/tokens/BTSPair.sol\":12103:12118  uint256 balance */\n      0x00\n        /* \"contracts/tokens/BTSPair.sol\":12121:12129  reserves */\n      0x04\n        /* \"contracts/tokens/BTSPair.sol\":12130:12131  i */\n      dup3\n        /* \"contracts/tokens/BTSPair.sol\":12121:12132  reserves[i] */\n      dup2\n      sload\n      dup2\n      lt\n      tag_398\n      jumpi\n      tag_398\n      tag_251\n      jump\t// in\n    tag_398:\n      swap1\n      0x00\n      mstore\n      keccak256(0x00, 0x20)\n      add\n      sload\n        /* \"contracts/tokens/BTSPair.sol\":12103:12132  uint256 balance = reserves[i] */\n      swap1\n      pop\n        /* \"contracts/tokens/BTSPair.sol\":12188:12194  supply */\n      dup3\n        /* \"contracts/tokens/BTSPair.sol\":12177:12184  balance */\n      dup2\n        /* \"contracts/tokens/BTSPair.sol\":12165:12174  _amountLP */\n      dup7\n        /* \"contracts/tokens/BTSPair.sol\":12165:12184  _amountLP * balance */\n      tag_400\n      swap2\n      swap1\n      tag_322\n      jump\t// in\n    tag_400:\n        /* \"contracts/tokens/BTSPair.sol\":12164:12194  (_amountLP * balance) / supply */\n      tag_401\n      swap2\n      swap1\n      tag_234\n      jump\t// in\n    tag_401:\n        /* \"contracts/tokens/BTSPair.sol\":12146:12158  amountTokens */\n      dup5\n        /* \"contracts/tokens/BTSPair.sol\":12159:12160  i */\n      dup4\n        /* \"contracts/tokens/BTSPair.sol\":12146:12161  amountTokens[i] */\n      dup2\n      mload\n      dup2\n      lt\n      tag_403\n      jumpi\n      tag_403\n      tag_251\n      jump\t// in\n    tag_403:\n      0x20\n      swap1\n      dup2\n      mul\n      swap2\n      swap1\n      swap2\n      add\n      add\n        /* \"contracts/tokens/BTSPair.sol\":12146:12194  amountTokens[i] = (_amountLP * balance) / supply */\n      mstore\n      pop\n        /* \"contracts/tokens/BTSPair.sol\":12249:12252  ++i */\n      0x01\n      add\n        /* \"contracts/tokens/BTSPair.sol\":12046:12277  for (uint256 i = 0; i < reserves.length; ) {... */\n      jump(tag_394)\n    tag_395:\n      pop\n        /* \"contracts/tokens/BTSPair.sol\":11863:12283  {... */\n      pop\n        /* \"contracts/tokens/BTSPair.sol\":11721:12283  function calculateShareTokens(uint256 _amountLP)... */\n      swap2\n      swap1\n      pop\n      jump\t// out\n        /* \"@openzeppelin/contracts-upgradeable/token/ERC20/ERC20Upgradeable.sol\":4689:4884  function allowance(address owner, address spender) public view virtual returns (uint256) {... */\n    tag_145:\n      sub(shl(0xa0, 0x01), 0x01)\n        /* \"@openzeppelin/contracts-upgradeable/token/ERC20/ERC20Upgradeable.sol\":4848:4868  $._allowances[owner] */\n      swap2\n      dup3\n      and\n        /* \"@openzeppelin/contracts-upgradeable/token/ERC20/ERC20Upgradeable.sol\":4769:4776  uint256 */\n      0x00\n        /* \"@openzeppelin/contracts-upgradeable/token/ERC20/ERC20Upgradeable.sol\":4848:4868  $._allowances[owner] */\n      swap1\n      dup2\n      mstore\n        /* \"@openzeppelin/contracts-upgradeable/token/ERC20/ERC20Upgradeable.sol\":4848:4861  $._allowances */\n      0x52c63247e1f47db19d5ce0460030c497f067ca4cebf71ba98eeadabe20bace01\n        /* \"@openzeppelin/contracts-upgradeable/token/ERC20/ERC20Upgradeable.sol\":4848:4868  $._allowances[owner] */\n      0x20\n      swap1\n      dup2\n      mstore\n      0x40\n      dup1\n      dup4\n      keccak256\n        /* \"@openzeppelin/contracts-upgradeable/token/ERC20/ERC20Upgradeable.sol\":4848:4877  $._allowances[owner][spender] */\n      swap4\n      swap1\n      swap5\n      and\n      dup3\n      mstore\n      swap2\n      swap1\n      swap2\n      mstore\n      keccak256\n      sload\n      swap1\n        /* \"@openzeppelin/contracts-upgradeable/token/ERC20/ERC20Upgradeable.sol\":4689:4884  function allowance(address owner, address spender) public view virtual returns (uint256) {... */\n      jump\t// out\n        /* \"contracts/tokens/BTSPair.sol\":5706:5937  function updateTokens(address[] calldata _tokens) external onlyOwner {... */\n    tag_150:\n        /* \"@openzeppelin/contracts-upgradeable/access/OwnableUpgradeable.sol\":2334:2347  _checkOwner() */\n      tag_407\n        /* \"@openzeppelin/contracts-upgradeable/access/OwnableUpgradeable.sol\":2334:2345  _checkOwner */\n      tag_257\n        /* \"@openzeppelin/contracts-upgradeable/access/OwnableUpgradeable.sol\":2334:2347  _checkOwner() */\n      jump\t// in\n    tag_407:\n        /* \"contracts/tokens/BTSPair.sol\":5807:5808  0 */\n      0x00\n        /* \"contracts/tokens/BTSPair.sol\":5789:5808  _tokens.length == 0 */\n      dup2\n      swap1\n      sub\n        /* \"contracts/tokens/BTSPair.sol\":5785:5831  if (_tokens.length == 0) revert InvalidToken() */\n      tag_409\n      jumpi\n        /* \"contracts/tokens/BTSPair.sol\":5817:5831  InvalidToken() */\n      mload(0x40)\n      shl(0xe0, 0xc1ab6dc1)\n      dup2\n      mstore\n      0x04\n      add\n      mload(0x40)\n      dup1\n      swap2\n      sub\n      swap1\n      revert\n        /* \"contracts/tokens/BTSPair.sol\":5785:5831  if (_tokens.length == 0) revert InvalidToken() */\n    tag_409:\n        /* \"contracts/tokens/BTSPair.sol\":5842:5858  tokens = _tokens */\n      tag_410\n        /* \"contracts/tokens/BTSPair.sol\":5842:5848  tokens */\n      0x03\n        /* \"contracts/tokens/BTSPair.sol\":5851:5858  _tokens */\n      dup4\n      dup4\n        /* \"contracts/tokens/BTSPair.sol\":5842:5858  tokens = _tokens */\n      tag_220\n      jump\t// in\n    tag_410:\n      pop\n        /* \"contracts/tokens/BTSPair.sol\":5868:5893  _updateRebalanceReserve() */\n      tag_411\n        /* \"contracts/tokens/BTSPair.sol\":5868:5891  _updateRebalanceReserve */\n      tag_412\n        /* \"contracts/tokens/BTSPair.sol\":5868:5893  _updateRebalanceReserve() */\n      jump\t// in\n    tag_411:\n        /* \"contracts/tokens/BTSPair.sol\":5908:5930  TokensUpdated(_tokens) */\n      0x3ca096a4c913a6f222a557151d17832dddab787e6ddf59063cab45e15b9a9fac\n        /* \"contracts/tokens/BTSPair.sol\":5922:5929  _tokens */\n      dup3\n      dup3\n        /* \"contracts/tokens/BTSPair.sol\":5908:5930  TokensUpdated(_tokens) */\n      mload(0x40)\n      tag_413\n      swap3\n      swap2\n      swap1\n      tag_414\n      jump\t// in\n    tag_413:\n      mload(0x40)\n      dup1\n      swap2\n      sub\n      swap1\n      log1\n        /* \"contracts/tokens/BTSPair.sol\":5706:5937  function updateTokens(address[] calldata _tokens) external onlyOwner {... */\n      pop\n      pop\n      jump\t// out\n        /* \"contracts/tokens/BTSPair.sol\":6236:7270  function mint(address _to, uint256[] calldata amounts)... */\n    tag_154:\n        /* \"contracts/tokens/BTSPair.sol\":6343:6360  uint256 liquidity */\n      0x00\n        /* \"@openzeppelin/contracts-upgradeable/access/OwnableUpgradeable.sol\":2334:2347  _checkOwner() */\n      tag_416\n        /* \"@openzeppelin/contracts-upgradeable/access/OwnableUpgradeable.sol\":2334:2345  _checkOwner */\n      tag_257\n        /* \"@openzeppelin/contracts-upgradeable/access/OwnableUpgradeable.sol\":2334:2347  _checkOwner() */\n      jump\t// in\n    tag_416:\n      sub(shl(0xa0, 0x01), 0x01)\n        /* \"contracts/tokens/BTSPair.sol\":6380:6397  _to == address(0) */\n      dup5\n      and\n        /* \"contracts/tokens/BTSPair.sol\":6376:6424  if (_to == address(0)) revert InvalidRecipient() */\n      tag_418\n      jumpi\n        /* \"contracts/tokens/BTSPair.sol\":6406:6424  InvalidRecipient() */\n      mload(0x40)\n      shl(0xe1, 0x4e469669)\n      dup2\n      mstore\n      0x04\n      add\n      mload(0x40)\n      dup1\n      swap2\n      sub\n      swap1\n      revert\n        /* \"contracts/tokens/BTSPair.sol\":6376:6424  if (_to == address(0)) revert InvalidRecipient() */\n    tag_418:\n        /* \"contracts/tokens/BTSPair.sol\":6469:6493  IFactory factoryInstance */\n      0x00\n        /* \"contracts/tokens/BTSPair.sol\":15902:15909  factory */\n      dup1\n      sload\n      sub(shl(0xa0, 0x01), 0x01)\n      and\n        /* \"contracts/tokens/BTSPair.sol\":6469:6506  IFactory factoryInstance = _factory() */\n      swap1\n      pop\n        /* \"contracts/tokens/BTSPair.sol\":6516:6535  address wethAddress */\n      0x00\n        /* \"contracts/tokens/BTSPair.sol\":6538:6553  factoryInstance */\n      dup2\n      sub(shl(0xa0, 0x01), 0x01)\n        /* \"contracts/tokens/BTSPair.sol\":6538:6558  factoryInstance.weth */\n      and\n      0x3fc8cef3\n        /* \"contracts/tokens/BTSPair.sol\":6538:6560  factoryInstance.weth() */\n      mload(0x40)\n      dup2\n      0xffffffff\n      and\n      0xe0\n      shl\n      dup2\n      mstore\n      0x04\n      add\n      0x20\n      mload(0x40)\n      dup1\n      dup4\n      sub\n      dup2\n      dup7\n      gas\n      staticcall\n      iszero\n      dup1\n      iszero\n      tag_421\n      jumpi\n      returndatacopy(0x00, 0x00, returndatasize)\n      revert(0x00, returndatasize)\n    tag_421:\n      pop\n      pop\n      pop\n      pop\n      mload(0x40)\n      returndatasize\n      not(0x1f)\n      0x1f\n      dup3\n      add\n      and\n      dup3\n      add\n      dup1\n      0x40\n      mstore\n      pop\n      dup2\n      add\n      swap1\n      tag_422\n      swap2\n      swap1\n      tag_304\n      jump\t// in\n    tag_422:\n        /* \"contracts/tokens/BTSPair.sol\":6516:6560  address wethAddress = factoryInstance.weth() */\n      swap1\n      pop\n        /* \"contracts/tokens/BTSPair.sol\":6571:6584  distMgmtFee() */\n      tag_423\n        /* \"contracts/tokens/BTSPair.sol\":6571:6582  distMgmtFee */\n      tag_127\n        /* \"contracts/tokens/BTSPair.sol\":6571:6584  distMgmtFee() */\n      jump\t// in\n    tag_423:\n        /* \"contracts/tokens/BTSPair.sol\":6617:6623  tokens */\n      0x03\n        /* \"contracts/tokens/BTSPair.sol\":6617:6630  tokens.length */\n      sload\n        /* \"contracts/tokens/BTSPair.sol\":6594:6614  uint256 tokensLength */\n      0x00\n      dup1\n        /* \"contracts/tokens/BTSPair.sol\":6667:6988  for (uint256 i = 0; i < tokensLength; ) {... */\n    tag_424:\n        /* \"contracts/tokens/BTSPair.sol\":6691:6703  tokensLength */\n      dup3\n        /* \"contracts/tokens/BTSPair.sol\":6687:6688  i */\n      dup2\n        /* \"contracts/tokens/BTSPair.sol\":6687:6703  i < tokensLength */\n      lt\n        /* \"contracts/tokens/BTSPair.sol\":6667:6988  for (uint256 i = 0; i < tokensLength; ) {... */\n      iszero\n      tag_425\n      jumpi\n        /* \"contracts/tokens/BTSPair.sol\":6721:6734  address token */\n      0x00\n        /* \"contracts/tokens/BTSPair.sol\":6737:6743  tokens */\n      0x03\n        /* \"contracts/tokens/BTSPair.sol\":6744:6745  i */\n      dup3\n        /* \"contracts/tokens/BTSPair.sol\":6737:6746  tokens[i] */\n      dup2\n      sload\n      dup2\n      lt\n      tag_428\n      jumpi\n      tag_428\n      tag_251\n      jump\t// in\n    tag_428:\n      0x00\n      swap2\n      dup3\n      mstore\n      0x20\n      dup3\n      keccak256\n      add\n      sload\n        /* \"contracts/tokens/BTSPair.sol\":6811:6854  factoryInstance.getPath(token, wethAddress) */\n      mload(0x40)\n      shl(0xe0, 0xd88e3e3b)\n      dup2\n      mstore\n      sub(shl(0xa0, 0x01), 0x01)\n        /* \"contracts/tokens/BTSPair.sol\":6737:6746  tokens[i] */\n      swap2\n      dup3\n      and\n        /* \"contracts/tokens/BTSPair.sol\":6811:6854  factoryInstance.getPath(token, wethAddress) */\n      0x04\n      dup3\n      add\n        /* \"#utility.yul\":11776:11827   */\n      dup2\n      swap1\n      mstore\n        /* \"#utility.yul\":11863:11895   */\n      dup9\n      dup4\n      and\n        /* \"#utility.yul\":11843:11861   */\n      0x24\n      dup4\n      add\n        /* \"#utility.yul\":11836:11896   */\n      mstore\n        /* \"contracts/tokens/BTSPair.sol\":6737:6746  tokens[i] */\n      swap4\n      pop\n        /* \"contracts/tokens/BTSPair.sol\":6811:6834  factoryInstance.getPath */\n      swap1\n      dup9\n      and\n      swap1\n      0xd88e3e3b\n      swap1\n        /* \"#utility.yul\":11749:11767   */\n      0x44\n      add\n        /* \"contracts/tokens/BTSPair.sol\":6811:6854  factoryInstance.getPath(token, wethAddress) */\n      0x00\n      mload(0x40)\n      dup1\n      dup4\n      sub\n      dup2\n      dup7\n      gas\n      staticcall\n      iszero\n      dup1\n      iszero\n      tag_432\n      jumpi\n      returndatacopy(0x00, 0x00, returndatasize)\n      revert(0x00, returndatasize)\n    tag_432:\n      pop\n      pop\n      pop\n      pop\n      mload(0x40)\n      returndatasize\n      0x00\n      dup3\n      returndatacopy\n      0x1f\n      returndatasize\n      swap1\n      dup2\n      add\n      not(0x1f)\n      and\n      dup3\n      add\n      0x40\n      mstore\n      tag_433\n      swap2\n      swap1\n      dup2\n      add\n      swap1\n      tag_320\n      jump\t// in\n    tag_433:\n        /* \"contracts/tokens/BTSPair.sol\":6787:6854  address[] memory path = factoryInstance.getPath(token, wethAddress) */\n      swap1\n      pop\n        /* \"contracts/tokens/BTSPair.sol\":6898:6913  factoryInstance */\n      dup7\n      sub(shl(0xa0, 0x01), 0x01)\n        /* \"contracts/tokens/BTSPair.sol\":6898:6927  factoryInstance.getAmountsOut */\n      and\n      0xd06ca61f\n        /* \"contracts/tokens/BTSPair.sol\":6928:6935  amounts */\n      dup12\n      dup12\n        /* \"contracts/tokens/BTSPair.sol\":6936:6937  i */\n      dup7\n        /* \"contracts/tokens/BTSPair.sol\":6928:6938  amounts[i] */\n      dup2\n      dup2\n      lt\n      tag_435\n      jumpi\n      tag_435\n      tag_251\n      jump\t// in\n    tag_435:\n      swap1\n      pop\n      0x20\n      mul\n      add\n      calldataload\n        /* \"contracts/tokens/BTSPair.sol\":6940:6944  path */\n      dup4\n        /* \"contracts/tokens/BTSPair.sol\":6898:6945  factoryInstance.getAmountsOut(amounts[i], path) */\n      mload(0x40)\n      dup4\n      0xffffffff\n      and\n      0xe0\n      shl\n      dup2\n      mstore\n      0x04\n      add\n      tag_436\n      swap3\n      swap2\n      swap1\n      tag_325\n      jump\t// in\n    tag_436:\n      0x20\n      mload(0x40)\n      dup1\n      dup4\n      sub\n      dup2\n      dup7\n      gas\n      staticcall\n      iszero\n      dup1\n      iszero\n      tag_438\n      jumpi\n      returndatacopy(0x00, 0x00, returndatasize)\n      revert(0x00, returndatasize)\n    tag_438:\n      pop\n      pop\n      pop\n      pop\n      mload(0x40)\n      returndatasize\n      not(0x1f)\n      0x1f\n      dup3\n      add\n      and\n      dup3\n      add\n      dup1\n      0x40\n      mstore\n      pop\n      dup2\n      add\n      swap1\n      tag_439\n      swap2\n      swap1\n      tag_245\n      jump\t// in\n    tag_439:\n        /* \"contracts/tokens/BTSPair.sol\":6886:6945  totalETH += factoryInstance.getAmountsOut(amounts[i], path) */\n      tag_440\n      swap1\n      dup6\n      tag_180\n      jump\t// in\n    tag_440:\n      swap4\n      pop\n        /* \"contracts/tokens/BTSPair.sol\":6972:6975  ++i */\n      dup3\n      0x01\n      add\n      swap3\n      pop\n        /* \"contracts/tokens/BTSPair.sol\":6707:6988  {... */\n      pop\n      pop\n        /* \"contracts/tokens/BTSPair.sol\":6667:6988  for (uint256 i = 0; i < tokensLength; ) {... */\n      jump(tag_424)\n    tag_425:\n      pop\n      mload(0x00)\n      codecopy(0x00, data_5c46c655e238aa25f8cbb2dc253afd95ec6fe3438bb2613b924ec6dfbcfd524d, 0x20)\n      mload(0x00)\n      swap1\n      0x00\n      mstore\n        /* \"@openzeppelin/contracts-upgradeable/token/ERC20/ERC20Upgradeable.sol\":4008:4022  $._totalSupply */\n      sload\n        /* \"contracts/tokens/BTSPair.sol\":7010:7028  totalSupply() == 0 */\n      iszero\n        /* \"contracts/tokens/BTSPair.sol\":7010:7070  totalSupply() == 0 ? 1000 ether : calculateShareLP(totalETH) */\n      tag_442\n      jumpi\n        /* \"contracts/tokens/BTSPair.sol\":7044:7070  calculateShareLP(totalETH) */\n      tag_443\n        /* \"contracts/tokens/BTSPair.sol\":7061:7069  totalETH */\n      dup2\n        /* \"contracts/tokens/BTSPair.sol\":7044:7060  calculateShareLP */\n      tag_158\n        /* \"contracts/tokens/BTSPair.sol\":7044:7070  calculateShareLP(totalETH) */\n      jump\t// in\n    tag_443:\n        /* \"contracts/tokens/BTSPair.sol\":7010:7070  totalSupply() == 0 ? 1000 ether : calculateShareLP(totalETH) */\n      jump(tag_444)\n    tag_442:\n        /* \"contracts/tokens/BTSPair.sol\":7031:7041  1000 ether */\n      0x3635c9adc5dea00000\n        /* \"contracts/tokens/BTSPair.sol\":7010:7070  totalSupply() == 0 ? 1000 ether : calculateShareLP(totalETH) */\n    tag_444:\n        /* \"contracts/tokens/BTSPair.sol\":6998:7070  liquidity = totalSupply() == 0 ? 1000 ether : calculateShareLP(totalETH) */\n      swap5\n      pop\n        /* \"contracts/tokens/BTSPair.sol\":7080:7101  _mint(_to, liquidity) */\n      tag_445\n        /* \"contracts/tokens/BTSPair.sol\":7086:7089  _to */\n      dup9\n        /* \"contracts/tokens/BTSPair.sol\":7091:7100  liquidity */\n      dup7\n        /* \"contracts/tokens/BTSPair.sol\":7080:7085  _mint */\n      tag_377\n        /* \"contracts/tokens/BTSPair.sol\":7080:7101  _mint(_to, liquidity) */\n      jump\t// in\n    tag_445:\n        /* \"contracts/tokens/BTSPair.sol\":7117:7126  uint256 i */\n      0x00\n        /* \"contracts/tokens/BTSPair.sol\":7112:7264  for (uint256 i = 0; i < amounts.length; ) {... */\n    tag_446:\n        /* \"contracts/tokens/BTSPair.sol\":7132:7150  i < amounts.length */\n      dup7\n      dup2\n      lt\n        /* \"contracts/tokens/BTSPair.sol\":7112:7264  for (uint256 i = 0; i < amounts.length; ) {... */\n      iszero\n      tag_447\n      jumpi\n        /* \"contracts/tokens/BTSPair.sol\":7183:7190  amounts */\n      dup8\n      dup8\n        /* \"contracts/tokens/BTSPair.sol\":7191:7192  i */\n      dup3\n        /* \"contracts/tokens/BTSPair.sol\":7183:7193  amounts[i] */\n      dup2\n      dup2\n      lt\n      tag_450\n      jumpi\n      tag_450\n      tag_251\n      jump\t// in\n    tag_450:\n      swap1\n      pop\n      0x20\n      mul\n      add\n      calldataload\n        /* \"contracts/tokens/BTSPair.sol\":7168:7176  reserves */\n      0x04\n        /* \"contracts/tokens/BTSPair.sol\":7177:7178  i */\n      dup3\n        /* \"contracts/tokens/BTSPair.sol\":7168:7179  reserves[i] */\n      dup2\n      sload\n      dup2\n      lt\n      tag_452\n      jumpi\n      tag_452\n      tag_251\n      jump\t// in\n    tag_452:\n      swap1\n      0x00\n      mstore\n      keccak256(0x00, 0x20)\n      add\n      0x00\n        /* \"contracts/tokens/BTSPair.sol\":7168:7193  reserves[i] += amounts[i] */\n      dup3\n      dup3\n      sload\n      tag_454\n      swap2\n      swap1\n      tag_180\n      jump\t// in\n    tag_454:\n      swap1\n      swap2\n      sstore\n      pop\n      pop\n        /* \"contracts/tokens/BTSPair.sol\":7236:7239  ++i */\n      0x01\n      add\n        /* \"contracts/tokens/BTSPair.sol\":7112:7264  for (uint256 i = 0; i < amounts.length; ) {... */\n      jump(tag_446)\n    tag_447:\n      pop\n        /* \"contracts/tokens/BTSPair.sol\":6366:7270  {... */\n      pop\n      pop\n      pop\n      pop\n        /* \"contracts/tokens/BTSPair.sol\":6236:7270  function mint(address _to, uint256[] calldata amounts)... */\n      swap4\n      swap3\n      pop\n      pop\n      pop\n      jump\t// out\n        /* \"contracts/tokens/BTSPair.sol\":9926:10224  function calculateShareLP(uint256 _amountETH)... */\n    tag_158:\n        /* \"contracts/tokens/BTSPair.sol\":1920:1942  reentrancyGuardEntered */\n      sload(0x02)\n        /* \"contracts/tokens/BTSPair.sol\":10030:10046  uint256 amountLP */\n      0x00\n      swap1\n        /* \"contracts/tokens/BTSPair.sol\":1920:1942  reentrancyGuardEntered */\n      0xff\n      and\n        /* \"contracts/tokens/BTSPair.sol\":1917:1966  if(reentrancyGuardEntered) revert ReentrantCall() */\n      iszero\n      tag_456\n      jumpi\n        /* \"contracts/tokens/BTSPair.sol\":1951:1966  ReentrantCall() */\n      mload(0x40)\n      shl(0xe3, 0x06fda65d)\n      dup2\n      mstore\n      0x04\n      add\n      mload(0x40)\n      dup1\n      swap2\n      sub\n      swap1\n      revert\n        /* \"contracts/tokens/BTSPair.sol\":1917:1966  if(reentrancyGuardEntered) revert ReentrantCall() */\n    tag_456:\n        /* \"contracts/tokens/BTSPair.sol\":10062:10081  uint256 reservedETH */\n      0x00\n        /* \"contracts/tokens/BTSPair.sol\":10084:10103  _totalReservedETH() */\n      tag_458\n        /* \"contracts/tokens/BTSPair.sol\":10084:10101  _totalReservedETH */\n      tag_459\n        /* \"contracts/tokens/BTSPair.sol\":10084:10103  _totalReservedETH() */\n      jump\t// in\n    tag_458:\n        /* \"contracts/tokens/BTSPair.sol\":10062:10103  uint256 reservedETH = _totalReservedETH() */\n      swap1\n      pop\n        /* \"contracts/tokens/BTSPair.sol\":10117:10128  reservedETH */\n      dup1\n        /* \"contracts/tokens/BTSPair.sol\":10132:10133  0 */\n      0x00\n        /* \"contracts/tokens/BTSPair.sol\":10117:10133  reservedETH == 0 */\n      sub\n        /* \"contracts/tokens/BTSPair.sol\":10113:10152  if (reservedETH == 0) return 1000 ether */\n      tag_460\n      jumpi\n      pop\n        /* \"contracts/tokens/BTSPair.sol\":10142:10152  1000 ether */\n      0x3635c9adc5dea00000\n      swap3\n        /* \"contracts/tokens/BTSPair.sol\":14092:14260  function getTokenAddress(uint256 _index)... */\n      swap2\n      pop\n      pop\n      jump\t// out\n        /* \"contracts/tokens/BTSPair.sol\":10113:10152  if (reservedETH == 0) return 1000 ether */\n    tag_460:\n        /* \"contracts/tokens/BTSPair.sol\":10205:10216  reservedETH */\n      dup1\n        /* \"contracts/tokens/BTSPair.sol\":10188:10201  totalSupply() */\n      tag_461\n      mload(0x00)\n      codecopy(0x00, data_5c46c655e238aa25f8cbb2dc253afd95ec6fe3438bb2613b924ec6dfbcfd524d, 0x20)\n      mload(0x00)\n      swap1\n      0x00\n      mstore\n        /* \"@openzeppelin/contracts-upgradeable/token/ERC20/ERC20Upgradeable.sol\":4008:4022  $._totalSupply */\n      sload\n      swap1\n        /* \"@openzeppelin/contracts-upgradeable/token/ERC20/ERC20Upgradeable.sol\":3877:4029  function totalSupply() public view virtual returns (uint256) {... */\n      jump\n        /* \"contracts/tokens/BTSPair.sol\":10188:10201  totalSupply() */\n    tag_461:\n        /* \"contracts/tokens/BTSPair.sol\":10175:10201  _amountETH * totalSupply() */\n      tag_462\n      swap1\n        /* \"contracts/tokens/BTSPair.sol\":10175:10185  _amountETH */\n      dup6\n        /* \"contracts/tokens/BTSPair.sol\":10175:10201  _amountETH * totalSupply() */\n      tag_322\n      jump\t// in\n    tag_462:\n        /* \"contracts/tokens/BTSPair.sol\":10174:10216  (_amountETH * totalSupply()) / reservedETH */\n      tag_463\n      swap2\n      swap1\n      tag_234\n      jump\t// in\n    tag_463:\n        /* \"contracts/tokens/BTSPair.sol\":10162:10217  amountLP = ((_amountETH * totalSupply()) / reservedETH) */\n      swap4\n        /* \"contracts/tokens/BTSPair.sol\":9926:10224  function calculateShareLP(uint256 _amountETH)... */\n      swap3\n      pop\n      pop\n      pop\n      jump\t// out\n        /* \"contracts/tokens/BTSPair.sol\":14999:15127  function getTokensReserve() public view nonReentrantReadOnly... */\n    tag_161:\n        /* \"contracts/tokens/BTSPair.sol\":1920:1942  reentrancyGuardEntered */\n      sload(0x02)\n        /* \"contracts/tokens/BTSPair.sol\":15077:15093  uint256[] memory */\n      0x60\n      swap1\n        /* \"contracts/tokens/BTSPair.sol\":1920:1942  reentrancyGuardEntered */\n      0xff\n      and\n        /* \"contracts/tokens/BTSPair.sol\":1917:1966  if(reentrancyGuardEntered) revert ReentrantCall() */\n      iszero\n      tag_465\n      jumpi\n        /* \"contracts/tokens/BTSPair.sol\":1951:1966  ReentrantCall() */\n      mload(0x40)\n      shl(0xe3, 0x06fda65d)\n      dup2\n      mstore\n      0x04\n      add\n      mload(0x40)\n      dup1\n      swap2\n      sub\n      swap1\n      revert\n        /* \"contracts/tokens/BTSPair.sol\":1917:1966  if(reentrancyGuardEntered) revert ReentrantCall() */\n    tag_465:\n        /* \"contracts/tokens/BTSPair.sol\":15112:15120  reserves */\n      0x04\n        /* \"contracts/tokens/BTSPair.sol\":15105:15120  return reserves */\n      dup1\n      sload\n      dup1\n      0x20\n      mul\n      0x20\n      add\n      mload(0x40)\n      swap1\n      dup2\n      add\n      0x40\n      mstore\n      dup1\n      swap3\n      swap2\n      swap1\n      dup2\n      dup2\n      mstore\n      0x20\n      add\n      dup3\n      dup1\n      sload\n      dup1\n      iszero\n      tag_197\n      jumpi\n      0x20\n      mul\n      dup3\n      add\n      swap2\n      swap1\n      0x00\n      mstore\n      keccak256(0x00, 0x20)\n      swap1\n    tag_468:\n      dup2\n      sload\n      dup2\n      mstore\n      0x20\n      add\n      swap1\n      0x01\n      add\n      swap1\n      dup1\n      dup4\n      gt\n      tag_468\n      jumpi\n      pop\n      pop\n      pop\n      pop\n      pop\n      swap1\n      pop\n        /* \"contracts/tokens/BTSPair.sol\":14999:15127  function getTokensReserve() public view nonReentrantReadOnly... */\n      swap1\n      jump\t// out\n        /* \"@openzeppelin/contracts-upgradeable/access/OwnableUpgradeable.sol\":3405:3620  function transferOwnership(address newOwner) public virtual onlyOwner {... */\n    tag_165:\n        /* \"@openzeppelin/contracts-upgradeable/access/OwnableUpgradeable.sol\":2334:2347  _checkOwner() */\n      tag_470\n        /* \"@openzeppelin/contracts-upgradeable/access/OwnableUpgradeable.sol\":2334:2345  _checkOwner */\n      tag_257\n        /* \"@openzeppelin/contracts-upgradeable/access/OwnableUpgradeable.sol\":2334:2347  _checkOwner() */\n      jump\t// in\n    tag_470:\n      sub(shl(0xa0, 0x01), 0x01)\n        /* \"@openzeppelin/contracts-upgradeable/access/OwnableUpgradeable.sol\":3489:3511  newOwner == address(0) */\n      dup2\n      and\n        /* \"@openzeppelin/contracts-upgradeable/access/OwnableUpgradeable.sol\":3485:3576  if (newOwner == address(0)) {... */\n      tag_472\n      jumpi\n        /* \"@openzeppelin/contracts-upgradeable/access/OwnableUpgradeable.sol\":3534:3565  OwnableInvalidOwner(address(0)) */\n      mload(0x40)\n      shl(0xe0, 0x1e4fbdf7)\n      dup2\n      mstore\n        /* \"@openzeppelin/contracts-upgradeable/access/OwnableUpgradeable.sol\":3562:3563  0 */\n      0x00\n        /* \"@openzeppelin/contracts-upgradeable/access/OwnableUpgradeable.sol\":3534:3565  OwnableInvalidOwner(address(0)) */\n      0x04\n      dup3\n      add\n        /* \"#utility.yul\":5460:5511   */\n      mstore\n        /* \"#utility.yul\":5433:5451   */\n      0x24\n      add\n        /* \"@openzeppelin/contracts-upgradeable/access/OwnableUpgradeable.sol\":3534:3565  OwnableInvalidOwner(address(0)) */\n      tag_211\n        /* \"#utility.yul\":5314:5517   */\n      jump\n        /* \"@openzeppelin/contracts-upgradeable/access/OwnableUpgradeable.sol\":3485:3576  if (newOwner == address(0)) {... */\n    tag_472:\n        /* \"@openzeppelin/contracts-upgradeable/access/OwnableUpgradeable.sol\":3585:3613  _transferOwnership(newOwner) */\n      tag_474\n        /* \"@openzeppelin/contracts-upgradeable/access/OwnableUpgradeable.sol\":3604:3612  newOwner */\n      dup2\n        /* \"@openzeppelin/contracts-upgradeable/access/OwnableUpgradeable.sol\":3585:3603  _transferOwnership */\n      tag_260\n        /* \"@openzeppelin/contracts-upgradeable/access/OwnableUpgradeable.sol\":3585:3613  _transferOwnership(newOwner) */\n      jump\t// in\n    tag_474:\n        /* \"@openzeppelin/contracts-upgradeable/access/OwnableUpgradeable.sol\":3405:3620  function transferOwnership(address newOwner) public virtual onlyOwner {... */\n      pop\n      jump\t// out\n        /* \"@openzeppelin/contracts-upgradeable/token/ERC20/ERC20Upgradeable.sol\":9982:10110  function _approve(address owner, address spender, uint256 value) internal {... */\n    tag_185:\n        /* \"@openzeppelin/contracts-upgradeable/token/ERC20/ERC20Upgradeable.sol\":10066:10103  _approve(owner, spender, value, true) */\n      tag_358\n        /* \"@openzeppelin/contracts-upgradeable/token/ERC20/ERC20Upgradeable.sol\":10075:10080  owner */\n      dup4\n        /* \"@openzeppelin/contracts-upgradeable/token/ERC20/ERC20Upgradeable.sol\":10082:10089  spender */\n      dup4\n        /* \"@openzeppelin/contracts-upgradeable/token/ERC20/ERC20Upgradeable.sol\":10091:10096  value */\n      dup4\n        /* \"@openzeppelin/contracts-upgradeable/token/ERC20/ERC20Upgradeable.sol\":10098:10102  true */\n      0x01\n        /* \"@openzeppelin/contracts-upgradeable/token/ERC20/ERC20Upgradeable.sol\":10066:10074  _approve */\n      tag_479\n        /* \"@openzeppelin/contracts-upgradeable/token/ERC20/ERC20Upgradeable.sol\":10066:10103  _approve(owner, spender, value, true) */\n      jump\t// in\n        /* \"@openzeppelin/contracts-upgradeable/token/ERC20/ERC20Upgradeable.sol\":11726:12202  function _spendAllowance(address owner, address spender, uint256 value) internal virtual {... */\n    tag_191:\n        /* \"@openzeppelin/contracts-upgradeable/token/ERC20/ERC20Upgradeable.sol\":11825:11849  uint256 currentAllowance */\n      0x00\n        /* \"@openzeppelin/contracts-upgradeable/token/ERC20/ERC20Upgradeable.sol\":11852:11877  allowance(owner, spender) */\n      tag_481\n        /* \"@openzeppelin/contracts-upgradeable/token/ERC20/ERC20Upgradeable.sol\":11862:11867  owner */\n      dup5\n        /* \"@openzeppelin/contracts-upgradeable/token/ERC20/ERC20Upgradeable.sol\":11869:11876  spender */\n      dup5\n        /* \"@openzeppelin/contracts-upgradeable/token/ERC20/ERC20Upgradeable.sol\":11852:11861  allowance */\n      tag_145\n        /* \"@openzeppelin/contracts-upgradeable/token/ERC20/ERC20Upgradeable.sol\":11852:11877  allowance(owner, spender) */\n      jump\t// in\n    tag_481:\n        /* \"@openzeppelin/contracts-upgradeable/token/ERC20/ERC20Upgradeable.sol\":11825:11877  uint256 currentAllowance = allowance(owner, spender) */\n      swap1\n      pop\n      not(0x00)\n        /* \"@openzeppelin/contracts-upgradeable/token/ERC20/ERC20Upgradeable.sol\":11891:11907  currentAllowance */\n      dup2\n        /* \"@openzeppelin/contracts-upgradeable/token/ERC20/ERC20Upgradeable.sol\":11891:11927  currentAllowance < type(uint256).max */\n      lt\n        /* \"@openzeppelin/contracts-upgradeable/token/ERC20/ERC20Upgradeable.sol\":11887:12196  if (currentAllowance < type(uint256).max) {... */\n      iszero\n      tag_486\n      jumpi\n        /* \"@openzeppelin/contracts-upgradeable/token/ERC20/ERC20Upgradeable.sol\":11966:11971  value */\n      dup2\n        /* \"@openzeppelin/contracts-upgradeable/token/ERC20/ERC20Upgradeable.sol\":11947:11963  currentAllowance */\n      dup2\n        /* \"@openzeppelin/contracts-upgradeable/token/ERC20/ERC20Upgradeable.sol\":11947:11971  currentAllowance < value */\n      lt\n        /* \"@openzeppelin/contracts-upgradeable/token/ERC20/ERC20Upgradeable.sol\":11943:12073  if (currentAllowance < value) {... */\n      iszero\n      tag_483\n      jumpi\n        /* \"@openzeppelin/contracts-upgradeable/token/ERC20/ERC20Upgradeable.sol\":11998:12058  ERC20InsufficientAllowance(spender, currentAllowance, value) */\n      mload(0x40)\n      shl(0xe1, 0x7dc7a0d9)\n      dup2\n      mstore\n      sub(shl(0xa0, 0x01), 0x01)\n        /* \"#utility.yul\":14728:14760   */\n      dup5\n      and\n        /* \"@openzeppelin/contracts-upgradeable/token/ERC20/ERC20Upgradeable.sol\":11998:12058  ERC20InsufficientAllowance(spender, currentAllowance, value) */\n      0x04\n      dup3\n      add\n        /* \"#utility.yul\":14710:14761   */\n      mstore\n        /* \"#utility.yul\":14777:14795   */\n      0x24\n      dup2\n      add\n        /* \"#utility.yul\":14770:14804   */\n      dup3\n      swap1\n      mstore\n        /* \"#utility.yul\":14820:14838   */\n      0x44\n      dup2\n      add\n        /* \"#utility.yul\":14813:14847   */\n      dup4\n      swap1\n      mstore\n        /* \"#utility.yul\":14683:14701   */\n      0x64\n      add\n        /* \"@openzeppelin/contracts-upgradeable/token/ERC20/ERC20Upgradeable.sol\":11998:12058  ERC20InsufficientAllowance(spender, currentAllowance, value) */\n      tag_211\n        /* \"#utility.yul\":14508:14853   */\n      jump\n        /* \"@openzeppelin/contracts-upgradeable/token/ERC20/ERC20Upgradeable.sol\":11943:12073  if (currentAllowance < value) {... */\n    tag_483:\n        /* \"@openzeppelin/contracts-upgradeable/token/ERC20/ERC20Upgradeable.sol\":12114:12171  _approve(owner, spender, currentAllowance - value, false) */\n      tag_486\n        /* \"@openzeppelin/contracts-upgradeable/token/ERC20/ERC20Upgradeable.sol\":12123:12128  owner */\n      dup5\n        /* \"@openzeppelin/contracts-upgradeable/token/ERC20/ERC20Upgradeable.sol\":12130:12137  spender */\n      dup5\n        /* \"@openzeppelin/contracts-upgradeable/token/ERC20/ERC20Upgradeable.sol\":12158:12163  value */\n      dup5\n        /* \"@openzeppelin/contracts-upgradeable/token/ERC20/ERC20Upgradeable.sol\":12139:12155  currentAllowance */\n      dup5\n        /* \"@openzeppelin/contracts-upgradeable/token/ERC20/ERC20Upgradeable.sol\":12139:12163  currentAllowance - value */\n      sub\n        /* \"@openzeppelin/contracts-upgradeable/token/ERC20/ERC20Upgradeable.sol\":12165:12170  false */\n      0x00\n        /* \"@openzeppelin/contracts-upgradeable/token/ERC20/ERC20Upgradeable.sol\":12114:12122  _approve */\n      tag_479\n        /* \"@openzeppelin/contracts-upgradeable/token/ERC20/ERC20Upgradeable.sol\":12114:12171  _approve(owner, spender, currentAllowance - value, false) */\n      jump\t// in\n    tag_486:\n        /* \"@openzeppelin/contracts-upgradeable/token/ERC20/ERC20Upgradeable.sol\":11815:12202  {... */\n      pop\n        /* \"@openzeppelin/contracts-upgradeable/token/ERC20/ERC20Upgradeable.sol\":11726:12202  function _spendAllowance(address owner, address spender, uint256 value) internal virtual {... */\n      pop\n      pop\n      pop\n      jump\t// out\n        /* \"@openzeppelin/contracts-upgradeable/token/ERC20/ERC20Upgradeable.sol\":6586:6886  function _transfer(address from, address to, uint256 value) internal {... */\n    tag_193:\n      sub(shl(0xa0, 0x01), 0x01)\n        /* \"@openzeppelin/contracts-upgradeable/token/ERC20/ERC20Upgradeable.sol\":6669:6687  from == address(0) */\n      dup4\n      and\n        /* \"@openzeppelin/contracts-upgradeable/token/ERC20/ERC20Upgradeable.sol\":6665:6751  if (from == address(0)) {... */\n      tag_488\n      jumpi\n        /* \"@openzeppelin/contracts-upgradeable/token/ERC20/ERC20Upgradeable.sol\":6710:6740  ERC20InvalidSender(address(0)) */\n      mload(0x40)\n      shl(0xe1, 0x4b637e8f)\n      dup2\n      mstore\n        /* \"@openzeppelin/contracts-upgradeable/token/ERC20/ERC20Upgradeable.sol\":6737:6738  0 */\n      0x00\n        /* \"@openzeppelin/contracts-upgradeable/token/ERC20/ERC20Upgradeable.sol\":6710:6740  ERC20InvalidSender(address(0)) */\n      0x04\n      dup3\n      add\n        /* \"#utility.yul\":5460:5511   */\n      mstore\n        /* \"#utility.yul\":5433:5451   */\n      0x24\n      add\n        /* \"@openzeppelin/contracts-upgradeable/token/ERC20/ERC20Upgradeable.sol\":6710:6740  ERC20InvalidSender(address(0)) */\n      tag_211\n        /* \"#utility.yul\":5314:5517   */\n      jump\n        /* \"@openzeppelin/contracts-upgradeable/token/ERC20/ERC20Upgradeable.sol\":6665:6751  if (from == address(0)) {... */\n    tag_488:\n      sub(shl(0xa0, 0x01), 0x01)\n        /* \"@openzeppelin/contracts-upgradeable/token/ERC20/ERC20Upgradeable.sol\":6764:6780  to == address(0) */\n      dup3\n      and\n        /* \"@openzeppelin/contracts-upgradeable/token/ERC20/ERC20Upgradeable.sol\":6760:6846  if (to == address(0)) {... */\n      tag_490\n      jumpi\n        /* \"@openzeppelin/contracts-upgradeable/token/ERC20/ERC20Upgradeable.sol\":6803:6835  ERC20InvalidReceiver(address(0)) */\n      mload(0x40)\n      shl(0xe0, 0xec442f05)\n      dup2\n      mstore\n        /* \"@openzeppelin/contracts-upgradeable/token/ERC20/ERC20Upgradeable.sol\":6832:6833  0 */\n      0x00\n        /* \"@openzeppelin/contracts-upgradeable/token/ERC20/ERC20Upgradeable.sol\":6803:6835  ERC20InvalidReceiver(address(0)) */\n      0x04\n      dup3\n      add\n        /* \"#utility.yul\":5460:5511   */\n      mstore\n        /* \"#utility.yul\":5433:5451   */\n      0x24\n      add\n        /* \"@openzeppelin/contracts-upgradeable/token/ERC20/ERC20Upgradeable.sol\":6803:6835  ERC20InvalidReceiver(address(0)) */\n      tag_211\n        /* \"#utility.yul\":5314:5517   */\n      jump\n        /* \"@openzeppelin/contracts-upgradeable/token/ERC20/ERC20Upgradeable.sol\":6760:6846  if (to == address(0)) {... */\n    tag_490:\n        /* \"@openzeppelin/contracts-upgradeable/token/ERC20/ERC20Upgradeable.sol\":6855:6879  _update(from, to, value) */\n      tag_358\n        /* \"@openzeppelin/contracts-upgradeable/token/ERC20/ERC20Upgradeable.sol\":6863:6867  from */\n      dup4\n        /* \"@openzeppelin/contracts-upgradeable/token/ERC20/ERC20Upgradeable.sol\":6869:6871  to */\n      dup4\n        /* \"@openzeppelin/contracts-upgradeable/token/ERC20/ERC20Upgradeable.sol\":6873:6878  value */\n      dup4\n        /* \"@openzeppelin/contracts-upgradeable/token/ERC20/ERC20Upgradeable.sol\":6855:6862  _update */\n      tag_493\n        /* \"@openzeppelin/contracts-upgradeable/token/ERC20/ERC20Upgradeable.sol\":6855:6879  _update(from, to, value) */\n      jump\t// in\n        /* \"@openzeppelin/contracts-upgradeable/proxy/utils/Initializable.sol\":9071:9276  function _getInitializableStorage() private pure returns (InitializableStorage storage $) {... */\n    tag_202:\n        /* \"@openzeppelin/contracts-upgradeable/proxy/utils/Initializable.sol\":9129:9159  InitializableStorage storage $ */\n      0x00\n      dup1\n        /* \"@openzeppelin/contracts-upgradeable/proxy/utils/Initializable.sol\":3147:3213  0xf0c57e16840df040f15088dc2f81fe391c3923bec73e23a9662efc9c229c6a00 */\n      0xf0c57e16840df040f15088dc2f81fe391c3923bec73e23a9662efc9c229c6a00\n        /* \"@openzeppelin/contracts-upgradeable/proxy/utils/Initializable.sol\":9186:9213  _initializableStorageSlot() */\n      tag_181\n        /* \"@openzeppelin/contracts-upgradeable/proxy/utils/Initializable.sol\":8819:8941  function _initializableStorageSlot() internal pure virtual returns (bytes32) {... */\n      jump\n        /* \"@openzeppelin/contracts-upgradeable/token/ERC20/ERC20Upgradeable.sol\":2263:2410  function __ERC20_init(string memory name_, string memory symbol_) internal onlyInitializing {... */\n    tag_216:\n        /* \"@openzeppelin/contracts-upgradeable/proxy/utils/Initializable.sol\":6929:6949  _checkInitializing() */\n      tag_498\n        /* \"@openzeppelin/contracts-upgradeable/proxy/utils/Initializable.sol\":6929:6947  _checkInitializing */\n      tag_499\n        /* \"@openzeppelin/contracts-upgradeable/proxy/utils/Initializable.sol\":6929:6949  _checkInitializing() */\n      jump\t// in\n    tag_498:\n        /* \"@openzeppelin/contracts-upgradeable/token/ERC20/ERC20Upgradeable.sol\":2365:2403  __ERC20_init_unchained(name_, symbol_) */\n      tag_501\n        /* \"@openzeppelin/contracts-upgradeable/token/ERC20/ERC20Upgradeable.sol\":2388:2393  name_ */\n      dup3\n        /* \"@openzeppelin/contracts-upgradeable/token/ERC20/ERC20Upgradeable.sol\":2395:2402  symbol_ */\n      dup3\n        /* \"@openzeppelin/contracts-upgradeable/token/ERC20/ERC20Upgradeable.sol\":2365:2387  __ERC20_init_unchained */\n      tag_502\n        /* \"@openzeppelin/contracts-upgradeable/token/ERC20/ERC20Upgradeable.sol\":2365:2403  __ERC20_init_unchained(name_, symbol_) */\n      jump\t// in\n    tag_501:\n        /* \"@openzeppelin/contracts-upgradeable/token/ERC20/ERC20Upgradeable.sol\":2263:2410  function __ERC20_init(string memory name_, string memory symbol_) internal onlyInitializing {... */\n      pop\n      pop\n      jump\t// out\n        /* \"@openzeppelin/contracts-upgradeable/access/OwnableUpgradeable.sol\":1847:1974  function __Ownable_init(address initialOwner) internal onlyInitializing {... */\n    tag_218:\n        /* \"@openzeppelin/contracts-upgradeable/proxy/utils/Initializable.sol\":6929:6949  _checkInitializing() */\n      tag_504\n        /* \"@openzeppelin/contracts-upgradeable/proxy/utils/Initializable.sol\":6929:6947  _checkInitializing */\n      tag_499\n        /* \"@openzeppelin/contracts-upgradeable/proxy/utils/Initializable.sol\":6929:6949  _checkInitializing() */\n      jump\t// in\n    tag_504:\n        /* \"@openzeppelin/contracts-upgradeable/access/OwnableUpgradeable.sol\":1929:1967  __Ownable_init_unchained(initialOwner) */\n      tag_474\n        /* \"@openzeppelin/contracts-upgradeable/access/OwnableUpgradeable.sol\":1954:1966  initialOwner */\n      dup2\n        /* \"@openzeppelin/contracts-upgradeable/access/OwnableUpgradeable.sol\":1929:1953  __Ownable_init_unchained */\n      tag_507\n        /* \"@openzeppelin/contracts-upgradeable/access/OwnableUpgradeable.sol\":1929:1967  __Ownable_init_unchained(initialOwner) */\n      jump\t// in\n        /* \"@openzeppelin/contracts-upgradeable/access/OwnableUpgradeable.sol\":2658:2820  function _checkOwner() internal view virtual {... */\n    tag_257:\n        /* \"@openzeppelin/contracts-upgradeable/utils/ContextUpgradeable.sol\":966:976  msg.sender */\n      caller\n        /* \"@openzeppelin/contracts-upgradeable/access/OwnableUpgradeable.sol\":2717:2724  owner() */\n      tag_511\n        /* \"@openzeppelin/contracts-upgradeable/access/OwnableUpgradeable.sol\":2717:2722  owner */\n      tag_102\n        /* \"@openzeppelin/contracts-upgradeable/access/OwnableUpgradeable.sol\":2717:2724  owner() */\n      jump\t// in\n    tag_511:\n      sub(shl(0xa0, 0x01), 0x01)\n        /* \"@openzeppelin/contracts-upgradeable/access/OwnableUpgradeable.sol\":2717:2740  owner() != _msgSender() */\n      and\n      eq\n        /* \"@openzeppelin/contracts-upgradeable/access/OwnableUpgradeable.sol\":2713:2814  if (owner() != _msgSender()) {... */\n      tag_259\n      jumpi\n        /* \"@openzeppelin/contracts-upgradeable/access/OwnableUpgradeable.sol\":2763:2803  OwnableUnauthorizedAccount(_msgSender()) */\n      mload(0x40)\n      shl(0xe0, 0x118cdaa7)\n      dup2\n      mstore\n        /* \"@openzeppelin/contracts-upgradeable/utils/ContextUpgradeable.sol\":966:976  msg.sender */\n      caller\n        /* \"@openzeppelin/contracts-upgradeable/access/OwnableUpgradeable.sol\":2763:2803  OwnableUnauthorizedAccount(_msgSender()) */\n      0x04\n      dup3\n      add\n        /* \"#utility.yul\":5460:5511   */\n      mstore\n        /* \"#utility.yul\":5433:5451   */\n      0x24\n      add\n        /* \"@openzeppelin/contracts-upgradeable/access/OwnableUpgradeable.sol\":2763:2803  OwnableUnauthorizedAccount(_msgSender()) */\n      tag_211\n        /* \"#utility.yul\":5314:5517   */\n      jump\n        /* \"@openzeppelin/contracts-upgradeable/access/OwnableUpgradeable.sol\":3774:4022  function _transferOwnership(address newOwner) internal virtual {... */\n    tag_260:\n        /* \"@openzeppelin/contracts-upgradeable/access/OwnableUpgradeable.sol\":1313:1335  OwnableStorageLocation */\n      0x9016d09d72d40fdae2fd8ceac6b6234c7706214fd39c1cd1e609a0528c199300\n        /* \"@openzeppelin/contracts-upgradeable/access/OwnableUpgradeable.sol\":3923:3931  $._owner */\n      dup1\n      sload\n      not(sub(shl(0xa0, 0x01), 0x01))\n        /* \"@openzeppelin/contracts-upgradeable/access/OwnableUpgradeable.sol\":3941:3960  $._owner = newOwner */\n      dup2\n      and\n      sub(shl(0xa0, 0x01), 0x01)\n      dup5\n      dup2\n      and\n      swap2\n      dup3\n      or\n      dup5\n      sstore\n        /* \"@openzeppelin/contracts-upgradeable/access/OwnableUpgradeable.sol\":3975:4015  OwnershipTransferred(oldOwner, newOwner) */\n      mload(0x40)\n        /* \"@openzeppelin/contracts-upgradeable/access/OwnableUpgradeable.sol\":3923:3931  $._owner */\n      swap3\n      and\n      swap2\n      dup3\n      swap1\n        /* \"@openzeppelin/contracts-upgradeable/access/OwnableUpgradeable.sol\":3975:4015  OwnershipTransferred(oldOwner, newOwner) */\n      0x8be0079c531659141344cd1fd0a4f28419497f9722a3daafe3b4186f6b6457e0\n      swap1\n        /* \"@openzeppelin/contracts-upgradeable/access/OwnableUpgradeable.sol\":3847:3871  OwnableStorage storage $ */\n      0x00\n      swap1\n        /* \"@openzeppelin/contracts-upgradeable/access/OwnableUpgradeable.sol\":3975:4015  OwnershipTransferred(oldOwner, newOwner) */\n      log3\n        /* \"@openzeppelin/contracts-upgradeable/access/OwnableUpgradeable.sol\":3837:4022  {... */\n      pop\n      pop\n        /* \"@openzeppelin/contracts-upgradeable/access/OwnableUpgradeable.sol\":3774:4022  function _transferOwnership(address newOwner) internal virtual {... */\n      pop\n      jump\t// out\n        /* \"@openzeppelin/contracts-upgradeable/token/ERC20/ERC20Upgradeable.sol\":9240:9446  function _burn(address account, uint256 value) internal {... */\n    tag_270:\n      sub(shl(0xa0, 0x01), 0x01)\n        /* \"@openzeppelin/contracts-upgradeable/token/ERC20/ERC20Upgradeable.sol\":9310:9331  account == address(0) */\n      dup3\n      and\n        /* \"@openzeppelin/contracts-upgradeable/token/ERC20/ERC20Upgradeable.sol\":9306:9395  if (account == address(0)) {... */\n      tag_518\n      jumpi\n        /* \"@openzeppelin/contracts-upgradeable/token/ERC20/ERC20Upgradeable.sol\":9354:9384  ERC20InvalidSender(address(0)) */\n      mload(0x40)\n      shl(0xe1, 0x4b637e8f)\n      dup2\n      mstore\n        /* \"@openzeppelin/contracts-upgradeable/token/ERC20/ERC20Upgradeable.sol\":9381:9382  0 */\n      0x00\n        /* \"@openzeppelin/contracts-upgradeable/token/ERC20/ERC20Upgradeable.sol\":9354:9384  ERC20InvalidSender(address(0)) */\n      0x04\n      dup3\n      add\n        /* \"#utility.yul\":5460:5511   */\n      mstore\n        /* \"#utility.yul\":5433:5451   */\n      0x24\n      add\n        /* \"@openzeppelin/contracts-upgradeable/token/ERC20/ERC20Upgradeable.sol\":9354:9384  ERC20InvalidSender(address(0)) */\n      tag_211\n        /* \"#utility.yul\":5314:5517   */\n      jump\n        /* \"@openzeppelin/contracts-upgradeable/token/ERC20/ERC20Upgradeable.sol\":9306:9395  if (account == address(0)) {... */\n    tag_518:\n        /* \"@openzeppelin/contracts-upgradeable/token/ERC20/ERC20Upgradeable.sol\":9404:9439  _update(account, address(0), value) */\n      tag_501\n        /* \"@openzeppelin/contracts-upgradeable/token/ERC20/ERC20Upgradeable.sol\":9412:9419  account */\n      dup3\n        /* \"@openzeppelin/contracts-upgradeable/token/ERC20/ERC20Upgradeable.sol\":9429:9430  0 */\n      0x00\n        /* \"@openzeppelin/contracts-upgradeable/token/ERC20/ERC20Upgradeable.sol\":9433:9438  value */\n      dup4\n        /* \"@openzeppelin/contracts-upgradeable/token/ERC20/ERC20Upgradeable.sol\":9404:9411  _update */\n      tag_493\n        /* \"@openzeppelin/contracts-upgradeable/token/ERC20/ERC20Upgradeable.sol\":9404:9439  _update(account, address(0), value) */\n      jump\t// in\n        /* \"@openzeppelin/contracts-upgradeable/token/ERC20/utils/SafeERC20Upgradeable.sol\":996:1182  function safeTransfer(IERC20Upgradeable token, address to, uint256 value) internal {... */\n    tag_281:\n        /* \"@openzeppelin/contracts-upgradeable/token/ERC20/utils/SafeERC20Upgradeable.sol\":1116:1174  abi.encodeWithSelector(token.transfer.selector, to, value) */\n      0x40\n      dup1\n      mload\n      sub(shl(0xa0, 0x01), 0x01)\n        /* \"#utility.yul\":15050:15082   */\n      dup5\n      and\n        /* \"@openzeppelin/contracts-upgradeable/token/ERC20/utils/SafeERC20Upgradeable.sol\":1116:1174  abi.encodeWithSelector(token.transfer.selector, to, value) */\n      0x24\n      dup3\n      add\n        /* \"#utility.yul\":15032:15083   */\n      mstore\n        /* \"#utility.yul\":15099:15117   */\n      0x44\n      dup1\n      dup3\n      add\n        /* \"#utility.yul\":15092:15126   */\n      dup5\n      swap1\n      mstore\n        /* \"@openzeppelin/contracts-upgradeable/token/ERC20/utils/SafeERC20Upgradeable.sol\":1116:1174  abi.encodeWithSelector(token.transfer.selector, to, value) */\n      dup3\n      mload\n      dup1\n      dup4\n      sub\n      swap1\n      swap2\n      add\n      dup2\n      mstore\n        /* \"#utility.yul\":15005:15023   */\n      0x64\n      swap1\n      swap2\n      add\n        /* \"@openzeppelin/contracts-upgradeable/token/ERC20/utils/SafeERC20Upgradeable.sol\":1116:1174  abi.encodeWithSelector(token.transfer.selector, to, value) */\n      swap1\n      swap2\n      mstore\n      0x20\n      dup2\n      add\n      dup1\n      mload\n      sub(shl(0xe0, 0x01), 0x01)\n      and\n      shl(0xe0, 0xa9059cbb)\n      or\n      swap1\n      mstore\n        /* \"@openzeppelin/contracts-upgradeable/token/ERC20/utils/SafeERC20Upgradeable.sol\":1089:1175  _callOptionalReturn(token, abi.encodeWithSelector(token.transfer.selector, to, value)) */\n      tag_358\n      swap1\n        /* \"@openzeppelin/contracts-upgradeable/token/ERC20/utils/SafeERC20Upgradeable.sol\":1109:1114  token */\n      dup5\n      swap1\n        /* \"@openzeppelin/contracts-upgradeable/token/ERC20/utils/SafeERC20Upgradeable.sol\":1089:1108  _callOptionalReturn */\n      tag_525\n        /* \"@openzeppelin/contracts-upgradeable/token/ERC20/utils/SafeERC20Upgradeable.sol\":1089:1175  _callOptionalReturn(token, abi.encodeWithSelector(token.transfer.selector, to, value)) */\n      jump\t// in\n        /* \"@openzeppelin/contracts-upgradeable/token/ERC20/ERC20Upgradeable.sol\":8714:8922  function _mint(address account, uint256 value) internal {... */\n    tag_377:\n      sub(shl(0xa0, 0x01), 0x01)\n        /* \"@openzeppelin/contracts-upgradeable/token/ERC20/ERC20Upgradeable.sol\":8784:8805  account == address(0) */\n      dup3\n      and\n        /* \"@openzeppelin/contracts-upgradeable/token/ERC20/ERC20Upgradeable.sol\":8780:8871  if (account == address(0)) {... */\n      tag_528\n      jumpi\n        /* \"@openzeppelin/contracts-upgradeable/token/ERC20/ERC20Upgradeable.sol\":8828:8860  ERC20InvalidReceiver(address(0)) */\n      mload(0x40)\n      shl(0xe0, 0xec442f05)\n      dup2\n      mstore\n        /* \"@openzeppelin/contracts-upgradeable/token/ERC20/ERC20Upgradeable.sol\":8857:8858  0 */\n      0x00\n        /* \"@openzeppelin/contracts-upgradeable/token/ERC20/ERC20Upgradeable.sol\":8828:8860  ERC20InvalidReceiver(address(0)) */\n      0x04\n      dup3\n      add\n        /* \"#utility.yul\":5460:5511   */\n      mstore\n        /* \"#utility.yul\":5433:5451   */\n      0x24\n      add\n        /* \"@openzeppelin/contracts-upgradeable/token/ERC20/ERC20Upgradeable.sol\":8828:8860  ERC20InvalidReceiver(address(0)) */\n      tag_211\n        /* \"#utility.yul\":5314:5517   */\n      jump\n        /* \"@openzeppelin/contracts-upgradeable/token/ERC20/ERC20Upgradeable.sol\":8780:8871  if (account == address(0)) {... */\n    tag_528:\n        /* \"@openzeppelin/contracts-upgradeable/token/ERC20/ERC20Upgradeable.sol\":8880:8915  _update(address(0), account, value) */\n      tag_501\n        /* \"@openzeppelin/contracts-upgradeable/token/ERC20/ERC20Upgradeable.sol\":8896:8897  0 */\n      0x00\n        /* \"@openzeppelin/contracts-upgradeable/token/ERC20/ERC20Upgradeable.sol\":8900:8907  account */\n      dup4\n        /* \"@openzeppelin/contracts-upgradeable/token/ERC20/ERC20Upgradeable.sol\":8909:8914  value */\n      dup4\n        /* \"@openzeppelin/contracts-upgradeable/token/ERC20/ERC20Upgradeable.sol\":8880:8887  _update */\n      tag_493\n        /* \"@openzeppelin/contracts-upgradeable/token/ERC20/ERC20Upgradeable.sol\":8880:8915  _update(address(0), account, value) */\n      jump\t// in\n        /* \"contracts/tokens/BTSPair.sol\":16059:16501  function _updateRebalanceReserve() private {... */\n    tag_412:\n        /* \"contracts/tokens/BTSPair.sol\":16136:16142  tokens */\n      0x03\n        /* \"contracts/tokens/BTSPair.sol\":16136:16149  tokens.length */\n      sload\n      dup1\n      sub(shl(0x40, 0x01), 0x01)\n        /* \"contracts/tokens/BTSPair.sol\":16170:16197  new uint256[](tokensLength) */\n      dup2\n      gt\n      iszero\n      tag_533\n      jumpi\n      tag_533\n      tag_223\n      jump\t// in\n    tag_533:\n      mload(0x40)\n      swap1\n      dup1\n      dup3\n      mstore\n      dup1\n      0x20\n      mul\n      0x20\n      add\n      dup3\n      add\n      0x40\n      mstore\n      dup1\n      iszero\n      tag_534\n      jumpi\n      dup2\n      0x20\n      add\n      0x20\n      dup3\n      mul\n      dup1\n      calldatasize\n      dup4\n      calldatacopy\n      add\n      swap1\n      pop\n    tag_534:\n      pop\n        /* \"contracts/tokens/BTSPair.sol\":16159:16197  reserves = new uint256[](tokensLength) */\n      dup1\n      mload\n      tag_535\n      swap2\n        /* \"contracts/tokens/BTSPair.sol\":16159:16167  reserves */\n      0x04\n      swap2\n        /* \"contracts/tokens/BTSPair.sol\":16159:16197  reserves = new uint256[](tokensLength) */\n      0x20\n      swap1\n      swap2\n      add\n      swap1\n      tag_226\n      jump\t// in\n    tag_535:\n      pop\n        /* \"contracts/tokens/BTSPair.sol\":16213:16222  uint256 i */\n      0x00\n        /* \"contracts/tokens/BTSPair.sol\":16208:16495  for (uint256 i = 0; i < tokensLength; ) {... */\n    tag_536:\n        /* \"contracts/tokens/BTSPair.sol\":16232:16244  tokensLength */\n      dup2\n        /* \"contracts/tokens/BTSPair.sol\":16228:16229  i */\n      dup2\n        /* \"contracts/tokens/BTSPair.sol\":16228:16244  i < tokensLength */\n      lt\n        /* \"contracts/tokens/BTSPair.sol\":16208:16495  for (uint256 i = 0; i < tokensLength; ) {... */\n      iszero\n      tag_501\n      jumpi\n        /* \"contracts/tokens/BTSPair.sol\":16262:16275  address token */\n      0x00\n        /* \"contracts/tokens/BTSPair.sol\":16278:16284  tokens */\n      0x03\n        /* \"contracts/tokens/BTSPair.sol\":16285:16286  i */\n      dup3\n        /* \"contracts/tokens/BTSPair.sol\":16278:16287  tokens[i] */\n      dup2\n      sload\n      dup2\n      lt\n      tag_540\n      jumpi\n      tag_540\n      tag_251\n      jump\t// in\n    tag_540:\n      0x00\n      swap2\n      dup3\n      mstore\n      0x20\n      swap1\n      swap2\n      keccak256\n      add\n      sload\n        /* \"contracts/tokens/BTSPair.sol\":16342:16391  IERC20Upgradeable(token).balanceOf(address(this)) */\n      mload(0x40)\n      shl(0xe0, 0x70a08231)\n      dup2\n      mstore\n        /* \"contracts/tokens/BTSPair.sol\":16385:16389  this */\n      address\n        /* \"contracts/tokens/BTSPair.sol\":16342:16391  IERC20Upgradeable(token).balanceOf(address(this)) */\n      0x04\n      dup3\n      add\n        /* \"#utility.yul\":5460:5511   */\n      mstore\n      sub(shl(0xa0, 0x01), 0x01)\n        /* \"contracts/tokens/BTSPair.sol\":16278:16287  tokens[i] */\n      swap1\n      swap2\n      and\n      swap2\n      pop\n      dup2\n      swap1\n        /* \"contracts/tokens/BTSPair.sol\":16342:16376  IERC20Upgradeable(token).balanceOf */\n      0x70a08231\n      swap1\n        /* \"#utility.yul\":5433:5451   */\n      0x24\n      add\n        /* \"contracts/tokens/BTSPair.sol\":16342:16391  IERC20Upgradeable(token).balanceOf(address(this)) */\n      0x20\n      mload(0x40)\n      dup1\n      dup4\n      sub\n      dup2\n      dup7\n      gas\n      staticcall\n      iszero\n      dup1\n      iszero\n      tag_544\n      jumpi\n      returndatacopy(0x00, 0x00, returndatasize)\n      revert(0x00, returndatasize)\n    tag_544:\n      pop\n      pop\n      pop\n      pop\n      mload(0x40)\n      returndatasize\n      not(0x1f)\n      0x1f\n      dup3\n      add\n      and\n      dup3\n      add\n      dup1\n      0x40\n      mstore\n      pop\n      dup2\n      add\n      swap1\n      tag_545\n      swap2\n      swap1\n      tag_245\n      jump\t// in\n    tag_545:\n        /* \"contracts/tokens/BTSPair.sol\":16328:16336  reserves */\n      0x04\n        /* \"contracts/tokens/BTSPair.sol\":16337:16338  i */\n      dup4\n        /* \"contracts/tokens/BTSPair.sol\":16328:16339  reserves[i] */\n      dup2\n      sload\n      dup2\n      lt\n      tag_547\n      jumpi\n      tag_547\n      tag_251\n      jump\t// in\n    tag_547:\n      0x00\n      swap2\n      dup3\n      mstore\n      0x20\n      swap1\n      swap2\n      keccak256\n      add\n        /* \"contracts/tokens/BTSPair.sol\":16328:16391  reserves[i] = IERC20Upgradeable(token).balanceOf(address(this)) */\n      sstore\n      pop\n        /* \"contracts/tokens/BTSPair.sol\":16467:16470  ++i */\n      0x01\n      add\n        /* \"contracts/tokens/BTSPair.sol\":16208:16495  for (uint256 i = 0; i < tokensLength; ) {... */\n      jump(tag_536)\n        /* \"contracts/tokens/BTSPair.sol\":16691:17388  function _totalReservedETH() private view returns (uint256 totalReservedETH) {... */\n    tag_459:\n        /* \"contracts/tokens/BTSPair.sol\":16742:16766  uint256 totalReservedETH */\n      0x00\n        /* \"contracts/tokens/BTSPair.sol\":16778:16802  IFactory factoryInstance */\n      0x00\n        /* \"contracts/tokens/BTSPair.sol\":16805:16815  _factory() */\n      tag_550\n        /* \"contracts/tokens/BTSPair.sol\":15866:15874  IFactory */\n      0x00\n        /* \"contracts/tokens/BTSPair.sol\":15902:15909  factory */\n      sload\n      sub(shl(0xa0, 0x01), 0x01)\n      and\n      swap1\n        /* \"contracts/tokens/BTSPair.sol\":15824:15917  function _factory() private view returns (IFactory) {... */\n      jump\n        /* \"contracts/tokens/BTSPair.sol\":16805:16815  _factory() */\n    tag_550:\n        /* \"contracts/tokens/BTSPair.sol\":16778:16815  IFactory factoryInstance = _factory() */\n      swap1\n      pop\n        /* \"contracts/tokens/BTSPair.sol\":16825:16837  address weth */\n      0x00\n        /* \"contracts/tokens/BTSPair.sol\":16840:16855  factoryInstance */\n      dup2\n      sub(shl(0xa0, 0x01), 0x01)\n        /* \"contracts/tokens/BTSPair.sol\":16840:16860  factoryInstance.weth */\n      and\n      0x3fc8cef3\n        /* \"contracts/tokens/BTSPair.sol\":16840:16862  factoryInstance.weth() */\n      mload(0x40)\n      dup2\n      0xffffffff\n      and\n      0xe0\n      shl\n      dup2\n      mstore\n      0x04\n      add\n      0x20\n      mload(0x40)\n      dup1\n      dup4\n      sub\n      dup2\n      dup7\n      gas\n      staticcall\n      iszero\n      dup1\n      iszero\n      tag_552\n      jumpi\n      returndatacopy(0x00, 0x00, returndatasize)\n      revert(0x00, returndatasize)\n    tag_552:\n      pop\n      pop\n      pop\n      pop\n      mload(0x40)\n      returndatasize\n      not(0x1f)\n      0x1f\n      dup3\n      add\n      and\n      dup3\n      add\n      dup1\n      0x40\n      mstore\n      pop\n      dup2\n      add\n      swap1\n      tag_553\n      swap2\n      swap1\n      tag_304\n      jump\t// in\n    tag_553:\n        /* \"contracts/tokens/BTSPair.sol\":16915:16923  reserves */\n      0x04\n        /* \"contracts/tokens/BTSPair.sol\":16915:16930  reserves.length */\n      sload\n        /* \"contracts/tokens/BTSPair.sol\":16825:16862  address weth = factoryInstance.weth() */\n      swap1\n      swap2\n      pop\n        /* \"contracts/tokens/BTSPair.sol\":16898:16912  uint256 length */\n      0x00\n        /* \"contracts/tokens/BTSPair.sol\":16941:17382  for (uint256 i = 0; i < length; ) {... */\n    tag_554:\n        /* \"contracts/tokens/BTSPair.sol\":16965:16971  length */\n      dup2\n        /* \"contracts/tokens/BTSPair.sol\":16961:16962  i */\n      dup2\n        /* \"contracts/tokens/BTSPair.sol\":16961:16971  i < length */\n      lt\n        /* \"contracts/tokens/BTSPair.sol\":16941:17382  for (uint256 i = 0; i < length; ) {... */\n      iszero\n      tag_555\n      jumpi\n        /* \"contracts/tokens/BTSPair.sol\":16989:17004  uint256 reserve */\n      0x00\n        /* \"contracts/tokens/BTSPair.sol\":17007:17015  reserves */\n      0x04\n        /* \"contracts/tokens/BTSPair.sol\":17016:17017  i */\n      dup3\n        /* \"contracts/tokens/BTSPair.sol\":17007:17018  reserves[i] */\n      dup2\n      sload\n      dup2\n      lt\n      tag_558\n      jumpi\n      tag_558\n      tag_251\n      jump\t// in\n    tag_558:\n      swap1\n      0x00\n      mstore\n      keccak256(0x00, 0x20)\n      add\n      sload\n        /* \"contracts/tokens/BTSPair.sol\":16989:17018  uint256 reserve = reserves[i] */\n      swap1\n      pop\n        /* \"contracts/tokens/BTSPair.sol\":17046:17047  0 */\n      0x00\n        /* \"contracts/tokens/BTSPair.sol\":17036:17043  reserve */\n      dup2\n        /* \"contracts/tokens/BTSPair.sol\":17036:17047  reserve > 0 */\n      gt\n        /* \"contracts/tokens/BTSPair.sol\":17032:17312  if (reserve > 0) {... */\n      iszero\n      tag_560\n      jumpi\n        /* \"contracts/tokens/BTSPair.sol\":17067:17080  address token */\n      0x00\n        /* \"contracts/tokens/BTSPair.sol\":17083:17089  tokens */\n      0x03\n        /* \"contracts/tokens/BTSPair.sol\":17090:17091  i */\n      dup4\n        /* \"contracts/tokens/BTSPair.sol\":17083:17092  tokens[i] */\n      dup2\n      sload\n      dup2\n      lt\n      tag_562\n      jumpi\n      tag_562\n      tag_251\n      jump\t// in\n    tag_562:\n      0x00\n      swap2\n      dup3\n      mstore\n      0x20\n      dup3\n      keccak256\n      add\n      sload\n        /* \"contracts/tokens/BTSPair.sol\":17161:17197  factoryInstance.getPath(token, weth) */\n      mload(0x40)\n      shl(0xe0, 0xd88e3e3b)\n      dup2\n      mstore\n      sub(shl(0xa0, 0x01), 0x01)\n        /* \"contracts/tokens/BTSPair.sol\":17083:17092  tokens[i] */\n      swap2\n      dup3\n      and\n        /* \"contracts/tokens/BTSPair.sol\":17161:17197  factoryInstance.getPath(token, weth) */\n      0x04\n      dup3\n      add\n        /* \"#utility.yul\":11776:11827   */\n      dup2\n      swap1\n      mstore\n        /* \"#utility.yul\":11863:11895   */\n      dup9\n      dup4\n      and\n        /* \"#utility.yul\":11843:11861   */\n      0x24\n      dup4\n      add\n        /* \"#utility.yul\":11836:11896   */\n      mstore\n        /* \"contracts/tokens/BTSPair.sol\":17083:17092  tokens[i] */\n      swap4\n      pop\n        /* \"contracts/tokens/BTSPair.sol\":17161:17184  factoryInstance.getPath */\n      swap1\n      dup9\n      and\n      swap1\n      0xd88e3e3b\n      swap1\n        /* \"#utility.yul\":11749:11767   */\n      0x44\n      add\n        /* \"contracts/tokens/BTSPair.sol\":17161:17197  factoryInstance.getPath(token, weth) */\n      0x00\n      mload(0x40)\n      dup1\n      dup4\n      sub\n      dup2\n      dup7\n      gas\n      staticcall\n      iszero\n      dup1\n      iszero\n      tag_566\n      jumpi\n      returndatacopy(0x00, 0x00, returndatasize)\n      revert(0x00, returndatasize)\n    tag_566:\n      pop\n      pop\n      pop\n      pop\n      mload(0x40)\n      returndatasize\n      0x00\n      dup3\n      returndatacopy\n      0x1f\n      returndatasize\n      swap1\n      dup2\n      add\n      not(0x1f)\n      and\n      dup3\n      add\n      0x40\n      mstore\n      tag_567\n      swap2\n      swap1\n      dup2\n      add\n      swap1\n      tag_320\n      jump\t// in\n    tag_567:\n        /* \"contracts/tokens/BTSPair.sol\":17253:17297  factoryInstance.getAmountsOut(reserve, path) */\n      mload(0x40)\n      shl(0xe0, 0xd06ca61f)\n      dup2\n      mstore\n        /* \"contracts/tokens/BTSPair.sol\":17137:17197  address[] memory path = factoryInstance.getPath(token, weth) */\n      swap1\n      swap2\n      pop\n      sub(shl(0xa0, 0x01), 0x01)\n        /* \"contracts/tokens/BTSPair.sol\":17253:17282  factoryInstance.getAmountsOut */\n      dup9\n      and\n      swap1\n      0xd06ca61f\n      swap1\n        /* \"contracts/tokens/BTSPair.sol\":17253:17297  factoryInstance.getAmountsOut(reserve, path) */\n      tag_568\n      swap1\n        /* \"contracts/tokens/BTSPair.sol\":17283:17290  reserve */\n      dup7\n      swap1\n        /* \"contracts/tokens/BTSPair.sol\":17137:17197  address[] memory path = factoryInstance.getPath(token, weth) */\n      dup6\n      swap1\n        /* \"contracts/tokens/BTSPair.sol\":17253:17297  factoryInstance.getAmountsOut(reserve, path) */\n      0x04\n      add\n      tag_325\n      jump\t// in\n    tag_568:\n      0x20\n      mload(0x40)\n      dup1\n      dup4\n      sub\n      dup2\n      dup7\n      gas\n      staticcall\n      iszero\n      dup1\n      iszero\n      tag_570\n      jumpi\n      returndatacopy(0x00, 0x00, returndatasize)\n      revert(0x00, returndatasize)\n    tag_570:\n      pop\n      pop\n      pop\n      pop\n      mload(0x40)\n      returndatasize\n      not(0x1f)\n      0x1f\n      dup3\n      add\n      and\n      dup3\n      add\n      dup1\n      0x40\n      mstore\n      pop\n      dup2\n      add\n      swap1\n      tag_571\n      swap2\n      swap1\n      tag_245\n      jump\t// in\n    tag_571:\n        /* \"contracts/tokens/BTSPair.sol\":17233:17297  totalReservedETH += factoryInstance.getAmountsOut(reserve, path) */\n      tag_572\n      swap1\n      dup10\n      tag_180\n      jump\t// in\n    tag_572:\n      swap8\n      pop\n        /* \"contracts/tokens/BTSPair.sol\":17049:17312  {... */\n      pop\n      pop\n        /* \"contracts/tokens/BTSPair.sol\":17032:17312  if (reserve > 0) {... */\n    tag_560:\n      pop\n        /* \"contracts/tokens/BTSPair.sol\":17354:17357  ++i */\n      0x01\n      add\n        /* \"contracts/tokens/BTSPair.sol\":16941:17382  for (uint256 i = 0; i < length; ) {... */\n      jump(tag_554)\n    tag_555:\n      pop\n        /* \"contracts/tokens/BTSPair.sol\":16768:17388  {... */\n      pop\n      pop\n      pop\n        /* \"contracts/tokens/BTSPair.sol\":16691:17388  function _totalReservedETH() private view returns (uint256 totalReservedETH) {... */\n      swap1\n      jump\t// out\n        /* \"@openzeppelin/contracts-upgradeable/token/ERC20/ERC20Upgradeable.sol\":10957:11444  function _approve(address owner, address spender, uint256 value, bool emitEvent) internal virtual {... */\n    tag_479:\n      mload(0x00)\n      codecopy(0x00, data_3874827173e8df9f34323b12b251d1d3c53926ce129e30a0d69f1d47c277041b, 0x20)\n      mload(0x00)\n      swap1\n      0x00\n      mstore\n      sub(shl(0xa0, 0x01), 0x01)\n        /* \"@openzeppelin/contracts-upgradeable/token/ERC20/ERC20Upgradeable.sol\":11122:11141  owner == address(0) */\n      dup6\n      and\n        /* \"@openzeppelin/contracts-upgradeable/token/ERC20/ERC20Upgradeable.sol\":11118:11207  if (owner == address(0)) {... */\n      tag_575\n      jumpi\n        /* \"@openzeppelin/contracts-upgradeable/token/ERC20/ERC20Upgradeable.sol\":11164:11196  ERC20InvalidApprover(address(0)) */\n      mload(0x40)\n      shl(0xe0, 0xe602df05)\n      dup2\n      mstore\n        /* \"@openzeppelin/contracts-upgradeable/token/ERC20/ERC20Upgradeable.sol\":11193:11194  0 */\n      0x00\n        /* \"@openzeppelin/contracts-upgradeable/token/ERC20/ERC20Upgradeable.sol\":11164:11196  ERC20InvalidApprover(address(0)) */\n      0x04\n      dup3\n      add\n        /* \"#utility.yul\":5460:5511   */\n      mstore\n        /* \"#utility.yul\":5433:5451   */\n      0x24\n      add\n        /* \"@openzeppelin/contracts-upgradeable/token/ERC20/ERC20Upgradeable.sol\":11164:11196  ERC20InvalidApprover(address(0)) */\n      tag_211\n        /* \"#utility.yul\":5314:5517   */\n      jump\n        /* \"@openzeppelin/contracts-upgradeable/token/ERC20/ERC20Upgradeable.sol\":11118:11207  if (owner == address(0)) {... */\n    tag_575:\n      sub(shl(0xa0, 0x01), 0x01)\n        /* \"@openzeppelin/contracts-upgradeable/token/ERC20/ERC20Upgradeable.sol\":11220:11241  spender == address(0) */\n      dup5\n      and\n        /* \"@openzeppelin/contracts-upgradeable/token/ERC20/ERC20Upgradeable.sol\":11216:11306  if (spender == address(0)) {... */\n      tag_577\n      jumpi\n        /* \"@openzeppelin/contracts-upgradeable/token/ERC20/ERC20Upgradeable.sol\":11264:11295  ERC20InvalidSpender(address(0)) */\n      mload(0x40)\n      shl(0xe1, 0x4a1406b1)\n      dup2\n      mstore\n        /* \"@openzeppelin/contracts-upgradeable/token/ERC20/ERC20Upgradeable.sol\":11292:11293  0 */\n      0x00\n        /* \"@openzeppelin/contracts-upgradeable/token/ERC20/ERC20Upgradeable.sol\":11264:11295  ERC20InvalidSpender(address(0)) */\n      0x04\n      dup3\n      add\n        /* \"#utility.yul\":5460:5511   */\n      mstore\n        /* \"#utility.yul\":5433:5451   */\n      0x24\n      add\n        /* \"@openzeppelin/contracts-upgradeable/token/ERC20/ERC20Upgradeable.sol\":11264:11295  ERC20InvalidSpender(address(0)) */\n      tag_211\n        /* \"#utility.yul\":5314:5517   */\n      jump\n        /* \"@openzeppelin/contracts-upgradeable/token/ERC20/ERC20Upgradeable.sol\":11216:11306  if (spender == address(0)) {... */\n    tag_577:\n      sub(shl(0xa0, 0x01), 0x01)\n        /* \"@openzeppelin/contracts-upgradeable/token/ERC20/ERC20Upgradeable.sol\":11315:11335  $._allowances[owner] */\n      dup1\n      dup7\n      and\n      0x00\n      swap1\n      dup2\n      mstore\n        /* \"@openzeppelin/contracts-upgradeable/token/ERC20/ERC20Upgradeable.sol\":11315:11328  $._allowances */\n      0x01\n      dup4\n      add\n        /* \"@openzeppelin/contracts-upgradeable/token/ERC20/ERC20Upgradeable.sol\":11315:11335  $._allowances[owner] */\n      0x20\n      swap1\n      dup2\n      mstore\n      0x40\n      dup1\n      dup4\n      keccak256\n        /* \"@openzeppelin/contracts-upgradeable/token/ERC20/ERC20Upgradeable.sol\":11315:11344  $._allowances[owner][spender] */\n      swap4\n      dup9\n      and\n      dup4\n      mstore\n      swap3\n      swap1\n      mstore\n      keccak256\n        /* \"@openzeppelin/contracts-upgradeable/token/ERC20/ERC20Upgradeable.sol\":11315:11352  $._allowances[owner][spender] = value */\n      dup4\n      swap1\n      sstore\n        /* \"@openzeppelin/contracts-upgradeable/token/ERC20/ERC20Upgradeable.sol\":11362:11438  if (emitEvent) {... */\n      dup2\n      iszero\n      tag_579\n      jumpi\n        /* \"@openzeppelin/contracts-upgradeable/token/ERC20/ERC20Upgradeable.sol\":11412:11419  spender */\n      dup4\n      sub(shl(0xa0, 0x01), 0x01)\n        /* \"@openzeppelin/contracts-upgradeable/token/ERC20/ERC20Upgradeable.sol\":11396:11427  Approval(owner, spender, value) */\n      and\n        /* \"@openzeppelin/contracts-upgradeable/token/ERC20/ERC20Upgradeable.sol\":11405:11410  owner */\n      dup6\n      sub(shl(0xa0, 0x01), 0x01)\n        /* \"@openzeppelin/contracts-upgradeable/token/ERC20/ERC20Upgradeable.sol\":11396:11427  Approval(owner, spender, value) */\n      and\n      0x8c5be1e5ebec7d5bd14f71427d1e84f3dd0314c0f7b2291e5b200ac8c7c3b925\n        /* \"@openzeppelin/contracts-upgradeable/token/ERC20/ERC20Upgradeable.sol\":11421:11426  value */\n      dup6\n        /* \"@openzeppelin/contracts-upgradeable/token/ERC20/ERC20Upgradeable.sol\":11396:11427  Approval(owner, spender, value) */\n      mload(0x40)\n      tag_580\n      swap2\n        /* \"#utility.yul\":583:608   */\n      dup2\n      mstore\n        /* \"#utility.yul\":571:573   */\n      0x20\n        /* \"#utility.yul\":556:574   */\n      add\n      swap1\n        /* \"#utility.yul\":437:614   */\n      jump\n        /* \"@openzeppelin/contracts-upgradeable/token/ERC20/ERC20Upgradeable.sol\":11396:11427  Approval(owner, spender, value) */\n    tag_580:\n      mload(0x40)\n      dup1\n      swap2\n      sub\n      swap1\n      log3\n        /* \"@openzeppelin/contracts-upgradeable/token/ERC20/ERC20Upgradeable.sol\":11362:11438  if (emitEvent) {... */\n    tag_579:\n        /* \"@openzeppelin/contracts-upgradeable/token/ERC20/ERC20Upgradeable.sol\":11055:11444  {... */\n      pop\n        /* \"@openzeppelin/contracts-upgradeable/token/ERC20/ERC20Upgradeable.sol\":10957:11444  function _approve(address owner, address spender, uint256 value, bool emitEvent) internal virtual {... */\n      pop\n      pop\n      pop\n      pop\n      jump\t// out\n        /* \"@openzeppelin/contracts-upgradeable/token/ERC20/ERC20Upgradeable.sol\":7201:8371  function _update(address from, address to, uint256 value) internal virtual {... */\n    tag_493:\n      mload(0x00)\n      codecopy(0x00, data_3874827173e8df9f34323b12b251d1d3c53926ce129e30a0d69f1d47c277041b, 0x20)\n      mload(0x00)\n      swap1\n      0x00\n      mstore\n      sub(shl(0xa0, 0x01), 0x01)\n        /* \"@openzeppelin/contracts-upgradeable/token/ERC20/ERC20Upgradeable.sol\":7343:7361  from == address(0) */\n      dup5\n      and\n        /* \"@openzeppelin/contracts-upgradeable/token/ERC20/ERC20Upgradeable.sol\":7339:7885  if (from == address(0)) {... */\n      tag_583\n      jumpi\n        /* \"@openzeppelin/contracts-upgradeable/token/ERC20/ERC20Upgradeable.sol\":7497:7502  value */\n      dup2\n        /* \"@openzeppelin/contracts-upgradeable/token/ERC20/ERC20Upgradeable.sol\":7479:7480  $ */\n      dup2\n        /* \"@openzeppelin/contracts-upgradeable/token/ERC20/ERC20Upgradeable.sol\":7479:7493  $._totalSupply */\n      0x02\n      add\n      0x00\n        /* \"@openzeppelin/contracts-upgradeable/token/ERC20/ERC20Upgradeable.sol\":7479:7502  $._totalSupply += value */\n      dup3\n      dup3\n      sload\n      tag_584\n      swap2\n      swap1\n      tag_180\n      jump\t// in\n    tag_584:\n      swap1\n      swap2\n      sstore\n      pop\n        /* \"@openzeppelin/contracts-upgradeable/token/ERC20/ERC20Upgradeable.sol\":7339:7885  if (from == address(0)) {... */\n      tag_585\n      swap1\n      pop\n      jump\n    tag_583:\n      sub(shl(0xa0, 0x01), 0x01)\n        /* \"@openzeppelin/contracts-upgradeable/token/ERC20/ERC20Upgradeable.sol\":7555:7572  $._balances[from] */\n      dup5\n      and\n        /* \"@openzeppelin/contracts-upgradeable/token/ERC20/ERC20Upgradeable.sol\":7533:7552  uint256 fromBalance */\n      0x00\n        /* \"@openzeppelin/contracts-upgradeable/token/ERC20/ERC20Upgradeable.sol\":7555:7572  $._balances[from] */\n      swap1\n      dup2\n      mstore\n      0x20\n      dup3\n      swap1\n      mstore\n      0x40\n      swap1\n      keccak256\n      sload\n        /* \"@openzeppelin/contracts-upgradeable/token/ERC20/ERC20Upgradeable.sol\":7590:7609  fromBalance < value */\n      dup3\n      dup2\n      lt\n        /* \"@openzeppelin/contracts-upgradeable/token/ERC20/ERC20Upgradeable.sol\":7586:7701  if (fromBalance < value) {... */\n      iszero\n      tag_586\n      jumpi\n        /* \"@openzeppelin/contracts-upgradeable/token/ERC20/ERC20Upgradeable.sol\":7636:7686  ERC20InsufficientBalance(from, fromBalance, value) */\n      mload(0x40)\n      shl(0xe2, 0x391434e3)\n      dup2\n      mstore\n      sub(shl(0xa0, 0x01), 0x01)\n        /* \"#utility.yul\":14728:14760   */\n      dup7\n      and\n        /* \"@openzeppelin/contracts-upgradeable/token/ERC20/ERC20Upgradeable.sol\":7636:7686  ERC20InsufficientBalance(from, fromBalance, value) */\n      0x04\n      dup3\n      add\n        /* \"#utility.yul\":14710:14761   */\n      mstore\n        /* \"#utility.yul\":14777:14795   */\n      0x24\n      dup2\n      add\n        /* \"#utility.yul\":14770:14804   */\n      dup3\n      swap1\n      mstore\n        /* \"#utility.yul\":14820:14838   */\n      0x44\n      dup2\n      add\n        /* \"#utility.yul\":14813:14847   */\n      dup5\n      swap1\n      mstore\n        /* \"#utility.yul\":14683:14701   */\n      0x64\n      add\n        /* \"@openzeppelin/contracts-upgradeable/token/ERC20/ERC20Upgradeable.sol\":7636:7686  ERC20InsufficientBalance(from, fromBalance, value) */\n      tag_211\n        /* \"#utility.yul\":14508:14853   */\n      jump\n        /* \"@openzeppelin/contracts-upgradeable/token/ERC20/ERC20Upgradeable.sol\":7586:7701  if (fromBalance < value) {... */\n    tag_586:\n      sub(shl(0xa0, 0x01), 0x01)\n        /* \"@openzeppelin/contracts-upgradeable/token/ERC20/ERC20Upgradeable.sol\":7821:7838  $._balances[from] */\n      dup6\n      and\n        /* \"@openzeppelin/contracts-upgradeable/token/ERC20/ERC20Upgradeable.sol\":7821:7832  $._balances */\n      0x00\n        /* \"@openzeppelin/contracts-upgradeable/token/ERC20/ERC20Upgradeable.sol\":7821:7838  $._balances[from] */\n      swap1\n      dup2\n      mstore\n      0x20\n      dup4\n      swap1\n      mstore\n      0x40\n      swap1\n      keccak256\n        /* \"@openzeppelin/contracts-upgradeable/token/ERC20/ERC20Upgradeable.sol\":7841:7860  fromBalance - value */\n      swap1\n      dup4\n      swap1\n      sub\n        /* \"@openzeppelin/contracts-upgradeable/token/ERC20/ERC20Upgradeable.sol\":7821:7860  $._balances[from] = fromBalance - value */\n      swap1\n      sstore\n        /* \"@openzeppelin/contracts-upgradeable/token/ERC20/ERC20Upgradeable.sol\":7339:7885  if (from == address(0)) {... */\n    tag_585:\n      sub(shl(0xa0, 0x01), 0x01)\n        /* \"@openzeppelin/contracts-upgradeable/token/ERC20/ERC20Upgradeable.sol\":7899:7915  to == address(0) */\n      dup4\n      and\n        /* \"@openzeppelin/contracts-upgradeable/token/ERC20/ERC20Upgradeable.sol\":7895:8324  if (to == address(0)) {... */\n      tag_588\n      jumpi\n        /* \"@openzeppelin/contracts-upgradeable/token/ERC20/ERC20Upgradeable.sol\":8062:8076  $._totalSupply */\n      0x02\n      dup2\n      add\n        /* \"@openzeppelin/contracts-upgradeable/token/ERC20/ERC20Upgradeable.sol\":8062:8085  $._totalSupply -= value */\n      dup1\n      sload\n      dup4\n      swap1\n      sub\n      swap1\n      sstore\n        /* \"@openzeppelin/contracts-upgradeable/token/ERC20/ERC20Upgradeable.sol\":7895:8324  if (to == address(0)) {... */\n      jump(tag_589)\n    tag_588:\n      sub(shl(0xa0, 0x01), 0x01)\n        /* \"@openzeppelin/contracts-upgradeable/token/ERC20/ERC20Upgradeable.sol\":8275:8290  $._balances[to] */\n      dup4\n      and\n        /* \"@openzeppelin/contracts-upgradeable/token/ERC20/ERC20Upgradeable.sol\":8275:8286  $._balances */\n      0x00\n        /* \"@openzeppelin/contracts-upgradeable/token/ERC20/ERC20Upgradeable.sol\":8275:8290  $._balances[to] */\n      swap1\n      dup2\n      mstore\n      0x20\n      dup3\n      swap1\n      mstore\n      0x40\n      swap1\n      keccak256\n        /* \"@openzeppelin/contracts-upgradeable/token/ERC20/ERC20Upgradeable.sol\":8275:8299  $._balances[to] += value */\n      dup1\n      sload\n      dup4\n      add\n      swap1\n      sstore\n        /* \"@openzeppelin/contracts-upgradeable/token/ERC20/ERC20Upgradeable.sol\":7895:8324  if (to == address(0)) {... */\n    tag_589:\n        /* \"@openzeppelin/contracts-upgradeable/token/ERC20/ERC20Upgradeable.sol\":8354:8356  to */\n      dup3\n      sub(shl(0xa0, 0x01), 0x01)\n        /* \"@openzeppelin/contracts-upgradeable/token/ERC20/ERC20Upgradeable.sol\":8339:8364  Transfer(from, to, value) */\n      and\n        /* \"@openzeppelin/contracts-upgradeable/token/ERC20/ERC20Upgradeable.sol\":8348:8352  from */\n      dup5\n      sub(shl(0xa0, 0x01), 0x01)\n        /* \"@openzeppelin/contracts-upgradeable/token/ERC20/ERC20Upgradeable.sol\":8339:8364  Transfer(from, to, value) */\n      and\n      0xddf252ad1be2c89b69c2b068fc378daa952ba7f163c4a11628f55a4df523b3ef\n        /* \"@openzeppelin/contracts-upgradeable/token/ERC20/ERC20Upgradeable.sol\":8358:8363  value */\n      dup5\n        /* \"@openzeppelin/contracts-upgradeable/token/ERC20/ERC20Upgradeable.sol\":8339:8364  Transfer(from, to, value) */\n      mload(0x40)\n      tag_590\n      swap2\n        /* \"#utility.yul\":583:608   */\n      dup2\n      mstore\n        /* \"#utility.yul\":571:573   */\n      0x20\n        /* \"#utility.yul\":556:574   */\n      add\n      swap1\n        /* \"#utility.yul\":437:614   */\n      jump\n        /* \"@openzeppelin/contracts-upgradeable/token/ERC20/ERC20Upgradeable.sol\":8339:8364  Transfer(from, to, value) */\n    tag_590:\n      mload(0x40)\n      dup1\n      swap2\n      sub\n      swap1\n      log3\n        /* \"@openzeppelin/contracts-upgradeable/token/ERC20/ERC20Upgradeable.sol\":7276:8371  {... */\n      pop\n        /* \"@openzeppelin/contracts-upgradeable/token/ERC20/ERC20Upgradeable.sol\":7201:8371  function _update(address from, address to, uint256 value) internal virtual {... */\n      pop\n      pop\n      pop\n      jump\t// out\n        /* \"@openzeppelin/contracts-upgradeable/proxy/utils/Initializable.sol\":7082:7223  function _checkInitializing() internal view virtual {... */\n    tag_499:\n        /* \"@openzeppelin/contracts-upgradeable/proxy/utils/Initializable.sol\":7149:7166  _isInitializing() */\n      tag_593\n        /* \"@openzeppelin/contracts-upgradeable/proxy/utils/Initializable.sol\":7149:7164  _isInitializing */\n      tag_594\n        /* \"@openzeppelin/contracts-upgradeable/proxy/utils/Initializable.sol\":7149:7166  _isInitializing() */\n      jump\t// in\n    tag_593:\n        /* \"@openzeppelin/contracts-upgradeable/proxy/utils/Initializable.sol\":7144:7217  if (!_isInitializing()) {... */\n      tag_259\n      jumpi\n        /* \"@openzeppelin/contracts-upgradeable/proxy/utils/Initializable.sol\":7189:7206  NotInitializing() */\n      mload(0x40)\n      shl(0xe3, 0x1afcd79f)\n      dup2\n      mstore\n      0x04\n      add\n      mload(0x40)\n      dup1\n      swap2\n      sub\n      swap1\n      revert\n        /* \"@openzeppelin/contracts-upgradeable/token/ERC20/ERC20Upgradeable.sol\":2416:2632  function __ERC20_init_unchained(string memory name_, string memory symbol_) internal onlyInitializing {... */\n    tag_502:\n        /* \"@openzeppelin/contracts-upgradeable/proxy/utils/Initializable.sol\":6929:6949  _checkInitializing() */\n      tag_597\n        /* \"@openzeppelin/contracts-upgradeable/proxy/utils/Initializable.sol\":6929:6947  _checkInitializing */\n      tag_499\n        /* \"@openzeppelin/contracts-upgradeable/proxy/utils/Initializable.sol\":6929:6949  _checkInitializing() */\n      jump\t// in\n    tag_597:\n      mload(0x00)\n      codecopy(0x00, data_3874827173e8df9f34323b12b251d1d3c53926ce129e30a0d69f1d47c277041b, 0x20)\n      mload(0x00)\n      swap1\n      0x00\n      mstore\n        /* \"@openzeppelin/contracts-upgradeable/token/ERC20/ERC20Upgradeable.sol\":2581:2588  $._name */\n      0x52c63247e1f47db19d5ce0460030c497f067ca4cebf71ba98eeadabe20bace03\n        /* \"@openzeppelin/contracts-upgradeable/token/ERC20/ERC20Upgradeable.sol\":2581:2596  $._name = name_ */\n      tag_600\n        /* \"@openzeppelin/contracts-upgradeable/token/ERC20/ERC20Upgradeable.sol\":2591:2596  name_ */\n      dup5\n        /* \"@openzeppelin/contracts-upgradeable/token/ERC20/ERC20Upgradeable.sol\":2581:2588  $._name */\n      dup3\n        /* \"@openzeppelin/contracts-upgradeable/token/ERC20/ERC20Upgradeable.sol\":2581:2596  $._name = name_ */\n      tag_601\n      jump\t// in\n    tag_600:\n      pop\n        /* \"@openzeppelin/contracts-upgradeable/token/ERC20/ERC20Upgradeable.sol\":2606:2615  $._symbol */\n      0x04\n      dup2\n      add\n        /* \"@openzeppelin/contracts-upgradeable/token/ERC20/ERC20Upgradeable.sol\":2606:2625  $._symbol = symbol_ */\n      tag_486\n        /* \"@openzeppelin/contracts-upgradeable/token/ERC20/ERC20Upgradeable.sol\":2618:2625  symbol_ */\n      dup4\n        /* \"@openzeppelin/contracts-upgradeable/token/ERC20/ERC20Upgradeable.sol\":2606:2615  $._symbol */\n      dup3\n        /* \"@openzeppelin/contracts-upgradeable/token/ERC20/ERC20Upgradeable.sol\":2606:2625  $._symbol = symbol_ */\n      tag_601\n      jump\t// in\n        /* \"@openzeppelin/contracts-upgradeable/access/OwnableUpgradeable.sol\":1980:2215  function __Ownable_init_unchained(address initialOwner) internal onlyInitializing {... */\n    tag_507:\n        /* \"@openzeppelin/contracts-upgradeable/proxy/utils/Initializable.sol\":6929:6949  _checkInitializing() */\n      tag_470\n        /* \"@openzeppelin/contracts-upgradeable/proxy/utils/Initializable.sol\":6929:6947  _checkInitializing */\n      tag_499\n        /* \"@openzeppelin/contracts-upgradeable/proxy/utils/Initializable.sol\":6929:6949  _checkInitializing() */\n      jump\t// in\n        /* \"@openzeppelin/contracts-upgradeable/token/ERC20/utils/SafeERC20Upgradeable.sol\":5328:5981  function _callOptionalReturn(IERC20Upgradeable token, bytes memory data) private {... */\n    tag_525:\n        /* \"@openzeppelin/contracts-upgradeable/token/ERC20/utils/SafeERC20Upgradeable.sol\":5758:5781  bytes memory returndata */\n      0x00\n        /* \"@openzeppelin/contracts-upgradeable/token/ERC20/utils/SafeERC20Upgradeable.sol\":5784:5853  address(token).functionCall(data, \"SafeERC20: low-level call failed\") */\n      tag_610\n        /* \"@openzeppelin/contracts-upgradeable/token/ERC20/utils/SafeERC20Upgradeable.sol\":5812:5816  data */\n      dup3\n        /* \"@openzeppelin/contracts-upgradeable/token/ERC20/utils/SafeERC20Upgradeable.sol\":5784:5853  address(token).functionCall(data, \"SafeERC20: low-level call failed\") */\n      mload(0x40)\n      dup1\n      0x40\n      add\n      0x40\n      mstore\n      dup1\n      0x20\n      dup2\n      mstore\n      0x20\n      add\n      0x5361666545524332303a206c6f772d6c6576656c2063616c6c206661696c6564\n      dup2\n      mstore\n      pop\n        /* \"@openzeppelin/contracts-upgradeable/token/ERC20/utils/SafeERC20Upgradeable.sol\":5792:5797  token */\n      dup6\n      sub(shl(0xa0, 0x01), 0x01)\n        /* \"@openzeppelin/contracts-upgradeable/token/ERC20/utils/SafeERC20Upgradeable.sol\":5784:5811  address(token).functionCall */\n      and\n      tag_611\n      swap1\n        /* \"@openzeppelin/contracts-upgradeable/token/ERC20/utils/SafeERC20Upgradeable.sol\":5784:5853  address(token).functionCall(data, \"SafeERC20: low-level call failed\") */\n      swap3\n      swap2\n      swap1\n      0xffffffff\n      and\n      jump\t// in\n    tag_610:\n        /* \"@openzeppelin/contracts-upgradeable/token/ERC20/utils/SafeERC20Upgradeable.sol\":5758:5853  bytes memory returndata = address(token).functionCall(data, \"SafeERC20: low-level call failed\") */\n      swap1\n      pop\n        /* \"@openzeppelin/contracts-upgradeable/token/ERC20/utils/SafeERC20Upgradeable.sol\":5871:5881  returndata */\n      dup1\n        /* \"@openzeppelin/contracts-upgradeable/token/ERC20/utils/SafeERC20Upgradeable.sol\":5871:5888  returndata.length */\n      mload\n        /* \"@openzeppelin/contracts-upgradeable/token/ERC20/utils/SafeERC20Upgradeable.sol\":5892:5893  0 */\n      0x00\n        /* \"@openzeppelin/contracts-upgradeable/token/ERC20/utils/SafeERC20Upgradeable.sol\":5871:5893  returndata.length == 0 */\n      eq\n        /* \"@openzeppelin/contracts-upgradeable/token/ERC20/utils/SafeERC20Upgradeable.sol\":5871:5927  returndata.length == 0 || abi.decode(returndata, (bool)) */\n      dup1\n      tag_613\n      jumpi\n      pop\n        /* \"@openzeppelin/contracts-upgradeable/token/ERC20/utils/SafeERC20Upgradeable.sol\":5908:5918  returndata */\n      dup1\n        /* \"@openzeppelin/contracts-upgradeable/token/ERC20/utils/SafeERC20Upgradeable.sol\":5897:5927  abi.decode(returndata, (bool)) */\n      dup1\n      0x20\n      add\n      swap1\n      mload\n      dup2\n      add\n      swap1\n      tag_613\n      swap2\n      swap1\n      tag_614\n      jump\t// in\n    tag_613:\n        /* \"@openzeppelin/contracts-upgradeable/token/ERC20/utils/SafeERC20Upgradeable.sol\":5863:5974  require(returndata.length == 0 || abi.decode(returndata, (bool)), \"SafeERC20: ERC20 operation did not succeed\") */\n      tag_358\n      jumpi\n      mload(0x40)\n      shl(0xe5, 0x461bcd)\n      dup2\n      mstore\n        /* \"#utility.yul\":17713:17715   */\n      0x20\n        /* \"@openzeppelin/contracts-upgradeable/token/ERC20/utils/SafeERC20Upgradeable.sol\":5863:5974  require(returndata.length == 0 || abi.decode(returndata, (bool)), \"SafeERC20: ERC20 operation did not succeed\") */\n      0x04\n      dup3\n      add\n        /* \"#utility.yul\":17695:17716   */\n      mstore\n        /* \"#utility.yul\":17752:17754   */\n      0x2a\n        /* \"#utility.yul\":17732:17750   */\n      0x24\n      dup3\n      add\n        /* \"#utility.yul\":17725:17755   */\n      mstore\n        /* \"#utility.yul\":17791:17825   */\n      0x5361666545524332303a204552433230206f7065726174696f6e20646964206e\n        /* \"#utility.yul\":17771:17789   */\n      0x44\n      dup3\n      add\n        /* \"#utility.yul\":17764:17826   */\n      mstore\n      shl(0xb2, 0x1bdd081cdd58d8d95959)\n        /* \"#utility.yul\":17842:17860   */\n      0x64\n      dup3\n      add\n        /* \"#utility.yul\":17835:17875   */\n      mstore\n        /* \"#utility.yul\":17892:17911   */\n      0x84\n      add\n        /* \"@openzeppelin/contracts-upgradeable/token/ERC20/utils/SafeERC20Upgradeable.sol\":5863:5974  require(returndata.length == 0 || abi.decode(returndata, (bool)), \"SafeERC20: ERC20 operation did not succeed\") */\n      tag_211\n        /* \"#utility.yul\":17511:17917   */\n      jump\n        /* \"@openzeppelin/contracts-upgradeable/proxy/utils/Initializable.sol\":8485:8605  function _isInitializing() internal view returns (bool) {... */\n    tag_594:\n        /* \"@openzeppelin/contracts-upgradeable/proxy/utils/Initializable.sol\":8535:8539  bool */\n      0x00\n        /* \"@openzeppelin/contracts-upgradeable/proxy/utils/Initializable.sol\":8558:8584  _getInitializableStorage() */\n      tag_619\n        /* \"@openzeppelin/contracts-upgradeable/proxy/utils/Initializable.sol\":8558:8582  _getInitializableStorage */\n      tag_202\n        /* \"@openzeppelin/contracts-upgradeable/proxy/utils/Initializable.sol\":8558:8584  _getInitializableStorage() */\n      jump\t// in\n    tag_619:\n        /* \"@openzeppelin/contracts-upgradeable/proxy/utils/Initializable.sol\":8558:8598  _getInitializableStorage()._initializing */\n      sload\n      shl(0x40, 0x01)\n      swap1\n      div\n      0xff\n      and\n      swap2\n      swap1\n      pop\n        /* \"@openzeppelin/contracts-upgradeable/proxy/utils/Initializable.sol\":8485:8605  function _isInitializing() internal view returns (bool) {... */\n      jump\t// out\n        /* \"@openzeppelin/contracts-upgradeable/utils/AddressUpgradeable.sol\":4119:4342  function functionCall(... */\n    tag_611:\n        /* \"@openzeppelin/contracts-upgradeable/utils/AddressUpgradeable.sol\":4252:4264  bytes memory */\n      0x60\n        /* \"@openzeppelin/contracts-upgradeable/utils/AddressUpgradeable.sol\":4283:4335  functionCallWithValue(target, data, 0, errorMessage) */\n      tag_621\n        /* \"@openzeppelin/contracts-upgradeable/utils/AddressUpgradeable.sol\":4305:4311  target */\n      dup5\n        /* \"@openzeppelin/contracts-upgradeable/utils/AddressUpgradeable.sol\":4313:4317  data */\n      dup5\n        /* \"@openzeppelin/contracts-upgradeable/utils/AddressUpgradeable.sol\":4319:4320  0 */\n      0x00\n        /* \"@openzeppelin/contracts-upgradeable/utils/AddressUpgradeable.sol\":4322:4334  errorMessage */\n      dup6\n        /* \"@openzeppelin/contracts-upgradeable/utils/AddressUpgradeable.sol\":4283:4304  functionCallWithValue */\n      tag_622\n        /* \"@openzeppelin/contracts-upgradeable/utils/AddressUpgradeable.sol\":4283:4335  functionCallWithValue(target, data, 0, errorMessage) */\n      jump\t// in\n    tag_621:\n        /* \"@openzeppelin/contracts-upgradeable/utils/AddressUpgradeable.sol\":4276:4335  return functionCallWithValue(target, data, 0, errorMessage) */\n      swap5\n        /* \"@openzeppelin/contracts-upgradeable/utils/AddressUpgradeable.sol\":4119:4342  function functionCall(... */\n      swap4\n      pop\n      pop\n      pop\n      pop\n      jump\t// out\n        /* \"@openzeppelin/contracts-upgradeable/utils/AddressUpgradeable.sol\":5176:5622  function functionCallWithValue(... */\n    tag_622:\n        /* \"@openzeppelin/contracts-upgradeable/utils/AddressUpgradeable.sol\":5341:5353  bytes memory */\n      0x60\n        /* \"@openzeppelin/contracts-upgradeable/utils/AddressUpgradeable.sol\":5398:5403  value */\n      dup3\n        /* \"@openzeppelin/contracts-upgradeable/utils/AddressUpgradeable.sol\":5373:5394  address(this).balance */\n      selfbalance\n        /* \"@openzeppelin/contracts-upgradeable/utils/AddressUpgradeable.sol\":5373:5403  address(this).balance >= value */\n      lt\n      iszero\n        /* \"@openzeppelin/contracts-upgradeable/utils/AddressUpgradeable.sol\":5365:5446  require(address(this).balance >= value, \"Address: insufficient balance for call\") */\n      tag_624\n      jumpi\n      mload(0x40)\n      shl(0xe5, 0x461bcd)\n      dup2\n      mstore\n        /* \"#utility.yul\":18124:18126   */\n      0x20\n        /* \"@openzeppelin/contracts-upgradeable/utils/AddressUpgradeable.sol\":5365:5446  require(address(this).balance >= value, \"Address: insufficient balance for call\") */\n      0x04\n      dup3\n      add\n        /* \"#utility.yul\":18106:18127   */\n      mstore\n        /* \"#utility.yul\":18163:18165   */\n      0x26\n        /* \"#utility.yul\":18143:18161   */\n      0x24\n      dup3\n      add\n        /* \"#utility.yul\":18136:18166   */\n      mstore\n        /* \"#utility.yul\":18202:18236   */\n      0x416464726573733a20696e73756666696369656e742062616c616e636520666f\n        /* \"#utility.yul\":18182:18200   */\n      0x44\n      dup3\n      add\n        /* \"#utility.yul\":18175:18237   */\n      mstore\n      shl(0xd2, 0x1c8818d85b1b)\n        /* \"#utility.yul\":18253:18271   */\n      0x64\n      dup3\n      add\n        /* \"#utility.yul\":18246:18282   */\n      mstore\n        /* \"#utility.yul\":18299:18318   */\n      0x84\n      add\n        /* \"@openzeppelin/contracts-upgradeable/utils/AddressUpgradeable.sol\":5365:5446  require(address(this).balance >= value, \"Address: insufficient balance for call\") */\n      tag_211\n        /* \"#utility.yul\":17922:18324   */\n      jump\n        /* \"@openzeppelin/contracts-upgradeable/utils/AddressUpgradeable.sol\":5365:5446  require(address(this).balance >= value, \"Address: insufficient balance for call\") */\n    tag_624:\n        /* \"@openzeppelin/contracts-upgradeable/utils/AddressUpgradeable.sol\":5457:5469  bool success */\n      0x00\n        /* \"@openzeppelin/contracts-upgradeable/utils/AddressUpgradeable.sol\":5471:5494  bytes memory returndata */\n      0x00\n        /* \"@openzeppelin/contracts-upgradeable/utils/AddressUpgradeable.sol\":5498:5504  target */\n      dup7\n      sub(shl(0xa0, 0x01), 0x01)\n        /* \"@openzeppelin/contracts-upgradeable/utils/AddressUpgradeable.sol\":5498:5509  target.call */\n      and\n        /* \"@openzeppelin/contracts-upgradeable/utils/AddressUpgradeable.sol\":5517:5522  value */\n      dup6\n        /* \"@openzeppelin/contracts-upgradeable/utils/AddressUpgradeable.sol\":5524:5528  data */\n      dup8\n        /* \"@openzeppelin/contracts-upgradeable/utils/AddressUpgradeable.sol\":5498:5529  target.call{value: value}(data) */\n      mload(0x40)\n      tag_627\n      swap2\n      swap1\n      tag_628\n      jump\t// in\n    tag_627:\n      0x00\n      mload(0x40)\n      dup1\n      dup4\n      sub\n      dup2\n      dup6\n      dup8\n      gas\n      call\n      swap3\n      pop\n      pop\n      pop\n      returndatasize\n      dup1\n      0x00\n      dup2\n      eq\n      tag_631\n      jumpi\n      mload(0x40)\n      swap2\n      pop\n      and(add(returndatasize, 0x3f), not(0x1f))\n      dup3\n      add\n      0x40\n      mstore\n      returndatasize\n      dup3\n      mstore\n      returndatasize\n      0x00\n      0x20\n      dup5\n      add\n      returndatacopy\n      jump(tag_630)\n    tag_631:\n      0x60\n      swap2\n      pop\n    tag_630:\n      pop\n        /* \"@openzeppelin/contracts-upgradeable/utils/AddressUpgradeable.sol\":5456:5529  (bool success, bytes memory returndata) = target.call{value: value}(data) */\n      swap2\n      pop\n      swap2\n      pop\n        /* \"@openzeppelin/contracts-upgradeable/utils/AddressUpgradeable.sol\":5546:5615  verifyCallResultFromTarget(target, success, returndata, errorMessage) */\n      tag_632\n        /* \"@openzeppelin/contracts-upgradeable/utils/AddressUpgradeable.sol\":5573:5579  target */\n      dup8\n        /* \"@openzeppelin/contracts-upgradeable/utils/AddressUpgradeable.sol\":5581:5588  success */\n      dup4\n        /* \"@openzeppelin/contracts-upgradeable/utils/AddressUpgradeable.sol\":5590:5600  returndata */\n      dup4\n        /* \"@openzeppelin/contracts-upgradeable/utils/AddressUpgradeable.sol\":5602:5614  errorMessage */\n      dup8\n        /* \"@openzeppelin/contracts-upgradeable/utils/AddressUpgradeable.sol\":5546:5572  verifyCallResultFromTarget */\n      tag_633\n        /* \"@openzeppelin/contracts-upgradeable/utils/AddressUpgradeable.sol\":5546:5615  verifyCallResultFromTarget(target, success, returndata, errorMessage) */\n      jump\t// in\n    tag_632:\n        /* \"@openzeppelin/contracts-upgradeable/utils/AddressUpgradeable.sol\":5539:5615  return verifyCallResultFromTarget(target, success, returndata, errorMessage) */\n      swap8\n        /* \"@openzeppelin/contracts-upgradeable/utils/AddressUpgradeable.sol\":5176:5622  function functionCallWithValue(... */\n      swap7\n      pop\n      pop\n      pop\n      pop\n      pop\n      pop\n      pop\n      jump\t// out\n        /* \"@openzeppelin/contracts-upgradeable/utils/AddressUpgradeable.sol\":7682:8310  function verifyCallResultFromTarget(... */\n    tag_633:\n        /* \"@openzeppelin/contracts-upgradeable/utils/AddressUpgradeable.sol\":7862:7874  bytes memory */\n      0x60\n        /* \"@openzeppelin/contracts-upgradeable/utils/AddressUpgradeable.sol\":7890:7897  success */\n      dup4\n        /* \"@openzeppelin/contracts-upgradeable/utils/AddressUpgradeable.sol\":7886:8304  if (success) {... */\n      iszero\n      tag_635\n      jumpi\n        /* \"@openzeppelin/contracts-upgradeable/utils/AddressUpgradeable.sol\":7917:7927  returndata */\n      dup3\n        /* \"@openzeppelin/contracts-upgradeable/utils/AddressUpgradeable.sol\":7917:7934  returndata.length */\n      mload\n        /* \"@openzeppelin/contracts-upgradeable/utils/AddressUpgradeable.sol\":7938:7939  0 */\n      0x00\n        /* \"@openzeppelin/contracts-upgradeable/utils/AddressUpgradeable.sol\":7917:7939  returndata.length == 0 */\n      sub\n        /* \"@openzeppelin/contracts-upgradeable/utils/AddressUpgradeable.sol\":7913:8199  if (returndata.length == 0) {... */\n      tag_639\n      jumpi\n      sub(shl(0xa0, 0x01), 0x01)\n        /* \"@openzeppelin/contracts-upgradeable/utils/AddressUpgradeable.sol\":1713:1732  account.code.length */\n      dup6\n      and\n      extcodesize\n        /* \"@openzeppelin/contracts-upgradeable/utils/AddressUpgradeable.sol\":8124:8184  require(isContract(target), \"Address: call to non-contract\") */\n      tag_639\n      jumpi\n      mload(0x40)\n      shl(0xe5, 0x461bcd)\n      dup2\n      mstore\n        /* \"#utility.yul\":18726:18728   */\n      0x20\n        /* \"@openzeppelin/contracts-upgradeable/utils/AddressUpgradeable.sol\":8124:8184  require(isContract(target), \"Address: call to non-contract\") */\n      0x04\n      dup3\n      add\n        /* \"#utility.yul\":18708:18729   */\n      mstore\n        /* \"#utility.yul\":18765:18767   */\n      0x1d\n        /* \"#utility.yul\":18745:18763   */\n      0x24\n      dup3\n      add\n        /* \"#utility.yul\":18738:18768   */\n      mstore\n        /* \"#utility.yul\":18804:18835   */\n      0x416464726573733a2063616c6c20746f206e6f6e2d636f6e7472616374000000\n        /* \"#utility.yul\":18784:18802   */\n      0x44\n      dup3\n      add\n        /* \"#utility.yul\":18777:18836   */\n      mstore\n        /* \"#utility.yul\":18853:18871   */\n      0x64\n      add\n        /* \"@openzeppelin/contracts-upgradeable/utils/AddressUpgradeable.sol\":8124:8184  require(isContract(target), \"Address: call to non-contract\") */\n      tag_211\n        /* \"#utility.yul\":18524:18877   */\n      jump\n        /* \"@openzeppelin/contracts-upgradeable/utils/AddressUpgradeable.sol\":8124:8184  require(isContract(target), \"Address: call to non-contract\") */\n    tag_639:\n      pop\n        /* \"@openzeppelin/contracts-upgradeable/utils/AddressUpgradeable.sol\":8219:8229  returndata */\n      dup2\n        /* \"@openzeppelin/contracts-upgradeable/utils/AddressUpgradeable.sol\":8212:8229  return returndata */\n      jump(tag_621)\n        /* \"@openzeppelin/contracts-upgradeable/utils/AddressUpgradeable.sol\":7886:8304  if (success) {... */\n    tag_635:\n        /* \"@openzeppelin/contracts-upgradeable/utils/AddressUpgradeable.sol\":8260:8293  _revert(returndata, errorMessage) */\n      tag_621\n        /* \"@openzeppelin/contracts-upgradeable/utils/AddressUpgradeable.sol\":8268:8278  returndata */\n      dup4\n        /* \"@openzeppelin/contracts-upgradeable/utils/AddressUpgradeable.sol\":8280:8292  errorMessage */\n      dup4\n        /* \"@openzeppelin/contracts-upgradeable/utils/AddressUpgradeable.sol\":8991:9008  returndata.length */\n      dup2\n      mload\n        /* \"@openzeppelin/contracts-upgradeable/utils/AddressUpgradeable.sol\":8991:9012  returndata.length > 0 */\n      iszero\n        /* \"@openzeppelin/contracts-upgradeable/utils/AddressUpgradeable.sol\":8987:9366  if (returndata.length > 0) {... */\n      tag_647\n      jumpi\n        /* \"@openzeppelin/contracts-upgradeable/utils/AddressUpgradeable.sol\":9219:9229  returndata */\n      dup2\n        /* \"@openzeppelin/contracts-upgradeable/utils/AddressUpgradeable.sol\":9213:9230  mload(returndata) */\n      mload\n        /* \"@openzeppelin/contracts-upgradeable/utils/AddressUpgradeable.sol\":9275:9290  returndata_size */\n      dup1\n        /* \"@openzeppelin/contracts-upgradeable/utils/AddressUpgradeable.sol\":9262:9272  returndata */\n      dup4\n        /* \"@openzeppelin/contracts-upgradeable/utils/AddressUpgradeable.sol\":9258:9260  32 */\n      0x20\n        /* \"@openzeppelin/contracts-upgradeable/utils/AddressUpgradeable.sol\":9254:9273  add(32, returndata) */\n      add\n        /* \"@openzeppelin/contracts-upgradeable/utils/AddressUpgradeable.sol\":9247:9291  revert(add(32, returndata), returndata_size) */\n      revert\n        /* \"@openzeppelin/contracts-upgradeable/utils/AddressUpgradeable.sol\":8987:9366  if (returndata.length > 0) {... */\n    tag_647:\n        /* \"@openzeppelin/contracts-upgradeable/utils/AddressUpgradeable.sol\":9342:9354  errorMessage */\n      dup1\n        /* \"@openzeppelin/contracts-upgradeable/utils/AddressUpgradeable.sol\":9335:9355  revert(errorMessage) */\n      mload(0x40)\n      shl(0xe5, 0x461bcd)\n      dup2\n      mstore\n      0x04\n      add\n      tag_211\n      swap2\n      swap1\n      tag_45\n      jump\t// in\n    tag_220:\n      dup3\n      dup1\n      sload\n      dup3\n      dup3\n      sstore\n      swap1\n      0x00\n      mstore\n      keccak256(0x00, 0x20)\n      swap1\n      dup2\n      add\n      swap3\n      dup3\n      iszero\n      tag_652\n      jumpi\n      swap2\n      0x20\n      mul\n      dup3\n      add\n    tag_651:\n      dup3\n      dup2\n      gt\n      iszero\n      tag_652\n      jumpi\n      dup2\n      sload\n      not(sub(shl(0xa0, 0x01), 0x01))\n      and\n      sub(shl(0xa0, 0x01), 0x01)\n      dup5\n      calldataload\n      and\n      or\n      dup3\n      sstore\n      0x20\n      swap1\n      swap3\n      add\n      swap2\n      0x01\n      swap1\n      swap2\n      add\n      swap1\n      jump(tag_651)\n    tag_652:\n      pop\n      tag_653\n      swap3\n      swap2\n      pop\n      tag_654\n      jump\t// in\n    tag_653:\n      pop\n      swap1\n      jump\t// out\n    tag_226:\n      dup3\n      dup1\n      sload\n      dup3\n      dup3\n      sstore\n      swap1\n      0x00\n      mstore\n      keccak256(0x00, 0x20)\n      swap1\n      dup2\n      add\n      swap3\n      dup3\n      iszero\n      tag_652\n      jumpi\n      swap2\n      0x20\n      mul\n      dup3\n      add\n    tag_656:\n      dup3\n      dup2\n      gt\n      iszero\n      tag_652\n      jumpi\n      dup3\n      mload\n      dup3\n      sstore\n      swap2\n      0x20\n      add\n      swap2\n      swap1\n      0x01\n      add\n      swap1\n      jump(tag_656)\n    tag_654:\n    tag_659:\n      dup1\n      dup3\n      gt\n      iszero\n      tag_653\n      jumpi\n      0x00\n      dup2\n      sstore\n      0x01\n      add\n      jump(tag_659)\n        /* \"#utility.yul\":14:432   */\n    tag_45:\n        /* \"#utility.yul\":163:165   */\n      0x20\n        /* \"#utility.yul\":152:161   */\n      dup2\n        /* \"#utility.yul\":145:166   */\n      mstore\n        /* \"#utility.yul\":126:130   */\n      0x00\n        /* \"#utility.yul\":195:201   */\n      dup3\n        /* \"#utility.yul\":189:202   */\n      mload\n        /* \"#utility.yul\":238:244   */\n      dup1\n        /* \"#utility.yul\":233:235   */\n      0x20\n        /* \"#utility.yul\":222:231   */\n      dup5\n        /* \"#utility.yul\":218:236   */\n      add\n        /* \"#utility.yul\":211:245   */\n      mstore\n        /* \"#utility.yul\":297:303   */\n      dup1\n        /* \"#utility.yul\":292:294   */\n      0x20\n        /* \"#utility.yul\":284:290   */\n      dup6\n        /* \"#utility.yul\":280:295   */\n      add\n        /* \"#utility.yul\":275:277   */\n      0x40\n        /* \"#utility.yul\":264:273   */\n      dup6\n        /* \"#utility.yul\":260:278   */\n      add\n        /* \"#utility.yul\":254:304   */\n      mcopy\n        /* \"#utility.yul\":353:354   */\n      0x00\n        /* \"#utility.yul\":348:350   */\n      0x40\n        /* \"#utility.yul\":339:345   */\n      dup3\n        /* \"#utility.yul\":328:337   */\n      dup6\n        /* \"#utility.yul\":324:346   */\n      add\n        /* \"#utility.yul\":320:351   */\n      add\n        /* \"#utility.yul\":313:355   */\n      mstore\n        /* \"#utility.yul\":423:425   */\n      0x40\n        /* \"#utility.yul\":416:418   */\n      0x1f\n        /* \"#utility.yul\":412:419   */\n      not\n        /* \"#utility.yul\":407:409   */\n      0x1f\n        /* \"#utility.yul\":399:405   */\n      dup4\n        /* \"#utility.yul\":395:410   */\n      add\n        /* \"#utility.yul\":391:420   */\n      and\n        /* \"#utility.yul\":380:389   */\n      dup5\n        /* \"#utility.yul\":376:421   */\n      add\n        /* \"#utility.yul\":372:426   */\n      add\n        /* \"#utility.yul\":364:426   */\n      swap2\n      pop\n      pop\n        /* \"#utility.yul\":14:432   */\n      swap3\n      swap2\n      pop\n      pop\n      jump\t// out\n        /* \"#utility.yul\":619:750   */\n    tag_661:\n      sub(shl(0xa0, 0x01), 0x01)\n        /* \"#utility.yul\":694:725   */\n      dup2\n      and\n        /* \"#utility.yul\":684:726   */\n      dup2\n      eq\n        /* \"#utility.yul\":674:744   */\n      tag_474\n      jumpi\n        /* \"#utility.yul\":740:741   */\n      0x00\n        /* \"#utility.yul\":737:738   */\n      0x00\n        /* \"#utility.yul\":730:742   */\n      revert\n        /* \"#utility.yul\":755:1122   */\n    tag_52:\n        /* \"#utility.yul\":823:829   */\n      0x00\n        /* \"#utility.yul\":831:837   */\n      0x00\n        /* \"#utility.yul\":884:886   */\n      0x40\n        /* \"#utility.yul\":872:881   */\n      dup4\n        /* \"#utility.yul\":863:870   */\n      dup6\n        /* \"#utility.yul\":859:882   */\n      sub\n        /* \"#utility.yul\":855:887   */\n      slt\n        /* \"#utility.yul\":852:904   */\n      iszero\n      tag_678\n      jumpi\n        /* \"#utility.yul\":900:901   */\n      0x00\n        /* \"#utility.yul\":897:898   */\n      0x00\n        /* \"#utility.yul\":890:902   */\n      revert\n        /* \"#utility.yul\":852:904   */\n    tag_678:\n        /* \"#utility.yul\":939:948   */\n      dup3\n        /* \"#utility.yul\":926:949   */\n      calldataload\n        /* \"#utility.yul\":958:989   */\n      tag_679\n        /* \"#utility.yul\":983:988   */\n      dup2\n        /* \"#utility.yul\":958:989   */\n      tag_661\n      jump\t// in\n    tag_679:\n        /* \"#utility.yul\":1008:1013   */\n      swap5\n        /* \"#utility.yul\":1086:1088   */\n      0x20\n        /* \"#utility.yul\":1071:1089   */\n      swap4\n      swap1\n      swap4\n      add\n        /* \"#utility.yul\":1058:1090   */\n      calldataload\n      swap4\n      pop\n      pop\n      pop\n        /* \"#utility.yul\":755:1122   */\n      jump\t// out\n        /* \"#utility.yul\":1319:1827   */\n    tag_61:\n        /* \"#utility.yul\":1396:1402   */\n      0x00\n        /* \"#utility.yul\":1404:1410   */\n      0x00\n        /* \"#utility.yul\":1412:1418   */\n      0x00\n        /* \"#utility.yul\":1465:1467   */\n      0x60\n        /* \"#utility.yul\":1453:1462   */\n      dup5\n        /* \"#utility.yul\":1444:1451   */\n      dup7\n        /* \"#utility.yul\":1440:1463   */\n      sub\n        /* \"#utility.yul\":1436:1468   */\n      slt\n        /* \"#utility.yul\":1433:1485   */\n      iszero\n      tag_682\n      jumpi\n        /* \"#utility.yul\":1481:1482   */\n      0x00\n        /* \"#utility.yul\":1478:1479   */\n      0x00\n        /* \"#utility.yul\":1471:1483   */\n      revert\n        /* \"#utility.yul\":1433:1485   */\n    tag_682:\n        /* \"#utility.yul\":1520:1529   */\n      dup4\n        /* \"#utility.yul\":1507:1530   */\n      calldataload\n        /* \"#utility.yul\":1539:1570   */\n      tag_683\n        /* \"#utility.yul\":1564:1569   */\n      dup2\n        /* \"#utility.yul\":1539:1570   */\n      tag_661\n      jump\t// in\n    tag_683:\n        /* \"#utility.yul\":1589:1594   */\n      swap3\n      pop\n        /* \"#utility.yul\":1646:1648   */\n      0x20\n        /* \"#utility.yul\":1631:1649   */\n      dup5\n      add\n        /* \"#utility.yul\":1618:1650   */\n      calldataload\n        /* \"#utility.yul\":1659:1692   */\n      tag_684\n        /* \"#utility.yul\":1618:1650   */\n      dup2\n        /* \"#utility.yul\":1659:1692   */\n      tag_661\n      jump\t// in\n    tag_684:\n        /* \"#utility.yul\":1319:1827   */\n      swap3\n      swap6\n        /* \"#utility.yul\":1711:1718   */\n      swap3\n      swap5\n      pop\n      pop\n      pop\n        /* \"#utility.yul\":1791:1793   */\n      0x40\n        /* \"#utility.yul\":1776:1794   */\n      swap2\n      swap1\n      swap2\n      add\n        /* \"#utility.yul\":1763:1795   */\n      calldataload\n      swap1\n        /* \"#utility.yul\":1319:1827   */\n      jump\t// out\n        /* \"#utility.yul\":1832:2278   */\n    tag_662:\n        /* \"#utility.yul\":1885:1888   */\n      0x00\n        /* \"#utility.yul\":1923:1928   */\n      dup2\n        /* \"#utility.yul\":1917:1929   */\n      mload\n        /* \"#utility.yul\":1950:1956   */\n      dup1\n        /* \"#utility.yul\":1945:1948   */\n      dup5\n        /* \"#utility.yul\":1938:1957   */\n      mstore\n        /* \"#utility.yul\":1982:1986   */\n      0x20\n        /* \"#utility.yul\":1977:1980   */\n      dup5\n        /* \"#utility.yul\":1973:1987   */\n      add\n        /* \"#utility.yul\":1966:1987   */\n      swap4\n      pop\n        /* \"#utility.yul\":2021:2025   */\n      0x20\n        /* \"#utility.yul\":2014:2019   */\n      dup4\n        /* \"#utility.yul\":2010:2026   */\n      add\n        /* \"#utility.yul\":2044:2045   */\n      0x00\n        /* \"#utility.yul\":2054:2253   */\n    tag_686:\n        /* \"#utility.yul\":2068:2074   */\n      dup3\n        /* \"#utility.yul\":2065:2066   */\n      dup2\n        /* \"#utility.yul\":2062:2075   */\n      lt\n        /* \"#utility.yul\":2054:2253   */\n      iszero\n      tag_688\n      jumpi\n        /* \"#utility.yul\":2133:2146   */\n      dup2\n      mload\n      sub(shl(0xa0, 0x01), 0x01)\n        /* \"#utility.yul\":2129:2168   */\n      and\n        /* \"#utility.yul\":2117:2169   */\n      dup7\n      mstore\n        /* \"#utility.yul\":2198:2202   */\n      0x20\n        /* \"#utility.yul\":2189:2203   */\n      swap6\n      dup7\n      add\n      swap6\n        /* \"#utility.yul\":2226:2243   */\n      swap1\n      swap2\n      add\n      swap1\n        /* \"#utility.yul\":2165:2166   */\n      0x01\n        /* \"#utility.yul\":2083:2092   */\n      add\n        /* \"#utility.yul\":2054:2253   */\n      jump(tag_686)\n    tag_688:\n      pop\n        /* \"#utility.yul\":2269:2272   */\n      swap4\n      swap5\n        /* \"#utility.yul\":1832:2278   */\n      swap4\n      pop\n      pop\n      pop\n      pop\n      jump\t// out\n        /* \"#utility.yul\":2283:2544   */\n    tag_67:\n        /* \"#utility.yul\":2462:2464   */\n      0x20\n        /* \"#utility.yul\":2451:2460   */\n      dup2\n        /* \"#utility.yul\":2444:2465   */\n      mstore\n        /* \"#utility.yul\":2425:2429   */\n      0x00\n        /* \"#utility.yul\":2482:2538   */\n      tag_463\n        /* \"#utility.yul\":2534:2536   */\n      0x20\n        /* \"#utility.yul\":2523:2532   */\n      dup4\n        /* \"#utility.yul\":2519:2537   */\n      add\n        /* \"#utility.yul\":2511:2517   */\n      dup5\n        /* \"#utility.yul\":2482:2538   */\n      tag_662\n      jump\t// in\n        /* \"#utility.yul\":2738:2865   */\n    tag_223:\n        /* \"#utility.yul\":2799:2809   */\n      0x4e487b71\n        /* \"#utility.yul\":2794:2797   */\n      0xe0\n        /* \"#utility.yul\":2790:2810   */\n      shl\n        /* \"#utility.yul\":2787:2788   */\n      0x00\n        /* \"#utility.yul\":2780:2811   */\n      mstore\n        /* \"#utility.yul\":2830:2834   */\n      0x41\n        /* \"#utility.yul\":2827:2828   */\n      0x04\n        /* \"#utility.yul\":2820:2835   */\n      mstore\n        /* \"#utility.yul\":2854:2858   */\n      0x24\n        /* \"#utility.yul\":2851:2852   */\n      0x00\n        /* \"#utility.yul\":2844:2859   */\n      revert\n        /* \"#utility.yul\":2870:3145   */\n    tag_663:\n        /* \"#utility.yul\":2941:2943   */\n      0x40\n        /* \"#utility.yul\":2935:2944   */\n      mload\n        /* \"#utility.yul\":3006:3008   */\n      0x1f\n        /* \"#utility.yul\":2987:3000   */\n      dup3\n      add\n      not(0x1f)\n        /* \"#utility.yul\":2983:3010   */\n      and\n        /* \"#utility.yul\":2971:3011   */\n      dup2\n      add\n      sub(shl(0x40, 0x01), 0x01)\n        /* \"#utility.yul\":3026:3060   */\n      dup2\n      gt\n        /* \"#utility.yul\":3062:3084   */\n      dup3\n      dup3\n      lt\n        /* \"#utility.yul\":3023:3085   */\n      or\n        /* \"#utility.yul\":3020:3108   */\n      iszero\n      tag_695\n      jumpi\n        /* \"#utility.yul\":3088:3106   */\n      tag_695\n      tag_223\n      jump\t// in\n    tag_695:\n        /* \"#utility.yul\":3124:3126   */\n      0x40\n        /* \"#utility.yul\":3117:3139   */\n      mstore\n        /* \"#utility.yul\":2870:3145   */\n      swap2\n      swap1\n      pop\n      jump\t// out\n        /* \"#utility.yul\":3150:3517   */\n    tag_664:\n        /* \"#utility.yul\":3213:3221   */\n      0x00\n        /* \"#utility.yul\":3223:3229   */\n      0x00\n        /* \"#utility.yul\":3277:3280   */\n      dup4\n        /* \"#utility.yul\":3270:3274   */\n      0x1f\n        /* \"#utility.yul\":3262:3268   */\n      dup5\n        /* \"#utility.yul\":3258:3275   */\n      add\n        /* \"#utility.yul\":3254:3281   */\n      slt\n        /* \"#utility.yul\":3244:3299   */\n      tag_697\n      jumpi\n        /* \"#utility.yul\":3295:3296   */\n      0x00\n        /* \"#utility.yul\":3292:3293   */\n      0x00\n        /* \"#utility.yul\":3285:3297   */\n      revert\n        /* \"#utility.yul\":3244:3299   */\n    tag_697:\n      pop\n        /* \"#utility.yul\":3318:3338   */\n      dup2\n      calldataload\n      sub(shl(0x40, 0x01), 0x01)\n        /* \"#utility.yul\":3350:3380   */\n      dup2\n      gt\n        /* \"#utility.yul\":3347:3397   */\n      iszero\n      tag_698\n      jumpi\n        /* \"#utility.yul\":3393:3394   */\n      0x00\n        /* \"#utility.yul\":3390:3391   */\n      0x00\n        /* \"#utility.yul\":3383:3395   */\n      revert\n        /* \"#utility.yul\":3347:3397   */\n    tag_698:\n        /* \"#utility.yul\":3430:3434   */\n      0x20\n        /* \"#utility.yul\":3422:3428   */\n      dup4\n        /* \"#utility.yul\":3418:3435   */\n      add\n        /* \"#utility.yul\":3406:3435   */\n      swap2\n      pop\n        /* \"#utility.yul\":3490:3493   */\n      dup4\n        /* \"#utility.yul\":3483:3487   */\n      0x20\n        /* \"#utility.yul\":3473:3479   */\n      dup3\n        /* \"#utility.yul\":3470:3471   */\n      0x05\n        /* \"#utility.yul\":3466:3480   */\n      shl\n        /* \"#utility.yul\":3458:3464   */\n      dup6\n        /* \"#utility.yul\":3454:3481   */\n      add\n        /* \"#utility.yul\":3450:3488   */\n      add\n        /* \"#utility.yul\":3447:3494   */\n      gt\n        /* \"#utility.yul\":3444:3511   */\n      iszero\n      tag_699\n      jumpi\n        /* \"#utility.yul\":3507:3508   */\n      0x00\n        /* \"#utility.yul\":3504:3505   */\n      0x00\n        /* \"#utility.yul\":3497:3509   */\n      revert\n        /* \"#utility.yul\":3444:3511   */\n    tag_699:\n        /* \"#utility.yul\":3150:3517   */\n      swap3\n      pop\n      swap3\n      swap1\n      pop\n      jump\t// out\n        /* \"#utility.yul\":3522:4754   */\n    tag_74:\n        /* \"#utility.yul\":3636:3642   */\n      0x00\n        /* \"#utility.yul\":3644:3650   */\n      0x00\n        /* \"#utility.yul\":3652:3658   */\n      0x00\n        /* \"#utility.yul\":3660:3666   */\n      0x00\n        /* \"#utility.yul\":3713:3715   */\n      0x60\n        /* \"#utility.yul\":3701:3710   */\n      dup6\n        /* \"#utility.yul\":3692:3699   */\n      dup8\n        /* \"#utility.yul\":3688:3711   */\n      sub\n        /* \"#utility.yul\":3684:3716   */\n      slt\n        /* \"#utility.yul\":3681:3733   */\n      iszero\n      tag_701\n      jumpi\n        /* \"#utility.yul\":3729:3730   */\n      0x00\n        /* \"#utility.yul\":3726:3727   */\n      0x00\n        /* \"#utility.yul\":3719:3731   */\n      revert\n        /* \"#utility.yul\":3681:3733   */\n    tag_701:\n        /* \"#utility.yul\":3768:3777   */\n      dup5\n        /* \"#utility.yul\":3755:3778   */\n      calldataload\n        /* \"#utility.yul\":3787:3818   */\n      tag_702\n        /* \"#utility.yul\":3812:3817   */\n      dup2\n        /* \"#utility.yul\":3787:3818   */\n      tag_661\n      jump\t// in\n    tag_702:\n        /* \"#utility.yul\":3837:3842   */\n      swap4\n      pop\n        /* \"#utility.yul\":3893:3895   */\n      0x20\n        /* \"#utility.yul\":3878:3896   */\n      dup6\n      add\n        /* \"#utility.yul\":3865:3897   */\n      calldataload\n      sub(shl(0x40, 0x01), 0x01)\n        /* \"#utility.yul\":3909:3939   */\n      dup2\n      gt\n        /* \"#utility.yul\":3906:3956   */\n      iszero\n      tag_703\n      jumpi\n        /* \"#utility.yul\":3952:3953   */\n      0x00\n        /* \"#utility.yul\":3949:3950   */\n      0x00\n        /* \"#utility.yul\":3942:3954   */\n      revert\n        /* \"#utility.yul\":3906:3956   */\n    tag_703:\n        /* \"#utility.yul\":3975:3997   */\n      dup6\n      add\n        /* \"#utility.yul\":4028:4032   */\n      0x1f\n        /* \"#utility.yul\":4020:4033   */\n      dup2\n      add\n        /* \"#utility.yul\":4016:4043   */\n      dup8\n      sgt\n        /* \"#utility.yul\":4006:4061   */\n      tag_704\n      jumpi\n        /* \"#utility.yul\":4057:4058   */\n      0x00\n        /* \"#utility.yul\":4054:4055   */\n      0x00\n        /* \"#utility.yul\":4047:4059   */\n      revert\n        /* \"#utility.yul\":4006:4061   */\n    tag_704:\n        /* \"#utility.yul\":4097:4099   */\n      dup1\n        /* \"#utility.yul\":4084:4100   */\n      calldataload\n      sub(shl(0x40, 0x01), 0x01)\n        /* \"#utility.yul\":4115:4121   */\n      dup2\n        /* \"#utility.yul\":4112:4142   */\n      gt\n        /* \"#utility.yul\":4109:4165   */\n      iszero\n      tag_706\n      jumpi\n        /* \"#utility.yul\":4145:4163   */\n      tag_706\n      tag_223\n      jump\t// in\n    tag_706:\n        /* \"#utility.yul\":4187:4244   */\n      tag_707\n        /* \"#utility.yul\":4234:4236   */\n      0x1f\n        /* \"#utility.yul\":4211:4228   */\n      dup3\n      add\n      not(0x1f)\n        /* \"#utility.yul\":4207:4238   */\n      and\n        /* \"#utility.yul\":4240:4242   */\n      0x20\n        /* \"#utility.yul\":4203:4243   */\n      add\n        /* \"#utility.yul\":4187:4244   */\n      tag_663\n      jump\t// in\n    tag_707:\n        /* \"#utility.yul\":4267:4273   */\n      dup2\n        /* \"#utility.yul\":4260:4265   */\n      dup2\n        /* \"#utility.yul\":4253:4274   */\n      mstore\n        /* \"#utility.yul\":4315:4322   */\n      dup9\n        /* \"#utility.yul\":4310:4312   */\n      0x20\n        /* \"#utility.yul\":4301:4307   */\n      dup4\n        /* \"#utility.yul\":4297:4299   */\n      dup6\n        /* \"#utility.yul\":4293:4308   */\n      add\n        /* \"#utility.yul\":4289:4313   */\n      add\n        /* \"#utility.yul\":4286:4323   */\n      gt\n        /* \"#utility.yul\":4283:4340   */\n      iszero\n      tag_708\n      jumpi\n        /* \"#utility.yul\":4336:4337   */\n      0x00\n        /* \"#utility.yul\":4333:4334   */\n      0x00\n        /* \"#utility.yul\":4326:4338   */\n      revert\n        /* \"#utility.yul\":4283:4340   */\n    tag_708:\n        /* \"#utility.yul\":4391:4397   */\n      dup2\n        /* \"#utility.yul\":4386:4388   */\n      0x20\n        /* \"#utility.yul\":4382:4384   */\n      dup5\n        /* \"#utility.yul\":4378:4389   */\n      add\n        /* \"#utility.yul\":4373:4375   */\n      0x20\n        /* \"#utility.yul\":4366:4371   */\n      dup4\n        /* \"#utility.yul\":4362:4376   */\n      add\n        /* \"#utility.yul\":4349:4398   */\n      calldatacopy\n        /* \"#utility.yul\":4443:4444   */\n      0x00\n        /* \"#utility.yul\":4438:4440   */\n      0x20\n        /* \"#utility.yul\":4429:4435   */\n      dup4\n        /* \"#utility.yul\":4422:4427   */\n      dup4\n        /* \"#utility.yul\":4418:4436   */\n      add\n        /* \"#utility.yul\":4414:4441   */\n      add\n        /* \"#utility.yul\":4407:4445   */\n      mstore\n        /* \"#utility.yul\":4464:4469   */\n      dup1\n        /* \"#utility.yul\":4454:4469   */\n      swap6\n      pop\n      pop\n      pop\n      pop\n        /* \"#utility.yul\":4522:4524   */\n      0x40\n        /* \"#utility.yul\":4511:4520   */\n      dup6\n        /* \"#utility.yul\":4507:4525   */\n      add\n        /* \"#utility.yul\":4494:4526   */\n      calldataload\n      sub(shl(0x40, 0x01), 0x01)\n        /* \"#utility.yul\":4541:4549   */\n      dup2\n        /* \"#utility.yul\":4538:4570   */\n      gt\n        /* \"#utility.yul\":4535:4587   */\n      iszero\n      tag_709\n      jumpi\n        /* \"#utility.yul\":4583:4584   */\n      0x00\n        /* \"#utility.yul\":4580:4581   */\n      0x00\n        /* \"#utility.yul\":4573:4585   */\n      revert\n        /* \"#utility.yul\":4535:4587   */\n    tag_709:\n        /* \"#utility.yul\":4622:4694   */\n      tag_710\n        /* \"#utility.yul\":4686:4693   */\n      dup8\n        /* \"#utility.yul\":4675:4683   */\n      dup3\n        /* \"#utility.yul\":4664:4673   */\n      dup9\n        /* \"#utility.yul\":4660:4684   */\n      add\n        /* \"#utility.yul\":4622:4694   */\n      tag_664\n      jump\t// in\n    tag_710:\n        /* \"#utility.yul\":3522:4754   */\n      swap6\n      swap9\n      swap5\n      swap8\n      pop\n        /* \"#utility.yul\":4713:4721   */\n      swap6\n      pop\n      pop\n      pop\n      pop\n        /* \"#utility.yul\":3522:4754   */\n      jump\t// out\n        /* \"#utility.yul\":5083:5309   */\n    tag_85:\n        /* \"#utility.yul\":5142:5148   */\n      0x00\n        /* \"#utility.yul\":5195:5197   */\n      0x20\n        /* \"#utility.yul\":5183:5192   */\n      dup3\n        /* \"#utility.yul\":5174:5181   */\n      dup5\n        /* \"#utility.yul\":5170:5193   */\n      sub\n        /* \"#utility.yul\":5166:5198   */\n      slt\n        /* \"#utility.yul\":5163:5215   */\n      iszero\n      tag_713\n      jumpi\n        /* \"#utility.yul\":5211:5212   */\n      0x00\n        /* \"#utility.yul\":5208:5209   */\n      0x00\n        /* \"#utility.yul\":5201:5213   */\n      revert\n        /* \"#utility.yul\":5163:5215   */\n    tag_713:\n      pop\n        /* \"#utility.yul\":5256:5279   */\n      calldataload\n      swap2\n        /* \"#utility.yul\":5083:5309   */\n      swap1\n      pop\n      jump\t// out\n        /* \"#utility.yul\":5522:5769   */\n    tag_91:\n        /* \"#utility.yul\":5581:5587   */\n      0x00\n        /* \"#utility.yul\":5634:5636   */\n      0x20\n        /* \"#utility.yul\":5622:5631   */\n      dup3\n        /* \"#utility.yul\":5613:5620   */\n      dup5\n        /* \"#utility.yul\":5609:5632   */\n      sub\n        /* \"#utility.yul\":5605:5637   */\n      slt\n        /* \"#utility.yul\":5602:5654   */\n      iszero\n      tag_716\n      jumpi\n        /* \"#utility.yul\":5650:5651   */\n      0x00\n        /* \"#utility.yul\":5647:5648   */\n      0x00\n        /* \"#utility.yul\":5640:5652   */\n      revert\n        /* \"#utility.yul\":5602:5654   */\n    tag_716:\n        /* \"#utility.yul\":5689:5698   */\n      dup2\n        /* \"#utility.yul\":5676:5699   */\n      calldataload\n        /* \"#utility.yul\":5708:5739   */\n      tag_463\n        /* \"#utility.yul\":5733:5738   */\n      dup2\n        /* \"#utility.yul\":5708:5739   */\n      tag_661\n      jump\t// in\n        /* \"#utility.yul\":5774:6194   */\n    tag_665:\n        /* \"#utility.yul\":5827:5830   */\n      0x00\n        /* \"#utility.yul\":5865:5870   */\n      dup2\n        /* \"#utility.yul\":5859:5871   */\n      mload\n        /* \"#utility.yul\":5892:5898   */\n      dup1\n        /* \"#utility.yul\":5887:5890   */\n      dup5\n        /* \"#utility.yul\":5880:5899   */\n      mstore\n        /* \"#utility.yul\":5924:5928   */\n      0x20\n        /* \"#utility.yul\":5919:5922   */\n      dup5\n        /* \"#utility.yul\":5915:5929   */\n      add\n        /* \"#utility.yul\":5908:5929   */\n      swap4\n      pop\n        /* \"#utility.yul\":5963:5967   */\n      0x20\n        /* \"#utility.yul\":5956:5961   */\n      dup4\n        /* \"#utility.yul\":5952:5968   */\n      add\n        /* \"#utility.yul\":5986:5987   */\n      0x00\n        /* \"#utility.yul\":5996:6169   */\n    tag_719:\n        /* \"#utility.yul\":6010:6016   */\n      dup3\n        /* \"#utility.yul\":6007:6008   */\n      dup2\n        /* \"#utility.yul\":6004:6017   */\n      lt\n        /* \"#utility.yul\":5996:6169   */\n      iszero\n      tag_688\n      jumpi\n        /* \"#utility.yul\":6071:6084   */\n      dup2\n      mload\n        /* \"#utility.yul\":6059:6085   */\n      dup7\n      mstore\n        /* \"#utility.yul\":6114:6118   */\n      0x20\n        /* \"#utility.yul\":6105:6119   */\n      swap6\n      dup7\n      add\n      swap6\n        /* \"#utility.yul\":6142:6159   */\n      swap1\n      swap2\n      add\n      swap1\n        /* \"#utility.yul\":6032:6033   */\n      0x01\n        /* \"#utility.yul\":6025:6034   */\n      add\n        /* \"#utility.yul\":5996:6169   */\n      jump(tag_719)\n        /* \"#utility.yul\":6199:6460   */\n    tag_100:\n        /* \"#utility.yul\":6378:6380   */\n      0x20\n        /* \"#utility.yul\":6367:6376   */\n      dup2\n        /* \"#utility.yul\":6360:6381   */\n      mstore\n        /* \"#utility.yul\":6341:6345   */\n      0x00\n        /* \"#utility.yul\":6398:6454   */\n      tag_463\n        /* \"#utility.yul\":6450:6452   */\n      0x20\n        /* \"#utility.yul\":6439:6448   */\n      dup4\n        /* \"#utility.yul\":6435:6453   */\n      add\n        /* \"#utility.yul\":6427:6433   */\n      dup5\n        /* \"#utility.yul\":6398:6454   */\n      tag_665\n      jump\t// in\n        /* \"#utility.yul\":6465:6868   */\n    tag_119:\n        /* \"#utility.yul\":6700:6702   */\n      0x60\n        /* \"#utility.yul\":6689:6698   */\n      dup2\n        /* \"#utility.yul\":6682:6703   */\n      mstore\n        /* \"#utility.yul\":6663:6667   */\n      0x00\n        /* \"#utility.yul\":6720:6776   */\n      tag_725\n        /* \"#utility.yul\":6772:6774   */\n      0x60\n        /* \"#utility.yul\":6761:6770   */\n      dup4\n        /* \"#utility.yul\":6757:6775   */\n      add\n        /* \"#utility.yul\":6749:6755   */\n      dup7\n        /* \"#utility.yul\":6720:6776   */\n      tag_665\n      jump\t// in\n    tag_725:\n        /* \"#utility.yul\":6807:6809   */\n      0x20\n        /* \"#utility.yul\":6792:6810   */\n      dup4\n      add\n        /* \"#utility.yul\":6785:6819   */\n      swap5\n      swap1\n      swap5\n      mstore\n      pop\n        /* \"#utility.yul\":6850:6852   */\n      0x40\n        /* \"#utility.yul\":6835:6853   */\n      add\n        /* \"#utility.yul\":6828:6862   */\n      mstore\n        /* \"#utility.yul\":6712:6776   */\n      swap2\n        /* \"#utility.yul\":6465:6868   */\n      swap1\n      pop\n      jump\t// out\n        /* \"#utility.yul\":6873:6991   */\n    tag_666:\n        /* \"#utility.yul\":6959:6964   */\n      dup1\n        /* \"#utility.yul\":6952:6965   */\n      iszero\n        /* \"#utility.yul\":6945:6966   */\n      iszero\n        /* \"#utility.yul\":6938:6943   */\n      dup2\n        /* \"#utility.yul\":6935:6967   */\n      eq\n        /* \"#utility.yul\":6925:6985   */\n      tag_474\n      jumpi\n        /* \"#utility.yul\":6981:6982   */\n      0x00\n        /* \"#utility.yul\":6978:6979   */\n      0x00\n        /* \"#utility.yul\":6971:6983   */\n      revert\n        /* \"#utility.yul\":6996:7237   */\n    tag_130:\n        /* \"#utility.yul\":7052:7058   */\n      0x00\n        /* \"#utility.yul\":7105:7107   */\n      0x20\n        /* \"#utility.yul\":7093:7102   */\n      dup3\n        /* \"#utility.yul\":7084:7091   */\n      dup5\n        /* \"#utility.yul\":7080:7103   */\n      sub\n        /* \"#utility.yul\":7076:7108   */\n      slt\n        /* \"#utility.yul\":7073:7125   */\n      iszero\n      tag_729\n      jumpi\n        /* \"#utility.yul\":7121:7122   */\n      0x00\n        /* \"#utility.yul\":7118:7119   */\n      0x00\n        /* \"#utility.yul\":7111:7123   */\n      revert\n        /* \"#utility.yul\":7073:7125   */\n    tag_729:\n        /* \"#utility.yul\":7160:7169   */\n      dup2\n        /* \"#utility.yul\":7147:7170   */\n      calldataload\n        /* \"#utility.yul\":7179:7207   */\n      tag_463\n        /* \"#utility.yul\":7201:7206   */\n      dup2\n        /* \"#utility.yul\":7179:7207   */\n      tag_666\n      jump\t// in\n        /* \"#utility.yul\":7242:7630   */\n    tag_144:\n        /* \"#utility.yul\":7310:7316   */\n      0x00\n        /* \"#utility.yul\":7318:7324   */\n      0x00\n        /* \"#utility.yul\":7371:7373   */\n      0x40\n        /* \"#utility.yul\":7359:7368   */\n      dup4\n        /* \"#utility.yul\":7350:7357   */\n      dup6\n        /* \"#utility.yul\":7346:7369   */\n      sub\n        /* \"#utility.yul\":7342:7374   */\n      slt\n        /* \"#utility.yul\":7339:7391   */\n      iszero\n      tag_732\n      jumpi\n        /* \"#utility.yul\":7387:7388   */\n      0x00\n        /* \"#utility.yul\":7384:7385   */\n      0x00\n        /* \"#utility.yul\":7377:7389   */\n      revert\n        /* \"#utility.yul\":7339:7391   */\n    tag_732:\n        /* \"#utility.yul\":7426:7435   */\n      dup3\n        /* \"#utility.yul\":7413:7436   */\n      calldataload\n        /* \"#utility.yul\":7445:7476   */\n      tag_733\n        /* \"#utility.yul\":7470:7475   */\n      dup2\n        /* \"#utility.yul\":7445:7476   */\n      tag_661\n      jump\t// in\n    tag_733:\n        /* \"#utility.yul\":7495:7500   */\n      swap2\n      pop\n        /* \"#utility.yul\":7552:7554   */\n      0x20\n        /* \"#utility.yul\":7537:7555   */\n      dup4\n      add\n        /* \"#utility.yul\":7524:7556   */\n      calldataload\n        /* \"#utility.yul\":7565:7598   */\n      tag_734\n        /* \"#utility.yul\":7524:7556   */\n      dup2\n        /* \"#utility.yul\":7565:7598   */\n      tag_661\n      jump\t// in\n    tag_734:\n        /* \"#utility.yul\":7617:7624   */\n      dup1\n        /* \"#utility.yul\":7607:7624   */\n      swap2\n      pop\n      pop\n        /* \"#utility.yul\":7242:7630   */\n      swap3\n      pop\n      swap3\n      swap1\n      pop\n      jump\t// out\n        /* \"#utility.yul\":7635:8072   */\n    tag_149:\n        /* \"#utility.yul\":7721:7727   */\n      0x00\n        /* \"#utility.yul\":7729:7735   */\n      0x00\n        /* \"#utility.yul\":7782:7784   */\n      0x20\n        /* \"#utility.yul\":7770:7779   */\n      dup4\n        /* \"#utility.yul\":7761:7768   */\n      dup6\n        /* \"#utility.yul\":7757:7780   */\n      sub\n        /* \"#utility.yul\":7753:7785   */\n      slt\n        /* \"#utility.yul\":7750:7802   */\n      iszero\n      tag_736\n      jumpi\n        /* \"#utility.yul\":7798:7799   */\n      0x00\n        /* \"#utility.yul\":7795:7796   */\n      0x00\n        /* \"#utility.yul\":7788:7800   */\n      revert\n        /* \"#utility.yul\":7750:7802   */\n    tag_736:\n        /* \"#utility.yul\":7838:7847   */\n      dup3\n        /* \"#utility.yul\":7825:7848   */\n      calldataload\n      sub(shl(0x40, 0x01), 0x01)\n        /* \"#utility.yul\":7863:7869   */\n      dup2\n        /* \"#utility.yul\":7860:7890   */\n      gt\n        /* \"#utility.yul\":7857:7907   */\n      iszero\n      tag_737\n      jumpi\n        /* \"#utility.yul\":7903:7904   */\n      0x00\n        /* \"#utility.yul\":7900:7901   */\n      0x00\n        /* \"#utility.yul\":7893:7905   */\n      revert\n        /* \"#utility.yul\":7857:7907   */\n    tag_737:\n        /* \"#utility.yul\":7942:8012   */\n      tag_738\n        /* \"#utility.yul\":8004:8011   */\n      dup6\n        /* \"#utility.yul\":7995:8001   */\n      dup3\n        /* \"#utility.yul\":7984:7993   */\n      dup7\n        /* \"#utility.yul\":7980:8002   */\n      add\n        /* \"#utility.yul\":7942:8012   */\n      tag_664\n      jump\t// in\n    tag_738:\n        /* \"#utility.yul\":8031:8039   */\n      swap1\n      swap7\n        /* \"#utility.yul\":7916:8012   */\n      swap1\n      swap6\n      pop\n        /* \"#utility.yul\":7635:8072   */\n      swap4\n      pop\n      pop\n      pop\n      pop\n      jump\t// out\n        /* \"#utility.yul\":8077:8649   */\n    tag_153:\n        /* \"#utility.yul\":8172:8178   */\n      0x00\n        /* \"#utility.yul\":8180:8186   */\n      0x00\n        /* \"#utility.yul\":8188:8194   */\n      0x00\n        /* \"#utility.yul\":8241:8243   */\n      0x40\n        /* \"#utility.yul\":8229:8238   */\n      dup5\n        /* \"#utility.yul\":8220:8227   */\n      dup7\n        /* \"#utility.yul\":8216:8239   */\n      sub\n        /* \"#utility.yul\":8212:8244   */\n      slt\n        /* \"#utility.yul\":8209:8261   */\n      iszero\n      tag_740\n      jumpi\n        /* \"#utility.yul\":8257:8258   */\n      0x00\n        /* \"#utility.yul\":8254:8255   */\n      0x00\n        /* \"#utility.yul\":8247:8259   */\n      revert\n        /* \"#utility.yul\":8209:8261   */\n    tag_740:\n        /* \"#utility.yul\":8296:8305   */\n      dup4\n        /* \"#utility.yul\":8283:8306   */\n      calldataload\n        /* \"#utility.yul\":8315:8346   */\n      tag_741\n        /* \"#utility.yul\":8340:8345   */\n      dup2\n        /* \"#utility.yul\":8315:8346   */\n      tag_661\n      jump\t// in\n    tag_741:\n        /* \"#utility.yul\":8365:8370   */\n      swap3\n      pop\n        /* \"#utility.yul\":8421:8423   */\n      0x20\n        /* \"#utility.yul\":8406:8424   */\n      dup5\n      add\n        /* \"#utility.yul\":8393:8425   */\n      calldataload\n      sub(shl(0x40, 0x01), 0x01)\n        /* \"#utility.yul\":8437:8467   */\n      dup2\n      gt\n        /* \"#utility.yul\":8434:8484   */\n      iszero\n      tag_742\n      jumpi\n        /* \"#utility.yul\":8480:8481   */\n      0x00\n        /* \"#utility.yul\":8477:8478   */\n      0x00\n        /* \"#utility.yul\":8470:8482   */\n      revert\n        /* \"#utility.yul\":8434:8484   */\n    tag_742:\n        /* \"#utility.yul\":8519:8589   */\n      tag_743\n        /* \"#utility.yul\":8581:8588   */\n      dup7\n        /* \"#utility.yul\":8572:8578   */\n      dup3\n        /* \"#utility.yul\":8561:8570   */\n      dup8\n        /* \"#utility.yul\":8557:8579   */\n      add\n        /* \"#utility.yul\":8519:8589   */\n      tag_664\n      jump\t// in\n    tag_743:\n        /* \"#utility.yul\":8077:8649   */\n      swap5\n      swap8\n        /* \"#utility.yul\":8608:8616   */\n      swap1\n      swap7\n      pop\n        /* \"#utility.yul\":8493:8589   */\n      swap4\n      swap5\n      pop\n      pop\n      pop\n      pop\n        /* \"#utility.yul\":8077:8649   */\n      jump\t// out\n        /* \"#utility.yul\":8654:9034   */\n    tag_170:\n        /* \"#utility.yul\":8733:8734   */\n      0x01\n        /* \"#utility.yul\":8729:8741   */\n      dup2\n      dup2\n      shr\n      swap1\n        /* \"#utility.yul\":8776:8788   */\n      dup3\n      and\n      dup1\n        /* \"#utility.yul\":8797:8858   */\n      tag_745\n      jumpi\n        /* \"#utility.yul\":8851:8855   */\n      0x7f\n        /* \"#utility.yul\":8843:8849   */\n      dup3\n        /* \"#utility.yul\":8839:8856   */\n      and\n        /* \"#utility.yul\":8829:8856   */\n      swap2\n      pop\n        /* \"#utility.yul\":8797:8858   */\n    tag_745:\n        /* \"#utility.yul\":8904:8906   */\n      0x20\n        /* \"#utility.yul\":8896:8902   */\n      dup3\n        /* \"#utility.yul\":8893:8907   */\n      lt\n        /* \"#utility.yul\":8873:8891   */\n      dup2\n        /* \"#utility.yul\":8870:8908   */\n      sub\n        /* \"#utility.yul\":8867:9028   */\n      tag_746\n      jumpi\n        /* \"#utility.yul\":8950:8960   */\n      0x4e487b71\n        /* \"#utility.yul\":8945:8948   */\n      0xe0\n        /* \"#utility.yul\":8941:8961   */\n      shl\n        /* \"#utility.yul\":8938:8939   */\n      0x00\n        /* \"#utility.yul\":8931:8962   */\n      mstore\n        /* \"#utility.yul\":8985:8989   */\n      0x22\n        /* \"#utility.yul\":8982:8983   */\n      0x04\n        /* \"#utility.yul\":8975:8990   */\n      mstore\n        /* \"#utility.yul\":9013:9017   */\n      0x24\n        /* \"#utility.yul\":9010:9011   */\n      0x00\n        /* \"#utility.yul\":9003:9018   */\n      revert\n        /* \"#utility.yul\":8867:9028   */\n    tag_746:\n      pop\n        /* \"#utility.yul\":8654:9034   */\n      swap2\n      swap1\n      pop\n      jump\t// out\n        /* \"#utility.yul\":9039:9166   */\n    tag_667:\n        /* \"#utility.yul\":9100:9110   */\n      0x4e487b71\n        /* \"#utility.yul\":9095:9098   */\n      0xe0\n        /* \"#utility.yul\":9091:9111   */\n      shl\n        /* \"#utility.yul\":9088:9089   */\n      0x00\n        /* \"#utility.yul\":9081:9112   */\n      mstore\n        /* \"#utility.yul\":9131:9135   */\n      0x11\n        /* \"#utility.yul\":9128:9129   */\n      0x04\n        /* \"#utility.yul\":9121:9136   */\n      mstore\n        /* \"#utility.yul\":9155:9159   */\n      0x24\n        /* \"#utility.yul\":9152:9153   */\n      0x00\n        /* \"#utility.yul\":9145:9160   */\n      revert\n        /* \"#utility.yul\":9171:9296   */\n    tag_180:\n        /* \"#utility.yul\":9236:9245   */\n      dup1\n      dup3\n      add\n        /* \"#utility.yul\":9257:9267   */\n      dup1\n      dup3\n      gt\n        /* \"#utility.yul\":9254:9290   */\n      iszero\n      tag_181\n      jumpi\n        /* \"#utility.yul\":9270:9288   */\n      tag_181\n      tag_667\n      jump\t// in\n        /* \"#utility.yul\":9633:9845   */\n    tag_668:\n        /* \"#utility.yul\":9675:9678   */\n      0x00\n        /* \"#utility.yul\":9713:9718   */\n      dup2\n        /* \"#utility.yul\":9707:9719   */\n      mload\n        /* \"#utility.yul\":9757:9763   */\n      dup1\n        /* \"#utility.yul\":9750:9754   */\n      0x20\n        /* \"#utility.yul\":9743:9748   */\n      dup5\n        /* \"#utility.yul\":9739:9755   */\n      add\n        /* \"#utility.yul\":9734:9737   */\n      dup6\n        /* \"#utility.yul\":9728:9764   */\n      mcopy\n        /* \"#utility.yul\":9819:9820   */\n      0x00\n        /* \"#utility.yul\":9783:9799   */\n      swap4\n      add\n        /* \"#utility.yul\":9808:9821   */\n      swap3\n      dup4\n      mstore\n      pop\n        /* \"#utility.yul\":9783:9799   */\n      swap1\n      swap2\n        /* \"#utility.yul\":9633:9845   */\n      swap1\n      pop\n      jump\t// out\n        /* \"#utility.yul\":9850:10198   */\n    tag_214:\n        /* \"#utility.yul\":10082:10085   */\n      0x00\n        /* \"#utility.yul\":10110:10140   */\n      tag_754\n        /* \"#utility.yul\":10136:10139   */\n      dup3\n        /* \"#utility.yul\":10128:10134   */\n      dup5\n        /* \"#utility.yul\":10110:10140   */\n      tag_668\n      jump\t// in\n    tag_754:\n      shl(0xec, 0x02d4c5)\n        /* \"#utility.yul\":10149:10166   */\n      dup2\n      mstore\n        /* \"#utility.yul\":10190:10191   */\n      0x03\n        /* \"#utility.yul\":10182:10192   */\n      add\n      swap4\n        /* \"#utility.yul\":9850:10198   */\n      swap3\n      pop\n      pop\n      pop\n      jump\t// out\n        /* \"#utility.yul\":10417:10545   */\n    tag_232:\n        /* \"#utility.yul\":10484:10493   */\n      dup2\n      dup2\n      sub\n        /* \"#utility.yul\":10505:10516   */\n      dup2\n      dup2\n      gt\n        /* \"#utility.yul\":10502:10539   */\n      iszero\n      tag_181\n      jumpi\n        /* \"#utility.yul\":10519:10537   */\n      tag_181\n      tag_667\n      jump\t// in\n        /* \"#utility.yul\":10550:10767   */\n    tag_234:\n        /* \"#utility.yul\":10590:10591   */\n      0x00\n        /* \"#utility.yul\":10616:10617   */\n      dup3\n        /* \"#utility.yul\":10606:10738   */\n      tag_760\n      jumpi\n        /* \"#utility.yul\":10660:10670   */\n      0x4e487b71\n        /* \"#utility.yul\":10655:10658   */\n      0xe0\n        /* \"#utility.yul\":10651:10671   */\n      shl\n        /* \"#utility.yul\":10648:10649   */\n      0x00\n        /* \"#utility.yul\":10641:10672   */\n      mstore\n        /* \"#utility.yul\":10695:10699   */\n      0x12\n        /* \"#utility.yul\":10692:10693   */\n      0x04\n        /* \"#utility.yul\":10685:10700   */\n      mstore\n        /* \"#utility.yul\":10723:10727   */\n      0x24\n        /* \"#utility.yul\":10720:10721   */\n      0x00\n        /* \"#utility.yul\":10713:10728   */\n      revert\n        /* \"#utility.yul\":10606:10738   */\n    tag_760:\n      pop\n        /* \"#utility.yul\":10752:10761   */\n      div\n      swap1\n        /* \"#utility.yul\":10550:10767   */\n      jump\t// out\n        /* \"#utility.yul\":11025:11209   */\n    tag_245:\n        /* \"#utility.yul\":11095:11101   */\n      0x00\n        /* \"#utility.yul\":11148:11150   */\n      0x20\n        /* \"#utility.yul\":11136:11145   */\n      dup3\n        /* \"#utility.yul\":11127:11134   */\n      dup5\n        /* \"#utility.yul\":11123:11146   */\n      sub\n        /* \"#utility.yul\":11119:11151   */\n      slt\n        /* \"#utility.yul\":11116:11168   */\n      iszero\n      tag_763\n      jumpi\n        /* \"#utility.yul\":11164:11165   */\n      0x00\n        /* \"#utility.yul\":11161:11162   */\n      0x00\n        /* \"#utility.yul\":11154:11166   */\n      revert\n        /* \"#utility.yul\":11116:11168   */\n    tag_763:\n      pop\n        /* \"#utility.yul\":11187:11203   */\n      mload\n      swap2\n        /* \"#utility.yul\":11025:11209   */\n      swap1\n      pop\n      jump\t// out\n        /* \"#utility.yul\":11214:11341   */\n    tag_251:\n        /* \"#utility.yul\":11275:11285   */\n      0x4e487b71\n        /* \"#utility.yul\":11270:11273   */\n      0xe0\n        /* \"#utility.yul\":11266:11286   */\n      shl\n        /* \"#utility.yul\":11263:11264   */\n      0x00\n        /* \"#utility.yul\":11256:11287   */\n      mstore\n        /* \"#utility.yul\":11306:11310   */\n      0x32\n        /* \"#utility.yul\":11303:11304   */\n      0x04\n        /* \"#utility.yul\":11296:11311   */\n      mstore\n        /* \"#utility.yul\":11330:11334   */\n      0x24\n        /* \"#utility.yul\":11327:11328   */\n      0x00\n        /* \"#utility.yul\":11320:11335   */\n      revert\n        /* \"#utility.yul\":11346:11597   */\n    tag_304:\n        /* \"#utility.yul\":11416:11422   */\n      0x00\n        /* \"#utility.yul\":11469:11471   */\n      0x20\n        /* \"#utility.yul\":11457:11466   */\n      dup3\n        /* \"#utility.yul\":11448:11455   */\n      dup5\n        /* \"#utility.yul\":11444:11467   */\n      sub\n        /* \"#utility.yul\":11440:11472   */\n      slt\n        /* \"#utility.yul\":11437:11489   */\n      iszero\n      tag_766\n      jumpi\n        /* \"#utility.yul\":11485:11486   */\n      0x00\n        /* \"#utility.yul\":11482:11483   */\n      0x00\n        /* \"#utility.yul\":11475:11487   */\n      revert\n        /* \"#utility.yul\":11437:11489   */\n    tag_766:\n        /* \"#utility.yul\":11517:11526   */\n      dup2\n        /* \"#utility.yul\":11511:11527   */\n      mload\n        /* \"#utility.yul\":11536:11567   */\n      tag_463\n        /* \"#utility.yul\":11561:11566   */\n      dup2\n        /* \"#utility.yul\":11536:11567   */\n      tag_661\n      jump\t// in\n        /* \"#utility.yul\":11907:12908   */\n    tag_320:\n        /* \"#utility.yul\":12002:12008   */\n      0x00\n        /* \"#utility.yul\":12055:12057   */\n      0x20\n        /* \"#utility.yul\":12043:12052   */\n      dup3\n        /* \"#utility.yul\":12034:12041   */\n      dup5\n        /* \"#utility.yul\":12030:12053   */\n      sub\n        /* \"#utility.yul\":12026:12058   */\n      slt\n        /* \"#utility.yul\":12023:12075   */\n      iszero\n      tag_770\n      jumpi\n        /* \"#utility.yul\":12071:12072   */\n      0x00\n        /* \"#utility.yul\":12068:12069   */\n      0x00\n        /* \"#utility.yul\":12061:12073   */\n      revert\n        /* \"#utility.yul\":12023:12075   */\n    tag_770:\n        /* \"#utility.yul\":12104:12113   */\n      dup2\n        /* \"#utility.yul\":12098:12114   */\n      mload\n      sub(shl(0x40, 0x01), 0x01)\n        /* \"#utility.yul\":12129:12135   */\n      dup2\n        /* \"#utility.yul\":12126:12156   */\n      gt\n        /* \"#utility.yul\":12123:12173   */\n      iszero\n      tag_771\n      jumpi\n        /* \"#utility.yul\":12169:12170   */\n      0x00\n        /* \"#utility.yul\":12166:12167   */\n      0x00\n        /* \"#utility.yul\":12159:12171   */\n      revert\n        /* \"#utility.yul\":12123:12173   */\n    tag_771:\n        /* \"#utility.yul\":12192:12214   */\n      dup3\n      add\n        /* \"#utility.yul\":12245:12249   */\n      0x1f\n        /* \"#utility.yul\":12237:12250   */\n      dup2\n      add\n        /* \"#utility.yul\":12233:12260   */\n      dup5\n      sgt\n        /* \"#utility.yul\":12223:12278   */\n      tag_772\n      jumpi\n        /* \"#utility.yul\":12274:12275   */\n      0x00\n        /* \"#utility.yul\":12271:12272   */\n      0x00\n        /* \"#utility.yul\":12264:12276   */\n      revert\n        /* \"#utility.yul\":12223:12278   */\n    tag_772:\n        /* \"#utility.yul\":12307:12309   */\n      dup1\n        /* \"#utility.yul\":12301:12310   */\n      mload\n      sub(shl(0x40, 0x01), 0x01)\n        /* \"#utility.yul\":12325:12331   */\n      dup2\n        /* \"#utility.yul\":12322:12352   */\n      gt\n        /* \"#utility.yul\":12319:12375   */\n      iszero\n      tag_774\n      jumpi\n        /* \"#utility.yul\":12355:12373   */\n      tag_774\n      tag_223\n      jump\t// in\n    tag_774:\n        /* \"#utility.yul\":12401:12407   */\n      dup1\n        /* \"#utility.yul\":12398:12399   */\n      0x05\n        /* \"#utility.yul\":12394:12408   */\n      shl\n        /* \"#utility.yul\":12428:12456   */\n      tag_775\n        /* \"#utility.yul\":12452:12454   */\n      0x20\n        /* \"#utility.yul\":12448:12450   */\n      dup3\n        /* \"#utility.yul\":12444:12455   */\n      add\n        /* \"#utility.yul\":12428:12456   */\n      tag_663\n      jump\t// in\n    tag_775:\n        /* \"#utility.yul\":12490:12509   */\n      swap2\n      dup3\n      mstore\n        /* \"#utility.yul\":12534:12536   */\n      0x20\n        /* \"#utility.yul\":12564:12575   */\n      dup2\n      dup5\n      add\n        /* \"#utility.yul\":12560:12580   */\n      dup2\n      add\n      swap3\n        /* \"#utility.yul\":12525:12537   */\n      swap1\n      dup2\n      add\n      swap1\n        /* \"#utility.yul\":12592:12611   */\n      dup8\n      dup5\n      gt\n        /* \"#utility.yul\":12589:12628   */\n      iszero\n      tag_776\n      jumpi\n        /* \"#utility.yul\":12624:12625   */\n      0x00\n        /* \"#utility.yul\":12621:12622   */\n      0x00\n        /* \"#utility.yul\":12614:12626   */\n      revert\n        /* \"#utility.yul\":12589:12628   */\n    tag_776:\n        /* \"#utility.yul\":12656:12658   */\n      0x20\n        /* \"#utility.yul\":12652:12654   */\n      dup6\n        /* \"#utility.yul\":12648:12659   */\n      add\n        /* \"#utility.yul\":12637:12659   */\n      swap5\n      pop\n        /* \"#utility.yul\":12668:12878   */\n    tag_777:\n        /* \"#utility.yul\":12684:12690   */\n      dup4\n        /* \"#utility.yul\":12679:12682   */\n      dup6\n        /* \"#utility.yul\":12676:12691   */\n      lt\n        /* \"#utility.yul\":12668:12878   */\n      iszero\n      tag_632\n      jumpi\n        /* \"#utility.yul\":12757:12760   */\n      dup5\n        /* \"#utility.yul\":12751:12761   */\n      mload\n        /* \"#utility.yul\":12738:12761   */\n      swap3\n      pop\n        /* \"#utility.yul\":12774:12805   */\n      tag_780\n        /* \"#utility.yul\":12799:12804   */\n      dup4\n        /* \"#utility.yul\":12774:12805   */\n      tag_661\n      jump\t// in\n    tag_780:\n        /* \"#utility.yul\":12818:12836   */\n      dup3\n      dup3\n      mstore\n        /* \"#utility.yul\":12865:12867   */\n      0x20\n        /* \"#utility.yul\":12701:12713   */\n      swap5\n      dup6\n      add\n      swap5\n        /* \"#utility.yul\":12856:12868   */\n      swap1\n      swap2\n      add\n      swap1\n        /* \"#utility.yul\":12668:12878   */\n      jump(tag_777)\n        /* \"#utility.yul\":12913:13081   */\n    tag_322:\n        /* \"#utility.yul\":12986:12995   */\n      dup1\n      dup3\n      mul\n        /* \"#utility.yul\":13017:13026   */\n      dup2\n      iszero\n        /* \"#utility.yul\":13034:13049   */\n      dup3\n      dup3\n      div\n        /* \"#utility.yul\":13028:13050   */\n      dup5\n      eq\n        /* \"#utility.yul\":13014:13051   */\n      or\n        /* \"#utility.yul\":13004:13075   */\n      tag_181\n      jumpi\n        /* \"#utility.yul\":13055:13073   */\n      tag_181\n      tag_667\n      jump\t// in\n        /* \"#utility.yul\":13086:13418   */\n    tag_325:\n        /* \"#utility.yul\":13293:13299   */\n      dup3\n        /* \"#utility.yul\":13282:13291   */\n      dup2\n        /* \"#utility.yul\":13275:13300   */\n      mstore\n        /* \"#utility.yul\":13336:13338   */\n      0x40\n        /* \"#utility.yul\":13331:13333   */\n      0x20\n        /* \"#utility.yul\":13320:13329   */\n      dup3\n        /* \"#utility.yul\":13316:13334   */\n      add\n        /* \"#utility.yul\":13309:13339   */\n      mstore\n        /* \"#utility.yul\":13256:13260   */\n      0x00\n        /* \"#utility.yul\":13356:13412   */\n      tag_621\n        /* \"#utility.yul\":13408:13410   */\n      0x40\n        /* \"#utility.yul\":13397:13406   */\n      dup4\n        /* \"#utility.yul\":13393:13411   */\n      add\n        /* \"#utility.yul\":13385:13391   */\n      dup5\n        /* \"#utility.yul\":13356:13412   */\n      tag_662\n      jump\t// in\n        /* \"#utility.yul\":13819:14503   */\n    tag_414:\n        /* \"#utility.yul\":14019:14021   */\n      0x20\n        /* \"#utility.yul\":14031:14052   */\n      dup1\n      dup3\n      mstore\n        /* \"#utility.yul\":14004:14022   */\n      dup2\n      add\n        /* \"#utility.yul\":14087:14109   */\n      dup3\n      swap1\n      mstore\n        /* \"#utility.yul\":13971:13975   */\n      0x00\n        /* \"#utility.yul\":14166:14172   */\n      dup4\n        /* \"#utility.yul\":14140:14142   */\n      0x40\n        /* \"#utility.yul\":14125:14143   */\n      dup4\n      add\n        /* \"#utility.yul\":13971:13975   */\n      dup3\n        /* \"#utility.yul\":14200:14477   */\n    tag_788:\n        /* \"#utility.yul\":14214:14220   */\n      dup6\n        /* \"#utility.yul\":14211:14212   */\n      dup2\n        /* \"#utility.yul\":14208:14221   */\n      lt\n        /* \"#utility.yul\":14200:14477   */\n      iszero\n      tag_790\n      jumpi\n        /* \"#utility.yul\":14289:14295   */\n      dup3\n        /* \"#utility.yul\":14276:14296   */\n      calldataload\n        /* \"#utility.yul\":14309:14340   */\n      tag_791\n        /* \"#utility.yul\":14334:14339   */\n      dup2\n        /* \"#utility.yul\":14309:14340   */\n      tag_661\n      jump\t// in\n    tag_791:\n      sub(shl(0xa0, 0x01), 0x01)\n        /* \"#utility.yul\":14365:14396   */\n      and\n        /* \"#utility.yul\":14353:14397   */\n      dup3\n      mstore\n        /* \"#utility.yul\":14426:14428   */\n      0x20\n        /* \"#utility.yul\":14452:14467   */\n      swap3\n      dup4\n      add\n      swap3\n        /* \"#utility.yul\":14417:14429   */\n      swap1\n      swap2\n      add\n      swap1\n        /* \"#utility.yul\":14393:14394   */\n      0x01\n        /* \"#utility.yul\":14229:14238   */\n      add\n        /* \"#utility.yul\":14200:14477   */\n      jump(tag_788)\n    tag_790:\n      pop\n        /* \"#utility.yul\":14494:14497   */\n      swap6\n        /* \"#utility.yul\":13819:14503   */\n      swap5\n      pop\n      pop\n      pop\n      pop\n      pop\n      jump\t// out\n        /* \"#utility.yul\":15263:15781   */\n    tag_670:\n        /* \"#utility.yul\":15365:15367   */\n      0x1f\n        /* \"#utility.yul\":15360:15363   */\n      dup3\n        /* \"#utility.yul\":15357:15368   */\n      gt\n        /* \"#utility.yul\":15354:15775   */\n      iszero\n      tag_358\n      jumpi\n        /* \"#utility.yul\":15401:15406   */\n      dup1\n        /* \"#utility.yul\":15398:15399   */\n      0x00\n        /* \"#utility.yul\":15391:15407   */\n      mstore\n        /* \"#utility.yul\":15445:15449   */\n      0x20\n        /* \"#utility.yul\":15442:15443   */\n      0x00\n        /* \"#utility.yul\":15432:15450   */\n      keccak256\n        /* \"#utility.yul\":15515:15517   */\n      0x1f\n        /* \"#utility.yul\":15503:15513   */\n      dup5\n        /* \"#utility.yul\":15499:15518   */\n      add\n        /* \"#utility.yul\":15496:15497   */\n      0x05\n        /* \"#utility.yul\":15492:15519   */\n      shr\n        /* \"#utility.yul\":15486:15490   */\n      dup2\n        /* \"#utility.yul\":15482:15520   */\n      add\n        /* \"#utility.yul\":15551:15555   */\n      0x20\n        /* \"#utility.yul\":15539:15549   */\n      dup6\n        /* \"#utility.yul\":15536:15556   */\n      lt\n        /* \"#utility.yul\":15533:15580   */\n      iszero\n      tag_797\n      jumpi\n      pop\n        /* \"#utility.yul\":15574:15578   */\n      dup1\n        /* \"#utility.yul\":15533:15580   */\n    tag_797:\n        /* \"#utility.yul\":15629:15631   */\n      0x1f\n        /* \"#utility.yul\":15624:15627   */\n      dup5\n        /* \"#utility.yul\":15620:15632   */\n      add\n        /* \"#utility.yul\":15617:15618   */\n      0x05\n        /* \"#utility.yul\":15613:15633   */\n      shr\n        /* \"#utility.yul\":15607:15611   */\n      dup3\n        /* \"#utility.yul\":15603:15634   */\n      add\n        /* \"#utility.yul\":15593:15634   */\n      swap2\n      pop\n        /* \"#utility.yul\":15684:15765   */\n    tag_798:\n        /* \"#utility.yul\":15702:15704   */\n      dup2\n        /* \"#utility.yul\":15695:15700   */\n      dup2\n        /* \"#utility.yul\":15692:15705   */\n      lt\n        /* \"#utility.yul\":15684:15765   */\n      iszero\n      tag_579\n      jumpi\n        /* \"#utility.yul\":15761:15762   */\n      0x00\n        /* \"#utility.yul\":15747:15763   */\n      dup2\n      sstore\n        /* \"#utility.yul\":15728:15729   */\n      0x01\n        /* \"#utility.yul\":15717:15730   */\n      add\n        /* \"#utility.yul\":15684:15765   */\n      jump(tag_798)\n        /* \"#utility.yul\":15957:17256   */\n    tag_601:\n        /* \"#utility.yul\":16083:16086   */\n      dup2\n        /* \"#utility.yul\":16077:16087   */\n      mload\n      sub(shl(0x40, 0x01), 0x01)\n        /* \"#utility.yul\":16102:16108   */\n      dup2\n        /* \"#utility.yul\":16099:16129   */\n      gt\n        /* \"#utility.yul\":16096:16152   */\n      iszero\n      tag_804\n      jumpi\n        /* \"#utility.yul\":16132:16150   */\n      tag_804\n      tag_223\n      jump\t// in\n    tag_804:\n        /* \"#utility.yul\":16161:16258   */\n      tag_805\n        /* \"#utility.yul\":16251:16257   */\n      dup2\n        /* \"#utility.yul\":16211:16249   */\n      tag_806\n        /* \"#utility.yul\":16243:16247   */\n      dup5\n        /* \"#utility.yul\":16237:16248   */\n      sload\n        /* \"#utility.yul\":16211:16249   */\n      tag_170\n      jump\t// in\n    tag_806:\n        /* \"#utility.yul\":16205:16209   */\n      dup5\n        /* \"#utility.yul\":16161:16258   */\n      tag_670\n      jump\t// in\n    tag_805:\n        /* \"#utility.yul\":16307:16311   */\n      0x20\n        /* \"#utility.yul\":16338:16340   */\n      0x1f\n        /* \"#utility.yul\":16327:16341   */\n      dup3\n      gt\n        /* \"#utility.yul\":16355:16356   */\n      0x01\n        /* \"#utility.yul\":16350:16999   */\n      dup2\n      eq\n      tag_808\n      jumpi\n        /* \"#utility.yul\":17043:17044   */\n      0x00\n        /* \"#utility.yul\":17060:17066   */\n      dup4\n        /* \"#utility.yul\":17057:17146   */\n      iszero\n      tag_809\n      jumpi\n      pop\n        /* \"#utility.yul\":17112:17131   */\n      dup5\n      dup3\n      add\n        /* \"#utility.yul\":17106:17132   */\n      mload\n        /* \"#utility.yul\":17057:17146   */\n    tag_809:\n      not(0x00)\n        /* \"#utility.yul\":15914:15915   */\n      0x03\n        /* \"#utility.yul\":15910:15921   */\n      dup6\n      swap1\n      shl\n        /* \"#utility.yul\":15906:15930   */\n      shr\n        /* \"#utility.yul\":15902:15931   */\n      not\n        /* \"#utility.yul\":15892:15932   */\n      and\n        /* \"#utility.yul\":15938:15939   */\n      0x01\n        /* \"#utility.yul\":15934:15945   */\n      dup5\n      swap1\n      shl\n        /* \"#utility.yul\":15889:15946   */\n      or\n        /* \"#utility.yul\":17159:17240   */\n      dup5\n      sstore\n        /* \"#utility.yul\":16320:17250   */\n      jump(tag_579)\n        /* \"#utility.yul\":16350:16999   */\n    tag_808:\n        /* \"#utility.yul\":15210:15211   */\n      0x00\n        /* \"#utility.yul\":15203:15217   */\n      dup5\n      dup2\n      mstore\n        /* \"#utility.yul\":15247:15251   */\n      0x20\n        /* \"#utility.yul\":15234:15252   */\n      dup2\n      keccak256\n      not(0x1f)\n        /* \"#utility.yul\":16386:16406   */\n      dup6\n      and\n      swap2\n        /* \"#utility.yul\":16504:16726   */\n    tag_812:\n        /* \"#utility.yul\":16518:16525   */\n      dup3\n        /* \"#utility.yul\":16515:16516   */\n      dup2\n        /* \"#utility.yul\":16512:16526   */\n      lt\n        /* \"#utility.yul\":16504:16726   */\n      iszero\n      tag_814\n      jumpi\n        /* \"#utility.yul\":16600:16619   */\n      dup8\n      dup6\n      add\n        /* \"#utility.yul\":16594:16620   */\n      mload\n        /* \"#utility.yul\":16579:16621   */\n      dup3\n      sstore\n        /* \"#utility.yul\":16707:16711   */\n      0x20\n        /* \"#utility.yul\":16692:16712   */\n      swap5\n      dup6\n      add\n      swap5\n        /* \"#utility.yul\":16660:16661   */\n      0x01\n        /* \"#utility.yul\":16648:16662   */\n      swap1\n      swap3\n      add\n      swap2\n        /* \"#utility.yul\":16534:16546   */\n      add\n        /* \"#utility.yul\":16504:16726   */\n      jump(tag_812)\n    tag_814:\n        /* \"#utility.yul\":16508:16511   */\n      pop\n        /* \"#utility.yul\":16754:16760   */\n      dup5\n        /* \"#utility.yul\":16745:16752   */\n      dup3\n        /* \"#utility.yul\":16742:16761   */\n      lt\n        /* \"#utility.yul\":16739:16940   */\n      iszero\n      tag_815\n      jumpi\n        /* \"#utility.yul\":16815:16834   */\n      dup7\n      dup5\n      add\n        /* \"#utility.yul\":16809:16835   */\n      mload\n      not(0x00)\n        /* \"#utility.yul\":16898:16899   */\n      0x03\n        /* \"#utility.yul\":16894:16908   */\n      dup8\n      swap1\n      shl\n        /* \"#utility.yul\":16910:16913   */\n      0xf8\n        /* \"#utility.yul\":16890:16914   */\n      and\n        /* \"#utility.yul\":16886:16923   */\n      shr\n        /* \"#utility.yul\":16882:16924   */\n      not\n        /* \"#utility.yul\":16867:16925   */\n      and\n        /* \"#utility.yul\":16852:16926   */\n      dup2\n      sstore\n        /* \"#utility.yul\":16739:16940   */\n    tag_815:\n      pop\n      pop\n      pop\n      pop\n        /* \"#utility.yul\":16986:16987   */\n      0x01\n        /* \"#utility.yul\":16970:16984   */\n      swap1\n      dup2\n      shl\n        /* \"#utility.yul\":16966:16988   */\n      add\n        /* \"#utility.yul\":16953:16989   */\n      swap1\n      sstore\n      pop\n        /* \"#utility.yul\":15957:17256   */\n      jump\t// out\n        /* \"#utility.yul\":17261:17506   */\n    tag_614:\n        /* \"#utility.yul\":17328:17334   */\n      0x00\n        /* \"#utility.yul\":17381:17383   */\n      0x20\n        /* \"#utility.yul\":17369:17378   */\n      dup3\n        /* \"#utility.yul\":17360:17367   */\n      dup5\n        /* \"#utility.yul\":17356:17379   */\n      sub\n        /* \"#utility.yul\":17352:17384   */\n      slt\n        /* \"#utility.yul\":17349:17401   */\n      iszero\n      tag_817\n      jumpi\n        /* \"#utility.yul\":17397:17398   */\n      0x00\n        /* \"#utility.yul\":17394:17395   */\n      0x00\n        /* \"#utility.yul\":17387:17399   */\n      revert\n        /* \"#utility.yul\":17349:17401   */\n    tag_817:\n        /* \"#utility.yul\":17429:17438   */\n      dup2\n        /* \"#utility.yul\":17423:17439   */\n      mload\n        /* \"#utility.yul\":17448:17476   */\n      tag_463\n        /* \"#utility.yul\":17470:17475   */\n      dup2\n        /* \"#utility.yul\":17448:17476   */\n      tag_666\n      jump\t// in\n        /* \"#utility.yul\":18329:18519   */\n    tag_628:\n        /* \"#utility.yul\":18458:18461   */\n      0x00\n        /* \"#utility.yul\":18483:18513   */\n      tag_463\n        /* \"#utility.yul\":18509:18512   */\n      dup3\n        /* \"#utility.yul\":18501:18507   */\n      dup5\n        /* \"#utility.yul\":18483:18513   */\n      tag_668\n      jump\t// in\n    stop\n    data_3874827173e8df9f34323b12b251d1d3c53926ce129e30a0d69f1d47c277041b 52c63247e1f47db19d5ce0460030c497f067ca4cebf71ba98eeadabe20bace00\n    data_5c46c655e238aa25f8cbb2dc253afd95ec6fe3438bb2613b924ec6dfbcfd524d 52c63247e1f47db19d5ce0460030c497f067ca4cebf71ba98eeadabe20bace02\n\n    auxdata: 0xa2646970667358221220cb19986944f508eb69ba00ae534455059cf7526c67241b26a7c16baa945a70b564736f6c634300081e0033\n}\n",
				"bytecode": {
					"linkReferences": {},
					"object": "6080604052348015600e575f5ffd5b506128498061001c5f395ff3fe608060405234801561000f575f5ffd5b50600436106101e7575f3560e01c80639257fa0711610109578063d2c725e01161009e578063de836ebd1161006e578063de836ebd1461041a578063e54ef9a01461042d578063ec5975c614610440578063f2fde38b14610448575f5ffd5b8063d2c725e0146103d4578063d410ad7d146103e1578063dd62ed3e146103f4578063de41691c14610407575f5ffd5b8063a9059cbb116100d9578063a9059cbb14610394578063b4b93c8c146103a7578063ba6ba385146103af578063c45a0155146103c2575f5ffd5b80639257fa071461034f57806395d89b4114610362578063a131d4361461036a578063a7c7fdeb1461038c575f5ffd5b80635483067d1161017f578063715018a61161014f578063715018a61461030c57806389afcb44146103145780638da5cb5b146103345780638e73f1b41461033c575f5ffd5b80635483067d146102a257806355917ebe146102ab57806367ccdf38146102ce57806370a08231146102f9575f5ffd5b806323b872dd116101ba57806323b872dd14610256578063273cbaa014610269578063313ce5671461027e5780633a105cfb1461028d575f5ffd5b806306fdde03146101eb578063090318fb14610209578063095ea7b31461021f57806318160ddd14610242575b5f5ffd5b6101f361045b565b604051610200919061209b565b60405180910390f35b61021161051b565b604051908152602001610200565b61023261022d3660046120e4565b610544565b6040519015158152602001610200565b5f5160206127f45f395f51905f5254610211565b61023261026436600461210e565b61055d565b610271610580565b604051610200919061218f565b60405160128152602001610200565b6102a061029b36600461222c565b610605565b005b61021160015481565b6102b3610813565b60408051938452602084019290925290820152606001610200565b6102e16102dc3660046122fc565b6108e4565b6040516001600160a01b039091168152602001610200565b610211610307366004612313565b610937565b6102a061095d565b610327610322366004612313565b610970565b604051610200919061235e565b6102e1610a93565b61021161034a3660046122fc565b610ac1565b61021161035d3660046122fc565b610b0a565b6101f3610d4e565b61037d610378366004612313565b610d8c565b60405161020093929190612370565b6102a0610e7c565b6102326103a23660046120e4565b610f13565b6102a0610f20565b6102a06103bd3660046123a1565b610fe2565b5f546102e1906001600160a01b031681565b6002546102329060ff1681565b6103276103ef3660046122fc565b610ffd565b6102116104023660046123bc565b6110ff565b6102a06104153660046123f3565b611148565b610211610428366004612431565b6111c3565b61021161043b3660046122fc565b61144e565b6103276114c8565b6102a0610456366004612313565b611542565b7f52c63247e1f47db19d5ce0460030c497f067ca4cebf71ba98eeadabe20bace0380546060915f5160206127d45f395f51905f529161049990612481565b80601f01602080910402602001604051908101604052809291908181526020018280546104c590612481565b80156105105780601f106104e757610100808354040283529160200191610510565b820191905f5260205f20905b8154815290600101906020018083116104f357829003601f168201915b505050505091505090565b5f5f610525610813565b92505050610534610307610a93565b61053e90826124cd565b91505090565b5f3361055181858561157f565b60019150505b92915050565b5f3361056a85828561158c565b6105758585856115f0565b506001949350505050565b60025460609060ff16156105a7576040516306fda65d60e31b815260040160405180910390fd5b60038054806020026020016040519081016040528092919081815260200182805480156105fb57602002820191905f5260205f20905b81546001600160a01b031681526001909101906020018083116105dd575b5050505050905090565b5f61060e61164d565b805490915060ff600160401b82041615906001600160401b03165f811580156106345750825b90505f826001600160401b0316600114801561064f5750303b155b90508115801561065d575080155b1561067b5760405163f92ee8a960e01b815260040160405180910390fd5b845467ffffffffffffffff1916600117855583156106a557845460ff60401b1916600160401b1785555b5f8690036106c65760405163c1ab6dc160e01b815260040160405180910390fd5b87515f0361070957604051632432186360e21b8152600401610700906020808252600490820152636e616d6560e01b604082015260600190565b60405180910390fd5b8760405160200161071a91906124f7565b60405160208183030381529060405297506107358889611675565b61073e3361168b565b61074a60038888611fed565b506003546001600160401b03811115610765576107656121a1565b60405190808252806020026020018201604052801561078e578160200160208202803683370190505b5080516107a39160049160209091019061204e565b505f80546001600160a01b0319166001600160a01b038b1617905542600155831561080857845460ff60401b19168555604051600181527fc7f505b2f371ae2175ee4913f4499e1f2633a7b5936321eed1cdaeb6115181d29060200160405180910390a15b505050505050505050565b5f5f5f62278d00600154426108289190612515565b6108329190612528565b92506108495f5160206127f45f395f51905f525490565b9150821580610856575081155b15610862575090915f90565b5f546001600160a01b031660405163d23aaed360e01b815260048101859052602481018490526001600160a01b03919091169063d23aaed390604401602060405180830381865afa1580156108b9573d5f5f3e3d5ffd5b505050506040513d601f19601f820116820180604052508101906108dd9190612547565b9050909192565b6002545f9060ff161561090a576040516306fda65d60e31b815260040160405180910390fd5b6003828154811061091d5761091d61255e565b5f918252602090912001546001600160a01b031692915050565b6001600160a01b03165f9081525f5160206127d45f395f51905f52602052604090205490565b61096561169c565b61096e5f6116ce565b565b606061097a61169c565b6001600160a01b0382166109a157604051634e46966960e11b815260040160405180910390fd5b6109a9610f20565b5f6109b330610937565b9050805f036109d55760405163bb55fd2760e01b815260040160405180910390fd5b6109de81610ffd565b91506109ea308261173e565b6003545f5b81811015610a8b575f848281518110610a0a57610a0a61255e565b602002602001015190505f811115610a53575f60038381548110610a3057610a3061255e565b5f918252602090912001546001600160a01b03169050610a51818884611772565b505b8060048381548110610a6757610a6761255e565b905f5260205f20015f828254610a7d9190612515565b9091555050506001016109ef565b505050919050565b7f9016d09d72d40fdae2fd8ceac6b6234c7706214fd39c1cd1e609a0528c199300546001600160a01b031690565b6002545f9060ff1615610ae7576040516306fda65d60e31b815260040160405180910390fd5b60048281548110610afa57610afa61255e565b905f5260205f2001549050919050565b6002545f9060ff1615610b30576040516306fda65d60e31b815260040160405180910390fd5b5f610b465f5160206127f45f395f51905f525490565b9050805f03610b5757505f92915050565b5f80546001600160a01b031690505f60048054905090505f826001600160a01b0316633fc8cef36040518163ffffffff1660e01b8152600401602060405180830381865afa158015610bab573d5f5f3e3d5ffd5b505050506040513d601f19601f82011682018060405250810190610bcf9190612572565b90505f5b82811015610d44575f60038281548110610bef57610bef61255e565b5f918252602082200154600480546001600160a01b0390921693509084908110610c1b57610c1b61255e565b905f5260205f20015490505f811115610d3a5760405163d88e3e3b60e01b81526001600160a01b03838116600483015285811660248301525f919088169063d88e3e3b906044015f60405180830381865afa158015610c7c573d5f5f3e3d5ffd5b505050506040513d5f823e601f3d908101601f19168201604052610ca3919081019061258d565b90505f88610cb1848d612634565b610cbb9190612528565b60405163d06ca61f60e01b81529091506001600160a01b0389169063d06ca61f90610cec908490869060040161264b565b602060405180830381865afa158015610d07573d5f5f3e3d5ffd5b505050506040513d601f19601f82011682018060405250810190610d2b9190612547565b610d35908b6124cd565b995050505b5050600101610bd3565b5050505050919050565b7f52c63247e1f47db19d5ce0460030c497f067ca4cebf71ba98eeadabe20bace0480546060915f5160206127d45f395f51905f529161049990612481565b6002546060905f90819060ff1615610db7576040516306fda65d60e31b815260040160405180910390fd5b6003545f816001600160401b03811115610dd357610dd36121a1565b604051908082528060200260200182016040528015610dfc578160200160208202803683370190505b5090505f5b82811015610e4a5760048181548110610e1c57610e1c61255e565b905f5260205f200154828281518110610e3757610e3761255e565b6020908102919091010152600101610e01565b505f610e615f5160206127f45f395f51905f525490565b90505f610e6d88610937565b92989197509195509350505050565b610e8461169c565b5f610e8d610a93565b6003549091505f5b81811015610f0e575f60038281548110610eb157610eb161255e565b5f918252602082200154600480546001600160a01b0390921693509084908110610edd57610edd61255e565b905f5260205f20015490505f811115610f0457610f046001600160a01b0383168683611772565b5050600101610e95565b505050565b5f336105518185856115f0565b5f5f5f610f2b610813565b925092509250825f03610f3d57505050565b8015610f5457610f54610f4e610a93565b826117c4565b610f618362278d00612634565b60015f828254610f7191906124cd565b90915550610f7f9050610a93565b6001600160a01b03167f06ef86d1d001d3f4d5d79d6a6647502b17af442209a78bbbafb8867cb5cf6fb7848484600154604051610fd5949392919093845260208401929092526040830152606082015260800190565b60405180910390a2505050565b610fea61169c565b6002805460ff1916911515919091179055565b60025460609060ff1615611024576040516306fda65d60e31b815260040160405180910390fd5b5f61103a5f5160206127f45f395f51905f525490565b6003549091506001600160401b03811115611057576110576121a1565b604051908082528060200260200182016040528015611080578160200160208202803683370190505b509150805f036110905750919050565b5f5b6004548110156110f8575f600482815481106110b0576110b061255e565b905f5260205f20015490508281866110c89190612634565b6110d29190612528565b8483815181106110e4576110e461255e565b602090810291909101015250600101611092565b5050919050565b6001600160a01b039182165f9081527f52c63247e1f47db19d5ce0460030c497f067ca4cebf71ba98eeadabe20bace016020908152604080832093909416825291909152205490565b61115061169c565b5f8190036111715760405163c1ab6dc160e01b815260040160405180910390fd5b61117d60038383611fed565b506111866117f8565b7f3ca096a4c913a6f222a557151d17832dddab787e6ddf59063cab45e15b9a9fac82826040516111b7929190612663565b60405180910390a15050565b5f6111cc61169c565b6001600160a01b0384166111f357604051634e46966960e11b815260040160405180910390fd5b5f80546001600160a01b031690505f816001600160a01b0316633fc8cef36040518163ffffffff1660e01b8152600401602060405180830381865afa15801561123e573d5f5f3e3d5ffd5b505050506040513d601f19601f820116820180604052508101906112629190612572565b905061126c610f20565b6003545f805b828110156113af575f6003828154811061128e5761128e61255e565b5f91825260208220015460405163d88e3e3b60e01b81526001600160a01b0391821660048201819052888316602483015293509088169063d88e3e3b906044015f60405180830381865afa1580156112e8573d5f5f3e3d5ffd5b505050506040513d5f823e601f3d908101601f1916820160405261130f919081019061258d565b9050866001600160a01b031663d06ca61f8b8b868181106113325761133261255e565b90506020020135836040518363ffffffff1660e01b815260040161135792919061264b565b602060405180830381865afa158015611372573d5f5f3e3d5ffd5b505050506040513d601f19601f820116820180604052508101906113969190612547565b6113a090856124cd565b93508260010192505050611272565b505f5160206127f45f395f51905f5254156113d2576113cd8161144e565b6113dd565b683635c9adc5dea000005b94506113e988866117c4565b5f5b86811015611442578787828181106114055761140561255e565b905060200201356004828154811061141f5761141f61255e565b905f5260205f20015f82825461143591906124cd565b90915550506001016113eb565b50505050509392505050565b6002545f9060ff1615611474576040516306fda65d60e31b815260040160405180910390fd5b5f61147d61190c565b9050805f036114975750683635c9adc5dea0000092915050565b806114ad5f5160206127f45f395f51905f525490565b6114b79085612634565b6114c19190612528565b9392505050565b60025460609060ff16156114ef576040516306fda65d60e31b815260040160405180910390fd5b60048054806020026020016040519081016040528092919081815260200182805480156105fb57602002820191905f5260205f20905b815481526020019060010190808311611525575050505050905090565b61154a61169c565b6001600160a01b03811661157357604051631e4fbdf760e01b81525f6004820152602401610700565b61157c816116ce565b50565b610f0e8383836001611add565b5f61159784846110ff565b90505f198110156115ea57818110156115dc57604051637dc7a0d960e11b81526001600160a01b03841660048201526024810182905260448101839052606401610700565b6115ea84848484035f611add565b50505050565b6001600160a01b03831661161957604051634b637e8f60e11b81525f6004820152602401610700565b6001600160a01b0382166116425760405163ec442f0560e01b81525f6004820152602401610700565b610f0e838383611bc1565b5f807ff0c57e16840df040f15088dc2f81fe391c3923bec73e23a9662efc9c229c6a00610557565b61167d611cfa565b6116878282611d1f565b5050565b611693611cfa565b61157c81611d6f565b336116a5610a93565b6001600160a01b03161461096e5760405163118cdaa760e01b8152336004820152602401610700565b7f9016d09d72d40fdae2fd8ceac6b6234c7706214fd39c1cd1e609a0528c19930080546001600160a01b031981166001600160a01b03848116918217845560405192169182907f8be0079c531659141344cd1fd0a4f28419497f9722a3daafe3b4186f6b6457e0905f90a3505050565b6001600160a01b03821661176757604051634b637e8f60e11b81525f6004820152602401610700565b611687825f83611bc1565b604080516001600160a01b038416602482015260448082018490528251808303909101815260649091019091526020810180516001600160e01b031663a9059cbb60e01b179052610f0e908490611d77565b6001600160a01b0382166117ed5760405163ec442f0560e01b81525f6004820152602401610700565b6116875f8383611bc1565b600354806001600160401b03811115611813576118136121a1565b60405190808252806020026020018201604052801561183c578160200160208202803683370190505b5080516118519160049160209091019061204e565b505f5b81811015611687575f600382815481106118705761187061255e565b5f918252602090912001546040516370a0823160e01b81523060048201526001600160a01b03909116915081906370a0823190602401602060405180830381865afa1580156118c1573d5f5f3e3d5ffd5b505050506040513d601f19601f820116820180604052508101906118e59190612547565b600483815481106118f8576118f861255e565b5f9182526020909120015550600101611854565b5f5f61191f5f546001600160a01b031690565b90505f816001600160a01b0316633fc8cef36040518163ffffffff1660e01b8152600401602060405180830381865afa15801561195e573d5f5f3e3d5ffd5b505050506040513d601f19601f820116820180604052508101906119829190612572565b6004549091505f5b81811015611ad6575f600482815481106119a6576119a661255e565b905f5260205f20015490505f811115611acd575f600383815481106119cd576119cd61255e565b5f91825260208220015460405163d88e3e3b60e01b81526001600160a01b0391821660048201819052888316602483015293509088169063d88e3e3b906044015f60405180830381865afa158015611a27573d5f5f3e3d5ffd5b505050506040513d5f823e601f3d908101601f19168201604052611a4e919081019061258d565b60405163d06ca61f60e01b81529091506001600160a01b0388169063d06ca61f90611a7f908690859060040161264b565b602060405180830381865afa158015611a9a573d5f5f3e3d5ffd5b505050506040513d601f19601f82011682018060405250810190611abe9190612547565b611ac890896124cd565b975050505b5060010161198a565b5050505090565b5f5160206127d45f395f51905f526001600160a01b038516611b145760405163e602df0560e01b81525f6004820152602401610700565b6001600160a01b038416611b3d57604051634a1406b160e11b81525f6004820152602401610700565b6001600160a01b038086165f90815260018301602090815260408083209388168352929052208390558115611bba57836001600160a01b0316856001600160a01b03167f8c5be1e5ebec7d5bd14f71427d1e84f3dd0314c0f7b2291e5b200ac8c7c3b92585604051611bb191815260200190565b60405180910390a35b5050505050565b5f5160206127d45f395f51905f526001600160a01b038416611bfb5781816002015f828254611bf091906124cd565b90915550611c6b9050565b6001600160a01b0384165f9081526020829052604090205482811015611c4d5760405163391434e360e21b81526001600160a01b03861660048201526024810182905260448101849052606401610700565b6001600160a01b0385165f9081526020839052604090209083900390555b6001600160a01b038316611c89576002810180548390039055611ca7565b6001600160a01b0383165f9081526020829052604090208054830190555b826001600160a01b0316846001600160a01b03167fddf252ad1be2c89b69c2b068fc378daa952ba7f163c4a11628f55a4df523b3ef84604051611cec91815260200190565b60405180910390a350505050565b611d02611e4a565b61096e57604051631afcd79f60e31b815260040160405180910390fd5b611d27611cfa565b5f5160206127d45f395f51905f527f52c63247e1f47db19d5ce0460030c497f067ca4cebf71ba98eeadabe20bace03611d6084826126f3565b50600481016115ea83826126f3565b61154a611cfa565b5f611dcb826040518060400160405280602081526020017f5361666545524332303a206c6f772d6c6576656c2063616c6c206661696c6564815250856001600160a01b0316611e639092919063ffffffff16565b905080515f1480611deb575080806020019051810190611deb91906127ad565b610f0e5760405162461bcd60e51b815260206004820152602a60248201527f5361666545524332303a204552433230206f7065726174696f6e20646964206e6044820152691bdd081cdd58d8d9595960b21b6064820152608401610700565b5f611e5361164d565b54600160401b900460ff16919050565b6060611e7184845f85611e79565b949350505050565b606082471015611eda5760405162461bcd60e51b815260206004820152602660248201527f416464726573733a20696e73756666696369656e742062616c616e636520666f6044820152651c8818d85b1b60d21b6064820152608401610700565b5f5f866001600160a01b03168587604051611ef591906127c8565b5f6040518083038185875af1925050503d805f8114611f2f576040519150601f19603f3d011682016040523d82523d5f602084013e611f34565b606091505b5091509150611f4587838387611f50565b979650505050505050565b60608315611fbe5782515f03611fb7576001600160a01b0385163b611fb75760405162461bcd60e51b815260206004820152601d60248201527f416464726573733a2063616c6c20746f206e6f6e2d636f6e74726163740000006044820152606401610700565b5081611e71565b611e718383815115611fd35781518083602001fd5b8060405162461bcd60e51b8152600401610700919061209b565b828054828255905f5260205f2090810192821561203e579160200282015b8281111561203e5781546001600160a01b0319166001600160a01b0384351617825560209092019160019091019061200b565b5061204a929150612087565b5090565b828054828255905f5260205f2090810192821561203e579160200282015b8281111561203e57825182559160200191906001019061206c565b5b8082111561204a575f8155600101612088565b602081525f82518060208401528060208501604085015e5f604082850101526040601f19601f83011684010191505092915050565b6001600160a01b038116811461157c575f5ffd5b5f5f604083850312156120f5575f5ffd5b8235612100816120d0565b946020939093013593505050565b5f5f5f60608486031215612120575f5ffd5b833561212b816120d0565b9250602084013561213b816120d0565b929592945050506040919091013590565b5f8151808452602084019350602083015f5b828110156121855781516001600160a01b031686526020958601959091019060010161215e565b5093949350505050565b602081525f6114c1602083018461214c565b634e487b7160e01b5f52604160045260245ffd5b604051601f8201601f191681016001600160401b03811182821017156121dd576121dd6121a1565b604052919050565b5f5f83601f8401126121f5575f5ffd5b5081356001600160401b0381111561220b575f5ffd5b6020830191508360208260051b8501011115612225575f5ffd5b9250929050565b5f5f5f5f6060858703121561223f575f5ffd5b843561224a816120d0565b935060208501356001600160401b03811115612264575f5ffd5b8501601f81018713612274575f5ffd5b80356001600160401b0381111561228d5761228d6121a1565b6122a0601f8201601f19166020016121b5565b8181528860208385010111156122b4575f5ffd5b816020840160208301375f6020838301015280955050505060408501356001600160401b038111156122e4575f5ffd5b6122f0878288016121e5565b95989497509550505050565b5f6020828403121561230c575f5ffd5b5035919050565b5f60208284031215612323575f5ffd5b81356114c1816120d0565b5f8151808452602084019350602083015f5b82811015612185578151865260209586019590910190600101612340565b602081525f6114c1602083018461232e565b606081525f612382606083018661232e565b60208301949094525060400152919050565b801515811461157c575f5ffd5b5f602082840312156123b1575f5ffd5b81356114c181612394565b5f5f604083850312156123cd575f5ffd5b82356123d8816120d0565b915060208301356123e8816120d0565b809150509250929050565b5f5f60208385031215612404575f5ffd5b82356001600160401b03811115612419575f5ffd5b612425858286016121e5565b90969095509350505050565b5f5f5f60408486031215612443575f5ffd5b833561244e816120d0565b925060208401356001600160401b03811115612468575f5ffd5b612474868287016121e5565b9497909650939450505050565b600181811c9082168061249557607f821691505b6020821081036124b357634e487b7160e01b5f52602260045260245ffd5b50919050565b634e487b7160e01b5f52601160045260245ffd5b80820180821115610557576105576124b9565b5f81518060208401855e5f93019283525090919050565b5f61250282846124e0565b6202d4c560ec1b81526003019392505050565b81810381811115610557576105576124b9565b5f8261254257634e487b7160e01b5f52601260045260245ffd5b500490565b5f60208284031215612557575f5ffd5b5051919050565b634e487b7160e01b5f52603260045260245ffd5b5f60208284031215612582575f5ffd5b81516114c1816120d0565b5f6020828403121561259d575f5ffd5b81516001600160401b038111156125b2575f5ffd5b8201601f810184136125c2575f5ffd5b80516001600160401b038111156125db576125db6121a1565b8060051b6125eb602082016121b5565b91825260208184018101929081019087841115612606575f5ffd5b6020850194505b83851015611f455784519250612622836120d0565b8282526020948501949091019061260d565b8082028115828204841417610557576105576124b9565b828152604060208201525f611e71604083018461214c565b602080825281018290525f8360408301825b858110156126a5578235612688816120d0565b6001600160a01b0316825260209283019290910190600101612675565b5095945050505050565b601f821115610f0e57805f5260205f20601f840160051c810160208510156126d45750805b601f840160051c820191505b81811015611bba575f81556001016126e0565b81516001600160401b0381111561270c5761270c6121a1565b6127208161271a8454612481565b846126af565b6020601f821160018114612752575f831561273b5750848201515b5f19600385901b1c1916600184901b178455611bba565b5f84815260208120601f198516915b828110156127815787850151825560209485019460019092019101612761565b508482101561279e57868401515f19600387901b60f8161c191681555b50505050600190811b01905550565b5f602082840312156127bd575f5ffd5b81516114c181612394565b5f6114c182846124e056fe52c63247e1f47db19d5ce0460030c497f067ca4cebf71ba98eeadabe20bace0052c63247e1f47db19d5ce0460030c497f067ca4cebf71ba98eeadabe20bace02a2646970667358221220cb19986944f508eb69ba00ae534455059cf7526c67241b26a7c16baa945a70b564736f6c634300081e0033",
					"opcodes": "PUSH1 0x80 PUSH1 0x40 MSTORE CALLVALUE DUP1 ISZERO PUSH1 0xE JUMPI PUSH0 PUSH0 REVERT JUMPDEST POP PUSH2 0x2849 DUP1 PUSH2 0x1C PUSH0 CODECOPY PUSH0 RETURN INVALID PUSH1 0x80 PUSH1 0x40 MSTORE CALLVALUE DUP1 ISZERO PUSH2 0xF JUMPI PUSH0 PUSH0 REVERT JUMPDEST POP PUSH1 0x4 CALLDATASIZE LT PUSH2 0x1E7 JUMPI PUSH0 CALLDATALOAD PUSH1 0xE0 SHR DUP1 PUSH4 0x9257FA07 GT PUSH2 0x109 JUMPI DUP1 PUSH4 0xD2C725E0 GT PUSH2 0x9E JUMPI DUP1 PUSH4 0xDE836EBD GT PUSH2 0x6E JUMPI DUP1 PUSH4 0xDE836EBD EQ PUSH2 0x41A JUMPI DUP1 PUSH4 0xE54EF9A0 EQ PUSH2 0x42D JUMPI DUP1 PUSH4 0xEC5975C6 EQ PUSH2 0x440 JUMPI DUP1 PUSH4 0xF2FDE38B EQ PUSH2 0x448 JUMPI PUSH0 PUSH0 REVERT JUMPDEST DUP1 PUSH4 0xD2C725E0 EQ PUSH2 0x3D4 JUMPI DUP1 PUSH4 0xD410AD7D EQ PUSH2 0x3E1 JUMPI DUP1 PUSH4 0xDD62ED3E EQ PUSH2 0x3F4 JUMPI DUP1 PUSH4 0xDE41691C EQ PUSH2 0x407 JUMPI PUSH0 PUSH0 REVERT JUMPDEST DUP1 PUSH4 0xA9059CBB GT PUSH2 0xD9 JUMPI DUP1 PUSH4 0xA9059CBB EQ PUSH2 0x394 JUMPI DUP1 PUSH4 0xB4B93C8C EQ PUSH2 0x3A7 JUMPI DUP1 PUSH4 0xBA6BA385 EQ PUSH2 0x3AF JUMPI DUP1 PUSH4 0xC45A0155 EQ PUSH2 0x3C2 JUMPI PUSH0 PUSH0 REVERT JUMPDEST DUP1 PUSH4 0x9257FA07 EQ PUSH2 0x34F JUMPI DUP1 PUSH4 0x95D89B41 EQ PUSH2 0x362 JUMPI DUP1 PUSH4 0xA131D436 EQ PUSH2 0x36A JUMPI DUP1 PUSH4 0xA7C7FDEB EQ PUSH2 0x38C JUMPI PUSH0 PUSH0 REVERT JUMPDEST DUP1 PUSH4 0x5483067D GT PUSH2 0x17F JUMPI DUP1 PUSH4 0x715018A6 GT PUSH2 0x14F JUMPI DUP1 PUSH4 0x715018A6 EQ PUSH2 0x30C JUMPI DUP1 PUSH4 0x89AFCB44 EQ PUSH2 0x314 JUMPI DUP1 PUSH4 0x8DA5CB5B EQ PUSH2 0x334 JUMPI DUP1 PUSH4 0x8E73F1B4 EQ PUSH2 0x33C JUMPI PUSH0 PUSH0 REVERT JUMPDEST DUP1 PUSH4 0x5483067D EQ PUSH2 0x2A2 JUMPI DUP1 PUSH4 0x55917EBE EQ PUSH2 0x2AB JUMPI DUP1 PUSH4 0x67CCDF38 EQ PUSH2 0x2CE JUMPI DUP1 PUSH4 0x70A08231 EQ PUSH2 0x2F9 JUMPI PUSH0 PUSH0 REVERT JUMPDEST DUP1 PUSH4 0x23B872DD GT PUSH2 0x1BA JUMPI DUP1 PUSH4 0x23B872DD EQ PUSH2 0x256 JUMPI DUP1 PUSH4 0x273CBAA0 EQ PUSH2 0x269 JUMPI DUP1 PUSH4 0x313CE567 EQ PUSH2 0x27E JUMPI DUP1 PUSH4 0x3A105CFB EQ PUSH2 0x28D JUMPI PUSH0 PUSH0 REVERT JUMPDEST DUP1 PUSH4 0x6FDDE03 EQ PUSH2 0x1EB JUMPI DUP1 PUSH4 0x90318FB EQ PUSH2 0x209 JUMPI DUP1 PUSH4 0x95EA7B3 EQ PUSH2 0x21F JUMPI DUP1 PUSH4 0x18160DDD EQ PUSH2 0x242 JUMPI JUMPDEST PUSH0 PUSH0 REVERT JUMPDEST PUSH2 0x1F3 PUSH2 0x45B JUMP JUMPDEST PUSH1 0x40 MLOAD PUSH2 0x200 SWAP2 SWAP1 PUSH2 0x209B JUMP JUMPDEST PUSH1 0x40 MLOAD DUP1 SWAP2 SUB SWAP1 RETURN JUMPDEST PUSH2 0x211 PUSH2 0x51B JUMP JUMPDEST PUSH1 0x40 MLOAD SWAP1 DUP2 MSTORE PUSH1 0x20 ADD PUSH2 0x200 JUMP JUMPDEST PUSH2 0x232 PUSH2 0x22D CALLDATASIZE PUSH1 0x4 PUSH2 0x20E4 JUMP JUMPDEST PUSH2 0x544 JUMP JUMPDEST PUSH1 0x40 MLOAD SWAP1 ISZERO ISZERO DUP2 MSTORE PUSH1 0x20 ADD PUSH2 0x200 JUMP JUMPDEST PUSH0 MLOAD PUSH1 0x20 PUSH2 0x27F4 PUSH0 CODECOPY PUSH0 MLOAD SWAP1 PUSH0 MSTORE SLOAD PUSH2 0x211 JUMP JUMPDEST PUSH2 0x232 PUSH2 0x264 CALLDATASIZE PUSH1 0x4 PUSH2 0x210E JUMP JUMPDEST PUSH2 0x55D JUMP JUMPDEST PUSH2 0x271 PUSH2 0x580 JUMP JUMPDEST PUSH1 0x40 MLOAD PUSH2 0x200 SWAP2 SWAP1 PUSH2 0x218F JUMP JUMPDEST PUSH1 0x40 MLOAD PUSH1 0x12 DUP2 MSTORE PUSH1 0x20 ADD PUSH2 0x200 JUMP JUMPDEST PUSH2 0x2A0 PUSH2 0x29B CALLDATASIZE PUSH1 0x4 PUSH2 0x222C JUMP JUMPDEST PUSH2 0x605 JUMP JUMPDEST STOP JUMPDEST PUSH2 0x211 PUSH1 0x1 SLOAD DUP2 JUMP JUMPDEST PUSH2 0x2B3 PUSH2 0x813 JUMP JUMPDEST PUSH1 0x40 DUP1 MLOAD SWAP4 DUP5 MSTORE PUSH1 0x20 DUP5 ADD SWAP3 SWAP1 SWAP3 MSTORE SWAP1 DUP3 ADD MSTORE PUSH1 0x60 ADD PUSH2 0x200 JUMP JUMPDEST PUSH2 0x2E1 PUSH2 0x2DC CALLDATASIZE PUSH1 0x4 PUSH2 0x22FC JUMP JUMPDEST PUSH2 0x8E4 JUMP JUMPDEST PUSH1 0x40 MLOAD PUSH1 0x1 PUSH1 0x1 PUSH1 0xA0 SHL SUB SWAP1 SWAP2 AND DUP2 MSTORE PUSH1 0x20 ADD PUSH2 0x200 JUMP JUMPDEST PUSH2 0x211 PUSH2 0x307 CALLDATASIZE PUSH1 0x4 PUSH2 0x2313 JUMP JUMPDEST PUSH2 0x937 JUMP JUMPDEST PUSH2 0x2A0 PUSH2 0x95D JUMP JUMPDEST PUSH2 0x327 PUSH2 0x322 CALLDATASIZE PUSH1 0x4 PUSH2 0x2313 JUMP JUMPDEST PUSH2 0x970 JUMP JUMPDEST PUSH1 0x40 MLOAD PUSH2 0x200 SWAP2 SWAP1 PUSH2 0x235E JUMP JUMPDEST PUSH2 0x2E1 PUSH2 0xA93 JUMP JUMPDEST PUSH2 0x211 PUSH2 0x34A CALLDATASIZE PUSH1 0x4 PUSH2 0x22FC JUMP JUMPDEST PUSH2 0xAC1 JUMP JUMPDEST PUSH2 0x211 PUSH2 0x35D CALLDATASIZE PUSH1 0x4 PUSH2 0x22FC JUMP JUMPDEST PUSH2 0xB0A JUMP JUMPDEST PUSH2 0x1F3 PUSH2 0xD4E JUMP JUMPDEST PUSH2 0x37D PUSH2 0x378 CALLDATASIZE PUSH1 0x4 PUSH2 0x2313 JUMP JUMPDEST PUSH2 0xD8C JUMP JUMPDEST PUSH1 0x40 MLOAD PUSH2 0x200 SWAP4 SWAP3 SWAP2 SWAP1 PUSH2 0x2370 JUMP JUMPDEST PUSH2 0x2A0 PUSH2 0xE7C JUMP JUMPDEST PUSH2 0x232 PUSH2 0x3A2 CALLDATASIZE PUSH1 0x4 PUSH2 0x20E4 JUMP JUMPDEST PUSH2 0xF13 JUMP JUMPDEST PUSH2 0x2A0 PUSH2 0xF20 JUMP JUMPDEST PUSH2 0x2A0 PUSH2 0x3BD CALLDATASIZE PUSH1 0x4 PUSH2 0x23A1 JUMP JUMPDEST PUSH2 0xFE2 JUMP JUMPDEST PUSH0 SLOAD PUSH2 0x2E1 SWAP1 PUSH1 0x1 PUSH1 0x1 PUSH1 0xA0 SHL SUB AND DUP2 JUMP JUMPDEST PUSH1 0x2 SLOAD PUSH2 0x232 SWAP1 PUSH1 0xFF AND DUP2 JUMP JUMPDEST PUSH2 0x327 PUSH2 0x3EF CALLDATASIZE PUSH1 0x4 PUSH2 0x22FC JUMP JUMPDEST PUSH2 0xFFD JUMP JUMPDEST PUSH2 0x211 PUSH2 0x402 CALLDATASIZE PUSH1 0x4 PUSH2 0x23BC JUMP JUMPDEST PUSH2 0x10FF JUMP JUMPDEST PUSH2 0x2A0 PUSH2 0x415 CALLDATASIZE PUSH1 0x4 PUSH2 0x23F3 JUMP JUMPDEST PUSH2 0x1148 JUMP JUMPDEST PUSH2 0x211 PUSH2 0x428 CALLDATASIZE PUSH1 0x4 PUSH2 0x2431 JUMP JUMPDEST PUSH2 0x11C3 JUMP JUMPDEST PUSH2 0x211 PUSH2 0x43B CALLDATASIZE PUSH1 0x4 PUSH2 0x22FC JUMP JUMPDEST PUSH2 0x144E JUMP JUMPDEST PUSH2 0x327 PUSH2 0x14C8 JUMP JUMPDEST PUSH2 0x2A0 PUSH2 0x456 CALLDATASIZE PUSH1 0x4 PUSH2 0x2313 JUMP JUMPDEST PUSH2 0x1542 JUMP JUMPDEST PUSH32 0x52C63247E1F47DB19D5CE0460030C497F067CA4CEBF71BA98EEADABE20BACE03 DUP1 SLOAD PUSH1 0x60 SWAP2 PUSH0 MLOAD PUSH1 0x20 PUSH2 0x27D4 PUSH0 CODECOPY PUSH0 MLOAD SWAP1 PUSH0 MSTORE SWAP2 PUSH2 0x499 SWAP1 PUSH2 0x2481 JUMP JUMPDEST DUP1 PUSH1 0x1F ADD PUSH1 0x20 DUP1 SWAP2 DIV MUL PUSH1 0x20 ADD PUSH1 0x40 MLOAD SWAP1 DUP2 ADD PUSH1 0x40 MSTORE DUP1 SWAP3 SWAP2 SWAP1 DUP2 DUP2 MSTORE PUSH1 0x20 ADD DUP3 DUP1 SLOAD PUSH2 0x4C5 SWAP1 PUSH2 0x2481 JUMP JUMPDEST DUP1 ISZERO PUSH2 0x510 JUMPI DUP1 PUSH1 0x1F LT PUSH2 0x4E7 JUMPI PUSH2 0x100 DUP1 DUP4 SLOAD DIV MUL DUP4 MSTORE SWAP2 PUSH1 0x20 ADD SWAP2 PUSH2 0x510 JUMP JUMPDEST DUP3 ADD SWAP2 SWAP1 PUSH0 MSTORE PUSH1 0x20 PUSH0 KECCAK256 SWAP1 JUMPDEST DUP2 SLOAD DUP2 MSTORE SWAP1 PUSH1 0x1 ADD SWAP1 PUSH1 0x20 ADD DUP1 DUP4 GT PUSH2 0x4F3 JUMPI DUP3 SWAP1 SUB PUSH1 0x1F AND DUP3 ADD SWAP2 JUMPDEST POP POP POP POP POP SWAP2 POP POP SWAP1 JUMP JUMPDEST PUSH0 PUSH0 PUSH2 0x525 PUSH2 0x813 JUMP JUMPDEST SWAP3 POP POP POP PUSH2 0x534 PUSH2 0x307 PUSH2 0xA93 JUMP JUMPDEST PUSH2 0x53E SWAP1 DUP3 PUSH2 0x24CD JUMP JUMPDEST SWAP2 POP POP SWAP1 JUMP JUMPDEST PUSH0 CALLER PUSH2 0x551 DUP2 DUP6 DUP6 PUSH2 0x157F JUMP JUMPDEST PUSH1 0x1 SWAP2 POP POP JUMPDEST SWAP3 SWAP2 POP POP JUMP JUMPDEST PUSH0 CALLER PUSH2 0x56A DUP6 DUP3 DUP6 PUSH2 0x158C JUMP JUMPDEST PUSH2 0x575 DUP6 DUP6 DUP6 PUSH2 0x15F0 JUMP JUMPDEST POP PUSH1 0x1 SWAP5 SWAP4 POP POP POP POP JUMP JUMPDEST PUSH1 0x2 SLOAD PUSH1 0x60 SWAP1 PUSH1 0xFF AND ISZERO PUSH2 0x5A7 JUMPI PUSH1 0x40 MLOAD PUSH4 0x6FDA65D PUSH1 0xE3 SHL DUP2 MSTORE PUSH1 0x4 ADD PUSH1 0x40 MLOAD DUP1 SWAP2 SUB SWAP1 REVERT JUMPDEST PUSH1 0x3 DUP1 SLOAD DUP1 PUSH1 0x20 MUL PUSH1 0x20 ADD PUSH1 0x40 MLOAD SWAP1 DUP2 ADD PUSH1 0x40 MSTORE DUP1 SWAP3 SWAP2 SWAP1 DUP2 DUP2 MSTORE PUSH1 0x20 ADD DUP3 DUP1 SLOAD DUP1 ISZERO PUSH2 0x5FB JUMPI PUSH1 0x20 MUL DUP3 ADD SWAP2 SWAP1 PUSH0 MSTORE PUSH1 0x20 PUSH0 KECCAK256 SWAP1 JUMPDEST DUP2 SLOAD PUSH1 0x1 PUSH1 0x1 PUSH1 0xA0 SHL SUB AND DUP2 MSTORE PUSH1 0x1 SWAP1 SWAP2 ADD SWAP1 PUSH1 0x20 ADD DUP1 DUP4 GT PUSH2 0x5DD JUMPI JUMPDEST POP POP POP POP POP SWAP1 POP SWAP1 JUMP JUMPDEST PUSH0 PUSH2 0x60E PUSH2 0x164D JUMP JUMPDEST DUP1 SLOAD SWAP1 SWAP2 POP PUSH1 0xFF PUSH1 0x1 PUSH1 0x40 SHL DUP3 DIV AND ISZERO SWAP1 PUSH1 0x1 PUSH1 0x1 PUSH1 0x40 SHL SUB AND PUSH0 DUP2 ISZERO DUP1 ISZERO PUSH2 0x634 JUMPI POP DUP3 JUMPDEST SWAP1 POP PUSH0 DUP3 PUSH1 0x1 PUSH1 0x1 PUSH1 0x40 SHL SUB AND PUSH1 0x1 EQ DUP1 ISZERO PUSH2 0x64F JUMPI POP ADDRESS EXTCODESIZE ISZERO JUMPDEST SWAP1 POP DUP2 ISZERO DUP1 ISZERO PUSH2 0x65D JUMPI POP DUP1 ISZERO JUMPDEST ISZERO PUSH2 0x67B JUMPI PUSH1 0x40 MLOAD PUSH4 0xF92EE8A9 PUSH1 0xE0 SHL DUP2 MSTORE PUSH1 0x4 ADD PUSH1 0x40 MLOAD DUP1 SWAP2 SUB SWAP1 REVERT JUMPDEST DUP5 SLOAD PUSH8 0xFFFFFFFFFFFFFFFF NOT AND PUSH1 0x1 OR DUP6 SSTORE DUP4 ISZERO PUSH2 0x6A5 JUMPI DUP5 SLOAD PUSH1 0xFF PUSH1 0x40 SHL NOT AND PUSH1 0x1 PUSH1 0x40 SHL OR DUP6 SSTORE JUMPDEST PUSH0 DUP7 SWAP1 SUB PUSH2 0x6C6 JUMPI PUSH1 0x40 MLOAD PUSH4 0xC1AB6DC1 PUSH1 0xE0 SHL DUP2 MSTORE PUSH1 0x4 ADD PUSH1 0x40 MLOAD DUP1 SWAP2 SUB SWAP1 REVERT JUMPDEST DUP8 MLOAD PUSH0 SUB PUSH2 0x709 JUMPI PUSH1 0x40 MLOAD PUSH4 0x24321863 PUSH1 0xE2 SHL DUP2 MSTORE PUSH1 0x4 ADD PUSH2 0x700 SWAP1 PUSH1 0x20 DUP1 DUP3 MSTORE PUSH1 0x4 SWAP1 DUP3 ADD MSTORE PUSH4 0x6E616D65 PUSH1 0xE0 SHL PUSH1 0x40 DUP3 ADD MSTORE PUSH1 0x60 ADD SWAP1 JUMP JUMPDEST PUSH1 0x40 MLOAD DUP1 SWAP2 SUB SWAP1 REVERT JUMPDEST DUP8 PUSH1 0x40 MLOAD PUSH1 0x20 ADD PUSH2 0x71A SWAP2 SWAP1 PUSH2 0x24F7 JUMP JUMPDEST PUSH1 0x40 MLOAD PUSH1 0x20 DUP2 DUP4 SUB SUB DUP2 MSTORE SWAP1 PUSH1 0x40 MSTORE SWAP8 POP PUSH2 0x735 DUP9 DUP10 PUSH2 0x1675 JUMP JUMPDEST PUSH2 0x73E CALLER PUSH2 0x168B JUMP JUMPDEST PUSH2 0x74A PUSH1 0x3 DUP9 DUP9 PUSH2 0x1FED JUMP JUMPDEST POP PUSH1 0x3 SLOAD PUSH1 0x1 PUSH1 0x1 PUSH1 0x40 SHL SUB DUP2 GT ISZERO PUSH2 0x765 JUMPI PUSH2 0x765 PUSH2 0x21A1 JUMP JUMPDEST PUSH1 0x40 MLOAD SWAP1 DUP1 DUP3 MSTORE DUP1 PUSH1 0x20 MUL PUSH1 0x20 ADD DUP3 ADD PUSH1 0x40 MSTORE DUP1 ISZERO PUSH2 0x78E JUMPI DUP2 PUSH1 0x20 ADD PUSH1 0x20 DUP3 MUL DUP1 CALLDATASIZE DUP4 CALLDATACOPY ADD SWAP1 POP JUMPDEST POP DUP1 MLOAD PUSH2 0x7A3 SWAP2 PUSH1 0x4 SWAP2 PUSH1 0x20 SWAP1 SWAP2 ADD SWAP1 PUSH2 0x204E JUMP JUMPDEST POP PUSH0 DUP1 SLOAD PUSH1 0x1 PUSH1 0x1 PUSH1 0xA0 SHL SUB NOT AND PUSH1 0x1 PUSH1 0x1 PUSH1 0xA0 SHL SUB DUP12 AND OR SWAP1 SSTORE TIMESTAMP PUSH1 0x1 SSTORE DUP4 ISZERO PUSH2 0x808 JUMPI DUP5 SLOAD PUSH1 0xFF PUSH1 0x40 SHL NOT AND DUP6 SSTORE PUSH1 0x40 MLOAD PUSH1 0x1 DUP2 MSTORE PUSH32 0xC7F505B2F371AE2175EE4913F4499E1F2633A7B5936321EED1CDAEB6115181D2 SWAP1 PUSH1 0x20 ADD PUSH1 0x40 MLOAD DUP1 SWAP2 SUB SWAP1 LOG1 JUMPDEST POP POP POP POP POP POP POP POP POP JUMP JUMPDEST PUSH0 PUSH0 PUSH0 PUSH3 0x278D00 PUSH1 0x1 SLOAD TIMESTAMP PUSH2 0x828 SWAP2 SWAP1 PUSH2 0x2515 JUMP JUMPDEST PUSH2 0x832 SWAP2 SWAP1 PUSH2 0x2528 JUMP JUMPDEST SWAP3 POP PUSH2 0x849 PUSH0 MLOAD PUSH1 0x20 PUSH2 0x27F4 PUSH0 CODECOPY PUSH0 MLOAD SWAP1 PUSH0 MSTORE SLOAD SWAP1 JUMP JUMPDEST SWAP2 POP DUP3 ISZERO DUP1 PUSH2 0x856 JUMPI POP DUP2 ISZERO JUMPDEST ISZERO PUSH2 0x862 JUMPI POP SWAP1 SWAP2 PUSH0 SWAP1 JUMP JUMPDEST PUSH0 SLOAD PUSH1 0x1 PUSH1 0x1 PUSH1 0xA0 SHL SUB AND PUSH1 0x40 MLOAD PUSH4 0xD23AAED3 PUSH1 0xE0 SHL DUP2 MSTORE PUSH1 0x4 DUP2 ADD DUP6 SWAP1 MSTORE PUSH1 0x24 DUP2 ADD DUP5 SWAP1 MSTORE PUSH1 0x1 PUSH1 0x1 PUSH1 0xA0 SHL SUB SWAP2 SWAP1 SWAP2 AND SWAP1 PUSH4 0xD23AAED3 SWAP1 PUSH1 0x44 ADD PUSH1 0x20 PUSH1 0x40 MLOAD DUP1 DUP4 SUB DUP2 DUP7 GAS STATICCALL ISZERO DUP1 ISZERO PUSH2 0x8B9 JUMPI RETURNDATASIZE PUSH0 PUSH0 RETURNDATACOPY RETURNDATASIZE PUSH0 REVERT JUMPDEST POP POP POP POP PUSH1 0x40 MLOAD RETURNDATASIZE PUSH1 0x1F NOT PUSH1 0x1F DUP3 ADD AND DUP3 ADD DUP1 PUSH1 0x40 MSTORE POP DUP2 ADD SWAP1 PUSH2 0x8DD SWAP2 SWAP1 PUSH2 0x2547 JUMP JUMPDEST SWAP1 POP SWAP1 SWAP2 SWAP3 JUMP JUMPDEST PUSH1 0x2 SLOAD PUSH0 SWAP1 PUSH1 0xFF AND ISZERO PUSH2 0x90A JUMPI PUSH1 0x40 MLOAD PUSH4 0x6FDA65D PUSH1 0xE3 SHL DUP2 MSTORE PUSH1 0x4 ADD PUSH1 0x40 MLOAD DUP1 SWAP2 SUB SWAP1 REVERT JUMPDEST PUSH1 0x3 DUP3 DUP2 SLOAD DUP2 LT PUSH2 0x91D JUMPI PUSH2 0x91D PUSH2 0x255E JUMP JUMPDEST PUSH0 SWAP2 DUP3 MSTORE PUSH1 0x20 SWAP1 SWAP2 KECCAK256 ADD SLOAD PUSH1 0x1 PUSH1 0x1 PUSH1 0xA0 SHL SUB AND SWAP3 SWAP2 POP POP JUMP JUMPDEST PUSH1 0x1 PUSH1 0x1 PUSH1 0xA0 SHL SUB AND PUSH0 SWAP1 DUP2 MSTORE PUSH0 MLOAD PUSH1 0x20 PUSH2 0x27D4 PUSH0 CODECOPY PUSH0 MLOAD SWAP1 PUSH0 MSTORE PUSH1 0x20 MSTORE PUSH1 0x40 SWAP1 KECCAK256 SLOAD SWAP1 JUMP JUMPDEST PUSH2 0x965 PUSH2 0x169C JUMP JUMPDEST PUSH2 0x96E PUSH0 PUSH2 0x16CE JUMP JUMPDEST JUMP JUMPDEST PUSH1 0x60 PUSH2 0x97A PUSH2 0x169C JUMP JUMPDEST PUSH1 0x1 PUSH1 0x1 PUSH1 0xA0 SHL SUB DUP3 AND PUSH2 0x9A1 JUMPI PUSH1 0x40 MLOAD PUSH4 0x4E469669 PUSH1 0xE1 SHL DUP2 MSTORE PUSH1 0x4 ADD PUSH1 0x40 MLOAD DUP1 SWAP2 SUB SWAP1 REVERT JUMPDEST PUSH2 0x9A9 PUSH2 0xF20 JUMP JUMPDEST PUSH0 PUSH2 0x9B3 ADDRESS PUSH2 0x937 JUMP JUMPDEST SWAP1 POP DUP1 PUSH0 SUB PUSH2 0x9D5 JUMPI PUSH1 0x40 MLOAD PUSH4 0xBB55FD27 PUSH1 0xE0 SHL DUP2 MSTORE PUSH1 0x4 ADD PUSH1 0x40 MLOAD DUP1 SWAP2 SUB SWAP1 REVERT JUMPDEST PUSH2 0x9DE DUP2 PUSH2 0xFFD JUMP JUMPDEST SWAP2 POP PUSH2 0x9EA ADDRESS DUP3 PUSH2 0x173E JUMP JUMPDEST PUSH1 0x3 SLOAD PUSH0 JUMPDEST DUP2 DUP2 LT ISZERO PUSH2 0xA8B JUMPI PUSH0 DUP5 DUP3 DUP2 MLOAD DUP2 LT PUSH2 0xA0A JUMPI PUSH2 0xA0A PUSH2 0x255E JUMP JUMPDEST PUSH1 0x20 MUL PUSH1 0x20 ADD ADD MLOAD SWAP1 POP PUSH0 DUP2 GT ISZERO PUSH2 0xA53 JUMPI PUSH0 PUSH1 0x3 DUP4 DUP2 SLOAD DUP2 LT PUSH2 0xA30 JUMPI PUSH2 0xA30 PUSH2 0x255E JUMP JUMPDEST PUSH0 SWAP2 DUP3 MSTORE PUSH1 0x20 SWAP1 SWAP2 KECCAK256 ADD SLOAD PUSH1 0x1 PUSH1 0x1 PUSH1 0xA0 SHL SUB AND SWAP1 POP PUSH2 0xA51 DUP2 DUP9 DUP5 PUSH2 0x1772 JUMP JUMPDEST POP JUMPDEST DUP1 PUSH1 0x4 DUP4 DUP2 SLOAD DUP2 LT PUSH2 0xA67 JUMPI PUSH2 0xA67 PUSH2 0x255E JUMP JUMPDEST SWAP1 PUSH0 MSTORE PUSH1 0x20 PUSH0 KECCAK256 ADD PUSH0 DUP3 DUP3 SLOAD PUSH2 0xA7D SWAP2 SWAP1 PUSH2 0x2515 JUMP JUMPDEST SWAP1 SWAP2 SSTORE POP POP POP PUSH1 0x1 ADD PUSH2 0x9EF JUMP JUMPDEST POP POP POP SWAP2 SWAP1 POP JUMP JUMPDEST PUSH32 0x9016D09D72D40FDAE2FD8CEAC6B6234C7706214FD39C1CD1E609A0528C199300 SLOAD PUSH1 0x1 PUSH1 0x1 PUSH1 0xA0 SHL SUB AND SWAP1 JUMP JUMPDEST PUSH1 0x2 SLOAD PUSH0 SWAP1 PUSH1 0xFF AND ISZERO PUSH2 0xAE7 JUMPI PUSH1 0x40 MLOAD PUSH4 0x6FDA65D PUSH1 0xE3 SHL DUP2 MSTORE PUSH1 0x4 ADD PUSH1 0x40 MLOAD DUP1 SWAP2 SUB SWAP1 REVERT JUMPDEST PUSH1 0x4 DUP3 DUP2 SLOAD DUP2 LT PUSH2 0xAFA JUMPI PUSH2 0xAFA PUSH2 0x255E JUMP JUMPDEST SWAP1 PUSH0 MSTORE PUSH1 0x20 PUSH0 KECCAK256 ADD SLOAD SWAP1 POP SWAP2 SWAP1 POP JUMP JUMPDEST PUSH1 0x2 SLOAD PUSH0 SWAP1 PUSH1 0xFF AND ISZERO PUSH2 0xB30 JUMPI PUSH1 0x40 MLOAD PUSH4 0x6FDA65D PUSH1 0xE3 SHL DUP2 MSTORE PUSH1 0x4 ADD PUSH1 0x40 MLOAD DUP1 SWAP2 SUB SWAP1 REVERT JUMPDEST PUSH0 PUSH2 0xB46 PUSH0 MLOAD PUSH1 0x20 PUSH2 0x27F4 PUSH0 CODECOPY PUSH0 MLOAD SWAP1 PUSH0 MSTORE SLOAD SWAP1 JUMP JUMPDEST SWAP1 POP DUP1 PUSH0 SUB PUSH2 0xB57 JUMPI POP PUSH0 SWAP3 SWAP2 POP POP JUMP JUMPDEST PUSH0 DUP1 SLOAD PUSH1 0x1 PUSH1 0x1 PUSH1 0xA0 SHL SUB AND SWAP1 POP PUSH0 PUSH1 0x4 DUP1 SLOAD SWAP1 POP SWAP1 POP PUSH0 DUP3 PUSH1 0x1 PUSH1 0x1 PUSH1 0xA0 SHL SUB AND PUSH4 0x3FC8CEF3 PUSH1 0x40 MLOAD DUP2 PUSH4 0xFFFFFFFF AND PUSH1 0xE0 SHL DUP2 MSTORE PUSH1 0x4 ADD PUSH1 0x20 PUSH1 0x40 MLOAD DUP1 DUP4 SUB DUP2 DUP7 GAS STATICCALL ISZERO DUP1 ISZERO PUSH2 0xBAB JUMPI RETURNDATASIZE PUSH0 PUSH0 RETURNDATACOPY RETURNDATASIZE PUSH0 REVERT JUMPDEST POP POP POP POP PUSH1 0x40 MLOAD RETURNDATASIZE PUSH1 0x1F NOT PUSH1 0x1F DUP3 ADD AND DUP3 ADD DUP1 PUSH1 0x40 MSTORE POP DUP2 ADD SWAP1 PUSH2 0xBCF SWAP2 SWAP1 PUSH2 0x2572 JUMP JUMPDEST SWAP1 POP PUSH0 JUMPDEST DUP3 DUP2 LT ISZERO PUSH2 0xD44 JUMPI PUSH0 PUSH1 0x3 DUP3 DUP2 SLOAD DUP2 LT PUSH2 0xBEF JUMPI PUSH2 0xBEF PUSH2 0x255E JUMP JUMPDEST PUSH0 SWAP2 DUP3 MSTORE PUSH1 0x20 DUP3 KECCAK256 ADD SLOAD PUSH1 0x4 DUP1 SLOAD PUSH1 0x1 PUSH1 0x1 PUSH1 0xA0 SHL SUB SWAP1 SWAP3 AND SWAP4 POP SWAP1 DUP5 SWAP1 DUP2 LT PUSH2 0xC1B JUMPI PUSH2 0xC1B PUSH2 0x255E JUMP JUMPDEST SWAP1 PUSH0 MSTORE PUSH1 0x20 PUSH0 KECCAK256 ADD SLOAD SWAP1 POP PUSH0 DUP2 GT ISZERO PUSH2 0xD3A JUMPI PUSH1 0x40 MLOAD PUSH4 0xD88E3E3B PUSH1 0xE0 SHL DUP2 MSTORE PUSH1 0x1 PUSH1 0x1 PUSH1 0xA0 SHL SUB DUP4 DUP2 AND PUSH1 0x4 DUP4 ADD MSTORE DUP6 DUP2 AND PUSH1 0x24 DUP4 ADD MSTORE PUSH0 SWAP2 SWAP1 DUP9 AND SWAP1 PUSH4 0xD88E3E3B SWAP1 PUSH1 0x44 ADD PUSH0 PUSH1 0x40 MLOAD DUP1 DUP4 SUB DUP2 DUP7 GAS STATICCALL ISZERO DUP1 ISZERO PUSH2 0xC7C JUMPI RETURNDATASIZE PUSH0 PUSH0 RETURNDATACOPY RETURNDATASIZE PUSH0 REVERT JUMPDEST POP POP POP POP PUSH1 0x40 MLOAD RETURNDATASIZE PUSH0 DUP3 RETURNDATACOPY PUSH1 0x1F RETURNDATASIZE SWAP1 DUP2 ADD PUSH1 0x1F NOT AND DUP3 ADD PUSH1 0x40 MSTORE PUSH2 0xCA3 SWAP2 SWAP1 DUP2 ADD SWAP1 PUSH2 0x258D JUMP JUMPDEST SWAP1 POP PUSH0 DUP9 PUSH2 0xCB1 DUP5 DUP14 PUSH2 0x2634 JUMP JUMPDEST PUSH2 0xCBB SWAP2 SWAP1 PUSH2 0x2528 JUMP JUMPDEST PUSH1 0x40 MLOAD PUSH4 0xD06CA61F PUSH1 0xE0 SHL DUP2 MSTORE SWAP1 SWAP2 POP PUSH1 0x1 PUSH1 0x1 PUSH1 0xA0 SHL SUB DUP10 AND SWAP1 PUSH4 0xD06CA61F SWAP1 PUSH2 0xCEC SWAP1 DUP5 SWAP1 DUP7 SWAP1 PUSH1 0x4 ADD PUSH2 0x264B JUMP JUMPDEST PUSH1 0x20 PUSH1 0x40 MLOAD DUP1 DUP4 SUB DUP2 DUP7 GAS STATICCALL ISZERO DUP1 ISZERO PUSH2 0xD07 JUMPI RETURNDATASIZE PUSH0 PUSH0 RETURNDATACOPY RETURNDATASIZE PUSH0 REVERT JUMPDEST POP POP POP POP PUSH1 0x40 MLOAD RETURNDATASIZE PUSH1 0x1F NOT PUSH1 0x1F DUP3 ADD AND DUP3 ADD DUP1 PUSH1 0x40 MSTORE POP DUP2 ADD SWAP1 PUSH2 0xD2B SWAP2 SWAP1 PUSH2 0x2547 JUMP JUMPDEST PUSH2 0xD35 SWAP1 DUP12 PUSH2 0x24CD JUMP JUMPDEST SWAP10 POP POP POP JUMPDEST POP POP PUSH1 0x1 ADD PUSH2 0xBD3 JUMP JUMPDEST POP POP POP POP POP SWAP2 SWAP1 POP JUMP JUMPDEST PUSH32 0x52C63247E1F47DB19D5CE0460030C497F067CA4CEBF71BA98EEADABE20BACE04 DUP1 SLOAD PUSH1 0x60 SWAP2 PUSH0 MLOAD PUSH1 0x20 PUSH2 0x27D4 PUSH0 CODECOPY PUSH0 MLOAD SWAP1 PUSH0 MSTORE SWAP2 PUSH2 0x499 SWAP1 PUSH2 0x2481 JUMP JUMPDEST PUSH1 0x2 SLOAD PUSH1 0x60 SWAP1 PUSH0 SWAP1 DUP2 SWAP1 PUSH1 0xFF AND ISZERO PUSH2 0xDB7 JUMPI PUSH1 0x40 MLOAD PUSH4 0x6FDA65D PUSH1 0xE3 SHL DUP2 MSTORE PUSH1 0x4 ADD PUSH1 0x40 MLOAD DUP1 SWAP2 SUB SWAP1 REVERT JUMPDEST PUSH1 0x3 SLOAD PUSH0 DUP2 PUSH1 0x1 PUSH1 0x1 PUSH1 0x40 SHL SUB DUP2 GT ISZERO PUSH2 0xDD3 JUMPI PUSH2 0xDD3 PUSH2 0x21A1 JUMP JUMPDEST PUSH1 0x40 MLOAD SWAP1 DUP1 DUP3 MSTORE DUP1 PUSH1 0x20 MUL PUSH1 0x20 ADD DUP3 ADD PUSH1 0x40 MSTORE DUP1 ISZERO PUSH2 0xDFC JUMPI DUP2 PUSH1 0x20 ADD PUSH1 0x20 DUP3 MUL DUP1 CALLDATASIZE DUP4 CALLDATACOPY ADD SWAP1 POP JUMPDEST POP SWAP1 POP PUSH0 JUMPDEST DUP3 DUP2 LT ISZERO PUSH2 0xE4A JUMPI PUSH1 0x4 DUP2 DUP2 SLOAD DUP2 LT PUSH2 0xE1C JUMPI PUSH2 0xE1C PUSH2 0x255E JUMP JUMPDEST SWAP1 PUSH0 MSTORE PUSH1 0x20 PUSH0 KECCAK256 ADD SLOAD DUP3 DUP3 DUP2 MLOAD DUP2 LT PUSH2 0xE37 JUMPI PUSH2 0xE37 PUSH2 0x255E JUMP JUMPDEST PUSH1 0x20 SWAP1 DUP2 MUL SWAP2 SWAP1 SWAP2 ADD ADD MSTORE PUSH1 0x1 ADD PUSH2 0xE01 JUMP JUMPDEST POP PUSH0 PUSH2 0xE61 PUSH0 MLOAD PUSH1 0x20 PUSH2 0x27F4 PUSH0 CODECOPY PUSH0 MLOAD SWAP1 PUSH0 MSTORE SLOAD SWAP1 JUMP JUMPDEST SWAP1 POP PUSH0 PUSH2 0xE6D DUP9 PUSH2 0x937 JUMP JUMPDEST SWAP3 SWAP9 SWAP2 SWAP8 POP SWAP2 SWAP6 POP SWAP4 POP POP POP POP JUMP JUMPDEST PUSH2 0xE84 PUSH2 0x169C JUMP JUMPDEST PUSH0 PUSH2 0xE8D PUSH2 0xA93 JUMP JUMPDEST PUSH1 0x3 SLOAD SWAP1 SWAP2 POP PUSH0 JUMPDEST DUP2 DUP2 LT ISZERO PUSH2 0xF0E JUMPI PUSH0 PUSH1 0x3 DUP3 DUP2 SLOAD DUP2 LT PUSH2 0xEB1 JUMPI PUSH2 0xEB1 PUSH2 0x255E JUMP JUMPDEST PUSH0 SWAP2 DUP3 MSTORE PUSH1 0x20 DUP3 KECCAK256 ADD SLOAD PUSH1 0x4 DUP1 SLOAD PUSH1 0x1 PUSH1 0x1 PUSH1 0xA0 SHL SUB SWAP1 SWAP3 AND SWAP4 POP SWAP1 DUP5 SWAP1 DUP2 LT PUSH2 0xEDD JUMPI PUSH2 0xEDD PUSH2 0x255E JUMP JUMPDEST SWAP1 PUSH0 MSTORE PUSH1 0x20 PUSH0 KECCAK256 ADD SLOAD SWAP1 POP PUSH0 DUP2 GT ISZERO PUSH2 0xF04 JUMPI PUSH2 0xF04 PUSH1 0x1 PUSH1 0x1 PUSH1 0xA0 SHL SUB DUP4 AND DUP7 DUP4 PUSH2 0x1772 JUMP JUMPDEST POP POP PUSH1 0x1 ADD PUSH2 0xE95 JUMP JUMPDEST POP POP POP JUMP JUMPDEST PUSH0 CALLER PUSH2 0x551 DUP2 DUP6 DUP6 PUSH2 0x15F0 JUMP JUMPDEST PUSH0 PUSH0 PUSH0 PUSH2 0xF2B PUSH2 0x813 JUMP JUMPDEST SWAP3 POP SWAP3 POP SWAP3 POP DUP3 PUSH0 SUB PUSH2 0xF3D JUMPI POP POP POP JUMP JUMPDEST DUP1 ISZERO PUSH2 0xF54 JUMPI PUSH2 0xF54 PUSH2 0xF4E PUSH2 0xA93 JUMP JUMPDEST DUP3 PUSH2 0x17C4 JUMP JUMPDEST PUSH2 0xF61 DUP4 PUSH3 0x278D00 PUSH2 0x2634 JUMP JUMPDEST PUSH1 0x1 PUSH0 DUP3 DUP3 SLOAD PUSH2 0xF71 SWAP2 SWAP1 PUSH2 0x24CD JUMP JUMPDEST SWAP1 SWAP2 SSTORE POP PUSH2 0xF7F SWAP1 POP PUSH2 0xA93 JUMP JUMPDEST PUSH1 0x1 PUSH1 0x1 PUSH1 0xA0 SHL SUB AND PUSH32 0x6EF86D1D001D3F4D5D79D6A6647502B17AF442209A78BBBAFB8867CB5CF6FB7 DUP5 DUP5 DUP5 PUSH1 0x1 SLOAD PUSH1 0x40 MLOAD PUSH2 0xFD5 SWAP5 SWAP4 SWAP3 SWAP2 SWAP1 SWAP4 DUP5 MSTORE PUSH1 0x20 DUP5 ADD SWAP3 SWAP1 SWAP3 MSTORE PUSH1 0x40 DUP4 ADD MSTORE PUSH1 0x60 DUP3 ADD MSTORE PUSH1 0x80 ADD SWAP1 JUMP JUMPDEST PUSH1 0x40 MLOAD DUP1 SWAP2 SUB SWAP1 LOG2 POP POP POP JUMP JUMPDEST PUSH2 0xFEA PUSH2 0x169C JUMP JUMPDEST PUSH1 0x2 DUP1 SLOAD PUSH1 0xFF NOT AND SWAP2 ISZERO ISZERO SWAP2 SWAP1 SWAP2 OR SWAP1 SSTORE JUMP JUMPDEST PUSH1 0x2 SLOAD PUSH1 0x60 SWAP1 PUSH1 0xFF AND ISZERO PUSH2 0x1024 JUMPI PUSH1 0x40 MLOAD PUSH4 0x6FDA65D PUSH1 0xE3 SHL DUP2 MSTORE PUSH1 0x4 ADD PUSH1 0x40 MLOAD DUP1 SWAP2 SUB SWAP1 REVERT JUMPDEST PUSH0 PUSH2 0x103A PUSH0 MLOAD PUSH1 0x20 PUSH2 0x27F4 PUSH0 CODECOPY PUSH0 MLOAD SWAP1 PUSH0 MSTORE SLOAD SWAP1 JUMP JUMPDEST PUSH1 0x3 SLOAD SWAP1 SWAP2 POP PUSH1 0x1 PUSH1 0x1 PUSH1 0x40 SHL SUB DUP2 GT ISZERO PUSH2 0x1057 JUMPI PUSH2 0x1057 PUSH2 0x21A1 JUMP JUMPDEST PUSH1 0x40 MLOAD SWAP1 DUP1 DUP3 MSTORE DUP1 PUSH1 0x20 MUL PUSH1 0x20 ADD DUP3 ADD PUSH1 0x40 MSTORE DUP1 ISZERO PUSH2 0x1080 JUMPI DUP2 PUSH1 0x20 ADD PUSH1 0x20 DUP3 MUL DUP1 CALLDATASIZE DUP4 CALLDATACOPY ADD SWAP1 POP JUMPDEST POP SWAP2 POP DUP1 PUSH0 SUB PUSH2 0x1090 JUMPI POP SWAP2 SWAP1 POP JUMP JUMPDEST PUSH0 JUMPDEST PUSH1 0x4 SLOAD DUP2 LT ISZERO PUSH2 0x10F8 JUMPI PUSH0 PUSH1 0x4 DUP3 DUP2 SLOAD DUP2 LT PUSH2 0x10B0 JUMPI PUSH2 0x10B0 PUSH2 0x255E JUMP JUMPDEST SWAP1 PUSH0 MSTORE PUSH1 0x20 PUSH0 KECCAK256 ADD SLOAD SWAP1 POP DUP3 DUP2 DUP7 PUSH2 0x10C8 SWAP2 SWAP1 PUSH2 0x2634 JUMP JUMPDEST PUSH2 0x10D2 SWAP2 SWAP1 PUSH2 0x2528 JUMP JUMPDEST DUP5 DUP4 DUP2 MLOAD DUP2 LT PUSH2 0x10E4 JUMPI PUSH2 0x10E4 PUSH2 0x255E JUMP JUMPDEST PUSH1 0x20 SWAP1 DUP2 MUL SWAP2 SWAP1 SWAP2 ADD ADD MSTORE POP PUSH1 0x1 ADD PUSH2 0x1092 JUMP JUMPDEST POP POP SWAP2 SWAP1 POP JUMP JUMPDEST PUSH1 0x1 PUSH1 0x1 PUSH1 0xA0 SHL SUB SWAP2 DUP3 AND PUSH0 SWAP1 DUP2 MSTORE PUSH32 0x52C63247E1F47DB19D5CE0460030C497F067CA4CEBF71BA98EEADABE20BACE01 PUSH1 0x20 SWAP1 DUP2 MSTORE PUSH1 0x40 DUP1 DUP4 KECCAK256 SWAP4 SWAP1 SWAP5 AND DUP3 MSTORE SWAP2 SWAP1 SWAP2 MSTORE KECCAK256 SLOAD SWAP1 JUMP JUMPDEST PUSH2 0x1150 PUSH2 0x169C JUMP JUMPDEST PUSH0 DUP2 SWAP1 SUB PUSH2 0x1171 JUMPI PUSH1 0x40 MLOAD PUSH4 0xC1AB6DC1 PUSH1 0xE0 SHL DUP2 MSTORE PUSH1 0x4 ADD PUSH1 0x40 MLOAD DUP1 SWAP2 SUB SWAP1 REVERT JUMPDEST PUSH2 0x117D PUSH1 0x3 DUP4 DUP4 PUSH2 0x1FED JUMP JUMPDEST POP PUSH2 0x1186 PUSH2 0x17F8 JUMP JUMPDEST PUSH32 0x3CA096A4C913A6F222A557151D17832DDDAB787E6DDF59063CAB45E15B9A9FAC DUP3 DUP3 PUSH1 0x40 MLOAD PUSH2 0x11B7 SWAP3 SWAP2 SWAP1 PUSH2 0x2663 JUMP JUMPDEST PUSH1 0x40 MLOAD DUP1 SWAP2 SUB SWAP1 LOG1 POP POP JUMP JUMPDEST PUSH0 PUSH2 0x11CC PUSH2 0x169C JUMP JUMPDEST PUSH1 0x1 PUSH1 0x1 PUSH1 0xA0 SHL SUB DUP5 AND PUSH2 0x11F3 JUMPI PUSH1 0x40 MLOAD PUSH4 0x4E469669 PUSH1 0xE1 SHL DUP2 MSTORE PUSH1 0x4 ADD PUSH1 0x40 MLOAD DUP1 SWAP2 SUB SWAP1 REVERT JUMPDEST PUSH0 DUP1 SLOAD PUSH1 0x1 PUSH1 0x1 PUSH1 0xA0 SHL SUB AND SWAP1 POP PUSH0 DUP2 PUSH1 0x1 PUSH1 0x1 PUSH1 0xA0 SHL SUB AND PUSH4 0x3FC8CEF3 PUSH1 0x40 MLOAD DUP2 PUSH4 0xFFFFFFFF AND PUSH1 0xE0 SHL DUP2 MSTORE PUSH1 0x4 ADD PUSH1 0x20 PUSH1 0x40 MLOAD DUP1 DUP4 SUB DUP2 DUP7 GAS STATICCALL ISZERO DUP1 ISZERO PUSH2 0x123E JUMPI RETURNDATASIZE PUSH0 PUSH0 RETURNDATACOPY RETURNDATASIZE PUSH0 REVERT JUMPDEST POP POP POP POP PUSH1 0x40 MLOAD RETURNDATASIZE PUSH1 0x1F NOT PUSH1 0x1F DUP3 ADD AND DUP3 ADD DUP1 PUSH1 0x40 MSTORE POP DUP2 ADD SWAP1 PUSH2 0x1262 SWAP2 SWAP1 PUSH2 0x2572 JUMP JUMPDEST SWAP1 POP PUSH2 0x126C PUSH2 0xF20 JUMP JUMPDEST PUSH1 0x3 SLOAD PUSH0 DUP1 JUMPDEST DUP3 DUP2 LT ISZERO PUSH2 0x13AF JUMPI PUSH0 PUSH1 0x3 DUP3 DUP2 SLOAD DUP2 LT PUSH2 0x128E JUMPI PUSH2 0x128E PUSH2 0x255E JUMP JUMPDEST PUSH0 SWAP2 DUP3 MSTORE PUSH1 0x20 DUP3 KECCAK256 ADD SLOAD PUSH1 0x40 MLOAD PUSH4 0xD88E3E3B PUSH1 0xE0 SHL DUP2 MSTORE PUSH1 0x1 PUSH1 0x1 PUSH1 0xA0 SHL SUB SWAP2 DUP3 AND PUSH1 0x4 DUP3 ADD DUP2 SWAP1 MSTORE DUP9 DUP4 AND PUSH1 0x24 DUP4 ADD MSTORE SWAP4 POP SWAP1 DUP9 AND SWAP1 PUSH4 0xD88E3E3B SWAP1 PUSH1 0x44 ADD PUSH0 PUSH1 0x40 MLOAD DUP1 DUP4 SUB DUP2 DUP7 GAS STATICCALL ISZERO DUP1 ISZERO PUSH2 0x12E8 JUMPI RETURNDATASIZE PUSH0 PUSH0 RETURNDATACOPY RETURNDATASIZE PUSH0 REVERT JUMPDEST POP POP POP POP PUSH1 0x40 MLOAD RETURNDATASIZE PUSH0 DUP3 RETURNDATACOPY PUSH1 0x1F RETURNDATASIZE SWAP1 DUP2 ADD PUSH1 0x1F NOT AND DUP3 ADD PUSH1 0x40 MSTORE PUSH2 0x130F SWAP2 SWAP1 DUP2 ADD SWAP1 PUSH2 0x258D JUMP JUMPDEST SWAP1 POP DUP7 PUSH1 0x1 PUSH1 0x1 PUSH1 0xA0 SHL SUB AND PUSH4 0xD06CA61F DUP12 DUP12 DUP7 DUP2 DUP2 LT PUSH2 0x1332 JUMPI PUSH2 0x1332 PUSH2 0x255E JUMP JUMPDEST SWAP1 POP PUSH1 0x20 MUL ADD CALLDATALOAD DUP4 PUSH1 0x40 MLOAD DUP4 PUSH4 0xFFFFFFFF AND PUSH1 0xE0 SHL DUP2 MSTORE PUSH1 0x4 ADD PUSH2 0x1357 SWAP3 SWAP2 SWAP1 PUSH2 0x264B JUMP JUMPDEST PUSH1 0x20 PUSH1 0x40 MLOAD DUP1 DUP4 SUB DUP2 DUP7 GAS STATICCALL ISZERO DUP1 ISZERO PUSH2 0x1372 JUMPI RETURNDATASIZE PUSH0 PUSH0 RETURNDATACOPY RETURNDATASIZE PUSH0 REVERT JUMPDEST POP POP POP POP PUSH1 0x40 MLOAD RETURNDATASIZE PUSH1 0x1F NOT PUSH1 0x1F DUP3 ADD AND DUP3 ADD DUP1 PUSH1 0x40 MSTORE POP DUP2 ADD SWAP1 PUSH2 0x1396 SWAP2 SWAP1 PUSH2 0x2547 JUMP JUMPDEST PUSH2 0x13A0 SWAP1 DUP6 PUSH2 0x24CD JUMP JUMPDEST SWAP4 POP DUP3 PUSH1 0x1 ADD SWAP3 POP POP POP PUSH2 0x1272 JUMP JUMPDEST POP PUSH0 MLOAD PUSH1 0x20 PUSH2 0x27F4 PUSH0 CODECOPY PUSH0 MLOAD SWAP1 PUSH0 MSTORE SLOAD ISZERO PUSH2 0x13D2 JUMPI PUSH2 0x13CD DUP2 PUSH2 0x144E JUMP JUMPDEST PUSH2 0x13DD JUMP JUMPDEST PUSH9 0x3635C9ADC5DEA00000 JUMPDEST SWAP5 POP PUSH2 0x13E9 DUP9 DUP7 PUSH2 0x17C4 JUMP JUMPDEST PUSH0 JUMPDEST DUP7 DUP2 LT ISZERO PUSH2 0x1442 JUMPI DUP8 DUP8 DUP3 DUP2 DUP2 LT PUSH2 0x1405 JUMPI PUSH2 0x1405 PUSH2 0x255E JUMP JUMPDEST SWAP1 POP PUSH1 0x20 MUL ADD CALLDATALOAD PUSH1 0x4 DUP3 DUP2 SLOAD DUP2 LT PUSH2 0x141F JUMPI PUSH2 0x141F PUSH2 0x255E JUMP JUMPDEST SWAP1 PUSH0 MSTORE PUSH1 0x20 PUSH0 KECCAK256 ADD PUSH0 DUP3 DUP3 SLOAD PUSH2 0x1435 SWAP2 SWAP1 PUSH2 0x24CD JUMP JUMPDEST SWAP1 SWAP2 SSTORE POP POP PUSH1 0x1 ADD PUSH2 0x13EB JUMP JUMPDEST POP POP POP POP POP SWAP4 SWAP3 POP POP POP JUMP JUMPDEST PUSH1 0x2 SLOAD PUSH0 SWAP1 PUSH1 0xFF AND ISZERO PUSH2 0x1474 JUMPI PUSH1 0x40 MLOAD PUSH4 0x6FDA65D PUSH1 0xE3 SHL DUP2 MSTORE PUSH1 0x4 ADD PUSH1 0x40 MLOAD DUP1 SWAP2 SUB SWAP1 REVERT JUMPDEST PUSH0 PUSH2 0x147D PUSH2 0x190C JUMP JUMPDEST SWAP1 POP DUP1 PUSH0 SUB PUSH2 0x1497 JUMPI POP PUSH9 0x3635C9ADC5DEA00000 SWAP3 SWAP2 POP POP JUMP JUMPDEST DUP1 PUSH2 0x14AD PUSH0 MLOAD PUSH1 0x20 PUSH2 0x27F4 PUSH0 CODECOPY PUSH0 MLOAD SWAP1 PUSH0 MSTORE SLOAD SWAP1 JUMP JUMPDEST PUSH2 0x14B7 SWAP1 DUP6 PUSH2 0x2634 JUMP JUMPDEST PUSH2 0x14C1 SWAP2 SWAP1 PUSH2 0x2528 JUMP JUMPDEST SWAP4 SWAP3 POP POP POP JUMP JUMPDEST PUSH1 0x2 SLOAD PUSH1 0x60 SWAP1 PUSH1 0xFF AND ISZERO PUSH2 0x14EF JUMPI PUSH1 0x40 MLOAD PUSH4 0x6FDA65D PUSH1 0xE3 SHL DUP2 MSTORE PUSH1 0x4 ADD PUSH1 0x40 MLOAD DUP1 SWAP2 SUB SWAP1 REVERT JUMPDEST PUSH1 0x4 DUP1 SLOAD DUP1 PUSH1 0x20 MUL PUSH1 0x20 ADD PUSH1 0x40 MLOAD SWAP1 DUP2 ADD PUSH1 0x40 MSTORE DUP1 SWAP3 SWAP2 SWAP1 DUP2 DUP2 MSTORE PUSH1 0x20 ADD DUP3 DUP1 SLOAD DUP1 ISZERO PUSH2 0x5FB JUMPI PUSH1 0x20 MUL DUP3 ADD SWAP2 SWAP1 PUSH0 MSTORE PUSH1 0x20 PUSH0 KECCAK256 SWAP1 JUMPDEST DUP2 SLOAD DUP2 MSTORE PUSH1 0x20 ADD SWAP1 PUSH1 0x1 ADD SWAP1 DUP1 DUP4 GT PUSH2 0x1525 JUMPI POP POP POP POP POP SWAP1 POP SWAP1 JUMP JUMPDEST PUSH2 0x154A PUSH2 0x169C JUMP JUMPDEST PUSH1 0x1 PUSH1 0x1 PUSH1 0xA0 SHL SUB DUP2 AND PUSH2 0x1573 JUMPI PUSH1 0x40 MLOAD PUSH4 0x1E4FBDF7 PUSH1 0xE0 SHL DUP2 MSTORE PUSH0 PUSH1 0x4 DUP3 ADD MSTORE PUSH1 0x24 ADD PUSH2 0x700 JUMP JUMPDEST PUSH2 0x157C DUP2 PUSH2 0x16CE JUMP JUMPDEST POP JUMP JUMPDEST PUSH2 0xF0E DUP4 DUP4 DUP4 PUSH1 0x1 PUSH2 0x1ADD JUMP JUMPDEST PUSH0 PUSH2 0x1597 DUP5 DUP5 PUSH2 0x10FF JUMP JUMPDEST SWAP1 POP PUSH0 NOT DUP2 LT ISZERO PUSH2 0x15EA JUMPI DUP2 DUP2 LT ISZERO PUSH2 0x15DC JUMPI PUSH1 0x40 MLOAD PUSH4 0x7DC7A0D9 PUSH1 0xE1 SHL DUP2 MSTORE PUSH1 0x1 PUSH1 0x1 PUSH1 0xA0 SHL SUB DUP5 AND PUSH1 0x4 DUP3 ADD MSTORE PUSH1 0x24 DUP2 ADD DUP3 SWAP1 MSTORE PUSH1 0x44 DUP2 ADD DUP4 SWAP1 MSTORE PUSH1 0x64 ADD PUSH2 0x700 JUMP JUMPDEST PUSH2 0x15EA DUP5 DUP5 DUP5 DUP5 SUB PUSH0 PUSH2 0x1ADD JUMP JUMPDEST POP POP POP POP JUMP JUMPDEST PUSH1 0x1 PUSH1 0x1 PUSH1 0xA0 SHL SUB DUP4 AND PUSH2 0x1619 JUMPI PUSH1 0x40 MLOAD PUSH4 0x4B637E8F PUSH1 0xE1 SHL DUP2 MSTORE PUSH0 PUSH1 0x4 DUP3 ADD MSTORE PUSH1 0x24 ADD PUSH2 0x700 JUMP JUMPDEST PUSH1 0x1 PUSH1 0x1 PUSH1 0xA0 SHL SUB DUP3 AND PUSH2 0x1642 JUMPI PUSH1 0x40 MLOAD PUSH4 0xEC442F05 PUSH1 0xE0 SHL DUP2 MSTORE PUSH0 PUSH1 0x4 DUP3 ADD MSTORE PUSH1 0x24 ADD PUSH2 0x700 JUMP JUMPDEST PUSH2 0xF0E DUP4 DUP4 DUP4 PUSH2 0x1BC1 JUMP JUMPDEST PUSH0 DUP1 PUSH32 0xF0C57E16840DF040F15088DC2F81FE391C3923BEC73E23A9662EFC9C229C6A00 PUSH2 0x557 JUMP JUMPDEST PUSH2 0x167D PUSH2 0x1CFA JUMP JUMPDEST PUSH2 0x1687 DUP3 DUP3 PUSH2 0x1D1F JUMP JUMPDEST POP POP JUMP JUMPDEST PUSH2 0x1693 PUSH2 0x1CFA JUMP JUMPDEST PUSH2 0x157C DUP2 PUSH2 0x1D6F JUMP JUMPDEST CALLER PUSH2 0x16A5 PUSH2 0xA93 JUMP JUMPDEST PUSH1 0x1 PUSH1 0x1 PUSH1 0xA0 SHL SUB AND EQ PUSH2 0x96E JUMPI PUSH1 0x40 MLOAD PUSH4 0x118CDAA7 PUSH1 0xE0 SHL DUP2 MSTORE CALLER PUSH1 0x4 DUP3 ADD MSTORE PUSH1 0x24 ADD PUSH2 0x700 JUMP JUMPDEST PUSH32 0x9016D09D72D40FDAE2FD8CEAC6B6234C7706214FD39C1CD1E609A0528C199300 DUP1 SLOAD PUSH1 0x1 PUSH1 0x1 PUSH1 0xA0 SHL SUB NOT DUP2 AND PUSH1 0x1 PUSH1 0x1 PUSH1 0xA0 SHL SUB DUP5 DUP2 AND SWAP2 DUP3 OR DUP5 SSTORE PUSH1 0x40 MLOAD SWAP3 AND SWAP2 DUP3 SWAP1 PUSH32 0x8BE0079C531659141344CD1FD0A4F28419497F9722A3DAAFE3B4186F6B6457E0 SWAP1 PUSH0 SWAP1 LOG3 POP POP POP JUMP JUMPDEST PUSH1 0x1 PUSH1 0x1 PUSH1 0xA0 SHL SUB DUP3 AND PUSH2 0x1767 JUMPI PUSH1 0x40 MLOAD PUSH4 0x4B637E8F PUSH1 0xE1 SHL DUP2 MSTORE PUSH0 PUSH1 0x4 DUP3 ADD MSTORE PUSH1 0x24 ADD PUSH2 0x700 JUMP JUMPDEST PUSH2 0x1687 DUP3 PUSH0 DUP4 PUSH2 0x1BC1 JUMP JUMPDEST PUSH1 0x40 DUP1 MLOAD PUSH1 0x1 PUSH1 0x1 PUSH1 0xA0 SHL SUB DUP5 AND PUSH1 0x24 DUP3 ADD MSTORE PUSH1 0x44 DUP1 DUP3 ADD DUP5 SWAP1 MSTORE DUP3 MLOAD DUP1 DUP4 SUB SWAP1 SWAP2 ADD DUP2 MSTORE PUSH1 0x64 SWAP1 SWAP2 ADD SWAP1 SWAP2 MSTORE PUSH1 0x20 DUP2 ADD DUP1 MLOAD PUSH1 0x1 PUSH1 0x1 PUSH1 0xE0 SHL SUB AND PUSH4 0xA9059CBB PUSH1 0xE0 SHL OR SWAP1 MSTORE PUSH2 0xF0E SWAP1 DUP5 SWAP1 PUSH2 0x1D77 JUMP JUMPDEST PUSH1 0x1 PUSH1 0x1 PUSH1 0xA0 SHL SUB DUP3 AND PUSH2 0x17ED JUMPI PUSH1 0x40 MLOAD PUSH4 0xEC442F05 PUSH1 0xE0 SHL DUP2 MSTORE PUSH0 PUSH1 0x4 DUP3 ADD MSTORE PUSH1 0x24 ADD PUSH2 0x700 JUMP JUMPDEST PUSH2 0x1687 PUSH0 DUP4 DUP4 PUSH2 0x1BC1 JUMP JUMPDEST PUSH1 0x3 SLOAD DUP1 PUSH1 0x1 PUSH1 0x1 PUSH1 0x40 SHL SUB DUP2 GT ISZERO PUSH2 0x1813 JUMPI PUSH2 0x1813 PUSH2 0x21A1 JUMP JUMPDEST PUSH1 0x40 MLOAD SWAP1 DUP1 DUP3 MSTORE DUP1 PUSH1 0x20 MUL PUSH1 0x20 ADD DUP3 ADD PUSH1 0x40 MSTORE DUP1 ISZERO PUSH2 0x183C JUMPI DUP2 PUSH1 0x20 ADD PUSH1 0x20 DUP3 MUL DUP1 CALLDATASIZE DUP4 CALLDATACOPY ADD SWAP1 POP JUMPDEST POP DUP1 MLOAD PUSH2 0x1851 SWAP2 PUSH1 0x4 SWAP2 PUSH1 0x20 SWAP1 SWAP2 ADD SWAP1 PUSH2 0x204E JUMP JUMPDEST POP PUSH0 JUMPDEST DUP2 DUP2 LT ISZERO PUSH2 0x1687 JUMPI PUSH0 PUSH1 0x3 DUP3 DUP2 SLOAD DUP2 LT PUSH2 0x1870 JUMPI PUSH2 0x1870 PUSH2 0x255E JUMP JUMPDEST PUSH0 SWAP2 DUP3 MSTORE PUSH1 0x20 SWAP1 SWAP2 KECCAK256 ADD SLOAD PUSH1 0x40 MLOAD PUSH4 0x70A08231 PUSH1 0xE0 SHL DUP2 MSTORE ADDRESS PUSH1 0x4 DUP3 ADD MSTORE PUSH1 0x1 PUSH1 0x1 PUSH1 0xA0 SHL SUB SWAP1 SWAP2 AND SWAP2 POP DUP2 SWAP1 PUSH4 0x70A08231 SWAP1 PUSH1 0x24 ADD PUSH1 0x20 PUSH1 0x40 MLOAD DUP1 DUP4 SUB DUP2 DUP7 GAS STATICCALL ISZERO DUP1 ISZERO PUSH2 0x18C1 JUMPI RETURNDATASIZE PUSH0 PUSH0 RETURNDATACOPY RETURNDATASIZE PUSH0 REVERT JUMPDEST POP POP POP POP PUSH1 0x40 MLOAD RETURNDATASIZE PUSH1 0x1F NOT PUSH1 0x1F DUP3 ADD AND DUP3 ADD DUP1 PUSH1 0x40 MSTORE POP DUP2 ADD SWAP1 PUSH2 0x18E5 SWAP2 SWAP1 PUSH2 0x2547 JUMP JUMPDEST PUSH1 0x4 DUP4 DUP2 SLOAD DUP2 LT PUSH2 0x18F8 JUMPI PUSH2 0x18F8 PUSH2 0x255E JUMP JUMPDEST PUSH0 SWAP2 DUP3 MSTORE PUSH1 0x20 SWAP1 SWAP2 KECCAK256 ADD SSTORE POP PUSH1 0x1 ADD PUSH2 0x1854 JUMP JUMPDEST PUSH0 PUSH0 PUSH2 0x191F PUSH0 SLOAD PUSH1 0x1 PUSH1 0x1 PUSH1 0xA0 SHL SUB AND SWAP1 JUMP JUMPDEST SWAP1 POP PUSH0 DUP2 PUSH1 0x1 PUSH1 0x1 PUSH1 0xA0 SHL SUB AND PUSH4 0x3FC8CEF3 PUSH1 0x40 MLOAD DUP2 PUSH4 0xFFFFFFFF AND PUSH1 0xE0 SHL DUP2 MSTORE PUSH1 0x4 ADD PUSH1 0x20 PUSH1 0x40 MLOAD DUP1 DUP4 SUB DUP2 DUP7 GAS STATICCALL ISZERO DUP1 ISZERO PUSH2 0x195E JUMPI RETURNDATASIZE PUSH0 PUSH0 RETURNDATACOPY RETURNDATASIZE PUSH0 REVERT JUMPDEST POP POP POP POP PUSH1 0x40 MLOAD RETURNDATASIZE PUSH1 0x1F NOT PUSH1 0x1F DUP3 ADD AND DUP3 ADD DUP1 PUSH1 0x40 MSTORE POP DUP2 ADD SWAP1 PUSH2 0x1982 SWAP2 SWAP1 PUSH2 0x2572 JUMP JUMPDEST PUSH1 0x4 SLOAD SWAP1 SWAP2 POP PUSH0 JUMPDEST DUP2 DUP2 LT ISZERO PUSH2 0x1AD6 JUMPI PUSH0 PUSH1 0x4 DUP3 DUP2 SLOAD DUP2 LT PUSH2 0x19A6 JUMPI PUSH2 0x19A6 PUSH2 0x255E JUMP JUMPDEST SWAP1 PUSH0 MSTORE PUSH1 0x20 PUSH0 KECCAK256 ADD SLOAD SWAP1 POP PUSH0 DUP2 GT ISZERO PUSH2 0x1ACD JUMPI PUSH0 PUSH1 0x3 DUP4 DUP2 SLOAD DUP2 LT PUSH2 0x19CD JUMPI PUSH2 0x19CD PUSH2 0x255E JUMP JUMPDEST PUSH0 SWAP2 DUP3 MSTORE PUSH1 0x20 DUP3 KECCAK256 ADD SLOAD PUSH1 0x40 MLOAD PUSH4 0xD88E3E3B PUSH1 0xE0 SHL DUP2 MSTORE PUSH1 0x1 PUSH1 0x1 PUSH1 0xA0 SHL SUB SWAP2 DUP3 AND PUSH1 0x4 DUP3 ADD DUP2 SWAP1 MSTORE DUP9 DUP4 AND PUSH1 0x24 DUP4 ADD MSTORE SWAP4 POP SWAP1 DUP9 AND SWAP1 PUSH4 0xD88E3E3B SWAP1 PUSH1 0x44 ADD PUSH0 PUSH1 0x40 MLOAD DUP1 DUP4 SUB DUP2 DUP7 GAS STATICCALL ISZERO DUP1 ISZERO PUSH2 0x1A27 JUMPI RETURNDATASIZE PUSH0 PUSH0 RETURNDATACOPY RETURNDATASIZE PUSH0 REVERT JUMPDEST POP POP POP POP PUSH1 0x40 MLOAD RETURNDATASIZE PUSH0 DUP3 RETURNDATACOPY PUSH1 0x1F RETURNDATASIZE SWAP1 DUP2 ADD PUSH1 0x1F NOT AND DUP3 ADD PUSH1 0x40 MSTORE PUSH2 0x1A4E SWAP2 SWAP1 DUP2 ADD SWAP1 PUSH2 0x258D JUMP JUMPDEST PUSH1 0x40 MLOAD PUSH4 0xD06CA61F PUSH1 0xE0 SHL DUP2 MSTORE SWAP1 SWAP2 POP PUSH1 0x1 PUSH1 0x1 PUSH1 0xA0 SHL SUB DUP9 AND SWAP1 PUSH4 0xD06CA61F SWAP1 PUSH2 0x1A7F SWAP1 DUP7 SWAP1 DUP6 SWAP1 PUSH1 0x4 ADD PUSH2 0x264B JUMP JUMPDEST PUSH1 0x20 PUSH1 0x40 MLOAD DUP1 DUP4 SUB DUP2 DUP7 GAS STATICCALL ISZERO DUP1 ISZERO PUSH2 0x1A9A JUMPI RETURNDATASIZE PUSH0 PUSH0 RETURNDATACOPY RETURNDATASIZE PUSH0 REVERT JUMPDEST POP POP POP POP PUSH1 0x40 MLOAD RETURNDATASIZE PUSH1 0x1F NOT PUSH1 0x1F DUP3 ADD AND DUP3 ADD DUP1 PUSH1 0x40 MSTORE POP DUP2 ADD SWAP1 PUSH2 0x1ABE SWAP2 SWAP1 PUSH2 0x2547 JUMP JUMPDEST PUSH2 0x1AC8 SWAP1 DUP10 PUSH2 0x24CD JUMP JUMPDEST SWAP8 POP POP POP JUMPDEST POP PUSH1 0x1 ADD PUSH2 0x198A JUMP JUMPDEST POP POP POP POP SWAP1 JUMP JUMPDEST PUSH0 MLOAD PUSH1 0x20 PUSH2 0x27D4 PUSH0 CODECOPY PUSH0 MLOAD SWAP1 PUSH0 MSTORE PUSH1 0x1 PUSH1 0x1 PUSH1 0xA0 SHL SUB DUP6 AND PUSH2 0x1B14 JUMPI PUSH1 0x40 MLOAD PUSH4 0xE602DF05 PUSH1 0xE0 SHL DUP2 MSTORE PUSH0 PUSH1 0x4 DUP3 ADD MSTORE PUSH1 0x24 ADD PUSH2 0x700 JUMP JUMPDEST PUSH1 0x1 PUSH1 0x1 PUSH1 0xA0 SHL SUB DUP5 AND PUSH2 0x1B3D JUMPI PUSH1 0x40 MLOAD PUSH4 0x4A1406B1 PUSH1 0xE1 SHL DUP2 MSTORE PUSH0 PUSH1 0x4 DUP3 ADD MSTORE PUSH1 0x24 ADD PUSH2 0x700 JUMP JUMPDEST PUSH1 0x1 PUSH1 0x1 PUSH1 0xA0 SHL SUB DUP1 DUP7 AND PUSH0 SWAP1 DUP2 MSTORE PUSH1 0x1 DUP4 ADD PUSH1 0x20 SWAP1 DUP2 MSTORE PUSH1 0x40 DUP1 DUP4 KECCAK256 SWAP4 DUP9 AND DUP4 MSTORE SWAP3 SWAP1 MSTORE KECCAK256 DUP4 SWAP1 SSTORE DUP2 ISZERO PUSH2 0x1BBA JUMPI DUP4 PUSH1 0x1 PUSH1 0x1 PUSH1 0xA0 SHL SUB AND DUP6 PUSH1 0x1 PUSH1 0x1 PUSH1 0xA0 SHL SUB AND PUSH32 0x8C5BE1E5EBEC7D5BD14F71427D1E84F3DD0314C0F7B2291E5B200AC8C7C3B925 DUP6 PUSH1 0x40 MLOAD PUSH2 0x1BB1 SWAP2 DUP2 MSTORE PUSH1 0x20 ADD SWAP1 JUMP JUMPDEST PUSH1 0x40 MLOAD DUP1 SWAP2 SUB SWAP1 LOG3 JUMPDEST POP POP POP POP POP JUMP JUMPDEST PUSH0 MLOAD PUSH1 0x20 PUSH2 0x27D4 PUSH0 CODECOPY PUSH0 MLOAD SWAP1 PUSH0 MSTORE PUSH1 0x1 PUSH1 0x1 PUSH1 0xA0 SHL SUB DUP5 AND PUSH2 0x1BFB JUMPI DUP2 DUP2 PUSH1 0x2 ADD PUSH0 DUP3 DUP3 SLOAD PUSH2 0x1BF0 SWAP2 SWAP1 PUSH2 0x24CD JUMP JUMPDEST SWAP1 SWAP2 SSTORE POP PUSH2 0x1C6B SWAP1 POP JUMP JUMPDEST PUSH1 0x1 PUSH1 0x1 PUSH1 0xA0 SHL SUB DUP5 AND PUSH0 SWAP1 DUP2 MSTORE PUSH1 0x20 DUP3 SWAP1 MSTORE PUSH1 0x40 SWAP1 KECCAK256 SLOAD DUP3 DUP2 LT ISZERO PUSH2 0x1C4D JUMPI PUSH1 0x40 MLOAD PUSH4 0x391434E3 PUSH1 0xE2 SHL DUP2 MSTORE PUSH1 0x1 PUSH1 0x1 PUSH1 0xA0 SHL SUB DUP7 AND PUSH1 0x4 DUP3 ADD MSTORE PUSH1 0x24 DUP2 ADD DUP3 SWAP1 MSTORE PUSH1 0x44 DUP2 ADD DUP5 SWAP1 MSTORE PUSH1 0x64 ADD PUSH2 0x700 JUMP JUMPDEST PUSH1 0x1 PUSH1 0x1 PUSH1 0xA0 SHL SUB DUP6 AND PUSH0 SWAP1 DUP2 MSTORE PUSH1 0x20 DUP4 SWAP1 MSTORE PUSH1 0x40 SWAP1 KECCAK256 SWAP1 DUP4 SWAP1 SUB SWAP1 SSTORE JUMPDEST PUSH1 0x1 PUSH1 0x1 PUSH1 0xA0 SHL SUB DUP4 AND PUSH2 0x1C89 JUMPI PUSH1 0x2 DUP2 ADD DUP1 SLOAD DUP4 SWAP1 SUB SWAP1 SSTORE PUSH2 0x1CA7 JUMP JUMPDEST PUSH1 0x1 PUSH1 0x1 PUSH1 0xA0 SHL SUB DUP4 AND PUSH0 SWAP1 DUP2 MSTORE PUSH1 0x20 DUP3 SWAP1 MSTORE PUSH1 0x40 SWAP1 KECCAK256 DUP1 SLOAD DUP4 ADD SWAP1 SSTORE JUMPDEST DUP3 PUSH1 0x1 PUSH1 0x1 PUSH1 0xA0 SHL SUB AND DUP5 PUSH1 0x1 PUSH1 0x1 PUSH1 0xA0 SHL SUB AND PUSH32 0xDDF252AD1BE2C89B69C2B068FC378DAA952BA7F163C4A11628F55A4DF523B3EF DUP5 PUSH1 0x40 MLOAD PUSH2 0x1CEC SWAP2 DUP2 MSTORE PUSH1 0x20 ADD SWAP1 JUMP JUMPDEST PUSH1 0x40 MLOAD DUP1 SWAP2 SUB SWAP1 LOG3 POP POP POP POP JUMP JUMPDEST PUSH2 0x1D02 PUSH2 0x1E4A JUMP JUMPDEST PUSH2 0x96E JUMPI PUSH1 0x40 MLOAD PUSH4 0x1AFCD79F PUSH1 0xE3 SHL DUP2 MSTORE PUSH1 0x4 ADD PUSH1 0x40 MLOAD DUP1 SWAP2 SUB SWAP1 REVERT JUMPDEST PUSH2 0x1D27 PUSH2 0x1CFA JUMP JUMPDEST PUSH0 MLOAD PUSH1 0x20 PUSH2 0x27D4 PUSH0 CODECOPY PUSH0 MLOAD SWAP1 PUSH0 MSTORE PUSH32 0x52C63247E1F47DB19D5CE0460030C497F067CA4CEBF71BA98EEADABE20BACE03 PUSH2 0x1D60 DUP5 DUP3 PUSH2 0x26F3 JUMP JUMPDEST POP PUSH1 0x4 DUP2 ADD PUSH2 0x15EA DUP4 DUP3 PUSH2 0x26F3 JUMP JUMPDEST PUSH2 0x154A PUSH2 0x1CFA JUMP JUMPDEST PUSH0 PUSH2 0x1DCB DUP3 PUSH1 0x40 MLOAD DUP1 PUSH1 0x40 ADD PUSH1 0x40 MSTORE DUP1 PUSH1 0x20 DUP2 MSTORE PUSH1 0x20 ADD PUSH32 0x5361666545524332303A206C6F772D6C6576656C2063616C6C206661696C6564 DUP2 MSTORE POP DUP6 PUSH1 0x1 PUSH1 0x1 PUSH1 0xA0 SHL SUB AND PUSH2 0x1E63 SWAP1 SWAP3 SWAP2 SWAP1 PUSH4 0xFFFFFFFF AND JUMP JUMPDEST SWAP1 POP DUP1 MLOAD PUSH0 EQ DUP1 PUSH2 0x1DEB JUMPI POP DUP1 DUP1 PUSH1 0x20 ADD SWAP1 MLOAD DUP2 ADD SWAP1 PUSH2 0x1DEB SWAP2 SWAP1 PUSH2 0x27AD JUMP JUMPDEST PUSH2 0xF0E JUMPI PUSH1 0x40 MLOAD PUSH3 0x461BCD PUSH1 0xE5 SHL DUP2 MSTORE PUSH1 0x20 PUSH1 0x4 DUP3 ADD MSTORE PUSH1 0x2A PUSH1 0x24 DUP3 ADD MSTORE PUSH32 0x5361666545524332303A204552433230206F7065726174696F6E20646964206E PUSH1 0x44 DUP3 ADD MSTORE PUSH10 0x1BDD081CDD58D8D95959 PUSH1 0xB2 SHL PUSH1 0x64 DUP3 ADD MSTORE PUSH1 0x84 ADD PUSH2 0x700 JUMP JUMPDEST PUSH0 PUSH2 0x1E53 PUSH2 0x164D JUMP JUMPDEST SLOAD PUSH1 0x1 PUSH1 0x40 SHL SWAP1 DIV PUSH1 0xFF AND SWAP2 SWAP1 POP JUMP JUMPDEST PUSH1 0x60 PUSH2 0x1E71 DUP5 DUP5 PUSH0 DUP6 PUSH2 0x1E79 JUMP JUMPDEST SWAP5 SWAP4 POP POP POP POP JUMP JUMPDEST PUSH1 0x60 DUP3 SELFBALANCE LT ISZERO PUSH2 0x1EDA JUMPI PUSH1 0x40 MLOAD PUSH3 0x461BCD PUSH1 0xE5 SHL DUP2 MSTORE PUSH1 0x20 PUSH1 0x4 DUP3 ADD MSTORE PUSH1 0x26 PUSH1 0x24 DUP3 ADD MSTORE PUSH32 0x416464726573733A20696E73756666696369656E742062616C616E636520666F PUSH1 0x44 DUP3 ADD MSTORE PUSH6 0x1C8818D85B1B PUSH1 0xD2 SHL PUSH1 0x64 DUP3 ADD MSTORE PUSH1 0x84 ADD PUSH2 0x700 JUMP JUMPDEST PUSH0 PUSH0 DUP7 PUSH1 0x1 PUSH1 0x1 PUSH1 0xA0 SHL SUB AND DUP6 DUP8 PUSH1 0x40 MLOAD PUSH2 0x1EF5 SWAP2 SWAP1 PUSH2 0x27C8 JUMP JUMPDEST PUSH0 PUSH1 0x40 MLOAD DUP1 DUP4 SUB DUP2 DUP6 DUP8 GAS CALL SWAP3 POP POP POP RETURNDATASIZE DUP1 PUSH0 DUP2 EQ PUSH2 0x1F2F JUMPI PUSH1 0x40 MLOAD SWAP2 POP PUSH1 0x1F NOT PUSH1 0x3F RETURNDATASIZE ADD AND DUP3 ADD PUSH1 0x40 MSTORE RETURNDATASIZE DUP3 MSTORE RETURNDATASIZE PUSH0 PUSH1 0x20 DUP5 ADD RETURNDATACOPY PUSH2 0x1F34 JUMP JUMPDEST PUSH1 0x60 SWAP2 POP JUMPDEST POP SWAP2 POP SWAP2 POP PUSH2 0x1F45 DUP8 DUP4 DUP4 DUP8 PUSH2 0x1F50 JUMP JUMPDEST SWAP8 SWAP7 POP POP POP POP POP POP POP JUMP JUMPDEST PUSH1 0x60 DUP4 ISZERO PUSH2 0x1FBE JUMPI DUP3 MLOAD PUSH0 SUB PUSH2 0x1FB7 JUMPI PUSH1 0x1 PUSH1 0x1 PUSH1 0xA0 SHL SUB DUP6 AND EXTCODESIZE PUSH2 0x1FB7 JUMPI PUSH1 0x40 MLOAD PUSH3 0x461BCD PUSH1 0xE5 SHL DUP2 MSTORE PUSH1 0x20 PUSH1 0x4 DUP3 ADD MSTORE PUSH1 0x1D PUSH1 0x24 DUP3 ADD MSTORE PUSH32 0x416464726573733A2063616C6C20746F206E6F6E2D636F6E7472616374000000 PUSH1 0x44 DUP3 ADD MSTORE PUSH1 0x64 ADD PUSH2 0x700 JUMP JUMPDEST POP DUP2 PUSH2 0x1E71 JUMP JUMPDEST PUSH2 0x1E71 DUP4 DUP4 DUP2 MLOAD ISZERO PUSH2 0x1FD3 JUMPI DUP2 MLOAD DUP1 DUP4 PUSH1 0x20 ADD REVERT JUMPDEST DUP1 PUSH1 0x40 MLOAD PUSH3 0x461BCD PUSH1 0xE5 SHL DUP2 MSTORE PUSH1 0x4 ADD PUSH2 0x700 SWAP2 SWAP1 PUSH2 0x209B JUMP JUMPDEST DUP3 DUP1 SLOAD DUP3 DUP3 SSTORE SWAP1 PUSH0 MSTORE PUSH1 0x20 PUSH0 KECCAK256 SWAP1 DUP2 ADD SWAP3 DUP3 ISZERO PUSH2 0x203E JUMPI SWAP2 PUSH1 0x20 MUL DUP3 ADD JUMPDEST DUP3 DUP2 GT ISZERO PUSH2 0x203E JUMPI DUP2 SLOAD PUSH1 0x1 PUSH1 0x1 PUSH1 0xA0 SHL SUB NOT AND PUSH1 0x1 PUSH1 0x1 PUSH1 0xA0 SHL SUB DUP5 CALLDATALOAD AND OR DUP3 SSTORE PUSH1 0x20 SWAP1 SWAP3 ADD SWAP2 PUSH1 0x1 SWAP1 SWAP2 ADD SWAP1 PUSH2 0x200B JUMP JUMPDEST POP PUSH2 0x204A SWAP3 SWAP2 POP PUSH2 0x2087 JUMP JUMPDEST POP SWAP1 JUMP JUMPDEST DUP3 DUP1 SLOAD DUP3 DUP3 SSTORE SWAP1 PUSH0 MSTORE PUSH1 0x20 PUSH0 KECCAK256 SWAP1 DUP2 ADD SWAP3 DUP3 ISZERO PUSH2 0x203E JUMPI SWAP2 PUSH1 0x20 MUL DUP3 ADD JUMPDEST DUP3 DUP2 GT ISZERO PUSH2 0x203E JUMPI DUP3 MLOAD DUP3 SSTORE SWAP2 PUSH1 0x20 ADD SWAP2 SWAP1 PUSH1 0x1 ADD SWAP1 PUSH2 0x206C JUMP JUMPDEST JUMPDEST DUP1 DUP3 GT ISZERO PUSH2 0x204A JUMPI PUSH0 DUP2 SSTORE PUSH1 0x1 ADD PUSH2 0x2088 JUMP JUMPDEST PUSH1 0x20 DUP2 MSTORE PUSH0 DUP3 MLOAD DUP1 PUSH1 0x20 DUP5 ADD MSTORE DUP1 PUSH1 0x20 DUP6 ADD PUSH1 0x40 DUP6 ADD MCOPY PUSH0 PUSH1 0x40 DUP3 DUP6 ADD ADD MSTORE PUSH1 0x40 PUSH1 0x1F NOT PUSH1 0x1F DUP4 ADD AND DUP5 ADD ADD SWAP2 POP POP SWAP3 SWAP2 POP POP JUMP JUMPDEST PUSH1 0x1 PUSH1 0x1 PUSH1 0xA0 SHL SUB DUP2 AND DUP2 EQ PUSH2 0x157C JUMPI PUSH0 PUSH0 REVERT JUMPDEST PUSH0 PUSH0 PUSH1 0x40 DUP4 DUP6 SUB SLT ISZERO PUSH2 0x20F5 JUMPI PUSH0 PUSH0 REVERT JUMPDEST DUP3 CALLDATALOAD PUSH2 0x2100 DUP2 PUSH2 0x20D0 JUMP JUMPDEST SWAP5 PUSH1 0x20 SWAP4 SWAP1 SWAP4 ADD CALLDATALOAD SWAP4 POP POP POP JUMP JUMPDEST PUSH0 PUSH0 PUSH0 PUSH1 0x60 DUP5 DUP7 SUB SLT ISZERO PUSH2 0x2120 JUMPI PUSH0 PUSH0 REVERT JUMPDEST DUP4 CALLDATALOAD PUSH2 0x212B DUP2 PUSH2 0x20D0 JUMP JUMPDEST SWAP3 POP PUSH1 0x20 DUP5 ADD CALLDATALOAD PUSH2 0x213B DUP2 PUSH2 0x20D0 JUMP JUMPDEST SWAP3 SWAP6 SWAP3 SWAP5 POP POP POP PUSH1 0x40 SWAP2 SWAP1 SWAP2 ADD CALLDATALOAD SWAP1 JUMP JUMPDEST PUSH0 DUP2 MLOAD DUP1 DUP5 MSTORE PUSH1 0x20 DUP5 ADD SWAP4 POP PUSH1 0x20 DUP4 ADD PUSH0 JUMPDEST DUP3 DUP2 LT ISZERO PUSH2 0x2185 JUMPI DUP2 MLOAD PUSH1 0x1 PUSH1 0x1 PUSH1 0xA0 SHL SUB AND DUP7 MSTORE PUSH1 0x20 SWAP6 DUP7 ADD SWAP6 SWAP1 SWAP2 ADD SWAP1 PUSH1 0x1 ADD PUSH2 0x215E JUMP JUMPDEST POP SWAP4 SWAP5 SWAP4 POP POP POP POP JUMP JUMPDEST PUSH1 0x20 DUP2 MSTORE PUSH0 PUSH2 0x14C1 PUSH1 0x20 DUP4 ADD DUP5 PUSH2 0x214C JUMP JUMPDEST PUSH4 0x4E487B71 PUSH1 0xE0 SHL PUSH0 MSTORE PUSH1 0x41 PUSH1 0x4 MSTORE PUSH1 0x24 PUSH0 REVERT JUMPDEST PUSH1 0x40 MLOAD PUSH1 0x1F DUP3 ADD PUSH1 0x1F NOT AND DUP2 ADD PUSH1 0x1 PUSH1 0x1 PUSH1 0x40 SHL SUB DUP2 GT DUP3 DUP3 LT OR ISZERO PUSH2 0x21DD JUMPI PUSH2 0x21DD PUSH2 0x21A1 JUMP JUMPDEST PUSH1 0x40 MSTORE SWAP2 SWAP1 POP JUMP JUMPDEST PUSH0 PUSH0 DUP4 PUSH1 0x1F DUP5 ADD SLT PUSH2 0x21F5 JUMPI PUSH0 PUSH0 REVERT JUMPDEST POP DUP2 CALLDATALOAD PUSH1 0x1 PUSH1 0x1 PUSH1 0x40 SHL SUB DUP2 GT ISZERO PUSH2 0x220B JUMPI PUSH0 PUSH0 REVERT JUMPDEST PUSH1 0x20 DUP4 ADD SWAP2 POP DUP4 PUSH1 0x20 DUP3 PUSH1 0x5 SHL DUP6 ADD ADD GT ISZERO PUSH2 0x2225 JUMPI PUSH0 PUSH0 REVERT JUMPDEST SWAP3 POP SWAP3 SWAP1 POP JUMP JUMPDEST PUSH0 PUSH0 PUSH0 PUSH0 PUSH1 0x60 DUP6 DUP8 SUB SLT ISZERO PUSH2 0x223F JUMPI PUSH0 PUSH0 REVERT JUMPDEST DUP5 CALLDATALOAD PUSH2 0x224A DUP2 PUSH2 0x20D0 JUMP JUMPDEST SWAP4 POP PUSH1 0x20 DUP6 ADD CALLDATALOAD PUSH1 0x1 PUSH1 0x1 PUSH1 0x40 SHL SUB DUP2 GT ISZERO PUSH2 0x2264 JUMPI PUSH0 PUSH0 REVERT JUMPDEST DUP6 ADD PUSH1 0x1F DUP2 ADD DUP8 SGT PUSH2 0x2274 JUMPI PUSH0 PUSH0 REVERT JUMPDEST DUP1 CALLDATALOAD PUSH1 0x1 PUSH1 0x1 PUSH1 0x40 SHL SUB DUP2 GT ISZERO PUSH2 0x228D JUMPI PUSH2 0x228D PUSH2 0x21A1 JUMP JUMPDEST PUSH2 0x22A0 PUSH1 0x1F DUP3 ADD PUSH1 0x1F NOT AND PUSH1 0x20 ADD PUSH2 0x21B5 JUMP JUMPDEST DUP2 DUP2 MSTORE DUP9 PUSH1 0x20 DUP4 DUP6 ADD ADD GT ISZERO PUSH2 0x22B4 JUMPI PUSH0 PUSH0 REVERT JUMPDEST DUP2 PUSH1 0x20 DUP5 ADD PUSH1 0x20 DUP4 ADD CALLDATACOPY PUSH0 PUSH1 0x20 DUP4 DUP4 ADD ADD MSTORE DUP1 SWAP6 POP POP POP POP PUSH1 0x40 DUP6 ADD CALLDATALOAD PUSH1 0x1 PUSH1 0x1 PUSH1 0x40 SHL SUB DUP2 GT ISZERO PUSH2 0x22E4 JUMPI PUSH0 PUSH0 REVERT JUMPDEST PUSH2 0x22F0 DUP8 DUP3 DUP9 ADD PUSH2 0x21E5 JUMP JUMPDEST SWAP6 SWAP9 SWAP5 SWAP8 POP SWAP6 POP POP POP POP JUMP JUMPDEST PUSH0 PUSH1 0x20 DUP3 DUP5 SUB SLT ISZERO PUSH2 0x230C JUMPI PUSH0 PUSH0 REVERT JUMPDEST POP CALLDATALOAD SWAP2 SWAP1 POP JUMP JUMPDEST PUSH0 PUSH1 0x20 DUP3 DUP5 SUB SLT ISZERO PUSH2 0x2323 JUMPI PUSH0 PUSH0 REVERT JUMPDEST DUP2 CALLDATALOAD PUSH2 0x14C1 DUP2 PUSH2 0x20D0 JUMP JUMPDEST PUSH0 DUP2 MLOAD DUP1 DUP5 MSTORE PUSH1 0x20 DUP5 ADD SWAP4 POP PUSH1 0x20 DUP4 ADD PUSH0 JUMPDEST DUP3 DUP2 LT ISZERO PUSH2 0x2185 JUMPI DUP2 MLOAD DUP7 MSTORE PUSH1 0x20 SWAP6 DUP7 ADD SWAP6 SWAP1 SWAP2 ADD SWAP1 PUSH1 0x1 ADD PUSH2 0x2340 JUMP JUMPDEST PUSH1 0x20 DUP2 MSTORE PUSH0 PUSH2 0x14C1 PUSH1 0x20 DUP4 ADD DUP5 PUSH2 0x232E JUMP JUMPDEST PUSH1 0x60 DUP2 MSTORE PUSH0 PUSH2 0x2382 PUSH1 0x60 DUP4 ADD DUP7 PUSH2 0x232E JUMP JUMPDEST PUSH1 0x20 DUP4 ADD SWAP5 SWAP1 SWAP5 MSTORE POP PUSH1 0x40 ADD MSTORE SWAP2 SWAP1 POP JUMP JUMPDEST DUP1 ISZERO ISZERO DUP2 EQ PUSH2 0x157C JUMPI PUSH0 PUSH0 REVERT JUMPDEST PUSH0 PUSH1 0x20 DUP3 DUP5 SUB SLT ISZERO PUSH2 0x23B1 JUMPI PUSH0 PUSH0 REVERT JUMPDEST DUP2 CALLDATALOAD PUSH2 0x14C1 DUP2 PUSH2 0x2394 JUMP JUMPDEST PUSH0 PUSH0 PUSH1 0x40 DUP4 DUP6 SUB SLT ISZERO PUSH2 0x23CD JUMPI PUSH0 PUSH0 REVERT JUMPDEST DUP3 CALLDATALOAD PUSH2 0x23D8 DUP2 PUSH2 0x20D0 JUMP JUMPDEST SWAP2 POP PUSH1 0x20 DUP4 ADD CALLDATALOAD PUSH2 0x23E8 DUP2 PUSH2 0x20D0 JUMP JUMPDEST DUP1 SWAP2 POP POP SWAP3 POP SWAP3 SWAP1 POP JUMP JUMPDEST PUSH0 PUSH0 PUSH1 0x20 DUP4 DUP6 SUB SLT ISZERO PUSH2 0x2404 JUMPI PUSH0 PUSH0 REVERT JUMPDEST DUP3 CALLDATALOAD PUSH1 0x1 PUSH1 0x1 PUSH1 0x40 SHL SUB DUP2 GT ISZERO PUSH2 0x2419 JUMPI PUSH0 PUSH0 REVERT JUMPDEST PUSH2 0x2425 DUP6 DUP3 DUP7 ADD PUSH2 0x21E5 JUMP JUMPDEST SWAP1 SWAP7 SWAP1 SWAP6 POP SWAP4 POP POP POP POP JUMP JUMPDEST PUSH0 PUSH0 PUSH0 PUSH1 0x40 DUP5 DUP7 SUB SLT ISZERO PUSH2 0x2443 JUMPI PUSH0 PUSH0 REVERT JUMPDEST DUP4 CALLDATALOAD PUSH2 0x244E DUP2 PUSH2 0x20D0 JUMP JUMPDEST SWAP3 POP PUSH1 0x20 DUP5 ADD CALLDATALOAD PUSH1 0x1 PUSH1 0x1 PUSH1 0x40 SHL SUB DUP2 GT ISZERO PUSH2 0x2468 JUMPI PUSH0 PUSH0 REVERT JUMPDEST PUSH2 0x2474 DUP7 DUP3 DUP8 ADD PUSH2 0x21E5 JUMP JUMPDEST SWAP5 SWAP8 SWAP1 SWAP7 POP SWAP4 SWAP5 POP POP POP POP JUMP JUMPDEST PUSH1 0x1 DUP2 DUP2 SHR SWAP1 DUP3 AND DUP1 PUSH2 0x2495 JUMPI PUSH1 0x7F DUP3 AND SWAP2 POP JUMPDEST PUSH1 0x20 DUP3 LT DUP2 SUB PUSH2 0x24B3 JUMPI PUSH4 0x4E487B71 PUSH1 0xE0 SHL PUSH0 MSTORE PUSH1 0x22 PUSH1 0x4 MSTORE PUSH1 0x24 PUSH0 REVERT JUMPDEST POP SWAP2 SWAP1 POP JUMP JUMPDEST PUSH4 0x4E487B71 PUSH1 0xE0 SHL PUSH0 MSTORE PUSH1 0x11 PUSH1 0x4 MSTORE PUSH1 0x24 PUSH0 REVERT JUMPDEST DUP1 DUP3 ADD DUP1 DUP3 GT ISZERO PUSH2 0x557 JUMPI PUSH2 0x557 PUSH2 0x24B9 JUMP JUMPDEST PUSH0 DUP2 MLOAD DUP1 PUSH1 0x20 DUP5 ADD DUP6 MCOPY PUSH0 SWAP4 ADD SWAP3 DUP4 MSTORE POP SWAP1 SWAP2 SWAP1 POP JUMP JUMPDEST PUSH0 PUSH2 0x2502 DUP3 DUP5 PUSH2 0x24E0 JUMP JUMPDEST PUSH3 0x2D4C5 PUSH1 0xEC SHL DUP2 MSTORE PUSH1 0x3 ADD SWAP4 SWAP3 POP POP POP JUMP JUMPDEST DUP2 DUP2 SUB DUP2 DUP2 GT ISZERO PUSH2 0x557 JUMPI PUSH2 0x557 PUSH2 0x24B9 JUMP JUMPDEST PUSH0 DUP3 PUSH2 0x2542 JUMPI PUSH4 0x4E487B71 PUSH1 0xE0 SHL PUSH0 MSTORE PUSH1 0x12 PUSH1 0x4 MSTORE PUSH1 0x24 PUSH0 REVERT JUMPDEST POP DIV SWAP1 JUMP JUMPDEST PUSH0 PUSH1 0x20 DUP3 DUP5 SUB SLT ISZERO PUSH2 0x2557 JUMPI PUSH0 PUSH0 REVERT JUMPDEST POP MLOAD SWAP2 SWAP1 POP JUMP JUMPDEST PUSH4 0x4E487B71 PUSH1 0xE0 SHL PUSH0 MSTORE PUSH1 0x32 PUSH1 0x4 MSTORE PUSH1 0x24 PUSH0 REVERT JUMPDEST PUSH0 PUSH1 0x20 DUP3 DUP5 SUB SLT ISZERO PUSH2 0x2582 JUMPI PUSH0 PUSH0 REVERT JUMPDEST DUP2 MLOAD PUSH2 0x14C1 DUP2 PUSH2 0x20D0 JUMP JUMPDEST PUSH0 PUSH1 0x20 DUP3 DUP5 SUB SLT ISZERO PUSH2 0x259D JUMPI PUSH0 PUSH0 REVERT JUMPDEST DUP2 MLOAD PUSH1 0x1 PUSH1 0x1 PUSH1 0x40 SHL SUB DUP2 GT ISZERO PUSH2 0x25B2 JUMPI PUSH0 PUSH0 REVERT JUMPDEST DUP3 ADD PUSH1 0x1F DUP2 ADD DUP5 SGT PUSH2 0x25C2 JUMPI PUSH0 PUSH0 REVERT JUMPDEST DUP1 MLOAD PUSH1 0x1 PUSH1 0x1 PUSH1 0x40 SHL SUB DUP2 GT ISZERO PUSH2 0x25DB JUMPI PUSH2 0x25DB PUSH2 0x21A1 JUMP JUMPDEST DUP1 PUSH1 0x5 SHL PUSH2 0x25EB PUSH1 0x20 DUP3 ADD PUSH2 0x21B5 JUMP JUMPDEST SWAP2 DUP3 MSTORE PUSH1 0x20 DUP2 DUP5 ADD DUP2 ADD SWAP3 SWAP1 DUP2 ADD SWAP1 DUP8 DUP5 GT ISZERO PUSH2 0x2606 JUMPI PUSH0 PUSH0 REVERT JUMPDEST PUSH1 0x20 DUP6 ADD SWAP5 POP JUMPDEST DUP4 DUP6 LT ISZERO PUSH2 0x1F45 JUMPI DUP5 MLOAD SWAP3 POP PUSH2 0x2622 DUP4 PUSH2 0x20D0 JUMP JUMPDEST DUP3 DUP3 MSTORE PUSH1 0x20 SWAP5 DUP6 ADD SWAP5 SWAP1 SWAP2 ADD SWAP1 PUSH2 0x260D JUMP JUMPDEST DUP1 DUP3 MUL DUP2 ISZERO DUP3 DUP3 DIV DUP5 EQ OR PUSH2 0x557 JUMPI PUSH2 0x557 PUSH2 0x24B9 JUMP JUMPDEST DUP3 DUP2 MSTORE PUSH1 0x40 PUSH1 0x20 DUP3 ADD MSTORE PUSH0 PUSH2 0x1E71 PUSH1 0x40 DUP4 ADD DUP5 PUSH2 0x214C JUMP JUMPDEST PUSH1 0x20 DUP1 DUP3 MSTORE DUP2 ADD DUP3 SWAP1 MSTORE PUSH0 DUP4 PUSH1 0x40 DUP4 ADD DUP3 JUMPDEST DUP6 DUP2 LT ISZERO PUSH2 0x26A5 JUMPI DUP3 CALLDATALOAD PUSH2 0x2688 DUP2 PUSH2 0x20D0 JUMP JUMPDEST PUSH1 0x1 PUSH1 0x1 PUSH1 0xA0 SHL SUB AND DUP3 MSTORE PUSH1 0x20 SWAP3 DUP4 ADD SWAP3 SWAP1 SWAP2 ADD SWAP1 PUSH1 0x1 ADD PUSH2 0x2675 JUMP JUMPDEST POP SWAP6 SWAP5 POP POP POP POP POP JUMP JUMPDEST PUSH1 0x1F DUP3 GT ISZERO PUSH2 0xF0E JUMPI DUP1 PUSH0 MSTORE PUSH1 0x20 PUSH0 KECCAK256 PUSH1 0x1F DUP5 ADD PUSH1 0x5 SHR DUP2 ADD PUSH1 0x20 DUP6 LT ISZERO PUSH2 0x26D4 JUMPI POP DUP1 JUMPDEST PUSH1 0x1F DUP5 ADD PUSH1 0x5 SHR DUP3 ADD SWAP2 POP JUMPDEST DUP2 DUP2 LT ISZERO PUSH2 0x1BBA JUMPI PUSH0 DUP2 SSTORE PUSH1 0x1 ADD PUSH2 0x26E0 JUMP JUMPDEST DUP2 MLOAD PUSH1 0x1 PUSH1 0x1 PUSH1 0x40 SHL SUB DUP2 GT ISZERO PUSH2 0x270C JUMPI PUSH2 0x270C PUSH2 0x21A1 JUMP JUMPDEST PUSH2 0x2720 DUP2 PUSH2 0x271A DUP5 SLOAD PUSH2 0x2481 JUMP JUMPDEST DUP5 PUSH2 0x26AF JUMP JUMPDEST PUSH1 0x20 PUSH1 0x1F DUP3 GT PUSH1 0x1 DUP2 EQ PUSH2 0x2752 JUMPI PUSH0 DUP4 ISZERO PUSH2 0x273B JUMPI POP DUP5 DUP3 ADD MLOAD JUMPDEST PUSH0 NOT PUSH1 0x3 DUP6 SWAP1 SHL SHR NOT AND PUSH1 0x1 DUP5 SWAP1 SHL OR DUP5 SSTORE PUSH2 0x1BBA JUMP JUMPDEST PUSH0 DUP5 DUP2 MSTORE PUSH1 0x20 DUP2 KECCAK256 PUSH1 0x1F NOT DUP6 AND SWAP2 JUMPDEST DUP3 DUP2 LT ISZERO PUSH2 0x2781 JUMPI DUP8 DUP6 ADD MLOAD DUP3 SSTORE PUSH1 0x20 SWAP5 DUP6 ADD SWAP5 PUSH1 0x1 SWAP1 SWAP3 ADD SWAP2 ADD PUSH2 0x2761 JUMP JUMPDEST POP DUP5 DUP3 LT ISZERO PUSH2 0x279E JUMPI DUP7 DUP5 ADD MLOAD PUSH0 NOT PUSH1 0x3 DUP8 SWAP1 SHL PUSH1 0xF8 AND SHR NOT AND DUP2 SSTORE JUMPDEST POP POP POP POP PUSH1 0x1 SWAP1 DUP2 SHL ADD SWAP1 SSTORE POP JUMP JUMPDEST PUSH0 PUSH1 0x20 DUP3 DUP5 SUB SLT ISZERO PUSH2 0x27BD JUMPI PUSH0 PUSH0 REVERT JUMPDEST DUP2 MLOAD PUSH2 0x14C1 DUP2 PUSH2 0x2394 JUMP JUMPDEST PUSH0 PUSH2 0x14C1 DUP3 DUP5 PUSH2 0x24E0 JUMP INVALID MSTORE 0xC6 ORIGIN SELFBALANCE RJUMPI 0xF47D 0xB1 SWAP14 TLOAD RJUMP 0x4600 ADDRESS 0xC4 SWAP8 CREATE PUSH8 0xCA4CEBF71BA98EEA 0xDA 0xBE KECCAK256 0xBA 0xCE STOP MSTORE 0xC6 ORIGIN SELFBALANCE RJUMPI 0xF47D 0xB1 SWAP14 TLOAD RJUMP 0x4600 ADDRESS 0xC4 SWAP8 CREATE PUSH8 0xCA4CEBF71BA98EEA 0xDA 0xBE KECCAK256 0xBA 0xCE MUL LOG2 PUSH5 0x6970667358 0x22 SLT KECCAK256 0xCB NOT SWAP9 PUSH10 0x44F508EB69BA00AE5344 SSTORE SDIV SWAP13 0xF7 MSTORE PUSH13 0x67241B26A7C16BAA945A70B564 PUSH20 0x6F6C634300081E00330000000000000000000000 "
				},
				"gasEstimates": {
					"creation": {
						"codeDepositCost": "2062600",
						"executionCost": "2190",
						"totalCost": "2064790"
					},
					"external": {
						"allowance(address,address)": "infinite",
						"approve(address,uint256)": "infinite",
						"balanceOf(address)": "infinite",
						"burn(address)": "infinite",
						"calFee()": "infinite",
						"calculateShareETH(uint256)": "infinite",
						"calculateShareLP(uint256)": "infinite",
						"calculateShareTokens(uint256)": "infinite",
						"decimals()": "266",
						"distMgmtFee()": "infinite",
						"factory()": "2446",
						"getTokenAddress(uint256)": "6834",
						"getTokenAndUserBal(address)": "infinite",
						"getTokenList()": "infinite",
						"getTokenReserve(uint256)": "6812",
						"getTokensReserve()": "infinite",
						"getTotalMgmtFee()": "infinite",
						"initialize(address,string,address[])": "infinite",
						"lastAccruedAt()": "2340",
						"mint(address,uint256[])": "infinite",
						"name()": "infinite",
						"owner()": "2434",
						"reentrancyGuardEntered()": "2354",
						"renounceOwnership()": "infinite",
						"setReentrancyGuardStatus(bool)": "26819",
						"symbol()": "infinite",
						"totalSupply()": "infinite",
						"transfer(address,uint256)": "infinite",
						"transferFrom(address,address,uint256)": "infinite",
						"transferOwnership(address)": "infinite",
						"transferTokensToOwner()": "infinite",
						"updateTokens(address[])": "infinite"
					},
					"internal": {
						"_factory()": "infinite",
						"_totalReservedETH()": "infinite",
						"_updateRebalanceReserve()": "infinite"
					}
				},
				"methodIdentifiers": {
					"allowance(address,address)": "dd62ed3e",
					"approve(address,uint256)": "095ea7b3",
					"balanceOf(address)": "70a08231",
					"burn(address)": "89afcb44",
					"calFee()": "55917ebe",
					"calculateShareETH(uint256)": "9257fa07",
					"calculateShareLP(uint256)": "e54ef9a0",
					"calculateShareTokens(uint256)": "d410ad7d",
					"decimals()": "313ce567",
					"distMgmtFee()": "b4b93c8c",
					"factory()": "c45a0155",
					"getTokenAddress(uint256)": "67ccdf38",
					"getTokenAndUserBal(address)": "a131d436",
					"getTokenList()": "273cbaa0",
					"getTokenReserve(uint256)": "8e73f1b4",
					"getTokensReserve()": "ec5975c6",
					"getTotalMgmtFee()": "090318fb",
					"initialize(address,string,address[])": "3a105cfb",
					"lastAccruedAt()": "5483067d",
					"mint(address,uint256[])": "de836ebd",
					"name()": "06fdde03",
					"owner()": "8da5cb5b",
					"reentrancyGuardEntered()": "d2c725e0",
					"renounceOwnership()": "715018a6",
					"setReentrancyGuardStatus(bool)": "ba6ba385",
					"symbol()": "95d89b41",
					"totalSupply()": "18160ddd",
					"transfer(address,uint256)": "a9059cbb",
					"transferFrom(address,address,uint256)": "23b872dd",
					"transferOwnership(address)": "f2fde38b",
					"transferTokensToOwner()": "a7c7fdeb",
					"updateTokens(address[])": "de41691c"
				}
			},
			"storageLayout": {
				"storage": [
					{
						"astId": 2559,
						"contract": "contracts/tokens/BTSPair.sol:BasketTokenStandardPair",
						"label": "factory",
						"offset": 0,
						"slot": "0",
						"type": "t_address"
					},
					{
						"astId": 2562,
						"contract": "contracts/tokens/BTSPair.sol:BasketTokenStandardPair",
						"label": "lastAccruedAt",
						"offset": 0,
						"slot": "1",
						"type": "t_uint256"
					},
					{
						"astId": 2565,
						"contract": "contracts/tokens/BTSPair.sol:BasketTokenStandardPair",
						"label": "reentrancyGuardEntered",
						"offset": 0,
						"slot": "2",
						"type": "t_bool"
					},
					{
						"astId": 2569,
						"contract": "contracts/tokens/BTSPair.sol:BasketTokenStandardPair",
						"label": "tokens",
						"offset": 0,
						"slot": "3",
						"type": "t_array(t_address)dyn_storage"
					},
					{
						"astId": 2573,
						"contract": "contracts/tokens/BTSPair.sol:BasketTokenStandardPair",
						"label": "reserves",
						"offset": 0,
						"slot": "4",
						"type": "t_array(t_uint256)dyn_storage"
					}
				],
				"types": {
					"t_address": {
						"encoding": "inplace",
						"label": "address",
						"numberOfBytes": "20"
					},
					"t_array(t_address)dyn_storage": {
						"base": "t_address",
						"encoding": "dynamic_array",
						"label": "address[]",
						"numberOfBytes": "32"
					},
					"t_array(t_uint256)dyn_storage": {
						"base": "t_uint256",
						"encoding": "dynamic_array",
						"label": "uint256[]",
						"numberOfBytes": "32"
					},
					"t_bool": {
						"encoding": "inplace",
						"label": "bool",
						"numberOfBytes": "1"
					},
					"t_uint256": {
						"encoding": "inplace",
						"label": "uint256",
						"numberOfBytes": "32"
					}
				}
			},
			"userdoc": {
				"errors": {
					"EmptyStringParameter(string)": [
						{
							"notice": "Error thrown when a parameter string is empty"
						}
					],
					"InsufficientLiquidity()": [
						{
							"notice": "Error thrown when there is insufficient liquidity for an operation"
						}
					],
					"InvalidRecipient()": [
						{
							"notice": "Error thrown when an invalid recipient address is provided"
						}
					],
					"InvalidToken()": [
						{
							"notice": "Error thrown when an invalid token is provided"
						}
					],
					"ReentrantCall()": [
						{
							"notice": "Error thrown when a reentrancy attempt is detected"
						}
					]
				},
				"events": {
					"TokensUpdated(address[])": {
						"notice": "Emitted when the token list is updated"
					},
					"feeAccrued(address,uint256,uint256,uint256,uint256)": {
						"notice": "Emitted when the fee is accrued"
					}
				},
				"kind": "user",
				"methods": {
					"burn(address)": {
						"notice": "Burns liquidity tokensThis function is only callable by the owner"
					},
					"calFee()": {
						"notice": "Calculates the management fee"
					},
					"calculateShareETH(uint256)": {
						"notice": "Calculates the share of ETH"
					},
					"calculateShareLP(uint256)": {
						"notice": "Calculates the share of LP tokens"
					},
					"calculateShareTokens(uint256)": {
						"notice": "Calculates the share of tokens"
					},
					"distMgmtFee()": {
						"notice": "Distributes the management fee"
					},
					"factory()": {
						"notice": "Address of the factory contract"
					},
					"getTokenAddress(uint256)": {
						"notice": "Returns the token address in the basket"
					},
					"getTokenAndUserBal(address)": {
						"notice": "Gets the token and user balances"
					},
					"getTokenList()": {
						"notice": "Gets the token list"
					},
					"getTokenReserve(uint256)": {
						"notice": "Returns the token reserve in the basket"
					},
					"getTokensReserve()": {
						"notice": "Gets the token reserves"
					},
					"getTotalMgmtFee()": {
						"notice": "Gets the total management fee"
					},
					"initialize(address,string,address[])": {
						"notice": "Initializes the pair contract"
					},
					"lastAccruedAt()": {
						"notice": "Timestamp of the last fee accrual"
					},
					"mint(address,uint256[])": {
						"notice": "Mints liquidity tokensThis function is only callable by the owner"
					},
					"reentrancyGuardEntered()": {
						"notice": "Boolean to track reentrancy"
					},
					"setReentrancyGuardStatus(bool)": {
						"notice": "Sets or resets the reentrancy guard flagThis function is only callable by the owner"
					},
					"transferTokensToOwner()": {
						"notice": "Transfer Tokens To Owner This function is only callable by the owner"
					},
					"updateTokens(address[])": {
						"notice": "Updates the token listThis function is only callable by the owner"
					}
				},
				"notice": "A contract for managing liquidity pairs of basket tokens",
				"version": 1
			}
		}
	}
}